Archive member included to satisfy reference by file (symbol)

c:/program files (x86)/atollic/truestudio for stm32 9.3.0/armtools/bin/../lib/gcc/arm-atollic-eabi/6.3.1/../../../../arm-atollic-eabi/lib/armv6-m\libc_nano.a(lib_a-errno.o)
                              Core\Src\syscalls.o (__errno)
c:/program files (x86)/atollic/truestudio for stm32 9.3.0/armtools/bin/../lib/gcc/arm-atollic-eabi/6.3.1/../../../../arm-atollic-eabi/lib/armv6-m\libc_nano.a(lib_a-impure.o)
                              c:/program files (x86)/atollic/truestudio for stm32 9.3.0/armtools/bin/../lib/gcc/arm-atollic-eabi/6.3.1/../../../../arm-atollic-eabi/lib/armv6-m\libc_nano.a(lib_a-errno.o) (_impure_ptr)
c:/program files (x86)/atollic/truestudio for stm32 9.3.0/armtools/bin/../lib/gcc/arm-atollic-eabi/6.3.1/../../../../arm-atollic-eabi/lib/armv6-m\libc_nano.a(lib_a-init.o)
                              startup\startup_stm32f072xb.o (__libc_init_array)
c:/program files (x86)/atollic/truestudio for stm32 9.3.0/armtools/bin/../lib/gcc/arm-atollic-eabi/6.3.1/../../../../arm-atollic-eabi/lib/armv6-m\libc_nano.a(lib_a-memset.o)
                              Core\Src\adc.o (memset)
c:/program files (x86)/atollic/truestudio for stm32 9.3.0/armtools/bin/../lib/gcc/arm-atollic-eabi/6.3.1/../../../../arm-atollic-eabi/lib/armv6-m\libc_nano.a(lib_a-printf.o)
                              Core\Src\main.o (printf)
c:/program files (x86)/atollic/truestudio for stm32 9.3.0/armtools/bin/../lib/gcc/arm-atollic-eabi/6.3.1/../../../../arm-atollic-eabi/lib/armv6-m\libc_nano.a(lib_a-findfp.o)
                              c:/program files (x86)/atollic/truestudio for stm32 9.3.0/armtools/bin/../lib/gcc/arm-atollic-eabi/6.3.1/../../../../arm-atollic-eabi/lib/armv6-m\libc_nano.a(lib_a-printf.o) (__sinit)
c:/program files (x86)/atollic/truestudio for stm32 9.3.0/armtools/bin/../lib/gcc/arm-atollic-eabi/6.3.1/../../../../arm-atollic-eabi/lib/armv6-m\libc_nano.a(lib_a-fwalk.o)
                              c:/program files (x86)/atollic/truestudio for stm32 9.3.0/armtools/bin/../lib/gcc/arm-atollic-eabi/6.3.1/../../../../arm-atollic-eabi/lib/armv6-m\libc_nano.a(lib_a-findfp.o) (_fwalk)
c:/program files (x86)/atollic/truestudio for stm32 9.3.0/armtools/bin/../lib/gcc/arm-atollic-eabi/6.3.1/../../../../arm-atollic-eabi/lib/armv6-m\libc_nano.a(lib_a-nano-mallocr.o)
                              c:/program files (x86)/atollic/truestudio for stm32 9.3.0/armtools/bin/../lib/gcc/arm-atollic-eabi/6.3.1/../../../../arm-atollic-eabi/lib/armv6-m\libc_nano.a(lib_a-findfp.o) (_malloc_r)
c:/program files (x86)/atollic/truestudio for stm32 9.3.0/armtools/bin/../lib/gcc/arm-atollic-eabi/6.3.1/../../../../arm-atollic-eabi/lib/armv6-m\libc_nano.a(lib_a-nano-vfprintf.o)
                              c:/program files (x86)/atollic/truestudio for stm32 9.3.0/armtools/bin/../lib/gcc/arm-atollic-eabi/6.3.1/../../../../arm-atollic-eabi/lib/armv6-m\libc_nano.a(lib_a-printf.o) (_vfprintf_r)
c:/program files (x86)/atollic/truestudio for stm32 9.3.0/armtools/bin/../lib/gcc/arm-atollic-eabi/6.3.1/../../../../arm-atollic-eabi/lib/armv6-m\libc_nano.a(lib_a-nano-vfprintf_i.o)
                              c:/program files (x86)/atollic/truestudio for stm32 9.3.0/armtools/bin/../lib/gcc/arm-atollic-eabi/6.3.1/../../../../arm-atollic-eabi/lib/armv6-m\libc_nano.a(lib_a-nano-vfprintf.o) (_printf_i)
c:/program files (x86)/atollic/truestudio for stm32 9.3.0/armtools/bin/../lib/gcc/arm-atollic-eabi/6.3.1/../../../../arm-atollic-eabi/lib/armv6-m\libc_nano.a(lib_a-sbrkr.o)
                              c:/program files (x86)/atollic/truestudio for stm32 9.3.0/armtools/bin/../lib/gcc/arm-atollic-eabi/6.3.1/../../../../arm-atollic-eabi/lib/armv6-m\libc_nano.a(lib_a-nano-mallocr.o) (_sbrk_r)
c:/program files (x86)/atollic/truestudio for stm32 9.3.0/armtools/bin/../lib/gcc/arm-atollic-eabi/6.3.1/../../../../arm-atollic-eabi/lib/armv6-m\libc_nano.a(lib_a-stdio.o)
                              c:/program files (x86)/atollic/truestudio for stm32 9.3.0/armtools/bin/../lib/gcc/arm-atollic-eabi/6.3.1/../../../../arm-atollic-eabi/lib/armv6-m\libc_nano.a(lib_a-findfp.o) (__sread)
c:/program files (x86)/atollic/truestudio for stm32 9.3.0/armtools/bin/../lib/gcc/arm-atollic-eabi/6.3.1/../../../../arm-atollic-eabi/lib/armv6-m\libc_nano.a(lib_a-wbuf.o)
                              c:/program files (x86)/atollic/truestudio for stm32 9.3.0/armtools/bin/../lib/gcc/arm-atollic-eabi/6.3.1/../../../../arm-atollic-eabi/lib/armv6-m\libc_nano.a(lib_a-nano-vfprintf.o) (__swbuf_r)
c:/program files (x86)/atollic/truestudio for stm32 9.3.0/armtools/bin/../lib/gcc/arm-atollic-eabi/6.3.1/../../../../arm-atollic-eabi/lib/armv6-m\libc_nano.a(lib_a-writer.o)
                              c:/program files (x86)/atollic/truestudio for stm32 9.3.0/armtools/bin/../lib/gcc/arm-atollic-eabi/6.3.1/../../../../arm-atollic-eabi/lib/armv6-m\libc_nano.a(lib_a-stdio.o) (_write_r)
c:/program files (x86)/atollic/truestudio for stm32 9.3.0/armtools/bin/../lib/gcc/arm-atollic-eabi/6.3.1/../../../../arm-atollic-eabi/lib/armv6-m\libc_nano.a(lib_a-wsetup.o)
                              c:/program files (x86)/atollic/truestudio for stm32 9.3.0/armtools/bin/../lib/gcc/arm-atollic-eabi/6.3.1/../../../../arm-atollic-eabi/lib/armv6-m\libc_nano.a(lib_a-nano-vfprintf.o) (__swsetup_r)
c:/program files (x86)/atollic/truestudio for stm32 9.3.0/armtools/bin/../lib/gcc/arm-atollic-eabi/6.3.1/../../../../arm-atollic-eabi/lib/armv6-m\libc_nano.a(lib_a-closer.o)
                              c:/program files (x86)/atollic/truestudio for stm32 9.3.0/armtools/bin/../lib/gcc/arm-atollic-eabi/6.3.1/../../../../arm-atollic-eabi/lib/armv6-m\libc_nano.a(lib_a-stdio.o) (_close_r)
c:/program files (x86)/atollic/truestudio for stm32 9.3.0/armtools/bin/../lib/gcc/arm-atollic-eabi/6.3.1/../../../../arm-atollic-eabi/lib/armv6-m\libc_nano.a(lib_a-fflush.o)
                              c:/program files (x86)/atollic/truestudio for stm32 9.3.0/armtools/bin/../lib/gcc/arm-atollic-eabi/6.3.1/../../../../arm-atollic-eabi/lib/armv6-m\libc_nano.a(lib_a-findfp.o) (_fflush_r)
c:/program files (x86)/atollic/truestudio for stm32 9.3.0/armtools/bin/../lib/gcc/arm-atollic-eabi/6.3.1/../../../../arm-atollic-eabi/lib/armv6-m\libc_nano.a(lib_a-fvwrite.o)
                              c:/program files (x86)/atollic/truestudio for stm32 9.3.0/armtools/bin/../lib/gcc/arm-atollic-eabi/6.3.1/../../../../arm-atollic-eabi/lib/armv6-m\libc_nano.a(lib_a-nano-vfprintf.o) (__sfvwrite_r)
c:/program files (x86)/atollic/truestudio for stm32 9.3.0/armtools/bin/../lib/gcc/arm-atollic-eabi/6.3.1/../../../../arm-atollic-eabi/lib/armv6-m\libc_nano.a(lib_a-lseekr.o)
                              c:/program files (x86)/atollic/truestudio for stm32 9.3.0/armtools/bin/../lib/gcc/arm-atollic-eabi/6.3.1/../../../../arm-atollic-eabi/lib/armv6-m\libc_nano.a(lib_a-stdio.o) (_lseek_r)
c:/program files (x86)/atollic/truestudio for stm32 9.3.0/armtools/bin/../lib/gcc/arm-atollic-eabi/6.3.1/../../../../arm-atollic-eabi/lib/armv6-m\libc_nano.a(lib_a-makebuf.o)
                              c:/program files (x86)/atollic/truestudio for stm32 9.3.0/armtools/bin/../lib/gcc/arm-atollic-eabi/6.3.1/../../../../arm-atollic-eabi/lib/armv6-m\libc_nano.a(lib_a-wsetup.o) (__smakebuf_r)
c:/program files (x86)/atollic/truestudio for stm32 9.3.0/armtools/bin/../lib/gcc/arm-atollic-eabi/6.3.1/../../../../arm-atollic-eabi/lib/armv6-m\libc_nano.a(lib_a-memchr-stub.o)
                              c:/program files (x86)/atollic/truestudio for stm32 9.3.0/armtools/bin/../lib/gcc/arm-atollic-eabi/6.3.1/../../../../arm-atollic-eabi/lib/armv6-m\libc_nano.a(lib_a-nano-vfprintf.o) (memchr)
c:/program files (x86)/atollic/truestudio for stm32 9.3.0/armtools/bin/../lib/gcc/arm-atollic-eabi/6.3.1/../../../../arm-atollic-eabi/lib/armv6-m\libc_nano.a(lib_a-memcpy-stub.o)
                              c:/program files (x86)/atollic/truestudio for stm32 9.3.0/armtools/bin/../lib/gcc/arm-atollic-eabi/6.3.1/../../../../arm-atollic-eabi/lib/armv6-m\libc_nano.a(lib_a-fvwrite.o) (memcpy)
c:/program files (x86)/atollic/truestudio for stm32 9.3.0/armtools/bin/../lib/gcc/arm-atollic-eabi/6.3.1/../../../../arm-atollic-eabi/lib/armv6-m\libc_nano.a(lib_a-memmove.o)
                              c:/program files (x86)/atollic/truestudio for stm32 9.3.0/armtools/bin/../lib/gcc/arm-atollic-eabi/6.3.1/../../../../arm-atollic-eabi/lib/armv6-m\libc_nano.a(lib_a-fvwrite.o) (memmove)
c:/program files (x86)/atollic/truestudio for stm32 9.3.0/armtools/bin/../lib/gcc/arm-atollic-eabi/6.3.1/../../../../arm-atollic-eabi/lib/armv6-m\libc_nano.a(lib_a-mlock.o)
                              c:/program files (x86)/atollic/truestudio for stm32 9.3.0/armtools/bin/../lib/gcc/arm-atollic-eabi/6.3.1/../../../../arm-atollic-eabi/lib/armv6-m\libc_nano.a(lib_a-nano-mallocr.o) (__malloc_lock)
c:/program files (x86)/atollic/truestudio for stm32 9.3.0/armtools/bin/../lib/gcc/arm-atollic-eabi/6.3.1/../../../../arm-atollic-eabi/lib/armv6-m\libc_nano.a(lib_a-nano-freer.o)
                              c:/program files (x86)/atollic/truestudio for stm32 9.3.0/armtools/bin/../lib/gcc/arm-atollic-eabi/6.3.1/../../../../arm-atollic-eabi/lib/armv6-m\libc_nano.a(lib_a-wsetup.o) (_free_r)
c:/program files (x86)/atollic/truestudio for stm32 9.3.0/armtools/bin/../lib/gcc/arm-atollic-eabi/6.3.1/../../../../arm-atollic-eabi/lib/armv6-m\libc_nano.a(lib_a-nano-reallocr.o)
                              c:/program files (x86)/atollic/truestudio for stm32 9.3.0/armtools/bin/../lib/gcc/arm-atollic-eabi/6.3.1/../../../../arm-atollic-eabi/lib/armv6-m\libc_nano.a(lib_a-fvwrite.o) (_realloc_r)
c:/program files (x86)/atollic/truestudio for stm32 9.3.0/armtools/bin/../lib/gcc/arm-atollic-eabi/6.3.1/../../../../arm-atollic-eabi/lib/armv6-m\libc_nano.a(lib_a-readr.o)
                              c:/program files (x86)/atollic/truestudio for stm32 9.3.0/armtools/bin/../lib/gcc/arm-atollic-eabi/6.3.1/../../../../arm-atollic-eabi/lib/armv6-m\libc_nano.a(lib_a-stdio.o) (_read_r)
c:/program files (x86)/atollic/truestudio for stm32 9.3.0/armtools/bin/../lib/gcc/arm-atollic-eabi/6.3.1/../../../../arm-atollic-eabi/lib/armv6-m\libc_nano.a(lib_a-reent.o)
                              c:/program files (x86)/atollic/truestudio for stm32 9.3.0/armtools/bin/../lib/gcc/arm-atollic-eabi/6.3.1/../../../../arm-atollic-eabi/lib/armv6-m\libc_nano.a(lib_a-sbrkr.o) (errno)
c:/program files (x86)/atollic/truestudio for stm32 9.3.0/armtools/bin/../lib/gcc/arm-atollic-eabi/6.3.1/../../../../arm-atollic-eabi/lib/armv6-m\libc_nano.a(lib_a-fstatr.o)
                              c:/program files (x86)/atollic/truestudio for stm32 9.3.0/armtools/bin/../lib/gcc/arm-atollic-eabi/6.3.1/../../../../arm-atollic-eabi/lib/armv6-m\libc_nano.a(lib_a-makebuf.o) (_fstat_r)
c:/program files (x86)/atollic/truestudio for stm32 9.3.0/armtools/bin/../lib/gcc/arm-atollic-eabi/6.3.1/../../../../arm-atollic-eabi/lib/armv6-m\libc_nano.a(lib_a-isattyr.o)
                              c:/program files (x86)/atollic/truestudio for stm32 9.3.0/armtools/bin/../lib/gcc/arm-atollic-eabi/6.3.1/../../../../arm-atollic-eabi/lib/armv6-m\libc_nano.a(lib_a-makebuf.o) (_isatty_r)
c:/program files (x86)/atollic/truestudio for stm32 9.3.0/armtools/bin/../lib/gcc/arm-atollic-eabi/6.3.1/../../../../arm-atollic-eabi/lib/armv6-m\libc_nano.a(lib_a-nano-msizer.o)
                              c:/program files (x86)/atollic/truestudio for stm32 9.3.0/armtools/bin/../lib/gcc/arm-atollic-eabi/6.3.1/../../../../arm-atollic-eabi/lib/armv6-m\libc_nano.a(lib_a-nano-reallocr.o) (_malloc_usable_size_r)
c:/program files (x86)/atollic/truestudio for stm32 9.3.0/armtools/bin/../lib/gcc/arm-atollic-eabi/6.3.1/armv6-m\libgcc.a(_udivsi3.o)
                              Core\Src\input_keyboard.o (__aeabi_uidiv)
c:/program files (x86)/atollic/truestudio for stm32 9.3.0/armtools/bin/../lib/gcc/arm-atollic-eabi/6.3.1/armv6-m\libgcc.a(_divsi3.o)
                              Core\Src\led_driver_PCA9685.o (__aeabi_idiv)
c:/program files (x86)/atollic/truestudio for stm32 9.3.0/armtools/bin/../lib/gcc/arm-atollic-eabi/6.3.1/armv6-m\libgcc.a(_dvmd_tls.o)
                              c:/program files (x86)/atollic/truestudio for stm32 9.3.0/armtools/bin/../lib/gcc/arm-atollic-eabi/6.3.1/armv6-m\libgcc.a(_udivsi3.o) (__aeabi_idiv0)
c:/program files (x86)/atollic/truestudio for stm32 9.3.0/armtools/bin/../lib/gcc/arm-atollic-eabi/6.3.1/armv6-m\libgcc.a(_arm_cmpdf2.o)
                              Core\Src\tim.o (__aeabi_dcmpgt)
c:/program files (x86)/atollic/truestudio for stm32 9.3.0/armtools/bin/../lib/gcc/arm-atollic-eabi/6.3.1/armv6-m\libgcc.a(_fixunssfsi.o)
                              Core\Src\led_driver_PCA9685.o (__aeabi_f2uiz)
c:/program files (x86)/atollic/truestudio for stm32 9.3.0/armtools/bin/../lib/gcc/arm-atollic-eabi/6.3.1/armv6-m\libgcc.a(addsf3.o)
                              Core\Src\led_driver_PCA9685.o (__aeabi_fadd)
c:/program files (x86)/atollic/truestudio for stm32 9.3.0/armtools/bin/../lib/gcc/arm-atollic-eabi/6.3.1/armv6-m\libgcc.a(divsf3.o)
                              Core\Src\led_driver_PCA9685.o (__aeabi_fdiv)
c:/program files (x86)/atollic/truestudio for stm32 9.3.0/armtools/bin/../lib/gcc/arm-atollic-eabi/6.3.1/armv6-m\libgcc.a(subsf3.o)
                              Core\Src\led_driver_PCA9685.o (__aeabi_fsub)
c:/program files (x86)/atollic/truestudio for stm32 9.3.0/armtools/bin/../lib/gcc/arm-atollic-eabi/6.3.1/armv6-m\libgcc.a(fixsfsi.o)
                              c:/program files (x86)/atollic/truestudio for stm32 9.3.0/armtools/bin/../lib/gcc/arm-atollic-eabi/6.3.1/armv6-m\libgcc.a(_fixunssfsi.o) (__aeabi_f2iz)
c:/program files (x86)/atollic/truestudio for stm32 9.3.0/armtools/bin/../lib/gcc/arm-atollic-eabi/6.3.1/armv6-m\libgcc.a(adddf3.o)
                              Core\Src\tim.o (__aeabi_dadd)
c:/program files (x86)/atollic/truestudio for stm32 9.3.0/armtools/bin/../lib/gcc/arm-atollic-eabi/6.3.1/armv6-m\libgcc.a(eqdf2.o)
                              c:/program files (x86)/atollic/truestudio for stm32 9.3.0/armtools/bin/../lib/gcc/arm-atollic-eabi/6.3.1/armv6-m\libgcc.a(_arm_cmpdf2.o) (__eqdf2)
c:/program files (x86)/atollic/truestudio for stm32 9.3.0/armtools/bin/../lib/gcc/arm-atollic-eabi/6.3.1/armv6-m\libgcc.a(gedf2.o)
                              c:/program files (x86)/atollic/truestudio for stm32 9.3.0/armtools/bin/../lib/gcc/arm-atollic-eabi/6.3.1/armv6-m\libgcc.a(_arm_cmpdf2.o) (__gedf2)
c:/program files (x86)/atollic/truestudio for stm32 9.3.0/armtools/bin/../lib/gcc/arm-atollic-eabi/6.3.1/armv6-m\libgcc.a(ledf2.o)
                              c:/program files (x86)/atollic/truestudio for stm32 9.3.0/armtools/bin/../lib/gcc/arm-atollic-eabi/6.3.1/armv6-m\libgcc.a(_arm_cmpdf2.o) (__ledf2)
c:/program files (x86)/atollic/truestudio for stm32 9.3.0/armtools/bin/../lib/gcc/arm-atollic-eabi/6.3.1/armv6-m\libgcc.a(muldf3.o)
                              Core\Src\led_driver_PCA9685.o (__aeabi_dmul)
c:/program files (x86)/atollic/truestudio for stm32 9.3.0/armtools/bin/../lib/gcc/arm-atollic-eabi/6.3.1/armv6-m\libgcc.a(fixdfsi.o)
                              Core\Src\tim.o (__aeabi_d2iz)
c:/program files (x86)/atollic/truestudio for stm32 9.3.0/armtools/bin/../lib/gcc/arm-atollic-eabi/6.3.1/armv6-m\libgcc.a(extendsfdf2.o)
                              Core\Src\led_driver_PCA9685.o (__aeabi_f2d)
c:/program files (x86)/atollic/truestudio for stm32 9.3.0/armtools/bin/../lib/gcc/arm-atollic-eabi/6.3.1/armv6-m\libgcc.a(truncdfsf2.o)
                              Core\Src\led_driver_PCA9685.o (__aeabi_d2f)
c:/program files (x86)/atollic/truestudio for stm32 9.3.0/armtools/bin/../lib/gcc/arm-atollic-eabi/6.3.1/armv6-m\libgcc.a(_arm_cmpsf2.o)
                              c:/program files (x86)/atollic/truestudio for stm32 9.3.0/armtools/bin/../lib/gcc/arm-atollic-eabi/6.3.1/armv6-m\libgcc.a(_fixunssfsi.o) (__aeabi_fcmpge)
c:/program files (x86)/atollic/truestudio for stm32 9.3.0/armtools/bin/../lib/gcc/arm-atollic-eabi/6.3.1/armv6-m\libgcc.a(_clzsi2.o)
                              c:/program files (x86)/atollic/truestudio for stm32 9.3.0/armtools/bin/../lib/gcc/arm-atollic-eabi/6.3.1/armv6-m\libgcc.a(addsf3.o) (__clzsi2)
c:/program files (x86)/atollic/truestudio for stm32 9.3.0/armtools/bin/../lib/gcc/arm-atollic-eabi/6.3.1/armv6-m\libgcc.a(eqsf2.o)
                              c:/program files (x86)/atollic/truestudio for stm32 9.3.0/armtools/bin/../lib/gcc/arm-atollic-eabi/6.3.1/armv6-m\libgcc.a(_arm_cmpsf2.o) (__eqsf2)
c:/program files (x86)/atollic/truestudio for stm32 9.3.0/armtools/bin/../lib/gcc/arm-atollic-eabi/6.3.1/armv6-m\libgcc.a(gesf2.o)
                              c:/program files (x86)/atollic/truestudio for stm32 9.3.0/armtools/bin/../lib/gcc/arm-atollic-eabi/6.3.1/armv6-m\libgcc.a(_arm_cmpsf2.o) (__gesf2)
c:/program files (x86)/atollic/truestudio for stm32 9.3.0/armtools/bin/../lib/gcc/arm-atollic-eabi/6.3.1/armv6-m\libgcc.a(lesf2.o)
                              c:/program files (x86)/atollic/truestudio for stm32 9.3.0/armtools/bin/../lib/gcc/arm-atollic-eabi/6.3.1/armv6-m\libgcc.a(_arm_cmpsf2.o) (__lesf2)

Allocating common symbols
Common symbol       size              file

enc_rotation_read   0x1               Core\Src\main.o
led_to_change       0x1               Core\Src\Modbus_DMA\mdb_com.o
hUsbDeviceFS        0x2c4             USB_DEVICE\App\usb_device.o
sw_debounce1_counter
                    0x18              Core\Src\Modbus_DMA\mdb.o
longpress_time_ms   0x2               Core\Src\Modbus_DMA\mdb_com.o
duty_blue           0x1               Core\Src\Modbus_DMA\mdb_com.o
hdma_usart2_rx      0x44              Core\Src\usart.o
hspi2               0x64              Core\Src\spi.o
display_refresh_event
                    0x1               Core\Src\Modbus_DMA\mdb_com.o
opera_keyboard_conf
                    0x2               Core\Src\Modbus_DMA\mdb_com.o
errno               0x4               c:/program files (x86)/atollic/truestudio for stm32 9.3.0/armtools/bin/../lib/gcc/arm-atollic-eabi/6.3.1/../../../../arm-atollic-eabi/lib/armv6-m\libc_nano.a(lib_a-reent.o)
keyboard_short      0x2               Core\Src\Modbus_DMA\mdb_com.o
adr_modbus_reg      0x2               Core\Src\Modbus_DMA\mdb_com.o
hi2c1               0x4c              Core\Src\i2c.o
hiwdg               0x10              Core\Src\iwdg.o
htim17              0x40              Core\Src\tim.o
display_refresh_start_event
                    0x1               Core\Src\Modbus_DMA\mdb_com.o
main_clock          0x28              Core\Src\Modbus_DMA\mdb_com.o
PCA9585_i2caddr     0x1               Core\Src\Modbus_DMA\mdb.o
uwTick              0x4               Drivers\STM32F0xx_HAL_Driver\Src\stm32f0xx_hal.o
led_RGB             0x30              Core\Src\Modbus_DMA\mdb_com.o
last_recv_mdb_time  0x4               Core\Src\Modbus_DMA\mdb_com.o
keyboard_1click     0x2               Core\Src\Modbus_DMA\mdb_com.o
new_key_pressed     0x1               Core\Src\main.o
click_double_press_time
                    0x4               Core\Src\Modbus_DMA\mdb_com.o
pFlash              0x20              Drivers\STM32F0xx_HAL_Driver\Src\stm32f0xx_hal_flash.o
DP_SW_RS485_adr     0x1               Core\Src\Modbus_DMA\mdb_com.o
timeout_mdb_no_msg  0x4               Core\Src\Modbus_DMA\mdb_com.o
new_data_rx         0x1               Core\Src\Modbus_DMA\mdb_com.o
duty_red            0x1               Core\Src\Modbus_DMA\mdb_com.o
sw_debounce2_counter
                    0x18              Core\Src\Modbus_DMA\mdb.o
long_press_time     0x4               Core\Src\Modbus_DMA\mdb_com.o
sw_debounce3_counter
                    0x18              Core\Src\Modbus_DMA\mdb.o
switches_bitmap_deb3
                    0x2               Core\Src\Modbus_DMA\mdb.o
hdma_usart1_rx      0x44              Core\Src\usart.o
huart1              0x80              Core\Src\usart.o
switches_bitmap_deb2
                    0x2               Core\Src\Modbus_DMA\mdb.o
RS485_RX_to_parse   0x18              Core\Src\uart_dma_process.o
keyboard_dose       0x2               Core\Src\Modbus_DMA\mdb_com.o
buffer_RX_RS232     0xa               Core\Src\Modbus_DMA\mdb_com.o
PCA9685_invert      0x1               Core\Src\Modbus_DMA\mdb.o
htim6               0x40              Core\Src\tim.o
parameter_to_read   0x1               Core\Src\Modbus_DMA\mdb_com.o
htim1               0x40              Core\Src\stm32f0xx_hal_timebase_tim.o
buffer_TX_RS232     0xa               Core\Src\Modbus_DMA\mdb_com.o
hdma_i2c1_rx        0x44              Core\Src\i2c.o
interclik_time_ms   0x2               Core\Src\Modbus_DMA\mdb_com.o
ENCODER_default     0x18              Core\Src\Modbus_DMA\mdb_com.o
keyboard_2click     0x2               Core\Src\Modbus_DMA\mdb_com.o
wait_reply          0x1               Core\Src\Modbus_DMA\mdb_com.o
opera_state         0x1               Core\Src\Modbus_DMA\mdb_com.o
duty_green          0x1               Core\Src\Modbus_DMA\mdb_com.o
encoder_data        0x4               Core\Src\Modbus_DMA\mdb_com.o
TOGGLE_PIN_LED      0x1               Core\Src\Modbus_DMA\mdb_com.o
huart2              0x80              Core\Src\usart.o
htim14              0x40              Core\Src\tim.o
char_disp_17seg     0x1               Core\Src\Modbus_DMA\mdb_com.o
sw_deb_release_cnt  0x18              Core\Src\Modbus_DMA\mdb.o
PCA9685_prescale    0x1               Core\Src\Modbus_DMA\mdb.o
hpcd_USB_FS         0x274             USB_DEVICE\Target\usbd_conf.o
switches_bitmap_deb1
                    0x2               Core\Src\Modbus_DMA\mdb.o
switches_bitmap_actual
                    0x2               Core\Src\Modbus_DMA\mdb.o
keyboard_raw        0x2               Core\Src\Modbus_DMA\mdb_com.o
short_press_time    0x4               Core\Src\Modbus_DMA\mdb_com.o
version_fw          0x4               Core\Src\Modbus_DMA\mdb_com.o
keyboard_long       0x2               Core\Src\Modbus_DMA\mdb_com.o
hadc                0x40              Core\Src\adc.o
USBD_StrDesc        0x200             USB_DEVICE\App\usbd_desc.o
htim16              0x40              Core\Src\tim.o
htim7               0x40              Core\Src\tim.o
RGB_color_start     0xc               Core\Src\Modbus_DMA\mdb_com.o
dmaControlMdb       0x238             Core\Src\Modbus_DMA\mdb_com.o
read_keyboard_event
                    0x1               Core\Src\Modbus_DMA\mdb_com.o
char_rx_to_display  0x1               Core\Src\Modbus_DMA\mdb_com.o
RGB_Transition      0x1               Core\Src\Modbus_DMA\mdb_com.o
PCA9685_delay_event
                    0x1               Core\Src\Modbus_DMA\mdb_com.o

Discarded input sections

 .text          0x00000000        0x0 c:/program files (x86)/atollic/truestudio for stm32 9.3.0/armtools/bin/../lib/gcc/arm-atollic-eabi/6.3.1/armv6-m/crti.o
 .data          0x00000000        0x0 c:/program files (x86)/atollic/truestudio for stm32 9.3.0/armtools/bin/../lib/gcc/arm-atollic-eabi/6.3.1/armv6-m/crti.o
 .bss           0x00000000        0x0 c:/program files (x86)/atollic/truestudio for stm32 9.3.0/armtools/bin/../lib/gcc/arm-atollic-eabi/6.3.1/armv6-m/crti.o
 .data          0x00000000        0x4 c:/program files (x86)/atollic/truestudio for stm32 9.3.0/armtools/bin/../lib/gcc/arm-atollic-eabi/6.3.1/armv6-m/crtbegin.o
 .text          0x00000000        0x0 Core\Src\Modbus_DMA\mdb.o
 .data          0x00000000        0x0 Core\Src\Modbus_DMA\mdb.o
 .bss           0x00000000        0x0 Core\Src\Modbus_DMA\mdb.o
 .bss.mdb_slave_addr
                0x00000000        0x1 Core\Src\Modbus_DMA\mdb.o
 .text.mdb_receive_message
                0x00000000       0xe0 Core\Src\Modbus_DMA\mdb.o
 .rodata.mdb_receive_message
                0x00000000       0x44 Core\Src\Modbus_DMA\mdb.o
 .text.reply_error
                0x00000000       0x44 Core\Src\Modbus_DMA\mdb.o
 .text.reply_echo
                0x00000000       0x4a Core\Src\Modbus_DMA\mdb.o
 .text.read_bits
Memory Configuration

Name             Origin             Length             Attributes
RAM              0x20000000         0x00004000         xrw
FLASH            0x08000000         0x00010000         xr
PROJECTVARS      0x08010000         0x00010000         xr
*default*        0x00000000         0xffffffff

Linker script and memory map

LOAD c:/program files (x86)/atollic/truestudio for stm32 9.3.0/armtools/bin/../lib/gcc/arm-atollic-eabi/6.3.1/armv6-m/crti.o
LOAD c:/program files (x86)/atollic/truestudio for stm32 9.3.0/armtools/bin/../lib/gcc/arm-atollic-eabi/6.3.1/armv6-m/crtbegin.o
LOAD Core\Src\Modbus_DMA\mdb.o
LOAD Core\Src\Modbus_DMA\mdb_com.o
LOAD Core\Src\Modbus_DMA\mdb_registers.o
LOAD Core\Src\adc.o
LOAD Core\Src\display_16segments.o
LOAD Core\Src\dma.o
LOAD Core\Src\encoder_EC50A.o
LOAD Core\Src\gpio.o
LOAD Core\Src\i2c.o
LOAD Core\Src\input_keyboard.o
LOAD Core\Src\iwdg.o
LOAD Core\Src\led_driver_PCA9685.o
LOAD Core\Src\main.o
LOAD Core\Src\spi.o
LOAD Core\Src\stm32f0xx_hal_msp.o
LOAD Core\Src\stm32f0xx_hal_timebase_tim.o
LOAD Core\Src\stm32f0xx_it.o
LOAD Core\Src\syscalls.o
LOAD Core\Src\system_stm32f0xx.o
LOAD Core\Src\tim.o
LOAD Core\Src\uart_dma_process.o
LOAD Core\Src\usart.o
LOAD Drivers\STM32F0xx_HAL_Driver\Src\stm32f0xx_hal.o
LOAD Drivers\STM32F0xx_HAL_Driver\Src\stm32f0xx_hal_adc.o
LOAD Drivers\STM32F0xx_HAL_Driver\Src\stm32f0xx_hal_adc_ex.o
LOAD Drivers\STM32F0xx_HAL_Driver\Src\stm32f0xx_hal_cortex.o
LOAD Drivers\STM32F0xx_HAL_Driver\Src\stm32f0xx_hal_dma.o
LOAD Drivers\STM32F0xx_HAL_Driver\Src\stm32f0xx_hal_exti.o
LOAD Drivers\STM32F0xx_HAL_Driver\Src\stm32f0xx_hal_flash.o
LOAD Drivers\STM32F0xx_HAL_Driver\Src\stm32f0xx_hal_flash_ex.o
LOAD Drivers\STM32F0xx_HAL_Driver\Src\stm32f0xx_hal_gpio.o
LOAD Drivers\STM32F0xx_HAL_Driver\Src\stm32f0xx_hal_i2c.o
LOAD Drivers\STM32F0xx_HAL_Driver\Src\stm32f0xx_hal_i2c_ex.o
LOAD Drivers\STM32F0xx_HAL_Driver\Src\stm32f0xx_hal_iwdg.o
LOAD Drivers\STM32F0xx_HAL_Driver\Src\stm32f0xx_hal_pcd.o
LOAD Drivers\STM32F0xx_HAL_Driver\Src\stm32f0xx_hal_pcd_ex.o
LOAD Drivers\STM32F0xx_HAL_Driver\Src\stm32f0xx_hal_pwr.o
LOAD Drivers\STM32F0xx_HAL_Driver\Src\stm32f0xx_hal_pwr_ex.o
LOAD Drivers\STM32F0xx_HAL_Driver\Src\stm32f0xx_hal_rcc.o
LOAD Drivers\STM32F0xx_HAL_Driver\Src\stm32f0xx_hal_rcc_ex.o
LOAD Drivers\STM32F0xx_HAL_Driver\Src\stm32f0xx_hal_spi.o
LOAD Drivers\STM32F0xx_HAL_Driver\Src\stm32f0xx_hal_spi_ex.o
LOAD Drivers\STM32F0xx_HAL_Driver\Src\stm32f0xx_hal_tim.o
LOAD Drivers\STM32F0xx_HAL_Driver\Src\stm32f0xx_hal_tim_ex.o
LOAD Drivers\STM32F0xx_HAL_Driver\Src\stm32f0xx_hal_uart.o
LOAD Drivers\STM32F0xx_HAL_Driver\Src\stm32f0xx_hal_uart_ex.o
LOAD Drivers\STM32F0xx_HAL_Driver\Src\stm32f0xx_ll_usb.o
LOAD Middlewares\ST\STM32_USB_Device_Library\Class\MSC\Src\usbd_msc.o
LOAD Middlewares\ST\STM32_USB_Device_Library\Class\MSC\Src\usbd_msc_bot.o
LOAD Middlewares\ST\STM32_USB_Device_Library\Class\MSC\Src\usbd_msc_data.o
LOAD Middlewares\ST\STM32_USB_Device_Library\Class\MSC\Src\usbd_msc_scsi.o
LOAD Middlewares\ST\STM32_USB_Device_Library\Core\Src\usbd_core.o
LOAD Middlewares\ST\STM32_USB_Device_Library\Core\Src\usbd_ctlreq.o
LOAD Middlewares\ST\STM32_USB_Device_Library\Core\Src\usbd_ioreq.o
LOAD USB_DEVICE\App\usb_device.o
LOAD USB_DEVICE\App\usbd_desc.o
LOAD USB_DEVICE\App\usbd_storage_if.o
LOAD USB_DEVICE\Target\usbd_conf.o
LOAD startup\startup_stm32f072xb.o
                0x00000080                malloc_getpagesize_P = 0x80
START GROUP
LOAD c:/program files (x86)/atollic/truestudio for stm32 9.3.0/armtools/bin/../lib/gcc/arm-atollic-eabi/6.3.1/../../../../arm-atollic-eabi/lib/armv6-m\libc_nano.a
LOAD c:/program files (x86)/atollic/truestudio for stm32 9.3.0/armtools/bin/../lib/gcc/arm-atollic-eabi/6.3.1/../../../../arm-atollic-eabi/lib/armv6-m\libm.a
END GROUP
START GROUP
LOAD c:/program files (x86)/atollic/truestudio for stm32 9.3.0/armtools/bin/../lib/gcc/arm-atollic-eabi/6.3.1/armv6-m\libgcc.a
LOAD c:/program files (x86)/atollic/truestudio for stm32 9.3.0/armtools/bin/../lib/gcc/arm-atollic-eabi/6.3.1/../../../../arm-atollic-eabi/lib/armv6-m\libc_nano.a
END GROUP
START GROUP
LOAD c:/program files (x86)/atollic/truestudio for stm32 9.3.0/armtools/bin/../lib/gcc/arm-atollic-eabi/6.3.1/armv6-m\libgcc.a
LOAD c:/program files (x86)/atollic/truestudio for stm32 9.3.0/armtools/bin/../lib/gcc/arm-atollic-eabi/6.3.1/../../../../arm-atollic-eabi/lib/armv6-m\libc_nano.a
LOAD c:/program files (x86)/atollic/truestudio for stm32 9.3.0/armtools/bin/../lib/gcc/arm-atollic-eabi/6.3.1/../../../../arm-atollic-eabi/lib/armv6-m\libnosys.a
END GROUP
START GROUP
LOAD c:/program files (x86)/atollic/truestudio for stm32 9.3.0/armtools/bin/../lib/gcc/arm-atollic-eabi/6.3.1/armv6-m\libgcc.a
LOAD c:/program files (x86)/atollic/truestudio for stm32 9.3.0/armtools/bin/../lib/gcc/arm-atollic-eabi/6.3.1/../../../../arm-atollic-eabi/lib/armv6-m\libc_nano.a
LOAD c:/program files (x86)/atollic/truestudio for stm32 9.3.0/armtools/bin/../lib/gcc/arm-atollic-eabi/6.3.1/../../../../arm-atollic-eabi/lib/armv6-m\libnosys.a
END GROUP
LOAD c:/program files (x86)/atollic/truestudio for stm32 9.3.0/armtools/bin/../lib/gcc/arm-atollic-eabi/6.3.1/armv6-m/crtend.o
LOAD c:/program files (x86)/atollic/truestudio for stm32 9.3.0/armtools/bin/../lib/gcc/arm-atollic-eabi/6.3.1/armv6-m/crtn.o
                0x20004000                _estack = 0x20004000
                0x00000200                _Min_Heap_Size = 0x200
                0x00000400                _Min_Stack_Size = 0x400

.isr_vector     0x08000000       0xc0
                0x08000000                . = ALIGN (0x4)
 *(.isr_vector)
 .isr_vector    0x08000000       0xc0 startup\startup_stm32f072xb.o
                0x08000000                g_pfnVectors
                0x080000c0                . = ALIGN (0x4)

.text           0x080000c0     0xc0cc
                0x080000c0                . = ALIGN (0x4)
 *(.text)
 .text          0x080000c0       0x48 c:/program files (x86)/atollic/truestudio for stm32 9.3.0/armtools/bin/../lib/gcc/arm-atollic-eabi/6.3.1/armv6-m/crtbegin.o
 .text          0x08000108      0x114 c:/program files (x86)/atollic/truestudio for stm32 9.3.0/armtools/bin/../lib/gcc/arm-atollic-eabi/6.3.1/armv6-m\libgcc.a(_udivsi3.o)
                0x08000108                __aeabi_uidiv
                0x08000108                __udivsi3
                0x08000214                __aeabi_uidivmod
 .text          0x0800021c      0x1d4 c:/program files (x86)/atollic/truestudio for stm32 9.3.0/armtools/bin/../lib/gcc/arm-atollic-eabi/6.3.1/armv6-m\libgcc.a(_divsi3.o)
                0x0800021c                __divsi3
                0x0800021c                __aeabi_idiv
                0x080003e8                __aeabi_idivmod
 .text          0x080003f0        0x4 c:/program files (x86)/atollic/truestudio for stm32 9.3.0/armtools/bin/../lib/gcc/arm-atollic-eabi/6.3.1/armv6-m\libgcc.a(_dvmd_tls.o)
                0x080003f0                __aeabi_idiv0
                0x080003f0                __aeabi_ldiv0
 .text          0x080003f4       0x7c c:/program files (x86)/atollic/truestudio for stm32 9.3.0/armtools/bin/../lib/gcc/arm-atollic-eabi/6.3.1/armv6-m\libgcc.a(_arm_cmpdf2.o)
                0x080003f4                __aeabi_cdrcmple
                0x08000404                __aeabi_cdcmple
                0x08000404                __aeabi_cdcmpeq
                0x08000414                __aeabi_dcmpeq
                0x08000420                __aeabi_dcmplt
                0x08000434                __aeabi_dcmple
                0x08000448                __aeabi_dcmpgt
                0x0800045c                __aeabi_dcmpge
 .text          0x08000470      0x620 c:/program files (x86)/atollic/truestudio for stm32 9.3.0/armtools/bin/../lib/gcc/arm-atollic-eabi/6.3.1/armv6-m\libgcc.a(adddf3.o)
                0x08000470                __aeabi_dadd
 .text          0x08000a90       0x74 c:/program files (x86)/atollic/truestudio for stm32 9.3.0/armtools/bin/../lib/gcc/arm-atollic-eabi/6.3.1/armv6-m\libgcc.a(eqdf2.o)
                0x08000a90                __nedf2
                0x08000a90                __eqdf2
 .text          0x08000b04       0xc8 c:/program files (x86)/atollic/truestudio for stm32 9.3.0/armtools/bin/../lib/gcc/arm-atollic-eabi/6.3.1/armv6-m\libgcc.a(gedf2.o)
                0x08000b04                __gedf2
                0x08000b04                __gtdf2
 .text          0x08000bcc       0xc4 c:/program files (x86)/atollic/truestudio for stm32 9.3.0/armtools/bin/../lib/gcc/arm-atollic-eabi/6.3.1/armv6-m\libgcc.a(ledf2.o)
                0x08000bcc                __ledf2
                0x08000bcc                __ltdf2
 .text          0x08000c90       0x68 c:/program files (x86)/atollic/truestudio for stm32 9.3.0/armtools/bin/../lib/gcc/arm-atollic-eabi/6.3.1/armv6-m\libgcc.a(fixdfsi.o)
                0x08000c90                __aeabi_d2iz
 .text          0x08000cf8       0x3c c:/program files (x86)/atollic/truestudio for stm32 9.3.0/armtools/bin/../lib/gcc/arm-atollic-eabi/6.3.1/armv6-m\libgcc.a(_clzsi2.o)
                0x08000cf8                __clzsi2
 *(.text*)
 .text.MX_ADC_Init
                0x08000d34       0xb8 Core\Src\adc.o
                0x08000d34                MX_ADC_Init
 .text.HAL_ADC_MspInit
                0x08000dec       0xa4 Core\Src\adc.o
                0x08000dec                HAL_ADC_MspInit
 .text.Display16Seg_All_Single
                0x08000e90      0x2dc Core\Src\display_16segments.o
                0x08000e90                Display16Seg_All_Single
 .text.Display16Seg_Start
                0x0800116c       0x80 Core\Src\display_16segments.o
                0x0800116c                Display16Seg_Start
 .text.MX_DMA_Init
                0x080011ec       0x2c Core\Src\dma.o
                0x080011ec                MX_DMA_Init
 .text.Encoder_Init
                0x08001218       0x48 Core\Src\encoder_EC50A.o
                0x08001218                Encoder_Init
 .text.Encoder_Process
                0x08001260      0x148 Core\Src\encoder_EC50A.o
                0x08001260                Encoder_Process
 .text.MX_GPIO_Init
                0x080013a8      0x248 Core\Src\gpio.o
                0x080013a8                MX_GPIO_Init
 .text.HAL_I2C_MspInit
                0x080015f0      0x10c Core\Src\i2c.o
                0x080015f0                HAL_I2C_MspInit
 .text.init_input_reayboard
                0x080016fc       0xf0 Core\Src\input_keyboard.o
                0x080016fc                init_input_reayboard
 .text.MX_IWDG_Init
                0x080017ec       0x40 Core\Src\iwdg.o
                0x080017ec                MX_IWDG_Init
 .text.PCA9685_setPWM
                0x0800182c      0x18c Core\Src\led_driver_PCA9685.o
                0x0800182c                PCA9685_setPWM
 .text.PCA9685_setColorLed
                0x080019b8      0x108 Core\Src\led_driver_PCA9685.o
                0x080019b8                PCA9685_setColorLed
 .text.PCA9685_Init_Default
                0x08001ac0      0x224 Core\Src\led_driver_PCA9685.o
                0x08001ac0                PCA9685_Init_Default
 .text.main     0x08001ce4      0x130 Core\Src\main.o
                0x08001ce4                main
 .text.SystemClock_Config
                0x08001e14      0x100 Core\Src\main.o
                0x08001e14                SystemClock_Config
 .text.MX_NVIC_Init
                0x08001f14       0x9c Core\Src\main.o
 .text.__io_putchar
                0x08001fb0       0x28 Core\Src\main.o
                0x08001fb0                __io_putchar
 .text.HAL_TIM_PeriodElapsedCallback
                0x08001fd8       0x24 Core\Src\main.o
                0x08001fd8                HAL_TIM_PeriodElapsedCallback
 .text.Error_Handler
                0x08001ffc        0xa Core\Src\main.o
                0x08001ffc                Error_Handler
 .text.assert_failed
                0x08002006       0x12 Core\Src\main.o
                0x08002006                assert_failed
 .text.MX_SPI2_Init
                0x08002018       0x7c Core\Src\spi.o
                0x08002018                MX_SPI2_Init
 .text.HAL_SPI_MspInit
                0x08002094      0x134 Core\Src\spi.o
                0x08002094                HAL_SPI_MspInit
 .text.HAL_MspInit
                0x080021c8       0x48 Core\Src\stm32f0xx_hal_msp.o
                0x080021c8                HAL_MspInit
 .text.HAL_InitTick
                0x08002210       0xbc Core\Src\stm32f0xx_hal_timebase_tim.o
                0x08002210                HAL_InitTick
 .text.NMI_Handler
                0x080022cc        0xa Core\Src\stm32f0xx_it.o
                0x080022cc                NMI_Handler
 .text.HardFault_Handler
                0x080022d6        0x6 Core\Src\stm32f0xx_it.o
                0x080022d6                HardFault_Handler
 .text.SVC_Handler
                0x080022dc        0xa Core\Src\stm32f0xx_it.o
                0x080022dc                SVC_Handler
 .text.PendSV_Handler
                0x080022e6        0xa Core\Src\stm32f0xx_it.o
                0x080022e6                PendSV_Handler
 .text.SysTick_Handler
                0x080022f0        0xa Core\Src\stm32f0xx_it.o
                0x080022f0                SysTick_Handler
 *fill*         0x080022fa        0x2 
 .text.EXTI4_15_IRQHandler
                0x080022fc       0x24 Core\Src\stm32f0xx_it.o
                0x080022fc                EXTI4_15_IRQHandler
 .text.DMA1_Channel2_3_IRQHandler
                0x08002320       0x18 Core\Src\stm32f0xx_it.o
                0x08002320                DMA1_Channel2_3_IRQHandler
 .text.DMA1_Channel4_5_6_7_IRQHandler
                0x08002338       0x24 Core\Src\stm32f0xx_it.o
                0x08002338                DMA1_Channel4_5_6_7_IRQHandler
 .text.ADC1_COMP_IRQHandler
                0x0800235c       0x18 Core\Src\stm32f0xx_it.o
                0x0800235c                ADC1_COMP_IRQHandler
 .text.TIM1_BRK_UP_TRG_COM_IRQHandler
                0x08002374       0x18 Core\Src\stm32f0xx_it.o
                0x08002374                TIM1_BRK_UP_TRG_COM_IRQHandler
 .text.TIM6_DAC_IRQHandler
                0x0800238c       0x18 Core\Src\stm32f0xx_it.o
                0x0800238c                TIM6_DAC_IRQHandler
 .text.TIM7_IRQHandler
                0x080023a4       0x18 Core\Src\stm32f0xx_it.o
                0x080023a4                TIM7_IRQHandler
 .text.TIM14_IRQHandler
                0x080023bc       0x1c Core\Src\stm32f0xx_it.o
                0x080023bc                TIM14_IRQHandler
 .text.TIM16_IRQHandler
                0x080023d8       0x18 Core\Src\stm32f0xx_it.o
                0x080023d8                TIM16_IRQHandler
 .text.TIM17_IRQHandler
                0x080023f0       0x18 Core\Src\stm32f0xx_it.o
                0x080023f0                TIM17_IRQHandler
 .text.I2C1_IRQHandler
                0x08002408       0x30 Core\Src\stm32f0xx_it.o
                0x08002408                I2C1_IRQHandler
 .text.USART1_IRQHandler
                0x08002438       0x18 Core\Src\stm32f0xx_it.o
                0x08002438                USART1_IRQHandler
 .text.USART2_IRQHandler
                0x08002450       0x18 Core\Src\stm32f0xx_it.o
                0x08002450                USART2_IRQHandler
 .text.USB_IRQHandler
                0x08002468       0x18 Core\Src\stm32f0xx_it.o
                0x08002468                USB_IRQHandler
 .text._read    0x08002480       0x3a Core\Src\syscalls.o
                0x08002480                _read
 .text._write   0x080024ba       0x38 Core\Src\syscalls.o
                0x080024ba                _write
 *fill*         0x080024f2        0x2 
 .text._sbrk    0x080024f4       0x58 Core\Src\syscalls.o
                0x080024f4                _sbrk
 .text._close   0x0800254c       0x14 Core\Src\syscalls.o
                0x0800254c                _close
 .text._fstat   0x08002560       0x1c Core\Src\syscalls.o
                0x08002560                _fstat
 .text._isatty  0x0800257c       0x12 Core\Src\syscalls.o
                0x0800257c                _isatty
 .text._lseek   0x0800258e       0x16 Core\Src\syscalls.o
                0x0800258e                _lseek
 .text.SystemInit
                0x080025a4       0x88 Core\Src\system_stm32f0xx.o
                0x080025a4                SystemInit
 .text.MX_TIM6_Init
                0x0800262c       0x78 Core\Src\tim.o
                0x0800262c                MX_TIM6_Init
 .text.MX_TIM7_Init
                0x080026a4       0x78 Core\Src\tim.o
                0x080026a4                MX_TIM7_Init
 .text.MX_TIM14_Init
                0x0800271c       0x4c Core\Src\tim.o
                0x0800271c                MX_TIM14_Init
 .text.HAL_TIM_Base_MspInit
                0x08002768      0x110 Core\Src\tim.o
                0x08002768                HAL_TIM_Base_MspInit
 .text.Main_Clock_Init
                0x08002878       0x40 Core\Src\tim.o
                0x08002878                Main_Clock_Init
 .text.System_Clock_Timer_TickTIM6
                0x080028b8      0x190 Core\Src\tim.o
                0x080028b8                System_Clock_Timer_TickTIM6
 .text.MX_USART1_UART_Init
                0x08002a48       0x60 Core\Src\usart.o
                0x08002a48                MX_USART1_UART_Init
 .text.MX_USART2_UART_Init
                0x08002aa8       0x60 Core\Src\usart.o
                0x08002aa8                MX_USART2_UART_Init
 .text.HAL_UART_MspInit
                0x08002b08      0x220 Core\Src\usart.o
                0x08002b08                HAL_UART_MspInit
 .text.HAL_Init
                0x08002d28       0x28 Drivers\STM32F0xx_HAL_Driver\Src\stm32f0xx_hal.o
                0x08002d28                HAL_Init
 .text.HAL_IncTick
                0x08002d50       0x24 Drivers\STM32F0xx_HAL_Driver\Src\stm32f0xx_hal.o
                0x08002d50                HAL_IncTick
 .text.HAL_GetTick
                0x08002d74       0x14 Drivers\STM32F0xx_HAL_Driver\Src\stm32f0xx_hal.o
                0x08002d74                HAL_GetTick
 .text.HAL_ADC_Init
                0x08002d88      0x49c Drivers\STM32F0xx_HAL_Driver\Src\stm32f0xx_hal_adc.o
                0x08002d88                HAL_ADC_Init
 .text.HAL_ADC_IRQHandler
                0x08003224      0x1d0 Drivers\STM32F0xx_HAL_Driver\Src\stm32f0xx_hal_adc.o
                0x08003224                HAL_ADC_IRQHandler
 .text.HAL_ADC_ConvCpltCallback
                0x080033f4       0x10 Drivers\STM32F0xx_HAL_Driver\Src\stm32f0xx_hal_adc.o
                0x080033f4                HAL_ADC_ConvCpltCallback
 .text.HAL_ADC_LevelOutOfWindowCallback
                0x08003404       0x10 Drivers\STM32F0xx_HAL_Driver\Src\stm32f0xx_hal_adc.o
                0x08003404                HAL_ADC_LevelOutOfWindowCallback
 .text.HAL_ADC_ErrorCallback
                0x08003414       0x10 Drivers\STM32F0xx_HAL_Driver\Src\stm32f0xx_hal_adc.o
                0x08003414                HAL_ADC_ErrorCallback
 .text.HAL_ADC_ConfigChannel
                0x08003424      0x378 Drivers\STM32F0xx_HAL_Driver\Src\stm32f0xx_hal_adc.o
                0x08003424                HAL_ADC_ConfigChannel
 .text.__NVIC_EnableIRQ
                0x0800379c       0x34 Drivers\STM32F0xx_HAL_Driver\Src\stm32f0xx_hal_cortex.o
 .text.__NVIC_SetPriority
                0x080037d0       0xdc Drivers\STM32F0xx_HAL_Driver\Src\stm32f0xx_hal_cortex.o
 .text.HAL_NVIC_SetPriority
                0x080038ac       0x40 Drivers\STM32F0xx_HAL_Driver\Src\stm32f0xx_hal_cortex.o
                0x080038ac                HAL_NVIC_SetPriority
 .text.HAL_NVIC_EnableIRQ
                0x080038ec       0x38 Drivers\STM32F0xx_HAL_Driver\Src\stm32f0xx_hal_cortex.o
                0x080038ec                HAL_NVIC_EnableIRQ
 .text.HAL_DMA_Init
                0x08003924      0x200 Drivers\STM32F0xx_HAL_Driver\Src\stm32f0xx_hal_dma.o
                0x08003924                HAL_DMA_Init
 .text.HAL_DMA_Abort_IT
                0x08003b24       0x8c Drivers\STM32F0xx_HAL_Driver\Src\stm32f0xx_hal_dma.o
                0x08003b24                HAL_DMA_Abort_IT
 .text.HAL_DMA_IRQHandler
                0x08003bb0      0x144 Drivers\STM32F0xx_HAL_Driver\Src\stm32f0xx_hal_dma.o
                0x08003bb0                HAL_DMA_IRQHandler
 .text.DMA_CalcBaseAndBitshift
                0x08003cf4       0x38 Drivers\STM32F0xx_HAL_Driver\Src\stm32f0xx_hal_dma.o
 .text.HAL_GPIO_Init
                0x08003d2c      0x474 Drivers\STM32F0xx_HAL_Driver\Src\stm32f0xx_hal_gpio.o
                0x08003d2c                HAL_GPIO_Init
 .text.HAL_GPIO_ReadPin
                0x080041a0       0x60 Drivers\STM32F0xx_HAL_Driver\Src\stm32f0xx_hal_gpio.o
                0x080041a0                HAL_GPIO_ReadPin
 .text.HAL_GPIO_WritePin
                0x08004200       0x80 Drivers\STM32F0xx_HAL_Driver\Src\stm32f0xx_hal_gpio.o
                0x08004200                HAL_GPIO_WritePin
 .text.HAL_GPIO_EXTI_IRQHandler
                0x08004280       0x38 Drivers\STM32F0xx_HAL_Driver\Src\stm32f0xx_hal_gpio.o
                0x08004280                HAL_GPIO_EXTI_IRQHandler
 .text.HAL_GPIO_EXTI_Callback
                0x080042b8       0x14 Drivers\STM32F0xx_HAL_Driver\Src\stm32f0xx_hal_gpio.o
                0x080042b8                HAL_GPIO_EXTI_Callback
 .text.HAL_I2C_Master_Transmit
                0x080042cc      0x210 Drivers\STM32F0xx_HAL_Driver\Src\stm32f0xx_hal_i2c.o
                0x080042cc                HAL_I2C_Master_Transmit
 .text.HAL_I2C_EV_IRQHandler
                0x080044dc       0x34 Drivers\STM32F0xx_HAL_Driver\Src\stm32f0xx_hal_i2c.o
                0x080044dc                HAL_I2C_EV_IRQHandler
 .text.HAL_I2C_ER_IRQHandler
                0x08004510       0xb2 Drivers\STM32F0xx_HAL_Driver\Src\stm32f0xx_hal_i2c.o
                0x08004510                HAL_I2C_ER_IRQHandler
 .text.HAL_I2C_SlaveTxCpltCallback
                0x080045c2       0x10 Drivers\STM32F0xx_HAL_Driver\Src\stm32f0xx_hal_i2c.o
                0x080045c2                HAL_I2C_SlaveTxCpltCallback
 .text.HAL_I2C_SlaveRxCpltCallback
                0x080045d2       0x10 Drivers\STM32F0xx_HAL_Driver\Src\stm32f0xx_hal_i2c.o
                0x080045d2                HAL_I2C_SlaveRxCpltCallback
 .text.HAL_I2C_AddrCallback
                0x080045e2       0x20 Drivers\STM32F0xx_HAL_Driver\Src\stm32f0xx_hal_i2c.o
                0x080045e2                HAL_I2C_AddrCallback
 .text.HAL_I2C_ListenCpltCallback
                0x08004602       0x10 Drivers\STM32F0xx_HAL_Driver\Src\stm32f0xx_hal_i2c.o
                0x08004602                HAL_I2C_ListenCpltCallback
 .text.HAL_I2C_ErrorCallback
                0x08004612       0x10 Drivers\STM32F0xx_HAL_Driver\Src\stm32f0xx_hal_i2c.o
                0x08004612                HAL_I2C_ErrorCallback
 .text.HAL_I2C_AbortCpltCallback
                0x08004622       0x10 Drivers\STM32F0xx_HAL_Driver\Src\stm32f0xx_hal_i2c.o
                0x08004622                HAL_I2C_AbortCpltCallback
 *fill*         0x08004632        0x2 
 .text.I2C_Slave_ISR_IT
                0x08004634      0x200 Drivers\STM32F0xx_HAL_Driver\Src\stm32f0xx_hal_i2c.o
 .text.I2C_ITAddrCplt
                0x08004834      0x14c Drivers\STM32F0xx_HAL_Driver\Src\stm32f0xx_hal_i2c.o
 .text.I2C_ITSlaveSeqCplt
                0x08004980       0x82 Drivers\STM32F0xx_HAL_Driver\Src\stm32f0xx_hal_i2c.o
 *fill*         0x08004a02        0x2 
 .text.I2C_ITSlaveCplt
                0x08004a04      0x1b8 Drivers\STM32F0xx_HAL_Driver\Src\stm32f0xx_hal_i2c.o
 .text.I2C_ITListenCplt
                0x08004bbc       0xa8 Drivers\STM32F0xx_HAL_Driver\Src\stm32f0xx_hal_i2c.o
 .text.I2C_ITError
                0x08004c64      0x1a4 Drivers\STM32F0xx_HAL_Driver\Src\stm32f0xx_hal_i2c.o
 .text.I2C_Flush_TXDR
                0x08004e08       0x44 Drivers\STM32F0xx_HAL_Driver\Src\stm32f0xx_hal_i2c.o
 .text.I2C_DMAAbort
                0x08004e4c       0x4c Drivers\STM32F0xx_HAL_Driver\Src\stm32f0xx_hal_i2c.o
 .text.I2C_WaitOnFlagUntilTimeout
                0x08004e98       0x7e Drivers\STM32F0xx_HAL_Driver\Src\stm32f0xx_hal_i2c.o
 .text.I2C_WaitOnTXISFlagUntilTimeout
                0x08004f16       0x7e Drivers\STM32F0xx_HAL_Driver\Src\stm32f0xx_hal_i2c.o
 .text.I2C_WaitOnSTOPFlagUntilTimeout
                0x08004f94       0x78 Drivers\STM32F0xx_HAL_Driver\Src\stm32f0xx_hal_i2c.o
 .text.I2C_IsAcknowledgeFailed
                0x0800500c       0xcc Drivers\STM32F0xx_HAL_Driver\Src\stm32f0xx_hal_i2c.o
 .text.I2C_TransferConfig
                0x080050d8      0x100 Drivers\STM32F0xx_HAL_Driver\Src\stm32f0xx_hal_i2c.o
 .text.I2C_Disable_IRQ
                0x080051d8       0xd2 Drivers\STM32F0xx_HAL_Driver\Src\stm32f0xx_hal_i2c.o
 *fill*         0x080052aa        0x2 
 .text.HAL_IWDG_Init
                0x080052ac      0x120 Drivers\STM32F0xx_HAL_Driver\Src\stm32f0xx_hal_iwdg.o
                0x080052ac                HAL_IWDG_Init
 .text.HAL_IWDG_Refresh
                0x080053cc       0x20 Drivers\STM32F0xx_HAL_Driver\Src\stm32f0xx_hal_iwdg.o
                0x080053cc                HAL_IWDG_Refresh
 .text.HAL_PCD_IRQHandler
                0x080053ec      0x310 Drivers\STM32F0xx_HAL_Driver\Src\stm32f0xx_hal_pcd.o
                0x080053ec                HAL_PCD_IRQHandler
 .text.HAL_PCD_SetAddress
                0x080056fc       0x56 Drivers\STM32F0xx_HAL_Driver\Src\stm32f0xx_hal_pcd.o
                0x080056fc                HAL_PCD_SetAddress
 .text.HAL_PCD_EP_Open
                0x08005752       0xe4 Drivers\STM32F0xx_HAL_Driver\Src\stm32f0xx_hal_pcd.o
                0x08005752                HAL_PCD_EP_Open
 .text.HAL_PCD_EP_Receive
                0x08005836       0x86 Drivers\STM32F0xx_HAL_Driver\Src\stm32f0xx_hal_pcd.o
                0x08005836                HAL_PCD_EP_Receive
 .text.HAL_PCD_EP_Transmit
                0x080058bc       0x84 Drivers\STM32F0xx_HAL_Driver\Src\stm32f0xx_hal_pcd.o
                0x080058bc                HAL_PCD_EP_Transmit
 .text.HAL_PCD_EP_SetStall
                0x08005940       0xcc Drivers\STM32F0xx_HAL_Driver\Src\stm32f0xx_hal_pcd.o
                0x08005940                HAL_PCD_EP_SetStall
 .text.HAL_PCD_EP_ClrStall
                0x08005a0c       0xb0 Drivers\STM32F0xx_HAL_Driver\Src\stm32f0xx_hal_pcd.o
                0x08005a0c                HAL_PCD_EP_ClrStall
 .text.PCD_EP_ISR_Handler
                0x08005abc      0x5c0 Drivers\STM32F0xx_HAL_Driver\Src\stm32f0xx_hal_pcd.o
 .text.HAL_PCDEx_LPM_Callback
                0x0800607c       0x16 Drivers\STM32F0xx_HAL_Driver\Src\stm32f0xx_hal_pcd_ex.o
                0x0800607c                HAL_PCDEx_LPM_Callback
 *fill*         0x08006092        0x2 
 .text.HAL_RCC_OscConfig
                0x08006094      0xa2c Drivers\STM32F0xx_HAL_Driver\Src\stm32f0xx_hal_rcc.o
                0x08006094                HAL_RCC_OscConfig
 .text.HAL_RCC_ClockConfig
                0x08006ac0      0x2d0 Drivers\STM32F0xx_HAL_Driver\Src\stm32f0xx_hal_rcc.o
                0x08006ac0                HAL_RCC_ClockConfig
 .text.HAL_RCC_GetSysClockFreq
                0x08006d90      0x100 Drivers\STM32F0xx_HAL_Driver\Src\stm32f0xx_hal_rcc.o
                0x08006d90                HAL_RCC_GetSysClockFreq
 .text.HAL_RCC_GetHCLKFreq
                0x08006e90       0x14 Drivers\STM32F0xx_HAL_Driver\Src\stm32f0xx_hal_rcc.o
                0x08006e90                HAL_RCC_GetHCLKFreq
 .text.HAL_RCC_GetPCLK1Freq
                0x08006ea4       0x2c Drivers\STM32F0xx_HAL_Driver\Src\stm32f0xx_hal_rcc.o
                0x08006ea4                HAL_RCC_GetPCLK1Freq
 .text.HAL_RCC_GetClockConfig
                0x08006ed0       0x84 Drivers\STM32F0xx_HAL_Driver\Src\stm32f0xx_hal_rcc.o
                0x08006ed0                HAL_RCC_GetClockConfig
 .text.HAL_RCCEx_PeriphCLKConfig
                0x08006f54      0x2fc Drivers\STM32F0xx_HAL_Driver\Src\stm32f0xx_hal_rcc_ex.o
                0x08006f54                HAL_RCCEx_PeriphCLKConfig
 .text.HAL_SPI_Init
                0x08007250      0x380 Drivers\STM32F0xx_HAL_Driver\Src\stm32f0xx_hal_spi.o
                0x08007250                HAL_SPI_Init
 .text.HAL_TIM_Base_Init
                0x080075d0      0x16c Drivers\STM32F0xx_HAL_Driver\Src\stm32f0xx_hal_tim.o
                0x080075d0                HAL_TIM_Base_Init
 .text.HAL_TIM_Base_Start_IT
                0x0800773c       0xd4 Drivers\STM32F0xx_HAL_Driver\Src\stm32f0xx_hal_tim.o
                0x0800773c                HAL_TIM_Base_Start_IT
 .text.HAL_TIM_IRQHandler
                0x08007810      0x22c Drivers\STM32F0xx_HAL_Driver\Src\stm32f0xx_hal_tim.o
                0x08007810                HAL_TIM_IRQHandler
 .text.HAL_TIM_OC_DelayElapsedCallback
                0x08007a3c       0x10 Drivers\STM32F0xx_HAL_Driver\Src\stm32f0xx_hal_tim.o
                0x08007a3c                HAL_TIM_OC_DelayElapsedCallback
 .text.HAL_TIM_IC_CaptureCallback
                0x08007a4c       0x10 Drivers\STM32F0xx_HAL_Driver\Src\stm32f0xx_hal_tim.o
                0x08007a4c                HAL_TIM_IC_CaptureCallback
 .text.HAL_TIM_PWM_PulseFinishedCallback
                0x08007a5c       0x10 Drivers\STM32F0xx_HAL_Driver\Src\stm32f0xx_hal_tim.o
                0x08007a5c                HAL_TIM_PWM_PulseFinishedCallback
 .text.HAL_TIM_TriggerCallback
                0x08007a6c       0x10 Drivers\STM32F0xx_HAL_Driver\Src\stm32f0xx_hal_tim.o
                0x08007a6c                HAL_TIM_TriggerCallback
 .text.TIM_Base_SetConfig
                0x08007a7c      0x100 Drivers\STM32F0xx_HAL_Driver\Src\stm32f0xx_hal_tim.o
                0x08007a7c                TIM_Base_SetConfig
 .text.HAL_TIMEx_MasterConfigSynchronization
                0x08007b7c      0x188 Drivers\STM32F0xx_HAL_Driver\Src\stm32f0xx_hal_tim_ex.o
                0x08007b7c                HAL_TIMEx_MasterConfigSynchronization
 .text.HAL_TIMEx_CommutCallback
                0x08007d04       0x10 Drivers\STM32F0xx_HAL_Driver\Src\stm32f0xx_hal_tim_ex.o
                0x08007d04                HAL_TIMEx_CommutCallback
 .text.HAL_TIMEx_BreakCallback
                0x08007d14       0x10 Drivers\STM32F0xx_HAL_Driver\Src\stm32f0xx_hal_tim_ex.o
                0x08007d14                HAL_TIMEx_BreakCallback
 .text.HAL_UART_Init
                0x08007d24      0x134 Drivers\STM32F0xx_HAL_Driver\Src\stm32f0xx_hal_uart.o
                0x08007d24                HAL_UART_Init
 .text.HAL_UART_Transmit
                0x08007e58      0x150 Drivers\STM32F0xx_HAL_Driver\Src\stm32f0xx_hal_uart.o
                0x08007e58                HAL_UART_Transmit
 .text.HAL_UART_IRQHandler
                0x08007fa8      0x278 Drivers\STM32F0xx_HAL_Driver\Src\stm32f0xx_hal_uart.o
                0x08007fa8                HAL_UART_IRQHandler
 .text.HAL_UART_TxCpltCallback
                0x08008220       0x10 Drivers\STM32F0xx_HAL_Driver\Src\stm32f0xx_hal_uart.o
                0x08008220                HAL_UART_TxCpltCallback
 .text.HAL_UART_ErrorCallback
                0x08008230       0x10 Drivers\STM32F0xx_HAL_Driver\Src\stm32f0xx_hal_uart.o
                0x08008230                HAL_UART_ErrorCallback
 .text.UART_SetConfig
                0x08008240      0x4fc Drivers\STM32F0xx_HAL_Driver\Src\stm32f0xx_hal_uart.o
                0x08008240                UART_SetConfig
 .text.UART_AdvFeatureConfig
                0x0800873c      0x2f8 Drivers\STM32F0xx_HAL_Driver\Src\stm32f0xx_hal_uart.o
                0x0800873c                UART_AdvFeatureConfig
 .text.UART_CheckIdleState
                0x08008a34       0x8c Drivers\STM32F0xx_HAL_Driver\Src\stm32f0xx_hal_uart.o
                0x08008a34                UART_CheckIdleState
 .text.UART_WaitOnFlagUntilTimeout
                0x08008ac0       0xfc Drivers\STM32F0xx_HAL_Driver\Src\stm32f0xx_hal_uart.o
                0x08008ac0                UART_WaitOnFlagUntilTimeout
 .text.UART_EndRxTransfer
                0x08008bbc       0x40 Drivers\STM32F0xx_HAL_Driver\Src\stm32f0xx_hal_uart.o
 .text.UART_DMAAbortOnError
                0x08008bfc       0x2e Drivers\STM32F0xx_HAL_Driver\Src\stm32f0xx_hal_uart.o
 .text.UART_EndTransmit_IT
                0x08008c2a       0x34 Drivers\STM32F0xx_HAL_Driver\Src\stm32f0xx_hal_uart.o
 .text.HAL_UARTEx_WakeupCallback
                0x08008c5e       0x10 Drivers\STM32F0xx_HAL_Driver\Src\stm32f0xx_hal_uart_ex.o
                0x08008c5e                HAL_UARTEx_WakeupCallback
 *fill*         0x08008c6e        0x2 
 .text.USB_ActivateEndpoint
                0x08008c70      0x5f8 Drivers\STM32F0xx_HAL_Driver\Src\stm32f0xx_ll_usb.o
                0x08008c70                USB_ActivateEndpoint
 .text.USB_EPStartXfer
                0x08009268      0x5a4 Drivers\STM32F0xx_HAL_Driver\Src\stm32f0xx_ll_usb.o
                0x08009268                USB_EPStartXfer
 .text.USB_EPSetStall
                0x0800980c       0x84 Drivers\STM32F0xx_HAL_Driver\Src\stm32f0xx_ll_usb.o
                0x0800980c                USB_EPSetStall
 .text.USB_EPClearStall
                0x08009890      0x124 Drivers\STM32F0xx_HAL_Driver\Src\stm32f0xx_ll_usb.o
                0x08009890                USB_EPClearStall
 .text.USB_SetDevAddress
                0x080099b4       0x28 Drivers\STM32F0xx_HAL_Driver\Src\stm32f0xx_ll_usb.o
                0x080099b4                USB_SetDevAddress
 .text.USB_ReadInterrupts
                0x080099dc       0x1c Drivers\STM32F0xx_HAL_Driver\Src\stm32f0xx_ll_usb.o
                0x080099dc                USB_ReadInterrupts
 .text.USB_EP0_OutStart
                0x080099f8       0x14 Drivers\STM32F0xx_HAL_Driver\Src\stm32f0xx_ll_usb.o
                0x080099f8                USB_EP0_OutStart
 .text.USB_WritePMA
                0x08009a0c       0x86 Drivers\STM32F0xx_HAL_Driver\Src\stm32f0xx_ll_usb.o
                0x08009a0c                USB_WritePMA
 .text.USB_ReadPMA
                0x08009a92       0x9e Drivers\STM32F0xx_HAL_Driver\Src\stm32f0xx_ll_usb.o
                0x08009a92                USB_ReadPMA
 .text.USBD_RunTestMode
                0x08009b30       0x12 Middlewares\ST\STM32_USB_Device_Library\Core\Src\usbd_core.o
                0x08009b30                USBD_RunTestMode
 .text.USBD_SetClassConfig
                0x08009b42       0x50 Middlewares\ST\STM32_USB_Device_Library\Core\Src\usbd_core.o
                0x08009b42                USBD_SetClassConfig
 .text.USBD_ClrClassConfig
                0x08009b92       0x2c Middlewares\ST\STM32_USB_Device_Library\Core\Src\usbd_core.o
                0x08009b92                USBD_ClrClassConfig
 *fill*         0x08009bbe        0x2 
 .text.USBD_LL_SetupStage
                0x08009bc0       0xb8 Middlewares\ST\STM32_USB_Device_Library\Core\Src\usbd_core.o
                0x08009bc0                USBD_LL_SetupStage
 .text.USBD_LL_DataOutStage
                0x08009c78      0x106 Middlewares\ST\STM32_USB_Device_Library\Core\Src\usbd_core.o
                0x08009c78                USBD_LL_DataOutStage
 .text.USBD_LL_DataInStage
                0x08009d7e      0x17c Middlewares\ST\STM32_USB_Device_Library\Core\Src\usbd_core.o
                0x08009d7e                USBD_LL_DataInStage
 .text.USBD_LL_Reset
                0x08009efa       0x90 Middlewares\ST\STM32_USB_Device_Library\Core\Src\usbd_core.o
                0x08009efa                USBD_LL_Reset
 .text.USBD_LL_SetSpeed
                0x08009f8a       0x20 Middlewares\ST\STM32_USB_Device_Library\Core\Src\usbd_core.o
                0x08009f8a                USBD_LL_SetSpeed
 *fill*         0x08009faa        0x2 
 .text.USBD_LL_Suspend
                0x08009fac       0x30 Middlewares\ST\STM32_USB_Device_Library\Core\Src\usbd_core.o
                0x08009fac                USBD_LL_Suspend
 .text.USBD_LL_Resume
                0x08009fdc       0x30 Middlewares\ST\STM32_USB_Device_Library\Core\Src\usbd_core.o
                0x08009fdc                USBD_LL_Resume
 .text.USBD_LL_SOF
                0x0800a00c       0x3c Middlewares\ST\STM32_USB_Device_Library\Core\Src\usbd_core.o
                0x0800a00c                USBD_LL_SOF
 .text.USBD_StdDevReq
                0x0800a048       0xe4 Middlewares\ST\STM32_USB_Device_Library\Core\Src\usbd_ctlreq.o
                0x0800a048                USBD_StdDevReq
 .text.USBD_StdItfReq
                0x0800a12c       0xae Middlewares\ST\STM32_USB_Device_Library\Core\Src\usbd_ctlreq.o
                0x0800a12c                USBD_StdItfReq
 .text.USBD_StdEPReq
                0x0800a1da      0x37e Middlewares\ST\STM32_USB_Device_Library\Core\Src\usbd_ctlreq.o
                0x0800a1da                USBD_StdEPReq
 .text.USBD_GetDescriptor
                0x0800a558      0x37c Middlewares\ST\STM32_USB_Device_Library\Core\Src\usbd_ctlreq.o
 .text.USBD_SetAddress
                0x0800a8d4       0xac Middlewares\ST\STM32_USB_Device_Library\Core\Src\usbd_ctlreq.o
 .text.USBD_SetConfig
                0x0800a980      0x148 Middlewares\ST\STM32_USB_Device_Library\Core\Src\usbd_ctlreq.o
 .text.USBD_GetConfig
                0x0800aac8       0x74 Middlewares\ST\STM32_USB_Device_Library\Core\Src\usbd_ctlreq.o
 .text.USBD_GetStatus
                0x0800ab3c       0x74 Middlewares\ST\STM32_USB_Device_Library\Core\Src\usbd_ctlreq.o
 .text.USBD_SetFeature
                0x0800abb0       0x2c Middlewares\ST\STM32_USB_Device_Library\Core\Src\usbd_ctlreq.o
 .text.USBD_ClrFeature
                0x0800abdc       0x4c Middlewares\ST\STM32_USB_Device_Library\Core\Src\usbd_ctlreq.o
 .text.USBD_ParseSetupRequest
                0x0800ac28       0x76 Middlewares\ST\STM32_USB_Device_Library\Core\Src\usbd_ctlreq.o
                0x0800ac28                USBD_ParseSetupRequest
 .text.USBD_CtlError
                0x0800ac9e       0x26 Middlewares\ST\STM32_USB_Device_Library\Core\Src\usbd_ctlreq.o
                0x0800ac9e                USBD_CtlError
 .text.USBD_CtlSendData
                0x0800acc4       0x40 Middlewares\ST\STM32_USB_Device_Library\Core\Src\usbd_ioreq.o
                0x0800acc4                USBD_CtlSendData
 .text.USBD_CtlContinueSendData
                0x0800ad04       0x26 Middlewares\ST\STM32_USB_Device_Library\Core\Src\usbd_ioreq.o
                0x0800ad04                USBD_CtlContinueSendData
 .text.USBD_CtlContinueRx
                0x0800ad2a       0x26 Middlewares\ST\STM32_USB_Device_Library\Core\Src\usbd_ioreq.o
                0x0800ad2a                USBD_CtlContinueRx
 .text.USBD_CtlSendStatus
                0x0800ad50       0x28 Middlewares\ST\STM32_USB_Device_Library\Core\Src\usbd_ioreq.o
                0x0800ad50                USBD_CtlSendStatus
 .text.USBD_CtlReceiveStatus
                0x0800ad78       0x28 Middlewares\ST\STM32_USB_Device_Library\Core\Src\usbd_ioreq.o
                0x0800ad78                USBD_CtlReceiveStatus
 .text.HAL_PCD_SetupStageCallback
                0x0800ada0       0x2a USB_DEVICE\Target\usbd_conf.o
                0x0800ada0                HAL_PCD_SetupStageCallback
 .text.HAL_PCD_DataOutStageCallback
                0x0800adca       0x3a USB_DEVICE\Target\usbd_conf.o
                0x0800adca                HAL_PCD_DataOutStageCallback
 .text.HAL_PCD_DataInStageCallback
                0x0800ae04       0x36 USB_DEVICE\Target\usbd_conf.o
                0x0800ae04                HAL_PCD_DataInStageCallback
 .text.HAL_PCD_SOFCallback
                0x0800ae3a       0x1e USB_DEVICE\Target\usbd_conf.o
                0x0800ae3a                HAL_PCD_SOFCallback
 .text.HAL_PCD_ResetCallback
                0x0800ae58       0x48 USB_DEVICE\Target\usbd_conf.o
                0x0800ae58                HAL_PCD_ResetCallback
 .text.HAL_PCD_SuspendCallback
                0x0800aea0       0x38 USB_DEVICE\Target\usbd_conf.o
                0x0800aea0                HAL_PCD_SuspendCallback
 .text.HAL_PCD_ResumeCallback
                0x0800aed8       0x3c USB_DEVICE\Target\usbd_conf.o
                0x0800aed8                HAL_PCD_ResumeCallback
 .text.USBD_LL_OpenEP
                0x0800af14       0x74 USB_DEVICE\Target\usbd_conf.o
                0x0800af14                USBD_LL_OpenEP
 .text.USBD_LL_StallEP
                0x0800af88       0x5c USB_DEVICE\Target\usbd_conf.o
                0x0800af88                USBD_LL_StallEP
 .text.USBD_LL_ClearStallEP
                0x0800afe4       0x5c USB_DEVICE\Target\usbd_conf.o
                0x0800afe4                USBD_LL_ClearStallEP
 .text.USBD_LL_IsStallEP
                0x0800b040       0x56 USB_DEVICE\Target\usbd_conf.o
                0x0800b040                USBD_LL_IsStallEP
 .text.USBD_LL_SetUSBAddress
                0x0800b096       0x5c USB_DEVICE\Target\usbd_conf.o
                0x0800b096                USBD_LL_SetUSBAddress
 .text.USBD_LL_Transmit
                0x0800b0f2       0x74 USB_DEVICE\Target\usbd_conf.o
                0x0800b0f2                USBD_LL_Transmit
 .text.USBD_LL_PrepareReceive
                0x0800b166       0x74 USB_DEVICE\Target\usbd_conf.o
                0x0800b166                USBD_LL_PrepareReceive
 .text.SystemClockConfig_Resume
                0x0800b1da        0xe USB_DEVICE\Target\usbd_conf.o
 .text.USBD_Get_USB_Status
                0x0800b1e8       0x6e USB_DEVICE\Target\usbd_conf.o
 *fill*         0x0800b256        0x2 
 .text.Reset_Handler
                0x0800b258       0x50 startup\startup_stm32f072xb.o
                0x0800b258                Reset_Handler
 .text.Default_Handler
                0x0800b2a8        0x2 startup\startup_stm32f072xb.o
                0x0800b2a8                TIM1_CC_IRQHandler
                0x0800b2a8                TSC_IRQHandler
                0x0800b2a8                RCC_CRS_IRQHandler
                0x0800b2a8                SPI1_IRQHandler
                0x0800b2a8                USART3_4_IRQHandler
                0x0800b2a8                EXTI2_3_IRQHandler
                0x0800b2a8                I2C2_IRQHandler
                0x0800b2a8                CEC_CAN_IRQHandler
                0x0800b2a8                RTC_IRQHandler
                0x0800b2a8                PVD_VDDIO2_IRQHandler
                0x0800b2a8                TIM3_IRQHandler
                0x0800b2a8                DMA1_Channel1_IRQHandler
                0x0800b2a8                Default_Handler
                0x0800b2a8                TIM15_IRQHandler
                0x0800b2a8                EXTI0_1_IRQHandler
                0x0800b2a8                SPI2_IRQHandler
                0x0800b2a8                WWDG_IRQHandler
                0x0800b2a8                TIM2_IRQHandler
                0x0800b2a8                FLASH_IRQHandler
 *fill*         0x0800b2aa        0x2 
 .text.__errno  0x0800b2ac        0xc c:/program files (x86)/atollic/truestudio for stm32 9.3.0/armtools/bin/../lib/gcc/arm-atollic-eabi/6.3.1/../../../../arm-atollic-eabi/lib/armv6-m\libc_nano.a(lib_a-errno.o)
                0x0800b2ac                __errno
 .text.__libc_init_array
                0x0800b2b8       0x48 c:/program files (x86)/atollic/truestudio for stm32 9.3.0/armtools/bin/../lib/gcc/arm-atollic-eabi/6.3.1/../../../../arm-atollic-eabi/lib/armv6-m\libc_nano.a(lib_a-init.o)
                0x0800b2b8                __libc_init_array
 .text.memset   0x0800b300       0x10 c:/program files (x86)/atollic/truestudio for stm32 9.3.0/armtools/bin/../lib/gcc/arm-atollic-eabi/6.3.1/../../../../arm-atollic-eabi/lib/armv6-m\libc_nano.a(lib_a-memset.o)
                0x0800b300                memset
 .text.printf   0x0800b310       0x34 c:/program files (x86)/atollic/truestudio for stm32 9.3.0/armtools/bin/../lib/gcc/arm-atollic-eabi/6.3.1/../../../../arm-atollic-eabi/lib/armv6-m\libc_nano.a(lib_a-printf.o)
                0x0800b310                iprintf
                0x0800b310                printf
 .text._cleanup_r
                0x0800b344       0x10 c:/program files (x86)/atollic/truestudio for stm32 9.3.0/armtools/bin/../lib/gcc/arm-atollic-eabi/6.3.1/../../../../arm-atollic-eabi/lib/armv6-m\libc_nano.a(lib_a-findfp.o)
                0x0800b344                _cleanup_r
 .text.std.isra.0
                0x0800b354       0x48 c:/program files (x86)/atollic/truestudio for stm32 9.3.0/armtools/bin/../lib/gcc/arm-atollic-eabi/6.3.1/../../../../arm-atollic-eabi/lib/armv6-m\libc_nano.a(lib_a-findfp.o)
 .text.__sfmoreglue
                0x0800b39c       0x2c c:/program files (x86)/atollic/truestudio for stm32 9.3.0/armtools/bin/../lib/gcc/arm-atollic-eabi/6.3.1/../../../../arm-atollic-eabi/lib/armv6-m\libc_nano.a(lib_a-findfp.o)
                0x0800b39c                __sfmoreglue
 .text.__sinit  0x0800b3c8       0x68 c:/program files (x86)/atollic/truestudio for stm32 9.3.0/armtools/bin/../lib/gcc/arm-atollic-eabi/6.3.1/../../../../arm-atollic-eabi/lib/armv6-m\libc_nano.a(lib_a-findfp.o)
                0x0800b3c8                __sinit
 .text.__sfp    0x0800b430       0x80 c:/program files (x86)/atollic/truestudio for stm32 9.3.0/armtools/bin/../lib/gcc/arm-atollic-eabi/6.3.1/../../../../arm-atollic-eabi/lib/armv6-m\libc_nano.a(lib_a-findfp.o)
                0x0800b430                __sfp
 .text._fwalk_reent
                0x0800b4b0       0x42 c:/program files (x86)/atollic/truestudio for stm32 9.3.0/armtools/bin/../lib/gcc/arm-atollic-eabi/6.3.1/../../../../arm-atollic-eabi/lib/armv6-m\libc_nano.a(lib_a-fwalk.o)
                0x0800b4b0                _fwalk_reent
 *fill*         0x0800b4f2        0x2 
 .text._malloc_r
                0x0800b4f4       0xbc c:/program files (x86)/atollic/truestudio for stm32 9.3.0/armtools/bin/../lib/gcc/arm-atollic-eabi/6.3.1/../../../../arm-atollic-eabi/lib/armv6-m\libc_nano.a(lib_a-nano-mallocr.o)
                0x0800b4f4                _malloc_r
 .text.__sfputc_r
                0x0800b5b0       0x2a c:/program files (x86)/atollic/truestudio for stm32 9.3.0/armtools/bin/../lib/gcc/arm-atollic-eabi/6.3.1/../../../../arm-atollic-eabi/lib/armv6-m\libc_nano.a(lib_a-nano-vfprintf.o)
 .text.__sfputs_r
                0x0800b5da       0x24 c:/program files (x86)/atollic/truestudio for stm32 9.3.0/armtools/bin/../lib/gcc/arm-atollic-eabi/6.3.1/../../../../arm-atollic-eabi/lib/armv6-m\libc_nano.a(lib_a-nano-vfprintf.o)
                0x0800b5da                __sfputs_r
 *fill*         0x0800b5fe        0x2 
 .text._vfprintf_r
                0x0800b600      0x238 c:/program files (x86)/atollic/truestudio for stm32 9.3.0/armtools/bin/../lib/gcc/arm-atollic-eabi/6.3.1/../../../../arm-atollic-eabi/lib/armv6-m\libc_nano.a(lib_a-nano-vfprintf.o)
                0x0800b600                _vfprintf_r
                0x0800b600                _vfiprintf_r
 .text._printf_common
                0x0800b838       0xda c:/program files (x86)/atollic/truestudio for stm32 9.3.0/armtools/bin/../lib/gcc/arm-atollic-eabi/6.3.1/../../../../arm-atollic-eabi/lib/armv6-m\libc_nano.a(lib_a-nano-vfprintf_i.o)
                0x0800b838                _printf_common
 *fill*         0x0800b912        0x2 
 .text._printf_i
                0x0800b914      0x234 c:/program files (x86)/atollic/truestudio for stm32 9.3.0/armtools/bin/../lib/gcc/arm-atollic-eabi/6.3.1/../../../../arm-atollic-eabi/lib/armv6-m\libc_nano.a(lib_a-nano-vfprintf_i.o)
                0x0800b914                _printf_i
 .text._sbrk_r  0x0800bb48       0x24 c:/program files (x86)/atollic/truestudio for stm32 9.3.0/armtools/bin/../lib/gcc/arm-atollic-eabi/6.3.1/../../../../arm-atollic-eabi/lib/armv6-m\libc_nano.a(lib_a-sbrkr.o)
                0x0800bb48                _sbrk_r
 .text.__sread  0x0800bb6c       0x28 c:/program files (x86)/atollic/truestudio for stm32 9.3.0/armtools/bin/../lib/gcc/arm-atollic-eabi/6.3.1/../../../../arm-atollic-eabi/lib/armv6-m\libc_nano.a(lib_a-stdio.o)
                0x0800bb6c                __sread
 .text.__swrite
                0x0800bb94       0x38 c:/program files (x86)/atollic/truestudio for stm32 9.3.0/armtools/bin/../lib/gcc/arm-atollic-eabi/6.3.1/../../../../arm-atollic-eabi/lib/armv6-m\libc_nano.a(lib_a-stdio.o)
                0x0800bb94                __swrite
 .text.__sseek  0x0800bbcc       0x2c c:/program files (x86)/atollic/truestudio for stm32 9.3.0/armtools/bin/../lib/gcc/arm-atollic-eabi/6.3.1/../../../../arm-atollic-eabi/lib/armv6-m\libc_nano.a(lib_a-stdio.o)
                0x0800bbcc                __sseek
 .text.__sclose
                0x0800bbf8        0xc c:/program files (x86)/atollic/truestudio for stm32 9.3.0/armtools/bin/../lib/gcc/arm-atollic-eabi/6.3.1/../../../../arm-atollic-eabi/lib/armv6-m\libc_nano.a(lib_a-stdio.o)
                0x0800bbf8                __sclose
 .text.__swbuf_r
                0x0800bc04       0xac c:/program files (x86)/atollic/truestudio for stm32 9.3.0/armtools/bin/../lib/gcc/arm-atollic-eabi/6.3.1/../../../../arm-atollic-eabi/lib/armv6-m\libc_nano.a(lib_a-wbuf.o)
                0x0800bc04                __swbuf_r
 .text._write_r
                0x0800bcb0       0x28 c:/program files (x86)/atollic/truestudio for stm32 9.3.0/armtools/bin/../lib/gcc/arm-atollic-eabi/6.3.1/../../../../arm-atollic-eabi/lib/armv6-m\libc_nano.a(lib_a-writer.o)
                0x0800bcb0                _write_r
 .text.__swsetup_r
                0x0800bcd8       0xec c:/program files (x86)/atollic/truestudio for stm32 9.3.0/armtools/bin/../lib/gcc/arm-atollic-eabi/6.3.1/../../../../arm-atollic-eabi/lib/armv6-m\libc_nano.a(lib_a-wsetup.o)
                0x0800bcd8                __swsetup_r
 .text._close_r
                0x0800bdc4       0x24 c:/program files (x86)/atollic/truestudio for stm32 9.3.0/armtools/bin/../lib/gcc/arm-atollic-eabi/6.3.1/../../../../arm-atollic-eabi/lib/armv6-m\libc_nano.a(lib_a-closer.o)
                0x0800bdc4                _close_r
 .text.__sflush_r
                0x0800bde8      0x114 c:/program files (x86)/atollic/truestudio for stm32 9.3.0/armtools/bin/../lib/gcc/arm-atollic-eabi/6.3.1/../../../../arm-atollic-eabi/lib/armv6-m\libc_nano.a(lib_a-fflush.o)
                0x0800bde8                __sflush_r
 .text._fflush_r
                0x0800befc       0x58 c:/program files (x86)/atollic/truestudio for stm32 9.3.0/armtools/bin/../lib/gcc/arm-atollic-eabi/6.3.1/../../../../arm-atollic-eabi/lib/armv6-m\libc_nano.a(lib_a-fflush.o)
                0x0800befc                _fflush_r
 .text._lseek_r
                0x0800bf54       0x28 c:/program files (x86)/atollic/truestudio for stm32 9.3.0/armtools/bin/../lib/gcc/arm-atollic-eabi/6.3.1/../../../../arm-atollic-eabi/lib/armv6-m\libc_nano.a(lib_a-lseekr.o)
                0x0800bf54                _lseek_r
 .text.__swhatbuf_r
                0x0800bf7c       0x50 c:/program files (x86)/atollic/truestudio for stm32 9.3.0/armtools/bin/../lib/gcc/arm-atollic-eabi/6.3.1/../../../../arm-atollic-eabi/lib/armv6-m\libc_nano.a(lib_a-makebuf.o)
                0x0800bf7c                __swhatbuf_r
 .text.__smakebuf_r
                0x0800bfcc       0x88 c:/program files (x86)/atollic/truestudio for stm32 9.3.0/armtools/bin/../lib/gcc/arm-atollic-eabi/6.3.1/../../../../arm-atollic-eabi/lib/armv6-m\libc_nano.a(lib_a-makebuf.o)
                0x0800bfcc                __smakebuf_r
 .text.memchr   0x0800c054       0x16 c:/program files (x86)/atollic/truestudio for stm32 9.3.0/armtools/bin/../lib/gcc/arm-atollic-eabi/6.3.1/../../../../arm-atollic-eabi/lib/armv6-m\libc_nano.a(lib_a-memchr-stub.o)
                0x0800c054                memchr
 .text.__malloc_lock
                0x0800c06a        0x2 c:/program files (x86)/atollic/truestudio for stm32 9.3.0/armtools/bin/../lib/gcc/arm-atollic-eabi/6.3.1/../../../../arm-atollic-eabi/lib/armv6-m\libc_nano.a(lib_a-mlock.o)
                0x0800c06a                __malloc_lock
 .text.__malloc_unlock
                0x0800c06c        0x2 c:/program files (x86)/atollic/truestudio for stm32 9.3.0/armtools/bin/../lib/gcc/arm-atollic-eabi/6.3.1/../../../../arm-atollic-eabi/lib/armv6-m\libc_nano.a(lib_a-mlock.o)
                0x0800c06c                __malloc_unlock
 *fill*         0x0800c06e        0x2 
 .text._free_r  0x0800c070       0x94 c:/program files (x86)/atollic/truestudio for stm32 9.3.0/armtools/bin/../lib/gcc/arm-atollic-eabi/6.3.1/../../../../arm-atollic-eabi/lib/armv6-m\libc_nano.a(lib_a-nano-freer.o)
                0x0800c070                _free_r
 .text._read_r  0x0800c104       0x28 c:/program files (x86)/atollic/truestudio for stm32 9.3.0/armtools/bin/../lib/gcc/arm-atollic-eabi/6.3.1/../../../../arm-atollic-eabi/lib/armv6-m\libc_nano.a(lib_a-readr.o)
                0x0800c104                _read_r
 .text._fstat_r
                0x0800c12c       0x24 c:/program files (x86)/atollic/truestudio for stm32 9.3.0/armtools/bin/../lib/gcc/arm-atollic-eabi/6.3.1/../../../../arm-atollic-eabi/lib/armv6-m\libc_nano.a(lib_a-fstatr.o)
                0x0800c12c                _fstat_r
 .text._isatty_r
                0x0800c150       0x24 c:/program files (x86)/atollic/truestudio for stm32 9.3.0/armtools/bin/../lib/gcc/arm-atollic-eabi/6.3.1/../../../../arm-atollic-eabi/lib/armv6-m\libc_nano.a(lib_a-isattyr.o)
                0x0800c150                _isatty_r
 *(.glue_7)
 .glue_7        0x0800c174        0x0 linker stubs
 *(.glue_7t)
 .glue_7t       0x0800c174        0x0 linker stubs
 *(.eh_frame)
 .eh_frame      0x0800c174        0x0 c:/program files (x86)/atollic/truestudio for stm32 9.3.0/armtools/bin/../lib/gcc/arm-atollic-eabi/6.3.1/armv6-m/crtbegin.o
 *(.init)
 .init          0x0800c174        0x4 c:/program files (x86)/atollic/truestudio for stm32 9.3.0/armtools/bin/../lib/gcc/arm-atollic-eabi/6.3.1/armv6-m/crti.o
                0x0800c174                _init
 .init          0x0800c178        0x8 c:/program files (x86)/atollic/truestudio for stm32 9.3.0/armtools/bin/../lib/gcc/arm-atollic-eabi/6.3.1/armv6-m/crtn.o
 *(.fini)
 .fini          0x0800c180        0x4 c:/program files (x86)/atollic/truestudio for stm32 9.3.0/armtools/bin/../lib/gcc/arm-atollic-eabi/6.3.1/armv6-m/crti.o
                0x0800c180                _fini
 .fini          0x0800c184        0x8 c:/program files (x86)/atollic/truestudio for stm32 9.3.0/armtools/bin/../lib/gcc/arm-atollic-eabi/6.3.1/armv6-m/crtn.o
                0x0800c18c                . = ALIGN (0x4)
                0x0800c18c                _etext = .

.vfp11_veneer   0x0800c18c        0x0
 .vfp11_veneer  0x0800c18c        0x0 linker stubs

.v4_bx          0x0800c18c        0x0
 .v4_bx         0x0800c18c        0x0 linker stubs

.iplt           0x0800c18c        0x0
 .iplt          0x0800c18c        0x0 c:/program files (x86)/atollic/truestudio for stm32 9.3.0/armtools/bin/../lib/gcc/arm-atollic-eabi/6.3.1/armv6-m/crtbegin.o

.rodata         0x0800c18c      0x450
                0x0800c18c                . = ALIGN (0x4)
 *(.rodata)
 .rodata        0x0800c18c       0x27 Core\Src\main.o
 *fill*         0x0800c1b3        0x1 
 .rodata        0x0800c1b4       0x38 Drivers\STM32F0xx_HAL_Driver\Src\stm32f0xx_hal_adc.o
 .rodata        0x0800c1ec       0x3b Drivers\STM32F0xx_HAL_Driver\Src\stm32f0xx_hal_cortex.o
 *fill*         0x0800c227        0x1 
 .rodata        0x0800c228       0x38 Drivers\STM32F0xx_HAL_Driver\Src\stm32f0xx_hal_dma.o
 .rodata        0x0800c260       0x39 Drivers\STM32F0xx_HAL_Driver\Src\stm32f0xx_hal_gpio.o
 *fill*         0x0800c299        0x3 
 .rodata        0x0800c29c       0x38 Drivers\STM32F0xx_HAL_Driver\Src\stm32f0xx_hal_i2c.o
 .rodata        0x0800c2d4       0x39 Drivers\STM32F0xx_HAL_Driver\Src\stm32f0xx_hal_iwdg.o
 *fill*         0x0800c30d        0x3 
 .rodata        0x0800c310       0x58 Drivers\STM32F0xx_HAL_Driver\Src\stm32f0xx_hal_rcc.o
 .rodata        0x0800c368       0x3b Drivers\STM32F0xx_HAL_Driver\Src\stm32f0xx_hal_rcc_ex.o
 *fill*         0x0800c3a3        0x1 
 .rodata        0x0800c3a4       0x38 Drivers\STM32F0xx_HAL_Driver\Src\stm32f0xx_hal_spi.o
 .rodata        0x0800c3dc       0x38 Drivers\STM32F0xx_HAL_Driver\Src\stm32f0xx_hal_tim.o
 .rodata        0x0800c414       0x3b Drivers\STM32F0xx_HAL_Driver\Src\stm32f0xx_hal_tim_ex.o
 *fill*         0x0800c44f        0x1 
 .rodata        0x0800c450       0x39 Drivers\STM32F0xx_HAL_Driver\Src\stm32f0xx_hal_uart.o
 *(.rodata*)
 *fill*         0x0800c489        0x3 
 .rodata.Display16Seg_All_Single
                0x0800c48c       0x40 Core\Src\display_16segments.o
 .rodata.AHBPrescTable
                0x0800c4cc       0x10 Core\Src\system_stm32f0xx.o
                0x0800c4cc                AHBPrescTable
 .rodata.APBPrescTable
                0x0800c4dc        0x8 Core\Src\system_stm32f0xx.o
                0x0800c4dc                APBPrescTable
 .rodata.USBD_StdDevReq
                0x0800c4e4       0x28 Middlewares\ST\STM32_USB_Device_Library\Core\Src\usbd_ctlreq.o
 .rodata.USBD_GetDescriptor
                0x0800c50c       0x38 Middlewares\ST\STM32_USB_Device_Library\Core\Src\usbd_ctlreq.o
 .rodata._global_impure_ptr
                0x0800c544        0x4 c:/program files (x86)/atollic/truestudio for stm32 9.3.0/armtools/bin/../lib/gcc/arm-atollic-eabi/6.3.1/../../../../arm-atollic-eabi/lib/armv6-m\libc_nano.a(lib_a-impure.o)
                0x0800c544                _global_impure_ptr
 .rodata.__sf_fake_stderr
                0x0800c548       0x20 c:/program files (x86)/atollic/truestudio for stm32 9.3.0/armtools/bin/../lib/gcc/arm-atollic-eabi/6.3.1/../../../../arm-atollic-eabi/lib/armv6-m\libc_nano.a(lib_a-findfp.o)
                0x0800c548                __sf_fake_stderr
 .rodata.__sf_fake_stdin
                0x0800c568       0x20 c:/program files (x86)/atollic/truestudio for stm32 9.3.0/armtools/bin/../lib/gcc/arm-atollic-eabi/6.3.1/../../../../arm-atollic-eabi/lib/armv6-m\libc_nano.a(lib_a-findfp.o)
                0x0800c568                __sf_fake_stdin
 .rodata.__sf_fake_stdout
                0x0800c588       0x20 c:/program files (x86)/atollic/truestudio for stm32 9.3.0/armtools/bin/../lib/gcc/arm-atollic-eabi/6.3.1/../../../../arm-atollic-eabi/lib/armv6-m\libc_nano.a(lib_a-findfp.o)
                0x0800c588                __sf_fake_stdout
 .rodata._vfprintf_r.str1.1
                0x0800c5a8       0x11 c:/program files (x86)/atollic/truestudio for stm32 9.3.0/armtools/bin/../lib/gcc/arm-atollic-eabi/6.3.1/../../../../arm-atollic-eabi/lib/armv6-m\libc_nano.a(lib_a-nano-vfprintf.o)
 .rodata._printf_i.str1.1
                0x0800c5b9       0x22 c:/program files (x86)/atollic/truestudio for stm32 9.3.0/armtools/bin/../lib/gcc/arm-atollic-eabi/6.3.1/../../../../arm-atollic-eabi/lib/armv6-m\libc_nano.a(lib_a-nano-vfprintf_i.o)
                0x0800c5dc                . = ALIGN (0x4)
 *fill*         0x0800c5db        0x1 

.ARM.extab
 *(.ARM.extab* .gnu.linkonce.armextab.*)

.ARM            0x0800c5dc        0x0
                0x0800c5dc                __exidx_start = .
 *(.ARM.exidx*)
                0x0800c5dc                __exidx_end = .

.preinit_array  0x0800c5dc        0x0
                0x0800c5dc                PROVIDE (__preinit_array_start, .)
 *(.preinit_array*)
                0x0800c5dc                PROVIDE (__preinit_array_end, .)

.init_array     0x0800c5dc        0x4
                0x0800c5dc                PROVIDE (__init_array_start, .)
 *(SORT(.init_array.*))
 *(.init_array*)
 .init_array    0x0800c5dc        0x4 c:/program files (x86)/atollic/truestudio for stm32 9.3.0/armtools/bin/../lib/gcc/arm-atollic-eabi/6.3.1/armv6-m/crtbegin.o
                0x0800c5e0                PROVIDE (__init_array_end, .)

.fini_array     0x0800c5e0        0x4
                [!provide]                PROVIDE (__fini_array_start, .)
 *(SORT(.fini_array.*))
 *(.fini_array*)
 .fini_array    0x0800c5e0        0x4 c:/program files (x86)/atollic/truestudio for stm32 9.3.0/armtools/bin/../lib/gcc/arm-atollic-eabi/6.3.1/armv6-m/crtbegin.o
                [!provide]                PROVIDE (__fini_array_end, .)
                0x0800c5e4                _sidata = LOADADDR (.data)

.data           0x20000000       0x9c load address 0x0800c5e4
                0x20000000                . = ALIGN (0x4)
                0x20000000                _sdata = .
 *(.data)
 *(.data*)
 .data.RGB_Color_Table
                0x20000000       0x30 Core\Src\led_driver_PCA9685.o
                0x20000000                RGB_Color_Table
 .data.SystemCoreClock
                0x20000030        0x4 Core\Src\system_stm32f0xx.o
                0x20000030                SystemCoreClock
 .data.uwTickFreq
                0x20000034        0x1 Drivers\STM32F0xx_HAL_Driver\Src\stm32f0xx_hal.o
                0x20000034                uwTickFreq
 *fill*         0x20000035        0x3 
 .data._impure_ptr
                0x20000038        0x4 c:/program files (x86)/atollic/truestudio for stm32 9.3.0/armtools/bin/../lib/gcc/arm-atollic-eabi/6.3.1/../../../../arm-atollic-eabi/lib/armv6-m\libc_nano.a(lib_a-impure.o)
                0x20000038                _impure_ptr
 .data.impure_data
                0x2000003c       0x60 c:/program files (x86)/atollic/truestudio for stm32 9.3.0/armtools/bin/../lib/gcc/arm-atollic-eabi/6.3.1/../../../../arm-atollic-eabi/lib/armv6-m\libc_nano.a(lib_a-impure.o)
                0x2000009c                . = ALIGN (0x4)
                0x2000009c                _edata = .

.igot.plt       0x2000009c        0x0 load address 0x0800c680
 .igot.plt      0x2000009c        0x0 c:/program files (x86)/atollic/truestudio for stm32 9.3.0/armtools/bin/../lib/gcc/arm-atollic-eabi/6.3.1/armv6-m/crtbegin.o

.projectvars    0x08010000        0xb
                0x08010000                . = ALIGN (0x4)
 *(.projectvars*)
 .projectvars   0x08010000        0xb Core\Src\main.o
                0x08010000                VERSION_NUMBER
                0x08010004                CRC_PROGRAM
                0x08010008                BUILD_ID
                0x0801000a                OTHER_VAR

.rel.dyn        0x0801000c        0x0
 .rel.iplt      0x0801000c        0x0 c:/program files (x86)/atollic/truestudio for stm32 9.3.0/armtools/bin/../lib/gcc/arm-atollic-eabi/6.3.1/armv6-m/crtbegin.o
                0x0801000c                . = ALIGN (0x4)

.bss            0x200000a0      0xa88
                0x200000a0                _sbss = .
                0x200000a0                __bss_start__ = _sbss
 *(.bss)
 .bss           0x200000a0       0x1c c:/program files (x86)/atollic/truestudio for stm32 9.3.0/armtools/bin/../lib/gcc/arm-atollic-eabi/6.3.1/armv6-m/crtbegin.o
 *(.bss*)
 .bss.heap_end.5887
                0x200000bc        0x4 Core\Src\syscalls.o
 .bss.cfgidx.8834
                0x200000c0        0x1 Middlewares\ST\STM32_USB_Device_Library\Core\Src\usbd_ctlreq.o
 *fill*         0x200000c1        0x3 
 .bss.__malloc_free_list
                0x200000c4        0x4 c:/program files (x86)/atollic/truestudio for stm32 9.3.0/armtools/bin/../lib/gcc/arm-atollic-eabi/6.3.1/../../../../arm-atollic-eabi/lib/armv6-m\libc_nano.a(lib_a-nano-mallocr.o)
                0x200000c4                __malloc_free_list
 .bss.__malloc_sbrk_start
                0x200000c8        0x4 c:/program files (x86)/atollic/truestudio for stm32 9.3.0/armtools/bin/../lib/gcc/arm-atollic-eabi/6.3.1/../../../../arm-atollic-eabi/lib/armv6-m\libc_nano.a(lib_a-nano-mallocr.o)
                0x200000c8                __malloc_sbrk_start
 *(COMMON)
 COMMON         0x200000cc       0x72 Core\Src\Modbus_DMA\mdb.o
                0x200000cc                sw_debounce1_counter
                0x200000e4                PCA9585_i2caddr
                0x200000e8                sw_debounce2_counter
                0x20000100                sw_debounce3_counter
                0x20000118                switches_bitmap_deb3
                0x2000011a                switches_bitmap_deb2
                0x2000011c                PCA9685_invert
                0x20000120                sw_deb_release_cnt
                0x20000138                PCA9685_prescale
                0x2000013a                switches_bitmap_deb1
                0x2000013c                switches_bitmap_actual
 *fill*         0x2000013e        0x2 
 COMMON         0x20000140      0x320 Core\Src\Modbus_DMA\mdb_com.o
                0x20000140                led_to_change
                0x20000142                longpress_time_ms
                0x20000144                duty_blue
                0x20000145                display_refresh_event
                0x20000146                opera_keyboard_conf
                0x20000148                keyboard_short
                0x2000014a                adr_modbus_reg
                0x2000014c                display_refresh_start_event
                0x20000150                main_clock
                0x20000178                led_RGB
                0x200001a8                last_recv_mdb_time
                0x200001ac                keyboard_1click
                0x200001b0                click_double_press_time
                0x200001b4                DP_SW_RS485_adr
                0x200001b8                timeout_mdb_no_msg
                0x200001bc                new_data_rx
                0x200001bd                duty_red
                0x200001c0                long_press_time
                0x200001c4                keyboard_dose
                0x200001c8                buffer_RX_RS232
                0x200001d2                parameter_to_read
                0x200001d4                buffer_TX_RS232
                0x200001de                interclik_time_ms
                0x200001e0                ENCODER_default
                0x200001f8                keyboard_2click
                0x200001fa                wait_reply
                0x200001fb                opera_state
                0x200001fc                duty_green
                0x20000200                encoder_data
                0x20000204                TOGGLE_PIN_LED
                0x20000205                char_disp_17seg
                0x20000208                keyboard_raw
                0x2000020c                short_press_time
                0x20000210                version_fw
                0x20000214                keyboard_long
                0x20000218                RGB_color_start
                0x20000224                dmaControlMdb
                0x2000045c                read_keyboard_event
                0x2000045d                char_rx_to_display
                0x2000045e                RGB_Transition
                0x2000045f                PCA9685_delay_event
 COMMON         0x20000460       0x40 Core\Src\adc.o
                0x20000460                hadc
 COMMON         0x200004a0       0x90 Core\Src\i2c.o
                0x200004a0                hi2c1
                0x200004ec                hdma_i2c1_rx
 COMMON         0x20000530       0x10 Core\Src\iwdg.o
                0x20000530                hiwdg
 COMMON         0x20000540       0x64 Core\Src\spi.o
                0x20000540                hspi2
 COMMON         0x200005a4       0x40 Core\Src\stm32f0xx_hal_timebase_tim.o
                0x200005a4                htim1
 COMMON         0x200005e4      0x140 Core\Src\tim.o
                0x200005e4                htim17
                0x20000624                htim6
                0x20000664                htim14
                0x200006a4                htim16
                0x200006e4                htim7
 COMMON         0x20000724      0x188 Core\Src\usart.o
                0x20000724                hdma_usart2_rx
                0x20000768                hdma_usart1_rx
                0x200007ac                huart1
                0x2000082c                huart2
 COMMON         0x200008ac        0x4 Drivers\STM32F0xx_HAL_Driver\Src\stm32f0xx_hal.o
                0x200008ac                uwTick
 COMMON         0x200008b0      0x274 USB_DEVICE\Target\usbd_conf.o
                0x200008b0                hpcd_USB_FS
 COMMON         0x20000b24        0x4 c:/program files (x86)/atollic/truestudio for stm32 9.3.0/armtools/bin/../lib/gcc/arm-atollic-eabi/6.3.1/../../../../arm-atollic-eabi/lib/armv6-m\libc_nano.a(lib_a-reent.o)
                0x20000b24                errno
                0x20000b28                . = ALIGN (0x4)
                0x20000b28                _ebss = .
                0x20000b28                __bss_end__ = _ebss

._user_heap_stack
                0x20000b28      0x600
                0x20000b28                . = ALIGN (0x4)
                0x20000b28                PROVIDE (end, .)
                [!provide]                PROVIDE (_end, .)
                0x20000d28                . = (. + _Min_Heap_Size)
 *fill*         0x20000b28      0x200 
                0x20001128                . = (. + _Min_Stack_Size)
 *fill*         0x20000d28      0x400 
                0x20001128                . = ALIGN (0x4)

/DISCARD/
 libc.a(*)
 libm.a(*)
 libgcc.a(*)

.ARM.attributes
                0x00000000       0x28
 *(.ARM.attributes)
 .ARM.attributes
                0x00000000       0x1e c:/program files (x86)/atollic/truestudio for stm32 9.3.0/armtools/bin/../lib/gcc/arm-atollic-eabi/6.3.1/armv6-m/crti.o
 .ARM.attributes
                0x0000001e       0x2c c:/program files (x86)/atollic/truestudio for stm32 9.3.0/armtools/bin/../lib/gcc/arm-atollic-eabi/6.3.1/armv6-m/crtbegin.o
 .ARM.attributes
                0x0000004a       0x31 Core\Src\Modbus_DMA\mdb.o
 .ARM.attributes
                0x0000007b       0x31 Core\Src\Modbus_DMA\mdb_com.o
 .ARM.attributes
                0x000000ac       0x31 Core\Src\adc.o
 .ARM.attributes
                0x000000dd       0x31 Core\Src\display_16segments.o
 .ARM.attributes
                0x0000010e       0x31 Core\Src\dma.o
 .ARM.attributes
                0x0000013f       0x31 Core\Src\encoder_EC50A.o
 .ARM.attributes
                0x00000170       0x31 Core\Src\gpio.o
 .ARM.attributes
                0x000001a1       0x31 Core\Src\i2c.o
 .ARM.attributes
                0x000001d2       0x31 Core\Src\input_keyboard.o
 .ARM.attributes
                0x00000203       0x31 Core\Src\iwdg.o
 .ARM.attributes
                0x00000234       0x31 Core\Src\led_driver_PCA9685.o
 .ARM.attributes
                0x00000265       0x31 Core\Src\main.o
 .ARM.attributes
                0x00000296       0x31 Core\Src\spi.o
 .ARM.attributes
                0x000002c7       0x31 Core\Src\stm32f0xx_hal_msp.o
 .ARM.attributes
                0x000002f8       0x31 Core\Src\stm32f0xx_hal_timebase_tim.o
 .ARM.attributes
                0x00000329       0x31 Core\Src\stm32f0xx_it.o
 .ARM.attributes
                0x0000035a       0x31 Core\Src\syscalls.o
 .ARM.attributes
                0x0000038b       0x31 Core\Src\system_stm32f0xx.o
 .ARM.attributes
                0x000003bc       0x31 Core\Src\tim.o
 .ARM.attributes
                0x000003ed       0x31 Core\Src\usart.o
 .ARM.attributes
                0x0000041e       0x31 Drivers\STM32F0xx_HAL_Driver\Src\stm32f0xx_hal.o
 .ARM.attributes
                0x0000044f       0x31 Drivers\STM32F0xx_HAL_Driver\Src\stm32f0xx_hal_adc.o
 .ARM.attributes
                0x00000480       0x31 Drivers\STM32F0xx_HAL_Driver\Src\stm32f0xx_hal_cortex.o
 .ARM.attributes
                0x000004b1       0x31 Drivers\STM32F0xx_HAL_Driver\Src\stm32f0xx_hal_dma.o
 .ARM.attributes
                0x000004e2       0x31 Drivers\STM32F0xx_HAL_Driver\Src\stm32f0xx_hal_gpio.o
 .ARM.attributes
                0x00000513       0x31 Drivers\STM32F0xx_HAL_Driver\Src\stm32f0xx_hal_i2c.o
 .ARM.attributes
                0x00000544       0x31 Drivers\STM32F0xx_HAL_Driver\Src\stm32f0xx_hal_iwdg.o
 .ARM.attributes
                0x00000575       0x31 Drivers\STM32F0xx_HAL_Driver\Src\stm32f0xx_hal_pcd.o
 .ARM.attributes
                0x000005a6       0x31 Drivers\STM32F0xx_HAL_Driver\Src\stm32f0xx_hal_pcd_ex.o
 .ARM.attributes
                0x000005d7       0x31 Drivers\STM32F0xx_HAL_Driver\Src\stm32f0xx_hal_rcc.o
 .ARM.attributes
                0x00000608       0x31 Drivers\STM32F0xx_HAL_Driver\Src\stm32f0xx_hal_rcc_ex.o
 .ARM.attributes
                0x00000639       0x31 Drivers\STM32F0xx_HAL_Driver\Src\stm32f0xx_hal_spi.o
 .ARM.attributes
                0x0000066a       0x31 Drivers\STM32F0xx_HAL_Driver\Src\stm32f0xx_hal_tim.o
 .ARM.attributes
                0x0000069b       0x31 Drivers\STM32F0xx_HAL_Driver\Src\stm32f0xx_hal_tim_ex.o
 .ARM.attributes
                0x000006cc       0x31 Drivers\STM32F0xx_HAL_Driver\Src\stm32f0xx_hal_uart.o
 .ARM.attributes
                0x000006fd       0x31 Drivers\STM32F0xx_HAL_Driver\Src\stm32f0xx_hal_uart_ex.o
 .ARM.attributes
                0x0000072e       0x31 Drivers\STM32F0xx_HAL_Driver\Src\stm32f0xx_ll_usb.o
 .ARM.attributes
                0x0000075f       0x31 Middlewares\ST\STM32_USB_Device_Library\Core\Src\usbd_core.o
 .ARM.attributes
                0x00000790       0x31 Middlewares\ST\STM32_USB_Device_Library\Core\Src\usbd_ctlreq.o
 .ARM.attributes
                0x000007c1       0x31 Middlewares\ST\STM32_USB_Device_Library\Core\Src\usbd_ioreq.o
 .ARM.attributes
                0x000007f2       0x31 USB_DEVICE\Target\usbd_conf.o
 .ARM.attributes
                0x00000823       0x21 startup\startup_stm32f072xb.o
 .ARM.attributes
                0x00000844       0x2c c:/program files (x86)/atollic/truestudio for stm32 9.3.0/armtools/bin/../lib/gcc/arm-atollic-eabi/6.3.1/../../../../arm-atollic-eabi/lib/armv6-m\libc_nano.a(lib_a-errno.o)
 .ARM.attributes
                0x00000870       0x2c c:/program files (x86)/atollic/truestudio for stm32 9.3.0/armtools/bin/../lib/gcc/arm-atollic-eabi/6.3.1/../../../../arm-atollic-eabi/lib/armv6-m\libc_nano.a(lib_a-impure.o)
 .ARM.attributes
                0x0000089c       0x2c c:/program files (x86)/atollic/truestudio for stm32 9.3.0/armtools/bin/../lib/gcc/arm-atollic-eabi/6.3.1/../../../../arm-atollic-eabi/lib/armv6-m\libc_nano.a(lib_a-init.o)
 .ARM.attributes
                0x000008c8       0x2c c:/program files (x86)/atollic/truestudio for stm32 9.3.0/armtools/bin/../lib/gcc/arm-atollic-eabi/6.3.1/../../../../arm-atollic-eabi/lib/armv6-m\libc_nano.a(lib_a-memset.o)
 .ARM.attributes
                0x000008f4       0x2c c:/program files (x86)/atollic/truestudio for stm32 9.3.0/armtools/bin/../lib/gcc/arm-atollic-eabi/6.3.1/../../../../arm-atollic-eabi/lib/armv6-m\libc_nano.a(lib_a-printf.o)
 .ARM.attributes
                0x00000920       0x2c c:/program files (x86)/atollic/truestudio for stm32 9.3.0/armtools/bin/../lib/gcc/arm-atollic-eabi/6.3.1/../../../../arm-atollic-eabi/lib/armv6-m\libc_nano.a(lib_a-findfp.o)
 .ARM.attributes
                0x0000094c       0x2c c:/program files (x86)/atollic/truestudio for stm32 9.3.0/armtools/bin/../lib/gcc/arm-atollic-eabi/6.3.1/../../../../arm-atollic-eabi/lib/armv6-m\libc_nano.a(lib_a-fwalk.o)
 .ARM.attributes
                0x00000978       0x2c c:/program files (x86)/atollic/truestudio for stm32 9.3.0/armtools/bin/../lib/gcc/arm-atollic-eabi/6.3.1/../../../../arm-atollic-eabi/lib/armv6-m\libc_nano.a(lib_a-nano-mallocr.o)
 .ARM.attributes
                0x000009a4       0x2c c:/program files (x86)/atollic/truestudio for stm32 9.3.0/armtools/bin/../lib/gcc/arm-atollic-eabi/6.3.1/../../../../arm-atollic-eabi/lib/armv6-m\libc_nano.a(lib_a-nano-vfprintf.o)
 .ARM.attributes
                0x000009d0       0x2c c:/program files (x86)/atollic/truestudio for stm32 9.3.0/armtools/bin/../lib/gcc/arm-atollic-eabi/6.3.1/../../../../arm-atollic-eabi/lib/armv6-m\libc_nano.a(lib_a-nano-vfprintf_i.o)
 .ARM.attributes
                0x000009fc       0x2c c:/program files (x86)/atollic/truestudio for stm32 9.3.0/armtools/bin/../lib/gcc/arm-atollic-eabi/6.3.1/../../../../arm-atollic-eabi/lib/armv6-m\libc_nano.a(lib_a-sbrkr.o)
 .ARM.attributes
                0x00000a28       0x2c c:/program files (x86)/atollic/truestudio for stm32 9.3.0/armtools/bin/../lib/gcc/arm-atollic-eabi/6.3.1/../../../../arm-atollic-eabi/lib/armv6-m\libc_nano.a(lib_a-stdio.o)
 .ARM.attributes
                0x00000a54       0x2c c:/program files (x86)/atollic/truestudio for stm32 9.3.0/armtools/bin/../lib/gcc/arm-atollic-eabi/6.3.1/../../../../arm-atollic-eabi/lib/armv6-m\libc_nano.a(lib_a-wbuf.o)
 .ARM.attributes
                0x00000a80       0x2c c:/program files (x86)/atollic/truestudio for stm32 9.3.0/armtools/bin/../lib/gcc/arm-atollic-eabi/6.3.1/../../../../arm-atollic-eabi/lib/armv6-m\libc_nano.a(lib_a-writer.o)
 .ARM.attributes
                0x00000aac       0x2c c:/program files (x86)/atollic/truestudio for stm32 9.3.0/armtools/bin/../lib/gcc/arm-atollic-eabi/6.3.1/../../../../arm-atollic-eabi/lib/armv6-m\libc_nano.a(lib_a-wsetup.o)
 .ARM.attributes
                0x00000ad8       0x2c c:/program files (x86)/atollic/truestudio for stm32 9.3.0/armtools/bin/../lib/gcc/arm-atollic-eabi/6.3.1/../../../../arm-atollic-eabi/lib/armv6-m\libc_nano.a(lib_a-closer.o)
 .ARM.attributes
                0x00000b04       0x2c c:/program files (x86)/atollic/truestudio for stm32 9.3.0/armtools/bin/../lib/gcc/arm-atollic-eabi/6.3.1/../../../../arm-atollic-eabi/lib/armv6-m\libc_nano.a(lib_a-fflush.o)
 .ARM.attributes
                0x00000b30       0x2c c:/program files (x86)/atollic/truestudio for stm32 9.3.0/armtools/bin/../lib/gcc/arm-atollic-eabi/6.3.1/../../../../arm-atollic-eabi/lib/armv6-m\libc_nano.a(lib_a-lseekr.o)
 .ARM.attributes
                0x00000b5c       0x2c c:/program files (x86)/atollic/truestudio for stm32 9.3.0/armtools/bin/../lib/gcc/arm-atollic-eabi/6.3.1/../../../../arm-atollic-eabi/lib/armv6-m\libc_nano.a(lib_a-makebuf.o)
 .ARM.attributes
                0x00000b88       0x2c c:/program files (x86)/atollic/truestudio for stm32 9.3.0/armtools/bin/../lib/gcc/arm-atollic-eabi/6.3.1/../../../../arm-atollic-eabi/lib/armv6-m\libc_nano.a(lib_a-memchr-stub.o)
 .ARM.attributes
                0x00000bb4       0x2c c:/program files (x86)/atollic/truestudio for stm32 9.3.0/armtools/bin/../lib/gcc/arm-atollic-eabi/6.3.1/../../../../arm-atollic-eabi/lib/armv6-m\libc_nano.a(lib_a-mlock.o)
 .ARM.attributes
                0x00000be0       0x2c c:/program files (x86)/atollic/truestudio for stm32 9.3.0/armtools/bin/../lib/gcc/arm-atollic-eabi/6.3.1/../../../../arm-atollic-eabi/lib/armv6-m\libc_nano.a(lib_a-nano-freer.o)
 .ARM.attributes
                0x00000c0c       0x2c c:/program files (x86)/atollic/truestudio for stm32 9.3.0/armtools/bin/../lib/gcc/arm-atollic-eabi/6.3.1/../../../../arm-atollic-eabi/lib/armv6-m\libc_nano.a(lib_a-readr.o)
 .ARM.attributes
                0x00000c38       0x2c c:/program files (x86)/atollic/truestudio for stm32 9.3.0/armtools/bin/../lib/gcc/arm-atollic-eabi/6.3.1/../../../../arm-atollic-eabi/lib/armv6-m\libc_nano.a(lib_a-reent.o)
 .ARM.attributes
                0x00000c64       0x2c c:/program files (x86)/atollic/truestudio for stm32 9.3.0/armtools/bin/../lib/gcc/arm-atollic-eabi/6.3.1/../../../../arm-atollic-eabi/lib/armv6-m\libc_nano.a(lib_a-fstatr.o)
 .ARM.attributes
                0x00000c90       0x2c c:/program files (x86)/atollic/truestudio for stm32 9.3.0/armtools/bin/../lib/gcc/arm-atollic-eabi/6.3.1/../../../../arm-atollic-eabi/lib/armv6-m\libc_nano.a(lib_a-isattyr.o)
 .ARM.attributes
                0x00000cbc       0x1e c:/program files (x86)/atollic/truestudio for stm32 9.3.0/armtools/bin/../lib/gcc/arm-atollic-eabi/6.3.1/armv6-m\libgcc.a(_udivsi3.o)
 .ARM.attributes
                0x00000cda       0x1e c:/program files (x86)/atollic/truestudio for stm32 9.3.0/armtools/bin/../lib/gcc/arm-atollic-eabi/6.3.1/armv6-m\libgcc.a(_divsi3.o)
 .ARM.attributes
                0x00000cf8       0x1e c:/program files (x86)/atollic/truestudio for stm32 9.3.0/armtools/bin/../lib/gcc/arm-atollic-eabi/6.3.1/armv6-m\libgcc.a(_dvmd_tls.o)
 .ARM.attributes
                0x00000d16       0x1e c:/program files (x86)/atollic/truestudio for stm32 9.3.0/armtools/bin/../lib/gcc/arm-atollic-eabi/6.3.1/armv6-m\libgcc.a(_arm_cmpdf2.o)
 .ARM.attributes
                0x00000d34       0x2c c:/program files (x86)/atollic/truestudio for stm32 9.3.0/armtools/bin/../lib/gcc/arm-atollic-eabi/6.3.1/armv6-m\libgcc.a(adddf3.o)
 .ARM.attributes
                0x00000d60       0x2c c:/program files (x86)/atollic/truestudio for stm32 9.3.0/armtools/bin/../lib/gcc/arm-atollic-eabi/6.3.1/armv6-m\libgcc.a(eqdf2.o)
 .ARM.attributes
                0x00000d8c       0x2c c:/program files (x86)/atollic/truestudio for stm32 9.3.0/armtools/bin/../lib/gcc/arm-atollic-eabi/6.3.1/armv6-m\libgcc.a(gedf2.o)
 .ARM.attributes
                0x00000db8       0x2c c:/program files (x86)/atollic/truestudio for stm32 9.3.0/armtools/bin/../lib/gcc/arm-atollic-eabi/6.3.1/armv6-m\libgcc.a(ledf2.o)
 .ARM.attributes
                0x00000de4       0x2c c:/program files (x86)/atollic/truestudio for stm32 9.3.0/armtools/bin/../lib/gcc/arm-atollic-eabi/6.3.1/armv6-m\libgcc.a(fixdfsi.o)
 .ARM.attributes
                0x00000e10       0x1e c:/program files (x86)/atollic/truestudio for stm32 9.3.0/armtools/bin/../lib/gcc/arm-atollic-eabi/6.3.1/armv6-m\libgcc.a(_clzsi2.o)
 .ARM.attributes
                0x00000e2e       0x1e c:/program files (x86)/atollic/truestudio for stm32 9.3.0/armtools/bin/../lib/gcc/arm-atollic-eabi/6.3.1/armv6-m/crtn.o
OUTPUT(SANREMO_Opera.elf elf32-littlearm)

.debug_info     0x00000000    0x2c447
 .debug_info    0x00000000     0x1042 Core\Src\Modbus_DMA\mdb.o
 .debug_info    0x00001042     0x1b05 Core\Src\Modbus_DMA\mdb_com.o
 .debug_info    0x00002b47     0x125e Core\Src\adc.o
 .debug_info    0x00003da5     0x14c6 Core\Src\display_16segments.o
 .debug_info    0x0000526b      0xc19 Core\Src\dma.o
 .debug_info    0x00005e84     0x1302 Core\Src\encoder_EC50A.o
 .debug_info    0x00007186      0xd00 Core\Src\gpio.o
 .debug_info    0x00007e86     0x133e Core\Src\i2c.o
 .debug_info    0x000091c4     0x1307 Core\Src\input_keyboard.o
 .debug_info    0x0000a4cb      0xc30 Core\Src\iwdg.o
 .debug_info    0x0000b0fb     0x1c9a Core\Src\led_driver_PCA9685.o
 .debug_info    0x0000cd95     0x2671 Core\Src\main.o
 .debug_info    0x0000f406     0x11cb Core\Src\spi.o
 .debug_info    0x000105d1      0xc35 Core\Src\stm32f0xx_hal_msp.o
 .debug_info    0x00011206      0x8a2 Core\Src\stm32f0xx_hal_timebase_tim.o
 .debug_info    0x00011aa8     0x24c2 Core\Src\stm32f0xx_it.o
 .debug_info    0x00013f6a      0xf16 Core\Src\syscalls.o
 .debug_info    0x00014e80      0x2a5 Core\Src\system_stm32f0xx.o
 .debug_info    0x00015125     0x1a6b Core\Src\tim.o
 .debug_info    0x00016b90     0x137e Core\Src\usart.o
 .debug_info    0x00017f0e      0x6c0 Drivers\STM32F0xx_HAL_Driver\Src\stm32f0xx_hal.o
 .debug_info    0x000185ce      0xca6 Drivers\STM32F0xx_HAL_Driver\Src\stm32f0xx_hal_adc.o
 .debug_info    0x00019274      0x78d Drivers\STM32F0xx_HAL_Driver\Src\stm32f0xx_hal_cortex.o
 .debug_info    0x00019a01      0x7a5 Drivers\STM32F0xx_HAL_Driver\Src\stm32f0xx_hal_dma.o
 .debug_info    0x0001a1a6      0x67a Drivers\STM32F0xx_HAL_Driver\Src\stm32f0xx_hal_gpio.o
 .debug_info    0x0001a820     0x1f3f Drivers\STM32F0xx_HAL_Driver\Src\stm32f0xx_hal_i2c.o
 .debug_info    0x0001c75f      0x29d Drivers\STM32F0xx_HAL_Driver\Src\stm32f0xx_hal_iwdg.o
 .debug_info    0x0001c9fc      0xe64 Drivers\STM32F0xx_HAL_Driver\Src\stm32f0xx_hal_pcd.o
 .debug_info    0x0001d860      0x87c Drivers\STM32F0xx_HAL_Driver\Src\stm32f0xx_hal_pcd_ex.o
 .debug_info    0x0001e0dc      0x82d Drivers\STM32F0xx_HAL_Driver\Src\stm32f0xx_hal_rcc.o
 .debug_info    0x0001e909      0x677 Drivers\STM32F0xx_HAL_Driver\Src\stm32f0xx_hal_rcc_ex.o
 .debug_info    0x0001ef80     0x1600 Drivers\STM32F0xx_HAL_Driver\Src\stm32f0xx_hal_spi.o
 .debug_info    0x00020580     0x2527 Drivers\STM32F0xx_HAL_Driver\Src\stm32f0xx_hal_tim.o
 .debug_info    0x00022aa7     0x10ec Drivers\STM32F0xx_HAL_Driver\Src\stm32f0xx_hal_tim_ex.o
 .debug_info    0x00023b93     0x1574 Drivers\STM32F0xx_HAL_Driver\Src\stm32f0xx_hal_uart.o
 .debug_info    0x00025107      0x87a Drivers\STM32F0xx_HAL_Driver\Src\stm32f0xx_hal_uart_ex.o
 .debug_info    0x00025981     0x1508 Drivers\STM32F0xx_HAL_Driver\Src\stm32f0xx_ll_usb.o
 .debug_info    0x00026e89     0x1350 Middlewares\ST\STM32_USB_Device_Library\Core\Src\usbd_core.o
 .debug_info    0x000281d9     0x12c0 Middlewares\ST\STM32_USB_Device_Library\Core\Src\usbd_ctlreq.o
 .debug_info    0x00029499     0x10b1 Middlewares\ST\STM32_USB_Device_Library\Core\Src\usbd_ioreq.o
 .debug_info    0x0002a54a     0x1e63 USB_DEVICE\Target\usbd_conf.o
 .debug_info    0x0002c3ad       0x9a startup\startup_stm32f072xb.o

.debug_abbrev   0x00000000     0x57fc
 .debug_abbrev  0x00000000      0x2d4 Core\Src\Modbus_DMA\mdb.o
 .debug_abbrev  0x000002d4      0x2a9 Core\Src\Modbus_DMA\mdb_com.o
 .debug_abbrev  0x0000057d      0x215 Core\Src\adc.o
 .debug_abbrev  0x00000792      0x252 Core\Src\display_16segments.o
 .debug_abbrev  0x000009e4      0x1cb Core\Src\dma.o
 .debug_abbrev  0x00000baf      0x259 Core\Src\encoder_EC50A.o
 .debug_abbrev  0x00000e08      0x1d6 Core\Src\gpio.o
 .debug_abbrev  0x00000fde      0x215 Core\Src\i2c.o
 .debug_abbrev  0x000011f3      0x266 Core\Src\input_keyboard.o
 .debug_abbrev  0x00001459      0x1c0 Core\Src\iwdg.o
 .debug_abbrev  0x00001619      0x2f5 Core\Src\led_driver_PCA9685.o
 .debug_abbrev  0x0000190e      0x2e4 Core\Src\main.o
 .debug_abbrev  0x00001bf2      0x20c Core\Src\spi.o
 .debug_abbrev  0x00001dfe      0x1d6 Core\Src\stm32f0xx_hal_msp.o
 .debug_abbrev  0x00001fd4      0x196 Core\Src\stm32f0xx_hal_timebase_tim.o
 .debug_abbrev  0x0000216a      0x253 Core\Src\stm32f0xx_it.o
 .debug_abbrev  0x000023bd      0x271 Core\Src\syscalls.o
 .debug_abbrev  0x0000262e      0x126 Core\Src\system_stm32f0xx.o
 .debug_abbrev  0x00002754      0x297 Core\Src\tim.o
 .debug_abbrev  0x000029eb      0x215 Core\Src\usart.o
 .debug_abbrev  0x00002c00      0x1c2 Drivers\STM32F0xx_HAL_Driver\Src\stm32f0xx_hal.o
 .debug_abbrev  0x00002dc2      0x202 Drivers\STM32F0xx_HAL_Driver\Src\stm32f0xx_hal_adc.o
 .debug_abbrev  0x00002fc4      0x254 Drivers\STM32F0xx_HAL_Driver\Src\stm32f0xx_hal_cortex.o
 .debug_abbrev  0x00003218      0x211 Drivers\STM32F0xx_HAL_Driver\Src\stm32f0xx_hal_dma.o
 .debug_abbrev  0x00003429      0x1bb Drivers\STM32F0xx_HAL_Driver\Src\stm32f0xx_hal_gpio.o
 .debug_abbrev  0x000035e4      0x225 Drivers\STM32F0xx_HAL_Driver\Src\stm32f0xx_hal_i2c.o
 .debug_abbrev  0x00003809      0x142 Drivers\STM32F0xx_HAL_Driver\Src\stm32f0xx_hal_iwdg.o
 .debug_abbrev  0x0000394b      0x278 Drivers\STM32F0xx_HAL_Driver\Src\stm32f0xx_hal_pcd.o
 .debug_abbrev  0x00003bc3      0x1e6 Drivers\STM32F0xx_HAL_Driver\Src\stm32f0xx_hal_pcd_ex.o
 .debug_abbrev  0x00003da9      0x1f0 Drivers\STM32F0xx_HAL_Driver\Src\stm32f0xx_hal_rcc.o
 .debug_abbrev  0x00003f99      0x1a2 Drivers\STM32F0xx_HAL_Driver\Src\stm32f0xx_hal_rcc_ex.o
 .debug_abbrev  0x0000413b      0x223 Drivers\STM32F0xx_HAL_Driver\Src\stm32f0xx_hal_spi.o
 .debug_abbrev  0x0000435e      0x229 Drivers\STM32F0xx_HAL_Driver\Src\stm32f0xx_hal_tim.o
 .debug_abbrev  0x00004587      0x217 Drivers\STM32F0xx_HAL_Driver\Src\stm32f0xx_hal_tim_ex.o
 .debug_abbrev  0x0000479e      0x200 Drivers\STM32F0xx_HAL_Driver\Src\stm32f0xx_hal_uart.o
 .debug_abbrev  0x0000499e      0x1dd Drivers\STM32F0xx_HAL_Driver\Src\stm32f0xx_hal_uart_ex.o
 .debug_abbrev  0x00004b7b      0x234 Drivers\STM32F0xx_HAL_Driver\Src\stm32f0xx_ll_usb.o
 .debug_abbrev  0x00004daf      0x28e Middlewares\ST\STM32_USB_Device_Library\Core\Src\usbd_core.o
 .debug_abbrev  0x0000503d      0x2be Middlewares\ST\STM32_USB_Device_Library\Core\Src\usbd_ctlreq.o
 .debug_abbrev  0x000052fb      0x1fe Middlewares\ST\STM32_USB_Device_Library\Core\Src\usbd_ioreq.o
 .debug_abbrev  0x000054f9      0x2f1 USB_DEVICE\Target\usbd_conf.o
 .debug_abbrev  0x000057ea       0x12 startup\startup_stm32f072xb.o

.debug_aranges  0x00000000     0x1ba0
 .debug_aranges
                0x00000000       0x78 Core\Src\Modbus_DMA\mdb.o
 .debug_aranges
                0x00000078       0x70 Core\Src\Modbus_DMA\mdb_com.o
 .debug_aranges
                0x000000e8       0x30 Core\Src\adc.o
 .debug_aranges
                0x00000118       0x38 Core\Src\display_16segments.o
 .debug_aranges
                0x00000150       0x20 Core\Src\dma.o
 .debug_aranges
                0x00000170       0x38 Core\Src\encoder_EC50A.o
 .debug_aranges
                0x000001a8       0x20 Core\Src\gpio.o
 .debug_aranges
                0x000001c8       0x30 Core\Src\i2c.o
 .debug_aranges
                0x000001f8       0x40 Core\Src\input_keyboard.o
 .debug_aranges
                0x00000238       0x20 Core\Src\iwdg.o
 .debug_aranges
                0x00000258       0xa0 Core\Src\led_driver_PCA9685.o
 .debug_aranges
                0x000002f8       0x60 Core\Src\main.o
 .debug_aranges
                0x00000358       0x30 Core\Src\spi.o
 .debug_aranges
                0x00000388       0x20 Core\Src\stm32f0xx_hal_msp.o
 .debug_aranges
                0x000003a8       0x30 Core\Src\stm32f0xx_hal_timebase_tim.o
 .debug_aranges
                0x000003d8       0xb8 Core\Src\stm32f0xx_it.o
 .debug_aranges
                0x00000490       0xb0 Core\Src\syscalls.o
 .debug_aranges
                0x00000540       0x28 Core\Src\system_stm32f0xx.o
 .debug_aranges
                0x00000568       0x60 Core\Src\tim.o
 .debug_aranges
                0x000005c8       0x38 Core\Src\usart.o
 .debug_aranges
                0x00000600       0xd0 Drivers\STM32F0xx_HAL_Driver\Src\stm32f0xx_hal.o
 .debug_aranges
                0x000006d0       0xf8 Drivers\STM32F0xx_HAL_Driver\Src\stm32f0xx_hal_adc.o
 .debug_aranges
                0x000007c8       0xc0 Drivers\STM32F0xx_HAL_Driver\Src\stm32f0xx_hal_cortex.o
 .debug_aranges
                0x00000888       0x88 Drivers\STM32F0xx_HAL_Driver\Src\stm32f0xx_hal_dma.o
 .debug_aranges
                0x00000910       0x58 Drivers\STM32F0xx_HAL_Driver\Src\stm32f0xx_hal_gpio.o
 .debug_aranges
                0x00000968      0x288 Drivers\STM32F0xx_HAL_Driver\Src\stm32f0xx_hal_i2c.o
 .debug_aranges
                0x00000bf0       0x28 Drivers\STM32F0xx_HAL_Driver\Src\stm32f0xx_hal_iwdg.o
 .debug_aranges
                0x00000c18      0x120 Drivers\STM32F0xx_HAL_Driver\Src\stm32f0xx_hal_pcd.o
 .debug_aranges
                0x00000d38       0x58 Drivers\STM32F0xx_HAL_Driver\Src\stm32f0xx_hal_pcd_ex.o
 .debug_aranges
                0x00000d90       0x80 Drivers\STM32F0xx_HAL_Driver\Src\stm32f0xx_hal_rcc.o
 .debug_aranges
                0x00000e10       0x78 Drivers\STM32F0xx_HAL_Driver\Src\stm32f0xx_hal_rcc_ex.o
 .debug_aranges
                0x00000e88      0x1d8 Drivers\STM32F0xx_HAL_Driver\Src\stm32f0xx_hal_spi.o
 .debug_aranges
                0x00001060      0x3b8 Drivers\STM32F0xx_HAL_Driver\Src\stm32f0xx_hal_tim.o
 .debug_aranges
                0x00001418      0x150 Drivers\STM32F0xx_HAL_Driver\Src\stm32f0xx_hal_tim_ex.o
 .debug_aranges
                0x00001568      0x210 Drivers\STM32F0xx_HAL_Driver\Src\stm32f0xx_hal_uart.o
 .debug_aranges
                0x00001778       0x50 Drivers\STM32F0xx_HAL_Driver\Src\stm32f0xx_hal_uart_ex.o
 .debug_aranges
                0x000017c8      0x108 Drivers\STM32F0xx_HAL_Driver\Src\stm32f0xx_ll_usb.o
 .debug_aranges
                0x000018d0       0xb8 Middlewares\ST\STM32_USB_Device_Library\Core\Src\usbd_core.o
 .debug_aranges
                0x00001988       0x88 Middlewares\ST\STM32_USB_Device_Library\Core\Src\usbd_ctlreq.o
 .debug_aranges
                0x00001a10       0x50 Middlewares\ST\STM32_USB_Device_Library\Core\Src\usbd_ioreq.o
 .debug_aranges
                0x00001a60      0x118 USB_DEVICE\Target\usbd_conf.o
 .debug_aranges
                0x00001b78       0x28 startup\startup_stm32f072xb.o

.debug_ranges   0x00000000     0x1908
 .debug_ranges  0x00000000       0x68 Core\Src\Modbus_DMA\mdb.o
 .debug_ranges  0x00000068       0x60 Core\Src\Modbus_DMA\mdb_com.o
 .debug_ranges  0x000000c8       0x20 Core\Src\adc.o
 .debug_ranges  0x000000e8       0x28 Core\Src\display_16segments.o
 .debug_ranges  0x00000110       0x10 Core\Src\dma.o
 .debug_ranges  0x00000120       0x28 Core\Src\encoder_EC50A.o
 .debug_ranges  0x00000148       0x10 Core\Src\gpio.o
 .debug_ranges  0x00000158       0x20 Core\Src\i2c.o
 .debug_ranges  0x00000178       0x30 Core\Src\input_keyboard.o
 .debug_ranges  0x000001a8       0x10 Core\Src\iwdg.o
 .debug_ranges  0x000001b8       0x90 Core\Src\led_driver_PCA9685.o
 .debug_ranges  0x00000248       0x50 Core\Src\main.o
 .debug_ranges  0x00000298       0x20 Core\Src\spi.o
 .debug_ranges  0x000002b8       0x10 Core\Src\stm32f0xx_hal_msp.o
 .debug_ranges  0x000002c8       0x20 Core\Src\stm32f0xx_hal_timebase_tim.o
 .debug_ranges  0x000002e8       0xa8 Core\Src\stm32f0xx_it.o
 .debug_ranges  0x00000390       0xa0 Core\Src\syscalls.o
 .debug_ranges  0x00000430       0x18 Core\Src\system_stm32f0xx.o
 .debug_ranges  0x00000448       0x50 Core\Src\tim.o
 .debug_ranges  0x00000498       0x28 Core\Src\usart.o
 .debug_ranges  0x000004c0       0xc0 Drivers\STM32F0xx_HAL_Driver\Src\stm32f0xx_hal.o
 .debug_ranges  0x00000580       0xe8 Drivers\STM32F0xx_HAL_Driver\Src\stm32f0xx_hal_adc.o
 .debug_ranges  0x00000668       0xb0 Drivers\STM32F0xx_HAL_Driver\Src\stm32f0xx_hal_cortex.o
 .debug_ranges  0x00000718       0x78 Drivers\STM32F0xx_HAL_Driver\Src\stm32f0xx_hal_dma.o
 .debug_ranges  0x00000790       0x48 Drivers\STM32F0xx_HAL_Driver\Src\stm32f0xx_hal_gpio.o
 .debug_ranges  0x000007d8      0x278 Drivers\STM32F0xx_HAL_Driver\Src\stm32f0xx_hal_i2c.o
 .debug_ranges  0x00000a50       0x18 Drivers\STM32F0xx_HAL_Driver\Src\stm32f0xx_hal_iwdg.o
 .debug_ranges  0x00000a68      0x110 Drivers\STM32F0xx_HAL_Driver\Src\stm32f0xx_hal_pcd.o
 .debug_ranges  0x00000b78       0x48 Drivers\STM32F0xx_HAL_Driver\Src\stm32f0xx_hal_pcd_ex.o
 .debug_ranges  0x00000bc0       0x70 Drivers\STM32F0xx_HAL_Driver\Src\stm32f0xx_hal_rcc.o
 .debug_ranges  0x00000c30       0x68 Drivers\STM32F0xx_HAL_Driver\Src\stm32f0xx_hal_rcc_ex.o
 .debug_ranges  0x00000c98      0x1c8 Drivers\STM32F0xx_HAL_Driver\Src\stm32f0xx_hal_spi.o
 .debug_ranges  0x00000e60      0x3a8 Drivers\STM32F0xx_HAL_Driver\Src\stm32f0xx_hal_tim.o
 .debug_ranges  0x00001208      0x140 Drivers\STM32F0xx_HAL_Driver\Src\stm32f0xx_hal_tim_ex.o
 .debug_ranges  0x00001348      0x200 Drivers\STM32F0xx_HAL_Driver\Src\stm32f0xx_hal_uart.o
 .debug_ranges  0x00001548       0x40 Drivers\STM32F0xx_HAL_Driver\Src\stm32f0xx_hal_uart_ex.o
 .debug_ranges  0x00001588       0xf8 Drivers\STM32F0xx_HAL_Driver\Src\stm32f0xx_ll_usb.o
 .debug_ranges  0x00001680       0xa8 Middlewares\ST\STM32_USB_Device_Library\Core\Src\usbd_core.o
 .debug_ranges  0x00001728       0x78 Middlewares\ST\STM32_USB_Device_Library\Core\Src\usbd_ctlreq.o
 .debug_ranges  0x000017a0       0x40 Middlewares\ST\STM32_USB_Device_Library\Core\Src\usbd_ioreq.o
 .debug_ranges  0x000017e0      0x108 USB_DEVICE\Target\usbd_conf.o
 .debug_ranges  0x000018e8       0x20 startup\startup_stm32f072xb.o

.debug_line     0x00000000    0x116f3
 .debug_line    0x00000000      0x4fa Core\Src\Modbus_DMA\mdb.o
 .debug_line    0x000004fa      0x4ec Core\Src\Modbus_DMA\mdb_com.o
 .debug_line    0x000009e6      0x3ae Core\Src\adc.o
 .debug_line    0x00000d94      0x45a Core\Src\display_16segments.o
 .debug_line    0x000011ee      0x2f4 Core\Src\dma.o
 .debug_line    0x000014e2      0x3b1 Core\Src\encoder_EC50A.o
 .debug_line    0x00001893      0x338 Core\Src\gpio.o
 .debug_line    0x00001bcb      0x3a3 Core\Src\i2c.o
 .debug_line    0x00001f6e      0x4b6 Core\Src\input_keyboard.o
 .debug_line    0x00002424      0x333 Core\Src\iwdg.o
 .debug_line    0x00002757      0x5ba Core\Src\led_driver_PCA9685.o
 .debug_line    0x00002d11      0x5b9 Core\Src\main.o
 .debug_line    0x000032ca      0x3a5 Core\Src\spi.o
 .debug_line    0x0000366f      0x304 Core\Src\stm32f0xx_hal_msp.o
 .debug_line    0x00003973      0x25d Core\Src\stm32f0xx_hal_timebase_tim.o
 .debug_line    0x00003bd0      0x56d Core\Src\stm32f0xx_it.o
 .debug_line    0x0000413d      0x3dd Core\Src\syscalls.o
 .debug_line    0x0000451a      0x1fb Core\Src\system_stm32f0xx.o
 .debug_line    0x00004715      0x485 Core\Src\tim.o
 .debug_line    0x00004b9a      0x3f1 Core\Src\usart.o
 .debug_line    0x00004f8b      0x3d3 Drivers\STM32F0xx_HAL_Driver\Src\stm32f0xx_hal.o
 .debug_line    0x0000535e      0xaac Drivers\STM32F0xx_HAL_Driver\Src\stm32f0xx_hal_adc.o
 .debug_line    0x00005e0a      0x40e Drivers\STM32F0xx_HAL_Driver\Src\stm32f0xx_hal_cortex.o
 .debug_line    0x00006218      0x4f6 Drivers\STM32F0xx_HAL_Driver\Src\stm32f0xx_hal_dma.o
 .debug_line    0x0000670e      0x4c2 Drivers\STM32F0xx_HAL_Driver\Src\stm32f0xx_hal_gpio.o
 .debug_line    0x00006bd0     0x1808 Drivers\STM32F0xx_HAL_Driver\Src\stm32f0xx_hal_i2c.o
 .debug_line    0x000083d8      0x26a Drivers\STM32F0xx_HAL_Driver\Src\stm32f0xx_hal_iwdg.o
 .debug_line    0x00008642      0x6c6 Drivers\STM32F0xx_HAL_Driver\Src\stm32f0xx_hal_pcd.o
 .debug_line    0x00008d08      0x2d8 Drivers\STM32F0xx_HAL_Driver\Src\stm32f0xx_hal_pcd_ex.o
 .debug_line    0x00008fe0      0x71b Drivers\STM32F0xx_HAL_Driver\Src\stm32f0xx_hal_rcc.o
 .debug_line    0x000096fb      0x540 Drivers\STM32F0xx_HAL_Driver\Src\stm32f0xx_hal_rcc_ex.o
 .debug_line    0x00009c3b      0xe88 Drivers\STM32F0xx_HAL_Driver\Src\stm32f0xx_hal_spi.o
 .debug_line    0x0000aac3     0x2e75 Drivers\STM32F0xx_HAL_Driver\Src\stm32f0xx_hal_tim.o
 .debug_line    0x0000d938      0xdc5 Drivers\STM32F0xx_HAL_Driver\Src\stm32f0xx_hal_tim_ex.o
 .debug_line    0x0000e6fd      0xee1 Drivers\STM32F0xx_HAL_Driver\Src\stm32f0xx_hal_uart.o
 .debug_line    0x0000f5de      0x39f Drivers\STM32F0xx_HAL_Driver\Src\stm32f0xx_hal_uart_ex.o
 .debug_line    0x0000f97d      0x6e0 Drivers\STM32F0xx_HAL_Driver\Src\stm32f0xx_ll_usb.o
 .debug_line    0x0001005d      0x577 Middlewares\ST\STM32_USB_Device_Library\Core\Src\usbd_core.o
 .debug_line    0x000105d4      0x619 Middlewares\ST\STM32_USB_Device_Library\Core\Src\usbd_ctlreq.o
 .debug_line    0x00010bed      0x3e0 Middlewares\ST\STM32_USB_Device_Library\Core\Src\usbd_ioreq.o
 .debug_line    0x00010fcd      0x6a3 USB_DEVICE\Target\usbd_conf.o
 .debug_line    0x00011670       0x83 startup\startup_stm32f072xb.o

.debug_str      0x00000000     0x7a78
 .debug_str     0x00000000      0x8ee Core\Src\Modbus_DMA\mdb.o
                                0x9d0 (size before relaxing)
 .debug_str     0x000008ee      0xbd1 Core\Src\Modbus_DMA\mdb_com.o
                               0x1457 (size before relaxing)
 .debug_str     0x000014bf      0x43e Core\Src\adc.o
                                0xe49 (size before relaxing)
 .debug_str     0x000018fd      0x150 Core\Src\display_16segments.o
                                0xf10 (size before relaxing)
 .debug_str     0x00001a4d       0x1e Core\Src\dma.o
                                0x83f (size before relaxing)
 .debug_str     0x00001a6b       0x7a Core\Src\encoder_EC50A.o
                                0xe40 (size before relaxing)
 .debug_str     0x00001ae5       0x20 Core\Src\gpio.o
                                0x898 (size before relaxing)
 .debug_str     0x00001b05      0x2e6 Core\Src\i2c.o
                                0xf67 (size before relaxing)
 .debug_str     0x00001deb       0xd0 Core\Src\input_keyboard.o
                                0xe88 (size before relaxing)
 .debug_str     0x00001ebb       0x20 Core\Src\iwdg.o
                                0x86f (size before relaxing)
 .debug_str     0x00001edb      0x21a Core\Src\led_driver_PCA9685.o
                               0x149f (size before relaxing)
 .debug_str     0x000020f5      0x650 Core\Src\main.o
                               0x1e89 (size before relaxing)
 .debug_str     0x00002745       0x4b Core\Src\spi.o
                                0xc9c (size before relaxing)
 .debug_str     0x00002790       0x2c Core\Src\stm32f0xx_hal_msp.o
                                0x84d (size before relaxing)
 .debug_str     0x000027bc       0x98 Core\Src\stm32f0xx_hal_timebase_tim.o
                                0x96b (size before relaxing)
 .debug_str     0x00002854      0x4a1 Core\Src\stm32f0xx_it.o
                               0x1c96 (size before relaxing)
 .debug_str     0x00002cf5      0x227 Core\Src\syscalls.o
                                0x85c (size before relaxing)
 .debug_str     0x00002f1c       0x5f Core\Src\system_stm32f0xx.o
                                0x317 (size before relaxing)
 .debug_str     0x00002f7b      0x107 Core\Src\tim.o
                               0x14bd (size before relaxing)
 .debug_str     0x00003082       0x6b Core\Src\usart.o
                                0xebe (size before relaxing)
 .debug_str     0x000030ed      0x1ea Drivers\STM32F0xx_HAL_Driver\Src\stm32f0xx_hal.o
                                0x727 (size before relaxing)
 .debug_str     0x000032d7      0x2ed Drivers\STM32F0xx_HAL_Driver\Src\stm32f0xx_hal_adc.o
                                0x98b (size before relaxing)
 .debug_str     0x000035c4      0x281 Drivers\STM32F0xx_HAL_Driver\Src\stm32f0xx_hal_cortex.o
                                0x739 (size before relaxing)
 .debug_str     0x00003845      0x248 Drivers\STM32F0xx_HAL_Driver\Src\stm32f0xx_hal_dma.o
                                0x6ef (size before relaxing)
 .debug_str     0x00003a8d      0x117 Drivers\STM32F0xx_HAL_Driver\Src\stm32f0xx_hal_gpio.o
                                0x4e6 (size before relaxing)
 .debug_str     0x00003ba4      0x83b Drivers\STM32F0xx_HAL_Driver\Src\stm32f0xx_hal_i2c.o
                                0xfe1 (size before relaxing)
 .debug_str     0x000043df       0x58 Drivers\STM32F0xx_HAL_Driver\Src\stm32f0xx_hal_iwdg.o
                                0x361 (size before relaxing)
 .debug_str     0x00004437      0x375 Drivers\STM32F0xx_HAL_Driver\Src\stm32f0xx_hal_pcd.o
                                0x9b0 (size before relaxing)
 .debug_str     0x000047ac      0x1c6 Drivers\STM32F0xx_HAL_Driver\Src\stm32f0xx_hal_pcd_ex.o
                                0x827 (size before relaxing)
 .debug_str     0x00004972      0x1e7 Drivers\STM32F0xx_HAL_Driver\Src\stm32f0xx_hal_rcc.o
                                0x6d4 (size before relaxing)
 .debug_str     0x00004b59      0x27a Drivers\STM32F0xx_HAL_Driver\Src\stm32f0xx_hal_rcc_ex.o
                                0x6ba (size before relaxing)
 .debug_str     0x00004dd3      0x543 Drivers\STM32F0xx_HAL_Driver\Src\stm32f0xx_hal_spi.o
                                0xc37 (size before relaxing)
 .debug_str     0x00005316      0xdd6 Drivers\STM32F0xx_HAL_Driver\Src\stm32f0xx_hal_tim.o
                               0x1510 (size before relaxing)
 .debug_str     0x000060ec      0x52f Drivers\STM32F0xx_HAL_Driver\Src\stm32f0xx_hal_tim_ex.o
                                0xcc4 (size before relaxing)
 .debug_str     0x0000661b      0x6b4 Drivers\STM32F0xx_HAL_Driver\Src\stm32f0xx_hal_uart.o
                                0xe33 (size before relaxing)
 .debug_str     0x00006ccf      0x160 Drivers\STM32F0xx_HAL_Driver\Src\stm32f0xx_hal_uart_ex.o
                                0x80b (size before relaxing)
 .debug_str     0x00006e2f      0x313 Drivers\STM32F0xx_HAL_Driver\Src\stm32f0xx_ll_usb.o
                                0x80d (size before relaxing)
 .debug_str     0x00007142      0x50a Middlewares\ST\STM32_USB_Device_Library\Core\Src\usbd_core.o
                                0xd49 (size before relaxing)
 .debug_str     0x0000764c      0x134 Middlewares\ST\STM32_USB_Device_Library\Core\Src\usbd_ctlreq.o
                                0xccf (size before relaxing)
 .debug_str     0x00007780       0xc9 Middlewares\ST\STM32_USB_Device_Library\Core\Src\usbd_ioreq.o
                                0xc57 (size before relaxing)
 .debug_str     0x00007849      0x22f USB_DEVICE\Target\usbd_conf.o
                               0x1543 (size before relaxing)

.comment        0x00000000       0x7c
 .comment       0x00000000       0x7c Core\Src\Modbus_DMA\mdb.o
                                 0x7d (size before relaxing)
 .comment       0x0000007c       0x7d Core\Src\Modbus_DMA\mdb_com.o
 .comment       0x0000007c       0x7d Core\Src\adc.o
 .comment       0x0000007c       0x7d Core\Src\display_16segments.o
 .comment       0x0000007c       0x7d Core\Src\dma.o
 .comment       0x0000007c       0x7d Core\Src\encoder_EC50A.o
 .comment       0x0000007c       0x7d Core\Src\gpio.o
 .comment       0x0000007c       0x7d Core\Src\i2c.o
 .comment       0x0000007c       0x7d Core\Src\input_keyboard.o
 .comment       0x0000007c       0x7d Core\Src\iwdg.o
 .comment       0x0000007c       0x7d Core\Src\led_driver_PCA9685.o
 .comment       0x0000007c       0x7d Core\Src\main.o
 .comment       0x0000007c       0x7d Core\Src\spi.o
 .comment       0x0000007c       0x7d Core\Src\stm32f0xx_hal_msp.o
 .comment       0x0000007c       0x7d Core\Src\stm32f0xx_hal_timebase_tim.o
 .comment       0x0000007c       0x7d Core\Src\stm32f0xx_it.o
 .comment       0x0000007c       0x7d Core\Src\syscalls.o
 .comment       0x0000007c       0x7d Core\Src\system_stm32f0xx.o
 .comment       0x0000007c       0x7d Core\Src\tim.o
 .comment       0x0000007c       0x7d Core\Src\usart.o
 .comment       0x0000007c       0x7d Drivers\STM32F0xx_HAL_Driver\Src\stm32f0xx_hal.o
 .comment       0x0000007c       0x7d Drivers\STM32F0xx_HAL_Driver\Src\stm32f0xx_hal_adc.o
 .comment       0x0000007c       0x7d Drivers\STM32F0xx_HAL_Driver\Src\stm32f0xx_hal_cortex.o
 .comment       0x0000007c       0x7d Drivers\STM32F0xx_HAL_Driver\Src\stm32f0xx_hal_dma.o
 .comment       0x0000007c       0x7d Drivers\STM32F0xx_HAL_Driver\Src\stm32f0xx_hal_gpio.o
 .comment       0x0000007c       0x7d Drivers\STM32F0xx_HAL_Driver\Src\stm32f0xx_hal_i2c.o
 .comment       0x0000007c       0x7d Drivers\STM32F0xx_HAL_Driver\Src\stm32f0xx_hal_iwdg.o
 .comment       0x0000007c       0x7d Drivers\STM32F0xx_HAL_Driver\Src\stm32f0xx_hal_pcd.o
 .comment       0x0000007c       0x7d Drivers\STM32F0xx_HAL_Driver\Src\stm32f0xx_hal_pcd_ex.o
 .comment       0x0000007c       0x7d Drivers\STM32F0xx_HAL_Driver\Src\stm32f0xx_hal_rcc.o
 .comment       0x0000007c       0x7d Drivers\STM32F0xx_HAL_Driver\Src\stm32f0xx_hal_rcc_ex.o
 .comment       0x0000007c       0x7d Drivers\STM32F0xx_HAL_Driver\Src\stm32f0xx_hal_spi.o
 .comment       0x0000007c       0x7d Drivers\STM32F0xx_HAL_Driver\Src\stm32f0xx_hal_tim.o
 .comment       0x0000007c       0x7d Drivers\STM32F0xx_HAL_Driver\Src\stm32f0xx_hal_tim_ex.o
 .comment       0x0000007c       0x7d Drivers\STM32F0xx_HAL_Driver\Src\stm32f0xx_hal_uart.o
 .comment       0x0000007c       0x7d Drivers\STM32F0xx_HAL_Driver\Src\stm32f0xx_hal_uart_ex.o
 .comment       0x0000007c       0x7d Drivers\STM32F0xx_HAL_Driver\Src\stm32f0xx_ll_usb.o
 .comment       0x0000007c       0x7d Middlewares\ST\STM32_USB_Device_Library\Core\Src\usbd_core.o
 .comment       0x0000007c       0x7d Middlewares\ST\STM32_USB_Device_Library\Core\Src\usbd_ctlreq.o
 .comment       0x0000007c       0x7d Middlewares\ST\STM32_USB_Device_Library\Core\Src\usbd_ioreq.o
 .comment       0x0000007c       0x7d USB_DEVICE\Target\usbd_conf.o

.debug_frame    0x00000000     0x6894
 .debug_frame   0x00000000      0x190 Core\Src\Modbus_DMA\mdb.o
 .debug_frame   0x00000190      0x16c Core\Src\Modbus_DMA\mdb_com.o
 .debug_frame   0x000002fc       0x70 Core\Src\adc.o
 .debug_frame   0x0000036c       0x90 Core\Src\display_16segments.o
 .debug_frame   0x000003fc       0x30 Core\Src\dma.o
 .debug_frame   0x0000042c       0x8c Core\Src\encoder_EC50A.o
 .debug_frame   0x000004b8       0x30 Core\Src\gpio.o
 .debug_frame   0x000004e8       0x6c Core\Src\i2c.o
 .debug_frame   0x00000554       0xa8 Core\Src\input_keyboard.o
 .debug_frame   0x000005fc       0x2c Core\Src\iwdg.o
 .debug_frame   0x00000628      0x24c Core\Src\led_driver_PCA9685.o
 .debug_frame   0x00000874      0x120 Core\Src\main.o
 .debug_frame   0x00000994       0x6c Core\Src\spi.o
 .debug_frame   0x00000a00       0x30 Core\Src\stm32f0xx_hal_msp.o
 .debug_frame   0x00000a30       0x68 Core\Src\stm32f0xx_hal_timebase_tim.o
 .debug_frame   0x00000a98      0x244 Core\Src\stm32f0xx_it.o
 .debug_frame   0x00000cdc      0x264 Core\Src\syscalls.o
 .debug_frame   0x00000f40       0x4c Core\Src\system_stm32f0xx.o
 .debug_frame   0x00000f8c      0x120 Core\Src\tim.o
 .debug_frame   0x000010ac       0x88 Core\Src\usart.o
 .debug_frame   0x00001134      0x2a0 Drivers\STM32F0xx_HAL_Driver\Src\stm32f0xx_hal.o
 .debug_frame   0x000013d4      0x390 Drivers\STM32F0xx_HAL_Driver\Src\stm32f0xx_hal_adc.o
 .debug_frame   0x00001764      0x2a4 Drivers\STM32F0xx_HAL_Driver\Src\stm32f0xx_hal_cortex.o
 .debug_frame   0x00001a08      0x1d0 Drivers\STM32F0xx_HAL_Driver\Src\stm32f0xx_hal_dma.o
 .debug_frame   0x00001bd8      0x110 Drivers\STM32F0xx_HAL_Driver\Src\stm32f0xx_hal_gpio.o
 .debug_frame   0x00001ce8      0x9d0 Drivers\STM32F0xx_HAL_Driver\Src\stm32f0xx_hal_i2c.o
 .debug_frame   0x000026b8       0x50 Drivers\STM32F0xx_HAL_Driver\Src\stm32f0xx_hal_iwdg.o
 .debug_frame   0x00002708      0x434 Drivers\STM32F0xx_HAL_Driver\Src\stm32f0xx_hal_pcd.o
 .debug_frame   0x00002b3c      0x110 Drivers\STM32F0xx_HAL_Driver\Src\stm32f0xx_hal_pcd_ex.o
 .debug_frame   0x00002c4c      0x198 Drivers\STM32F0xx_HAL_Driver\Src\stm32f0xx_hal_rcc.o
 .debug_frame   0x00002de4      0x180 Drivers\STM32F0xx_HAL_Driver\Src\stm32f0xx_hal_rcc_ex.o
 .debug_frame   0x00002f64      0x710 Drivers\STM32F0xx_HAL_Driver\Src\stm32f0xx_hal_spi.o
 .debug_frame   0x00003674      0xe90 Drivers\STM32F0xx_HAL_Driver\Src\stm32f0xx_hal_tim.o
 .debug_frame   0x00004504      0x4f0 Drivers\STM32F0xx_HAL_Driver\Src\stm32f0xx_hal_tim_ex.o
 .debug_frame   0x000049f4      0x7f0 Drivers\STM32F0xx_HAL_Driver\Src\stm32f0xx_hal_uart.o
 .debug_frame   0x000051e4       0xf0 Drivers\STM32F0xx_HAL_Driver\Src\stm32f0xx_hal_uart_ex.o
 .debug_frame   0x000052d4      0x3e0 Drivers\STM32F0xx_HAL_Driver\Src\stm32f0xx_ll_usb.o
 .debug_frame   0x000056b4      0x290 Middlewares\ST\STM32_USB_Device_Library\Core\Src\usbd_core.o
 .debug_frame   0x00005944      0x1d0 Middlewares\ST\STM32_USB_Device_Library\Core\Src\usbd_ctlreq.o
 .debug_frame   0x00005b14       0xf0 Middlewares\ST\STM32_USB_Device_Library\Core\Src\usbd_ioreq.o
 .debug_frame   0x00005c04      0x418 USB_DEVICE\Target\usbd_conf.o
 .debug_frame   0x0000601c       0x20 c:/program files (x86)/atollic/truestudio for stm32 9.3.0/armtools/bin/../lib/gcc/arm-atollic-eabi/6.3.1/../../../../arm-atollic-eabi/lib/armv6-m\libc_nano.a(lib_a-errno.o)
 .debug_frame   0x0000603c       0x2c c:/program files (x86)/atollic/truestudio for stm32 9.3.0/armtools/bin/../lib/gcc/arm-atollic-eabi/6.3.1/../../../../arm-atollic-eabi/lib/armv6-m\libc_nano.a(lib_a-init.o)
 .debug_frame   0x00006068       0x20 c:/program files (x86)/atollic/truestudio for stm32 9.3.0/armtools/bin/../lib/gcc/arm-atollic-eabi/6.3.1/../../../../arm-atollic-eabi/lib/armv6-m\libc_nano.a(lib_a-memset.o)
 .debug_frame   0x00006088       0x50 c:/program files (x86)/atollic/truestudio for stm32 9.3.0/armtools/bin/../lib/gcc/arm-atollic-eabi/6.3.1/../../../../arm-atollic-eabi/lib/armv6-m\libc_nano.a(lib_a-printf.o)
 .debug_frame   0x000060d8      0x140 c:/program files (x86)/atollic/truestudio for stm32 9.3.0/armtools/bin/../lib/gcc/arm-atollic-eabi/6.3.1/../../../../arm-atollic-eabi/lib/armv6-m\libc_nano.a(lib_a-findfp.o)
 .debug_frame   0x00006218       0x58 c:/program files (x86)/atollic/truestudio for stm32 9.3.0/armtools/bin/../lib/gcc/arm-atollic-eabi/6.3.1/../../../../arm-atollic-eabi/lib/armv6-m\libc_nano.a(lib_a-fwalk.o)
 .debug_frame   0x00006270       0x2c c:/program files (x86)/atollic/truestudio for stm32 9.3.0/armtools/bin/../lib/gcc/arm-atollic-eabi/6.3.1/../../../../arm-atollic-eabi/lib/armv6-m\libc_nano.a(lib_a-nano-mallocr.o)
 .debug_frame   0x0000629c       0x9c c:/program files (x86)/atollic/truestudio for stm32 9.3.0/armtools/bin/../lib/gcc/arm-atollic-eabi/6.3.1/../../../../arm-atollic-eabi/lib/armv6-m\libc_nano.a(lib_a-nano-vfprintf.o)
 .debug_frame   0x00006338       0x54 c:/program files (x86)/atollic/truestudio for stm32 9.3.0/armtools/bin/../lib/gcc/arm-atollic-eabi/6.3.1/../../../../arm-atollic-eabi/lib/armv6-m\libc_nano.a(lib_a-nano-vfprintf_i.o)
 .debug_frame   0x0000638c       0x2c c:/program files (x86)/atollic/truestudio for stm32 9.3.0/armtools/bin/../lib/gcc/arm-atollic-eabi/6.3.1/../../../../arm-atollic-eabi/lib/armv6-m\libc_nano.a(lib_a-sbrkr.o)
 .debug_frame   0x000063b8       0x90 c:/program files (x86)/atollic/truestudio for stm32 9.3.0/armtools/bin/../lib/gcc/arm-atollic-eabi/6.3.1/../../../../arm-atollic-eabi/lib/armv6-m\libc_nano.a(lib_a-stdio.o)
 .debug_frame   0x00006448       0x48 c:/program files (x86)/atollic/truestudio for stm32 9.3.0/armtools/bin/../lib/gcc/arm-atollic-eabi/6.3.1/../../../../arm-atollic-eabi/lib/armv6-m\libc_nano.a(lib_a-wbuf.o)
 .debug_frame   0x00006490       0x2c c:/program files (x86)/atollic/truestudio for stm32 9.3.0/armtools/bin/../lib/gcc/arm-atollic-eabi/6.3.1/../../../../arm-atollic-eabi/lib/armv6-m\libc_nano.a(lib_a-writer.o)
 .debug_frame   0x000064bc       0x2c c:/program files (x86)/atollic/truestudio for stm32 9.3.0/armtools/bin/../lib/gcc/arm-atollic-eabi/6.3.1/../../../../arm-atollic-eabi/lib/armv6-m\libc_nano.a(lib_a-wsetup.o)
 .debug_frame   0x000064e8       0x2c c:/program files (x86)/atollic/truestudio for stm32 9.3.0/armtools/bin/../lib/gcc/arm-atollic-eabi/6.3.1/../../../../arm-atollic-eabi/lib/armv6-m\libc_nano.a(lib_a-closer.o)
 .debug_frame   0x00006514       0x68 c:/program files (x86)/atollic/truestudio for stm32 9.3.0/armtools/bin/../lib/gcc/arm-atollic-eabi/6.3.1/../../../../arm-atollic-eabi/lib/armv6-m\libc_nano.a(lib_a-fflush.o)
 .debug_frame   0x0000657c       0x2c c:/program files (x86)/atollic/truestudio for stm32 9.3.0/armtools/bin/../lib/gcc/arm-atollic-eabi/6.3.1/../../../../arm-atollic-eabi/lib/armv6-m\libc_nano.a(lib_a-lseekr.o)
 .debug_frame   0x000065a8       0x54 c:/program files (x86)/atollic/truestudio for stm32 9.3.0/armtools/bin/../lib/gcc/arm-atollic-eabi/6.3.1/../../../../arm-atollic-eabi/lib/armv6-m\libc_nano.a(lib_a-makebuf.o)
 .debug_frame   0x000065fc       0x20 c:/program files (x86)/atollic/truestudio for stm32 9.3.0/armtools/bin/../lib/gcc/arm-atollic-eabi/6.3.1/../../../../arm-atollic-eabi/lib/armv6-m\libc_nano.a(lib_a-memchr-stub.o)
 .debug_frame   0x0000661c       0x30 c:/program files (x86)/atollic/truestudio for stm32 9.3.0/armtools/bin/../lib/gcc/arm-atollic-eabi/6.3.1/../../../../arm-atollic-eabi/lib/armv6-m\libc_nano.a(lib_a-mlock.o)
 .debug_frame   0x0000664c       0x2c c:/program files (x86)/atollic/truestudio for stm32 9.3.0/armtools/bin/../lib/gcc/arm-atollic-eabi/6.3.1/../../../../arm-atollic-eabi/lib/armv6-m\libc_nano.a(lib_a-nano-freer.o)
 .debug_frame   0x00006678       0x2c c:/program files (x86)/atollic/truestudio for stm32 9.3.0/armtools/bin/../lib/gcc/arm-atollic-eabi/6.3.1/../../../../arm-atollic-eabi/lib/armv6-m\libc_nano.a(lib_a-readr.o)
 .debug_frame   0x000066a4       0x48 c:/program files (x86)/atollic/truestudio for stm32 9.3.0/armtools/bin/../lib/gcc/arm-atollic-eabi/6.3.1/../../../../arm-atollic-eabi/lib/armv6-m\libc_nano.a(lib_a-reent.o)
 .debug_frame   0x000066ec       0x2c c:/program files (x86)/atollic/truestudio for stm32 9.3.0/armtools/bin/../lib/gcc/arm-atollic-eabi/6.3.1/../../../../arm-atollic-eabi/lib/armv6-m\libc_nano.a(lib_a-fstatr.o)
 .debug_frame   0x00006718       0x2c c:/program files (x86)/atollic/truestudio for stm32 9.3.0/armtools/bin/../lib/gcc/arm-atollic-eabi/6.3.1/../../../../arm-atollic-eabi/lib/armv6-m\libc_nano.a(lib_a-isattyr.o)
 .debug_frame   0x00006744       0x20 c:/program files (x86)/atollic/truestudio for stm32 9.3.0/armtools/bin/../lib/gcc/arm-atollic-eabi/6.3.1/armv6-m\libgcc.a(_udivsi3.o)
 .debug_frame   0x00006764       0x20 c:/program files (x86)/atollic/truestudio for stm32 9.3.0/armtools/bin/../lib/gcc/arm-atollic-eabi/6.3.1/armv6-m\libgcc.a(_divsi3.o)
 .debug_frame   0x00006784       0x3c c:/program files (x86)/atollic/truestudio for stm32 9.3.0/armtools/bin/../lib/gcc/arm-atollic-eabi/6.3.1/armv6-m\libgcc.a(adddf3.o)
 .debug_frame   0x000067c0       0x38 c:/program files (x86)/atollic/truestudio for stm32 9.3.0/armtools/bin/../lib/gcc/arm-atollic-eabi/6.3.1/armv6-m\libgcc.a(eqdf2.o)
 .debug_frame   0x000067f8       0x38 c:/program files (x86)/atollic/truestudio for stm32 9.3.0/armtools/bin/../lib/gcc/arm-atollic-eabi/6.3.1/armv6-m\libgcc.a(gedf2.o)
 .debug_frame   0x00006830       0x38 c:/program files (x86)/atollic/truestudio for stm32 9.3.0/armtools/bin/../lib/gcc/arm-atollic-eabi/6.3.1/armv6-m\libgcc.a(ledf2.o)
 .debug_frame   0x00006868       0x2c c:/program files (x86)/atollic/truestudio for stm32 9.3.0/armtools/bin/../lib/gcc/arm-atollic-eabi/6.3.1/armv6-m\libgcc.a(fixdfsi.o)
