Archive member included to satisfy reference by file (symbol)

c:/program files (x86)/atollic/truestudio for stm32 9.3.0/armtools/bin/../lib/gcc/arm-atollic-eabi/6.3.1/../../../../arm-atollic-eabi/lib/armv6-m\libc_nano.a(lib_a-errno.o)
                              Core\Src\syscalls.o (__errno)
c:/program files (x86)/atollic/truestudio for stm32 9.3.0/armtools/bin/../lib/gcc/arm-atollic-eabi/6.3.1/../../../../arm-atollic-eabi/lib/armv6-m\libc_nano.a(lib_a-impure.o)
                              c:/program files (x86)/atollic/truestudio for stm32 9.3.0/armtools/bin/../lib/gcc/arm-atollic-eabi/6.3.1/../../../../arm-atollic-eabi/lib/armv6-m\libc_nano.a(lib_a-errno.o) (_impure_ptr)
c:/program files (x86)/atollic/truestudio for stm32 9.3.0/armtools/bin/../lib/gcc/arm-atollic-eabi/6.3.1/../../../../arm-atollic-eabi/lib/armv6-m\libc_nano.a(lib_a-init.o)
                              startup\startup_stm32f072xb.o (__libc_init_array)
c:/program files (x86)/atollic/truestudio for stm32 9.3.0/armtools/bin/../lib/gcc/arm-atollic-eabi/6.3.1/../../../../arm-atollic-eabi/lib/armv6-m\libc_nano.a(lib_a-malloc.o)
                              Core\Src\shiftreg_lib.o (malloc)
c:/program files (x86)/atollic/truestudio for stm32 9.3.0/armtools/bin/../lib/gcc/arm-atollic-eabi/6.3.1/../../../../arm-atollic-eabi/lib/armv6-m\libc_nano.a(lib_a-memcpy-stub.o)
                              Core\Src\main.o (memcpy)
c:/program files (x86)/atollic/truestudio for stm32 9.3.0/armtools/bin/../lib/gcc/arm-atollic-eabi/6.3.1/../../../../arm-atollic-eabi/lib/armv6-m\libc_nano.a(lib_a-memset.o)
                              Core\Src\adc.o (memset)
c:/program files (x86)/atollic/truestudio for stm32 9.3.0/armtools/bin/../lib/gcc/arm-atollic-eabi/6.3.1/../../../../arm-atollic-eabi/lib/armv6-m\libc_nano.a(lib_a-nano-freer.o)
                              c:/program files (x86)/atollic/truestudio for stm32 9.3.0/armtools/bin/../lib/gcc/arm-atollic-eabi/6.3.1/../../../../arm-atollic-eabi/lib/armv6-m\libc_nano.a(lib_a-malloc.o) (_free_r)
c:/program files (x86)/atollic/truestudio for stm32 9.3.0/armtools/bin/../lib/gcc/arm-atollic-eabi/6.3.1/../../../../arm-atollic-eabi/lib/armv6-m\libc_nano.a(lib_a-nano-mallocr.o)
                              c:/program files (x86)/atollic/truestudio for stm32 9.3.0/armtools/bin/../lib/gcc/arm-atollic-eabi/6.3.1/../../../../arm-atollic-eabi/lib/armv6-m\libc_nano.a(lib_a-malloc.o) (_malloc_r)
c:/program files (x86)/atollic/truestudio for stm32 9.3.0/armtools/bin/../lib/gcc/arm-atollic-eabi/6.3.1/../../../../arm-atollic-eabi/lib/armv6-m\libc_nano.a(lib_a-printf.o)
                              Core\Src\main.o (printf)
c:/program files (x86)/atollic/truestudio for stm32 9.3.0/armtools/bin/../lib/gcc/arm-atollic-eabi/6.3.1/../../../../arm-atollic-eabi/lib/armv6-m\libc_nano.a(lib_a-sbrkr.o)
                              c:/program files (x86)/atollic/truestudio for stm32 9.3.0/armtools/bin/../lib/gcc/arm-atollic-eabi/6.3.1/../../../../arm-atollic-eabi/lib/armv6-m\libc_nano.a(lib_a-nano-mallocr.o) (_sbrk_r)
c:/program files (x86)/atollic/truestudio for stm32 9.3.0/armtools/bin/../lib/gcc/arm-atollic-eabi/6.3.1/../../../../arm-atollic-eabi/lib/armv6-m\libc_nano.a(lib_a-strlen.o)
                              Core\Src\main.o (strlen)
c:/program files (x86)/atollic/truestudio for stm32 9.3.0/armtools/bin/../lib/gcc/arm-atollic-eabi/6.3.1/../../../../arm-atollic-eabi/lib/armv6-m\libc_nano.a(lib_a-findfp.o)
                              c:/program files (x86)/atollic/truestudio for stm32 9.3.0/armtools/bin/../lib/gcc/arm-atollic-eabi/6.3.1/../../../../arm-atollic-eabi/lib/armv6-m\libc_nano.a(lib_a-printf.o) (__sinit)
c:/program files (x86)/atollic/truestudio for stm32 9.3.0/armtools/bin/../lib/gcc/arm-atollic-eabi/6.3.1/../../../../arm-atollic-eabi/lib/armv6-m\libc_nano.a(lib_a-fwalk.o)
                              c:/program files (x86)/atollic/truestudio for stm32 9.3.0/armtools/bin/../lib/gcc/arm-atollic-eabi/6.3.1/../../../../arm-atollic-eabi/lib/armv6-m\libc_nano.a(lib_a-findfp.o) (_fwalk)
c:/program files (x86)/atollic/truestudio for stm32 9.3.0/armtools/bin/../lib/gcc/arm-atollic-eabi/6.3.1/../../../../arm-atollic-eabi/lib/armv6-m\libc_nano.a(lib_a-mlock.o)
                              c:/program files (x86)/atollic/truestudio for stm32 9.3.0/armtools/bin/../lib/gcc/arm-atollic-eabi/6.3.1/../../../../arm-atollic-eabi/lib/armv6-m\libc_nano.a(lib_a-nano-freer.o) (__malloc_lock)
c:/program files (x86)/atollic/truestudio for stm32 9.3.0/armtools/bin/../lib/gcc/arm-atollic-eabi/6.3.1/../../../../arm-atollic-eabi/lib/armv6-m\libc_nano.a(lib_a-nano-vfprintf.o)
                              c:/program files (x86)/atollic/truestudio for stm32 9.3.0/armtools/bin/../lib/gcc/arm-atollic-eabi/6.3.1/../../../../arm-atollic-eabi/lib/armv6-m\libc_nano.a(lib_a-printf.o) (_vfprintf_r)
c:/program files (x86)/atollic/truestudio for stm32 9.3.0/armtools/bin/../lib/gcc/arm-atollic-eabi/6.3.1/../../../../arm-atollic-eabi/lib/armv6-m\libc_nano.a(lib_a-nano-vfprintf_i.o)
                              c:/program files (x86)/atollic/truestudio for stm32 9.3.0/armtools/bin/../lib/gcc/arm-atollic-eabi/6.3.1/../../../../arm-atollic-eabi/lib/armv6-m\libc_nano.a(lib_a-nano-vfprintf.o) (_printf_i)
c:/program files (x86)/atollic/truestudio for stm32 9.3.0/armtools/bin/../lib/gcc/arm-atollic-eabi/6.3.1/../../../../arm-atollic-eabi/lib/armv6-m\libc_nano.a(lib_a-reent.o)
                              c:/program files (x86)/atollic/truestudio for stm32 9.3.0/armtools/bin/../lib/gcc/arm-atollic-eabi/6.3.1/../../../../arm-atollic-eabi/lib/armv6-m\libc_nano.a(lib_a-sbrkr.o) (errno)
c:/program files (x86)/atollic/truestudio for stm32 9.3.0/armtools/bin/../lib/gcc/arm-atollic-eabi/6.3.1/../../../../arm-atollic-eabi/lib/armv6-m\libc_nano.a(lib_a-stdio.o)
                              c:/program files (x86)/atollic/truestudio for stm32 9.3.0/armtools/bin/../lib/gcc/arm-atollic-eabi/6.3.1/../../../../arm-atollic-eabi/lib/armv6-m\libc_nano.a(lib_a-findfp.o) (__sread)
c:/program files (x86)/atollic/truestudio for stm32 9.3.0/armtools/bin/../lib/gcc/arm-atollic-eabi/6.3.1/../../../../arm-atollic-eabi/lib/armv6-m\libc_nano.a(lib_a-wbuf.o)
                              c:/program files (x86)/atollic/truestudio for stm32 9.3.0/armtools/bin/../lib/gcc/arm-atollic-eabi/6.3.1/../../../../arm-atollic-eabi/lib/armv6-m\libc_nano.a(lib_a-nano-vfprintf.o) (__swbuf_r)
c:/program files (x86)/atollic/truestudio for stm32 9.3.0/armtools/bin/../lib/gcc/arm-atollic-eabi/6.3.1/../../../../arm-atollic-eabi/lib/armv6-m\libc_nano.a(lib_a-writer.o)
                              c:/program files (x86)/atollic/truestudio for stm32 9.3.0/armtools/bin/../lib/gcc/arm-atollic-eabi/6.3.1/../../../../arm-atollic-eabi/lib/armv6-m\libc_nano.a(lib_a-stdio.o) (_write_r)
c:/program files (x86)/atollic/truestudio for stm32 9.3.0/armtools/bin/../lib/gcc/arm-atollic-eabi/6.3.1/../../../../arm-atollic-eabi/lib/armv6-m\libc_nano.a(lib_a-wsetup.o)
                              c:/program files (x86)/atollic/truestudio for stm32 9.3.0/armtools/bin/../lib/gcc/arm-atollic-eabi/6.3.1/../../../../arm-atollic-eabi/lib/armv6-m\libc_nano.a(lib_a-nano-vfprintf.o) (__swsetup_r)
c:/program files (x86)/atollic/truestudio for stm32 9.3.0/armtools/bin/../lib/gcc/arm-atollic-eabi/6.3.1/../../../../arm-atollic-eabi/lib/armv6-m\libc_nano.a(lib_a-closer.o)
                              c:/program files (x86)/atollic/truestudio for stm32 9.3.0/armtools/bin/../lib/gcc/arm-atollic-eabi/6.3.1/../../../../arm-atollic-eabi/lib/armv6-m\libc_nano.a(lib_a-stdio.o) (_close_r)
c:/program files (x86)/atollic/truestudio for stm32 9.3.0/armtools/bin/../lib/gcc/arm-atollic-eabi/6.3.1/../../../../arm-atollic-eabi/lib/armv6-m\libc_nano.a(lib_a-fflush.o)
                              c:/program files (x86)/atollic/truestudio for stm32 9.3.0/armtools/bin/../lib/gcc/arm-atollic-eabi/6.3.1/../../../../arm-atollic-eabi/lib/armv6-m\libc_nano.a(lib_a-findfp.o) (_fflush_r)
c:/program files (x86)/atollic/truestudio for stm32 9.3.0/armtools/bin/../lib/gcc/arm-atollic-eabi/6.3.1/../../../../arm-atollic-eabi/lib/armv6-m\libc_nano.a(lib_a-fvwrite.o)
                              c:/program files (x86)/atollic/truestudio for stm32 9.3.0/armtools/bin/../lib/gcc/arm-atollic-eabi/6.3.1/../../../../arm-atollic-eabi/lib/armv6-m\libc_nano.a(lib_a-nano-vfprintf.o) (__sfvwrite_r)
c:/program files (x86)/atollic/truestudio for stm32 9.3.0/armtools/bin/../lib/gcc/arm-atollic-eabi/6.3.1/../../../../arm-atollic-eabi/lib/armv6-m\libc_nano.a(lib_a-lseekr.o)
                              c:/program files (x86)/atollic/truestudio for stm32 9.3.0/armtools/bin/../lib/gcc/arm-atollic-eabi/6.3.1/../../../../arm-atollic-eabi/lib/armv6-m\libc_nano.a(lib_a-stdio.o) (_lseek_r)
c:/program files (x86)/atollic/truestudio for stm32 9.3.0/armtools/bin/../lib/gcc/arm-atollic-eabi/6.3.1/../../../../arm-atollic-eabi/lib/armv6-m\libc_nano.a(lib_a-makebuf.o)
                              c:/program files (x86)/atollic/truestudio for stm32 9.3.0/armtools/bin/../lib/gcc/arm-atollic-eabi/6.3.1/../../../../arm-atollic-eabi/lib/armv6-m\libc_nano.a(lib_a-wsetup.o) (__smakebuf_r)
c:/program files (x86)/atollic/truestudio for stm32 9.3.0/armtools/bin/../lib/gcc/arm-atollic-eabi/6.3.1/../../../../arm-atollic-eabi/lib/armv6-m\libc_nano.a(lib_a-memchr-stub.o)
                              c:/program files (x86)/atollic/truestudio for stm32 9.3.0/armtools/bin/../lib/gcc/arm-atollic-eabi/6.3.1/../../../../arm-atollic-eabi/lib/armv6-m\libc_nano.a(lib_a-nano-vfprintf.o) (memchr)
c:/program files (x86)/atollic/truestudio for stm32 9.3.0/armtools/bin/../lib/gcc/arm-atollic-eabi/6.3.1/../../../../arm-atollic-eabi/lib/armv6-m\libc_nano.a(lib_a-memmove.o)
                              c:/program files (x86)/atollic/truestudio for stm32 9.3.0/armtools/bin/../lib/gcc/arm-atollic-eabi/6.3.1/../../../../arm-atollic-eabi/lib/armv6-m\libc_nano.a(lib_a-fvwrite.o) (memmove)
c:/program files (x86)/atollic/truestudio for stm32 9.3.0/armtools/bin/../lib/gcc/arm-atollic-eabi/6.3.1/../../../../arm-atollic-eabi/lib/armv6-m\libc_nano.a(lib_a-nano-reallocr.o)
                              c:/program files (x86)/atollic/truestudio for stm32 9.3.0/armtools/bin/../lib/gcc/arm-atollic-eabi/6.3.1/../../../../arm-atollic-eabi/lib/armv6-m\libc_nano.a(lib_a-fvwrite.o) (_realloc_r)
c:/program files (x86)/atollic/truestudio for stm32 9.3.0/armtools/bin/../lib/gcc/arm-atollic-eabi/6.3.1/../../../../arm-atollic-eabi/lib/armv6-m\libc_nano.a(lib_a-readr.o)
                              c:/program files (x86)/atollic/truestudio for stm32 9.3.0/armtools/bin/../lib/gcc/arm-atollic-eabi/6.3.1/../../../../arm-atollic-eabi/lib/armv6-m\libc_nano.a(lib_a-stdio.o) (_read_r)
c:/program files (x86)/atollic/truestudio for stm32 9.3.0/armtools/bin/../lib/gcc/arm-atollic-eabi/6.3.1/../../../../arm-atollic-eabi/lib/armv6-m\libc_nano.a(lib_a-fstatr.o)
                              c:/program files (x86)/atollic/truestudio for stm32 9.3.0/armtools/bin/../lib/gcc/arm-atollic-eabi/6.3.1/../../../../arm-atollic-eabi/lib/armv6-m\libc_nano.a(lib_a-makebuf.o) (_fstat_r)
c:/program files (x86)/atollic/truestudio for stm32 9.3.0/armtools/bin/../lib/gcc/arm-atollic-eabi/6.3.1/../../../../arm-atollic-eabi/lib/armv6-m\libc_nano.a(lib_a-isattyr.o)
                              c:/program files (x86)/atollic/truestudio for stm32 9.3.0/armtools/bin/../lib/gcc/arm-atollic-eabi/6.3.1/../../../../arm-atollic-eabi/lib/armv6-m\libc_nano.a(lib_a-makebuf.o) (_isatty_r)
c:/program files (x86)/atollic/truestudio for stm32 9.3.0/armtools/bin/../lib/gcc/arm-atollic-eabi/6.3.1/../../../../arm-atollic-eabi/lib/armv6-m\libc_nano.a(lib_a-nano-msizer.o)
                              c:/program files (x86)/atollic/truestudio for stm32 9.3.0/armtools/bin/../lib/gcc/arm-atollic-eabi/6.3.1/../../../../arm-atollic-eabi/lib/armv6-m\libc_nano.a(lib_a-nano-reallocr.o) (_malloc_usable_size_r)
c:/program files (x86)/atollic/truestudio for stm32 9.3.0/armtools/bin/../lib/gcc/arm-atollic-eabi/6.3.1/armv6-m\libgcc.a(_udivsi3.o)
                              Core\Src\adc.o (__aeabi_uidiv)
c:/program files (x86)/atollic/truestudio for stm32 9.3.0/armtools/bin/../lib/gcc/arm-atollic-eabi/6.3.1/armv6-m\libgcc.a(_divsi3.o)
                              Core\Src\led_driver_PCA9685.o (__aeabi_idiv)
c:/program files (x86)/atollic/truestudio for stm32 9.3.0/armtools/bin/../lib/gcc/arm-atollic-eabi/6.3.1/armv6-m\libgcc.a(_dvmd_tls.o)
                              c:/program files (x86)/atollic/truestudio for stm32 9.3.0/armtools/bin/../lib/gcc/arm-atollic-eabi/6.3.1/armv6-m\libgcc.a(_udivsi3.o) (__aeabi_idiv0)
c:/program files (x86)/atollic/truestudio for stm32 9.3.0/armtools/bin/../lib/gcc/arm-atollic-eabi/6.3.1/armv6-m\libgcc.a(_arm_cmpdf2.o)
                              Core\Src\tim.o (__aeabi_dcmpgt)
c:/program files (x86)/atollic/truestudio for stm32 9.3.0/armtools/bin/../lib/gcc/arm-atollic-eabi/6.3.1/armv6-m\libgcc.a(_fixunssfsi.o)
                              Core\Src\led_driver_PCA9685.o (__aeabi_f2uiz)
c:/program files (x86)/atollic/truestudio for stm32 9.3.0/armtools/bin/../lib/gcc/arm-atollic-eabi/6.3.1/armv6-m\libgcc.a(addsf3.o)
                              Core\Src\led_driver_PCA9685.o (__aeabi_fadd)
c:/program files (x86)/atollic/truestudio for stm32 9.3.0/armtools/bin/../lib/gcc/arm-atollic-eabi/6.3.1/armv6-m\libgcc.a(divsf3.o)
                              Core\Src\led_driver_PCA9685.o (__aeabi_fdiv)
c:/program files (x86)/atollic/truestudio for stm32 9.3.0/armtools/bin/../lib/gcc/arm-atollic-eabi/6.3.1/armv6-m\libgcc.a(subsf3.o)
                              Core\Src\led_driver_PCA9685.o (__aeabi_fsub)
c:/program files (x86)/atollic/truestudio for stm32 9.3.0/armtools/bin/../lib/gcc/arm-atollic-eabi/6.3.1/armv6-m\libgcc.a(fixsfsi.o)
                              c:/program files (x86)/atollic/truestudio for stm32 9.3.0/armtools/bin/../lib/gcc/arm-atollic-eabi/6.3.1/armv6-m\libgcc.a(_fixunssfsi.o) (__aeabi_f2iz)
c:/program files (x86)/atollic/truestudio for stm32 9.3.0/armtools/bin/../lib/gcc/arm-atollic-eabi/6.3.1/armv6-m\libgcc.a(adddf3.o)
                              Core\Src\tim.o (__aeabi_dadd)
c:/program files (x86)/atollic/truestudio for stm32 9.3.0/armtools/bin/../lib/gcc/arm-atollic-eabi/6.3.1/armv6-m\libgcc.a(eqdf2.o)
                              c:/program files (x86)/atollic/truestudio for stm32 9.3.0/armtools/bin/../lib/gcc/arm-atollic-eabi/6.3.1/armv6-m\libgcc.a(_arm_cmpdf2.o) (__eqdf2)
c:/program files (x86)/atollic/truestudio for stm32 9.3.0/armtools/bin/../lib/gcc/arm-atollic-eabi/6.3.1/armv6-m\libgcc.a(gedf2.o)
                              c:/program files (x86)/atollic/truestudio for stm32 9.3.0/armtools/bin/../lib/gcc/arm-atollic-eabi/6.3.1/armv6-m\libgcc.a(_arm_cmpdf2.o) (__gedf2)
c:/program files (x86)/atollic/truestudio for stm32 9.3.0/armtools/bin/../lib/gcc/arm-atollic-eabi/6.3.1/armv6-m\libgcc.a(ledf2.o)
                              c:/program files (x86)/atollic/truestudio for stm32 9.3.0/armtools/bin/../lib/gcc/arm-atollic-eabi/6.3.1/armv6-m\libgcc.a(_arm_cmpdf2.o) (__ledf2)
c:/program files (x86)/atollic/truestudio for stm32 9.3.0/armtools/bin/../lib/gcc/arm-atollic-eabi/6.3.1/armv6-m\libgcc.a(muldf3.o)
                              Core\Src\led_driver_PCA9685.o (__aeabi_dmul)
c:/program files (x86)/atollic/truestudio for stm32 9.3.0/armtools/bin/../lib/gcc/arm-atollic-eabi/6.3.1/armv6-m\libgcc.a(fixdfsi.o)
                              Core\Src\tim.o (__aeabi_d2iz)
c:/program files (x86)/atollic/truestudio for stm32 9.3.0/armtools/bin/../lib/gcc/arm-atollic-eabi/6.3.1/armv6-m\libgcc.a(extendsfdf2.o)
                              Core\Src\led_driver_PCA9685.o (__aeabi_f2d)
c:/program files (x86)/atollic/truestudio for stm32 9.3.0/armtools/bin/../lib/gcc/arm-atollic-eabi/6.3.1/armv6-m\libgcc.a(truncdfsf2.o)
                              Core\Src\led_driver_PCA9685.o (__aeabi_d2f)
c:/program files (x86)/atollic/truestudio for stm32 9.3.0/armtools/bin/../lib/gcc/arm-atollic-eabi/6.3.1/armv6-m\libgcc.a(_arm_cmpsf2.o)
                              c:/program files (x86)/atollic/truestudio for stm32 9.3.0/armtools/bin/../lib/gcc/arm-atollic-eabi/6.3.1/armv6-m\libgcc.a(_fixunssfsi.o) (__aeabi_fcmpge)
c:/program files (x86)/atollic/truestudio for stm32 9.3.0/armtools/bin/../lib/gcc/arm-atollic-eabi/6.3.1/armv6-m\libgcc.a(_clzsi2.o)
                              c:/program files (x86)/atollic/truestudio for stm32 9.3.0/armtools/bin/../lib/gcc/arm-atollic-eabi/6.3.1/armv6-m\libgcc.a(addsf3.o) (__clzsi2)
c:/program files (x86)/atollic/truestudio for stm32 9.3.0/armtools/bin/../lib/gcc/arm-atollic-eabi/6.3.1/armv6-m\libgcc.a(eqsf2.o)
                              c:/program files (x86)/atollic/truestudio for stm32 9.3.0/armtools/bin/../lib/gcc/arm-atollic-eabi/6.3.1/armv6-m\libgcc.a(_arm_cmpsf2.o) (__eqsf2)
c:/program files (x86)/atollic/truestudio for stm32 9.3.0/armtools/bin/../lib/gcc/arm-atollic-eabi/6.3.1/armv6-m\libgcc.a(gesf2.o)
                              c:/program files (x86)/atollic/truestudio for stm32 9.3.0/armtools/bin/../lib/gcc/arm-atollic-eabi/6.3.1/armv6-m\libgcc.a(_arm_cmpsf2.o) (__gesf2)
c:/program files (x86)/atollic/truestudio for stm32 9.3.0/armtools/bin/../lib/gcc/arm-atollic-eabi/6.3.1/armv6-m\libgcc.a(lesf2.o)
                              c:/program files (x86)/atollic/truestudio for stm32 9.3.0/armtools/bin/../lib/gcc/arm-atollic-eabi/6.3.1/armv6-m\libgcc.a(_arm_cmpsf2.o) (__lesf2)

Allocating common symbols
Common symbol       size              file

enc_rotation_read   0x1               Core\Src\main.o
led_to_change       0x1               Core\Src\Modbus_DMA\mdb.o
hUsbDeviceFS        0x2c4             USB_DEVICE\App\usb_device.o
sw_debounce1_counter
                    0x18              Core\Src\Modbus_DMA\mdb.o
longpress_time_ms   0x2               Core\Src\Modbus_DMA\mdb.o
duty_blue           0x1               Core\Src\Modbus_DMA\mdb.o
hdma_usart2_rx      0x44              Core\Src\usart.o
hspi2               0x64              Core\Src\spi.o
display_refresh_event
                    0x1               Core\Src\Modbus_DMA\mdb.o
msg_disp16          0x10              Core\Src\Modbus_DMA\mdb.o
test_visel          0x2b              Core\Src\Modbus_DMA\mdb.o
keys_visel          0x5               Core\Src\Modbus_DMA\mdb.o
opera_keyboard_conf
                    0x2               Core\Src\Modbus_DMA\mdb.o
errno               0x4               c:/program files (x86)/atollic/truestudio for stm32 9.3.0/armtools/bin/../lib/gcc/arm-atollic-eabi/6.3.1/../../../../arm-atollic-eabi/lib/armv6-m\libc_nano.a(lib_a-reent.o)
keyboard_short      0x2               Core\Src\Modbus_DMA\mdb.o
adr_modbus_reg      0x2               Core\Src\Modbus_DMA\mdb.o
sys_time_flag       0x1               Core\Src\Modbus_DMA\mdb.o
hi2c1               0x4c              Core\Src\i2c.o
hiwdg               0x10              Core\Src\iwdg.o
htim17              0x40              Core\Src\tim.o
display_refresh_start_event
                    0x1               Core\Src\Modbus_DMA\mdb.o
main_clock          0x28              Core\Src\Modbus_DMA\mdb.o
PCA9585_i2caddr     0x1               Core\Src\Modbus_DMA\mdb.o
uwTick              0x4               Drivers\STM32F0xx_HAL_Driver\Src\stm32f0xx_hal.o
led_RGB             0x30              Core\Src\Modbus_DMA\mdb.o
last_recv_mdb_time  0x4               Core\Src\Modbus_DMA\mdb.o
keyboard_1click     0x2               Core\Src\Modbus_DMA\mdb.o
new_key_pressed     0x1               Core\Src\main.o
click_double_press_time
                    0x4               Core\Src\Modbus_DMA\mdb.o
pFlash              0x20              Drivers\STM32F0xx_HAL_Driver\Src\stm32f0xx_hal_flash.o
pos_led_strip       0x1               Core\Src\Modbus_DMA\mdb.o
DP_SW_RS485_adr     0x1               Core\Src\Modbus_DMA\mdb.o
timeout_mdb_no_msg  0x4               Core\Src\Modbus_DMA\mdb.o
new_data_rx         0x1               Core\Src\Modbus_DMA\mdb.o
duty_red            0x1               Core\Src\Modbus_DMA\mdb.o
_SFEbarGraphLatchPin
                    0x1               Core\Src\shiftreg_lib.o
sw_debounce2_counter
                    0x18              Core\Src\Modbus_DMA\mdb.o
long_press_time     0x4               Core\Src\Modbus_DMA\mdb.o
sw_debounce3_counter
                    0x18              Core\Src\Modbus_DMA\mdb.o
switches_bitmap_deb3
                    0x2               Core\Src\Modbus_DMA\mdb.o
hdma_usart1_rx      0x44              Core\Src\usart.o
_SFEbarGraphNumBoards
                    0x1               Core\Src\shiftreg_lib.o
huart1              0x80              Core\Src\usart.o
switches_bitmap_deb2
                    0x2               Core\Src\Modbus_DMA\mdb.o
RS485_RX_to_parse   0x18              Core\Src\uart_dma_process.o
keyboard_dose       0x2               Core\Src\Modbus_DMA\mdb.o
buffer_RX_RS232     0xa               Core\Src\Modbus_DMA\mdb.o
messaggio           0x14              Core\Src\Modbus_DMA\mdb.o
time_refresh_led    0x4               Core\Src\Modbus_DMA\mdb.o
PCA9685_invert      0x1               Core\Src\Modbus_DMA\mdb.o
htim6               0x40              Core\Src\tim.o
parameter_to_read   0x1               Core\Src\Modbus_DMA\mdb.o
htim1               0x40              Core\Src\stm32f0xx_hal_timebase_tim.o
_SFEbarGraphCanvas  0x4               Core\Src\shiftreg_lib.o
buffer_TX_RS232     0xa               Core\Src\Modbus_DMA\mdb.o
hdma_i2c1_rx        0x44              Core\Src\i2c.o
interclik_time_ms   0x2               Core\Src\Modbus_DMA\mdb.o
keyboard_2click     0x2               Core\Src\Modbus_DMA\mdb.o
wait_reply          0x1               Core\Src\Modbus_DMA\mdb.o
opera_state         0x1               Core\Src\Modbus_DMA\mdb.o
duty_green          0x1               Core\Src\Modbus_DMA\mdb.o
change_state        0x1               Core\Src\Modbus_DMA\mdb.o
TOGGLE_PIN_LED      0x1               Core\Src\Modbus_DMA\mdb.o
huart2              0x80              Core\Src\usart.o
htim14              0x40              Core\Src\tim.o
char_disp_17seg     0x1               Core\Src\Modbus_DMA\mdb.o
sw_deb_release_cnt  0x18              Core\Src\Modbus_DMA\mdb.o
PCA9685_prescale    0x1               Core\Src\Modbus_DMA\mdb.o
hpcd_USB_FS         0x274             USB_DEVICE\Target\usbd_conf.o
switches_bitmap_deb1
                    0x2               Core\Src\Modbus_DMA\mdb.o
switches_bitmap_actual
                    0x2               Core\Src\Modbus_DMA\mdb.o
keyboard_raw        0x2               Core\Src\Modbus_DMA\mdb.o
short_press_time    0x4               Core\Src\Modbus_DMA\mdb.o
version_fw          0x4               Core\Src\Modbus_DMA\mdb.o
keyboard_long       0x2               Core\Src\Modbus_DMA\mdb.o
hadc                0x40              Core\Src\adc.o
USBD_StrDesc        0x200             USB_DEVICE\App\usbd_desc.o
htim16              0x40              Core\Src\tim.o
htim7               0x40              Core\Src\tim.o
current_sense_key   0x18              Core\Src\Modbus_DMA\mdb.o
RGB_color_start     0xc               Core\Src\Modbus_DMA\mdb.o
dmaControlMdb       0x238             Core\Src\Modbus_DMA\mdb_com.o
read_keyboard_event
                    0x1               Core\Src\Modbus_DMA\mdb.o
char_rx_to_display  0x1               Core\Src\Modbus_DMA\mdb.o
RGB_Transition      0x1               Core\Src\Modbus_DMA\mdb.o
PCA9685_delay_event
                    0x1               Core\Src\Modbus_DMA\mdb.o

Discarded input sections

 .text          0x00000000        0x0 c:/program files (x86)/atollic/truestudio for stm32 9.3.0/armtools/bin/../lib/gcc/arm-atollic-eabi/6.3.1/armv6-m/crti.o
 .data          0x00000000        0x0 c:/program files (x86)/atollic/truestudio for stm32 9.3.0/armtools/bin/../lib/gcc/arm-atollic-eabi/6.3.1/armv6-m/crti.o
 .bss           0x00000000        0x0 c:/program files (x86)/atollic/truestudio for stm32 9.3.0/armtools/bin/../lib/gcc/arm-atollic-eabi/6.3.1/armv6-m/crti.o
 .data          0x00000000        0x4 c:/program files (x86)/atollic/truestudio for stm32 9.3.0/armtools/bin/../lib/gcc/arm-atollic-eabi/6.3.1/armv6-m/crtbegin.o
 .text          0x00000000        0x0 Core\Src\Modbus_DMA\mdb.o
 .data          0x00000000        0x0 Core\Src\Modbus_DMA\mdb.o
 .bss           0x00000000        0x0 Core\Src\Modbus_DMA\mdb.o
 .bss.mdb_slave_addr
                0x00000000        0x1 Core\Src\Modbus_DMA\mdb.o
 .text.mdb_receive_message
                0x00000000       0xe0 Core\Src\Modbus_DMA\mdb.o
 .rodata.mdb_receive_message
                0x00000000       0x44 Core\Src\Modbus_DMA\mdb.o
 .text.reply_error
                0x00000000       0x44 Core\Src\Modbus_DMA\mdb.o
 .text.reply_echo
                0x00000000       0x4a Core\Src\Modbus_DMA\mdb.o
 .text.read_bits
Memory Configuration

Name             Origin             Length             Attributes
RAM              0x20000000         0x00004000         xrw
FLASH            0x08000000         0x00020000         xr
*default*        0x00000000         0xffffffff

Linker script and memory map

LOAD c:/program files (x86)/atollic/truestudio for stm32 9.3.0/armtools/bin/../lib/gcc/arm-atollic-eabi/6.3.1/armv6-m/crti.o
LOAD c:/program files (x86)/atollic/truestudio for stm32 9.3.0/armtools/bin/../lib/gcc/arm-atollic-eabi/6.3.1/armv6-m/crtbegin.o
LOAD Core\Src\Modbus_DMA\mdb.o
LOAD Core\Src\Modbus_DMA\mdb_com.o
LOAD Core\Src\Modbus_DMA\mdb_registers.o
LOAD Core\Src\adc.o
LOAD Core\Src\display_16segments.o
LOAD Core\Src\dma.o
LOAD Core\Src\gpio.o
LOAD Core\Src\i2c.o
LOAD Core\Src\input_keyboard.o
LOAD Core\Src\iwdg.o
LOAD Core\Src\led_driver_PCA9685.o
LOAD Core\Src\main.o
LOAD Core\Src\shiftreg_lib.o
LOAD Core\Src\spi.o
LOAD Core\Src\stm32f0xx_hal_msp.o
LOAD Core\Src\stm32f0xx_hal_timebase_tim.o
LOAD Core\Src\stm32f0xx_it.o
LOAD Core\Src\syscalls.o
LOAD Core\Src\system_stm32f0xx.o
LOAD Core\Src\tim.o
LOAD Core\Src\uart_dma_process.o
LOAD Core\Src\usart.o
LOAD Drivers\STM32F0xx_HAL_Driver\Src\stm32f0xx_hal.o
LOAD Drivers\STM32F0xx_HAL_Driver\Src\stm32f0xx_hal_adc.o
LOAD Drivers\STM32F0xx_HAL_Driver\Src\stm32f0xx_hal_adc_ex.o
LOAD Drivers\STM32F0xx_HAL_Driver\Src\stm32f0xx_hal_cortex.o
LOAD Drivers\STM32F0xx_HAL_Driver\Src\stm32f0xx_hal_dma.o
LOAD Drivers\STM32F0xx_HAL_Driver\Src\stm32f0xx_hal_exti.o
LOAD Drivers\STM32F0xx_HAL_Driver\Src\stm32f0xx_hal_flash.o
LOAD Drivers\STM32F0xx_HAL_Driver\Src\stm32f0xx_hal_flash_ex.o
LOAD Drivers\STM32F0xx_HAL_Driver\Src\stm32f0xx_hal_gpio.o
LOAD Drivers\STM32F0xx_HAL_Driver\Src\stm32f0xx_hal_i2c.o
LOAD Drivers\STM32F0xx_HAL_Driver\Src\stm32f0xx_hal_i2c_ex.o
LOAD Drivers\STM32F0xx_HAL_Driver\Src\stm32f0xx_hal_iwdg.o
LOAD Drivers\STM32F0xx_HAL_Driver\Src\stm32f0xx_hal_pcd.o
LOAD Drivers\STM32F0xx_HAL_Driver\Src\stm32f0xx_hal_pcd_ex.o
LOAD Drivers\STM32F0xx_HAL_Driver\Src\stm32f0xx_hal_pwr.o
LOAD Drivers\STM32F0xx_HAL_Driver\Src\stm32f0xx_hal_pwr_ex.o
LOAD Drivers\STM32F0xx_HAL_Driver\Src\stm32f0xx_hal_rcc.o
LOAD Drivers\STM32F0xx_HAL_Driver\Src\stm32f0xx_hal_rcc_ex.o
LOAD Drivers\STM32F0xx_HAL_Driver\Src\stm32f0xx_hal_spi.o
LOAD Drivers\STM32F0xx_HAL_Driver\Src\stm32f0xx_hal_spi_ex.o
LOAD Drivers\STM32F0xx_HAL_Driver\Src\stm32f0xx_hal_tim.o
LOAD Drivers\STM32F0xx_HAL_Driver\Src\stm32f0xx_hal_tim_ex.o
LOAD Drivers\STM32F0xx_HAL_Driver\Src\stm32f0xx_hal_uart.o
LOAD Drivers\STM32F0xx_HAL_Driver\Src\stm32f0xx_hal_uart_ex.o
LOAD Drivers\STM32F0xx_HAL_Driver\Src\stm32f0xx_ll_usb.o
LOAD Middlewares\ST\STM32_USB_Device_Library\Class\MSC\Src\usbd_msc.o
LOAD Middlewares\ST\STM32_USB_Device_Library\Class\MSC\Src\usbd_msc_bot.o
LOAD Middlewares\ST\STM32_USB_Device_Library\Class\MSC\Src\usbd_msc_data.o
LOAD Middlewares\ST\STM32_USB_Device_Library\Class\MSC\Src\usbd_msc_scsi.o
LOAD Middlewares\ST\STM32_USB_Device_Library\Core\Src\usbd_core.o
LOAD Middlewares\ST\STM32_USB_Device_Library\Core\Src\usbd_ctlreq.o
LOAD Middlewares\ST\STM32_USB_Device_Library\Core\Src\usbd_ioreq.o
LOAD USB_DEVICE\App\usb_device.o
LOAD USB_DEVICE\App\usbd_desc.o
LOAD USB_DEVICE\App\usbd_storage_if.o
LOAD USB_DEVICE\Target\usbd_conf.o
LOAD startup\startup_stm32f072xb.o
                0x00000080                malloc_getpagesize_P = 0x80
START GROUP
LOAD c:/program files (x86)/atollic/truestudio for stm32 9.3.0/armtools/bin/../lib/gcc/arm-atollic-eabi/6.3.1/../../../../arm-atollic-eabi/lib/armv6-m\libc_nano.a
LOAD c:/program files (x86)/atollic/truestudio for stm32 9.3.0/armtools/bin/../lib/gcc/arm-atollic-eabi/6.3.1/../../../../arm-atollic-eabi/lib/armv6-m\libm.a
END GROUP
START GROUP
LOAD c:/program files (x86)/atollic/truestudio for stm32 9.3.0/armtools/bin/../lib/gcc/arm-atollic-eabi/6.3.1/armv6-m\libgcc.a
LOAD c:/program files (x86)/atollic/truestudio for stm32 9.3.0/armtools/bin/../lib/gcc/arm-atollic-eabi/6.3.1/../../../../arm-atollic-eabi/lib/armv6-m\libc_nano.a
END GROUP
START GROUP
LOAD c:/program files (x86)/atollic/truestudio for stm32 9.3.0/armtools/bin/../lib/gcc/arm-atollic-eabi/6.3.1/armv6-m\libgcc.a
LOAD c:/program files (x86)/atollic/truestudio for stm32 9.3.0/armtools/bin/../lib/gcc/arm-atollic-eabi/6.3.1/../../../../arm-atollic-eabi/lib/armv6-m\libc_nano.a
LOAD c:/program files (x86)/atollic/truestudio for stm32 9.3.0/armtools/bin/../lib/gcc/arm-atollic-eabi/6.3.1/../../../../arm-atollic-eabi/lib/armv6-m\libnosys.a
END GROUP
START GROUP
LOAD c:/program files (x86)/atollic/truestudio for stm32 9.3.0/armtools/bin/../lib/gcc/arm-atollic-eabi/6.3.1/armv6-m\libgcc.a
LOAD c:/program files (x86)/atollic/truestudio for stm32 9.3.0/armtools/bin/../lib/gcc/arm-atollic-eabi/6.3.1/../../../../arm-atollic-eabi/lib/armv6-m\libc_nano.a
LOAD c:/program files (x86)/atollic/truestudio for stm32 9.3.0/armtools/bin/../lib/gcc/arm-atollic-eabi/6.3.1/../../../../arm-atollic-eabi/lib/armv6-m\libnosys.a
END GROUP
LOAD c:/program files (x86)/atollic/truestudio for stm32 9.3.0/armtools/bin/../lib/gcc/arm-atollic-eabi/6.3.1/armv6-m/crtend.o
LOAD c:/program files (x86)/atollic/truestudio for stm32 9.3.0/armtools/bin/../lib/gcc/arm-atollic-eabi/6.3.1/armv6-m/crtn.o
                0x20004000                _estack = 0x20004000
                0x00000200                _Min_Heap_Size = 0x200
                0x00000400                _Min_Stack_Size = 0x400

.isr_vector     0x08000000       0xc0
                0x08000000                . = ALIGN (0x4)
 *(.isr_vector)
 .isr_vector    0x08000000       0xc0 startup\startup_stm32f072xb.o
                0x08000000                g_pfnVectors
                0x080000c0                . = ALIGN (0x4)

.text           0x080000c0     0xef5c
                0x080000c0                . = ALIGN (0x4)
 *(.text)
 .text          0x080000c0       0x48 c:/program files (x86)/atollic/truestudio for stm32 9.3.0/armtools/bin/../lib/gcc/arm-atollic-eabi/6.3.1/armv6-m/crtbegin.o
 .text          0x08000108        0xe c:/program files (x86)/atollic/truestudio for stm32 9.3.0/armtools/bin/../lib/gcc/arm-atollic-eabi/6.3.1/../../../../arm-atollic-eabi/lib/armv6-m\libc_nano.a(lib_a-strlen.o)
                0x08000108                strlen
 *fill*         0x08000116        0x2 
 .text          0x08000118      0x114 c:/program files (x86)/atollic/truestudio for stm32 9.3.0/armtools/bin/../lib/gcc/arm-atollic-eabi/6.3.1/armv6-m\libgcc.a(_udivsi3.o)
                0x08000118                __aeabi_uidiv
                0x08000118                __udivsi3
                0x08000224                __aeabi_uidivmod
 .text          0x0800022c      0x1d4 c:/program files (x86)/atollic/truestudio for stm32 9.3.0/armtools/bin/../lib/gcc/arm-atollic-eabi/6.3.1/armv6-m\libgcc.a(_divsi3.o)
                0x0800022c                __divsi3
                0x0800022c                __aeabi_idiv
                0x080003f8                __aeabi_idivmod
 .text          0x08000400        0x4 c:/program files (x86)/atollic/truestudio for stm32 9.3.0/armtools/bin/../lib/gcc/arm-atollic-eabi/6.3.1/armv6-m\libgcc.a(_dvmd_tls.o)
                0x08000400                __aeabi_idiv0
                0x08000400                __aeabi_ldiv0
 .text          0x08000404       0x7c c:/program files (x86)/atollic/truestudio for stm32 9.3.0/armtools/bin/../lib/gcc/arm-atollic-eabi/6.3.1/armv6-m\libgcc.a(_arm_cmpdf2.o)
                0x08000404                __aeabi_cdrcmple
                0x08000414                __aeabi_cdcmple
                0x08000414                __aeabi_cdcmpeq
                0x08000424                __aeabi_dcmpeq
                0x08000430                __aeabi_dcmplt
                0x08000444                __aeabi_dcmple
                0x08000458                __aeabi_dcmpgt
                0x0800046c                __aeabi_dcmpge
 .text          0x08000480      0x620 c:/program files (x86)/atollic/truestudio for stm32 9.3.0/armtools/bin/../lib/gcc/arm-atollic-eabi/6.3.1/armv6-m\libgcc.a(adddf3.o)
                0x08000480                __aeabi_dadd
 .text          0x08000aa0       0x74 c:/program files (x86)/atollic/truestudio for stm32 9.3.0/armtools/bin/../lib/gcc/arm-atollic-eabi/6.3.1/armv6-m\libgcc.a(eqdf2.o)
                0x08000aa0                __nedf2
                0x08000aa0                __eqdf2
 .text          0x08000b14       0xc8 c:/program files (x86)/atollic/truestudio for stm32 9.3.0/armtools/bin/../lib/gcc/arm-atollic-eabi/6.3.1/armv6-m\libgcc.a(gedf2.o)
                0x08000b14                __gedf2
                0x08000b14                __gtdf2
 .text          0x08000bdc       0xc4 c:/program files (x86)/atollic/truestudio for stm32 9.3.0/armtools/bin/../lib/gcc/arm-atollic-eabi/6.3.1/armv6-m\libgcc.a(ledf2.o)
                0x08000bdc                __ledf2
                0x08000bdc                __ltdf2
 .text          0x08000ca0       0x68 c:/program files (x86)/atollic/truestudio for stm32 9.3.0/armtools/bin/../lib/gcc/arm-atollic-eabi/6.3.1/armv6-m\libgcc.a(fixdfsi.o)
                0x08000ca0                __aeabi_d2iz
 .text          0x08000d08       0x3c c:/program files (x86)/atollic/truestudio for stm32 9.3.0/armtools/bin/../lib/gcc/arm-atollic-eabi/6.3.1/armv6-m\libgcc.a(_clzsi2.o)
                0x08000d08                __clzsi2
 *(.text*)
 .text.MX_ADC_Init
                0x08000d44       0xb8 Core\Src\adc.o
                0x08000d44                MX_ADC_Init
 .text.HAL_ADC_MspInit
                0x08000dfc       0xb4 Core\Src\adc.o
                0x08000dfc                HAL_ADC_MspInit
 .text.ADC_threshold
                0x08000eb0       0xd4 Core\Src\adc.o
                0x08000eb0                ADC_threshold
 .text.ADC_compare
                0x08000f84       0xb4 Core\Src\adc.o
                0x08000f84                ADC_compare
 .text.Display16Seg_All_Single
                0x08001038      0x2dc Core\Src\display_16segments.o
                0x08001038                Display16Seg_All_Single
 .text.Display16Seg_Char
                0x08001314      0x164 Core\Src\display_16segments.o
                0x08001314                Display16Seg_Char
 .text.Display16Seg_Num
                0x08001478      0x15c Core\Src\display_16segments.o
                0x08001478                Display16Seg_Num
 .text.Display16Seg_Msg
                0x080015d4       0x74 Core\Src\display_16segments.o
                0x080015d4                Display16Seg_Msg
 .text.Display16Seg_design
                0x08001648       0x70 Core\Src\display_16segments.o
                0x08001648                Display16Seg_design
 .text.MX_DMA_Init
                0x080016b8       0x2c Core\Src\dma.o
                0x080016b8                MX_DMA_Init
 .text.MX_GPIO_Init
                0x080016e4      0x248 Core\Src\gpio.o
                0x080016e4                MX_GPIO_Init
 .text.MX_I2C1_Init
                0x0800192c       0x80 Core\Src\i2c.o
                0x0800192c                MX_I2C1_Init
 .text.HAL_I2C_MspInit
                0x080019ac      0x10c Core\Src\i2c.o
                0x080019ac                HAL_I2C_MspInit
 .text.init_input_reayboard
                0x08001ab8       0xf0 Core\Src\input_keyboard.o
                0x08001ab8                init_input_reayboard
 .text.read_input_keyboard
                0x08001ba8      0x44c Core\Src\input_keyboard.o
                0x08001ba8                read_input_keyboard
 .text.scan_read_Visel
                0x08001ff4       0xbc Core\Src\input_keyboard.o
                0x08001ff4                scan_read_Visel
 .text.scan_if_pressed_Visel
                0x080020b0       0xb8 Core\Src\input_keyboard.o
                0x080020b0                scan_if_pressed_Visel
 .text.clear_test_Visel
                0x08002168       0x50 Core\Src\input_keyboard.o
                0x08002168                clear_test_Visel
 .text.MX_IWDG_Init
                0x080021b8       0x40 Core\Src\iwdg.o
                0x080021b8                MX_IWDG_Init
 .text.PCA9685_setPWM
                0x080021f8      0x18c Core\Src\led_driver_PCA9685.o
                0x080021f8                PCA9685_setPWM
 .text.PCA9685_setColorLed
                0x08002384      0x108 Core\Src\led_driver_PCA9685.o
                0x08002384                PCA9685_setColorLed
 .text.PCA9685_setDutyLed
                0x0800248c       0xec Core\Src\led_driver_PCA9685.o
                0x0800248c                PCA9685_setDutyLed
 .text.PCA9685_Init_Default
                0x08002578      0x224 Core\Src\led_driver_PCA9685.o
                0x08002578                PCA9685_Init_Default
 .text.main     0x0800279c      0x240 Core\Src\main.o
                0x0800279c                main
 .text.SystemClock_Config
                0x080029dc      0x100 Core\Src\main.o
                0x080029dc                SystemClock_Config
 .text.MX_NVIC_Init
                0x08002adc       0x9c Core\Src\main.o
 .text.__io_putchar
                0x08002b78       0x28 Core\Src\main.o
                0x08002b78                __io_putchar
 .text.app_main
                0x08002ba0      0x5bc Core\Src\main.o
                0x08002ba0                app_main
 .text.HAL_TIM_PeriodElapsedCallback
                0x0800315c       0x24 Core\Src\main.o
                0x0800315c                HAL_TIM_PeriodElapsedCallback
 .text.Error_Handler
                0x08003180        0xa Core\Src\main.o
                0x08003180                Error_Handler
 .text.assert_failed
                0x0800318a       0x12 Core\Src\main.o
                0x0800318a                assert_failed
 .text.SFEbarGraph_begin
                0x0800319c        0xc Core\Src\shiftreg_lib.o
                0x0800319c                SFEbarGraph_begin
 .text.SFEbarGraph_begin1
                0x080031a8       0x78 Core\Src\shiftreg_lib.o
                0x080031a8                SFEbarGraph_begin1
 .text.SFEbarGraph_begin2
                0x08003220       0x84 Core\Src\shiftreg_lib.o
                0x08003220                SFEbarGraph_begin2
 .text.SFEbarGraph_clear
                0x080032a4       0x40 Core\Src\shiftreg_lib.o
                0x080032a4                SFEbarGraph_clear
 .text.SFEbarGraph_set_all
                0x080032e4       0x4c Core\Src\shiftreg_lib.o
                0x080032e4                SFEbarGraph_set_all
 .text.SFEbarGraph_paint
                0x08003330       0xc8 Core\Src\shiftreg_lib.o
                0x08003330                SFEbarGraph_paint
 .text.SFEbarGraph_send
                0x080033f8       0x8c Core\Src\shiftreg_lib.o
                0x080033f8                SFEbarGraph_send
 .text.SFEKeyboard_receive
                0x08003484       0xa8 Core\Src\shiftreg_lib.o
                0x08003484                SFEKeyboard_receive
 .text.MX_SPI2_Init
                0x0800352c       0x7c Core\Src\spi.o
                0x0800352c                MX_SPI2_Init
 .text.HAL_SPI_MspInit
                0x080035a8      0x134 Core\Src\spi.o
                0x080035a8                HAL_SPI_MspInit
 .text.HAL_MspInit
                0x080036dc       0x48 Core\Src\stm32f0xx_hal_msp.o
                0x080036dc                HAL_MspInit
 .text.HAL_InitTick
                0x08003724       0xbc Core\Src\stm32f0xx_hal_timebase_tim.o
                0x08003724                HAL_InitTick
 .text.NMI_Handler
                0x080037e0        0xa Core\Src\stm32f0xx_it.o
                0x080037e0                NMI_Handler
 .text.HardFault_Handler
                0x080037ea        0x6 Core\Src\stm32f0xx_it.o
                0x080037ea                HardFault_Handler
 .text.SVC_Handler
                0x080037f0        0xa Core\Src\stm32f0xx_it.o
                0x080037f0                SVC_Handler
 .text.PendSV_Handler
                0x080037fa        0xa Core\Src\stm32f0xx_it.o
                0x080037fa                PendSV_Handler
 .text.SysTick_Handler
                0x08003804        0xa Core\Src\stm32f0xx_it.o
                0x08003804                SysTick_Handler
 .text.EXTI4_15_IRQHandler
                0x0800380e       0x16 Core\Src\stm32f0xx_it.o
                0x0800380e                EXTI4_15_IRQHandler
 .text.DMA1_Channel2_3_IRQHandler
                0x08003824       0x18 Core\Src\stm32f0xx_it.o
                0x08003824                DMA1_Channel2_3_IRQHandler
 .text.DMA1_Channel4_5_6_7_IRQHandler
                0x0800383c       0x24 Core\Src\stm32f0xx_it.o
                0x0800383c                DMA1_Channel4_5_6_7_IRQHandler
 .text.ADC1_COMP_IRQHandler
                0x08003860       0x18 Core\Src\stm32f0xx_it.o
                0x08003860                ADC1_COMP_IRQHandler
 .text.TIM1_BRK_UP_TRG_COM_IRQHandler
                0x08003878       0x18 Core\Src\stm32f0xx_it.o
                0x08003878                TIM1_BRK_UP_TRG_COM_IRQHandler
 .text.TIM6_DAC_IRQHandler
                0x08003890       0x18 Core\Src\stm32f0xx_it.o
                0x08003890                TIM6_DAC_IRQHandler
 .text.TIM7_IRQHandler
                0x080038a8       0x18 Core\Src\stm32f0xx_it.o
                0x080038a8                TIM7_IRQHandler
 .text.TIM14_IRQHandler
                0x080038c0       0x1c Core\Src\stm32f0xx_it.o
                0x080038c0                TIM14_IRQHandler
 .text.TIM16_IRQHandler
                0x080038dc       0x18 Core\Src\stm32f0xx_it.o
                0x080038dc                TIM16_IRQHandler
 .text.TIM17_IRQHandler
                0x080038f4       0x18 Core\Src\stm32f0xx_it.o
                0x080038f4                TIM17_IRQHandler
 .text.I2C1_IRQHandler
                0x0800390c       0x30 Core\Src\stm32f0xx_it.o
                0x0800390c                I2C1_IRQHandler
 .text.USART1_IRQHandler
                0x0800393c       0x18 Core\Src\stm32f0xx_it.o
                0x0800393c                USART1_IRQHandler
 .text.USART2_IRQHandler
                0x08003954       0x18 Core\Src\stm32f0xx_it.o
                0x08003954                USART2_IRQHandler
 .text.USB_IRQHandler
                0x0800396c       0x18 Core\Src\stm32f0xx_it.o
                0x0800396c                USB_IRQHandler
 .text.HAL_ADC_ConvCpltCallback
                0x08003984       0x10 Core\Src\stm32f0xx_it.o
                0x08003984                HAL_ADC_ConvCpltCallback
 .text._read    0x08003994       0x3a Core\Src\syscalls.o
                0x08003994                _read
 .text._write   0x080039ce       0x38 Core\Src\syscalls.o
                0x080039ce                _write
 *fill*         0x08003a06        0x2 
 .text._sbrk    0x08003a08       0x58 Core\Src\syscalls.o
                0x08003a08                _sbrk
 .text._close   0x08003a60       0x14 Core\Src\syscalls.o
                0x08003a60                _close
 .text._fstat   0x08003a74       0x1c Core\Src\syscalls.o
                0x08003a74                _fstat
 .text._isatty  0x08003a90       0x12 Core\Src\syscalls.o
                0x08003a90                _isatty
 .text._lseek   0x08003aa2       0x16 Core\Src\syscalls.o
                0x08003aa2                _lseek
 .text.SystemInit
                0x08003ab8       0x88 Core\Src\system_stm32f0xx.o
                0x08003ab8                SystemInit
 .text.MX_TIM6_Init
                0x08003b40       0x78 Core\Src\tim.o
                0x08003b40                MX_TIM6_Init
 .text.MX_TIM7_Init
                0x08003bb8       0x78 Core\Src\tim.o
                0x08003bb8                MX_TIM7_Init
 .text.MX_TIM14_Init
                0x08003c30       0x4c Core\Src\tim.o
                0x08003c30                MX_TIM14_Init
 .text.HAL_TIM_Base_MspInit
                0x08003c7c      0x110 Core\Src\tim.o
                0x08003c7c                HAL_TIM_Base_MspInit
 .text.Main_Clock_Init
                0x08003d8c       0x40 Core\Src\tim.o
                0x08003d8c                Main_Clock_Init
 .text.System_Clock_Timer_TickTIM6
                0x08003dcc      0x214 Core\Src\tim.o
                0x08003dcc                System_Clock_Timer_TickTIM6
 .text.MX_USART1_UART_Init
                0x08003fe0       0x60 Core\Src\usart.o
                0x08003fe0                MX_USART1_UART_Init
 .text.MX_USART2_UART_Init
                0x08004040       0x60 Core\Src\usart.o
                0x08004040                MX_USART2_UART_Init
 .text.HAL_UART_MspInit
                0x080040a0      0x220 Core\Src\usart.o
                0x080040a0                HAL_UART_MspInit
 .text.HAL_Init
                0x080042c0       0x28 Drivers\STM32F0xx_HAL_Driver\Src\stm32f0xx_hal.o
                0x080042c0                HAL_Init
 .text.HAL_IncTick
                0x080042e8       0x24 Drivers\STM32F0xx_HAL_Driver\Src\stm32f0xx_hal.o
                0x080042e8                HAL_IncTick
 .text.HAL_GetTick
                0x0800430c       0x14 Drivers\STM32F0xx_HAL_Driver\Src\stm32f0xx_hal.o
                0x0800430c                HAL_GetTick
 .text.HAL_ADC_Init
                0x08004320      0x49c Drivers\STM32F0xx_HAL_Driver\Src\stm32f0xx_hal_adc.o
                0x08004320                HAL_ADC_Init
 .text.HAL_ADC_Start
                0x080047bc       0xc8 Drivers\STM32F0xx_HAL_Driver\Src\stm32f0xx_hal_adc.o
                0x080047bc                HAL_ADC_Start
 .text.HAL_ADC_Stop
                0x08004884       0xa8 Drivers\STM32F0xx_HAL_Driver\Src\stm32f0xx_hal_adc.o
                0x08004884                HAL_ADC_Stop
 .text.HAL_ADC_PollForConversion
                0x0800492c      0x144 Drivers\STM32F0xx_HAL_Driver\Src\stm32f0xx_hal_adc.o
                0x0800492c                HAL_ADC_PollForConversion
 .text.HAL_ADC_GetValue
                0x08004a70       0x38 Drivers\STM32F0xx_HAL_Driver\Src\stm32f0xx_hal_adc.o
                0x08004a70                HAL_ADC_GetValue
 .text.HAL_ADC_IRQHandler
                0x08004aa8      0x1d0 Drivers\STM32F0xx_HAL_Driver\Src\stm32f0xx_hal_adc.o
                0x08004aa8                HAL_ADC_IRQHandler
 .text.HAL_ADC_LevelOutOfWindowCallback
                0x08004c78       0x10 Drivers\STM32F0xx_HAL_Driver\Src\stm32f0xx_hal_adc.o
                0x08004c78                HAL_ADC_LevelOutOfWindowCallback
 .text.HAL_ADC_ErrorCallback
                0x08004c88       0x10 Drivers\STM32F0xx_HAL_Driver\Src\stm32f0xx_hal_adc.o
                0x08004c88                HAL_ADC_ErrorCallback
 .text.HAL_ADC_ConfigChannel
                0x08004c98      0x378 Drivers\STM32F0xx_HAL_Driver\Src\stm32f0xx_hal_adc.o
                0x08004c98                HAL_ADC_ConfigChannel
 .text.ADC_Enable
                0x08005010       0xf8 Drivers\STM32F0xx_HAL_Driver\Src\stm32f0xx_hal_adc.o
 .text.ADC_Disable
                0x08005108       0xd4 Drivers\STM32F0xx_HAL_Driver\Src\stm32f0xx_hal_adc.o
 .text.ADC_ConversionStop
                0x080051dc       0xb0 Drivers\STM32F0xx_HAL_Driver\Src\stm32f0xx_hal_adc.o
 .text.HAL_ADCEx_Calibration_Start
                0x0800528c      0x158 Drivers\STM32F0xx_HAL_Driver\Src\stm32f0xx_hal_adc_ex.o
                0x0800528c                HAL_ADCEx_Calibration_Start
 .text.__NVIC_EnableIRQ
                0x080053e4       0x34 Drivers\STM32F0xx_HAL_Driver\Src\stm32f0xx_hal_cortex.o
 .text.__NVIC_SetPriority
                0x08005418       0xdc Drivers\STM32F0xx_HAL_Driver\Src\stm32f0xx_hal_cortex.o
 .text.HAL_NVIC_SetPriority
                0x080054f4       0x40 Drivers\STM32F0xx_HAL_Driver\Src\stm32f0xx_hal_cortex.o
                0x080054f4                HAL_NVIC_SetPriority
 .text.HAL_NVIC_EnableIRQ
                0x08005534       0x38 Drivers\STM32F0xx_HAL_Driver\Src\stm32f0xx_hal_cortex.o
                0x08005534                HAL_NVIC_EnableIRQ
 .text.HAL_DMA_Init
                0x0800556c      0x200 Drivers\STM32F0xx_HAL_Driver\Src\stm32f0xx_hal_dma.o
                0x0800556c                HAL_DMA_Init
 .text.HAL_DMA_Abort_IT
                0x0800576c       0x8c Drivers\STM32F0xx_HAL_Driver\Src\stm32f0xx_hal_dma.o
                0x0800576c                HAL_DMA_Abort_IT
 .text.HAL_DMA_IRQHandler
                0x080057f8      0x144 Drivers\STM32F0xx_HAL_Driver\Src\stm32f0xx_hal_dma.o
                0x080057f8                HAL_DMA_IRQHandler
 .text.DMA_CalcBaseAndBitshift
                0x0800593c       0x38 Drivers\STM32F0xx_HAL_Driver\Src\stm32f0xx_hal_dma.o
 .text.HAL_GPIO_Init
                0x08005974      0x474 Drivers\STM32F0xx_HAL_Driver\Src\stm32f0xx_hal_gpio.o
                0x08005974                HAL_GPIO_Init
 .text.HAL_GPIO_ReadPin
                0x08005de8       0x60 Drivers\STM32F0xx_HAL_Driver\Src\stm32f0xx_hal_gpio.o
                0x08005de8                HAL_GPIO_ReadPin
 .text.HAL_GPIO_WritePin
                0x08005e48       0x80 Drivers\STM32F0xx_HAL_Driver\Src\stm32f0xx_hal_gpio.o
                0x08005e48                HAL_GPIO_WritePin
 .text.HAL_GPIO_EXTI_IRQHandler
                0x08005ec8       0x38 Drivers\STM32F0xx_HAL_Driver\Src\stm32f0xx_hal_gpio.o
                0x08005ec8                HAL_GPIO_EXTI_IRQHandler
 .text.HAL_GPIO_EXTI_Callback
                0x08005f00       0x14 Drivers\STM32F0xx_HAL_Driver\Src\stm32f0xx_hal_gpio.o
                0x08005f00                HAL_GPIO_EXTI_Callback
 .text.HAL_I2C_Init
                0x08005f14      0x264 Drivers\STM32F0xx_HAL_Driver\Src\stm32f0xx_hal_i2c.o
                0x08005f14                HAL_I2C_Init
 .text.HAL_I2C_Master_Transmit
                0x08006178      0x210 Drivers\STM32F0xx_HAL_Driver\Src\stm32f0xx_hal_i2c.o
                0x08006178                HAL_I2C_Master_Transmit
 .text.HAL_I2C_EV_IRQHandler
                0x08006388       0x34 Drivers\STM32F0xx_HAL_Driver\Src\stm32f0xx_hal_i2c.o
                0x08006388                HAL_I2C_EV_IRQHandler
 .text.HAL_I2C_ER_IRQHandler
                0x080063bc       0xb2 Drivers\STM32F0xx_HAL_Driver\Src\stm32f0xx_hal_i2c.o
                0x080063bc                HAL_I2C_ER_IRQHandler
 .text.HAL_I2C_SlaveTxCpltCallback
                0x0800646e       0x10 Drivers\STM32F0xx_HAL_Driver\Src\stm32f0xx_hal_i2c.o
                0x0800646e                HAL_I2C_SlaveTxCpltCallback
 .text.HAL_I2C_SlaveRxCpltCallback
                0x0800647e       0x10 Drivers\STM32F0xx_HAL_Driver\Src\stm32f0xx_hal_i2c.o
                0x0800647e                HAL_I2C_SlaveRxCpltCallback
 .text.HAL_I2C_AddrCallback
                0x0800648e       0x20 Drivers\STM32F0xx_HAL_Driver\Src\stm32f0xx_hal_i2c.o
                0x0800648e                HAL_I2C_AddrCallback
 .text.HAL_I2C_ListenCpltCallback
                0x080064ae       0x10 Drivers\STM32F0xx_HAL_Driver\Src\stm32f0xx_hal_i2c.o
                0x080064ae                HAL_I2C_ListenCpltCallback
 .text.HAL_I2C_ErrorCallback
                0x080064be       0x10 Drivers\STM32F0xx_HAL_Driver\Src\stm32f0xx_hal_i2c.o
                0x080064be                HAL_I2C_ErrorCallback
 .text.HAL_I2C_AbortCpltCallback
                0x080064ce       0x10 Drivers\STM32F0xx_HAL_Driver\Src\stm32f0xx_hal_i2c.o
                0x080064ce                HAL_I2C_AbortCpltCallback
 *fill*         0x080064de        0x2 
 .text.I2C_Slave_ISR_IT
                0x080064e0      0x200 Drivers\STM32F0xx_HAL_Driver\Src\stm32f0xx_hal_i2c.o
 .text.I2C_ITAddrCplt
                0x080066e0      0x14c Drivers\STM32F0xx_HAL_Driver\Src\stm32f0xx_hal_i2c.o
 .text.I2C_ITSlaveSeqCplt
                0x0800682c       0x82 Drivers\STM32F0xx_HAL_Driver\Src\stm32f0xx_hal_i2c.o
 *fill*         0x080068ae        0x2 
 .text.I2C_ITSlaveCplt
                0x080068b0      0x1b8 Drivers\STM32F0xx_HAL_Driver\Src\stm32f0xx_hal_i2c.o
 .text.I2C_ITListenCplt
                0x08006a68       0xa8 Drivers\STM32F0xx_HAL_Driver\Src\stm32f0xx_hal_i2c.o
 .text.I2C_ITError
                0x08006b10      0x1a4 Drivers\STM32F0xx_HAL_Driver\Src\stm32f0xx_hal_i2c.o
 .text.I2C_Flush_TXDR
                0x08006cb4       0x44 Drivers\STM32F0xx_HAL_Driver\Src\stm32f0xx_hal_i2c.o
 .text.I2C_DMAAbort
                0x08006cf8       0x4c Drivers\STM32F0xx_HAL_Driver\Src\stm32f0xx_hal_i2c.o
 .text.I2C_WaitOnFlagUntilTimeout
                0x08006d44       0x7e Drivers\STM32F0xx_HAL_Driver\Src\stm32f0xx_hal_i2c.o
 .text.I2C_WaitOnTXISFlagUntilTimeout
                0x08006dc2       0x7e Drivers\STM32F0xx_HAL_Driver\Src\stm32f0xx_hal_i2c.o
 .text.I2C_WaitOnSTOPFlagUntilTimeout
                0x08006e40       0x78 Drivers\STM32F0xx_HAL_Driver\Src\stm32f0xx_hal_i2c.o
 .text.I2C_IsAcknowledgeFailed
                0x08006eb8       0xcc Drivers\STM32F0xx_HAL_Driver\Src\stm32f0xx_hal_i2c.o
 .text.I2C_TransferConfig
                0x08006f84      0x100 Drivers\STM32F0xx_HAL_Driver\Src\stm32f0xx_hal_i2c.o
 .text.I2C_Disable_IRQ
                0x08007084       0xd2 Drivers\STM32F0xx_HAL_Driver\Src\stm32f0xx_hal_i2c.o
 *fill*         0x08007156        0x2 
 .text.HAL_I2CEx_ConfigAnalogFilter
                0x08007158       0xdc Drivers\STM32F0xx_HAL_Driver\Src\stm32f0xx_hal_i2c_ex.o
                0x08007158                HAL_I2CEx_ConfigAnalogFilter
 .text.HAL_I2CEx_ConfigDigitalFilter
                0x08007234       0xd4 Drivers\STM32F0xx_HAL_Driver\Src\stm32f0xx_hal_i2c_ex.o
                0x08007234                HAL_I2CEx_ConfigDigitalFilter
 .text.HAL_IWDG_Init
                0x08007308      0x120 Drivers\STM32F0xx_HAL_Driver\Src\stm32f0xx_hal_iwdg.o
                0x08007308                HAL_IWDG_Init
 .text.HAL_IWDG_Refresh
                0x08007428       0x20 Drivers\STM32F0xx_HAL_Driver\Src\stm32f0xx_hal_iwdg.o
                0x08007428                HAL_IWDG_Refresh
 .text.HAL_PCD_IRQHandler
                0x08007448      0x310 Drivers\STM32F0xx_HAL_Driver\Src\stm32f0xx_hal_pcd.o
                0x08007448                HAL_PCD_IRQHandler
 .text.HAL_PCD_SetAddress
                0x08007758       0x56 Drivers\STM32F0xx_HAL_Driver\Src\stm32f0xx_hal_pcd.o
                0x08007758                HAL_PCD_SetAddress
 .text.HAL_PCD_EP_Open
                0x080077ae       0xe4 Drivers\STM32F0xx_HAL_Driver\Src\stm32f0xx_hal_pcd.o
                0x080077ae                HAL_PCD_EP_Open
 .text.HAL_PCD_EP_Receive
                0x08007892       0x86 Drivers\STM32F0xx_HAL_Driver\Src\stm32f0xx_hal_pcd.o
                0x08007892                HAL_PCD_EP_Receive
 .text.HAL_PCD_EP_Transmit
                0x08007918       0x84 Drivers\STM32F0xx_HAL_Driver\Src\stm32f0xx_hal_pcd.o
                0x08007918                HAL_PCD_EP_Transmit
 .text.HAL_PCD_EP_SetStall
                0x0800799c       0xcc Drivers\STM32F0xx_HAL_Driver\Src\stm32f0xx_hal_pcd.o
                0x0800799c                HAL_PCD_EP_SetStall
 .text.HAL_PCD_EP_ClrStall
                0x08007a68       0xb0 Drivers\STM32F0xx_HAL_Driver\Src\stm32f0xx_hal_pcd.o
                0x08007a68                HAL_PCD_EP_ClrStall
 .text.PCD_EP_ISR_Handler
                0x08007b18      0x5c0 Drivers\STM32F0xx_HAL_Driver\Src\stm32f0xx_hal_pcd.o
 .text.HAL_PCDEx_LPM_Callback
                0x080080d8       0x16 Drivers\STM32F0xx_HAL_Driver\Src\stm32f0xx_hal_pcd_ex.o
                0x080080d8                HAL_PCDEx_LPM_Callback
 *fill*         0x080080ee        0x2 
 .text.HAL_RCC_OscConfig
                0x080080f0      0xa2c Drivers\STM32F0xx_HAL_Driver\Src\stm32f0xx_hal_rcc.o
                0x080080f0                HAL_RCC_OscConfig
 .text.HAL_RCC_ClockConfig
                0x08008b1c      0x2d0 Drivers\STM32F0xx_HAL_Driver\Src\stm32f0xx_hal_rcc.o
                0x08008b1c                HAL_RCC_ClockConfig
 .text.HAL_RCC_GetSysClockFreq
                0x08008dec      0x100 Drivers\STM32F0xx_HAL_Driver\Src\stm32f0xx_hal_rcc.o
                0x08008dec                HAL_RCC_GetSysClockFreq
 .text.HAL_RCC_GetHCLKFreq
                0x08008eec       0x14 Drivers\STM32F0xx_HAL_Driver\Src\stm32f0xx_hal_rcc.o
                0x08008eec                HAL_RCC_GetHCLKFreq
 .text.HAL_RCC_GetPCLK1Freq
                0x08008f00       0x2c Drivers\STM32F0xx_HAL_Driver\Src\stm32f0xx_hal_rcc.o
                0x08008f00                HAL_RCC_GetPCLK1Freq
 .text.HAL_RCC_GetClockConfig
                0x08008f2c       0x84 Drivers\STM32F0xx_HAL_Driver\Src\stm32f0xx_hal_rcc.o
                0x08008f2c                HAL_RCC_GetClockConfig
 .text.HAL_RCCEx_PeriphCLKConfig
                0x08008fb0      0x2fc Drivers\STM32F0xx_HAL_Driver\Src\stm32f0xx_hal_rcc_ex.o
                0x08008fb0                HAL_RCCEx_PeriphCLKConfig
 .text.HAL_SPI_Init
                0x080092ac      0x380 Drivers\STM32F0xx_HAL_Driver\Src\stm32f0xx_hal_spi.o
                0x080092ac                HAL_SPI_Init
 .text.HAL_SPI_Transmit
                0x0800962c      0x360 Drivers\STM32F0xx_HAL_Driver\Src\stm32f0xx_hal_spi.o
                0x0800962c                HAL_SPI_Transmit
 .text.HAL_SPI_Receive
                0x0800998c      0x2bc Drivers\STM32F0xx_HAL_Driver\Src\stm32f0xx_hal_spi.o
                0x0800998c                HAL_SPI_Receive
 .text.HAL_SPI_TransmitReceive
                0x08009c48      0x4e4 Drivers\STM32F0xx_HAL_Driver\Src\stm32f0xx_hal_spi.o
                0x08009c48                HAL_SPI_TransmitReceive
 .text.SPI_WaitFlagStateUntilTimeout
                0x0800a12c       0xe0 Drivers\STM32F0xx_HAL_Driver\Src\stm32f0xx_hal_spi.o
 .text.SPI_WaitFifoStateUntilTimeout
                0x0800a20c       0xe8 Drivers\STM32F0xx_HAL_Driver\Src\stm32f0xx_hal_spi.o
 .text.SPI_EndRxTransaction
                0x0800a2f4       0xbc Drivers\STM32F0xx_HAL_Driver\Src\stm32f0xx_hal_spi.o
 .text.SPI_EndRxTxTransaction
                0x0800a3b0       0x8c Drivers\STM32F0xx_HAL_Driver\Src\stm32f0xx_hal_spi.o
 .text.HAL_TIM_Base_Init
                0x0800a43c      0x16c Drivers\STM32F0xx_HAL_Driver\Src\stm32f0xx_hal_tim.o
                0x0800a43c                HAL_TIM_Base_Init
 .text.HAL_TIM_Base_Start_IT
                0x0800a5a8       0xd4 Drivers\STM32F0xx_HAL_Driver\Src\stm32f0xx_hal_tim.o
                0x0800a5a8                HAL_TIM_Base_Start_IT
 .text.HAL_TIM_IRQHandler
                0x0800a67c      0x22c Drivers\STM32F0xx_HAL_Driver\Src\stm32f0xx_hal_tim.o
                0x0800a67c                HAL_TIM_IRQHandler
 .text.HAL_TIM_OC_DelayElapsedCallback
                0x0800a8a8       0x10 Drivers\STM32F0xx_HAL_Driver\Src\stm32f0xx_hal_tim.o
                0x0800a8a8                HAL_TIM_OC_DelayElapsedCallback
 .text.HAL_TIM_IC_CaptureCallback
                0x0800a8b8       0x10 Drivers\STM32F0xx_HAL_Driver\Src\stm32f0xx_hal_tim.o
                0x0800a8b8                HAL_TIM_IC_CaptureCallback
 .text.HAL_TIM_PWM_PulseFinishedCallback
                0x0800a8c8       0x10 Drivers\STM32F0xx_HAL_Driver\Src\stm32f0xx_hal_tim.o
                0x0800a8c8                HAL_TIM_PWM_PulseFinishedCallback
 .text.HAL_TIM_TriggerCallback
                0x0800a8d8       0x10 Drivers\STM32F0xx_HAL_Driver\Src\stm32f0xx_hal_tim.o
                0x0800a8d8                HAL_TIM_TriggerCallback
 .text.TIM_Base_SetConfig
                0x0800a8e8      0x100 Drivers\STM32F0xx_HAL_Driver\Src\stm32f0xx_hal_tim.o
                0x0800a8e8                TIM_Base_SetConfig
 .text.HAL_TIMEx_MasterConfigSynchronization
                0x0800a9e8      0x188 Drivers\STM32F0xx_HAL_Driver\Src\stm32f0xx_hal_tim_ex.o
                0x0800a9e8                HAL_TIMEx_MasterConfigSynchronization
 .text.HAL_TIMEx_CommutCallback
                0x0800ab70       0x10 Drivers\STM32F0xx_HAL_Driver\Src\stm32f0xx_hal_tim_ex.o
                0x0800ab70                HAL_TIMEx_CommutCallback
 .text.HAL_TIMEx_BreakCallback
                0x0800ab80       0x10 Drivers\STM32F0xx_HAL_Driver\Src\stm32f0xx_hal_tim_ex.o
                0x0800ab80                HAL_TIMEx_BreakCallback
 .text.HAL_UART_Init
                0x0800ab90      0x134 Drivers\STM32F0xx_HAL_Driver\Src\stm32f0xx_hal_uart.o
                0x0800ab90                HAL_UART_Init
 .text.HAL_UART_Transmit
                0x0800acc4      0x150 Drivers\STM32F0xx_HAL_Driver\Src\stm32f0xx_hal_uart.o
                0x0800acc4                HAL_UART_Transmit
 .text.HAL_UART_IRQHandler
                0x0800ae14      0x278 Drivers\STM32F0xx_HAL_Driver\Src\stm32f0xx_hal_uart.o
                0x0800ae14                HAL_UART_IRQHandler
 .text.HAL_UART_TxCpltCallback
                0x0800b08c       0x10 Drivers\STM32F0xx_HAL_Driver\Src\stm32f0xx_hal_uart.o
                0x0800b08c                HAL_UART_TxCpltCallback
 .text.HAL_UART_ErrorCallback
                0x0800b09c       0x10 Drivers\STM32F0xx_HAL_Driver\Src\stm32f0xx_hal_uart.o
                0x0800b09c                HAL_UART_ErrorCallback
 .text.UART_SetConfig
                0x0800b0ac      0x4fc Drivers\STM32F0xx_HAL_Driver\Src\stm32f0xx_hal_uart.o
                0x0800b0ac                UART_SetConfig
 .text.UART_AdvFeatureConfig
                0x0800b5a8      0x2f8 Drivers\STM32F0xx_HAL_Driver\Src\stm32f0xx_hal_uart.o
                0x0800b5a8                UART_AdvFeatureConfig
 .text.UART_CheckIdleState
                0x0800b8a0       0x8c Drivers\STM32F0xx_HAL_Driver\Src\stm32f0xx_hal_uart.o
                0x0800b8a0                UART_CheckIdleState
 .text.UART_WaitOnFlagUntilTimeout
                0x0800b92c       0xfc Drivers\STM32F0xx_HAL_Driver\Src\stm32f0xx_hal_uart.o
                0x0800b92c                UART_WaitOnFlagUntilTimeout
 .text.UART_EndRxTransfer
                0x0800ba28       0x40 Drivers\STM32F0xx_HAL_Driver\Src\stm32f0xx_hal_uart.o
 .text.UART_DMAAbortOnError
                0x0800ba68       0x2e Drivers\STM32F0xx_HAL_Driver\Src\stm32f0xx_hal_uart.o
 .text.UART_EndTransmit_IT
                0x0800ba96       0x34 Drivers\STM32F0xx_HAL_Driver\Src\stm32f0xx_hal_uart.o
 .text.HAL_UARTEx_WakeupCallback
                0x0800baca       0x10 Drivers\STM32F0xx_HAL_Driver\Src\stm32f0xx_hal_uart_ex.o
                0x0800baca                HAL_UARTEx_WakeupCallback
 *fill*         0x0800bada        0x2 
 .text.USB_ActivateEndpoint
                0x0800badc      0x5f8 Drivers\STM32F0xx_HAL_Driver\Src\stm32f0xx_ll_usb.o
                0x0800badc                USB_ActivateEndpoint
 .text.USB_EPStartXfer
                0x0800c0d4      0x5a4 Drivers\STM32F0xx_HAL_Driver\Src\stm32f0xx_ll_usb.o
                0x0800c0d4                USB_EPStartXfer
 .text.USB_EPSetStall
                0x0800c678       0x84 Drivers\STM32F0xx_HAL_Driver\Src\stm32f0xx_ll_usb.o
                0x0800c678                USB_EPSetStall
 .text.USB_EPClearStall
                0x0800c6fc      0x124 Drivers\STM32F0xx_HAL_Driver\Src\stm32f0xx_ll_usb.o
                0x0800c6fc                USB_EPClearStall
 .text.USB_SetDevAddress
                0x0800c820       0x28 Drivers\STM32F0xx_HAL_Driver\Src\stm32f0xx_ll_usb.o
                0x0800c820                USB_SetDevAddress
 .text.USB_ReadInterrupts
                0x0800c848       0x1c Drivers\STM32F0xx_HAL_Driver\Src\stm32f0xx_ll_usb.o
                0x0800c848                USB_ReadInterrupts
 .text.USB_EP0_OutStart
                0x0800c864       0x14 Drivers\STM32F0xx_HAL_Driver\Src\stm32f0xx_ll_usb.o
                0x0800c864                USB_EP0_OutStart
 .text.USB_WritePMA
                0x0800c878       0x86 Drivers\STM32F0xx_HAL_Driver\Src\stm32f0xx_ll_usb.o
                0x0800c878                USB_WritePMA
 .text.USB_ReadPMA
                0x0800c8fe       0x9e Drivers\STM32F0xx_HAL_Driver\Src\stm32f0xx_ll_usb.o
                0x0800c8fe                USB_ReadPMA
 .text.USBD_RunTestMode
                0x0800c99c       0x12 Middlewares\ST\STM32_USB_Device_Library\Core\Src\usbd_core.o
                0x0800c99c                USBD_RunTestMode
 .text.USBD_SetClassConfig
                0x0800c9ae       0x50 Middlewares\ST\STM32_USB_Device_Library\Core\Src\usbd_core.o
                0x0800c9ae                USBD_SetClassConfig
 .text.USBD_ClrClassConfig
                0x0800c9fe       0x2c Middlewares\ST\STM32_USB_Device_Library\Core\Src\usbd_core.o
                0x0800c9fe                USBD_ClrClassConfig
 *fill*         0x0800ca2a        0x2 
 .text.USBD_LL_SetupStage
                0x0800ca2c       0xb8 Middlewares\ST\STM32_USB_Device_Library\Core\Src\usbd_core.o
                0x0800ca2c                USBD_LL_SetupStage
 .text.USBD_LL_DataOutStage
                0x0800cae4      0x106 Middlewares\ST\STM32_USB_Device_Library\Core\Src\usbd_core.o
                0x0800cae4                USBD_LL_DataOutStage
 .text.USBD_LL_DataInStage
                0x0800cbea      0x17c Middlewares\ST\STM32_USB_Device_Library\Core\Src\usbd_core.o
                0x0800cbea                USBD_LL_DataInStage
 .text.USBD_LL_Reset
                0x0800cd66       0x90 Middlewares\ST\STM32_USB_Device_Library\Core\Src\usbd_core.o
                0x0800cd66                USBD_LL_Reset
 .text.USBD_LL_SetSpeed
                0x0800cdf6       0x20 Middlewares\ST\STM32_USB_Device_Library\Core\Src\usbd_core.o
                0x0800cdf6                USBD_LL_SetSpeed
 *fill*         0x0800ce16        0x2 
 .text.USBD_LL_Suspend
                0x0800ce18       0x30 Middlewares\ST\STM32_USB_Device_Library\Core\Src\usbd_core.o
                0x0800ce18                USBD_LL_Suspend
 .text.USBD_LL_Resume
                0x0800ce48       0x30 Middlewares\ST\STM32_USB_Device_Library\Core\Src\usbd_core.o
                0x0800ce48                USBD_LL_Resume
 .text.USBD_LL_SOF
                0x0800ce78       0x3c Middlewares\ST\STM32_USB_Device_Library\Core\Src\usbd_core.o
                0x0800ce78                USBD_LL_SOF
 .text.USBD_StdDevReq
                0x0800ceb4       0xe4 Middlewares\ST\STM32_USB_Device_Library\Core\Src\usbd_ctlreq.o
                0x0800ceb4                USBD_StdDevReq
 .text.USBD_StdItfReq
                0x0800cf98       0xae Middlewares\ST\STM32_USB_Device_Library\Core\Src\usbd_ctlreq.o
                0x0800cf98                USBD_StdItfReq
 .text.USBD_StdEPReq
                0x0800d046      0x37e Middlewares\ST\STM32_USB_Device_Library\Core\Src\usbd_ctlreq.o
                0x0800d046                USBD_StdEPReq
 .text.USBD_GetDescriptor
                0x0800d3c4      0x37c Middlewares\ST\STM32_USB_Device_Library\Core\Src\usbd_ctlreq.o
 .text.USBD_SetAddress
                0x0800d740       0xac Middlewares\ST\STM32_USB_Device_Library\Core\Src\usbd_ctlreq.o
 .text.USBD_SetConfig
                0x0800d7ec      0x148 Middlewares\ST\STM32_USB_Device_Library\Core\Src\usbd_ctlreq.o
 .text.USBD_GetConfig
                0x0800d934       0x74 Middlewares\ST\STM32_USB_Device_Library\Core\Src\usbd_ctlreq.o
 .text.USBD_GetStatus
                0x0800d9a8       0x74 Middlewares\ST\STM32_USB_Device_Library\Core\Src\usbd_ctlreq.o
 .text.USBD_SetFeature
                0x0800da1c       0x2c Middlewares\ST\STM32_USB_Device_Library\Core\Src\usbd_ctlreq.o
 .text.USBD_ClrFeature
                0x0800da48       0x4c Middlewares\ST\STM32_USB_Device_Library\Core\Src\usbd_ctlreq.o
 .text.USBD_ParseSetupRequest
                0x0800da94       0x76 Middlewares\ST\STM32_USB_Device_Library\Core\Src\usbd_ctlreq.o
                0x0800da94                USBD_ParseSetupRequest
 .text.USBD_CtlError
                0x0800db0a       0x26 Middlewares\ST\STM32_USB_Device_Library\Core\Src\usbd_ctlreq.o
                0x0800db0a                USBD_CtlError
 .text.USBD_CtlSendData
                0x0800db30       0x40 Middlewares\ST\STM32_USB_Device_Library\Core\Src\usbd_ioreq.o
                0x0800db30                USBD_CtlSendData
 .text.USBD_CtlContinueSendData
                0x0800db70       0x26 Middlewares\ST\STM32_USB_Device_Library\Core\Src\usbd_ioreq.o
                0x0800db70                USBD_CtlContinueSendData
 .text.USBD_CtlContinueRx
                0x0800db96       0x26 Middlewares\ST\STM32_USB_Device_Library\Core\Src\usbd_ioreq.o
                0x0800db96                USBD_CtlContinueRx
 .text.USBD_CtlSendStatus
                0x0800dbbc       0x28 Middlewares\ST\STM32_USB_Device_Library\Core\Src\usbd_ioreq.o
                0x0800dbbc                USBD_CtlSendStatus
 .text.USBD_CtlReceiveStatus
                0x0800dbe4       0x28 Middlewares\ST\STM32_USB_Device_Library\Core\Src\usbd_ioreq.o
                0x0800dbe4                USBD_CtlReceiveStatus
 .text.HAL_PCD_SetupStageCallback
                0x0800dc0c       0x2a USB_DEVICE\Target\usbd_conf.o
                0x0800dc0c                HAL_PCD_SetupStageCallback
 .text.HAL_PCD_DataOutStageCallback
                0x0800dc36       0x3a USB_DEVICE\Target\usbd_conf.o
                0x0800dc36                HAL_PCD_DataOutStageCallback
 .text.HAL_PCD_DataInStageCallback
                0x0800dc70       0x36 USB_DEVICE\Target\usbd_conf.o
                0x0800dc70                HAL_PCD_DataInStageCallback
 .text.HAL_PCD_SOFCallback
                0x0800dca6       0x1e USB_DEVICE\Target\usbd_conf.o
                0x0800dca6                HAL_PCD_SOFCallback
 .text.HAL_PCD_ResetCallback
                0x0800dcc4       0x48 USB_DEVICE\Target\usbd_conf.o
                0x0800dcc4                HAL_PCD_ResetCallback
 .text.HAL_PCD_SuspendCallback
                0x0800dd0c       0x38 USB_DEVICE\Target\usbd_conf.o
                0x0800dd0c                HAL_PCD_SuspendCallback
 .text.HAL_PCD_ResumeCallback
                0x0800dd44       0x3c USB_DEVICE\Target\usbd_conf.o
                0x0800dd44                HAL_PCD_ResumeCallback
 .text.USBD_LL_OpenEP
                0x0800dd80       0x74 USB_DEVICE\Target\usbd_conf.o
                0x0800dd80                USBD_LL_OpenEP
 .text.USBD_LL_StallEP
                0x0800ddf4       0x5c USB_DEVICE\Target\usbd_conf.o
                0x0800ddf4                USBD_LL_StallEP
 .text.USBD_LL_ClearStallEP
                0x0800de50       0x5c USB_DEVICE\Target\usbd_conf.o
                0x0800de50                USBD_LL_ClearStallEP
 .text.USBD_LL_IsStallEP
                0x0800deac       0x56 USB_DEVICE\Target\usbd_conf.o
                0x0800deac                USBD_LL_IsStallEP
 .text.USBD_LL_SetUSBAddress
                0x0800df02       0x5c USB_DEVICE\Target\usbd_conf.o
                0x0800df02                USBD_LL_SetUSBAddress
 .text.USBD_LL_Transmit
                0x0800df5e       0x74 USB_DEVICE\Target\usbd_conf.o
                0x0800df5e                USBD_LL_Transmit
 .text.USBD_LL_PrepareReceive
                0x0800dfd2       0x74 USB_DEVICE\Target\usbd_conf.o
                0x0800dfd2                USBD_LL_PrepareReceive
 .text.SystemClockConfig_Resume
                0x0800e046        0xe USB_DEVICE\Target\usbd_conf.o
 .text.USBD_Get_USB_Status
                0x0800e054       0x6e USB_DEVICE\Target\usbd_conf.o
 *fill*         0x0800e0c2        0x2 
 .text.Reset_Handler
                0x0800e0c4       0x50 startup\startup_stm32f072xb.o
                0x0800e0c4                Reset_Handler
 .text.Default_Handler
                0x0800e114        0x2 startup\startup_stm32f072xb.o
                0x0800e114                TIM1_CC_IRQHandler
                0x0800e114                TSC_IRQHandler
                0x0800e114                RCC_CRS_IRQHandler
                0x0800e114                SPI1_IRQHandler
                0x0800e114                USART3_4_IRQHandler
                0x0800e114                EXTI2_3_IRQHandler
                0x0800e114                I2C2_IRQHandler
                0x0800e114                CEC_CAN_IRQHandler
                0x0800e114                RTC_IRQHandler
                0x0800e114                PVD_VDDIO2_IRQHandler
                0x0800e114                TIM3_IRQHandler
                0x0800e114                DMA1_Channel1_IRQHandler
                0x0800e114                Default_Handler
                0x0800e114                TIM15_IRQHandler
                0x0800e114                EXTI0_1_IRQHandler
                0x0800e114                SPI2_IRQHandler
                0x0800e114                WWDG_IRQHandler
                0x0800e114                TIM2_IRQHandler
                0x0800e114                FLASH_IRQHandler
 *fill*         0x0800e116        0x2 
 .text.__errno  0x0800e118        0xc c:/program files (x86)/atollic/truestudio for stm32 9.3.0/armtools/bin/../lib/gcc/arm-atollic-eabi/6.3.1/../../../../arm-atollic-eabi/lib/armv6-m\libc_nano.a(lib_a-errno.o)
                0x0800e118                __errno
 .text.__libc_init_array
                0x0800e124       0x48 c:/program files (x86)/atollic/truestudio for stm32 9.3.0/armtools/bin/../lib/gcc/arm-atollic-eabi/6.3.1/../../../../arm-atollic-eabi/lib/armv6-m\libc_nano.a(lib_a-init.o)
                0x0800e124                __libc_init_array
 .text.malloc   0x0800e16c       0x14 c:/program files (x86)/atollic/truestudio for stm32 9.3.0/armtools/bin/../lib/gcc/arm-atollic-eabi/6.3.1/../../../../arm-atollic-eabi/lib/armv6-m\libc_nano.a(lib_a-malloc.o)
                0x0800e16c                malloc
 .text.memcpy   0x0800e180       0x12 c:/program files (x86)/atollic/truestudio for stm32 9.3.0/armtools/bin/../lib/gcc/arm-atollic-eabi/6.3.1/../../../../arm-atollic-eabi/lib/armv6-m\libc_nano.a(lib_a-memcpy-stub.o)
                0x0800e180                memcpy
 .text.memset   0x0800e192       0x10 c:/program files (x86)/atollic/truestudio for stm32 9.3.0/armtools/bin/../lib/gcc/arm-atollic-eabi/6.3.1/../../../../arm-atollic-eabi/lib/armv6-m\libc_nano.a(lib_a-memset.o)
                0x0800e192                memset
 *fill*         0x0800e1a2        0x2 
 .text._free_r  0x0800e1a4       0x94 c:/program files (x86)/atollic/truestudio for stm32 9.3.0/armtools/bin/../lib/gcc/arm-atollic-eabi/6.3.1/../../../../arm-atollic-eabi/lib/armv6-m\libc_nano.a(lib_a-nano-freer.o)
                0x0800e1a4                _free_r
 .text._malloc_r
                0x0800e238       0xbc c:/program files (x86)/atollic/truestudio for stm32 9.3.0/armtools/bin/../lib/gcc/arm-atollic-eabi/6.3.1/../../../../arm-atollic-eabi/lib/armv6-m\libc_nano.a(lib_a-nano-mallocr.o)
                0x0800e238                _malloc_r
 .text.printf   0x0800e2f4       0x34 c:/program files (x86)/atollic/truestudio for stm32 9.3.0/armtools/bin/../lib/gcc/arm-atollic-eabi/6.3.1/../../../../arm-atollic-eabi/lib/armv6-m\libc_nano.a(lib_a-printf.o)
                0x0800e2f4                iprintf
                0x0800e2f4                printf
 .text._sbrk_r  0x0800e328       0x24 c:/program files (x86)/atollic/truestudio for stm32 9.3.0/armtools/bin/../lib/gcc/arm-atollic-eabi/6.3.1/../../../../arm-atollic-eabi/lib/armv6-m\libc_nano.a(lib_a-sbrkr.o)
                0x0800e328                _sbrk_r
 .text._cleanup_r
                0x0800e34c       0x10 c:/program files (x86)/atollic/truestudio for stm32 9.3.0/armtools/bin/../lib/gcc/arm-atollic-eabi/6.3.1/../../../../arm-atollic-eabi/lib/armv6-m\libc_nano.a(lib_a-findfp.o)
                0x0800e34c                _cleanup_r
 .text.std.isra.0
                0x0800e35c       0x48 c:/program files (x86)/atollic/truestudio for stm32 9.3.0/armtools/bin/../lib/gcc/arm-atollic-eabi/6.3.1/../../../../arm-atollic-eabi/lib/armv6-m\libc_nano.a(lib_a-findfp.o)
 .text.__sfmoreglue
                0x0800e3a4       0x2c c:/program files (x86)/atollic/truestudio for stm32 9.3.0/armtools/bin/../lib/gcc/arm-atollic-eabi/6.3.1/../../../../arm-atollic-eabi/lib/armv6-m\libc_nano.a(lib_a-findfp.o)
                0x0800e3a4                __sfmoreglue
 .text.__sinit  0x0800e3d0       0x68 c:/program files (x86)/atollic/truestudio for stm32 9.3.0/armtools/bin/../lib/gcc/arm-atollic-eabi/6.3.1/../../../../arm-atollic-eabi/lib/armv6-m\libc_nano.a(lib_a-findfp.o)
                0x0800e3d0                __sinit
 .text.__sfp    0x0800e438       0x80 c:/program files (x86)/atollic/truestudio for stm32 9.3.0/armtools/bin/../lib/gcc/arm-atollic-eabi/6.3.1/../../../../arm-atollic-eabi/lib/armv6-m\libc_nano.a(lib_a-findfp.o)
                0x0800e438                __sfp
 .text._fwalk_reent
                0x0800e4b8       0x42 c:/program files (x86)/atollic/truestudio for stm32 9.3.0/armtools/bin/../lib/gcc/arm-atollic-eabi/6.3.1/../../../../arm-atollic-eabi/lib/armv6-m\libc_nano.a(lib_a-fwalk.o)
                0x0800e4b8                _fwalk_reent
 .text.__malloc_lock
                0x0800e4fa        0x2 c:/program files (x86)/atollic/truestudio for stm32 9.3.0/armtools/bin/../lib/gcc/arm-atollic-eabi/6.3.1/../../../../arm-atollic-eabi/lib/armv6-m\libc_nano.a(lib_a-mlock.o)
                0x0800e4fa                __malloc_lock
 .text.__malloc_unlock
                0x0800e4fc        0x2 c:/program files (x86)/atollic/truestudio for stm32 9.3.0/armtools/bin/../lib/gcc/arm-atollic-eabi/6.3.1/../../../../arm-atollic-eabi/lib/armv6-m\libc_nano.a(lib_a-mlock.o)
                0x0800e4fc                __malloc_unlock
 .text.__sfputc_r
                0x0800e4fe       0x2a c:/program files (x86)/atollic/truestudio for stm32 9.3.0/armtools/bin/../lib/gcc/arm-atollic-eabi/6.3.1/../../../../arm-atollic-eabi/lib/armv6-m\libc_nano.a(lib_a-nano-vfprintf.o)
 .text.__sfputs_r
                0x0800e528       0x24 c:/program files (x86)/atollic/truestudio for stm32 9.3.0/armtools/bin/../lib/gcc/arm-atollic-eabi/6.3.1/../../../../arm-atollic-eabi/lib/armv6-m\libc_nano.a(lib_a-nano-vfprintf.o)
                0x0800e528                __sfputs_r
 .text._vfprintf_r
                0x0800e54c      0x238 c:/program files (x86)/atollic/truestudio for stm32 9.3.0/armtools/bin/../lib/gcc/arm-atollic-eabi/6.3.1/../../../../arm-atollic-eabi/lib/armv6-m\libc_nano.a(lib_a-nano-vfprintf.o)
                0x0800e54c                _vfprintf_r
                0x0800e54c                _vfiprintf_r
 .text._printf_common
                0x0800e784       0xda c:/program files (x86)/atollic/truestudio for stm32 9.3.0/armtools/bin/../lib/gcc/arm-atollic-eabi/6.3.1/../../../../arm-atollic-eabi/lib/armv6-m\libc_nano.a(lib_a-nano-vfprintf_i.o)
                0x0800e784                _printf_common
 *fill*         0x0800e85e        0x2 
 .text._printf_i
                0x0800e860      0x234 c:/program files (x86)/atollic/truestudio for stm32 9.3.0/armtools/bin/../lib/gcc/arm-atollic-eabi/6.3.1/../../../../arm-atollic-eabi/lib/armv6-m\libc_nano.a(lib_a-nano-vfprintf_i.o)
                0x0800e860                _printf_i
 .text.__sread  0x0800ea94       0x28 c:/program files (x86)/atollic/truestudio for stm32 9.3.0/armtools/bin/../lib/gcc/arm-atollic-eabi/6.3.1/../../../../arm-atollic-eabi/lib/armv6-m\libc_nano.a(lib_a-stdio.o)
                0x0800ea94                __sread
 .text.__swrite
                0x0800eabc       0x38 c:/program files (x86)/atollic/truestudio for stm32 9.3.0/armtools/bin/../lib/gcc/arm-atollic-eabi/6.3.1/../../../../arm-atollic-eabi/lib/armv6-m\libc_nano.a(lib_a-stdio.o)
                0x0800eabc                __swrite
 .text.__sseek  0x0800eaf4       0x2c c:/program files (x86)/atollic/truestudio for stm32 9.3.0/armtools/bin/../lib/gcc/arm-atollic-eabi/6.3.1/../../../../arm-atollic-eabi/lib/armv6-m\libc_nano.a(lib_a-stdio.o)
                0x0800eaf4                __sseek
 .text.__sclose
                0x0800eb20        0xc c:/program files (x86)/atollic/truestudio for stm32 9.3.0/armtools/bin/../lib/gcc/arm-atollic-eabi/6.3.1/../../../../arm-atollic-eabi/lib/armv6-m\libc_nano.a(lib_a-stdio.o)
                0x0800eb20                __sclose
 .text.__swbuf_r
                0x0800eb2c       0xac c:/program files (x86)/atollic/truestudio for stm32 9.3.0/armtools/bin/../lib/gcc/arm-atollic-eabi/6.3.1/../../../../arm-atollic-eabi/lib/armv6-m\libc_nano.a(lib_a-wbuf.o)
                0x0800eb2c                __swbuf_r
 .text._write_r
                0x0800ebd8       0x28 c:/program files (x86)/atollic/truestudio for stm32 9.3.0/armtools/bin/../lib/gcc/arm-atollic-eabi/6.3.1/../../../../arm-atollic-eabi/lib/armv6-m\libc_nano.a(lib_a-writer.o)
                0x0800ebd8                _write_r
 .text.__swsetup_r
                0x0800ec00       0xec c:/program files (x86)/atollic/truestudio for stm32 9.3.0/armtools/bin/../lib/gcc/arm-atollic-eabi/6.3.1/../../../../arm-atollic-eabi/lib/armv6-m\libc_nano.a(lib_a-wsetup.o)
                0x0800ec00                __swsetup_r
 .text._close_r
                0x0800ecec       0x24 c:/program files (x86)/atollic/truestudio for stm32 9.3.0/armtools/bin/../lib/gcc/arm-atollic-eabi/6.3.1/../../../../arm-atollic-eabi/lib/armv6-m\libc_nano.a(lib_a-closer.o)
                0x0800ecec                _close_r
 .text.__sflush_r
                0x0800ed10      0x114 c:/program files (x86)/atollic/truestudio for stm32 9.3.0/armtools/bin/../lib/gcc/arm-atollic-eabi/6.3.1/../../../../arm-atollic-eabi/lib/armv6-m\libc_nano.a(lib_a-fflush.o)
                0x0800ed10                __sflush_r
 .text._fflush_r
                0x0800ee24       0x58 c:/program files (x86)/atollic/truestudio for stm32 9.3.0/armtools/bin/../lib/gcc/arm-atollic-eabi/6.3.1/../../../../arm-atollic-eabi/lib/armv6-m\libc_nano.a(lib_a-fflush.o)
                0x0800ee24                _fflush_r
 .text._lseek_r
                0x0800ee7c       0x28 c:/program files (x86)/atollic/truestudio for stm32 9.3.0/armtools/bin/../lib/gcc/arm-atollic-eabi/6.3.1/../../../../arm-atollic-eabi/lib/armv6-m\libc_nano.a(lib_a-lseekr.o)
                0x0800ee7c                _lseek_r
 .text.__swhatbuf_r
                0x0800eea4       0x50 c:/program files (x86)/atollic/truestudio for stm32 9.3.0/armtools/bin/../lib/gcc/arm-atollic-eabi/6.3.1/../../../../arm-atollic-eabi/lib/armv6-m\libc_nano.a(lib_a-makebuf.o)
                0x0800eea4                __swhatbuf_r
 .text.__smakebuf_r
                0x0800eef4       0x88 c:/program files (x86)/atollic/truestudio for stm32 9.3.0/armtools/bin/../lib/gcc/arm-atollic-eabi/6.3.1/../../../../arm-atollic-eabi/lib/armv6-m\libc_nano.a(lib_a-makebuf.o)
                0x0800eef4                __smakebuf_r
 .text.memchr   0x0800ef7c       0x16 c:/program files (x86)/atollic/truestudio for stm32 9.3.0/armtools/bin/../lib/gcc/arm-atollic-eabi/6.3.1/../../../../arm-atollic-eabi/lib/armv6-m\libc_nano.a(lib_a-memchr-stub.o)
                0x0800ef7c                memchr
 *fill*         0x0800ef92        0x2 
 .text._read_r  0x0800ef94       0x28 c:/program files (x86)/atollic/truestudio for stm32 9.3.0/armtools/bin/../lib/gcc/arm-atollic-eabi/6.3.1/../../../../arm-atollic-eabi/lib/armv6-m\libc_nano.a(lib_a-readr.o)
                0x0800ef94                _read_r
 .text._fstat_r
                0x0800efbc       0x24 c:/program files (x86)/atollic/truestudio for stm32 9.3.0/armtools/bin/../lib/gcc/arm-atollic-eabi/6.3.1/../../../../arm-atollic-eabi/lib/armv6-m\libc_nano.a(lib_a-fstatr.o)
                0x0800efbc                _fstat_r
 .text._isatty_r
                0x0800efe0       0x24 c:/program files (x86)/atollic/truestudio for stm32 9.3.0/armtools/bin/../lib/gcc/arm-atollic-eabi/6.3.1/../../../../arm-atollic-eabi/lib/armv6-m\libc_nano.a(lib_a-isattyr.o)
                0x0800efe0                _isatty_r
 *(.glue_7)
 .glue_7        0x0800f004        0x0 linker stubs
 *(.glue_7t)
 .glue_7t       0x0800f004        0x0 linker stubs
 *(.eh_frame)
 .eh_frame      0x0800f004        0x0 c:/program files (x86)/atollic/truestudio for stm32 9.3.0/armtools/bin/../lib/gcc/arm-atollic-eabi/6.3.1/armv6-m/crtbegin.o
 *(.init)
 .init          0x0800f004        0x4 c:/program files (x86)/atollic/truestudio for stm32 9.3.0/armtools/bin/../lib/gcc/arm-atollic-eabi/6.3.1/armv6-m/crti.o
                0x0800f004                _init
 .init          0x0800f008        0x8 c:/program files (x86)/atollic/truestudio for stm32 9.3.0/armtools/bin/../lib/gcc/arm-atollic-eabi/6.3.1/armv6-m/crtn.o
 *(.fini)
 .fini          0x0800f010        0x4 c:/program files (x86)/atollic/truestudio for stm32 9.3.0/armtools/bin/../lib/gcc/arm-atollic-eabi/6.3.1/armv6-m/crti.o
                0x0800f010                _fini
 .fini          0x0800f014        0x8 c:/program files (x86)/atollic/truestudio for stm32 9.3.0/armtools/bin/../lib/gcc/arm-atollic-eabi/6.3.1/armv6-m/crtn.o
                0x0800f01c                . = ALIGN (0x4)
                0x0800f01c                _etext = .

.vfp11_veneer   0x0800f01c        0x0
 .vfp11_veneer  0x0800f01c        0x0 linker stubs

.v4_bx          0x0800f01c        0x0
 .v4_bx         0x0800f01c        0x0 linker stubs

.iplt           0x0800f01c        0x0
 .iplt          0x0800f01c        0x0 c:/program files (x86)/atollic/truestudio for stm32 9.3.0/armtools/bin/../lib/gcc/arm-atollic-eabi/6.3.1/armv6-m/crtbegin.o

.rodata         0x0800f01c      0x5c0
                0x0800f01c                . = ALIGN (0x4)
 *(.rodata)
 .rodata        0x0800f01c       0x3d Core\Src\main.o
 *fill*         0x0800f059        0x3 
 .rodata        0x0800f05c       0x38 Drivers\STM32F0xx_HAL_Driver\Src\stm32f0xx_hal_adc.o
 .rodata        0x0800f094       0x3b Drivers\STM32F0xx_HAL_Driver\Src\stm32f0xx_hal_adc_ex.o
 *fill*         0x0800f0cf        0x1 
 .rodata        0x0800f0d0       0x3b Drivers\STM32F0xx_HAL_Driver\Src\stm32f0xx_hal_cortex.o
 *fill*         0x0800f10b        0x1 
 .rodata        0x0800f10c       0x38 Drivers\STM32F0xx_HAL_Driver\Src\stm32f0xx_hal_dma.o
 .rodata        0x0800f144       0x39 Drivers\STM32F0xx_HAL_Driver\Src\stm32f0xx_hal_gpio.o
 *fill*         0x0800f17d        0x3 
 .rodata        0x0800f180       0x38 Drivers\STM32F0xx_HAL_Driver\Src\stm32f0xx_hal_i2c.o
 .rodata        0x0800f1b8       0x3b Drivers\STM32F0xx_HAL_Driver\Src\stm32f0xx_hal_i2c_ex.o
 *fill*         0x0800f1f3        0x1 
 .rodata        0x0800f1f4       0x39 Drivers\STM32F0xx_HAL_Driver\Src\stm32f0xx_hal_iwdg.o
 *fill*         0x0800f22d        0x3 
 .rodata        0x0800f230       0x58 Drivers\STM32F0xx_HAL_Driver\Src\stm32f0xx_hal_rcc.o
 .rodata        0x0800f288       0x3b Drivers\STM32F0xx_HAL_Driver\Src\stm32f0xx_hal_rcc_ex.o
 *fill*         0x0800f2c3        0x1 
 .rodata        0x0800f2c4       0x38 Drivers\STM32F0xx_HAL_Driver\Src\stm32f0xx_hal_spi.o
 .rodata        0x0800f2fc       0x38 Drivers\STM32F0xx_HAL_Driver\Src\stm32f0xx_hal_tim.o
 .rodata        0x0800f334       0x3b Drivers\STM32F0xx_HAL_Driver\Src\stm32f0xx_hal_tim_ex.o
 *fill*         0x0800f36f        0x1 
 .rodata        0x0800f370       0x39 Drivers\STM32F0xx_HAL_Driver\Src\stm32f0xx_hal_uart.o
 *(.rodata*)
 *fill*         0x0800f3a9        0x3 
 .rodata.SixteenSegmentASCII
                0x0800f3ac       0xc0 Core\Src\display_16segments.o
                0x0800f3ac                SixteenSegmentASCII
 .rodata.SixteenSegmentNUM
                0x0800f46c       0x20 Core\Src\display_16segments.o
                0x0800f46c                SixteenSegmentNUM
 .rodata.Display16Seg_All_Single
                0x0800f48c       0x40 Core\Src\display_16segments.o
 .rodata.AHBPrescTable
                0x0800f4cc       0x10 Core\Src\system_stm32f0xx.o
                0x0800f4cc                AHBPrescTable
 .rodata.APBPrescTable
                0x0800f4dc        0x8 Core\Src\system_stm32f0xx.o
                0x0800f4dc                APBPrescTable
 .rodata.USBD_StdDevReq
                0x0800f4e4       0x28 Middlewares\ST\STM32_USB_Device_Library\Core\Src\usbd_ctlreq.o
 .rodata.USBD_GetDescriptor
                0x0800f50c       0x38 Middlewares\ST\STM32_USB_Device_Library\Core\Src\usbd_ctlreq.o
 .rodata._global_impure_ptr
                0x0800f544        0x4 c:/program files (x86)/atollic/truestudio for stm32 9.3.0/armtools/bin/../lib/gcc/arm-atollic-eabi/6.3.1/../../../../arm-atollic-eabi/lib/armv6-m\libc_nano.a(lib_a-impure.o)
                0x0800f544                _global_impure_ptr
 .rodata.__sf_fake_stderr
                0x0800f548       0x20 c:/program files (x86)/atollic/truestudio for stm32 9.3.0/armtools/bin/../lib/gcc/arm-atollic-eabi/6.3.1/../../../../arm-atollic-eabi/lib/armv6-m\libc_nano.a(lib_a-findfp.o)
                0x0800f548                __sf_fake_stderr
 .rodata.__sf_fake_stdin
                0x0800f568       0x20 c:/program files (x86)/atollic/truestudio for stm32 9.3.0/armtools/bin/../lib/gcc/arm-atollic-eabi/6.3.1/../../../../arm-atollic-eabi/lib/armv6-m\libc_nano.a(lib_a-findfp.o)
                0x0800f568                __sf_fake_stdin
 .rodata.__sf_fake_stdout
                0x0800f588       0x20 c:/program files (x86)/atollic/truestudio for stm32 9.3.0/armtools/bin/../lib/gcc/arm-atollic-eabi/6.3.1/../../../../arm-atollic-eabi/lib/armv6-m\libc_nano.a(lib_a-findfp.o)
                0x0800f588                __sf_fake_stdout
 .rodata._vfprintf_r.str1.1
                0x0800f5a8       0x11 c:/program files (x86)/atollic/truestudio for stm32 9.3.0/armtools/bin/../lib/gcc/arm-atollic-eabi/6.3.1/../../../../arm-atollic-eabi/lib/armv6-m\libc_nano.a(lib_a-nano-vfprintf.o)
 .rodata._printf_i.str1.1
                0x0800f5b9       0x22 c:/program files (x86)/atollic/truestudio for stm32 9.3.0/armtools/bin/../lib/gcc/arm-atollic-eabi/6.3.1/../../../../arm-atollic-eabi/lib/armv6-m\libc_nano.a(lib_a-nano-vfprintf_i.o)
                0x0800f5dc                . = ALIGN (0x4)
 *fill*         0x0800f5db        0x1 

.rel.dyn        0x0800f5dc        0x0
 .rel.iplt      0x0800f5dc        0x0 c:/program files (x86)/atollic/truestudio for stm32 9.3.0/armtools/bin/../lib/gcc/arm-atollic-eabi/6.3.1/armv6-m/crtbegin.o

.ARM.extab
 *(.ARM.extab* .gnu.linkonce.armextab.*)

.ARM            0x0800f5dc        0x0
                0x0800f5dc                __exidx_start = .
 *(.ARM.exidx*)
                0x0800f5dc                __exidx_end = .

.preinit_array  0x0800f5dc        0x0
                0x0800f5dc                PROVIDE (__preinit_array_start, .)
 *(.preinit_array*)
                0x0800f5dc                PROVIDE (__preinit_array_end, .)

.init_array     0x0800f5dc        0x4
                0x0800f5dc                PROVIDE (__init_array_start, .)
 *(SORT(.init_array.*))
 *(.init_array*)
 .init_array    0x0800f5dc        0x4 c:/program files (x86)/atollic/truestudio for stm32 9.3.0/armtools/bin/../lib/gcc/arm-atollic-eabi/6.3.1/armv6-m/crtbegin.o
                0x0800f5e0                PROVIDE (__init_array_end, .)

.fini_array     0x0800f5e0        0x4
                [!provide]                PROVIDE (__fini_array_start, .)
 *(SORT(.fini_array.*))
 *(.fini_array*)
 .fini_array    0x0800f5e0        0x4 c:/program files (x86)/atollic/truestudio for stm32 9.3.0/armtools/bin/../lib/gcc/arm-atollic-eabi/6.3.1/armv6-m/crtbegin.o
                [!provide]                PROVIDE (__fini_array_end, .)
                0x0800f5e4                _sidata = LOADADDR (.data)

.data           0x20000000       0xe4 load address 0x0800f5e4
                0x20000000                . = ALIGN (0x4)
                0x20000000                _sdata = .
 *(.data)
 *(.data*)
 .data.switch_port
                0x20000000       0x30 Core\Src\input_keyboard.o
                0x20000000                switch_port
 .data.switch_pin
                0x20000030       0x18 Core\Src\input_keyboard.o
                0x20000030                switch_pin
 .data.RGB_Color_Table
                0x20000048       0x30 Core\Src\led_driver_PCA9685.o
                0x20000048                RGB_Color_Table
 .data.SystemCoreClock
                0x20000078        0x4 Core\Src\system_stm32f0xx.o
                0x20000078                SystemCoreClock
 .data.uwTickFreq
                0x2000007c        0x1 Drivers\STM32F0xx_HAL_Driver\Src\stm32f0xx_hal.o
                0x2000007c                uwTickFreq
 *fill*         0x2000007d        0x3 
 .data._impure_ptr
                0x20000080        0x4 c:/program files (x86)/atollic/truestudio for stm32 9.3.0/armtools/bin/../lib/gcc/arm-atollic-eabi/6.3.1/../../../../arm-atollic-eabi/lib/armv6-m\libc_nano.a(lib_a-impure.o)
                0x20000080                _impure_ptr
 .data.impure_data
                0x20000084       0x60 c:/program files (x86)/atollic/truestudio for stm32 9.3.0/armtools/bin/../lib/gcc/arm-atollic-eabi/6.3.1/../../../../arm-atollic-eabi/lib/armv6-m\libc_nano.a(lib_a-impure.o)
                0x200000e4                . = ALIGN (0x4)
                0x200000e4                _edata = .

.igot.plt       0x200000e4        0x0 load address 0x0800f6c8
 .igot.plt      0x200000e4        0x0 c:/program files (x86)/atollic/truestudio for stm32 9.3.0/armtools/bin/../lib/gcc/arm-atollic-eabi/6.3.1/armv6-m/crtbegin.o
                0x200000e4                . = ALIGN (0x4)

.bss            0x200000e8      0x8b4 load address 0x0800f6c8
                0x200000e8                _sbss = .
                0x200000e8                __bss_start__ = _sbss
 *(.bss)
 .bss           0x200000e8       0x1c c:/program files (x86)/atollic/truestudio for stm32 9.3.0/armtools/bin/../lib/gcc/arm-atollic-eabi/6.3.1/armv6-m/crtbegin.o
 *(.bss*)
 .bss.heap_end.5887
                0x20000104        0x4 Core\Src\syscalls.o
 .bss.cfgidx.8921
                0x20000108        0x1 Middlewares\ST\STM32_USB_Device_Library\Core\Src\usbd_ctlreq.o
 *fill*         0x20000109        0x3 
 .bss.__malloc_free_list
                0x2000010c        0x4 c:/program files (x86)/atollic/truestudio for stm32 9.3.0/armtools/bin/../lib/gcc/arm-atollic-eabi/6.3.1/../../../../arm-atollic-eabi/lib/armv6-m\libc_nano.a(lib_a-nano-mallocr.o)
                0x2000010c                __malloc_free_list
 .bss.__malloc_sbrk_start
                0x20000110        0x4 c:/program files (x86)/atollic/truestudio for stm32 9.3.0/armtools/bin/../lib/gcc/arm-atollic-eabi/6.3.1/../../../../arm-atollic-eabi/lib/armv6-m\libc_nano.a(lib_a-nano-mallocr.o)
                0x20000110                __malloc_sbrk_start
 *(COMMON)
 *fill*         0x20000114        0x4 
 COMMON         0x20000118      0x1b4 Core\Src\Modbus_DMA\mdb.o
                0x20000118                led_to_change
                0x2000011c                sw_debounce1_counter
                0x20000134                longpress_time_ms
                0x20000136                duty_blue
                0x20000137                display_refresh_event
                0x20000138                msg_disp16
                0x20000148                test_visel
                0x20000174                keys_visel
                0x2000017a                opera_keyboard_conf
                0x2000017c                keyboard_short
                0x2000017e                adr_modbus_reg
                0x20000180                sys_time_flag
                0x20000181                display_refresh_start_event
                0x20000188                main_clock
                0x200001b0                PCA9585_i2caddr
                0x200001b4                led_RGB
                0x200001e4                last_recv_mdb_time
                0x200001e8                keyboard_1click
                0x200001ec                click_double_press_time
                0x200001f0                pos_led_strip
                0x200001f1                DP_SW_RS485_adr
                0x200001f4                timeout_mdb_no_msg
                0x200001f8                new_data_rx
                0x200001f9                duty_red
                0x200001fc                sw_debounce2_counter
                0x20000214                long_press_time
                0x20000218                sw_debounce3_counter
                0x20000230                switches_bitmap_deb3
                0x20000232                switches_bitmap_deb2
                0x20000234                keyboard_dose
                0x20000238                buffer_RX_RS232
                0x20000244                messaggio
                0x20000258                time_refresh_led
                0x2000025c                PCA9685_invert
                0x2000025d                parameter_to_read
                0x20000260                buffer_TX_RS232
                0x2000026a                interclik_time_ms
                0x2000026c                keyboard_2click
                0x2000026e                wait_reply
                0x2000026f                opera_state
                0x20000270                duty_green
                0x20000271                change_state
                0x20000272                TOGGLE_PIN_LED
                0x20000273                char_disp_17seg
                0x20000274                sw_deb_release_cnt
                0x2000028c                PCA9685_prescale
                0x2000028e                switches_bitmap_deb1
                0x20000290                switches_bitmap_actual
                0x20000294                keyboard_raw
                0x20000298                short_press_time
                0x2000029c                version_fw
                0x200002a0                keyboard_long
                0x200002a4                current_sense_key
                0x200002bc                RGB_color_start
                0x200002c8                read_keyboard_event
                0x200002c9                char_rx_to_display
                0x200002ca                RGB_Transition
                0x200002cb                PCA9685_delay_event
 COMMON         0x200002cc       0x40 Core\Src\adc.o
                0x200002cc                hadc
 COMMON         0x2000030c       0x90 Core\Src\i2c.o
                0x2000030c                hi2c1
                0x20000358                hdma_i2c1_rx
 COMMON         0x2000039c       0x10 Core\Src\iwdg.o
                0x2000039c                hiwdg
 COMMON         0x200003ac        0x8 Core\Src\shiftreg_lib.o
                0x200003ac                _SFEbarGraphLatchPin
                0x200003ad                _SFEbarGraphNumBoards
                0x200003b0                _SFEbarGraphCanvas
 COMMON         0x200003b4       0x64 Core\Src\spi.o
                0x200003b4                hspi2
 COMMON         0x20000418       0x40 Core\Src\stm32f0xx_hal_timebase_tim.o
                0x20000418                htim1
 COMMON         0x20000458      0x140 Core\Src\tim.o
                0x20000458                htim17
                0x20000498                htim6
                0x200004d8                htim14
                0x20000518                htim16
                0x20000558                htim7
 COMMON         0x20000598      0x188 Core\Src\usart.o
                0x20000598                hdma_usart2_rx
                0x200005dc                hdma_usart1_rx
                0x20000620                huart1
                0x200006a0                huart2
 COMMON         0x20000720        0x4 Drivers\STM32F0xx_HAL_Driver\Src\stm32f0xx_hal.o
                0x20000720                uwTick
 COMMON         0x20000724      0x274 USB_DEVICE\Target\usbd_conf.o
                0x20000724                hpcd_USB_FS
 COMMON         0x20000998        0x4 c:/program files (x86)/atollic/truestudio for stm32 9.3.0/armtools/bin/../lib/gcc/arm-atollic-eabi/6.3.1/../../../../arm-atollic-eabi/lib/armv6-m\libc_nano.a(lib_a-reent.o)
                0x20000998                errno
                0x2000099c                . = ALIGN (0x4)
                0x2000099c                _ebss = .
                0x2000099c                __bss_end__ = _ebss

._user_heap_stack
                0x2000099c      0x600 load address 0x0800f6c8
                0x2000099c                . = ALIGN (0x4)
                0x2000099c                PROVIDE (end, .)
                [!provide]                PROVIDE (_end, .)
                0x20000b9c                . = (. + _Min_Heap_Size)
 *fill*         0x2000099c      0x200 
                0x20000f9c                . = (. + _Min_Stack_Size)
 *fill*         0x20000b9c      0x400 
                0x20000f9c                . = ALIGN (0x4)

/DISCARD/
 libc.a(*)
 libm.a(*)
 libgcc.a(*)

.ARM.attributes
                0x00000000       0x28
 *(.ARM.attributes)
 .ARM.attributes
                0x00000000       0x1e c:/program files (x86)/atollic/truestudio for stm32 9.3.0/armtools/bin/../lib/gcc/arm-atollic-eabi/6.3.1/armv6-m/crti.o
 .ARM.attributes
                0x0000001e       0x2c c:/program files (x86)/atollic/truestudio for stm32 9.3.0/armtools/bin/../lib/gcc/arm-atollic-eabi/6.3.1/armv6-m/crtbegin.o
 .ARM.attributes
                0x0000004a       0x31 Core\Src\Modbus_DMA\mdb.o
 .ARM.attributes
                0x0000007b       0x31 Core\Src\adc.o
 .ARM.attributes
                0x000000ac       0x31 Core\Src\display_16segments.o
 .ARM.attributes
                0x000000dd       0x31 Core\Src\dma.o
 .ARM.attributes
                0x0000010e       0x31 Core\Src\gpio.o
 .ARM.attributes
                0x0000013f       0x31 Core\Src\i2c.o
 .ARM.attributes
                0x00000170       0x31 Core\Src\input_keyboard.o
 .ARM.attributes
                0x000001a1       0x31 Core\Src\iwdg.o
 .ARM.attributes
                0x000001d2       0x31 Core\Src\led_driver_PCA9685.o
 .ARM.attributes
                0x00000203       0x31 Core\Src\main.o
 .ARM.attributes
                0x00000234       0x31 Core\Src\shiftreg_lib.o
 .ARM.attributes
                0x00000265       0x31 Core\Src\spi.o
 .ARM.attributes
                0x00000296       0x31 Core\Src\stm32f0xx_hal_msp.o
 .ARM.attributes
                0x000002c7       0x31 Core\Src\stm32f0xx_hal_timebase_tim.o
 .ARM.attributes
                0x000002f8       0x31 Core\Src\stm32f0xx_it.o
 .ARM.attributes
                0x00000329       0x31 Core\Src\syscalls.o
 .ARM.attributes
                0x0000035a       0x31 Core\Src\system_stm32f0xx.o
 .ARM.attributes
                0x0000038b       0x31 Core\Src\tim.o
 .ARM.attributes
                0x000003bc       0x31 Core\Src\usart.o
 .ARM.attributes
                0x000003ed       0x31 Drivers\STM32F0xx_HAL_Driver\Src\stm32f0xx_hal.o
 .ARM.attributes
                0x0000041e       0x31 Drivers\STM32F0xx_HAL_Driver\Src\stm32f0xx_hal_adc.o
 .ARM.attributes
                0x0000044f       0x31 Drivers\STM32F0xx_HAL_Driver\Src\stm32f0xx_hal_adc_ex.o
 .ARM.attributes
                0x00000480       0x31 Drivers\STM32F0xx_HAL_Driver\Src\stm32f0xx_hal_cortex.o
 .ARM.attributes
                0x000004b1       0x31 Drivers\STM32F0xx_HAL_Driver\Src\stm32f0xx_hal_dma.o
 .ARM.attributes
                0x000004e2       0x31 Drivers\STM32F0xx_HAL_Driver\Src\stm32f0xx_hal_gpio.o
 .ARM.attributes
                0x00000513       0x31 Drivers\STM32F0xx_HAL_Driver\Src\stm32f0xx_hal_i2c.o
 .ARM.attributes
                0x00000544       0x31 Drivers\STM32F0xx_HAL_Driver\Src\stm32f0xx_hal_i2c_ex.o
 .ARM.attributes
                0x00000575       0x31 Drivers\STM32F0xx_HAL_Driver\Src\stm32f0xx_hal_iwdg.o
 .ARM.attributes
                0x000005a6       0x31 Drivers\STM32F0xx_HAL_Driver\Src\stm32f0xx_hal_pcd.o
 .ARM.attributes
                0x000005d7       0x31 Drivers\STM32F0xx_HAL_Driver\Src\stm32f0xx_hal_pcd_ex.o
 .ARM.attributes
                0x00000608       0x31 Drivers\STM32F0xx_HAL_Driver\Src\stm32f0xx_hal_rcc.o
 .ARM.attributes
                0x00000639       0x31 Drivers\STM32F0xx_HAL_Driver\Src\stm32f0xx_hal_rcc_ex.o
 .ARM.attributes
                0x0000066a       0x31 Drivers\STM32F0xx_HAL_Driver\Src\stm32f0xx_hal_spi.o
 .ARM.attributes
                0x0000069b       0x31 Drivers\STM32F0xx_HAL_Driver\Src\stm32f0xx_hal_tim.o
 .ARM.attributes
                0x000006cc       0x31 Drivers\STM32F0xx_HAL_Driver\Src\stm32f0xx_hal_tim_ex.o
 .ARM.attributes
                0x000006fd       0x31 Drivers\STM32F0xx_HAL_Driver\Src\stm32f0xx_hal_uart.o
 .ARM.attributes
                0x0000072e       0x31 Drivers\STM32F0xx_HAL_Driver\Src\stm32f0xx_hal_uart_ex.o
 .ARM.attributes
                0x0000075f       0x31 Drivers\STM32F0xx_HAL_Driver\Src\stm32f0xx_ll_usb.o
 .ARM.attributes
                0x00000790       0x31 Middlewares\ST\STM32_USB_Device_Library\Core\Src\usbd_core.o
 .ARM.attributes
                0x000007c1       0x31 Middlewares\ST\STM32_USB_Device_Library\Core\Src\usbd_ctlreq.o
 .ARM.attributes
                0x000007f2       0x31 Middlewares\ST\STM32_USB_Device_Library\Core\Src\usbd_ioreq.o
 .ARM.attributes
                0x00000823       0x31 USB_DEVICE\Target\usbd_conf.o
 .ARM.attributes
                0x00000854       0x21 startup\startup_stm32f072xb.o
 .ARM.attributes
                0x00000875       0x2c c:/program files (x86)/atollic/truestudio for stm32 9.3.0/armtools/bin/../lib/gcc/arm-atollic-eabi/6.3.1/../../../../arm-atollic-eabi/lib/armv6-m\libc_nano.a(lib_a-errno.o)
 .ARM.attributes
                0x000008a1       0x2c c:/program files (x86)/atollic/truestudio for stm32 9.3.0/armtools/bin/../lib/gcc/arm-atollic-eabi/6.3.1/../../../../arm-atollic-eabi/lib/armv6-m\libc_nano.a(lib_a-impure.o)
 .ARM.attributes
                0x000008cd       0x2c c:/program files (x86)/atollic/truestudio for stm32 9.3.0/armtools/bin/../lib/gcc/arm-atollic-eabi/6.3.1/../../../../arm-atollic-eabi/lib/armv6-m\libc_nano.a(lib_a-init.o)
 .ARM.attributes
                0x000008f9       0x2c c:/program files (x86)/atollic/truestudio for stm32 9.3.0/armtools/bin/../lib/gcc/arm-atollic-eabi/6.3.1/../../../../arm-atollic-eabi/lib/armv6-m\libc_nano.a(lib_a-malloc.o)
 .ARM.attributes
                0x00000925       0x2c c:/program files (x86)/atollic/truestudio for stm32 9.3.0/armtools/bin/../lib/gcc/arm-atollic-eabi/6.3.1/../../../../arm-atollic-eabi/lib/armv6-m\libc_nano.a(lib_a-memcpy-stub.o)
 .ARM.attributes
                0x00000951       0x2c c:/program files (x86)/atollic/truestudio for stm32 9.3.0/armtools/bin/../lib/gcc/arm-atollic-eabi/6.3.1/../../../../arm-atollic-eabi/lib/armv6-m\libc_nano.a(lib_a-memset.o)
 .ARM.attributes
                0x0000097d       0x2c c:/program files (x86)/atollic/truestudio for stm32 9.3.0/armtools/bin/../lib/gcc/arm-atollic-eabi/6.3.1/../../../../arm-atollic-eabi/lib/armv6-m\libc_nano.a(lib_a-nano-freer.o)
 .ARM.attributes
                0x000009a9       0x2c c:/program files (x86)/atollic/truestudio for stm32 9.3.0/armtools/bin/../lib/gcc/arm-atollic-eabi/6.3.1/../../../../arm-atollic-eabi/lib/armv6-m\libc_nano.a(lib_a-nano-mallocr.o)
 .ARM.attributes
                0x000009d5       0x2c c:/program files (x86)/atollic/truestudio for stm32 9.3.0/armtools/bin/../lib/gcc/arm-atollic-eabi/6.3.1/../../../../arm-atollic-eabi/lib/armv6-m\libc_nano.a(lib_a-printf.o)
 .ARM.attributes
                0x00000a01       0x2c c:/program files (x86)/atollic/truestudio for stm32 9.3.0/armtools/bin/../lib/gcc/arm-atollic-eabi/6.3.1/../../../../arm-atollic-eabi/lib/armv6-m\libc_nano.a(lib_a-sbrkr.o)
 .ARM.attributes
                0x00000a2d       0x1c c:/program files (x86)/atollic/truestudio for stm32 9.3.0/armtools/bin/../lib/gcc/arm-atollic-eabi/6.3.1/../../../../arm-atollic-eabi/lib/armv6-m\libc_nano.a(lib_a-strlen.o)
 .ARM.attributes
                0x00000a49       0x2c c:/program files (x86)/atollic/truestudio for stm32 9.3.0/armtools/bin/../lib/gcc/arm-atollic-eabi/6.3.1/../../../../arm-atollic-eabi/lib/armv6-m\libc_nano.a(lib_a-findfp.o)
 .ARM.attributes
                0x00000a75       0x2c c:/program files (x86)/atollic/truestudio for stm32 9.3.0/armtools/bin/../lib/gcc/arm-atollic-eabi/6.3.1/../../../../arm-atollic-eabi/lib/armv6-m\libc_nano.a(lib_a-fwalk.o)
 .ARM.attributes
                0x00000aa1       0x2c c:/program files (x86)/atollic/truestudio for stm32 9.3.0/armtools/bin/../lib/gcc/arm-atollic-eabi/6.3.1/../../../../arm-atollic-eabi/lib/armv6-m\libc_nano.a(lib_a-mlock.o)
 .ARM.attributes
                0x00000acd       0x2c c:/program files (x86)/atollic/truestudio for stm32 9.3.0/armtools/bin/../lib/gcc/arm-atollic-eabi/6.3.1/../../../../arm-atollic-eabi/lib/armv6-m\libc_nano.a(lib_a-nano-vfprintf.o)
 .ARM.attributes
                0x00000af9       0x2c c:/program files (x86)/atollic/truestudio for stm32 9.3.0/armtools/bin/../lib/gcc/arm-atollic-eabi/6.3.1/../../../../arm-atollic-eabi/lib/armv6-m\libc_nano.a(lib_a-nano-vfprintf_i.o)
 .ARM.attributes
                0x00000b25       0x2c c:/program files (x86)/atollic/truestudio for stm32 9.3.0/armtools/bin/../lib/gcc/arm-atollic-eabi/6.3.1/../../../../arm-atollic-eabi/lib/armv6-m\libc_nano.a(lib_a-reent.o)
 .ARM.attributes
                0x00000b51       0x2c c:/program files (x86)/atollic/truestudio for stm32 9.3.0/armtools/bin/../lib/gcc/arm-atollic-eabi/6.3.1/../../../../arm-atollic-eabi/lib/armv6-m\libc_nano.a(lib_a-stdio.o)
 .ARM.attributes
                0x00000b7d       0x2c c:/program files (x86)/atollic/truestudio for stm32 9.3.0/armtools/bin/../lib/gcc/arm-atollic-eabi/6.3.1/../../../../arm-atollic-eabi/lib/armv6-m\libc_nano.a(lib_a-wbuf.o)
 .ARM.attributes
                0x00000ba9       0x2c c:/program files (x86)/atollic/truestudio for stm32 9.3.0/armtools/bin/../lib/gcc/arm-atollic-eabi/6.3.1/../../../../arm-atollic-eabi/lib/armv6-m\libc_nano.a(lib_a-writer.o)
 .ARM.attributes
                0x00000bd5       0x2c c:/program files (x86)/atollic/truestudio for stm32 9.3.0/armtools/bin/../lib/gcc/arm-atollic-eabi/6.3.1/../../../../arm-atollic-eabi/lib/armv6-m\libc_nano.a(lib_a-wsetup.o)
 .ARM.attributes
                0x00000c01       0x2c c:/program files (x86)/atollic/truestudio for stm32 9.3.0/armtools/bin/../lib/gcc/arm-atollic-eabi/6.3.1/../../../../arm-atollic-eabi/lib/armv6-m\libc_nano.a(lib_a-closer.o)
 .ARM.attributes
                0x00000c2d       0x2c c:/program files (x86)/atollic/truestudio for stm32 9.3.0/armtools/bin/../lib/gcc/arm-atollic-eabi/6.3.1/../../../../arm-atollic-eabi/lib/armv6-m\libc_nano.a(lib_a-fflush.o)
 .ARM.attributes
                0x00000c59       0x2c c:/program files (x86)/atollic/truestudio for stm32 9.3.0/armtools/bin/../lib/gcc/arm-atollic-eabi/6.3.1/../../../../arm-atollic-eabi/lib/armv6-m\libc_nano.a(lib_a-lseekr.o)
 .ARM.attributes
                0x00000c85       0x2c c:/program files (x86)/atollic/truestudio for stm32 9.3.0/armtools/bin/../lib/gcc/arm-atollic-eabi/6.3.1/../../../../arm-atollic-eabi/lib/armv6-m\libc_nano.a(lib_a-makebuf.o)
 .ARM.attributes
                0x00000cb1       0x2c c:/program files (x86)/atollic/truestudio for stm32 9.3.0/armtools/bin/../lib/gcc/arm-atollic-eabi/6.3.1/../../../../arm-atollic-eabi/lib/armv6-m\libc_nano.a(lib_a-memchr-stub.o)
 .ARM.attributes
                0x00000cdd       0x2c c:/program files (x86)/atollic/truestudio for stm32 9.3.0/armtools/bin/../lib/gcc/arm-atollic-eabi/6.3.1/../../../../arm-atollic-eabi/lib/armv6-m\libc_nano.a(lib_a-readr.o)
 .ARM.attributes
                0x00000d09       0x2c c:/program files (x86)/atollic/truestudio for stm32 9.3.0/armtools/bin/../lib/gcc/arm-atollic-eabi/6.3.1/../../../../arm-atollic-eabi/lib/armv6-m\libc_nano.a(lib_a-fstatr.o)
 .ARM.attributes
                0x00000d35       0x2c c:/program files (x86)/atollic/truestudio for stm32 9.3.0/armtools/bin/../lib/gcc/arm-atollic-eabi/6.3.1/../../../../arm-atollic-eabi/lib/armv6-m\libc_nano.a(lib_a-isattyr.o)
 .ARM.attributes
                0x00000d61       0x1e c:/program files (x86)/atollic/truestudio for stm32 9.3.0/armtools/bin/../lib/gcc/arm-atollic-eabi/6.3.1/armv6-m\libgcc.a(_udivsi3.o)
 .ARM.attributes
                0x00000d7f       0x1e c:/program files (x86)/atollic/truestudio for stm32 9.3.0/armtools/bin/../lib/gcc/arm-atollic-eabi/6.3.1/armv6-m\libgcc.a(_divsi3.o)
 .ARM.attributes
                0x00000d9d       0x1e c:/program files (x86)/atollic/truestudio for stm32 9.3.0/armtools/bin/../lib/gcc/arm-atollic-eabi/6.3.1/armv6-m\libgcc.a(_dvmd_tls.o)
 .ARM.attributes
                0x00000dbb       0x1e c:/program files (x86)/atollic/truestudio for stm32 9.3.0/armtools/bin/../lib/gcc/arm-atollic-eabi/6.3.1/armv6-m\libgcc.a(_arm_cmpdf2.o)
 .ARM.attributes
                0x00000dd9       0x2c c:/program files (x86)/atollic/truestudio for stm32 9.3.0/armtools/bin/../lib/gcc/arm-atollic-eabi/6.3.1/armv6-m\libgcc.a(adddf3.o)
 .ARM.attributes
                0x00000e05       0x2c c:/program files (x86)/atollic/truestudio for stm32 9.3.0/armtools/bin/../lib/gcc/arm-atollic-eabi/6.3.1/armv6-m\libgcc.a(eqdf2.o)
 .ARM.attributes
                0x00000e31       0x2c c:/program files (x86)/atollic/truestudio for stm32 9.3.0/armtools/bin/../lib/gcc/arm-atollic-eabi/6.3.1/armv6-m\libgcc.a(gedf2.o)
 .ARM.attributes
                0x00000e5d       0x2c c:/program files (x86)/atollic/truestudio for stm32 9.3.0/armtools/bin/../lib/gcc/arm-atollic-eabi/6.3.1/armv6-m\libgcc.a(ledf2.o)
 .ARM.attributes
                0x00000e89       0x2c c:/program files (x86)/atollic/truestudio for stm32 9.3.0/armtools/bin/../lib/gcc/arm-atollic-eabi/6.3.1/armv6-m\libgcc.a(fixdfsi.o)
 .ARM.attributes
                0x00000eb5       0x1e c:/program files (x86)/atollic/truestudio for stm32 9.3.0/armtools/bin/../lib/gcc/arm-atollic-eabi/6.3.1/armv6-m\libgcc.a(_clzsi2.o)
 .ARM.attributes
                0x00000ed3       0x1e c:/program files (x86)/atollic/truestudio for stm32 9.3.0/armtools/bin/../lib/gcc/arm-atollic-eabi/6.3.1/armv6-m/crtn.o
OUTPUT(VIESEL_COLLAUDO_TASTIERA_SHIFTREG.elf elf32-littlearm)

.debug_info     0x00000000    0x3559d
 .debug_info    0x00000000     0x1a14 Core\Src\Modbus_DMA\mdb.o
 .debug_info    0x00001a14     0x1ca6 Core\Src\adc.o
 .debug_info    0x000036ba     0x1832 Core\Src\display_16segments.o
 .debug_info    0x00004eec     0x15eb Core\Src\dma.o
 .debug_info    0x000064d7     0x16d2 Core\Src\gpio.o
 .debug_info    0x00007ba9     0x1d10 Core\Src\i2c.o
 .debug_info    0x000098b9     0x16fa Core\Src\input_keyboard.o
 .debug_info    0x0000afb3     0x1602 Core\Src\iwdg.o
 .debug_info    0x0000c5b5     0x1f91 Core\Src\led_driver_PCA9685.o
 .debug_info    0x0000e546     0x298c Core\Src\main.o
 .debug_info    0x00010ed2     0x1cde Core\Src\shiftreg_lib.o
 .debug_info    0x00012bb0     0x1b9d Core\Src\spi.o
 .debug_info    0x0001474d     0x1607 Core\Src\stm32f0xx_hal_msp.o
 .debug_info    0x00015d54      0x8a2 Core\Src\stm32f0xx_hal_timebase_tim.o
 .debug_info    0x000165f6     0x27e5 Core\Src\stm32f0xx_it.o
 .debug_info    0x00018ddb      0xf16 Core\Src\syscalls.o
 .debug_info    0x00019cf1      0x2a5 Core\Src\system_stm32f0xx.o
 .debug_info    0x00019f96     0x1d62 Core\Src\tim.o
 .debug_info    0x0001bcf8     0x1d50 Core\Src\usart.o
 .debug_info    0x0001da48      0x6c0 Drivers\STM32F0xx_HAL_Driver\Src\stm32f0xx_hal.o
 .debug_info    0x0001e108      0xca6 Drivers\STM32F0xx_HAL_Driver\Src\stm32f0xx_hal_adc.o
 .debug_info    0x0001edae      0x601 Drivers\STM32F0xx_HAL_Driver\Src\stm32f0xx_hal_adc_ex.o
 .debug_info    0x0001f3af      0x78d Drivers\STM32F0xx_HAL_Driver\Src\stm32f0xx_hal_cortex.o
 .debug_info    0x0001fb3c      0x7a5 Drivers\STM32F0xx_HAL_Driver\Src\stm32f0xx_hal_dma.o
 .debug_info    0x000202e1      0x67a Drivers\STM32F0xx_HAL_Driver\Src\stm32f0xx_hal_gpio.o
 .debug_info    0x0002095b     0x1f3f Drivers\STM32F0xx_HAL_Driver\Src\stm32f0xx_hal_i2c.o
 .debug_info    0x0002289a      0x8c6 Drivers\STM32F0xx_HAL_Driver\Src\stm32f0xx_hal_i2c_ex.o
 .debug_info    0x00023160      0x29d Drivers\STM32F0xx_HAL_Driver\Src\stm32f0xx_hal_iwdg.o
 .debug_info    0x000233fd      0xe64 Drivers\STM32F0xx_HAL_Driver\Src\stm32f0xx_hal_pcd.o
 .debug_info    0x00024261      0x87c Drivers\STM32F0xx_HAL_Driver\Src\stm32f0xx_hal_pcd_ex.o
 .debug_info    0x00024add      0x82d Drivers\STM32F0xx_HAL_Driver\Src\stm32f0xx_hal_rcc.o
 .debug_info    0x0002530a      0x677 Drivers\STM32F0xx_HAL_Driver\Src\stm32f0xx_hal_rcc_ex.o
 .debug_info    0x00025981     0x1600 Drivers\STM32F0xx_HAL_Driver\Src\stm32f0xx_hal_spi.o
 .debug_info    0x00026f81     0x2527 Drivers\STM32F0xx_HAL_Driver\Src\stm32f0xx_hal_tim.o
 .debug_info    0x000294a8     0x10ec Drivers\STM32F0xx_HAL_Driver\Src\stm32f0xx_hal_tim_ex.o
 .debug_info    0x0002a594     0x1574 Drivers\STM32F0xx_HAL_Driver\Src\stm32f0xx_hal_uart.o
 .debug_info    0x0002bb08      0x87a Drivers\STM32F0xx_HAL_Driver\Src\stm32f0xx_hal_uart_ex.o
 .debug_info    0x0002c382     0x1508 Drivers\STM32F0xx_HAL_Driver\Src\stm32f0xx_ll_usb.o
 .debug_info    0x0002d88a     0x1d22 Middlewares\ST\STM32_USB_Device_Library\Core\Src\usbd_core.o
 .debug_info    0x0002f5ac     0x1c92 Middlewares\ST\STM32_USB_Device_Library\Core\Src\usbd_ctlreq.o
 .debug_info    0x0003123e     0x1a83 Middlewares\ST\STM32_USB_Device_Library\Core\Src\usbd_ioreq.o
 .debug_info    0x00032cc1     0x2835 USB_DEVICE\Target\usbd_conf.o
 .debug_info    0x000354f6       0xa7 startup\startup_stm32f072xb.o

.debug_abbrev   0x00000000     0x5eba
 .debug_abbrev  0x00000000      0x325 Core\Src\Modbus_DMA\mdb.o
 .debug_abbrev  0x00000325      0x282 Core\Src\adc.o
 .debug_abbrev  0x000005a7      0x2aa Core\Src\display_16segments.o
 .debug_abbrev  0x00000851      0x21c Core\Src\dma.o
 .debug_abbrev  0x00000a6d      0x227 Core\Src\gpio.o
 .debug_abbrev  0x00000c94      0x266 Core\Src\i2c.o
 .debug_abbrev  0x00000efa      0x2cd Core\Src\input_keyboard.o
 .debug_abbrev  0x000011c7      0x211 Core\Src\iwdg.o
 .debug_abbrev  0x000013d8      0x31b Core\Src\led_driver_PCA9685.o
 .debug_abbrev  0x000016f3      0x301 Core\Src\main.o
 .debug_abbrev  0x000019f4      0x305 Core\Src\shiftreg_lib.o
 .debug_abbrev  0x00001cf9      0x25d Core\Src\spi.o
 .debug_abbrev  0x00001f56      0x227 Core\Src\stm32f0xx_hal_msp.o
 .debug_abbrev  0x0000217d      0x196 Core\Src\stm32f0xx_hal_timebase_tim.o
 .debug_abbrev  0x00002313      0x293 Core\Src\stm32f0xx_it.o
 .debug_abbrev  0x000025a6      0x271 Core\Src\syscalls.o
 .debug_abbrev  0x00002817      0x126 Core\Src\system_stm32f0xx.o
 .debug_abbrev  0x0000293d      0x2bd Core\Src\tim.o
 .debug_abbrev  0x00002bfa      0x266 Core\Src\usart.o
 .debug_abbrev  0x00002e60      0x1c2 Drivers\STM32F0xx_HAL_Driver\Src\stm32f0xx_hal.o
 .debug_abbrev  0x00003022      0x202 Drivers\STM32F0xx_HAL_Driver\Src\stm32f0xx_hal_adc.o
 .debug_abbrev  0x00003224      0x166 Drivers\STM32F0xx_HAL_Driver\Src\stm32f0xx_hal_adc_ex.o
 .debug_abbrev  0x0000338a      0x254 Drivers\STM32F0xx_HAL_Driver\Src\stm32f0xx_hal_cortex.o
 .debug_abbrev  0x000035de      0x211 Drivers\STM32F0xx_HAL_Driver\Src\stm32f0xx_hal_dma.o
 .debug_abbrev  0x000037ef      0x1bb Drivers\STM32F0xx_HAL_Driver\Src\stm32f0xx_hal_gpio.o
 .debug_abbrev  0x000039aa      0x225 Drivers\STM32F0xx_HAL_Driver\Src\stm32f0xx_hal_i2c.o
 .debug_abbrev  0x00003bcf      0x1b4 Drivers\STM32F0xx_HAL_Driver\Src\stm32f0xx_hal_i2c_ex.o
 .debug_abbrev  0x00003d83      0x142 Drivers\STM32F0xx_HAL_Driver\Src\stm32f0xx_hal_iwdg.o
 .debug_abbrev  0x00003ec5      0x278 Drivers\STM32F0xx_HAL_Driver\Src\stm32f0xx_hal_pcd.o
 .debug_abbrev  0x0000413d      0x1e6 Drivers\STM32F0xx_HAL_Driver\Src\stm32f0xx_hal_pcd_ex.o
 .debug_abbrev  0x00004323      0x1f0 Drivers\STM32F0xx_HAL_Driver\Src\stm32f0xx_hal_rcc.o
 .debug_abbrev  0x00004513      0x1a2 Drivers\STM32F0xx_HAL_Driver\Src\stm32f0xx_hal_rcc_ex.o
 .debug_abbrev  0x000046b5      0x223 Drivers\STM32F0xx_HAL_Driver\Src\stm32f0xx_hal_spi.o
 .debug_abbrev  0x000048d8      0x229 Drivers\STM32F0xx_HAL_Driver\Src\stm32f0xx_hal_tim.o
 .debug_abbrev  0x00004b01      0x217 Drivers\STM32F0xx_HAL_Driver\Src\stm32f0xx_hal_tim_ex.o
 .debug_abbrev  0x00004d18      0x200 Drivers\STM32F0xx_HAL_Driver\Src\stm32f0xx_hal_uart.o
 .debug_abbrev  0x00004f18      0x1dd Drivers\STM32F0xx_HAL_Driver\Src\stm32f0xx_hal_uart_ex.o
 .debug_abbrev  0x000050f5      0x234 Drivers\STM32F0xx_HAL_Driver\Src\stm32f0xx_ll_usb.o
 .debug_abbrev  0x00005329      0x2df Middlewares\ST\STM32_USB_Device_Library\Core\Src\usbd_core.o
 .debug_abbrev  0x00005608      0x30f Middlewares\ST\STM32_USB_Device_Library\Core\Src\usbd_ctlreq.o
 .debug_abbrev  0x00005917      0x24f Middlewares\ST\STM32_USB_Device_Library\Core\Src\usbd_ioreq.o
 .debug_abbrev  0x00005b66      0x342 USB_DEVICE\Target\usbd_conf.o
 .debug_abbrev  0x00005ea8       0x12 startup\startup_stm32f072xb.o

.debug_aranges  0x00000000     0x1c20
 .debug_aranges
                0x00000000       0x78 Core\Src\Modbus_DMA\mdb.o
 .debug_aranges
                0x00000078       0x40 Core\Src\adc.o
 .debug_aranges
                0x000000b8       0x48 Core\Src\display_16segments.o
 .debug_aranges
                0x00000100       0x20 Core\Src\dma.o
 .debug_aranges
                0x00000120       0x20 Core\Src\gpio.o
 .debug_aranges
                0x00000140       0x30 Core\Src\i2c.o
 .debug_aranges
                0x00000170       0x60 Core\Src\input_keyboard.o
 .debug_aranges
                0x000001d0       0x20 Core\Src\iwdg.o
 .debug_aranges
                0x000001f0       0xa0 Core\Src\led_driver_PCA9685.o
 .debug_aranges
                0x00000290       0x68 Core\Src\main.o
 .debug_aranges
                0x000002f8       0x70 Core\Src\shiftreg_lib.o
 .debug_aranges
                0x00000368       0x30 Core\Src\spi.o
 .debug_aranges
                0x00000398       0x20 Core\Src\stm32f0xx_hal_msp.o
 .debug_aranges
                0x000003b8       0x30 Core\Src\stm32f0xx_hal_timebase_tim.o
 .debug_aranges
                0x000003e8       0xc0 Core\Src\stm32f0xx_it.o
 .debug_aranges
                0x000004a8       0xb0 Core\Src\syscalls.o
 .debug_aranges
                0x00000558       0x28 Core\Src\system_stm32f0xx.o
 .debug_aranges
                0x00000580       0x60 Core\Src\tim.o
 .debug_aranges
                0x000005e0       0x38 Core\Src\usart.o
 .debug_aranges
                0x00000618       0xd0 Drivers\STM32F0xx_HAL_Driver\Src\stm32f0xx_hal.o
 .debug_aranges
                0x000006e8       0xf8 Drivers\STM32F0xx_HAL_Driver\Src\stm32f0xx_hal_adc.o
 .debug_aranges
                0x000007e0       0x20 Drivers\STM32F0xx_HAL_Driver\Src\stm32f0xx_hal_adc_ex.o
 .debug_aranges
                0x00000800       0xc0 Drivers\STM32F0xx_HAL_Driver\Src\stm32f0xx_hal_cortex.o
 .debug_aranges
                0x000008c0       0x88 Drivers\STM32F0xx_HAL_Driver\Src\stm32f0xx_hal_dma.o
 .debug_aranges
                0x00000948       0x58 Drivers\STM32F0xx_HAL_Driver\Src\stm32f0xx_hal_gpio.o
 .debug_aranges
                0x000009a0      0x288 Drivers\STM32F0xx_HAL_Driver\Src\stm32f0xx_hal_i2c.o
 .debug_aranges
                0x00000c28       0x48 Drivers\STM32F0xx_HAL_Driver\Src\stm32f0xx_hal_i2c_ex.o
 .debug_aranges
                0x00000c70       0x28 Drivers\STM32F0xx_HAL_Driver\Src\stm32f0xx_hal_iwdg.o
 .debug_aranges
                0x00000c98      0x120 Drivers\STM32F0xx_HAL_Driver\Src\stm32f0xx_hal_pcd.o
 .debug_aranges
                0x00000db8       0x58 Drivers\STM32F0xx_HAL_Driver\Src\stm32f0xx_hal_pcd_ex.o
 .debug_aranges
                0x00000e10       0x80 Drivers\STM32F0xx_HAL_Driver\Src\stm32f0xx_hal_rcc.o
 .debug_aranges
                0x00000e90       0x78 Drivers\STM32F0xx_HAL_Driver\Src\stm32f0xx_hal_rcc_ex.o
 .debug_aranges
                0x00000f08      0x1d8 Drivers\STM32F0xx_HAL_Driver\Src\stm32f0xx_hal_spi.o
 .debug_aranges
                0x000010e0      0x3b8 Drivers\STM32F0xx_HAL_Driver\Src\stm32f0xx_hal_tim.o
 .debug_aranges
                0x00001498      0x150 Drivers\STM32F0xx_HAL_Driver\Src\stm32f0xx_hal_tim_ex.o
 .debug_aranges
                0x000015e8      0x210 Drivers\STM32F0xx_HAL_Driver\Src\stm32f0xx_hal_uart.o
 .debug_aranges
                0x000017f8       0x50 Drivers\STM32F0xx_HAL_Driver\Src\stm32f0xx_hal_uart_ex.o
 .debug_aranges
                0x00001848      0x108 Drivers\STM32F0xx_HAL_Driver\Src\stm32f0xx_ll_usb.o
 .debug_aranges
                0x00001950       0xb8 Middlewares\ST\STM32_USB_Device_Library\Core\Src\usbd_core.o
 .debug_aranges
                0x00001a08       0x88 Middlewares\ST\STM32_USB_Device_Library\Core\Src\usbd_ctlreq.o
 .debug_aranges
                0x00001a90       0x50 Middlewares\ST\STM32_USB_Device_Library\Core\Src\usbd_ioreq.o
 .debug_aranges
                0x00001ae0      0x118 USB_DEVICE\Target\usbd_conf.o
 .debug_aranges
                0x00001bf8       0x28 startup\startup_stm32f072xb.o

.debug_ranges   0x00000000     0x1978
 .debug_ranges  0x00000000       0x68 Core\Src\Modbus_DMA\mdb.o
 .debug_ranges  0x00000068       0x30 Core\Src\adc.o
 .debug_ranges  0x00000098       0x38 Core\Src\display_16segments.o
 .debug_ranges  0x000000d0       0x10 Core\Src\dma.o
 .debug_ranges  0x000000e0       0x10 Core\Src\gpio.o
 .debug_ranges  0x000000f0       0x20 Core\Src\i2c.o
 .debug_ranges  0x00000110       0x50 Core\Src\input_keyboard.o
 .debug_ranges  0x00000160       0x10 Core\Src\iwdg.o
 .debug_ranges  0x00000170       0x90 Core\Src\led_driver_PCA9685.o
 .debug_ranges  0x00000200       0x58 Core\Src\main.o
 .debug_ranges  0x00000258       0x60 Core\Src\shiftreg_lib.o
 .debug_ranges  0x000002b8       0x20 Core\Src\spi.o
 .debug_ranges  0x000002d8       0x10 Core\Src\stm32f0xx_hal_msp.o
 .debug_ranges  0x000002e8       0x20 Core\Src\stm32f0xx_hal_timebase_tim.o
 .debug_ranges  0x00000308       0xb0 Core\Src\stm32f0xx_it.o
 .debug_ranges  0x000003b8       0xa0 Core\Src\syscalls.o
 .debug_ranges  0x00000458       0x18 Core\Src\system_stm32f0xx.o
 .debug_ranges  0x00000470       0x50 Core\Src\tim.o
 .debug_ranges  0x000004c0       0x28 Core\Src\usart.o
 .debug_ranges  0x000004e8       0xc0 Drivers\STM32F0xx_HAL_Driver\Src\stm32f0xx_hal.o
 .debug_ranges  0x000005a8       0xe8 Drivers\STM32F0xx_HAL_Driver\Src\stm32f0xx_hal_adc.o
 .debug_ranges  0x00000690       0x10 Drivers\STM32F0xx_HAL_Driver\Src\stm32f0xx_hal_adc_ex.o
 .debug_ranges  0x000006a0       0xb0 Drivers\STM32F0xx_HAL_Driver\Src\stm32f0xx_hal_cortex.o
 .debug_ranges  0x00000750       0x78 Drivers\STM32F0xx_HAL_Driver\Src\stm32f0xx_hal_dma.o
 .debug_ranges  0x000007c8       0x48 Drivers\STM32F0xx_HAL_Driver\Src\stm32f0xx_hal_gpio.o
 .debug_ranges  0x00000810      0x278 Drivers\STM32F0xx_HAL_Driver\Src\stm32f0xx_hal_i2c.o
 .debug_ranges  0x00000a88       0x38 Drivers\STM32F0xx_HAL_Driver\Src\stm32f0xx_hal_i2c_ex.o
 .debug_ranges  0x00000ac0       0x18 Drivers\STM32F0xx_HAL_Driver\Src\stm32f0xx_hal_iwdg.o
 .debug_ranges  0x00000ad8      0x110 Drivers\STM32F0xx_HAL_Driver\Src\stm32f0xx_hal_pcd.o
 .debug_ranges  0x00000be8       0x48 Drivers\STM32F0xx_HAL_Driver\Src\stm32f0xx_hal_pcd_ex.o
 .debug_ranges  0x00000c30       0x70 Drivers\STM32F0xx_HAL_Driver\Src\stm32f0xx_hal_rcc.o
 .debug_ranges  0x00000ca0       0x68 Drivers\STM32F0xx_HAL_Driver\Src\stm32f0xx_hal_rcc_ex.o
 .debug_ranges  0x00000d08      0x1c8 Drivers\STM32F0xx_HAL_Driver\Src\stm32f0xx_hal_spi.o
 .debug_ranges  0x00000ed0      0x3a8 Drivers\STM32F0xx_HAL_Driver\Src\stm32f0xx_hal_tim.o
 .debug_ranges  0x00001278      0x140 Drivers\STM32F0xx_HAL_Driver\Src\stm32f0xx_hal_tim_ex.o
 .debug_ranges  0x000013b8      0x200 Drivers\STM32F0xx_HAL_Driver\Src\stm32f0xx_hal_uart.o
 .debug_ranges  0x000015b8       0x40 Drivers\STM32F0xx_HAL_Driver\Src\stm32f0xx_hal_uart_ex.o
 .debug_ranges  0x000015f8       0xf8 Drivers\STM32F0xx_HAL_Driver\Src\stm32f0xx_ll_usb.o
 .debug_ranges  0x000016f0       0xa8 Middlewares\ST\STM32_USB_Device_Library\Core\Src\usbd_core.o
 .debug_ranges  0x00001798       0x78 Middlewares\ST\STM32_USB_Device_Library\Core\Src\usbd_ctlreq.o
 .debug_ranges  0x00001810       0x40 Middlewares\ST\STM32_USB_Device_Library\Core\Src\usbd_ioreq.o
 .debug_ranges  0x00001850      0x108 USB_DEVICE\Target\usbd_conf.o
 .debug_ranges  0x00001958       0x20 startup\startup_stm32f072xb.o

.debug_line     0x00000000    0x11bcf
 .debug_line    0x00000000      0x507 Core\Src\Modbus_DMA\mdb.o
 .debug_line    0x00000507      0x403 Core\Src\adc.o
 .debug_line    0x0000090a      0x488 Core\Src\display_16segments.o
 .debug_line    0x00000d92      0x301 Core\Src\dma.o
 .debug_line    0x00001093      0x345 Core\Src\gpio.o
 .debug_line    0x000013d8      0x3b0 Core\Src\i2c.o
 .debug_line    0x00001788      0x47a Core\Src\input_keyboard.o
 .debug_line    0x00001c02      0x340 Core\Src\iwdg.o
 .debug_line    0x00001f42      0x5a7 Core\Src\led_driver_PCA9685.o
 .debug_line    0x000024e9      0x6fe Core\Src\main.o
 .debug_line    0x00002be7      0x4fe Core\Src\shiftreg_lib.o
 .debug_line    0x000030e5      0x3b2 Core\Src\spi.o
 .debug_line    0x00003497      0x311 Core\Src\stm32f0xx_hal_msp.o
 .debug_line    0x000037a8      0x25d Core\Src\stm32f0xx_hal_timebase_tim.o
 .debug_line    0x00003a05      0x56a Core\Src\stm32f0xx_it.o
 .debug_line    0x00003f6f      0x3dd Core\Src\syscalls.o
 .debug_line    0x0000434c      0x1fb Core\Src\system_stm32f0xx.o
 .debug_line    0x00004547      0x47c Core\Src\tim.o
 .debug_line    0x000049c3      0x3fe Core\Src\usart.o
 .debug_line    0x00004dc1      0x3d3 Drivers\STM32F0xx_HAL_Driver\Src\stm32f0xx_hal.o
 .debug_line    0x00005194      0xaac Drivers\STM32F0xx_HAL_Driver\Src\stm32f0xx_hal_adc.o
 .debug_line    0x00005c40      0x27f Drivers\STM32F0xx_HAL_Driver\Src\stm32f0xx_hal_adc_ex.o
 .debug_line    0x00005ebf      0x40e Drivers\STM32F0xx_HAL_Driver\Src\stm32f0xx_hal_cortex.o
 .debug_line    0x000062cd      0x4f6 Drivers\STM32F0xx_HAL_Driver\Src\stm32f0xx_hal_dma.o
 .debug_line    0x000067c3      0x4c2 Drivers\STM32F0xx_HAL_Driver\Src\stm32f0xx_hal_gpio.o
 .debug_line    0x00006c85     0x1808 Drivers\STM32F0xx_HAL_Driver\Src\stm32f0xx_hal_i2c.o
 .debug_line    0x0000848d      0x3f3 Drivers\STM32F0xx_HAL_Driver\Src\stm32f0xx_hal_i2c_ex.o
 .debug_line    0x00008880      0x26a Drivers\STM32F0xx_HAL_Driver\Src\stm32f0xx_hal_iwdg.o
 .debug_line    0x00008aea      0x6c6 Drivers\STM32F0xx_HAL_Driver\Src\stm32f0xx_hal_pcd.o
 .debug_line    0x000091b0      0x2d8 Drivers\STM32F0xx_HAL_Driver\Src\stm32f0xx_hal_pcd_ex.o
 .debug_line    0x00009488      0x71b Drivers\STM32F0xx_HAL_Driver\Src\stm32f0xx_hal_rcc.o
 .debug_line    0x00009ba3      0x540 Drivers\STM32F0xx_HAL_Driver\Src\stm32f0xx_hal_rcc_ex.o
 .debug_line    0x0000a0e3      0xe88 Drivers\STM32F0xx_HAL_Driver\Src\stm32f0xx_hal_spi.o
 .debug_line    0x0000af6b     0x2e75 Drivers\STM32F0xx_HAL_Driver\Src\stm32f0xx_hal_tim.o
 .debug_line    0x0000dde0      0xdc5 Drivers\STM32F0xx_HAL_Driver\Src\stm32f0xx_hal_tim_ex.o
 .debug_line    0x0000eba5      0xee1 Drivers\STM32F0xx_HAL_Driver\Src\stm32f0xx_hal_uart.o
 .debug_line    0x0000fa86      0x39f Drivers\STM32F0xx_HAL_Driver\Src\stm32f0xx_hal_uart_ex.o
 .debug_line    0x0000fe25      0x6e0 Drivers\STM32F0xx_HAL_Driver\Src\stm32f0xx_ll_usb.o
 .debug_line    0x00010505      0x584 Middlewares\ST\STM32_USB_Device_Library\Core\Src\usbd_core.o
 .debug_line    0x00010a89      0x626 Middlewares\ST\STM32_USB_Device_Library\Core\Src\usbd_ctlreq.o
 .debug_line    0x000110af      0x3ed Middlewares\ST\STM32_USB_Device_Library\Core\Src\usbd_ioreq.o
 .debug_line    0x0001149c      0x6b0 USB_DEVICE\Target\usbd_conf.o
 .debug_line    0x00011b4c       0x83 startup\startup_stm32f072xb.o

.debug_str      0x00000000     0x7c2f
 .debug_str     0x00000000      0xf82 Core\Src\Modbus_DMA\mdb.o
                               0x1091 (size before relaxing)
 .debug_str     0x00000f82      0x63a Core\Src\adc.o
                               0x1532 (size before relaxing)
 .debug_str     0x000015bc      0x1bb Core\Src\display_16segments.o
                               0x105b (size before relaxing)
 .debug_str     0x00001777       0x1e Core\Src\dma.o
                                0xf00 (size before relaxing)
 .debug_str     0x00001795       0x20 Core\Src\gpio.o
                                0xf59 (size before relaxing)
 .debug_str     0x000017b5      0x2f4 Core\Src\i2c.o
                               0x1628 (size before relaxing)
 .debug_str     0x00001aa9      0x125 Core\Src\input_keyboard.o
                                0xfe6 (size before relaxing)
 .debug_str     0x00001bce       0x20 Core\Src\iwdg.o
                                0xf30 (size before relaxing)
 .debug_str     0x00001bee      0x21a Core\Src\led_driver_PCA9685.o
                               0x15a0 (size before relaxing)
 .debug_str     0x00001e08      0x800 Core\Src\main.o
                               0x1f9a (size before relaxing)
 .debug_str     0x00002608      0x16b Core\Src\shiftreg_lib.o
                               0x143d (size before relaxing)
 .debug_str     0x00002773       0x4b Core\Src\spi.o
                               0x135d (size before relaxing)
 .debug_str     0x000027be       0x2c Core\Src\stm32f0xx_hal_msp.o
                                0xf0e (size before relaxing)
 .debug_str     0x000027ea       0x98 Core\Src\stm32f0xx_hal_timebase_tim.o
                                0x978 (size before relaxing)
 .debug_str     0x00002882      0x4d2 Core\Src\stm32f0xx_it.o
                               0x1dc1 (size before relaxing)
 .debug_str     0x00002d54      0x227 Core\Src\syscalls.o
                                0x869 (size before relaxing)
 .debug_str     0x00002f7b       0x5f Core\Src\system_stm32f0xx.o
                                0x324 (size before relaxing)
 .debug_str     0x00002fda      0x107 Core\Src\tim.o
                               0x15c5 (size before relaxing)
 .debug_str     0x000030e1       0x6b Core\Src\usart.o
                               0x157f (size before relaxing)
 .debug_str     0x0000314c      0x1ea Drivers\STM32F0xx_HAL_Driver\Src\stm32f0xx_hal.o
                                0x734 (size before relaxing)
 .debug_str     0x00003336      0x2d4 Drivers\STM32F0xx_HAL_Driver\Src\stm32f0xx_hal_adc.o
                                0x998 (size before relaxing)
 .debug_str     0x0000360a       0x77 Drivers\STM32F0xx_HAL_Driver\Src\stm32f0xx_hal_adc_ex.o
                                0x6ac (size before relaxing)
 .debug_str     0x00003681      0x281 Drivers\STM32F0xx_HAL_Driver\Src\stm32f0xx_hal_cortex.o
                                0x746 (size before relaxing)
 .debug_str     0x00003902      0x248 Drivers\STM32F0xx_HAL_Driver\Src\stm32f0xx_hal_dma.o
                                0x6fc (size before relaxing)
 .debug_str     0x00003b4a      0x10e Drivers\STM32F0xx_HAL_Driver\Src\stm32f0xx_hal_gpio.o
                                0x4f3 (size before relaxing)
 .debug_str     0x00003c58      0x84b Drivers\STM32F0xx_HAL_Driver\Src\stm32f0xx_hal_i2c.o
                                0xfee (size before relaxing)
 .debug_str     0x000044a3       0xf3 Drivers\STM32F0xx_HAL_Driver\Src\stm32f0xx_hal_i2c_ex.o
                                0x8c2 (size before relaxing)
 .debug_str     0x00004596       0x58 Drivers\STM32F0xx_HAL_Driver\Src\stm32f0xx_hal_iwdg.o
                                0x36e (size before relaxing)
 .debug_str     0x000045ee      0x375 Drivers\STM32F0xx_HAL_Driver\Src\stm32f0xx_hal_pcd.o
                                0x9bd (size before relaxing)
 .debug_str     0x00004963      0x1c6 Drivers\STM32F0xx_HAL_Driver\Src\stm32f0xx_hal_pcd_ex.o
                                0x834 (size before relaxing)
 .debug_str     0x00004b29      0x1e7 Drivers\STM32F0xx_HAL_Driver\Src\stm32f0xx_hal_rcc.o
                                0x6e1 (size before relaxing)
 .debug_str     0x00004d10      0x27a Drivers\STM32F0xx_HAL_Driver\Src\stm32f0xx_hal_rcc_ex.o
                                0x6c7 (size before relaxing)
 .debug_str     0x00004f8a      0x543 Drivers\STM32F0xx_HAL_Driver\Src\stm32f0xx_hal_spi.o
                                0xc44 (size before relaxing)
 .debug_str     0x000054cd      0xdd6 Drivers\STM32F0xx_HAL_Driver\Src\stm32f0xx_hal_tim.o
                               0x151d (size before relaxing)
 .debug_str     0x000062a3      0x52f Drivers\STM32F0xx_HAL_Driver\Src\stm32f0xx_hal_tim_ex.o
                                0xcd1 (size before relaxing)
 .debug_str     0x000067d2      0x6b4 Drivers\STM32F0xx_HAL_Driver\Src\stm32f0xx_hal_uart.o
                                0xe40 (size before relaxing)
 .debug_str     0x00006e86      0x160 Drivers\STM32F0xx_HAL_Driver\Src\stm32f0xx_hal_uart_ex.o
                                0x818 (size before relaxing)
 .debug_str     0x00006fe6      0x313 Drivers\STM32F0xx_HAL_Driver\Src\stm32f0xx_ll_usb.o
                                0x81a (size before relaxing)
 .debug_str     0x000072f9      0x50a Middlewares\ST\STM32_USB_Device_Library\Core\Src\usbd_core.o
                               0x1403 (size before relaxing)
 .debug_str     0x00007803      0x134 Middlewares\ST\STM32_USB_Device_Library\Core\Src\usbd_ctlreq.o
                               0x1389 (size before relaxing)
 .debug_str     0x00007937       0xc9 Middlewares\ST\STM32_USB_Device_Library\Core\Src\usbd_ioreq.o
                               0x1311 (size before relaxing)
 .debug_str     0x00007a00      0x22f USB_DEVICE\Target\usbd_conf.o
                               0x1bfd (size before relaxing)

.comment        0x00000000       0x7c
 .comment       0x00000000       0x7c Core\Src\Modbus_DMA\mdb.o
                                 0x7d (size before relaxing)
 .comment       0x0000007c       0x7d Core\Src\adc.o
 .comment       0x0000007c       0x7d Core\Src\display_16segments.o
 .comment       0x0000007c       0x7d Core\Src\dma.o
 .comment       0x0000007c       0x7d Core\Src\gpio.o
 .comment       0x0000007c       0x7d Core\Src\i2c.o
 .comment       0x0000007c       0x7d Core\Src\input_keyboard.o
 .comment       0x0000007c       0x7d Core\Src\iwdg.o
 .comment       0x0000007c       0x7d Core\Src\led_driver_PCA9685.o
 .comment       0x0000007c       0x7d Core\Src\main.o
 .comment       0x0000007c       0x7d Core\Src\shiftreg_lib.o
 .comment       0x0000007c       0x7d Core\Src\spi.o
 .comment       0x0000007c       0x7d Core\Src\stm32f0xx_hal_msp.o
 .comment       0x0000007c       0x7d Core\Src\stm32f0xx_hal_timebase_tim.o
 .comment       0x0000007c       0x7d Core\Src\stm32f0xx_it.o
 .comment       0x0000007c       0x7d Core\Src\syscalls.o
 .comment       0x0000007c       0x7d Core\Src\system_stm32f0xx.o
 .comment       0x0000007c       0x7d Core\Src\tim.o
 .comment       0x0000007c       0x7d Core\Src\usart.o
 .comment       0x0000007c       0x7d Drivers\STM32F0xx_HAL_Driver\Src\stm32f0xx_hal.o
 .comment       0x0000007c       0x7d Drivers\STM32F0xx_HAL_Driver\Src\stm32f0xx_hal_adc.o
 .comment       0x0000007c       0x7d Drivers\STM32F0xx_HAL_Driver\Src\stm32f0xx_hal_adc_ex.o
 .comment       0x0000007c       0x7d Drivers\STM32F0xx_HAL_Driver\Src\stm32f0xx_hal_cortex.o
 .comment       0x0000007c       0x7d Drivers\STM32F0xx_HAL_Driver\Src\stm32f0xx_hal_dma.o
 .comment       0x0000007c       0x7d Drivers\STM32F0xx_HAL_Driver\Src\stm32f0xx_hal_gpio.o
 .comment       0x0000007c       0x7d Drivers\STM32F0xx_HAL_Driver\Src\stm32f0xx_hal_i2c.o
 .comment       0x0000007c       0x7d Drivers\STM32F0xx_HAL_Driver\Src\stm32f0xx_hal_i2c_ex.o
 .comment       0x0000007c       0x7d Drivers\STM32F0xx_HAL_Driver\Src\stm32f0xx_hal_iwdg.o
 .comment       0x0000007c       0x7d Drivers\STM32F0xx_HAL_Driver\Src\stm32f0xx_hal_pcd.o
 .comment       0x0000007c       0x7d Drivers\STM32F0xx_HAL_Driver\Src\stm32f0xx_hal_pcd_ex.o
 .comment       0x0000007c       0x7d Drivers\STM32F0xx_HAL_Driver\Src\stm32f0xx_hal_rcc.o
 .comment       0x0000007c       0x7d Drivers\STM32F0xx_HAL_Driver\Src\stm32f0xx_hal_rcc_ex.o
 .comment       0x0000007c       0x7d Drivers\STM32F0xx_HAL_Driver\Src\stm32f0xx_hal_spi.o
 .comment       0x0000007c       0x7d Drivers\STM32F0xx_HAL_Driver\Src\stm32f0xx_hal_tim.o
 .comment       0x0000007c       0x7d Drivers\STM32F0xx_HAL_Driver\Src\stm32f0xx_hal_tim_ex.o
 .comment       0x0000007c       0x7d Drivers\STM32F0xx_HAL_Driver\Src\stm32f0xx_hal_uart.o
 .comment       0x0000007c       0x7d Drivers\STM32F0xx_HAL_Driver\Src\stm32f0xx_hal_uart_ex.o
 .comment       0x0000007c       0x7d Drivers\STM32F0xx_HAL_Driver\Src\stm32f0xx_ll_usb.o
 .comment       0x0000007c       0x7d Middlewares\ST\STM32_USB_Device_Library\Core\Src\usbd_core.o
 .comment       0x0000007c       0x7d Middlewares\ST\STM32_USB_Device_Library\Core\Src\usbd_ctlreq.o
 .comment       0x0000007c       0x7d Middlewares\ST\STM32_USB_Device_Library\Core\Src\usbd_ioreq.o
 .comment       0x0000007c       0x7d USB_DEVICE\Target\usbd_conf.o

.debug_frame    0x00000000     0x6aa4
 .debug_frame   0x00000000      0x190 Core\Src\Modbus_DMA\mdb.o
 .debug_frame   0x00000190       0xb0 Core\Src\adc.o
 .debug_frame   0x00000240       0xcc Core\Src\display_16segments.o
 .debug_frame   0x0000030c       0x30 Core\Src\dma.o
 .debug_frame   0x0000033c       0x30 Core\Src\gpio.o
 .debug_frame   0x0000036c       0x6c Core\Src\i2c.o
 .debug_frame   0x000003d8      0x124 Core\Src\input_keyboard.o
 .debug_frame   0x000004fc       0x2c Core\Src\iwdg.o
 .debug_frame   0x00000528      0x24c Core\Src\led_driver_PCA9685.o
 .debug_frame   0x00000774      0x140 Core\Src\main.o
 .debug_frame   0x000008b4      0x168 Core\Src\shiftreg_lib.o
 .debug_frame   0x00000a1c       0x6c Core\Src\spi.o
 .debug_frame   0x00000a88       0x30 Core\Src\stm32f0xx_hal_msp.o
 .debug_frame   0x00000ab8       0x68 Core\Src\stm32f0xx_hal_timebase_tim.o
 .debug_frame   0x00000b20      0x264 Core\Src\stm32f0xx_it.o
 .debug_frame   0x00000d84      0x264 Core\Src\syscalls.o
 .debug_frame   0x00000fe8       0x4c Core\Src\system_stm32f0xx.o
 .debug_frame   0x00001034      0x120 Core\Src\tim.o
 .debug_frame   0x00001154       0x88 Core\Src\usart.o
 .debug_frame   0x000011dc      0x2a0 Drivers\STM32F0xx_HAL_Driver\Src\stm32f0xx_hal.o
 .debug_frame   0x0000147c      0x390 Drivers\STM32F0xx_HAL_Driver\Src\stm32f0xx_hal_adc.o
 .debug_frame   0x0000180c       0x30 Drivers\STM32F0xx_HAL_Driver\Src\stm32f0xx_hal_adc_ex.o
 .debug_frame   0x0000183c      0x2a4 Drivers\STM32F0xx_HAL_Driver\Src\stm32f0xx_hal_cortex.o
 .debug_frame   0x00001ae0      0x1d0 Drivers\STM32F0xx_HAL_Driver\Src\stm32f0xx_hal_dma.o
 .debug_frame   0x00001cb0      0x110 Drivers\STM32F0xx_HAL_Driver\Src\stm32f0xx_hal_gpio.o
 .debug_frame   0x00001dc0      0x9d0 Drivers\STM32F0xx_HAL_Driver\Src\stm32f0xx_hal_i2c.o
 .debug_frame   0x00002790       0xd0 Drivers\STM32F0xx_HAL_Driver\Src\stm32f0xx_hal_i2c_ex.o
 .debug_frame   0x00002860       0x50 Drivers\STM32F0xx_HAL_Driver\Src\stm32f0xx_hal_iwdg.o
 .debug_frame   0x000028b0      0x434 Drivers\STM32F0xx_HAL_Driver\Src\stm32f0xx_hal_pcd.o
 .debug_frame   0x00002ce4      0x110 Drivers\STM32F0xx_HAL_Driver\Src\stm32f0xx_hal_pcd_ex.o
 .debug_frame   0x00002df4      0x198 Drivers\STM32F0xx_HAL_Driver\Src\stm32f0xx_hal_rcc.o
 .debug_frame   0x00002f8c      0x180 Drivers\STM32F0xx_HAL_Driver\Src\stm32f0xx_hal_rcc_ex.o
 .debug_frame   0x0000310c      0x710 Drivers\STM32F0xx_HAL_Driver\Src\stm32f0xx_hal_spi.o
 .debug_frame   0x0000381c      0xe90 Drivers\STM32F0xx_HAL_Driver\Src\stm32f0xx_hal_tim.o
 .debug_frame   0x000046ac      0x4f0 Drivers\STM32F0xx_HAL_Driver\Src\stm32f0xx_hal_tim_ex.o
 .debug_frame   0x00004b9c      0x7f0 Drivers\STM32F0xx_HAL_Driver\Src\stm32f0xx_hal_uart.o
 .debug_frame   0x0000538c       0xf0 Drivers\STM32F0xx_HAL_Driver\Src\stm32f0xx_hal_uart_ex.o
 .debug_frame   0x0000547c      0x3e0 Drivers\STM32F0xx_HAL_Driver\Src\stm32f0xx_ll_usb.o
 .debug_frame   0x0000585c      0x290 Middlewares\ST\STM32_USB_Device_Library\Core\Src\usbd_core.o
 .debug_frame   0x00005aec      0x1d0 Middlewares\ST\STM32_USB_Device_Library\Core\Src\usbd_ctlreq.o
 .debug_frame   0x00005cbc       0xf0 Middlewares\ST\STM32_USB_Device_Library\Core\Src\usbd_ioreq.o
 .debug_frame   0x00005dac      0x418 USB_DEVICE\Target\usbd_conf.o
 .debug_frame   0x000061c4       0x20 c:/program files (x86)/atollic/truestudio for stm32 9.3.0/armtools/bin/../lib/gcc/arm-atollic-eabi/6.3.1/../../../../arm-atollic-eabi/lib/armv6-m\libc_nano.a(lib_a-errno.o)
 .debug_frame   0x000061e4       0x2c c:/program files (x86)/atollic/truestudio for stm32 9.3.0/armtools/bin/../lib/gcc/arm-atollic-eabi/6.3.1/../../../../arm-atollic-eabi/lib/armv6-m\libc_nano.a(lib_a-init.o)
 .debug_frame   0x00006210       0x40 c:/program files (x86)/atollic/truestudio for stm32 9.3.0/armtools/bin/../lib/gcc/arm-atollic-eabi/6.3.1/../../../../arm-atollic-eabi/lib/armv6-m\libc_nano.a(lib_a-malloc.o)
 .debug_frame   0x00006250       0x28 c:/program files (x86)/atollic/truestudio for stm32 9.3.0/armtools/bin/../lib/gcc/arm-atollic-eabi/6.3.1/../../../../arm-atollic-eabi/lib/armv6-m\libc_nano.a(lib_a-memcpy-stub.o)
 .debug_frame   0x00006278       0x20 c:/program files (x86)/atollic/truestudio for stm32 9.3.0/armtools/bin/../lib/gcc/arm-atollic-eabi/6.3.1/../../../../arm-atollic-eabi/lib/armv6-m\libc_nano.a(lib_a-memset.o)
 .debug_frame   0x00006298       0x2c c:/program files (x86)/atollic/truestudio for stm32 9.3.0/armtools/bin/../lib/gcc/arm-atollic-eabi/6.3.1/../../../../arm-atollic-eabi/lib/armv6-m\libc_nano.a(lib_a-nano-freer.o)
 .debug_frame   0x000062c4       0x2c c:/program files (x86)/atollic/truestudio for stm32 9.3.0/armtools/bin/../lib/gcc/arm-atollic-eabi/6.3.1/../../../../arm-atollic-eabi/lib/armv6-m\libc_nano.a(lib_a-nano-mallocr.o)
 .debug_frame   0x000062f0       0x50 c:/program files (x86)/atollic/truestudio for stm32 9.3.0/armtools/bin/../lib/gcc/arm-atollic-eabi/6.3.1/../../../../arm-atollic-eabi/lib/armv6-m\libc_nano.a(lib_a-printf.o)
 .debug_frame   0x00006340       0x2c c:/program files (x86)/atollic/truestudio for stm32 9.3.0/armtools/bin/../lib/gcc/arm-atollic-eabi/6.3.1/../../../../arm-atollic-eabi/lib/armv6-m\libc_nano.a(lib_a-sbrkr.o)
 .debug_frame   0x0000636c      0x140 c:/program files (x86)/atollic/truestudio for stm32 9.3.0/armtools/bin/../lib/gcc/arm-atollic-eabi/6.3.1/../../../../arm-atollic-eabi/lib/armv6-m\libc_nano.a(lib_a-findfp.o)
 .debug_frame   0x000064ac       0x58 c:/program files (x86)/atollic/truestudio for stm32 9.3.0/armtools/bin/../lib/gcc/arm-atollic-eabi/6.3.1/../../../../arm-atollic-eabi/lib/armv6-m\libc_nano.a(lib_a-fwalk.o)
 .debug_frame   0x00006504       0x30 c:/program files (x86)/atollic/truestudio for stm32 9.3.0/armtools/bin/../lib/gcc/arm-atollic-eabi/6.3.1/../../../../arm-atollic-eabi/lib/armv6-m\libc_nano.a(lib_a-mlock.o)
 .debug_frame   0x00006534       0x9c c:/program files (x86)/atollic/truestudio for stm32 9.3.0/armtools/bin/../lib/gcc/arm-atollic-eabi/6.3.1/../../../../arm-atollic-eabi/lib/armv6-m\libc_nano.a(lib_a-nano-vfprintf.o)
 .debug_frame   0x000065d0       0x54 c:/program files (x86)/atollic/truestudio for stm32 9.3.0/armtools/bin/../lib/gcc/arm-atollic-eabi/6.3.1/../../../../arm-atollic-eabi/lib/armv6-m\libc_nano.a(lib_a-nano-vfprintf_i.o)
 .debug_frame   0x00006624       0x48 c:/program files (x86)/atollic/truestudio for stm32 9.3.0/armtools/bin/../lib/gcc/arm-atollic-eabi/6.3.1/../../../../arm-atollic-eabi/lib/armv6-m\libc_nano.a(lib_a-reent.o)
 .debug_frame   0x0000666c       0x90 c:/program files (x86)/atollic/truestudio for stm32 9.3.0/armtools/bin/../lib/gcc/arm-atollic-eabi/6.3.1/../../../../arm-atollic-eabi/lib/armv6-m\libc_nano.a(lib_a-stdio.o)
 .debug_frame   0x000066fc       0x48 c:/program files (x86)/atollic/truestudio for stm32 9.3.0/armtools/bin/../lib/gcc/arm-atollic-eabi/6.3.1/../../../../arm-atollic-eabi/lib/armv6-m\libc_nano.a(lib_a-wbuf.o)
 .debug_frame   0x00006744       0x2c c:/program files (x86)/atollic/truestudio for stm32 9.3.0/armtools/bin/../lib/gcc/arm-atollic-eabi/6.3.1/../../../../arm-atollic-eabi/lib/armv6-m\libc_nano.a(lib_a-writer.o)
 .debug_frame   0x00006770       0x2c c:/program files (x86)/atollic/truestudio for stm32 9.3.0/armtools/bin/../lib/gcc/arm-atollic-eabi/6.3.1/../../../../arm-atollic-eabi/lib/armv6-m\libc_nano.a(lib_a-wsetup.o)
 .debug_frame   0x0000679c       0x2c c:/program files (x86)/atollic/truestudio for stm32 9.3.0/armtools/bin/../lib/gcc/arm-atollic-eabi/6.3.1/../../../../arm-atollic-eabi/lib/armv6-m\libc_nano.a(lib_a-closer.o)
 .debug_frame   0x000067c8       0x68 c:/program files (x86)/atollic/truestudio for stm32 9.3.0/armtools/bin/../lib/gcc/arm-atollic-eabi/6.3.1/../../../../arm-atollic-eabi/lib/armv6-m\libc_nano.a(lib_a-fflush.o)
 .debug_frame   0x00006830       0x2c c:/program files (x86)/atollic/truestudio for stm32 9.3.0/armtools/bin/../lib/gcc/arm-atollic-eabi/6.3.1/../../../../arm-atollic-eabi/lib/armv6-m\libc_nano.a(lib_a-lseekr.o)
 .debug_frame   0x0000685c       0x54 c:/program files (x86)/atollic/truestudio for stm32 9.3.0/armtools/bin/../lib/gcc/arm-atollic-eabi/6.3.1/../../../../arm-atollic-eabi/lib/armv6-m\libc_nano.a(lib_a-makebuf.o)
 .debug_frame   0x000068b0       0x20 c:/program files (x86)/atollic/truestudio for stm32 9.3.0/armtools/bin/../lib/gcc/arm-atollic-eabi/6.3.1/../../../../arm-atollic-eabi/lib/armv6-m\libc_nano.a(lib_a-memchr-stub.o)
 .debug_frame   0x000068d0       0x2c c:/program files (x86)/atollic/truestudio for stm32 9.3.0/armtools/bin/../lib/gcc/arm-atollic-eabi/6.3.1/../../../../arm-atollic-eabi/lib/armv6-m\libc_nano.a(lib_a-readr.o)
 .debug_frame   0x000068fc       0x2c c:/program files (x86)/atollic/truestudio for stm32 9.3.0/armtools/bin/../lib/gcc/arm-atollic-eabi/6.3.1/../../../../arm-atollic-eabi/lib/armv6-m\libc_nano.a(lib_a-fstatr.o)
 .debug_frame   0x00006928       0x2c c:/program files (x86)/atollic/truestudio for stm32 9.3.0/armtools/bin/../lib/gcc/arm-atollic-eabi/6.3.1/../../../../arm-atollic-eabi/lib/armv6-m\libc_nano.a(lib_a-isattyr.o)
 .debug_frame   0x00006954       0x20 c:/program files (x86)/atollic/truestudio for stm32 9.3.0/armtools/bin/../lib/gcc/arm-atollic-eabi/6.3.1/armv6-m\libgcc.a(_udivsi3.o)
 .debug_frame   0x00006974       0x20 c:/program files (x86)/atollic/truestudio for stm32 9.3.0/armtools/bin/../lib/gcc/arm-atollic-eabi/6.3.1/armv6-m\libgcc.a(_divsi3.o)
 .debug_frame   0x00006994       0x3c c:/program files (x86)/atollic/truestudio for stm32 9.3.0/armtools/bin/../lib/gcc/arm-atollic-eabi/6.3.1/armv6-m\libgcc.a(adddf3.o)
 .debug_frame   0x000069d0       0x38 c:/program files (x86)/atollic/truestudio for stm32 9.3.0/armtools/bin/../lib/gcc/arm-atollic-eabi/6.3.1/armv6-m\libgcc.a(eqdf2.o)
 .debug_frame   0x00006a08       0x38 c:/program files (x86)/atollic/truestudio for stm32 9.3.0/armtools/bin/../lib/gcc/arm-atollic-eabi/6.3.1/armv6-m\libgcc.a(gedf2.o)
 .debug_frame   0x00006a40       0x38 c:/program files (x86)/atollic/truestudio for stm32 9.3.0/armtools/bin/../lib/gcc/arm-atollic-eabi/6.3.1/armv6-m\libgcc.a(ledf2.o)
 .debug_frame   0x00006a78       0x2c c:/program files (x86)/atollic/truestudio for stm32 9.3.0/armtools/bin/../lib/gcc/arm-atollic-eabi/6.3.1/armv6-m\libgcc.a(fixdfsi.o)
