
VIESEL_COLLAUDO_TASTIERA_SHIFTREG.elf:     file format elf32-littlearm

Sections:
Idx Name          Size      VMA       LMA       File off  Algn
  0 .isr_vector   000000c0  08000000  08000000  00010000  2**0
                  CONTENTS, ALLOC, LOAD, READONLY, DATA
  1 .text         0000ef5c  080000c0  080000c0  000100c0  2**2
                  CONTENTS, ALLOC, LOAD, READONLY, CODE
  2 .rodata       000005c0  0800f01c  0800f01c  0001f01c  2**2
                  CONTENTS, ALLOC, LOAD, READONLY, DATA
  3 .init_array   00000004  0800f5dc  0800f5dc  0001f5dc  2**2
                  CONTENTS, ALLOC, LOAD, DATA
  4 .fini_array   00000004  0800f5e0  0800f5e0  0001f5e0  2**2
                  CONTENTS, ALLOC, LOAD, DATA
  5 .data         000000e4  20000000  0800f5e4  00020000  2**2
                  CONTENTS, ALLOC, LOAD, DATA
  6 .bss          000008b4  200000e8  0800f6c8  000200e8  2**3
                  ALLOC
  7 ._user_heap_stack 00000600  2000099c  0800f6c8  0002099c  2**0
                  ALLOC
  8 .ARM.attributes 00000028  00000000  00000000  000200e4  2**0
                  CONTENTS, READONLY
  9 .debug_info   0003559d  00000000  00000000  0002010c  2**0
                  CONTENTS, READONLY, DEBUGGING
 10 .debug_abbrev 00005eba  00000000  00000000  000556a9  2**0
                  CONTENTS, READONLY, DEBUGGING
 11 .debug_aranges 00001c20  00000000  00000000  0005b568  2**3
                  CONTENTS, READONLY, DEBUGGING
 12 .debug_ranges 00001978  00000000  00000000  0005d188  2**3
                  CONTENTS, READONLY, DEBUGGING
 13 .debug_line   00011bcf  00000000  00000000  0005eb00  2**0
                  CONTENTS, READONLY, DEBUGGING
 14 .debug_str    00007c2f  00000000  00000000  000706cf  2**0
                  CONTENTS, READONLY, DEBUGGING
 15 .comment      0000007c  00000000  00000000  000782fe  2**0
                  CONTENTS, READONLY
 16 .debug_frame  00006aa4  00000000  00000000  0007837c  2**2
                  CONTENTS, READONLY, DEBUGGING

Disassembly of section .text:

080000c0 <__do_global_dtors_aux>:
 80000c0:	b510      	push	{r4, lr}
 80000c2:	4c06      	ldr	r4, [pc, #24]	; (80000dc <__do_global_dtors_aux+0x1c>)
 80000c4:	7823      	ldrb	r3, [r4, #0]
 80000c6:	2b00      	cmp	r3, #0
 80000c8:	d107      	bne.n	80000da <__do_global_dtors_aux+0x1a>
 80000ca:	4b05      	ldr	r3, [pc, #20]	; (80000e0 <__do_global_dtors_aux+0x20>)
 80000cc:	2b00      	cmp	r3, #0
 80000ce:	d002      	beq.n	80000d6 <__do_global_dtors_aux+0x16>
 80000d0:	4804      	ldr	r0, [pc, #16]	; (80000e4 <__do_global_dtors_aux+0x24>)
 80000d2:	e000      	b.n	80000d6 <__do_global_dtors_aux+0x16>
 80000d4:	bf00      	nop
 80000d6:	2301      	movs	r3, #1
 80000d8:	7023      	strb	r3, [r4, #0]
 80000da:	bd10      	pop	{r4, pc}
 80000dc:	200000e8 	.word	0x200000e8
 80000e0:	00000000 	.word	0x00000000
 80000e4:	0800f004 	.word	0x0800f004

080000e8 <frame_dummy>:
 80000e8:	4b04      	ldr	r3, [pc, #16]	; (80000fc <frame_dummy+0x14>)
 80000ea:	b510      	push	{r4, lr}
 80000ec:	2b00      	cmp	r3, #0
 80000ee:	d003      	beq.n	80000f8 <frame_dummy+0x10>
 80000f0:	4903      	ldr	r1, [pc, #12]	; (8000100 <frame_dummy+0x18>)
 80000f2:	4804      	ldr	r0, [pc, #16]	; (8000104 <frame_dummy+0x1c>)
 80000f4:	e000      	b.n	80000f8 <frame_dummy+0x10>
 80000f6:	bf00      	nop
 80000f8:	bd10      	pop	{r4, pc}
 80000fa:	46c0      	nop			; (mov r8, r8)
 80000fc:	00000000 	.word	0x00000000
 8000100:	200000ec 	.word	0x200000ec
 8000104:	0800f004 	.word	0x0800f004

08000108 <strlen>:
 8000108:	2300      	movs	r3, #0
 800010a:	5cc2      	ldrb	r2, [r0, r3]
 800010c:	3301      	adds	r3, #1
 800010e:	2a00      	cmp	r2, #0
 8000110:	d1fb      	bne.n	800010a <strlen+0x2>
 8000112:	1e58      	subs	r0, r3, #1
 8000114:	4770      	bx	lr
	...

08000118 <__udivsi3>:
 8000118:	2200      	movs	r2, #0
 800011a:	0843      	lsrs	r3, r0, #1
 800011c:	428b      	cmp	r3, r1
 800011e:	d374      	bcc.n	800020a <__udivsi3+0xf2>
 8000120:	0903      	lsrs	r3, r0, #4
 8000122:	428b      	cmp	r3, r1
 8000124:	d35f      	bcc.n	80001e6 <__udivsi3+0xce>
 8000126:	0a03      	lsrs	r3, r0, #8
 8000128:	428b      	cmp	r3, r1
 800012a:	d344      	bcc.n	80001b6 <__udivsi3+0x9e>
 800012c:	0b03      	lsrs	r3, r0, #12
 800012e:	428b      	cmp	r3, r1
 8000130:	d328      	bcc.n	8000184 <__udivsi3+0x6c>
 8000132:	0c03      	lsrs	r3, r0, #16
 8000134:	428b      	cmp	r3, r1
 8000136:	d30d      	bcc.n	8000154 <__udivsi3+0x3c>
 8000138:	22ff      	movs	r2, #255	; 0xff
 800013a:	0209      	lsls	r1, r1, #8
 800013c:	ba12      	rev	r2, r2
 800013e:	0c03      	lsrs	r3, r0, #16
 8000140:	428b      	cmp	r3, r1
 8000142:	d302      	bcc.n	800014a <__udivsi3+0x32>
 8000144:	1212      	asrs	r2, r2, #8
 8000146:	0209      	lsls	r1, r1, #8
 8000148:	d065      	beq.n	8000216 <__udivsi3+0xfe>
 800014a:	0b03      	lsrs	r3, r0, #12
 800014c:	428b      	cmp	r3, r1
 800014e:	d319      	bcc.n	8000184 <__udivsi3+0x6c>
 8000150:	e000      	b.n	8000154 <__udivsi3+0x3c>
 8000152:	0a09      	lsrs	r1, r1, #8
 8000154:	0bc3      	lsrs	r3, r0, #15
 8000156:	428b      	cmp	r3, r1
 8000158:	d301      	bcc.n	800015e <__udivsi3+0x46>
 800015a:	03cb      	lsls	r3, r1, #15
 800015c:	1ac0      	subs	r0, r0, r3
 800015e:	4152      	adcs	r2, r2
 8000160:	0b83      	lsrs	r3, r0, #14
 8000162:	428b      	cmp	r3, r1
 8000164:	d301      	bcc.n	800016a <__udivsi3+0x52>
 8000166:	038b      	lsls	r3, r1, #14
 8000168:	1ac0      	subs	r0, r0, r3
 800016a:	4152      	adcs	r2, r2
 800016c:	0b43      	lsrs	r3, r0, #13
 800016e:	428b      	cmp	r3, r1
 8000170:	d301      	bcc.n	8000176 <__udivsi3+0x5e>
 8000172:	034b      	lsls	r3, r1, #13
 8000174:	1ac0      	subs	r0, r0, r3
 8000176:	4152      	adcs	r2, r2
 8000178:	0b03      	lsrs	r3, r0, #12
 800017a:	428b      	cmp	r3, r1
 800017c:	d301      	bcc.n	8000182 <__udivsi3+0x6a>
 800017e:	030b      	lsls	r3, r1, #12
 8000180:	1ac0      	subs	r0, r0, r3
 8000182:	4152      	adcs	r2, r2
 8000184:	0ac3      	lsrs	r3, r0, #11
 8000186:	428b      	cmp	r3, r1
 8000188:	d301      	bcc.n	800018e <__udivsi3+0x76>
 800018a:	02cb      	lsls	r3, r1, #11
 800018c:	1ac0      	subs	r0, r0, r3
 800018e:	4152      	adcs	r2, r2
 8000190:	0a83      	lsrs	r3, r0, #10
 8000192:	428b      	cmp	r3, r1
 8000194:	d301      	bcc.n	800019a <__udivsi3+0x82>
 8000196:	028b      	lsls	r3, r1, #10
 8000198:	1ac0      	subs	r0, r0, r3
 800019a:	4152      	adcs	r2, r2
 800019c:	0a43      	lsrs	r3, r0, #9
 800019e:	428b      	cmp	r3, r1
 80001a0:	d301      	bcc.n	80001a6 <__udivsi3+0x8e>
 80001a2:	024b      	lsls	r3, r1, #9
 80001a4:	1ac0      	subs	r0, r0, r3
 80001a6:	4152      	adcs	r2, r2
 80001a8:	0a03      	lsrs	r3, r0, #8
 80001aa:	428b      	cmp	r3, r1
 80001ac:	d301      	bcc.n	80001b2 <__udivsi3+0x9a>
 80001ae:	020b      	lsls	r3, r1, #8
 80001b0:	1ac0      	subs	r0, r0, r3
 80001b2:	4152      	adcs	r2, r2
 80001b4:	d2cd      	bcs.n	8000152 <__udivsi3+0x3a>
 80001b6:	09c3      	lsrs	r3, r0, #7
 80001b8:	428b      	cmp	r3, r1
 80001ba:	d301      	bcc.n	80001c0 <__udivsi3+0xa8>
 80001bc:	01cb      	lsls	r3, r1, #7
 80001be:	1ac0      	subs	r0, r0, r3
 80001c0:	4152      	adcs	r2, r2
 80001c2:	0983      	lsrs	r3, r0, #6
 80001c4:	428b      	cmp	r3, r1
 80001c6:	d301      	bcc.n	80001cc <__udivsi3+0xb4>
 80001c8:	018b      	lsls	r3, r1, #6
 80001ca:	1ac0      	subs	r0, r0, r3
 80001cc:	4152      	adcs	r2, r2
 80001ce:	0943      	lsrs	r3, r0, #5
 80001d0:	428b      	cmp	r3, r1
 80001d2:	d301      	bcc.n	80001d8 <__udivsi3+0xc0>
 80001d4:	014b      	lsls	r3, r1, #5
 80001d6:	1ac0      	subs	r0, r0, r3
 80001d8:	4152      	adcs	r2, r2
 80001da:	0903      	lsrs	r3, r0, #4
 80001dc:	428b      	cmp	r3, r1
 80001de:	d301      	bcc.n	80001e4 <__udivsi3+0xcc>
 80001e0:	010b      	lsls	r3, r1, #4
 80001e2:	1ac0      	subs	r0, r0, r3
 80001e4:	4152      	adcs	r2, r2
 80001e6:	08c3      	lsrs	r3, r0, #3
 80001e8:	428b      	cmp	r3, r1
 80001ea:	d301      	bcc.n	80001f0 <__udivsi3+0xd8>
 80001ec:	00cb      	lsls	r3, r1, #3
 80001ee:	1ac0      	subs	r0, r0, r3
 80001f0:	4152      	adcs	r2, r2
 80001f2:	0883      	lsrs	r3, r0, #2
 80001f4:	428b      	cmp	r3, r1
 80001f6:	d301      	bcc.n	80001fc <__udivsi3+0xe4>
 80001f8:	008b      	lsls	r3, r1, #2
 80001fa:	1ac0      	subs	r0, r0, r3
 80001fc:	4152      	adcs	r2, r2
 80001fe:	0843      	lsrs	r3, r0, #1
 8000200:	428b      	cmp	r3, r1
 8000202:	d301      	bcc.n	8000208 <__udivsi3+0xf0>
 8000204:	004b      	lsls	r3, r1, #1
 8000206:	1ac0      	subs	r0, r0, r3
 8000208:	4152      	adcs	r2, r2
 800020a:	1a41      	subs	r1, r0, r1
 800020c:	d200      	bcs.n	8000210 <__udivsi3+0xf8>
 800020e:	4601      	mov	r1, r0
 8000210:	4152      	adcs	r2, r2
 8000212:	4610      	mov	r0, r2
 8000214:	4770      	bx	lr
 8000216:	e7ff      	b.n	8000218 <__udivsi3+0x100>
 8000218:	b501      	push	{r0, lr}
 800021a:	2000      	movs	r0, #0
 800021c:	f000 f8f0 	bl	8000400 <__aeabi_idiv0>
 8000220:	bd02      	pop	{r1, pc}
 8000222:	46c0      	nop			; (mov r8, r8)

08000224 <__aeabi_uidivmod>:
 8000224:	2900      	cmp	r1, #0
 8000226:	d0f7      	beq.n	8000218 <__udivsi3+0x100>
 8000228:	e776      	b.n	8000118 <__udivsi3>
 800022a:	4770      	bx	lr

0800022c <__divsi3>:
 800022c:	4603      	mov	r3, r0
 800022e:	430b      	orrs	r3, r1
 8000230:	d47f      	bmi.n	8000332 <__divsi3+0x106>
 8000232:	2200      	movs	r2, #0
 8000234:	0843      	lsrs	r3, r0, #1
 8000236:	428b      	cmp	r3, r1
 8000238:	d374      	bcc.n	8000324 <__divsi3+0xf8>
 800023a:	0903      	lsrs	r3, r0, #4
 800023c:	428b      	cmp	r3, r1
 800023e:	d35f      	bcc.n	8000300 <__divsi3+0xd4>
 8000240:	0a03      	lsrs	r3, r0, #8
 8000242:	428b      	cmp	r3, r1
 8000244:	d344      	bcc.n	80002d0 <__divsi3+0xa4>
 8000246:	0b03      	lsrs	r3, r0, #12
 8000248:	428b      	cmp	r3, r1
 800024a:	d328      	bcc.n	800029e <__divsi3+0x72>
 800024c:	0c03      	lsrs	r3, r0, #16
 800024e:	428b      	cmp	r3, r1
 8000250:	d30d      	bcc.n	800026e <__divsi3+0x42>
 8000252:	22ff      	movs	r2, #255	; 0xff
 8000254:	0209      	lsls	r1, r1, #8
 8000256:	ba12      	rev	r2, r2
 8000258:	0c03      	lsrs	r3, r0, #16
 800025a:	428b      	cmp	r3, r1
 800025c:	d302      	bcc.n	8000264 <__divsi3+0x38>
 800025e:	1212      	asrs	r2, r2, #8
 8000260:	0209      	lsls	r1, r1, #8
 8000262:	d065      	beq.n	8000330 <__divsi3+0x104>
 8000264:	0b03      	lsrs	r3, r0, #12
 8000266:	428b      	cmp	r3, r1
 8000268:	d319      	bcc.n	800029e <__divsi3+0x72>
 800026a:	e000      	b.n	800026e <__divsi3+0x42>
 800026c:	0a09      	lsrs	r1, r1, #8
 800026e:	0bc3      	lsrs	r3, r0, #15
 8000270:	428b      	cmp	r3, r1
 8000272:	d301      	bcc.n	8000278 <__divsi3+0x4c>
 8000274:	03cb      	lsls	r3, r1, #15
 8000276:	1ac0      	subs	r0, r0, r3
 8000278:	4152      	adcs	r2, r2
 800027a:	0b83      	lsrs	r3, r0, #14
 800027c:	428b      	cmp	r3, r1
 800027e:	d301      	bcc.n	8000284 <__divsi3+0x58>
 8000280:	038b      	lsls	r3, r1, #14
 8000282:	1ac0      	subs	r0, r0, r3
 8000284:	4152      	adcs	r2, r2
 8000286:	0b43      	lsrs	r3, r0, #13
 8000288:	428b      	cmp	r3, r1
 800028a:	d301      	bcc.n	8000290 <__divsi3+0x64>
 800028c:	034b      	lsls	r3, r1, #13
 800028e:	1ac0      	subs	r0, r0, r3
 8000290:	4152      	adcs	r2, r2
 8000292:	0b03      	lsrs	r3, r0, #12
 8000294:	428b      	cmp	r3, r1
 8000296:	d301      	bcc.n	800029c <__divsi3+0x70>
 8000298:	030b      	lsls	r3, r1, #12
 800029a:	1ac0      	subs	r0, r0, r3
 800029c:	4152      	adcs	r2, r2
 800029e:	0ac3      	lsrs	r3, r0, #11
 80002a0:	428b      	cmp	r3, r1
 80002a2:	d301      	bcc.n	80002a8 <__divsi3+0x7c>
 80002a4:	02cb      	lsls	r3, r1, #11
 80002a6:	1ac0      	subs	r0, r0, r3
 80002a8:	4152      	adcs	r2, r2
 80002aa:	0a83      	lsrs	r3, r0, #10
 80002ac:	428b      	cmp	r3, r1
 80002ae:	d301      	bcc.n	80002b4 <__divsi3+0x88>
 80002b0:	028b      	lsls	r3, r1, #10
 80002b2:	1ac0      	subs	r0, r0, r3
 80002b4:	4152      	adcs	r2, r2
 80002b6:	0a43      	lsrs	r3, r0, #9
 80002b8:	428b      	cmp	r3, r1
 80002ba:	d301      	bcc.n	80002c0 <__divsi3+0x94>
 80002bc:	024b      	lsls	r3, r1, #9
 80002be:	1ac0      	subs	r0, r0, r3
 80002c0:	4152      	adcs	r2, r2
 80002c2:	0a03      	lsrs	r3, r0, #8
 80002c4:	428b      	cmp	r3, r1
 80002c6:	d301      	bcc.n	80002cc <__divsi3+0xa0>
 80002c8:	020b      	lsls	r3, r1, #8
 80002ca:	1ac0      	subs	r0, r0, r3
 80002cc:	4152      	adcs	r2, r2
 80002ce:	d2cd      	bcs.n	800026c <__divsi3+0x40>
 80002d0:	09c3      	lsrs	r3, r0, #7
 80002d2:	428b      	cmp	r3, r1
 80002d4:	d301      	bcc.n	80002da <__divsi3+0xae>
 80002d6:	01cb      	lsls	r3, r1, #7
 80002d8:	1ac0      	subs	r0, r0, r3
 80002da:	4152      	adcs	r2, r2
 80002dc:	0983      	lsrs	r3, r0, #6
 80002de:	428b      	cmp	r3, r1
 80002e0:	d301      	bcc.n	80002e6 <__divsi3+0xba>
 80002e2:	018b      	lsls	r3, r1, #6
 80002e4:	1ac0      	subs	r0, r0, r3
 80002e6:	4152      	adcs	r2, r2
 80002e8:	0943      	lsrs	r3, r0, #5
 80002ea:	428b      	cmp	r3, r1
 80002ec:	d301      	bcc.n	80002f2 <__divsi3+0xc6>
 80002ee:	014b      	lsls	r3, r1, #5
 80002f0:	1ac0      	subs	r0, r0, r3
 80002f2:	4152      	adcs	r2, r2
 80002f4:	0903      	lsrs	r3, r0, #4
 80002f6:	428b      	cmp	r3, r1
 80002f8:	d301      	bcc.n	80002fe <__divsi3+0xd2>
 80002fa:	010b      	lsls	r3, r1, #4
 80002fc:	1ac0      	subs	r0, r0, r3
 80002fe:	4152      	adcs	r2, r2
 8000300:	08c3      	lsrs	r3, r0, #3
 8000302:	428b      	cmp	r3, r1
 8000304:	d301      	bcc.n	800030a <__divsi3+0xde>
 8000306:	00cb      	lsls	r3, r1, #3
 8000308:	1ac0      	subs	r0, r0, r3
 800030a:	4152      	adcs	r2, r2
 800030c:	0883      	lsrs	r3, r0, #2
 800030e:	428b      	cmp	r3, r1
 8000310:	d301      	bcc.n	8000316 <__divsi3+0xea>
 8000312:	008b      	lsls	r3, r1, #2
 8000314:	1ac0      	subs	r0, r0, r3
 8000316:	4152      	adcs	r2, r2
 8000318:	0843      	lsrs	r3, r0, #1
 800031a:	428b      	cmp	r3, r1
 800031c:	d301      	bcc.n	8000322 <__divsi3+0xf6>
 800031e:	004b      	lsls	r3, r1, #1
 8000320:	1ac0      	subs	r0, r0, r3
 8000322:	4152      	adcs	r2, r2
 8000324:	1a41      	subs	r1, r0, r1
 8000326:	d200      	bcs.n	800032a <__divsi3+0xfe>
 8000328:	4601      	mov	r1, r0
 800032a:	4152      	adcs	r2, r2
 800032c:	4610      	mov	r0, r2
 800032e:	4770      	bx	lr
 8000330:	e05d      	b.n	80003ee <__divsi3+0x1c2>
 8000332:	0fca      	lsrs	r2, r1, #31
 8000334:	d000      	beq.n	8000338 <__divsi3+0x10c>
 8000336:	4249      	negs	r1, r1
 8000338:	1003      	asrs	r3, r0, #32
 800033a:	d300      	bcc.n	800033e <__divsi3+0x112>
 800033c:	4240      	negs	r0, r0
 800033e:	4053      	eors	r3, r2
 8000340:	2200      	movs	r2, #0
 8000342:	469c      	mov	ip, r3
 8000344:	0903      	lsrs	r3, r0, #4
 8000346:	428b      	cmp	r3, r1
 8000348:	d32d      	bcc.n	80003a6 <__divsi3+0x17a>
 800034a:	0a03      	lsrs	r3, r0, #8
 800034c:	428b      	cmp	r3, r1
 800034e:	d312      	bcc.n	8000376 <__divsi3+0x14a>
 8000350:	22fc      	movs	r2, #252	; 0xfc
 8000352:	0189      	lsls	r1, r1, #6
 8000354:	ba12      	rev	r2, r2
 8000356:	0a03      	lsrs	r3, r0, #8
 8000358:	428b      	cmp	r3, r1
 800035a:	d30c      	bcc.n	8000376 <__divsi3+0x14a>
 800035c:	0189      	lsls	r1, r1, #6
 800035e:	1192      	asrs	r2, r2, #6
 8000360:	428b      	cmp	r3, r1
 8000362:	d308      	bcc.n	8000376 <__divsi3+0x14a>
 8000364:	0189      	lsls	r1, r1, #6
 8000366:	1192      	asrs	r2, r2, #6
 8000368:	428b      	cmp	r3, r1
 800036a:	d304      	bcc.n	8000376 <__divsi3+0x14a>
 800036c:	0189      	lsls	r1, r1, #6
 800036e:	d03a      	beq.n	80003e6 <__divsi3+0x1ba>
 8000370:	1192      	asrs	r2, r2, #6
 8000372:	e000      	b.n	8000376 <__divsi3+0x14a>
 8000374:	0989      	lsrs	r1, r1, #6
 8000376:	09c3      	lsrs	r3, r0, #7
 8000378:	428b      	cmp	r3, r1
 800037a:	d301      	bcc.n	8000380 <__divsi3+0x154>
 800037c:	01cb      	lsls	r3, r1, #7
 800037e:	1ac0      	subs	r0, r0, r3
 8000380:	4152      	adcs	r2, r2
 8000382:	0983      	lsrs	r3, r0, #6
 8000384:	428b      	cmp	r3, r1
 8000386:	d301      	bcc.n	800038c <__divsi3+0x160>
 8000388:	018b      	lsls	r3, r1, #6
 800038a:	1ac0      	subs	r0, r0, r3
 800038c:	4152      	adcs	r2, r2
 800038e:	0943      	lsrs	r3, r0, #5
 8000390:	428b      	cmp	r3, r1
 8000392:	d301      	bcc.n	8000398 <__divsi3+0x16c>
 8000394:	014b      	lsls	r3, r1, #5
 8000396:	1ac0      	subs	r0, r0, r3
 8000398:	4152      	adcs	r2, r2
 800039a:	0903      	lsrs	r3, r0, #4
 800039c:	428b      	cmp	r3, r1
 800039e:	d301      	bcc.n	80003a4 <__divsi3+0x178>
 80003a0:	010b      	lsls	r3, r1, #4
 80003a2:	1ac0      	subs	r0, r0, r3
 80003a4:	4152      	adcs	r2, r2
 80003a6:	08c3      	lsrs	r3, r0, #3
 80003a8:	428b      	cmp	r3, r1
 80003aa:	d301      	bcc.n	80003b0 <__divsi3+0x184>
 80003ac:	00cb      	lsls	r3, r1, #3
 80003ae:	1ac0      	subs	r0, r0, r3
 80003b0:	4152      	adcs	r2, r2
 80003b2:	0883      	lsrs	r3, r0, #2
 80003b4:	428b      	cmp	r3, r1
 80003b6:	d301      	bcc.n	80003bc <__divsi3+0x190>
 80003b8:	008b      	lsls	r3, r1, #2
 80003ba:	1ac0      	subs	r0, r0, r3
 80003bc:	4152      	adcs	r2, r2
 80003be:	d2d9      	bcs.n	8000374 <__divsi3+0x148>
 80003c0:	0843      	lsrs	r3, r0, #1
 80003c2:	428b      	cmp	r3, r1
 80003c4:	d301      	bcc.n	80003ca <__divsi3+0x19e>
 80003c6:	004b      	lsls	r3, r1, #1
 80003c8:	1ac0      	subs	r0, r0, r3
 80003ca:	4152      	adcs	r2, r2
 80003cc:	1a41      	subs	r1, r0, r1
 80003ce:	d200      	bcs.n	80003d2 <__divsi3+0x1a6>
 80003d0:	4601      	mov	r1, r0
 80003d2:	4663      	mov	r3, ip
 80003d4:	4152      	adcs	r2, r2
 80003d6:	105b      	asrs	r3, r3, #1
 80003d8:	4610      	mov	r0, r2
 80003da:	d301      	bcc.n	80003e0 <__divsi3+0x1b4>
 80003dc:	4240      	negs	r0, r0
 80003de:	2b00      	cmp	r3, #0
 80003e0:	d500      	bpl.n	80003e4 <__divsi3+0x1b8>
 80003e2:	4249      	negs	r1, r1
 80003e4:	4770      	bx	lr
 80003e6:	4663      	mov	r3, ip
 80003e8:	105b      	asrs	r3, r3, #1
 80003ea:	d300      	bcc.n	80003ee <__divsi3+0x1c2>
 80003ec:	4240      	negs	r0, r0
 80003ee:	b501      	push	{r0, lr}
 80003f0:	2000      	movs	r0, #0
 80003f2:	f000 f805 	bl	8000400 <__aeabi_idiv0>
 80003f6:	bd02      	pop	{r1, pc}

080003f8 <__aeabi_idivmod>:
 80003f8:	2900      	cmp	r1, #0
 80003fa:	d0f8      	beq.n	80003ee <__divsi3+0x1c2>
 80003fc:	e716      	b.n	800022c <__divsi3>
 80003fe:	4770      	bx	lr

08000400 <__aeabi_idiv0>:
 8000400:	4770      	bx	lr
 8000402:	46c0      	nop			; (mov r8, r8)

08000404 <__aeabi_cdrcmple>:
 8000404:	4684      	mov	ip, r0
 8000406:	1c10      	adds	r0, r2, #0
 8000408:	4662      	mov	r2, ip
 800040a:	468c      	mov	ip, r1
 800040c:	1c19      	adds	r1, r3, #0
 800040e:	4663      	mov	r3, ip
 8000410:	e000      	b.n	8000414 <__aeabi_cdcmpeq>
 8000412:	46c0      	nop			; (mov r8, r8)

08000414 <__aeabi_cdcmpeq>:
 8000414:	b51f      	push	{r0, r1, r2, r3, r4, lr}
 8000416:	f000 fbe1 	bl	8000bdc <__ledf2>
 800041a:	2800      	cmp	r0, #0
 800041c:	d401      	bmi.n	8000422 <__aeabi_cdcmpeq+0xe>
 800041e:	2100      	movs	r1, #0
 8000420:	42c8      	cmn	r0, r1
 8000422:	bd1f      	pop	{r0, r1, r2, r3, r4, pc}

08000424 <__aeabi_dcmpeq>:
 8000424:	b510      	push	{r4, lr}
 8000426:	f000 fb3b 	bl	8000aa0 <__eqdf2>
 800042a:	4240      	negs	r0, r0
 800042c:	3001      	adds	r0, #1
 800042e:	bd10      	pop	{r4, pc}

08000430 <__aeabi_dcmplt>:
 8000430:	b510      	push	{r4, lr}
 8000432:	f000 fbd3 	bl	8000bdc <__ledf2>
 8000436:	2800      	cmp	r0, #0
 8000438:	db01      	blt.n	800043e <__aeabi_dcmplt+0xe>
 800043a:	2000      	movs	r0, #0
 800043c:	bd10      	pop	{r4, pc}
 800043e:	2001      	movs	r0, #1
 8000440:	bd10      	pop	{r4, pc}
 8000442:	46c0      	nop			; (mov r8, r8)

08000444 <__aeabi_dcmple>:
 8000444:	b510      	push	{r4, lr}
 8000446:	f000 fbc9 	bl	8000bdc <__ledf2>
 800044a:	2800      	cmp	r0, #0
 800044c:	dd01      	ble.n	8000452 <__aeabi_dcmple+0xe>
 800044e:	2000      	movs	r0, #0
 8000450:	bd10      	pop	{r4, pc}
 8000452:	2001      	movs	r0, #1
 8000454:	bd10      	pop	{r4, pc}
 8000456:	46c0      	nop			; (mov r8, r8)

08000458 <__aeabi_dcmpgt>:
 8000458:	b510      	push	{r4, lr}
 800045a:	f000 fb5b 	bl	8000b14 <__gedf2>
 800045e:	2800      	cmp	r0, #0
 8000460:	dc01      	bgt.n	8000466 <__aeabi_dcmpgt+0xe>
 8000462:	2000      	movs	r0, #0
 8000464:	bd10      	pop	{r4, pc}
 8000466:	2001      	movs	r0, #1
 8000468:	bd10      	pop	{r4, pc}
 800046a:	46c0      	nop			; (mov r8, r8)

0800046c <__aeabi_dcmpge>:
 800046c:	b510      	push	{r4, lr}
 800046e:	f000 fb51 	bl	8000b14 <__gedf2>
 8000472:	2800      	cmp	r0, #0
 8000474:	da01      	bge.n	800047a <__aeabi_dcmpge+0xe>
 8000476:	2000      	movs	r0, #0
 8000478:	bd10      	pop	{r4, pc}
 800047a:	2001      	movs	r0, #1
 800047c:	bd10      	pop	{r4, pc}
 800047e:	46c0      	nop			; (mov r8, r8)

08000480 <__aeabi_dadd>:
 8000480:	b5f8      	push	{r3, r4, r5, r6, r7, lr}
 8000482:	4645      	mov	r5, r8
 8000484:	46de      	mov	lr, fp
 8000486:	4657      	mov	r7, sl
 8000488:	464e      	mov	r6, r9
 800048a:	030c      	lsls	r4, r1, #12
 800048c:	b5e0      	push	{r5, r6, r7, lr}
 800048e:	004e      	lsls	r6, r1, #1
 8000490:	0fc9      	lsrs	r1, r1, #31
 8000492:	4688      	mov	r8, r1
 8000494:	000d      	movs	r5, r1
 8000496:	0a61      	lsrs	r1, r4, #9
 8000498:	0f44      	lsrs	r4, r0, #29
 800049a:	430c      	orrs	r4, r1
 800049c:	00c7      	lsls	r7, r0, #3
 800049e:	0319      	lsls	r1, r3, #12
 80004a0:	0058      	lsls	r0, r3, #1
 80004a2:	0fdb      	lsrs	r3, r3, #31
 80004a4:	469b      	mov	fp, r3
 80004a6:	0a4b      	lsrs	r3, r1, #9
 80004a8:	0f51      	lsrs	r1, r2, #29
 80004aa:	430b      	orrs	r3, r1
 80004ac:	0d76      	lsrs	r6, r6, #21
 80004ae:	0d40      	lsrs	r0, r0, #21
 80004b0:	0019      	movs	r1, r3
 80004b2:	00d2      	lsls	r2, r2, #3
 80004b4:	45d8      	cmp	r8, fp
 80004b6:	d100      	bne.n	80004ba <__aeabi_dadd+0x3a>
 80004b8:	e0ae      	b.n	8000618 <__aeabi_dadd+0x198>
 80004ba:	1a35      	subs	r5, r6, r0
 80004bc:	2d00      	cmp	r5, #0
 80004be:	dc00      	bgt.n	80004c2 <__aeabi_dadd+0x42>
 80004c0:	e0f6      	b.n	80006b0 <__aeabi_dadd+0x230>
 80004c2:	2800      	cmp	r0, #0
 80004c4:	d10f      	bne.n	80004e6 <__aeabi_dadd+0x66>
 80004c6:	4313      	orrs	r3, r2
 80004c8:	d100      	bne.n	80004cc <__aeabi_dadd+0x4c>
 80004ca:	e0db      	b.n	8000684 <__aeabi_dadd+0x204>
 80004cc:	1e6b      	subs	r3, r5, #1
 80004ce:	2b00      	cmp	r3, #0
 80004d0:	d000      	beq.n	80004d4 <__aeabi_dadd+0x54>
 80004d2:	e137      	b.n	8000744 <__aeabi_dadd+0x2c4>
 80004d4:	1aba      	subs	r2, r7, r2
 80004d6:	4297      	cmp	r7, r2
 80004d8:	41bf      	sbcs	r7, r7
 80004da:	1a64      	subs	r4, r4, r1
 80004dc:	427f      	negs	r7, r7
 80004de:	1be4      	subs	r4, r4, r7
 80004e0:	2601      	movs	r6, #1
 80004e2:	0017      	movs	r7, r2
 80004e4:	e024      	b.n	8000530 <__aeabi_dadd+0xb0>
 80004e6:	4bc6      	ldr	r3, [pc, #792]	; (8000800 <__aeabi_dadd+0x380>)
 80004e8:	429e      	cmp	r6, r3
 80004ea:	d04d      	beq.n	8000588 <__aeabi_dadd+0x108>
 80004ec:	2380      	movs	r3, #128	; 0x80
 80004ee:	041b      	lsls	r3, r3, #16
 80004f0:	4319      	orrs	r1, r3
 80004f2:	2d38      	cmp	r5, #56	; 0x38
 80004f4:	dd00      	ble.n	80004f8 <__aeabi_dadd+0x78>
 80004f6:	e107      	b.n	8000708 <__aeabi_dadd+0x288>
 80004f8:	2d1f      	cmp	r5, #31
 80004fa:	dd00      	ble.n	80004fe <__aeabi_dadd+0x7e>
 80004fc:	e138      	b.n	8000770 <__aeabi_dadd+0x2f0>
 80004fe:	2020      	movs	r0, #32
 8000500:	1b43      	subs	r3, r0, r5
 8000502:	469a      	mov	sl, r3
 8000504:	000b      	movs	r3, r1
 8000506:	4650      	mov	r0, sl
 8000508:	4083      	lsls	r3, r0
 800050a:	4699      	mov	r9, r3
 800050c:	0013      	movs	r3, r2
 800050e:	4648      	mov	r0, r9
 8000510:	40eb      	lsrs	r3, r5
 8000512:	4318      	orrs	r0, r3
 8000514:	0003      	movs	r3, r0
 8000516:	4650      	mov	r0, sl
 8000518:	4082      	lsls	r2, r0
 800051a:	1e50      	subs	r0, r2, #1
 800051c:	4182      	sbcs	r2, r0
 800051e:	40e9      	lsrs	r1, r5
 8000520:	431a      	orrs	r2, r3
 8000522:	1aba      	subs	r2, r7, r2
 8000524:	1a61      	subs	r1, r4, r1
 8000526:	4297      	cmp	r7, r2
 8000528:	41a4      	sbcs	r4, r4
 800052a:	0017      	movs	r7, r2
 800052c:	4264      	negs	r4, r4
 800052e:	1b0c      	subs	r4, r1, r4
 8000530:	0223      	lsls	r3, r4, #8
 8000532:	d562      	bpl.n	80005fa <__aeabi_dadd+0x17a>
 8000534:	0264      	lsls	r4, r4, #9
 8000536:	0a65      	lsrs	r5, r4, #9
 8000538:	2d00      	cmp	r5, #0
 800053a:	d100      	bne.n	800053e <__aeabi_dadd+0xbe>
 800053c:	e0df      	b.n	80006fe <__aeabi_dadd+0x27e>
 800053e:	0028      	movs	r0, r5
 8000540:	f000 fbe2 	bl	8000d08 <__clzsi2>
 8000544:	0003      	movs	r3, r0
 8000546:	3b08      	subs	r3, #8
 8000548:	2b1f      	cmp	r3, #31
 800054a:	dd00      	ble.n	800054e <__aeabi_dadd+0xce>
 800054c:	e0d2      	b.n	80006f4 <__aeabi_dadd+0x274>
 800054e:	2220      	movs	r2, #32
 8000550:	003c      	movs	r4, r7
 8000552:	1ad2      	subs	r2, r2, r3
 8000554:	409d      	lsls	r5, r3
 8000556:	40d4      	lsrs	r4, r2
 8000558:	409f      	lsls	r7, r3
 800055a:	4325      	orrs	r5, r4
 800055c:	429e      	cmp	r6, r3
 800055e:	dd00      	ble.n	8000562 <__aeabi_dadd+0xe2>
 8000560:	e0c4      	b.n	80006ec <__aeabi_dadd+0x26c>
 8000562:	1b9e      	subs	r6, r3, r6
 8000564:	1c73      	adds	r3, r6, #1
 8000566:	2b1f      	cmp	r3, #31
 8000568:	dd00      	ble.n	800056c <__aeabi_dadd+0xec>
 800056a:	e0f1      	b.n	8000750 <__aeabi_dadd+0x2d0>
 800056c:	2220      	movs	r2, #32
 800056e:	0038      	movs	r0, r7
 8000570:	0029      	movs	r1, r5
 8000572:	1ad2      	subs	r2, r2, r3
 8000574:	40d8      	lsrs	r0, r3
 8000576:	4091      	lsls	r1, r2
 8000578:	4097      	lsls	r7, r2
 800057a:	002c      	movs	r4, r5
 800057c:	4301      	orrs	r1, r0
 800057e:	1e78      	subs	r0, r7, #1
 8000580:	4187      	sbcs	r7, r0
 8000582:	40dc      	lsrs	r4, r3
 8000584:	2600      	movs	r6, #0
 8000586:	430f      	orrs	r7, r1
 8000588:	077b      	lsls	r3, r7, #29
 800058a:	d009      	beq.n	80005a0 <__aeabi_dadd+0x120>
 800058c:	230f      	movs	r3, #15
 800058e:	403b      	ands	r3, r7
 8000590:	2b04      	cmp	r3, #4
 8000592:	d005      	beq.n	80005a0 <__aeabi_dadd+0x120>
 8000594:	1d3b      	adds	r3, r7, #4
 8000596:	42bb      	cmp	r3, r7
 8000598:	41bf      	sbcs	r7, r7
 800059a:	427f      	negs	r7, r7
 800059c:	19e4      	adds	r4, r4, r7
 800059e:	001f      	movs	r7, r3
 80005a0:	0223      	lsls	r3, r4, #8
 80005a2:	d52c      	bpl.n	80005fe <__aeabi_dadd+0x17e>
 80005a4:	4b96      	ldr	r3, [pc, #600]	; (8000800 <__aeabi_dadd+0x380>)
 80005a6:	3601      	adds	r6, #1
 80005a8:	429e      	cmp	r6, r3
 80005aa:	d100      	bne.n	80005ae <__aeabi_dadd+0x12e>
 80005ac:	e09a      	b.n	80006e4 <__aeabi_dadd+0x264>
 80005ae:	4645      	mov	r5, r8
 80005b0:	4b94      	ldr	r3, [pc, #592]	; (8000804 <__aeabi_dadd+0x384>)
 80005b2:	08ff      	lsrs	r7, r7, #3
 80005b4:	401c      	ands	r4, r3
 80005b6:	0760      	lsls	r0, r4, #29
 80005b8:	0576      	lsls	r6, r6, #21
 80005ba:	0264      	lsls	r4, r4, #9
 80005bc:	4307      	orrs	r7, r0
 80005be:	0b24      	lsrs	r4, r4, #12
 80005c0:	0d76      	lsrs	r6, r6, #21
 80005c2:	2100      	movs	r1, #0
 80005c4:	0324      	lsls	r4, r4, #12
 80005c6:	0b23      	lsrs	r3, r4, #12
 80005c8:	0d0c      	lsrs	r4, r1, #20
 80005ca:	4a8f      	ldr	r2, [pc, #572]	; (8000808 <__aeabi_dadd+0x388>)
 80005cc:	0524      	lsls	r4, r4, #20
 80005ce:	431c      	orrs	r4, r3
 80005d0:	4014      	ands	r4, r2
 80005d2:	0533      	lsls	r3, r6, #20
 80005d4:	4323      	orrs	r3, r4
 80005d6:	005b      	lsls	r3, r3, #1
 80005d8:	07ed      	lsls	r5, r5, #31
 80005da:	085b      	lsrs	r3, r3, #1
 80005dc:	432b      	orrs	r3, r5
 80005de:	0038      	movs	r0, r7
 80005e0:	0019      	movs	r1, r3
 80005e2:	bc3c      	pop	{r2, r3, r4, r5}
 80005e4:	4690      	mov	r8, r2
 80005e6:	4699      	mov	r9, r3
 80005e8:	46a2      	mov	sl, r4
 80005ea:	46ab      	mov	fp, r5
 80005ec:	bdf8      	pop	{r3, r4, r5, r6, r7, pc}
 80005ee:	4664      	mov	r4, ip
 80005f0:	4304      	orrs	r4, r0
 80005f2:	d100      	bne.n	80005f6 <__aeabi_dadd+0x176>
 80005f4:	e211      	b.n	8000a1a <__aeabi_dadd+0x59a>
 80005f6:	0004      	movs	r4, r0
 80005f8:	4667      	mov	r7, ip
 80005fa:	077b      	lsls	r3, r7, #29
 80005fc:	d1c6      	bne.n	800058c <__aeabi_dadd+0x10c>
 80005fe:	4645      	mov	r5, r8
 8000600:	0760      	lsls	r0, r4, #29
 8000602:	08ff      	lsrs	r7, r7, #3
 8000604:	4307      	orrs	r7, r0
 8000606:	08e4      	lsrs	r4, r4, #3
 8000608:	4b7d      	ldr	r3, [pc, #500]	; (8000800 <__aeabi_dadd+0x380>)
 800060a:	429e      	cmp	r6, r3
 800060c:	d030      	beq.n	8000670 <__aeabi_dadd+0x1f0>
 800060e:	0324      	lsls	r4, r4, #12
 8000610:	0576      	lsls	r6, r6, #21
 8000612:	0b24      	lsrs	r4, r4, #12
 8000614:	0d76      	lsrs	r6, r6, #21
 8000616:	e7d4      	b.n	80005c2 <__aeabi_dadd+0x142>
 8000618:	1a33      	subs	r3, r6, r0
 800061a:	469a      	mov	sl, r3
 800061c:	2b00      	cmp	r3, #0
 800061e:	dd78      	ble.n	8000712 <__aeabi_dadd+0x292>
 8000620:	2800      	cmp	r0, #0
 8000622:	d031      	beq.n	8000688 <__aeabi_dadd+0x208>
 8000624:	4876      	ldr	r0, [pc, #472]	; (8000800 <__aeabi_dadd+0x380>)
 8000626:	4286      	cmp	r6, r0
 8000628:	d0ae      	beq.n	8000588 <__aeabi_dadd+0x108>
 800062a:	2080      	movs	r0, #128	; 0x80
 800062c:	0400      	lsls	r0, r0, #16
 800062e:	4301      	orrs	r1, r0
 8000630:	4653      	mov	r3, sl
 8000632:	2b38      	cmp	r3, #56	; 0x38
 8000634:	dc00      	bgt.n	8000638 <__aeabi_dadd+0x1b8>
 8000636:	e0e9      	b.n	800080c <__aeabi_dadd+0x38c>
 8000638:	430a      	orrs	r2, r1
 800063a:	1e51      	subs	r1, r2, #1
 800063c:	418a      	sbcs	r2, r1
 800063e:	2100      	movs	r1, #0
 8000640:	19d2      	adds	r2, r2, r7
 8000642:	42ba      	cmp	r2, r7
 8000644:	41bf      	sbcs	r7, r7
 8000646:	1909      	adds	r1, r1, r4
 8000648:	427c      	negs	r4, r7
 800064a:	0017      	movs	r7, r2
 800064c:	190c      	adds	r4, r1, r4
 800064e:	0223      	lsls	r3, r4, #8
 8000650:	d5d3      	bpl.n	80005fa <__aeabi_dadd+0x17a>
 8000652:	4b6b      	ldr	r3, [pc, #428]	; (8000800 <__aeabi_dadd+0x380>)
 8000654:	3601      	adds	r6, #1
 8000656:	429e      	cmp	r6, r3
 8000658:	d100      	bne.n	800065c <__aeabi_dadd+0x1dc>
 800065a:	e13a      	b.n	80008d2 <__aeabi_dadd+0x452>
 800065c:	2001      	movs	r0, #1
 800065e:	4b69      	ldr	r3, [pc, #420]	; (8000804 <__aeabi_dadd+0x384>)
 8000660:	401c      	ands	r4, r3
 8000662:	087b      	lsrs	r3, r7, #1
 8000664:	4007      	ands	r7, r0
 8000666:	431f      	orrs	r7, r3
 8000668:	07e0      	lsls	r0, r4, #31
 800066a:	4307      	orrs	r7, r0
 800066c:	0864      	lsrs	r4, r4, #1
 800066e:	e78b      	b.n	8000588 <__aeabi_dadd+0x108>
 8000670:	0023      	movs	r3, r4
 8000672:	433b      	orrs	r3, r7
 8000674:	d100      	bne.n	8000678 <__aeabi_dadd+0x1f8>
 8000676:	e1cb      	b.n	8000a10 <__aeabi_dadd+0x590>
 8000678:	2280      	movs	r2, #128	; 0x80
 800067a:	0312      	lsls	r2, r2, #12
 800067c:	4314      	orrs	r4, r2
 800067e:	0324      	lsls	r4, r4, #12
 8000680:	0b24      	lsrs	r4, r4, #12
 8000682:	e79e      	b.n	80005c2 <__aeabi_dadd+0x142>
 8000684:	002e      	movs	r6, r5
 8000686:	e77f      	b.n	8000588 <__aeabi_dadd+0x108>
 8000688:	0008      	movs	r0, r1
 800068a:	4310      	orrs	r0, r2
 800068c:	d100      	bne.n	8000690 <__aeabi_dadd+0x210>
 800068e:	e0b4      	b.n	80007fa <__aeabi_dadd+0x37a>
 8000690:	1e58      	subs	r0, r3, #1
 8000692:	2800      	cmp	r0, #0
 8000694:	d000      	beq.n	8000698 <__aeabi_dadd+0x218>
 8000696:	e0de      	b.n	8000856 <__aeabi_dadd+0x3d6>
 8000698:	18ba      	adds	r2, r7, r2
 800069a:	42ba      	cmp	r2, r7
 800069c:	419b      	sbcs	r3, r3
 800069e:	1864      	adds	r4, r4, r1
 80006a0:	425b      	negs	r3, r3
 80006a2:	18e4      	adds	r4, r4, r3
 80006a4:	0017      	movs	r7, r2
 80006a6:	2601      	movs	r6, #1
 80006a8:	0223      	lsls	r3, r4, #8
 80006aa:	d5a6      	bpl.n	80005fa <__aeabi_dadd+0x17a>
 80006ac:	2602      	movs	r6, #2
 80006ae:	e7d5      	b.n	800065c <__aeabi_dadd+0x1dc>
 80006b0:	2d00      	cmp	r5, #0
 80006b2:	d16e      	bne.n	8000792 <__aeabi_dadd+0x312>
 80006b4:	1c70      	adds	r0, r6, #1
 80006b6:	0540      	lsls	r0, r0, #21
 80006b8:	0d40      	lsrs	r0, r0, #21
 80006ba:	2801      	cmp	r0, #1
 80006bc:	dc00      	bgt.n	80006c0 <__aeabi_dadd+0x240>
 80006be:	e0f9      	b.n	80008b4 <__aeabi_dadd+0x434>
 80006c0:	1ab8      	subs	r0, r7, r2
 80006c2:	4684      	mov	ip, r0
 80006c4:	4287      	cmp	r7, r0
 80006c6:	4180      	sbcs	r0, r0
 80006c8:	1ae5      	subs	r5, r4, r3
 80006ca:	4240      	negs	r0, r0
 80006cc:	1a2d      	subs	r5, r5, r0
 80006ce:	0228      	lsls	r0, r5, #8
 80006d0:	d400      	bmi.n	80006d4 <__aeabi_dadd+0x254>
 80006d2:	e089      	b.n	80007e8 <__aeabi_dadd+0x368>
 80006d4:	1bd7      	subs	r7, r2, r7
 80006d6:	42ba      	cmp	r2, r7
 80006d8:	4192      	sbcs	r2, r2
 80006da:	1b1c      	subs	r4, r3, r4
 80006dc:	4252      	negs	r2, r2
 80006de:	1aa5      	subs	r5, r4, r2
 80006e0:	46d8      	mov	r8, fp
 80006e2:	e729      	b.n	8000538 <__aeabi_dadd+0xb8>
 80006e4:	4645      	mov	r5, r8
 80006e6:	2400      	movs	r4, #0
 80006e8:	2700      	movs	r7, #0
 80006ea:	e76a      	b.n	80005c2 <__aeabi_dadd+0x142>
 80006ec:	4c45      	ldr	r4, [pc, #276]	; (8000804 <__aeabi_dadd+0x384>)
 80006ee:	1af6      	subs	r6, r6, r3
 80006f0:	402c      	ands	r4, r5
 80006f2:	e749      	b.n	8000588 <__aeabi_dadd+0x108>
 80006f4:	003d      	movs	r5, r7
 80006f6:	3828      	subs	r0, #40	; 0x28
 80006f8:	4085      	lsls	r5, r0
 80006fa:	2700      	movs	r7, #0
 80006fc:	e72e      	b.n	800055c <__aeabi_dadd+0xdc>
 80006fe:	0038      	movs	r0, r7
 8000700:	f000 fb02 	bl	8000d08 <__clzsi2>
 8000704:	3020      	adds	r0, #32
 8000706:	e71d      	b.n	8000544 <__aeabi_dadd+0xc4>
 8000708:	430a      	orrs	r2, r1
 800070a:	1e51      	subs	r1, r2, #1
 800070c:	418a      	sbcs	r2, r1
 800070e:	2100      	movs	r1, #0
 8000710:	e707      	b.n	8000522 <__aeabi_dadd+0xa2>
 8000712:	2b00      	cmp	r3, #0
 8000714:	d000      	beq.n	8000718 <__aeabi_dadd+0x298>
 8000716:	e0f3      	b.n	8000900 <__aeabi_dadd+0x480>
 8000718:	1c70      	adds	r0, r6, #1
 800071a:	0543      	lsls	r3, r0, #21
 800071c:	0d5b      	lsrs	r3, r3, #21
 800071e:	2b01      	cmp	r3, #1
 8000720:	dc00      	bgt.n	8000724 <__aeabi_dadd+0x2a4>
 8000722:	e0ad      	b.n	8000880 <__aeabi_dadd+0x400>
 8000724:	4b36      	ldr	r3, [pc, #216]	; (8000800 <__aeabi_dadd+0x380>)
 8000726:	4298      	cmp	r0, r3
 8000728:	d100      	bne.n	800072c <__aeabi_dadd+0x2ac>
 800072a:	e0d1      	b.n	80008d0 <__aeabi_dadd+0x450>
 800072c:	18ba      	adds	r2, r7, r2
 800072e:	42ba      	cmp	r2, r7
 8000730:	41bf      	sbcs	r7, r7
 8000732:	1864      	adds	r4, r4, r1
 8000734:	427f      	negs	r7, r7
 8000736:	19e4      	adds	r4, r4, r7
 8000738:	07e7      	lsls	r7, r4, #31
 800073a:	0852      	lsrs	r2, r2, #1
 800073c:	4317      	orrs	r7, r2
 800073e:	0864      	lsrs	r4, r4, #1
 8000740:	0006      	movs	r6, r0
 8000742:	e721      	b.n	8000588 <__aeabi_dadd+0x108>
 8000744:	482e      	ldr	r0, [pc, #184]	; (8000800 <__aeabi_dadd+0x380>)
 8000746:	4285      	cmp	r5, r0
 8000748:	d100      	bne.n	800074c <__aeabi_dadd+0x2cc>
 800074a:	e093      	b.n	8000874 <__aeabi_dadd+0x3f4>
 800074c:	001d      	movs	r5, r3
 800074e:	e6d0      	b.n	80004f2 <__aeabi_dadd+0x72>
 8000750:	0029      	movs	r1, r5
 8000752:	3e1f      	subs	r6, #31
 8000754:	40f1      	lsrs	r1, r6
 8000756:	2b20      	cmp	r3, #32
 8000758:	d100      	bne.n	800075c <__aeabi_dadd+0x2dc>
 800075a:	e08d      	b.n	8000878 <__aeabi_dadd+0x3f8>
 800075c:	2240      	movs	r2, #64	; 0x40
 800075e:	1ad3      	subs	r3, r2, r3
 8000760:	409d      	lsls	r5, r3
 8000762:	432f      	orrs	r7, r5
 8000764:	1e7d      	subs	r5, r7, #1
 8000766:	41af      	sbcs	r7, r5
 8000768:	2400      	movs	r4, #0
 800076a:	430f      	orrs	r7, r1
 800076c:	2600      	movs	r6, #0
 800076e:	e744      	b.n	80005fa <__aeabi_dadd+0x17a>
 8000770:	002b      	movs	r3, r5
 8000772:	0008      	movs	r0, r1
 8000774:	3b20      	subs	r3, #32
 8000776:	40d8      	lsrs	r0, r3
 8000778:	0003      	movs	r3, r0
 800077a:	2d20      	cmp	r5, #32
 800077c:	d100      	bne.n	8000780 <__aeabi_dadd+0x300>
 800077e:	e07d      	b.n	800087c <__aeabi_dadd+0x3fc>
 8000780:	2040      	movs	r0, #64	; 0x40
 8000782:	1b45      	subs	r5, r0, r5
 8000784:	40a9      	lsls	r1, r5
 8000786:	430a      	orrs	r2, r1
 8000788:	1e51      	subs	r1, r2, #1
 800078a:	418a      	sbcs	r2, r1
 800078c:	2100      	movs	r1, #0
 800078e:	431a      	orrs	r2, r3
 8000790:	e6c7      	b.n	8000522 <__aeabi_dadd+0xa2>
 8000792:	2e00      	cmp	r6, #0
 8000794:	d050      	beq.n	8000838 <__aeabi_dadd+0x3b8>
 8000796:	4e1a      	ldr	r6, [pc, #104]	; (8000800 <__aeabi_dadd+0x380>)
 8000798:	42b0      	cmp	r0, r6
 800079a:	d057      	beq.n	800084c <__aeabi_dadd+0x3cc>
 800079c:	2680      	movs	r6, #128	; 0x80
 800079e:	426b      	negs	r3, r5
 80007a0:	4699      	mov	r9, r3
 80007a2:	0436      	lsls	r6, r6, #16
 80007a4:	4334      	orrs	r4, r6
 80007a6:	464b      	mov	r3, r9
 80007a8:	2b38      	cmp	r3, #56	; 0x38
 80007aa:	dd00      	ble.n	80007ae <__aeabi_dadd+0x32e>
 80007ac:	e0d6      	b.n	800095c <__aeabi_dadd+0x4dc>
 80007ae:	2b1f      	cmp	r3, #31
 80007b0:	dd00      	ble.n	80007b4 <__aeabi_dadd+0x334>
 80007b2:	e135      	b.n	8000a20 <__aeabi_dadd+0x5a0>
 80007b4:	2620      	movs	r6, #32
 80007b6:	1af5      	subs	r5, r6, r3
 80007b8:	0026      	movs	r6, r4
 80007ba:	40ae      	lsls	r6, r5
 80007bc:	46b2      	mov	sl, r6
 80007be:	003e      	movs	r6, r7
 80007c0:	40de      	lsrs	r6, r3
 80007c2:	46ac      	mov	ip, r5
 80007c4:	0035      	movs	r5, r6
 80007c6:	4656      	mov	r6, sl
 80007c8:	432e      	orrs	r6, r5
 80007ca:	4665      	mov	r5, ip
 80007cc:	40af      	lsls	r7, r5
 80007ce:	1e7d      	subs	r5, r7, #1
 80007d0:	41af      	sbcs	r7, r5
 80007d2:	40dc      	lsrs	r4, r3
 80007d4:	4337      	orrs	r7, r6
 80007d6:	1bd7      	subs	r7, r2, r7
 80007d8:	42ba      	cmp	r2, r7
 80007da:	4192      	sbcs	r2, r2
 80007dc:	1b0c      	subs	r4, r1, r4
 80007de:	4252      	negs	r2, r2
 80007e0:	1aa4      	subs	r4, r4, r2
 80007e2:	0006      	movs	r6, r0
 80007e4:	46d8      	mov	r8, fp
 80007e6:	e6a3      	b.n	8000530 <__aeabi_dadd+0xb0>
 80007e8:	4664      	mov	r4, ip
 80007ea:	4667      	mov	r7, ip
 80007ec:	432c      	orrs	r4, r5
 80007ee:	d000      	beq.n	80007f2 <__aeabi_dadd+0x372>
 80007f0:	e6a2      	b.n	8000538 <__aeabi_dadd+0xb8>
 80007f2:	2500      	movs	r5, #0
 80007f4:	2600      	movs	r6, #0
 80007f6:	2700      	movs	r7, #0
 80007f8:	e706      	b.n	8000608 <__aeabi_dadd+0x188>
 80007fa:	001e      	movs	r6, r3
 80007fc:	e6c4      	b.n	8000588 <__aeabi_dadd+0x108>
 80007fe:	46c0      	nop			; (mov r8, r8)
 8000800:	000007ff 	.word	0x000007ff
 8000804:	ff7fffff 	.word	0xff7fffff
 8000808:	800fffff 	.word	0x800fffff
 800080c:	2b1f      	cmp	r3, #31
 800080e:	dc63      	bgt.n	80008d8 <__aeabi_dadd+0x458>
 8000810:	2020      	movs	r0, #32
 8000812:	1ac3      	subs	r3, r0, r3
 8000814:	0008      	movs	r0, r1
 8000816:	4098      	lsls	r0, r3
 8000818:	469c      	mov	ip, r3
 800081a:	4683      	mov	fp, r0
 800081c:	4653      	mov	r3, sl
 800081e:	0010      	movs	r0, r2
 8000820:	40d8      	lsrs	r0, r3
 8000822:	0003      	movs	r3, r0
 8000824:	4658      	mov	r0, fp
 8000826:	4318      	orrs	r0, r3
 8000828:	4663      	mov	r3, ip
 800082a:	409a      	lsls	r2, r3
 800082c:	1e53      	subs	r3, r2, #1
 800082e:	419a      	sbcs	r2, r3
 8000830:	4653      	mov	r3, sl
 8000832:	4302      	orrs	r2, r0
 8000834:	40d9      	lsrs	r1, r3
 8000836:	e703      	b.n	8000640 <__aeabi_dadd+0x1c0>
 8000838:	0026      	movs	r6, r4
 800083a:	433e      	orrs	r6, r7
 800083c:	d006      	beq.n	800084c <__aeabi_dadd+0x3cc>
 800083e:	43eb      	mvns	r3, r5
 8000840:	4699      	mov	r9, r3
 8000842:	2b00      	cmp	r3, #0
 8000844:	d0c7      	beq.n	80007d6 <__aeabi_dadd+0x356>
 8000846:	4e94      	ldr	r6, [pc, #592]	; (8000a98 <__aeabi_dadd+0x618>)
 8000848:	42b0      	cmp	r0, r6
 800084a:	d1ac      	bne.n	80007a6 <__aeabi_dadd+0x326>
 800084c:	000c      	movs	r4, r1
 800084e:	0017      	movs	r7, r2
 8000850:	0006      	movs	r6, r0
 8000852:	46d8      	mov	r8, fp
 8000854:	e698      	b.n	8000588 <__aeabi_dadd+0x108>
 8000856:	4b90      	ldr	r3, [pc, #576]	; (8000a98 <__aeabi_dadd+0x618>)
 8000858:	459a      	cmp	sl, r3
 800085a:	d00b      	beq.n	8000874 <__aeabi_dadd+0x3f4>
 800085c:	4682      	mov	sl, r0
 800085e:	e6e7      	b.n	8000630 <__aeabi_dadd+0x1b0>
 8000860:	2800      	cmp	r0, #0
 8000862:	d000      	beq.n	8000866 <__aeabi_dadd+0x3e6>
 8000864:	e09e      	b.n	80009a4 <__aeabi_dadd+0x524>
 8000866:	0018      	movs	r0, r3
 8000868:	4310      	orrs	r0, r2
 800086a:	d100      	bne.n	800086e <__aeabi_dadd+0x3ee>
 800086c:	e0e9      	b.n	8000a42 <__aeabi_dadd+0x5c2>
 800086e:	001c      	movs	r4, r3
 8000870:	0017      	movs	r7, r2
 8000872:	46d8      	mov	r8, fp
 8000874:	4e88      	ldr	r6, [pc, #544]	; (8000a98 <__aeabi_dadd+0x618>)
 8000876:	e687      	b.n	8000588 <__aeabi_dadd+0x108>
 8000878:	2500      	movs	r5, #0
 800087a:	e772      	b.n	8000762 <__aeabi_dadd+0x2e2>
 800087c:	2100      	movs	r1, #0
 800087e:	e782      	b.n	8000786 <__aeabi_dadd+0x306>
 8000880:	0023      	movs	r3, r4
 8000882:	433b      	orrs	r3, r7
 8000884:	2e00      	cmp	r6, #0
 8000886:	d000      	beq.n	800088a <__aeabi_dadd+0x40a>
 8000888:	e0ab      	b.n	80009e2 <__aeabi_dadd+0x562>
 800088a:	2b00      	cmp	r3, #0
 800088c:	d100      	bne.n	8000890 <__aeabi_dadd+0x410>
 800088e:	e0e7      	b.n	8000a60 <__aeabi_dadd+0x5e0>
 8000890:	000b      	movs	r3, r1
 8000892:	4313      	orrs	r3, r2
 8000894:	d100      	bne.n	8000898 <__aeabi_dadd+0x418>
 8000896:	e677      	b.n	8000588 <__aeabi_dadd+0x108>
 8000898:	18ba      	adds	r2, r7, r2
 800089a:	42ba      	cmp	r2, r7
 800089c:	41bf      	sbcs	r7, r7
 800089e:	1864      	adds	r4, r4, r1
 80008a0:	427f      	negs	r7, r7
 80008a2:	19e4      	adds	r4, r4, r7
 80008a4:	0223      	lsls	r3, r4, #8
 80008a6:	d400      	bmi.n	80008aa <__aeabi_dadd+0x42a>
 80008a8:	e0f2      	b.n	8000a90 <__aeabi_dadd+0x610>
 80008aa:	4b7c      	ldr	r3, [pc, #496]	; (8000a9c <__aeabi_dadd+0x61c>)
 80008ac:	0017      	movs	r7, r2
 80008ae:	401c      	ands	r4, r3
 80008b0:	0006      	movs	r6, r0
 80008b2:	e669      	b.n	8000588 <__aeabi_dadd+0x108>
 80008b4:	0020      	movs	r0, r4
 80008b6:	4338      	orrs	r0, r7
 80008b8:	2e00      	cmp	r6, #0
 80008ba:	d1d1      	bne.n	8000860 <__aeabi_dadd+0x3e0>
 80008bc:	2800      	cmp	r0, #0
 80008be:	d15b      	bne.n	8000978 <__aeabi_dadd+0x4f8>
 80008c0:	001c      	movs	r4, r3
 80008c2:	4314      	orrs	r4, r2
 80008c4:	d100      	bne.n	80008c8 <__aeabi_dadd+0x448>
 80008c6:	e0a8      	b.n	8000a1a <__aeabi_dadd+0x59a>
 80008c8:	001c      	movs	r4, r3
 80008ca:	0017      	movs	r7, r2
 80008cc:	46d8      	mov	r8, fp
 80008ce:	e65b      	b.n	8000588 <__aeabi_dadd+0x108>
 80008d0:	0006      	movs	r6, r0
 80008d2:	2400      	movs	r4, #0
 80008d4:	2700      	movs	r7, #0
 80008d6:	e697      	b.n	8000608 <__aeabi_dadd+0x188>
 80008d8:	4650      	mov	r0, sl
 80008da:	000b      	movs	r3, r1
 80008dc:	3820      	subs	r0, #32
 80008de:	40c3      	lsrs	r3, r0
 80008e0:	4699      	mov	r9, r3
 80008e2:	4653      	mov	r3, sl
 80008e4:	2b20      	cmp	r3, #32
 80008e6:	d100      	bne.n	80008ea <__aeabi_dadd+0x46a>
 80008e8:	e095      	b.n	8000a16 <__aeabi_dadd+0x596>
 80008ea:	2340      	movs	r3, #64	; 0x40
 80008ec:	4650      	mov	r0, sl
 80008ee:	1a1b      	subs	r3, r3, r0
 80008f0:	4099      	lsls	r1, r3
 80008f2:	430a      	orrs	r2, r1
 80008f4:	1e51      	subs	r1, r2, #1
 80008f6:	418a      	sbcs	r2, r1
 80008f8:	464b      	mov	r3, r9
 80008fa:	2100      	movs	r1, #0
 80008fc:	431a      	orrs	r2, r3
 80008fe:	e69f      	b.n	8000640 <__aeabi_dadd+0x1c0>
 8000900:	2e00      	cmp	r6, #0
 8000902:	d130      	bne.n	8000966 <__aeabi_dadd+0x4e6>
 8000904:	0026      	movs	r6, r4
 8000906:	433e      	orrs	r6, r7
 8000908:	d067      	beq.n	80009da <__aeabi_dadd+0x55a>
 800090a:	43db      	mvns	r3, r3
 800090c:	469a      	mov	sl, r3
 800090e:	2b00      	cmp	r3, #0
 8000910:	d01c      	beq.n	800094c <__aeabi_dadd+0x4cc>
 8000912:	4e61      	ldr	r6, [pc, #388]	; (8000a98 <__aeabi_dadd+0x618>)
 8000914:	42b0      	cmp	r0, r6
 8000916:	d060      	beq.n	80009da <__aeabi_dadd+0x55a>
 8000918:	4653      	mov	r3, sl
 800091a:	2b38      	cmp	r3, #56	; 0x38
 800091c:	dd00      	ble.n	8000920 <__aeabi_dadd+0x4a0>
 800091e:	e096      	b.n	8000a4e <__aeabi_dadd+0x5ce>
 8000920:	2b1f      	cmp	r3, #31
 8000922:	dd00      	ble.n	8000926 <__aeabi_dadd+0x4a6>
 8000924:	e09f      	b.n	8000a66 <__aeabi_dadd+0x5e6>
 8000926:	2620      	movs	r6, #32
 8000928:	1af3      	subs	r3, r6, r3
 800092a:	0026      	movs	r6, r4
 800092c:	409e      	lsls	r6, r3
 800092e:	469c      	mov	ip, r3
 8000930:	46b3      	mov	fp, r6
 8000932:	4653      	mov	r3, sl
 8000934:	003e      	movs	r6, r7
 8000936:	40de      	lsrs	r6, r3
 8000938:	0033      	movs	r3, r6
 800093a:	465e      	mov	r6, fp
 800093c:	431e      	orrs	r6, r3
 800093e:	4663      	mov	r3, ip
 8000940:	409f      	lsls	r7, r3
 8000942:	1e7b      	subs	r3, r7, #1
 8000944:	419f      	sbcs	r7, r3
 8000946:	4653      	mov	r3, sl
 8000948:	40dc      	lsrs	r4, r3
 800094a:	4337      	orrs	r7, r6
 800094c:	18bf      	adds	r7, r7, r2
 800094e:	4297      	cmp	r7, r2
 8000950:	4192      	sbcs	r2, r2
 8000952:	1864      	adds	r4, r4, r1
 8000954:	4252      	negs	r2, r2
 8000956:	18a4      	adds	r4, r4, r2
 8000958:	0006      	movs	r6, r0
 800095a:	e678      	b.n	800064e <__aeabi_dadd+0x1ce>
 800095c:	4327      	orrs	r7, r4
 800095e:	1e7c      	subs	r4, r7, #1
 8000960:	41a7      	sbcs	r7, r4
 8000962:	2400      	movs	r4, #0
 8000964:	e737      	b.n	80007d6 <__aeabi_dadd+0x356>
 8000966:	4e4c      	ldr	r6, [pc, #304]	; (8000a98 <__aeabi_dadd+0x618>)
 8000968:	42b0      	cmp	r0, r6
 800096a:	d036      	beq.n	80009da <__aeabi_dadd+0x55a>
 800096c:	2680      	movs	r6, #128	; 0x80
 800096e:	425b      	negs	r3, r3
 8000970:	0436      	lsls	r6, r6, #16
 8000972:	469a      	mov	sl, r3
 8000974:	4334      	orrs	r4, r6
 8000976:	e7cf      	b.n	8000918 <__aeabi_dadd+0x498>
 8000978:	0018      	movs	r0, r3
 800097a:	4310      	orrs	r0, r2
 800097c:	d100      	bne.n	8000980 <__aeabi_dadd+0x500>
 800097e:	e603      	b.n	8000588 <__aeabi_dadd+0x108>
 8000980:	1ab8      	subs	r0, r7, r2
 8000982:	4684      	mov	ip, r0
 8000984:	4567      	cmp	r7, ip
 8000986:	41ad      	sbcs	r5, r5
 8000988:	1ae0      	subs	r0, r4, r3
 800098a:	426d      	negs	r5, r5
 800098c:	1b40      	subs	r0, r0, r5
 800098e:	0205      	lsls	r5, r0, #8
 8000990:	d400      	bmi.n	8000994 <__aeabi_dadd+0x514>
 8000992:	e62c      	b.n	80005ee <__aeabi_dadd+0x16e>
 8000994:	1bd7      	subs	r7, r2, r7
 8000996:	42ba      	cmp	r2, r7
 8000998:	4192      	sbcs	r2, r2
 800099a:	1b1c      	subs	r4, r3, r4
 800099c:	4252      	negs	r2, r2
 800099e:	1aa4      	subs	r4, r4, r2
 80009a0:	46d8      	mov	r8, fp
 80009a2:	e5f1      	b.n	8000588 <__aeabi_dadd+0x108>
 80009a4:	0018      	movs	r0, r3
 80009a6:	4310      	orrs	r0, r2
 80009a8:	d100      	bne.n	80009ac <__aeabi_dadd+0x52c>
 80009aa:	e763      	b.n	8000874 <__aeabi_dadd+0x3f4>
 80009ac:	08f8      	lsrs	r0, r7, #3
 80009ae:	0767      	lsls	r7, r4, #29
 80009b0:	4307      	orrs	r7, r0
 80009b2:	2080      	movs	r0, #128	; 0x80
 80009b4:	08e4      	lsrs	r4, r4, #3
 80009b6:	0300      	lsls	r0, r0, #12
 80009b8:	4204      	tst	r4, r0
 80009ba:	d008      	beq.n	80009ce <__aeabi_dadd+0x54e>
 80009bc:	08dd      	lsrs	r5, r3, #3
 80009be:	4205      	tst	r5, r0
 80009c0:	d105      	bne.n	80009ce <__aeabi_dadd+0x54e>
 80009c2:	08d2      	lsrs	r2, r2, #3
 80009c4:	0759      	lsls	r1, r3, #29
 80009c6:	4311      	orrs	r1, r2
 80009c8:	000f      	movs	r7, r1
 80009ca:	002c      	movs	r4, r5
 80009cc:	46d8      	mov	r8, fp
 80009ce:	0f7b      	lsrs	r3, r7, #29
 80009d0:	00e4      	lsls	r4, r4, #3
 80009d2:	431c      	orrs	r4, r3
 80009d4:	00ff      	lsls	r7, r7, #3
 80009d6:	4e30      	ldr	r6, [pc, #192]	; (8000a98 <__aeabi_dadd+0x618>)
 80009d8:	e5d6      	b.n	8000588 <__aeabi_dadd+0x108>
 80009da:	000c      	movs	r4, r1
 80009dc:	0017      	movs	r7, r2
 80009de:	0006      	movs	r6, r0
 80009e0:	e5d2      	b.n	8000588 <__aeabi_dadd+0x108>
 80009e2:	2b00      	cmp	r3, #0
 80009e4:	d038      	beq.n	8000a58 <__aeabi_dadd+0x5d8>
 80009e6:	000b      	movs	r3, r1
 80009e8:	4313      	orrs	r3, r2
 80009ea:	d100      	bne.n	80009ee <__aeabi_dadd+0x56e>
 80009ec:	e742      	b.n	8000874 <__aeabi_dadd+0x3f4>
 80009ee:	08f8      	lsrs	r0, r7, #3
 80009f0:	0767      	lsls	r7, r4, #29
 80009f2:	4307      	orrs	r7, r0
 80009f4:	2080      	movs	r0, #128	; 0x80
 80009f6:	08e4      	lsrs	r4, r4, #3
 80009f8:	0300      	lsls	r0, r0, #12
 80009fa:	4204      	tst	r4, r0
 80009fc:	d0e7      	beq.n	80009ce <__aeabi_dadd+0x54e>
 80009fe:	08cb      	lsrs	r3, r1, #3
 8000a00:	4203      	tst	r3, r0
 8000a02:	d1e4      	bne.n	80009ce <__aeabi_dadd+0x54e>
 8000a04:	08d2      	lsrs	r2, r2, #3
 8000a06:	0749      	lsls	r1, r1, #29
 8000a08:	4311      	orrs	r1, r2
 8000a0a:	000f      	movs	r7, r1
 8000a0c:	001c      	movs	r4, r3
 8000a0e:	e7de      	b.n	80009ce <__aeabi_dadd+0x54e>
 8000a10:	2700      	movs	r7, #0
 8000a12:	2400      	movs	r4, #0
 8000a14:	e5d5      	b.n	80005c2 <__aeabi_dadd+0x142>
 8000a16:	2100      	movs	r1, #0
 8000a18:	e76b      	b.n	80008f2 <__aeabi_dadd+0x472>
 8000a1a:	2500      	movs	r5, #0
 8000a1c:	2700      	movs	r7, #0
 8000a1e:	e5f3      	b.n	8000608 <__aeabi_dadd+0x188>
 8000a20:	464e      	mov	r6, r9
 8000a22:	0025      	movs	r5, r4
 8000a24:	3e20      	subs	r6, #32
 8000a26:	40f5      	lsrs	r5, r6
 8000a28:	464b      	mov	r3, r9
 8000a2a:	002e      	movs	r6, r5
 8000a2c:	2b20      	cmp	r3, #32
 8000a2e:	d02d      	beq.n	8000a8c <__aeabi_dadd+0x60c>
 8000a30:	2540      	movs	r5, #64	; 0x40
 8000a32:	1aed      	subs	r5, r5, r3
 8000a34:	40ac      	lsls	r4, r5
 8000a36:	4327      	orrs	r7, r4
 8000a38:	1e7c      	subs	r4, r7, #1
 8000a3a:	41a7      	sbcs	r7, r4
 8000a3c:	2400      	movs	r4, #0
 8000a3e:	4337      	orrs	r7, r6
 8000a40:	e6c9      	b.n	80007d6 <__aeabi_dadd+0x356>
 8000a42:	2480      	movs	r4, #128	; 0x80
 8000a44:	2500      	movs	r5, #0
 8000a46:	0324      	lsls	r4, r4, #12
 8000a48:	4e13      	ldr	r6, [pc, #76]	; (8000a98 <__aeabi_dadd+0x618>)
 8000a4a:	2700      	movs	r7, #0
 8000a4c:	e5dc      	b.n	8000608 <__aeabi_dadd+0x188>
 8000a4e:	4327      	orrs	r7, r4
 8000a50:	1e7c      	subs	r4, r7, #1
 8000a52:	41a7      	sbcs	r7, r4
 8000a54:	2400      	movs	r4, #0
 8000a56:	e779      	b.n	800094c <__aeabi_dadd+0x4cc>
 8000a58:	000c      	movs	r4, r1
 8000a5a:	0017      	movs	r7, r2
 8000a5c:	4e0e      	ldr	r6, [pc, #56]	; (8000a98 <__aeabi_dadd+0x618>)
 8000a5e:	e593      	b.n	8000588 <__aeabi_dadd+0x108>
 8000a60:	000c      	movs	r4, r1
 8000a62:	0017      	movs	r7, r2
 8000a64:	e590      	b.n	8000588 <__aeabi_dadd+0x108>
 8000a66:	4656      	mov	r6, sl
 8000a68:	0023      	movs	r3, r4
 8000a6a:	3e20      	subs	r6, #32
 8000a6c:	40f3      	lsrs	r3, r6
 8000a6e:	4699      	mov	r9, r3
 8000a70:	4653      	mov	r3, sl
 8000a72:	2b20      	cmp	r3, #32
 8000a74:	d00e      	beq.n	8000a94 <__aeabi_dadd+0x614>
 8000a76:	2340      	movs	r3, #64	; 0x40
 8000a78:	4656      	mov	r6, sl
 8000a7a:	1b9b      	subs	r3, r3, r6
 8000a7c:	409c      	lsls	r4, r3
 8000a7e:	4327      	orrs	r7, r4
 8000a80:	1e7c      	subs	r4, r7, #1
 8000a82:	41a7      	sbcs	r7, r4
 8000a84:	464b      	mov	r3, r9
 8000a86:	2400      	movs	r4, #0
 8000a88:	431f      	orrs	r7, r3
 8000a8a:	e75f      	b.n	800094c <__aeabi_dadd+0x4cc>
 8000a8c:	2400      	movs	r4, #0
 8000a8e:	e7d2      	b.n	8000a36 <__aeabi_dadd+0x5b6>
 8000a90:	0017      	movs	r7, r2
 8000a92:	e5b2      	b.n	80005fa <__aeabi_dadd+0x17a>
 8000a94:	2400      	movs	r4, #0
 8000a96:	e7f2      	b.n	8000a7e <__aeabi_dadd+0x5fe>
 8000a98:	000007ff 	.word	0x000007ff
 8000a9c:	ff7fffff 	.word	0xff7fffff

08000aa0 <__eqdf2>:
 8000aa0:	b5f0      	push	{r4, r5, r6, r7, lr}
 8000aa2:	464f      	mov	r7, r9
 8000aa4:	4646      	mov	r6, r8
 8000aa6:	46d6      	mov	lr, sl
 8000aa8:	005c      	lsls	r4, r3, #1
 8000aaa:	b5c0      	push	{r6, r7, lr}
 8000aac:	031f      	lsls	r7, r3, #12
 8000aae:	0fdb      	lsrs	r3, r3, #31
 8000ab0:	469a      	mov	sl, r3
 8000ab2:	4b17      	ldr	r3, [pc, #92]	; (8000b10 <__eqdf2+0x70>)
 8000ab4:	030e      	lsls	r6, r1, #12
 8000ab6:	004d      	lsls	r5, r1, #1
 8000ab8:	4684      	mov	ip, r0
 8000aba:	4680      	mov	r8, r0
 8000abc:	0b36      	lsrs	r6, r6, #12
 8000abe:	0d6d      	lsrs	r5, r5, #21
 8000ac0:	0fc9      	lsrs	r1, r1, #31
 8000ac2:	4691      	mov	r9, r2
 8000ac4:	0b3f      	lsrs	r7, r7, #12
 8000ac6:	0d64      	lsrs	r4, r4, #21
 8000ac8:	2001      	movs	r0, #1
 8000aca:	429d      	cmp	r5, r3
 8000acc:	d008      	beq.n	8000ae0 <__eqdf2+0x40>
 8000ace:	429c      	cmp	r4, r3
 8000ad0:	d001      	beq.n	8000ad6 <__eqdf2+0x36>
 8000ad2:	42a5      	cmp	r5, r4
 8000ad4:	d00b      	beq.n	8000aee <__eqdf2+0x4e>
 8000ad6:	bc1c      	pop	{r2, r3, r4}
 8000ad8:	4690      	mov	r8, r2
 8000ada:	4699      	mov	r9, r3
 8000adc:	46a2      	mov	sl, r4
 8000ade:	bdf0      	pop	{r4, r5, r6, r7, pc}
 8000ae0:	4663      	mov	r3, ip
 8000ae2:	4333      	orrs	r3, r6
 8000ae4:	d1f7      	bne.n	8000ad6 <__eqdf2+0x36>
 8000ae6:	42ac      	cmp	r4, r5
 8000ae8:	d1f5      	bne.n	8000ad6 <__eqdf2+0x36>
 8000aea:	433a      	orrs	r2, r7
 8000aec:	d1f3      	bne.n	8000ad6 <__eqdf2+0x36>
 8000aee:	2001      	movs	r0, #1
 8000af0:	42be      	cmp	r6, r7
 8000af2:	d1f0      	bne.n	8000ad6 <__eqdf2+0x36>
 8000af4:	45c8      	cmp	r8, r9
 8000af6:	d1ee      	bne.n	8000ad6 <__eqdf2+0x36>
 8000af8:	4551      	cmp	r1, sl
 8000afa:	d007      	beq.n	8000b0c <__eqdf2+0x6c>
 8000afc:	2d00      	cmp	r5, #0
 8000afe:	d1ea      	bne.n	8000ad6 <__eqdf2+0x36>
 8000b00:	4663      	mov	r3, ip
 8000b02:	431e      	orrs	r6, r3
 8000b04:	0030      	movs	r0, r6
 8000b06:	1e46      	subs	r6, r0, #1
 8000b08:	41b0      	sbcs	r0, r6
 8000b0a:	e7e4      	b.n	8000ad6 <__eqdf2+0x36>
 8000b0c:	2000      	movs	r0, #0
 8000b0e:	e7e2      	b.n	8000ad6 <__eqdf2+0x36>
 8000b10:	000007ff 	.word	0x000007ff

08000b14 <__gedf2>:
 8000b14:	b5f0      	push	{r4, r5, r6, r7, lr}
 8000b16:	4645      	mov	r5, r8
 8000b18:	46de      	mov	lr, fp
 8000b1a:	4657      	mov	r7, sl
 8000b1c:	464e      	mov	r6, r9
 8000b1e:	b5e0      	push	{r5, r6, r7, lr}
 8000b20:	031f      	lsls	r7, r3, #12
 8000b22:	0b3d      	lsrs	r5, r7, #12
 8000b24:	4f2c      	ldr	r7, [pc, #176]	; (8000bd8 <__gedf2+0xc4>)
 8000b26:	030e      	lsls	r6, r1, #12
 8000b28:	004c      	lsls	r4, r1, #1
 8000b2a:	46ab      	mov	fp, r5
 8000b2c:	005d      	lsls	r5, r3, #1
 8000b2e:	4684      	mov	ip, r0
 8000b30:	0b36      	lsrs	r6, r6, #12
 8000b32:	0d64      	lsrs	r4, r4, #21
 8000b34:	0fc9      	lsrs	r1, r1, #31
 8000b36:	4690      	mov	r8, r2
 8000b38:	0d6d      	lsrs	r5, r5, #21
 8000b3a:	0fdb      	lsrs	r3, r3, #31
 8000b3c:	42bc      	cmp	r4, r7
 8000b3e:	d02a      	beq.n	8000b96 <__gedf2+0x82>
 8000b40:	4f25      	ldr	r7, [pc, #148]	; (8000bd8 <__gedf2+0xc4>)
 8000b42:	42bd      	cmp	r5, r7
 8000b44:	d02d      	beq.n	8000ba2 <__gedf2+0x8e>
 8000b46:	2c00      	cmp	r4, #0
 8000b48:	d10f      	bne.n	8000b6a <__gedf2+0x56>
 8000b4a:	4330      	orrs	r0, r6
 8000b4c:	0007      	movs	r7, r0
 8000b4e:	4681      	mov	r9, r0
 8000b50:	4278      	negs	r0, r7
 8000b52:	4178      	adcs	r0, r7
 8000b54:	b2c0      	uxtb	r0, r0
 8000b56:	2d00      	cmp	r5, #0
 8000b58:	d117      	bne.n	8000b8a <__gedf2+0x76>
 8000b5a:	465f      	mov	r7, fp
 8000b5c:	433a      	orrs	r2, r7
 8000b5e:	d114      	bne.n	8000b8a <__gedf2+0x76>
 8000b60:	464b      	mov	r3, r9
 8000b62:	2000      	movs	r0, #0
 8000b64:	2b00      	cmp	r3, #0
 8000b66:	d00a      	beq.n	8000b7e <__gedf2+0x6a>
 8000b68:	e006      	b.n	8000b78 <__gedf2+0x64>
 8000b6a:	2d00      	cmp	r5, #0
 8000b6c:	d102      	bne.n	8000b74 <__gedf2+0x60>
 8000b6e:	4658      	mov	r0, fp
 8000b70:	4302      	orrs	r2, r0
 8000b72:	d001      	beq.n	8000b78 <__gedf2+0x64>
 8000b74:	4299      	cmp	r1, r3
 8000b76:	d018      	beq.n	8000baa <__gedf2+0x96>
 8000b78:	4248      	negs	r0, r1
 8000b7a:	2101      	movs	r1, #1
 8000b7c:	4308      	orrs	r0, r1
 8000b7e:	bc3c      	pop	{r2, r3, r4, r5}
 8000b80:	4690      	mov	r8, r2
 8000b82:	4699      	mov	r9, r3
 8000b84:	46a2      	mov	sl, r4
 8000b86:	46ab      	mov	fp, r5
 8000b88:	bdf0      	pop	{r4, r5, r6, r7, pc}
 8000b8a:	2800      	cmp	r0, #0
 8000b8c:	d0f2      	beq.n	8000b74 <__gedf2+0x60>
 8000b8e:	2001      	movs	r0, #1
 8000b90:	3b01      	subs	r3, #1
 8000b92:	4318      	orrs	r0, r3
 8000b94:	e7f3      	b.n	8000b7e <__gedf2+0x6a>
 8000b96:	0037      	movs	r7, r6
 8000b98:	4307      	orrs	r7, r0
 8000b9a:	d0d1      	beq.n	8000b40 <__gedf2+0x2c>
 8000b9c:	2002      	movs	r0, #2
 8000b9e:	4240      	negs	r0, r0
 8000ba0:	e7ed      	b.n	8000b7e <__gedf2+0x6a>
 8000ba2:	465f      	mov	r7, fp
 8000ba4:	4317      	orrs	r7, r2
 8000ba6:	d0ce      	beq.n	8000b46 <__gedf2+0x32>
 8000ba8:	e7f8      	b.n	8000b9c <__gedf2+0x88>
 8000baa:	42ac      	cmp	r4, r5
 8000bac:	dce4      	bgt.n	8000b78 <__gedf2+0x64>
 8000bae:	da03      	bge.n	8000bb8 <__gedf2+0xa4>
 8000bb0:	1e48      	subs	r0, r1, #1
 8000bb2:	2101      	movs	r1, #1
 8000bb4:	4308      	orrs	r0, r1
 8000bb6:	e7e2      	b.n	8000b7e <__gedf2+0x6a>
 8000bb8:	455e      	cmp	r6, fp
 8000bba:	d8dd      	bhi.n	8000b78 <__gedf2+0x64>
 8000bbc:	d006      	beq.n	8000bcc <__gedf2+0xb8>
 8000bbe:	2000      	movs	r0, #0
 8000bc0:	455e      	cmp	r6, fp
 8000bc2:	d2dc      	bcs.n	8000b7e <__gedf2+0x6a>
 8000bc4:	2301      	movs	r3, #1
 8000bc6:	1e48      	subs	r0, r1, #1
 8000bc8:	4318      	orrs	r0, r3
 8000bca:	e7d8      	b.n	8000b7e <__gedf2+0x6a>
 8000bcc:	45c4      	cmp	ip, r8
 8000bce:	d8d3      	bhi.n	8000b78 <__gedf2+0x64>
 8000bd0:	2000      	movs	r0, #0
 8000bd2:	45c4      	cmp	ip, r8
 8000bd4:	d3f6      	bcc.n	8000bc4 <__gedf2+0xb0>
 8000bd6:	e7d2      	b.n	8000b7e <__gedf2+0x6a>
 8000bd8:	000007ff 	.word	0x000007ff

08000bdc <__ledf2>:
 8000bdc:	b5f0      	push	{r4, r5, r6, r7, lr}
 8000bde:	464e      	mov	r6, r9
 8000be0:	4645      	mov	r5, r8
 8000be2:	46de      	mov	lr, fp
 8000be4:	4657      	mov	r7, sl
 8000be6:	005c      	lsls	r4, r3, #1
 8000be8:	b5e0      	push	{r5, r6, r7, lr}
 8000bea:	031f      	lsls	r7, r3, #12
 8000bec:	0fdb      	lsrs	r3, r3, #31
 8000bee:	4699      	mov	r9, r3
 8000bf0:	4b2a      	ldr	r3, [pc, #168]	; (8000c9c <__ledf2+0xc0>)
 8000bf2:	030e      	lsls	r6, r1, #12
 8000bf4:	004d      	lsls	r5, r1, #1
 8000bf6:	0fc9      	lsrs	r1, r1, #31
 8000bf8:	4684      	mov	ip, r0
 8000bfa:	0b36      	lsrs	r6, r6, #12
 8000bfc:	0d6d      	lsrs	r5, r5, #21
 8000bfe:	468b      	mov	fp, r1
 8000c00:	4690      	mov	r8, r2
 8000c02:	0b3f      	lsrs	r7, r7, #12
 8000c04:	0d64      	lsrs	r4, r4, #21
 8000c06:	429d      	cmp	r5, r3
 8000c08:	d020      	beq.n	8000c4c <__ledf2+0x70>
 8000c0a:	4b24      	ldr	r3, [pc, #144]	; (8000c9c <__ledf2+0xc0>)
 8000c0c:	429c      	cmp	r4, r3
 8000c0e:	d022      	beq.n	8000c56 <__ledf2+0x7a>
 8000c10:	2d00      	cmp	r5, #0
 8000c12:	d112      	bne.n	8000c3a <__ledf2+0x5e>
 8000c14:	4330      	orrs	r0, r6
 8000c16:	4243      	negs	r3, r0
 8000c18:	4143      	adcs	r3, r0
 8000c1a:	b2db      	uxtb	r3, r3
 8000c1c:	2c00      	cmp	r4, #0
 8000c1e:	d01f      	beq.n	8000c60 <__ledf2+0x84>
 8000c20:	2b00      	cmp	r3, #0
 8000c22:	d00c      	beq.n	8000c3e <__ledf2+0x62>
 8000c24:	464b      	mov	r3, r9
 8000c26:	2001      	movs	r0, #1
 8000c28:	3b01      	subs	r3, #1
 8000c2a:	4303      	orrs	r3, r0
 8000c2c:	0018      	movs	r0, r3
 8000c2e:	bc3c      	pop	{r2, r3, r4, r5}
 8000c30:	4690      	mov	r8, r2
 8000c32:	4699      	mov	r9, r3
 8000c34:	46a2      	mov	sl, r4
 8000c36:	46ab      	mov	fp, r5
 8000c38:	bdf0      	pop	{r4, r5, r6, r7, pc}
 8000c3a:	2c00      	cmp	r4, #0
 8000c3c:	d016      	beq.n	8000c6c <__ledf2+0x90>
 8000c3e:	45cb      	cmp	fp, r9
 8000c40:	d017      	beq.n	8000c72 <__ledf2+0x96>
 8000c42:	465b      	mov	r3, fp
 8000c44:	4259      	negs	r1, r3
 8000c46:	2301      	movs	r3, #1
 8000c48:	430b      	orrs	r3, r1
 8000c4a:	e7ef      	b.n	8000c2c <__ledf2+0x50>
 8000c4c:	0031      	movs	r1, r6
 8000c4e:	2302      	movs	r3, #2
 8000c50:	4301      	orrs	r1, r0
 8000c52:	d1eb      	bne.n	8000c2c <__ledf2+0x50>
 8000c54:	e7d9      	b.n	8000c0a <__ledf2+0x2e>
 8000c56:	0039      	movs	r1, r7
 8000c58:	2302      	movs	r3, #2
 8000c5a:	4311      	orrs	r1, r2
 8000c5c:	d1e6      	bne.n	8000c2c <__ledf2+0x50>
 8000c5e:	e7d7      	b.n	8000c10 <__ledf2+0x34>
 8000c60:	433a      	orrs	r2, r7
 8000c62:	d1dd      	bne.n	8000c20 <__ledf2+0x44>
 8000c64:	2300      	movs	r3, #0
 8000c66:	2800      	cmp	r0, #0
 8000c68:	d0e0      	beq.n	8000c2c <__ledf2+0x50>
 8000c6a:	e7ea      	b.n	8000c42 <__ledf2+0x66>
 8000c6c:	433a      	orrs	r2, r7
 8000c6e:	d1e6      	bne.n	8000c3e <__ledf2+0x62>
 8000c70:	e7e7      	b.n	8000c42 <__ledf2+0x66>
 8000c72:	42a5      	cmp	r5, r4
 8000c74:	dce5      	bgt.n	8000c42 <__ledf2+0x66>
 8000c76:	db05      	blt.n	8000c84 <__ledf2+0xa8>
 8000c78:	42be      	cmp	r6, r7
 8000c7a:	d8e2      	bhi.n	8000c42 <__ledf2+0x66>
 8000c7c:	d007      	beq.n	8000c8e <__ledf2+0xb2>
 8000c7e:	2300      	movs	r3, #0
 8000c80:	42be      	cmp	r6, r7
 8000c82:	d2d3      	bcs.n	8000c2c <__ledf2+0x50>
 8000c84:	4659      	mov	r1, fp
 8000c86:	2301      	movs	r3, #1
 8000c88:	3901      	subs	r1, #1
 8000c8a:	430b      	orrs	r3, r1
 8000c8c:	e7ce      	b.n	8000c2c <__ledf2+0x50>
 8000c8e:	45c4      	cmp	ip, r8
 8000c90:	d8d7      	bhi.n	8000c42 <__ledf2+0x66>
 8000c92:	2300      	movs	r3, #0
 8000c94:	45c4      	cmp	ip, r8
 8000c96:	d3f5      	bcc.n	8000c84 <__ledf2+0xa8>
 8000c98:	e7c8      	b.n	8000c2c <__ledf2+0x50>
 8000c9a:	46c0      	nop			; (mov r8, r8)
 8000c9c:	000007ff 	.word	0x000007ff

08000ca0 <__aeabi_d2iz>:
 8000ca0:	b530      	push	{r4, r5, lr}
 8000ca2:	4d13      	ldr	r5, [pc, #76]	; (8000cf0 <__aeabi_d2iz+0x50>)
 8000ca4:	030a      	lsls	r2, r1, #12
 8000ca6:	004b      	lsls	r3, r1, #1
 8000ca8:	0b12      	lsrs	r2, r2, #12
 8000caa:	0d5b      	lsrs	r3, r3, #21
 8000cac:	0fc9      	lsrs	r1, r1, #31
 8000cae:	2400      	movs	r4, #0
 8000cb0:	42ab      	cmp	r3, r5
 8000cb2:	dd10      	ble.n	8000cd6 <__aeabi_d2iz+0x36>
 8000cb4:	4c0f      	ldr	r4, [pc, #60]	; (8000cf4 <__aeabi_d2iz+0x54>)
 8000cb6:	42a3      	cmp	r3, r4
 8000cb8:	dc0f      	bgt.n	8000cda <__aeabi_d2iz+0x3a>
 8000cba:	2480      	movs	r4, #128	; 0x80
 8000cbc:	4d0e      	ldr	r5, [pc, #56]	; (8000cf8 <__aeabi_d2iz+0x58>)
 8000cbe:	0364      	lsls	r4, r4, #13
 8000cc0:	4322      	orrs	r2, r4
 8000cc2:	1aed      	subs	r5, r5, r3
 8000cc4:	2d1f      	cmp	r5, #31
 8000cc6:	dd0b      	ble.n	8000ce0 <__aeabi_d2iz+0x40>
 8000cc8:	480c      	ldr	r0, [pc, #48]	; (8000cfc <__aeabi_d2iz+0x5c>)
 8000cca:	1ac3      	subs	r3, r0, r3
 8000ccc:	40da      	lsrs	r2, r3
 8000cce:	4254      	negs	r4, r2
 8000cd0:	2900      	cmp	r1, #0
 8000cd2:	d100      	bne.n	8000cd6 <__aeabi_d2iz+0x36>
 8000cd4:	0014      	movs	r4, r2
 8000cd6:	0020      	movs	r0, r4
 8000cd8:	bd30      	pop	{r4, r5, pc}
 8000cda:	4b09      	ldr	r3, [pc, #36]	; (8000d00 <__aeabi_d2iz+0x60>)
 8000cdc:	18cc      	adds	r4, r1, r3
 8000cde:	e7fa      	b.n	8000cd6 <__aeabi_d2iz+0x36>
 8000ce0:	4c08      	ldr	r4, [pc, #32]	; (8000d04 <__aeabi_d2iz+0x64>)
 8000ce2:	40e8      	lsrs	r0, r5
 8000ce4:	46a4      	mov	ip, r4
 8000ce6:	4463      	add	r3, ip
 8000ce8:	409a      	lsls	r2, r3
 8000cea:	4302      	orrs	r2, r0
 8000cec:	e7ef      	b.n	8000cce <__aeabi_d2iz+0x2e>
 8000cee:	46c0      	nop			; (mov r8, r8)
 8000cf0:	000003fe 	.word	0x000003fe
 8000cf4:	0000041d 	.word	0x0000041d
 8000cf8:	00000433 	.word	0x00000433
 8000cfc:	00000413 	.word	0x00000413
 8000d00:	7fffffff 	.word	0x7fffffff
 8000d04:	fffffbed 	.word	0xfffffbed

08000d08 <__clzsi2>:
 8000d08:	211c      	movs	r1, #28
 8000d0a:	2301      	movs	r3, #1
 8000d0c:	041b      	lsls	r3, r3, #16
 8000d0e:	4298      	cmp	r0, r3
 8000d10:	d301      	bcc.n	8000d16 <__clzsi2+0xe>
 8000d12:	0c00      	lsrs	r0, r0, #16
 8000d14:	3910      	subs	r1, #16
 8000d16:	0a1b      	lsrs	r3, r3, #8
 8000d18:	4298      	cmp	r0, r3
 8000d1a:	d301      	bcc.n	8000d20 <__clzsi2+0x18>
 8000d1c:	0a00      	lsrs	r0, r0, #8
 8000d1e:	3908      	subs	r1, #8
 8000d20:	091b      	lsrs	r3, r3, #4
 8000d22:	4298      	cmp	r0, r3
 8000d24:	d301      	bcc.n	8000d2a <__clzsi2+0x22>
 8000d26:	0900      	lsrs	r0, r0, #4
 8000d28:	3904      	subs	r1, #4
 8000d2a:	a202      	add	r2, pc, #8	; (adr r2, 8000d34 <__clzsi2+0x2c>)
 8000d2c:	5c10      	ldrb	r0, [r2, r0]
 8000d2e:	1840      	adds	r0, r0, r1
 8000d30:	4770      	bx	lr
 8000d32:	46c0      	nop			; (mov r8, r8)
 8000d34:	02020304 	.word	0x02020304
 8000d38:	01010101 	.word	0x01010101
	...

08000d44 <MX_ADC_Init>:

ADC_HandleTypeDef hadc;

/* ADC init function */
void MX_ADC_Init(void)
{
 8000d44:	b580      	push	{r7, lr}
 8000d46:	b084      	sub	sp, #16
 8000d48:	af00      	add	r7, sp, #0
  ADC_ChannelConfTypeDef sConfig = {0};
 8000d4a:	1d3b      	adds	r3, r7, #4
 8000d4c:	0018      	movs	r0, r3
 8000d4e:	230c      	movs	r3, #12
 8000d50:	001a      	movs	r2, r3
 8000d52:	2100      	movs	r1, #0
 8000d54:	f00d fa1d 	bl	800e192 <memset>

  /** Configure the global features of the ADC (Clock, Resolution, Data Alignment and number of conversion) 
  */
  hadc.Instance = ADC1;
 8000d58:	4b26      	ldr	r3, [pc, #152]	; (8000df4 <MX_ADC_Init+0xb0>)
 8000d5a:	4a27      	ldr	r2, [pc, #156]	; (8000df8 <MX_ADC_Init+0xb4>)
 8000d5c:	601a      	str	r2, [r3, #0]
  hadc.Init.ClockPrescaler = ADC_CLOCK_SYNC_PCLK_DIV2;//ADC_CLOCK_ASYNC_DIV1;
 8000d5e:	4b25      	ldr	r3, [pc, #148]	; (8000df4 <MX_ADC_Init+0xb0>)
 8000d60:	2280      	movs	r2, #128	; 0x80
 8000d62:	05d2      	lsls	r2, r2, #23
 8000d64:	605a      	str	r2, [r3, #4]
  hadc.Init.Resolution = ADC_RESOLUTION_12B;
 8000d66:	4b23      	ldr	r3, [pc, #140]	; (8000df4 <MX_ADC_Init+0xb0>)
 8000d68:	2200      	movs	r2, #0
 8000d6a:	609a      	str	r2, [r3, #8]
  hadc.Init.DataAlign = ADC_DATAALIGN_RIGHT;
 8000d6c:	4b21      	ldr	r3, [pc, #132]	; (8000df4 <MX_ADC_Init+0xb0>)
 8000d6e:	2200      	movs	r2, #0
 8000d70:	60da      	str	r2, [r3, #12]
  hadc.Init.ScanConvMode = ADC_SCAN_DIRECTION_FORWARD;
 8000d72:	4b20      	ldr	r3, [pc, #128]	; (8000df4 <MX_ADC_Init+0xb0>)
 8000d74:	2201      	movs	r2, #1
 8000d76:	611a      	str	r2, [r3, #16]
  hadc.Init.EOCSelection = ADC_EOC_SINGLE_CONV;//ADC_EOC_SEQ_CONV;//
 8000d78:	4b1e      	ldr	r3, [pc, #120]	; (8000df4 <MX_ADC_Init+0xb0>)
 8000d7a:	2204      	movs	r2, #4
 8000d7c:	615a      	str	r2, [r3, #20]
  hadc.Init.LowPowerAutoWait = DISABLE;
 8000d7e:	4b1d      	ldr	r3, [pc, #116]	; (8000df4 <MX_ADC_Init+0xb0>)
 8000d80:	2200      	movs	r2, #0
 8000d82:	761a      	strb	r2, [r3, #24]
  hadc.Init.LowPowerAutoPowerOff = DISABLE;
 8000d84:	4b1b      	ldr	r3, [pc, #108]	; (8000df4 <MX_ADC_Init+0xb0>)
 8000d86:	2200      	movs	r2, #0
 8000d88:	765a      	strb	r2, [r3, #25]
  hadc.Init.ContinuousConvMode = DISABLE;
 8000d8a:	4b1a      	ldr	r3, [pc, #104]	; (8000df4 <MX_ADC_Init+0xb0>)
 8000d8c:	2200      	movs	r2, #0
 8000d8e:	769a      	strb	r2, [r3, #26]
  hadc.Init.DiscontinuousConvMode = DISABLE;
 8000d90:	4b18      	ldr	r3, [pc, #96]	; (8000df4 <MX_ADC_Init+0xb0>)
 8000d92:	2200      	movs	r2, #0
 8000d94:	76da      	strb	r2, [r3, #27]
  hadc.Init.ExternalTrigConv = ADC_SOFTWARE_START;
 8000d96:	4b17      	ldr	r3, [pc, #92]	; (8000df4 <MX_ADC_Init+0xb0>)
 8000d98:	22c2      	movs	r2, #194	; 0xc2
 8000d9a:	32ff      	adds	r2, #255	; 0xff
 8000d9c:	61da      	str	r2, [r3, #28]
  hadc.Init.ExternalTrigConvEdge = ADC_EXTERNALTRIGCONVEDGE_NONE;
 8000d9e:	4b15      	ldr	r3, [pc, #84]	; (8000df4 <MX_ADC_Init+0xb0>)
 8000da0:	2200      	movs	r2, #0
 8000da2:	621a      	str	r2, [r3, #32]
  hadc.Init.DMAContinuousRequests = DISABLE;
 8000da4:	4b13      	ldr	r3, [pc, #76]	; (8000df4 <MX_ADC_Init+0xb0>)
 8000da6:	2224      	movs	r2, #36	; 0x24
 8000da8:	2100      	movs	r1, #0
 8000daa:	5499      	strb	r1, [r3, r2]
  hadc.Init.Overrun =ADC_OVR_DATA_OVERWRITTEN;// ADC_OVR_DATA_PRESERVED;
 8000dac:	4b11      	ldr	r3, [pc, #68]	; (8000df4 <MX_ADC_Init+0xb0>)
 8000dae:	2200      	movs	r2, #0
 8000db0:	629a      	str	r2, [r3, #40]	; 0x28
  if (HAL_ADC_Init(&hadc) != HAL_OK)
 8000db2:	4b10      	ldr	r3, [pc, #64]	; (8000df4 <MX_ADC_Init+0xb0>)
 8000db4:	0018      	movs	r0, r3
 8000db6:	f003 fab3 	bl	8004320 <HAL_ADC_Init>
 8000dba:	1e03      	subs	r3, r0, #0
 8000dbc:	d001      	beq.n	8000dc2 <MX_ADC_Init+0x7e>
  {
    Error_Handler();
 8000dbe:	f002 f9df 	bl	8003180 <Error_Handler>
  }
  /** Configure for the selected ADC regular channel to be converted. 
  */
  sConfig.Channel = ADC_CHANNEL_10;
 8000dc2:	1d3b      	adds	r3, r7, #4
 8000dc4:	220a      	movs	r2, #10
 8000dc6:	601a      	str	r2, [r3, #0]
  sConfig.Rank = ADC_RANK_CHANNEL_NUMBER;
 8000dc8:	1d3b      	adds	r3, r7, #4
 8000dca:	2280      	movs	r2, #128	; 0x80
 8000dcc:	0152      	lsls	r2, r2, #5
 8000dce:	605a      	str	r2, [r3, #4]
  sConfig.SamplingTime = ADC_SAMPLETIME_71CYCLES_5;//ADC_SAMPLETIME_1CYCLE_5;
 8000dd0:	1d3b      	adds	r3, r7, #4
 8000dd2:	2206      	movs	r2, #6
 8000dd4:	609a      	str	r2, [r3, #8]
  if (HAL_ADC_ConfigChannel(&hadc, &sConfig) != HAL_OK)
 8000dd6:	1d3a      	adds	r2, r7, #4
 8000dd8:	4b06      	ldr	r3, [pc, #24]	; (8000df4 <MX_ADC_Init+0xb0>)
 8000dda:	0011      	movs	r1, r2
 8000ddc:	0018      	movs	r0, r3
 8000dde:	f003 ff5b 	bl	8004c98 <HAL_ADC_ConfigChannel>
 8000de2:	1e03      	subs	r3, r0, #0
 8000de4:	d001      	beq.n	8000dea <MX_ADC_Init+0xa6>
  {
    Error_Handler();
 8000de6:	f002 f9cb 	bl	8003180 <Error_Handler>
  }

}
 8000dea:	46c0      	nop			; (mov r8, r8)
 8000dec:	46bd      	mov	sp, r7
 8000dee:	b004      	add	sp, #16
 8000df0:	bd80      	pop	{r7, pc}
 8000df2:	46c0      	nop			; (mov r8, r8)
 8000df4:	200002cc 	.word	0x200002cc
 8000df8:	40012400 	.word	0x40012400

08000dfc <HAL_ADC_MspInit>:

void HAL_ADC_MspInit(ADC_HandleTypeDef* adcHandle)
{
 8000dfc:	b580      	push	{r7, lr}
 8000dfe:	b08a      	sub	sp, #40	; 0x28
 8000e00:	af00      	add	r7, sp, #0
 8000e02:	6078      	str	r0, [r7, #4]

  GPIO_InitTypeDef GPIO_InitStruct = {0};
 8000e04:	2314      	movs	r3, #20
 8000e06:	18fb      	adds	r3, r7, r3
 8000e08:	0018      	movs	r0, r3
 8000e0a:	2314      	movs	r3, #20
 8000e0c:	001a      	movs	r2, r3
 8000e0e:	2100      	movs	r1, #0
 8000e10:	f00d f9bf 	bl	800e192 <memset>
  if(adcHandle->Instance==ADC1)
 8000e14:	687b      	ldr	r3, [r7, #4]
 8000e16:	681b      	ldr	r3, [r3, #0]
 8000e18:	4a22      	ldr	r2, [pc, #136]	; (8000ea4 <HAL_ADC_MspInit+0xa8>)
 8000e1a:	4293      	cmp	r3, r2
 8000e1c:	d13e      	bne.n	8000e9c <HAL_ADC_MspInit+0xa0>
  {
  /* USER CODE BEGIN ADC1_MspInit 0 */

  /* USER CODE END ADC1_MspInit 0 */
    /* ADC1 clock enable */
    __HAL_RCC_ADC1_CLK_ENABLE();
 8000e1e:	4b22      	ldr	r3, [pc, #136]	; (8000ea8 <HAL_ADC_MspInit+0xac>)
 8000e20:	4a21      	ldr	r2, [pc, #132]	; (8000ea8 <HAL_ADC_MspInit+0xac>)
 8000e22:	6992      	ldr	r2, [r2, #24]
 8000e24:	2180      	movs	r1, #128	; 0x80
 8000e26:	0089      	lsls	r1, r1, #2
 8000e28:	430a      	orrs	r2, r1
 8000e2a:	619a      	str	r2, [r3, #24]
 8000e2c:	4b1e      	ldr	r3, [pc, #120]	; (8000ea8 <HAL_ADC_MspInit+0xac>)
 8000e2e:	699a      	ldr	r2, [r3, #24]
 8000e30:	2380      	movs	r3, #128	; 0x80
 8000e32:	009b      	lsls	r3, r3, #2
 8000e34:	4013      	ands	r3, r2
 8000e36:	613b      	str	r3, [r7, #16]
 8000e38:	693b      	ldr	r3, [r7, #16]
  
    __HAL_RCC_GPIOC_CLK_ENABLE();
 8000e3a:	4b1b      	ldr	r3, [pc, #108]	; (8000ea8 <HAL_ADC_MspInit+0xac>)
 8000e3c:	4a1a      	ldr	r2, [pc, #104]	; (8000ea8 <HAL_ADC_MspInit+0xac>)
 8000e3e:	6952      	ldr	r2, [r2, #20]
 8000e40:	2180      	movs	r1, #128	; 0x80
 8000e42:	0309      	lsls	r1, r1, #12
 8000e44:	430a      	orrs	r2, r1
 8000e46:	615a      	str	r2, [r3, #20]
 8000e48:	4b17      	ldr	r3, [pc, #92]	; (8000ea8 <HAL_ADC_MspInit+0xac>)
 8000e4a:	695a      	ldr	r2, [r3, #20]
 8000e4c:	2380      	movs	r3, #128	; 0x80
 8000e4e:	031b      	lsls	r3, r3, #12
 8000e50:	4013      	ands	r3, r2
 8000e52:	60fb      	str	r3, [r7, #12]
 8000e54:	68fb      	ldr	r3, [r7, #12]
    /**ADC GPIO Configuration    
    PC0     ------> ADC_IN10 
    */
    GPIO_InitStruct.Pin = CURRENT_KEYS_ADC10_Pin;
 8000e56:	2314      	movs	r3, #20
 8000e58:	18fb      	adds	r3, r7, r3
 8000e5a:	2201      	movs	r2, #1
 8000e5c:	601a      	str	r2, [r3, #0]
    GPIO_InitStruct.Mode = GPIO_MODE_ANALOG;
 8000e5e:	2314      	movs	r3, #20
 8000e60:	18fb      	adds	r3, r7, r3
 8000e62:	2203      	movs	r2, #3
 8000e64:	605a      	str	r2, [r3, #4]
    GPIO_InitStruct.Pull = GPIO_NOPULL;
 8000e66:	2314      	movs	r3, #20
 8000e68:	18fb      	adds	r3, r7, r3
 8000e6a:	2200      	movs	r2, #0
 8000e6c:	609a      	str	r2, [r3, #8]
    HAL_GPIO_Init(CURRENT_KEYS_ADC10_GPIO_Port, &GPIO_InitStruct);
 8000e6e:	2314      	movs	r3, #20
 8000e70:	18fb      	adds	r3, r7, r3
 8000e72:	4a0e      	ldr	r2, [pc, #56]	; (8000eac <HAL_ADC_MspInit+0xb0>)
 8000e74:	0019      	movs	r1, r3
 8000e76:	0010      	movs	r0, r2
 8000e78:	f004 fd7c 	bl	8005974 <HAL_GPIO_Init>

    /* ADC1 interrupt Init */
    HAL_NVIC_SetPriority(ADC1_COMP_IRQn, 0, 0);
 8000e7c:	2200      	movs	r2, #0
 8000e7e:	2100      	movs	r1, #0
 8000e80:	200c      	movs	r0, #12
 8000e82:	f004 fb37 	bl	80054f4 <HAL_NVIC_SetPriority>
    HAL_NVIC_EnableIRQ(ADC1_COMP_IRQn);
 8000e86:	200c      	movs	r0, #12
 8000e88:	f004 fb54 	bl	8005534 <HAL_NVIC_EnableIRQ>
  /* USER CODE BEGIN ADC1_MspInit 1 */
    /* Run the ADC calibration */
    if (HAL_ADCEx_Calibration_Start(adcHandle) != HAL_OK)
 8000e8c:	687b      	ldr	r3, [r7, #4]
 8000e8e:	0018      	movs	r0, r3
 8000e90:	f004 f9fc 	bl	800528c <HAL_ADCEx_Calibration_Start>
 8000e94:	1e03      	subs	r3, r0, #0
 8000e96:	d001      	beq.n	8000e9c <HAL_ADC_MspInit+0xa0>
	  {
		/* Calibration Error */
		Error_Handler();
 8000e98:	f002 f972 	bl	8003180 <Error_Handler>
	  }
  /* USER CODE END ADC1_MspInit 1 */
  }
}
 8000e9c:	46c0      	nop			; (mov r8, r8)
 8000e9e:	46bd      	mov	sp, r7
 8000ea0:	b00a      	add	sp, #40	; 0x28
 8000ea2:	bd80      	pop	{r7, pc}
 8000ea4:	40012400 	.word	0x40012400
 8000ea8:	40021000 	.word	0x40021000
 8000eac:	48000800 	.word	0x48000800

08000eb0 <ADC_threshold>:
  /* USER CODE END ADC1_MspDeInit 1 */
  }
} 

/* USER CODE BEGIN 1 */
void ADC_threshold(ADC_HandleTypeDef* adcHandle){
 8000eb0:	b580      	push	{r7, lr}
 8000eb2:	b084      	sub	sp, #16
 8000eb4:	af00      	add	r7, sp, #0
 8000eb6:	6078      	str	r0, [r7, #4]
	uint8_t nsample;
	/*## Start ADC conversions ##*/
	current_sense_key.avg=0;
 8000eb8:	4b2f      	ldr	r3, [pc, #188]	; (8000f78 <ADC_threshold+0xc8>)
 8000eba:	2200      	movs	r2, #0
 8000ebc:	60da      	str	r2, [r3, #12]
	current_sense_key.nsample=10;
 8000ebe:	4b2e      	ldr	r3, [pc, #184]	; (8000f78 <ADC_threshold+0xc8>)
 8000ec0:	220a      	movs	r2, #10
 8000ec2:	721a      	strb	r2, [r3, #8]
	current_sense_key.AdcConvStatus=2;
 8000ec4:	4b2c      	ldr	r3, [pc, #176]	; (8000f78 <ADC_threshold+0xc8>)
 8000ec6:	2202      	movs	r2, #2
 8000ec8:	751a      	strb	r2, [r3, #20]
	nsample=0;
 8000eca:	230f      	movs	r3, #15
 8000ecc:	18fb      	adds	r3, r7, r3
 8000ece:	2200      	movs	r2, #0
 8000ed0:	701a      	strb	r2, [r3, #0]
    /* Start ADC conversion on regular group */
	while (nsample<current_sense_key.nsample){
 8000ed2:	e029      	b.n	8000f28 <ADC_threshold+0x78>
		HAL_ADC_Start(adcHandle);
 8000ed4:	687b      	ldr	r3, [r7, #4]
 8000ed6:	0018      	movs	r0, r3
 8000ed8:	f003 fc70 	bl	80047bc <HAL_ADC_Start>
		current_sense_key.raw=0;
 8000edc:	4b26      	ldr	r3, [pc, #152]	; (8000f78 <ADC_threshold+0xc8>)
 8000ede:	2200      	movs	r2, #0
 8000ee0:	601a      	str	r2, [r3, #0]
		if (HAL_ADC_PollForConversion(adcHandle,100) != HAL_OK)
 8000ee2:	687b      	ldr	r3, [r7, #4]
 8000ee4:	2164      	movs	r1, #100	; 0x64
 8000ee6:	0018      	movs	r0, r3
 8000ee8:	f003 fd20 	bl	800492c <HAL_ADC_PollForConversion>
 8000eec:	1e03      	subs	r3, r0, #0
 8000eee:	d002      	beq.n	8000ef6 <ADC_threshold+0x46>
		{
			/* Start Error */
			Error_Handler();
 8000ef0:	f002 f946 	bl	8003180 <Error_Handler>
 8000ef4:	e014      	b.n	8000f20 <ADC_threshold+0x70>
		}else{
	          nsample++;
 8000ef6:	230f      	movs	r3, #15
 8000ef8:	18fb      	adds	r3, r7, r3
 8000efa:	781a      	ldrb	r2, [r3, #0]
 8000efc:	230f      	movs	r3, #15
 8000efe:	18fb      	adds	r3, r7, r3
 8000f00:	3201      	adds	r2, #1
 8000f02:	701a      	strb	r2, [r3, #0]
			  current_sense_key.raw=HAL_ADC_GetValue(adcHandle);
 8000f04:	687b      	ldr	r3, [r7, #4]
 8000f06:	0018      	movs	r0, r3
 8000f08:	f003 fdb2 	bl	8004a70 <HAL_ADC_GetValue>
 8000f0c:	0002      	movs	r2, r0
 8000f0e:	4b1a      	ldr	r3, [pc, #104]	; (8000f78 <ADC_threshold+0xc8>)
 8000f10:	601a      	str	r2, [r3, #0]
			  current_sense_key.avg+=current_sense_key.raw;
 8000f12:	4b19      	ldr	r3, [pc, #100]	; (8000f78 <ADC_threshold+0xc8>)
 8000f14:	68da      	ldr	r2, [r3, #12]
 8000f16:	4b18      	ldr	r3, [pc, #96]	; (8000f78 <ADC_threshold+0xc8>)
 8000f18:	681b      	ldr	r3, [r3, #0]
 8000f1a:	18d2      	adds	r2, r2, r3
 8000f1c:	4b16      	ldr	r3, [pc, #88]	; (8000f78 <ADC_threshold+0xc8>)
 8000f1e:	60da      	str	r2, [r3, #12]
			 }
		HAL_ADC_Stop(adcHandle);
 8000f20:	687b      	ldr	r3, [r7, #4]
 8000f22:	0018      	movs	r0, r3
 8000f24:	f003 fcae 	bl	8004884 <HAL_ADC_Stop>
	while (nsample<current_sense_key.nsample){
 8000f28:	4b13      	ldr	r3, [pc, #76]	; (8000f78 <ADC_threshold+0xc8>)
 8000f2a:	7a1b      	ldrb	r3, [r3, #8]
 8000f2c:	220f      	movs	r2, #15
 8000f2e:	18ba      	adds	r2, r7, r2
 8000f30:	7812      	ldrb	r2, [r2, #0]
 8000f32:	429a      	cmp	r2, r3
 8000f34:	d3ce      	bcc.n	8000ed4 <ADC_threshold+0x24>
	}
    if(nsample>9){//current_sense_key.nsample){
 8000f36:	230f      	movs	r3, #15
 8000f38:	18fb      	adds	r3, r7, r3
 8000f3a:	781b      	ldrb	r3, [r3, #0]
 8000f3c:	2b09      	cmp	r3, #9
 8000f3e:	d917      	bls.n	8000f70 <ADC_threshold+0xc0>
    	current_sense_key.avg=(current_sense_key.avg/current_sense_key.nsample);
 8000f40:	4b0d      	ldr	r3, [pc, #52]	; (8000f78 <ADC_threshold+0xc8>)
 8000f42:	68da      	ldr	r2, [r3, #12]
 8000f44:	4b0c      	ldr	r3, [pc, #48]	; (8000f78 <ADC_threshold+0xc8>)
 8000f46:	7a1b      	ldrb	r3, [r3, #8]
 8000f48:	0019      	movs	r1, r3
 8000f4a:	0010      	movs	r0, r2
 8000f4c:	f7ff f8e4 	bl	8000118 <__udivsi3>
 8000f50:	0003      	movs	r3, r0
 8000f52:	001a      	movs	r2, r3
 8000f54:	4b08      	ldr	r3, [pc, #32]	; (8000f78 <ADC_threshold+0xc8>)
 8000f56:	60da      	str	r2, [r3, #12]
    	current_sense_key.threshold=COMPUTATION_DIGITAL_12BITS_TO_VOLTAGE(current_sense_key.avg);
 8000f58:	4b07      	ldr	r3, [pc, #28]	; (8000f78 <ADC_threshold+0xc8>)
 8000f5a:	68db      	ldr	r3, [r3, #12]
 8000f5c:	4a07      	ldr	r2, [pc, #28]	; (8000f7c <ADC_threshold+0xcc>)
 8000f5e:	4353      	muls	r3, r2
 8000f60:	4907      	ldr	r1, [pc, #28]	; (8000f80 <ADC_threshold+0xd0>)
 8000f62:	0018      	movs	r0, r3
 8000f64:	f7ff f8d8 	bl	8000118 <__udivsi3>
 8000f68:	0003      	movs	r3, r0
 8000f6a:	001a      	movs	r2, r3
 8000f6c:	4b02      	ldr	r3, [pc, #8]	; (8000f78 <ADC_threshold+0xc8>)
 8000f6e:	605a      	str	r2, [r3, #4]
    }


}
 8000f70:	46c0      	nop			; (mov r8, r8)
 8000f72:	46bd      	mov	sp, r7
 8000f74:	b004      	add	sp, #16
 8000f76:	bd80      	pop	{r7, pc}
 8000f78:	200002a4 	.word	0x200002a4
 8000f7c:	00000ce4 	.word	0x00000ce4
 8000f80:	00000fff 	.word	0x00000fff

08000f84 <ADC_compare>:

bool ADC_compare(ADC_HandleTypeDef* adcHandle){
 8000f84:	b580      	push	{r7, lr}
 8000f86:	b084      	sub	sp, #16
 8000f88:	af00      	add	r7, sp, #0
 8000f8a:	6078      	str	r0, [r7, #4]

	uint32_t delta=0;
 8000f8c:	2300      	movs	r3, #0
 8000f8e:	60fb      	str	r3, [r7, #12]
	bool compare=false;
 8000f90:	230b      	movs	r3, #11
 8000f92:	18fb      	adds	r3, r7, r3
 8000f94:	2200      	movs	r2, #0
 8000f96:	701a      	strb	r2, [r3, #0]
	current_sense_key.raw=0;
 8000f98:	4b24      	ldr	r3, [pc, #144]	; (800102c <ADC_compare+0xa8>)
 8000f9a:	2200      	movs	r2, #0
 8000f9c:	601a      	str	r2, [r3, #0]

	HAL_ADC_Start(adcHandle);
 8000f9e:	687b      	ldr	r3, [r7, #4]
 8000fa0:	0018      	movs	r0, r3
 8000fa2:	f003 fc0b 	bl	80047bc <HAL_ADC_Start>
	if (HAL_ADC_PollForConversion(adcHandle,10) != HAL_OK)
 8000fa6:	687b      	ldr	r3, [r7, #4]
 8000fa8:	210a      	movs	r1, #10
 8000faa:	0018      	movs	r0, r3
 8000fac:	f003 fcbe 	bl	800492c <HAL_ADC_PollForConversion>
 8000fb0:	1e03      	subs	r3, r0, #0
 8000fb2:	d002      	beq.n	8000fba <ADC_compare+0x36>
	{
		/* Start Error */
		Error_Handler();
 8000fb4:	f002 f8e4 	bl	8003180 <Error_Handler>
 8000fb8:	e006      	b.n	8000fc8 <ADC_compare+0x44>
	}else{
		  current_sense_key.raw=HAL_ADC_GetValue(adcHandle);
 8000fba:	687b      	ldr	r3, [r7, #4]
 8000fbc:	0018      	movs	r0, r3
 8000fbe:	f003 fd57 	bl	8004a70 <HAL_ADC_GetValue>
 8000fc2:	0002      	movs	r2, r0
 8000fc4:	4b19      	ldr	r3, [pc, #100]	; (800102c <ADC_compare+0xa8>)
 8000fc6:	601a      	str	r2, [r3, #0]

		 }
	HAL_ADC_Stop(adcHandle);
 8000fc8:	687b      	ldr	r3, [r7, #4]
 8000fca:	0018      	movs	r0, r3
 8000fcc:	f003 fc5a 	bl	8004884 <HAL_ADC_Stop>

	current_sense_key.mVolt=COMPUTATION_DIGITAL_12BITS_TO_VOLTAGE(current_sense_key.raw);
 8000fd0:	4b16      	ldr	r3, [pc, #88]	; (800102c <ADC_compare+0xa8>)
 8000fd2:	681b      	ldr	r3, [r3, #0]
 8000fd4:	4a16      	ldr	r2, [pc, #88]	; (8001030 <ADC_compare+0xac>)
 8000fd6:	4353      	muls	r3, r2
 8000fd8:	4916      	ldr	r1, [pc, #88]	; (8001034 <ADC_compare+0xb0>)
 8000fda:	0018      	movs	r0, r3
 8000fdc:	f7ff f89c 	bl	8000118 <__udivsi3>
 8000fe0:	0003      	movs	r3, r0
 8000fe2:	001a      	movs	r2, r3
 8000fe4:	4b11      	ldr	r3, [pc, #68]	; (800102c <ADC_compare+0xa8>)
 8000fe6:	611a      	str	r2, [r3, #16]
	if(current_sense_key.mVolt>current_sense_key.threshold){
 8000fe8:	4b10      	ldr	r3, [pc, #64]	; (800102c <ADC_compare+0xa8>)
 8000fea:	691a      	ldr	r2, [r3, #16]
 8000fec:	4b0f      	ldr	r3, [pc, #60]	; (800102c <ADC_compare+0xa8>)
 8000fee:	685b      	ldr	r3, [r3, #4]
 8000ff0:	429a      	cmp	r2, r3
 8000ff2:	d906      	bls.n	8001002 <ADC_compare+0x7e>
		delta=(current_sense_key.mVolt-current_sense_key.threshold);
 8000ff4:	4b0d      	ldr	r3, [pc, #52]	; (800102c <ADC_compare+0xa8>)
 8000ff6:	691a      	ldr	r2, [r3, #16]
 8000ff8:	4b0c      	ldr	r3, [pc, #48]	; (800102c <ADC_compare+0xa8>)
 8000ffa:	685b      	ldr	r3, [r3, #4]
 8000ffc:	1ad3      	subs	r3, r2, r3
 8000ffe:	60fb      	str	r3, [r7, #12]
 8001000:	e005      	b.n	800100e <ADC_compare+0x8a>
	}else{
		delta=(current_sense_key.threshold - current_sense_key.mVolt);
 8001002:	4b0a      	ldr	r3, [pc, #40]	; (800102c <ADC_compare+0xa8>)
 8001004:	685a      	ldr	r2, [r3, #4]
 8001006:	4b09      	ldr	r3, [pc, #36]	; (800102c <ADC_compare+0xa8>)
 8001008:	691b      	ldr	r3, [r3, #16]
 800100a:	1ad3      	subs	r3, r2, r3
 800100c:	60fb      	str	r3, [r7, #12]
	}

	if(delta > CURRENT_KEY_MAX_mV){
 800100e:	68fb      	ldr	r3, [r7, #12]
 8001010:	2b19      	cmp	r3, #25
 8001012:	d903      	bls.n	800101c <ADC_compare+0x98>
		compare=true;
 8001014:	230b      	movs	r3, #11
 8001016:	18fb      	adds	r3, r7, r3
 8001018:	2201      	movs	r2, #1
 800101a:	701a      	strb	r2, [r3, #0]
	}
	return(compare);
 800101c:	230b      	movs	r3, #11
 800101e:	18fb      	adds	r3, r7, r3
 8001020:	781b      	ldrb	r3, [r3, #0]
}
 8001022:	0018      	movs	r0, r3
 8001024:	46bd      	mov	sp, r7
 8001026:	b004      	add	sp, #16
 8001028:	bd80      	pop	{r7, pc}
 800102a:	46c0      	nop			; (mov r8, r8)
 800102c:	200002a4 	.word	0x200002a4
 8001030:	00000ce4 	.word	0x00000ce4
 8001034:	00000fff 	.word	0x00000fff

08001038 <Display16Seg_All_Single>:
 * @brief  Display Char on Display 16 segments
 * @note
 * @param  charToDisplay: ascii code of char to display ;Dot : 1 if dot present 0, if not present;
 * @retval None
 */
void Display16Seg_All_Single( unsigned char seg_n,LED_STATUS_t status){
 8001038:	b580      	push	{r7, lr}
 800103a:	b084      	sub	sp, #16
 800103c:	af00      	add	r7, sp, #0
 800103e:	0002      	movs	r2, r0
 8001040:	1dfb      	adds	r3, r7, #7
 8001042:	701a      	strb	r2, [r3, #0]
 8001044:	1dbb      	adds	r3, r7, #6
 8001046:	1c0a      	adds	r2, r1, #0
 8001048:	701a      	strb	r2, [r3, #0]
GPIO_PinState led_status;
if (status==ON_DISP){
 800104a:	1dbb      	adds	r3, r7, #6
 800104c:	781b      	ldrb	r3, [r3, #0]
 800104e:	2b00      	cmp	r3, #0
 8001050:	d104      	bne.n	800105c <Display16Seg_All_Single+0x24>
  	led_status= GPIO_PIN_SET;
 8001052:	230f      	movs	r3, #15
 8001054:	18fb      	adds	r3, r7, r3
 8001056:	2201      	movs	r2, #1
 8001058:	701a      	strb	r2, [r3, #0]
 800105a:	e015      	b.n	8001088 <Display16Seg_All_Single+0x50>

  }else if (status==OFF_DISP){
 800105c:	1dbb      	adds	r3, r7, #6
 800105e:	781b      	ldrb	r3, [r3, #0]
 8001060:	2b01      	cmp	r3, #1
 8001062:	d104      	bne.n	800106e <Display16Seg_All_Single+0x36>
  	led_status= GPIO_PIN_RESET;
 8001064:	230f      	movs	r3, #15
 8001066:	18fb      	adds	r3, r7, r3
 8001068:	2200      	movs	r2, #0
 800106a:	701a      	strb	r2, [r3, #0]
 800106c:	e00c      	b.n	8001088 <Display16Seg_All_Single+0x50>
  }else if (TOGGLE_PIN_LED==1){
 800106e:	4ba5      	ldr	r3, [pc, #660]	; (8001304 <Display16Seg_All_Single+0x2cc>)
 8001070:	781b      	ldrb	r3, [r3, #0]
 8001072:	2b01      	cmp	r3, #1
 8001074:	d104      	bne.n	8001080 <Display16Seg_All_Single+0x48>
  	led_status= GPIO_PIN_SET;
 8001076:	230f      	movs	r3, #15
 8001078:	18fb      	adds	r3, r7, r3
 800107a:	2201      	movs	r2, #1
 800107c:	701a      	strb	r2, [r3, #0]
 800107e:	e003      	b.n	8001088 <Display16Seg_All_Single+0x50>
  }else{
  	led_status= GPIO_PIN_RESET;
 8001080:	230f      	movs	r3, #15
 8001082:	18fb      	adds	r3, r7, r3
 8001084:	2200      	movs	r2, #0
 8001086:	701a      	strb	r2, [r3, #0]
  }

 if (seg_n <16) {
 8001088:	1dfb      	adds	r3, r7, #7
 800108a:	781b      	ldrb	r3, [r3, #0]
 800108c:	2b0f      	cmp	r3, #15
 800108e:	d900      	bls.n	8001092 <Display16Seg_All_Single+0x5a>
 8001090:	e0a6      	b.n	80011e0 <Display16Seg_All_Single+0x1a8>
          switch(seg_n)   {
 8001092:	1dfb      	adds	r3, r7, #7
 8001094:	781b      	ldrb	r3, [r3, #0]
 8001096:	2b0f      	cmp	r3, #15
 8001098:	d900      	bls.n	800109c <Display16Seg_All_Single+0x64>
 800109a:	e12e      	b.n	80012fa <Display16Seg_All_Single+0x2c2>
 800109c:	009a      	lsls	r2, r3, #2
 800109e:	4b9a      	ldr	r3, [pc, #616]	; (8001308 <Display16Seg_All_Single+0x2d0>)
 80010a0:	18d3      	adds	r3, r2, r3
 80010a2:	681b      	ldr	r3, [r3, #0]
 80010a4:	469f      	mov	pc, r3
				case(0):
						HAL_GPIO_WritePin(SEG_A1_GPIO_Port,SEG_A1_Pin,led_status); //
 80010a6:	230f      	movs	r3, #15
 80010a8:	18fb      	adds	r3, r7, r3
 80010aa:	781a      	ldrb	r2, [r3, #0]
 80010ac:	2390      	movs	r3, #144	; 0x90
 80010ae:	05db      	lsls	r3, r3, #23
 80010b0:	2140      	movs	r1, #64	; 0x40
 80010b2:	0018      	movs	r0, r3
 80010b4:	f004 fec8 	bl	8005e48 <HAL_GPIO_WritePin>
						break;
 80010b8:	e11f      	b.n	80012fa <Display16Seg_All_Single+0x2c2>
				case(1):
					    HAL_GPIO_WritePin(SEG_A2_GPIO_Port,SEG_A2_Pin,led_status); //
 80010ba:	230f      	movs	r3, #15
 80010bc:	18fb      	adds	r3, r7, r3
 80010be:	781a      	ldrb	r2, [r3, #0]
 80010c0:	2380      	movs	r3, #128	; 0x80
 80010c2:	0059      	lsls	r1, r3, #1
 80010c4:	2390      	movs	r3, #144	; 0x90
 80010c6:	05db      	lsls	r3, r3, #23
 80010c8:	0018      	movs	r0, r3
 80010ca:	f004 febd 	bl	8005e48 <HAL_GPIO_WritePin>
						break;
 80010ce:	e114      	b.n	80012fa <Display16Seg_All_Single+0x2c2>
				case(2):
						HAL_GPIO_WritePin(SEG_B_GPIO_Port,SEG_B_Pin,led_status); //
 80010d0:	230f      	movs	r3, #15
 80010d2:	18fb      	adds	r3, r7, r3
 80010d4:	781a      	ldrb	r2, [r3, #0]
 80010d6:	2380      	movs	r3, #128	; 0x80
 80010d8:	009b      	lsls	r3, r3, #2
 80010da:	488c      	ldr	r0, [pc, #560]	; (800130c <Display16Seg_All_Single+0x2d4>)
 80010dc:	0019      	movs	r1, r3
 80010de:	f004 feb3 	bl	8005e48 <HAL_GPIO_WritePin>
						break;
 80010e2:	e10a      	b.n	80012fa <Display16Seg_All_Single+0x2c2>
				case(3):
						HAL_GPIO_WritePin(SEG_C_GPIO_Port,SEG_C_Pin,led_status); //
 80010e4:	230f      	movs	r3, #15
 80010e6:	18fb      	adds	r3, r7, r3
 80010e8:	781a      	ldrb	r2, [r3, #0]
 80010ea:	2380      	movs	r3, #128	; 0x80
 80010ec:	005b      	lsls	r3, r3, #1
 80010ee:	4887      	ldr	r0, [pc, #540]	; (800130c <Display16Seg_All_Single+0x2d4>)
 80010f0:	0019      	movs	r1, r3
 80010f2:	f004 fea9 	bl	8005e48 <HAL_GPIO_WritePin>
						break;
 80010f6:	e100      	b.n	80012fa <Display16Seg_All_Single+0x2c2>
				case(4):
		                HAL_GPIO_WritePin(SEG_D2_GPIO_Port,SEG_D2_Pin,led_status); //
 80010f8:	230f      	movs	r3, #15
 80010fa:	18fb      	adds	r3, r7, r3
 80010fc:	781b      	ldrb	r3, [r3, #0]
 80010fe:	4883      	ldr	r0, [pc, #524]	; (800130c <Display16Seg_All_Single+0x2d4>)
 8001100:	001a      	movs	r2, r3
 8001102:	2140      	movs	r1, #64	; 0x40
 8001104:	f004 fea0 	bl	8005e48 <HAL_GPIO_WritePin>
						break;
 8001108:	e0f7      	b.n	80012fa <Display16Seg_All_Single+0x2c2>
				case(5):
			            HAL_GPIO_WritePin(SEG_D1_GPIO_Port,SEG_D1_Pin,led_status); //
 800110a:	230f      	movs	r3, #15
 800110c:	18fb      	adds	r3, r7, r3
 800110e:	781b      	ldrb	r3, [r3, #0]
 8001110:	487e      	ldr	r0, [pc, #504]	; (800130c <Display16Seg_All_Single+0x2d4>)
 8001112:	001a      	movs	r2, r3
 8001114:	2180      	movs	r1, #128	; 0x80
 8001116:	f004 fe97 	bl	8005e48 <HAL_GPIO_WritePin>
						break;
 800111a:	e0ee      	b.n	80012fa <Display16Seg_All_Single+0x2c2>
				case(6):
						HAL_GPIO_WritePin(SEG_E_GPIO_Port,SEG_E_Pin,led_status); //
 800111c:	230f      	movs	r3, #15
 800111e:	18fb      	adds	r3, r7, r3
 8001120:	781a      	ldrb	r2, [r3, #0]
 8001122:	2380      	movs	r3, #128	; 0x80
 8001124:	021b      	lsls	r3, r3, #8
 8001126:	487a      	ldr	r0, [pc, #488]	; (8001310 <Display16Seg_All_Single+0x2d8>)
 8001128:	0019      	movs	r1, r3
 800112a:	f004 fe8d 	bl	8005e48 <HAL_GPIO_WritePin>
						break;
 800112e:	e0e4      	b.n	80012fa <Display16Seg_All_Single+0x2c2>
				case(7):
						HAL_GPIO_WritePin(SEG_F_GPIO_Port,SEG_F_Pin,led_status); //
 8001130:	230f      	movs	r3, #15
 8001132:	18fb      	adds	r3, r7, r3
 8001134:	781a      	ldrb	r2, [r3, #0]
 8001136:	2390      	movs	r3, #144	; 0x90
 8001138:	05db      	lsls	r3, r3, #23
 800113a:	2180      	movs	r1, #128	; 0x80
 800113c:	0018      	movs	r0, r3
 800113e:	f004 fe83 	bl	8005e48 <HAL_GPIO_WritePin>
						break;
 8001142:	e0da      	b.n	80012fa <Display16Seg_All_Single+0x2c2>
				case(8):
						HAL_GPIO_WritePin(SEG_H_GPIO_Port,SEG_H_Pin,led_status); //
 8001144:	230f      	movs	r3, #15
 8001146:	18fb      	adds	r3, r7, r3
 8001148:	781a      	ldrb	r2, [r3, #0]
 800114a:	2380      	movs	r3, #128	; 0x80
 800114c:	011b      	lsls	r3, r3, #4
 800114e:	4870      	ldr	r0, [pc, #448]	; (8001310 <Display16Seg_All_Single+0x2d8>)
 8001150:	0019      	movs	r1, r3
 8001152:	f004 fe79 	bl	8005e48 <HAL_GPIO_WritePin>
						break;
 8001156:	e0d0      	b.n	80012fa <Display16Seg_All_Single+0x2c2>
				case(9):
						HAL_GPIO_WritePin(SEG_J_GPIO_Port,SEG_J_Pin,led_status); //
 8001158:	230f      	movs	r3, #15
 800115a:	18fb      	adds	r3, r7, r3
 800115c:	781a      	ldrb	r2, [r3, #0]
 800115e:	2380      	movs	r3, #128	; 0x80
 8001160:	009b      	lsls	r3, r3, #2
 8001162:	486b      	ldr	r0, [pc, #428]	; (8001310 <Display16Seg_All_Single+0x2d8>)
 8001164:	0019      	movs	r1, r3
 8001166:	f004 fe6f 	bl	8005e48 <HAL_GPIO_WritePin>
						break;
 800116a:	e0c6      	b.n	80012fa <Display16Seg_All_Single+0x2c2>
				case(10):
						HAL_GPIO_WritePin(SEG_K_GPIO_Port,SEG_K_Pin,led_status); //
 800116c:	230f      	movs	r3, #15
 800116e:	18fb      	adds	r3, r7, r3
 8001170:	781b      	ldrb	r3, [r3, #0]
 8001172:	4867      	ldr	r0, [pc, #412]	; (8001310 <Display16Seg_All_Single+0x2d8>)
 8001174:	001a      	movs	r2, r3
 8001176:	2104      	movs	r1, #4
 8001178:	f004 fe66 	bl	8005e48 <HAL_GPIO_WritePin>
						break;
 800117c:	e0bd      	b.n	80012fa <Display16Seg_All_Single+0x2c2>
				case(11):
						HAL_GPIO_WritePin(SEG_G2_GPIO_Port,SEG_G2_Pin,led_status); //
 800117e:	230f      	movs	r3, #15
 8001180:	18fb      	adds	r3, r7, r3
 8001182:	781a      	ldrb	r2, [r3, #0]
 8001184:	2380      	movs	r3, #128	; 0x80
 8001186:	0219      	lsls	r1, r3, #8
 8001188:	2390      	movs	r3, #144	; 0x90
 800118a:	05db      	lsls	r3, r3, #23
 800118c:	0018      	movs	r0, r3
 800118e:	f004 fe5b 	bl	8005e48 <HAL_GPIO_WritePin>
						break;
 8001192:	e0b2      	b.n	80012fa <Display16Seg_All_Single+0x2c2>
				case(12):
						HAL_GPIO_WritePin(SEG_L_GPIO_Port,SEG_L_Pin,led_status); //
 8001194:	230f      	movs	r3, #15
 8001196:	18fb      	adds	r3, r7, r3
 8001198:	781b      	ldrb	r3, [r3, #0]
 800119a:	485d      	ldr	r0, [pc, #372]	; (8001310 <Display16Seg_All_Single+0x2d8>)
 800119c:	001a      	movs	r2, r3
 800119e:	2102      	movs	r1, #2
 80011a0:	f004 fe52 	bl	8005e48 <HAL_GPIO_WritePin>
						break;
 80011a4:	e0a9      	b.n	80012fa <Display16Seg_All_Single+0x2c2>
				case(13):
						HAL_GPIO_WritePin(SEG_M_GPIO_Port,SEG_M_Pin,led_status); //
 80011a6:	230f      	movs	r3, #15
 80011a8:	18fb      	adds	r3, r7, r3
 80011aa:	781b      	ldrb	r3, [r3, #0]
 80011ac:	4858      	ldr	r0, [pc, #352]	; (8001310 <Display16Seg_All_Single+0x2d8>)
 80011ae:	001a      	movs	r2, r3
 80011b0:	2101      	movs	r1, #1
 80011b2:	f004 fe49 	bl	8005e48 <HAL_GPIO_WritePin>
						break;
 80011b6:	e0a0      	b.n	80012fa <Display16Seg_All_Single+0x2c2>
				case(14):
						HAL_GPIO_WritePin(SEG_N_GPIO_Port,SEG_N_Pin,led_status); //
 80011b8:	230f      	movs	r3, #15
 80011ba:	18fb      	adds	r3, r7, r3
 80011bc:	781b      	ldrb	r3, [r3, #0]
 80011be:	4853      	ldr	r0, [pc, #332]	; (800130c <Display16Seg_All_Single+0x2d4>)
 80011c0:	001a      	movs	r2, r3
 80011c2:	2120      	movs	r1, #32
 80011c4:	f004 fe40 	bl	8005e48 <HAL_GPIO_WritePin>
						break;
 80011c8:	e097      	b.n	80012fa <Display16Seg_All_Single+0x2c2>
				case(15):
						HAL_GPIO_WritePin(SEG_G1_GPIO_Port,SEG_G1_Pin,led_status); //
 80011ca:	230f      	movs	r3, #15
 80011cc:	18fb      	adds	r3, r7, r3
 80011ce:	781a      	ldrb	r2, [r3, #0]
 80011d0:	2380      	movs	r3, #128	; 0x80
 80011d2:	019b      	lsls	r3, r3, #6
 80011d4:	484e      	ldr	r0, [pc, #312]	; (8001310 <Display16Seg_All_Single+0x2d8>)
 80011d6:	0019      	movs	r1, r3
 80011d8:	f004 fe36 	bl	8005e48 <HAL_GPIO_WritePin>
						break;
 80011dc:	46c0      	nop			; (mov r8, r8)
 80011de:	e08c      	b.n	80012fa <Display16Seg_All_Single+0x2c2>

				}
 }else{//ALL segment
		        HAL_GPIO_WritePin(SEG_A1_GPIO_Port,SEG_A1_Pin,led_status); //
 80011e0:	230f      	movs	r3, #15
 80011e2:	18fb      	adds	r3, r7, r3
 80011e4:	781a      	ldrb	r2, [r3, #0]
 80011e6:	2390      	movs	r3, #144	; 0x90
 80011e8:	05db      	lsls	r3, r3, #23
 80011ea:	2140      	movs	r1, #64	; 0x40
 80011ec:	0018      	movs	r0, r3
 80011ee:	f004 fe2b 	bl	8005e48 <HAL_GPIO_WritePin>

				HAL_GPIO_WritePin(SEG_A2_GPIO_Port,SEG_A2_Pin,led_status); //
 80011f2:	230f      	movs	r3, #15
 80011f4:	18fb      	adds	r3, r7, r3
 80011f6:	781a      	ldrb	r2, [r3, #0]
 80011f8:	2380      	movs	r3, #128	; 0x80
 80011fa:	0059      	lsls	r1, r3, #1
 80011fc:	2390      	movs	r3, #144	; 0x90
 80011fe:	05db      	lsls	r3, r3, #23
 8001200:	0018      	movs	r0, r3
 8001202:	f004 fe21 	bl	8005e48 <HAL_GPIO_WritePin>

				HAL_GPIO_WritePin(SEG_B_GPIO_Port,SEG_B_Pin,led_status); //
 8001206:	230f      	movs	r3, #15
 8001208:	18fb      	adds	r3, r7, r3
 800120a:	781a      	ldrb	r2, [r3, #0]
 800120c:	2380      	movs	r3, #128	; 0x80
 800120e:	009b      	lsls	r3, r3, #2
 8001210:	483e      	ldr	r0, [pc, #248]	; (800130c <Display16Seg_All_Single+0x2d4>)
 8001212:	0019      	movs	r1, r3
 8001214:	f004 fe18 	bl	8005e48 <HAL_GPIO_WritePin>

				HAL_GPIO_WritePin(SEG_C_GPIO_Port,SEG_C_Pin,led_status); //
 8001218:	230f      	movs	r3, #15
 800121a:	18fb      	adds	r3, r7, r3
 800121c:	781a      	ldrb	r2, [r3, #0]
 800121e:	2380      	movs	r3, #128	; 0x80
 8001220:	005b      	lsls	r3, r3, #1
 8001222:	483a      	ldr	r0, [pc, #232]	; (800130c <Display16Seg_All_Single+0x2d4>)
 8001224:	0019      	movs	r1, r3
 8001226:	f004 fe0f 	bl	8005e48 <HAL_GPIO_WritePin>

				HAL_GPIO_WritePin(SEG_D1_GPIO_Port,SEG_D1_Pin,led_status); //
 800122a:	230f      	movs	r3, #15
 800122c:	18fb      	adds	r3, r7, r3
 800122e:	781b      	ldrb	r3, [r3, #0]
 8001230:	4836      	ldr	r0, [pc, #216]	; (800130c <Display16Seg_All_Single+0x2d4>)
 8001232:	001a      	movs	r2, r3
 8001234:	2180      	movs	r1, #128	; 0x80
 8001236:	f004 fe07 	bl	8005e48 <HAL_GPIO_WritePin>

				HAL_GPIO_WritePin(SEG_D2_GPIO_Port,SEG_D2_Pin,led_status); //
 800123a:	230f      	movs	r3, #15
 800123c:	18fb      	adds	r3, r7, r3
 800123e:	781b      	ldrb	r3, [r3, #0]
 8001240:	4832      	ldr	r0, [pc, #200]	; (800130c <Display16Seg_All_Single+0x2d4>)
 8001242:	001a      	movs	r2, r3
 8001244:	2140      	movs	r1, #64	; 0x40
 8001246:	f004 fdff 	bl	8005e48 <HAL_GPIO_WritePin>

				HAL_GPIO_WritePin(SEG_E_GPIO_Port,SEG_E_Pin,led_status); //
 800124a:	230f      	movs	r3, #15
 800124c:	18fb      	adds	r3, r7, r3
 800124e:	781a      	ldrb	r2, [r3, #0]
 8001250:	2380      	movs	r3, #128	; 0x80
 8001252:	021b      	lsls	r3, r3, #8
 8001254:	482e      	ldr	r0, [pc, #184]	; (8001310 <Display16Seg_All_Single+0x2d8>)
 8001256:	0019      	movs	r1, r3
 8001258:	f004 fdf6 	bl	8005e48 <HAL_GPIO_WritePin>

				HAL_GPIO_WritePin(SEG_F_GPIO_Port,SEG_F_Pin,led_status); //
 800125c:	230f      	movs	r3, #15
 800125e:	18fb      	adds	r3, r7, r3
 8001260:	781a      	ldrb	r2, [r3, #0]
 8001262:	2390      	movs	r3, #144	; 0x90
 8001264:	05db      	lsls	r3, r3, #23
 8001266:	2180      	movs	r1, #128	; 0x80
 8001268:	0018      	movs	r0, r3
 800126a:	f004 fded 	bl	8005e48 <HAL_GPIO_WritePin>

				HAL_GPIO_WritePin(SEG_G1_GPIO_Port,SEG_G1_Pin,led_status); //
 800126e:	230f      	movs	r3, #15
 8001270:	18fb      	adds	r3, r7, r3
 8001272:	781a      	ldrb	r2, [r3, #0]
 8001274:	2380      	movs	r3, #128	; 0x80
 8001276:	019b      	lsls	r3, r3, #6
 8001278:	4825      	ldr	r0, [pc, #148]	; (8001310 <Display16Seg_All_Single+0x2d8>)
 800127a:	0019      	movs	r1, r3
 800127c:	f004 fde4 	bl	8005e48 <HAL_GPIO_WritePin>

				HAL_GPIO_WritePin(SEG_G2_GPIO_Port,SEG_G2_Pin,led_status); //
 8001280:	230f      	movs	r3, #15
 8001282:	18fb      	adds	r3, r7, r3
 8001284:	781a      	ldrb	r2, [r3, #0]
 8001286:	2380      	movs	r3, #128	; 0x80
 8001288:	0219      	lsls	r1, r3, #8
 800128a:	2390      	movs	r3, #144	; 0x90
 800128c:	05db      	lsls	r3, r3, #23
 800128e:	0018      	movs	r0, r3
 8001290:	f004 fdda 	bl	8005e48 <HAL_GPIO_WritePin>

				HAL_GPIO_WritePin(SEG_H_GPIO_Port,SEG_H_Pin,led_status); //
 8001294:	230f      	movs	r3, #15
 8001296:	18fb      	adds	r3, r7, r3
 8001298:	781a      	ldrb	r2, [r3, #0]
 800129a:	2380      	movs	r3, #128	; 0x80
 800129c:	011b      	lsls	r3, r3, #4
 800129e:	481c      	ldr	r0, [pc, #112]	; (8001310 <Display16Seg_All_Single+0x2d8>)
 80012a0:	0019      	movs	r1, r3
 80012a2:	f004 fdd1 	bl	8005e48 <HAL_GPIO_WritePin>

				HAL_GPIO_WritePin(SEG_J_GPIO_Port,SEG_J_Pin,led_status); //
 80012a6:	230f      	movs	r3, #15
 80012a8:	18fb      	adds	r3, r7, r3
 80012aa:	781a      	ldrb	r2, [r3, #0]
 80012ac:	2380      	movs	r3, #128	; 0x80
 80012ae:	009b      	lsls	r3, r3, #2
 80012b0:	4817      	ldr	r0, [pc, #92]	; (8001310 <Display16Seg_All_Single+0x2d8>)
 80012b2:	0019      	movs	r1, r3
 80012b4:	f004 fdc8 	bl	8005e48 <HAL_GPIO_WritePin>

				HAL_GPIO_WritePin(SEG_K_GPIO_Port,SEG_K_Pin,led_status); //
 80012b8:	230f      	movs	r3, #15
 80012ba:	18fb      	adds	r3, r7, r3
 80012bc:	781b      	ldrb	r3, [r3, #0]
 80012be:	4814      	ldr	r0, [pc, #80]	; (8001310 <Display16Seg_All_Single+0x2d8>)
 80012c0:	001a      	movs	r2, r3
 80012c2:	2104      	movs	r1, #4
 80012c4:	f004 fdc0 	bl	8005e48 <HAL_GPIO_WritePin>

				HAL_GPIO_WritePin(SEG_L_GPIO_Port,SEG_L_Pin,led_status); //
 80012c8:	230f      	movs	r3, #15
 80012ca:	18fb      	adds	r3, r7, r3
 80012cc:	781b      	ldrb	r3, [r3, #0]
 80012ce:	4810      	ldr	r0, [pc, #64]	; (8001310 <Display16Seg_All_Single+0x2d8>)
 80012d0:	001a      	movs	r2, r3
 80012d2:	2102      	movs	r1, #2
 80012d4:	f004 fdb8 	bl	8005e48 <HAL_GPIO_WritePin>

				HAL_GPIO_WritePin(SEG_M_GPIO_Port,SEG_M_Pin,led_status); //
 80012d8:	230f      	movs	r3, #15
 80012da:	18fb      	adds	r3, r7, r3
 80012dc:	781b      	ldrb	r3, [r3, #0]
 80012de:	480c      	ldr	r0, [pc, #48]	; (8001310 <Display16Seg_All_Single+0x2d8>)
 80012e0:	001a      	movs	r2, r3
 80012e2:	2101      	movs	r1, #1
 80012e4:	f004 fdb0 	bl	8005e48 <HAL_GPIO_WritePin>

				HAL_GPIO_WritePin(SEG_N_GPIO_Port,SEG_N_Pin,led_status); //
 80012e8:	230f      	movs	r3, #15
 80012ea:	18fb      	adds	r3, r7, r3
 80012ec:	781b      	ldrb	r3, [r3, #0]
 80012ee:	4807      	ldr	r0, [pc, #28]	; (800130c <Display16Seg_All_Single+0x2d4>)
 80012f0:	001a      	movs	r2, r3
 80012f2:	2120      	movs	r1, #32
 80012f4:	f004 fda8 	bl	8005e48 <HAL_GPIO_WritePin>
 }

}
 80012f8:	e7ff      	b.n	80012fa <Display16Seg_All_Single+0x2c2>
 80012fa:	46c0      	nop			; (mov r8, r8)
 80012fc:	46bd      	mov	sp, r7
 80012fe:	b004      	add	sp, #16
 8001300:	bd80      	pop	{r7, pc}
 8001302:	46c0      	nop			; (mov r8, r8)
 8001304:	20000272 	.word	0x20000272
 8001308:	0800f48c 	.word	0x0800f48c
 800130c:	48000800 	.word	0x48000800
 8001310:	48000400 	.word	0x48000400

08001314 <Display16Seg_Char>:
 * @brief  Display Char on Display 16 segments
 * @note
 * @param  charToDisplay: ascii code of char to display ;Dot : 1 if dot present 0, if not present;
 * @retval None
 */
void Display16Seg_Char( unsigned char chrToDisp ,unsigned char dot,LED_STATUS_t status){
 8001314:	b590      	push	{r4, r7, lr}
 8001316:	b085      	sub	sp, #20
 8001318:	af00      	add	r7, sp, #0
 800131a:	0004      	movs	r4, r0
 800131c:	0008      	movs	r0, r1
 800131e:	0011      	movs	r1, r2
 8001320:	1dfb      	adds	r3, r7, #7
 8001322:	1c22      	adds	r2, r4, #0
 8001324:	701a      	strb	r2, [r3, #0]
 8001326:	1dbb      	adds	r3, r7, #6
 8001328:	1c02      	adds	r2, r0, #0
 800132a:	701a      	strb	r2, [r3, #0]
 800132c:	1d7b      	adds	r3, r7, #5
 800132e:	1c0a      	adds	r2, r1, #0
 8001330:	701a      	strb	r2, [r3, #0]
uint16_t chr_bitmap;
uint16_t mask_bit=0x0001;
 8001332:	230a      	movs	r3, #10
 8001334:	18fb      	adds	r3, r7, r3
 8001336:	2201      	movs	r2, #1
 8001338:	801a      	strh	r2, [r3, #0]
uint8_t id;
GPIO_PinState led_status;

    if ((chrToDisp < 32) || (chrToDisp > 127)){
 800133a:	1dfb      	adds	r3, r7, #7
 800133c:	781b      	ldrb	r3, [r3, #0]
 800133e:	2b1f      	cmp	r3, #31
 8001340:	d904      	bls.n	800134c <Display16Seg_Char+0x38>
 8001342:	1dfb      	adds	r3, r7, #7
 8001344:	781b      	ldrb	r3, [r3, #0]
 8001346:	b25b      	sxtb	r3, r3
 8001348:	2b00      	cmp	r3, #0
 800134a:	da04      	bge.n	8001356 <Display16Seg_Char+0x42>
    	chr_bitmap= SixteenSegmentASCII[0];
 800134c:	230e      	movs	r3, #14
 800134e:	18fb      	adds	r3, r7, r3
 8001350:	2200      	movs	r2, #0
 8001352:	801a      	strh	r2, [r3, #0]
 8001354:	e00e      	b.n	8001374 <Display16Seg_Char+0x60>

    }else{
    	id=chrToDisp -32;
 8001356:	230d      	movs	r3, #13
 8001358:	18fb      	adds	r3, r7, r3
 800135a:	1dfa      	adds	r2, r7, #7
 800135c:	7812      	ldrb	r2, [r2, #0]
 800135e:	3a20      	subs	r2, #32
 8001360:	701a      	strb	r2, [r3, #0]
    	chr_bitmap= SixteenSegmentASCII[id];
 8001362:	230d      	movs	r3, #13
 8001364:	18fb      	adds	r3, r7, r3
 8001366:	7819      	ldrb	r1, [r3, #0]
 8001368:	230e      	movs	r3, #14
 800136a:	18fb      	adds	r3, r7, r3
 800136c:	4a3f      	ldr	r2, [pc, #252]	; (800146c <Display16Seg_Char+0x158>)
 800136e:	0049      	lsls	r1, r1, #1
 8001370:	5a8a      	ldrh	r2, [r1, r2]
 8001372:	801a      	strh	r2, [r3, #0]
    }

    if (status==ON_DISP){
 8001374:	1d7b      	adds	r3, r7, #5
 8001376:	781b      	ldrb	r3, [r3, #0]
 8001378:	2b00      	cmp	r3, #0
 800137a:	d104      	bne.n	8001386 <Display16Seg_Char+0x72>
    	led_status= GPIO_PIN_SET;
 800137c:	230c      	movs	r3, #12
 800137e:	18fb      	adds	r3, r7, r3
 8001380:	2201      	movs	r2, #1
 8001382:	701a      	strb	r2, [r3, #0]
 8001384:	e015      	b.n	80013b2 <Display16Seg_Char+0x9e>

    }else if (status==OFF_DISP){
 8001386:	1d7b      	adds	r3, r7, #5
 8001388:	781b      	ldrb	r3, [r3, #0]
 800138a:	2b01      	cmp	r3, #1
 800138c:	d104      	bne.n	8001398 <Display16Seg_Char+0x84>
    	led_status= GPIO_PIN_RESET;
 800138e:	230c      	movs	r3, #12
 8001390:	18fb      	adds	r3, r7, r3
 8001392:	2200      	movs	r2, #0
 8001394:	701a      	strb	r2, [r3, #0]
 8001396:	e00c      	b.n	80013b2 <Display16Seg_Char+0x9e>
    }else if (TOGGLE_PIN_LED==1){
 8001398:	4b35      	ldr	r3, [pc, #212]	; (8001470 <Display16Seg_Char+0x15c>)
 800139a:	781b      	ldrb	r3, [r3, #0]
 800139c:	2b01      	cmp	r3, #1
 800139e:	d104      	bne.n	80013aa <Display16Seg_Char+0x96>
    	led_status= GPIO_PIN_SET;
 80013a0:	230c      	movs	r3, #12
 80013a2:	18fb      	adds	r3, r7, r3
 80013a4:	2201      	movs	r2, #1
 80013a6:	701a      	strb	r2, [r3, #0]
 80013a8:	e003      	b.n	80013b2 <Display16Seg_Char+0x9e>
    }else{
    	led_status= GPIO_PIN_RESET;
 80013aa:	230c      	movs	r3, #12
 80013ac:	18fb      	adds	r3, r7, r3
 80013ae:	2200      	movs	r2, #0
 80013b0:	701a      	strb	r2, [r3, #0]
    }

    if (led_status== GPIO_PIN_SET){
 80013b2:	230c      	movs	r3, #12
 80013b4:	18fb      	adds	r3, r7, r3
 80013b6:	781b      	ldrb	r3, [r3, #0]
 80013b8:	2b01      	cmp	r3, #1
 80013ba:	d13c      	bne.n	8001436 <Display16Seg_Char+0x122>
    	mask_bit=0x0001;
 80013bc:	230a      	movs	r3, #10
 80013be:	18fb      	adds	r3, r7, r3
 80013c0:	2201      	movs	r2, #1
 80013c2:	801a      	strh	r2, [r3, #0]
    	for(id=0;id<16;id++){
 80013c4:	230d      	movs	r3, #13
 80013c6:	18fb      	adds	r3, r7, r3
 80013c8:	2200      	movs	r2, #0
 80013ca:	701a      	strb	r2, [r3, #0]
 80013cc:	e02d      	b.n	800142a <Display16Seg_Char+0x116>
    		mask_bit=0x0001;
 80013ce:	230a      	movs	r3, #10
 80013d0:	18fb      	adds	r3, r7, r3
 80013d2:	2201      	movs	r2, #1
 80013d4:	801a      	strh	r2, [r3, #0]
			mask_bit <<=id;
 80013d6:	230a      	movs	r3, #10
 80013d8:	18fb      	adds	r3, r7, r3
 80013da:	881a      	ldrh	r2, [r3, #0]
 80013dc:	230d      	movs	r3, #13
 80013de:	18fb      	adds	r3, r7, r3
 80013e0:	781b      	ldrb	r3, [r3, #0]
 80013e2:	409a      	lsls	r2, r3
 80013e4:	230a      	movs	r3, #10
 80013e6:	18fb      	adds	r3, r7, r3
 80013e8:	801a      	strh	r2, [r3, #0]
			if ((chr_bitmap & mask_bit)!=0){
 80013ea:	230e      	movs	r3, #14
 80013ec:	18fb      	adds	r3, r7, r3
 80013ee:	220a      	movs	r2, #10
 80013f0:	18ba      	adds	r2, r7, r2
 80013f2:	881b      	ldrh	r3, [r3, #0]
 80013f4:	8812      	ldrh	r2, [r2, #0]
 80013f6:	4013      	ands	r3, r2
 80013f8:	b29b      	uxth	r3, r3
 80013fa:	2b00      	cmp	r3, #0
 80013fc:	d007      	beq.n	800140e <Display16Seg_Char+0xfa>
				Display16Seg_All_Single( id,ON_DISP);
 80013fe:	230d      	movs	r3, #13
 8001400:	18fb      	adds	r3, r7, r3
 8001402:	781b      	ldrb	r3, [r3, #0]
 8001404:	2100      	movs	r1, #0
 8001406:	0018      	movs	r0, r3
 8001408:	f7ff fe16 	bl	8001038 <Display16Seg_All_Single>
 800140c:	e006      	b.n	800141c <Display16Seg_Char+0x108>
			}else{
				Display16Seg_All_Single( id,OFF_DISP);
 800140e:	230d      	movs	r3, #13
 8001410:	18fb      	adds	r3, r7, r3
 8001412:	781b      	ldrb	r3, [r3, #0]
 8001414:	2101      	movs	r1, #1
 8001416:	0018      	movs	r0, r3
 8001418:	f7ff fe0e 	bl	8001038 <Display16Seg_All_Single>
    	for(id=0;id<16;id++){
 800141c:	230d      	movs	r3, #13
 800141e:	18fb      	adds	r3, r7, r3
 8001420:	781a      	ldrb	r2, [r3, #0]
 8001422:	230d      	movs	r3, #13
 8001424:	18fb      	adds	r3, r7, r3
 8001426:	3201      	adds	r2, #1
 8001428:	701a      	strb	r2, [r3, #0]
 800142a:	230d      	movs	r3, #13
 800142c:	18fb      	adds	r3, r7, r3
 800142e:	781b      	ldrb	r3, [r3, #0]
 8001430:	2b0f      	cmp	r3, #15
 8001432:	d9cc      	bls.n	80013ce <Display16Seg_Char+0xba>
 8001434:	e003      	b.n	800143e <Display16Seg_Char+0x12a>
			}
    	}
    }else{
    	Display16Seg_All_Single( 16,OFF_DISP);
 8001436:	2101      	movs	r1, #1
 8001438:	2010      	movs	r0, #16
 800143a:	f7ff fdfd 	bl	8001038 <Display16Seg_All_Single>

    }
    if (dot==1){
 800143e:	1dbb      	adds	r3, r7, #6
 8001440:	781b      	ldrb	r3, [r3, #0]
 8001442:	2b01      	cmp	r3, #1
 8001444:	d108      	bne.n	8001458 <Display16Seg_Char+0x144>
    	HAL_GPIO_WritePin(SEG_DP_GPIO_Port,SEG_DP_Pin,led_status); //
 8001446:	230c      	movs	r3, #12
 8001448:	18fb      	adds	r3, r7, r3
 800144a:	781b      	ldrb	r3, [r3, #0]
 800144c:	4809      	ldr	r0, [pc, #36]	; (8001474 <Display16Seg_Char+0x160>)
 800144e:	001a      	movs	r2, r3
 8001450:	2110      	movs	r1, #16
 8001452:	f004 fcf9 	bl	8005e48 <HAL_GPIO_WritePin>
    }else{
    	HAL_GPIO_WritePin(SEG_DP_GPIO_Port,SEG_DP_Pin,GPIO_PIN_RESET); //
    }
}
 8001456:	e005      	b.n	8001464 <Display16Seg_Char+0x150>
    	HAL_GPIO_WritePin(SEG_DP_GPIO_Port,SEG_DP_Pin,GPIO_PIN_RESET); //
 8001458:	4b06      	ldr	r3, [pc, #24]	; (8001474 <Display16Seg_Char+0x160>)
 800145a:	2200      	movs	r2, #0
 800145c:	2110      	movs	r1, #16
 800145e:	0018      	movs	r0, r3
 8001460:	f004 fcf2 	bl	8005e48 <HAL_GPIO_WritePin>
}
 8001464:	46c0      	nop			; (mov r8, r8)
 8001466:	46bd      	mov	sp, r7
 8001468:	b005      	add	sp, #20
 800146a:	bd90      	pop	{r4, r7, pc}
 800146c:	0800f3ac 	.word	0x0800f3ac
 8001470:	20000272 	.word	0x20000272
 8001474:	48000800 	.word	0x48000800

08001478 <Display16Seg_Num>:
 * @brief  Display Number from 0 to F on Display 16 segments
 * @note
 * @param  numrToDisp: ascii code of char to display ;Dot : 1 if dot present 0, if not present;,LED_STATUS_t status :status of animation on display
 * @retval None
 */
void Display16Seg_Num( unsigned char numToDisp ,unsigned char dot,LED_STATUS_t status){
 8001478:	b590      	push	{r4, r7, lr}
 800147a:	b085      	sub	sp, #20
 800147c:	af00      	add	r7, sp, #0
 800147e:	0004      	movs	r4, r0
 8001480:	0008      	movs	r0, r1
 8001482:	0011      	movs	r1, r2
 8001484:	1dfb      	adds	r3, r7, #7
 8001486:	1c22      	adds	r2, r4, #0
 8001488:	701a      	strb	r2, [r3, #0]
 800148a:	1dbb      	adds	r3, r7, #6
 800148c:	1c02      	adds	r2, r0, #0
 800148e:	701a      	strb	r2, [r3, #0]
 8001490:	1d7b      	adds	r3, r7, #5
 8001492:	1c0a      	adds	r2, r1, #0
 8001494:	701a      	strb	r2, [r3, #0]
	uint16_t chr_bitmap;
	uint16_t mask_bit=0x0001;
 8001496:	230a      	movs	r3, #10
 8001498:	18fb      	adds	r3, r7, r3
 800149a:	2201      	movs	r2, #1
 800149c:	801a      	strh	r2, [r3, #0]
	uint8_t id;
	GPIO_PinState led_status;

	    if (numToDisp > 15){
 800149e:	1dfb      	adds	r3, r7, #7
 80014a0:	781b      	ldrb	r3, [r3, #0]
 80014a2:	2b0f      	cmp	r3, #15
 80014a4:	d910      	bls.n	80014c8 <Display16Seg_Num+0x50>
	    	id = (numToDisp % 16);
 80014a6:	230d      	movs	r3, #13
 80014a8:	18fb      	adds	r3, r7, r3
 80014aa:	1dfa      	adds	r2, r7, #7
 80014ac:	7812      	ldrb	r2, [r2, #0]
 80014ae:	210f      	movs	r1, #15
 80014b0:	400a      	ands	r2, r1
 80014b2:	701a      	strb	r2, [r3, #0]
	    	chr_bitmap= SixteenSegmentNUM[id];
 80014b4:	230d      	movs	r3, #13
 80014b6:	18fb      	adds	r3, r7, r3
 80014b8:	7819      	ldrb	r1, [r3, #0]
 80014ba:	230e      	movs	r3, #14
 80014bc:	18fb      	adds	r3, r7, r3
 80014be:	4a42      	ldr	r2, [pc, #264]	; (80015c8 <Display16Seg_Num+0x150>)
 80014c0:	0049      	lsls	r1, r1, #1
 80014c2:	5a8a      	ldrh	r2, [r1, r2]
 80014c4:	801a      	strh	r2, [r3, #0]
 80014c6:	e007      	b.n	80014d8 <Display16Seg_Num+0x60>

	    }else{

	    	chr_bitmap= SixteenSegmentNUM[numToDisp];
 80014c8:	1dfb      	adds	r3, r7, #7
 80014ca:	7819      	ldrb	r1, [r3, #0]
 80014cc:	230e      	movs	r3, #14
 80014ce:	18fb      	adds	r3, r7, r3
 80014d0:	4a3d      	ldr	r2, [pc, #244]	; (80015c8 <Display16Seg_Num+0x150>)
 80014d2:	0049      	lsls	r1, r1, #1
 80014d4:	5a8a      	ldrh	r2, [r1, r2]
 80014d6:	801a      	strh	r2, [r3, #0]
	    }

	    if (status==ON_DISP){
 80014d8:	1d7b      	adds	r3, r7, #5
 80014da:	781b      	ldrb	r3, [r3, #0]
 80014dc:	2b00      	cmp	r3, #0
 80014de:	d104      	bne.n	80014ea <Display16Seg_Num+0x72>
	    	led_status= GPIO_PIN_SET;
 80014e0:	230c      	movs	r3, #12
 80014e2:	18fb      	adds	r3, r7, r3
 80014e4:	2201      	movs	r2, #1
 80014e6:	701a      	strb	r2, [r3, #0]
 80014e8:	e015      	b.n	8001516 <Display16Seg_Num+0x9e>

	    }else if (status==OFF_DISP){
 80014ea:	1d7b      	adds	r3, r7, #5
 80014ec:	781b      	ldrb	r3, [r3, #0]
 80014ee:	2b01      	cmp	r3, #1
 80014f0:	d104      	bne.n	80014fc <Display16Seg_Num+0x84>
	    	led_status= GPIO_PIN_RESET;
 80014f2:	230c      	movs	r3, #12
 80014f4:	18fb      	adds	r3, r7, r3
 80014f6:	2200      	movs	r2, #0
 80014f8:	701a      	strb	r2, [r3, #0]
 80014fa:	e00c      	b.n	8001516 <Display16Seg_Num+0x9e>
	    }else if (TOGGLE_PIN_LED==1){
 80014fc:	4b33      	ldr	r3, [pc, #204]	; (80015cc <Display16Seg_Num+0x154>)
 80014fe:	781b      	ldrb	r3, [r3, #0]
 8001500:	2b01      	cmp	r3, #1
 8001502:	d104      	bne.n	800150e <Display16Seg_Num+0x96>
	    	led_status= GPIO_PIN_SET;
 8001504:	230c      	movs	r3, #12
 8001506:	18fb      	adds	r3, r7, r3
 8001508:	2201      	movs	r2, #1
 800150a:	701a      	strb	r2, [r3, #0]
 800150c:	e003      	b.n	8001516 <Display16Seg_Num+0x9e>
	    }else{
	    	led_status= GPIO_PIN_RESET;
 800150e:	230c      	movs	r3, #12
 8001510:	18fb      	adds	r3, r7, r3
 8001512:	2200      	movs	r2, #0
 8001514:	701a      	strb	r2, [r3, #0]
	    }

	    if (led_status== GPIO_PIN_SET){
 8001516:	230c      	movs	r3, #12
 8001518:	18fb      	adds	r3, r7, r3
 800151a:	781b      	ldrb	r3, [r3, #0]
 800151c:	2b01      	cmp	r3, #1
 800151e:	d138      	bne.n	8001592 <Display16Seg_Num+0x11a>

	    	for(id=0;id<16;id++){
 8001520:	230d      	movs	r3, #13
 8001522:	18fb      	adds	r3, r7, r3
 8001524:	2200      	movs	r2, #0
 8001526:	701a      	strb	r2, [r3, #0]
 8001528:	e02d      	b.n	8001586 <Display16Seg_Num+0x10e>
	    		mask_bit=0x0001;
 800152a:	230a      	movs	r3, #10
 800152c:	18fb      	adds	r3, r7, r3
 800152e:	2201      	movs	r2, #1
 8001530:	801a      	strh	r2, [r3, #0]
				mask_bit <<=id;
 8001532:	230a      	movs	r3, #10
 8001534:	18fb      	adds	r3, r7, r3
 8001536:	881a      	ldrh	r2, [r3, #0]
 8001538:	230d      	movs	r3, #13
 800153a:	18fb      	adds	r3, r7, r3
 800153c:	781b      	ldrb	r3, [r3, #0]
 800153e:	409a      	lsls	r2, r3
 8001540:	230a      	movs	r3, #10
 8001542:	18fb      	adds	r3, r7, r3
 8001544:	801a      	strh	r2, [r3, #0]
				if ((chr_bitmap & mask_bit)!=0){
 8001546:	230e      	movs	r3, #14
 8001548:	18fb      	adds	r3, r7, r3
 800154a:	220a      	movs	r2, #10
 800154c:	18ba      	adds	r2, r7, r2
 800154e:	881b      	ldrh	r3, [r3, #0]
 8001550:	8812      	ldrh	r2, [r2, #0]
 8001552:	4013      	ands	r3, r2
 8001554:	b29b      	uxth	r3, r3
 8001556:	2b00      	cmp	r3, #0
 8001558:	d007      	beq.n	800156a <Display16Seg_Num+0xf2>

					Display16Seg_All_Single( id,ON_DISP);
 800155a:	230d      	movs	r3, #13
 800155c:	18fb      	adds	r3, r7, r3
 800155e:	781b      	ldrb	r3, [r3, #0]
 8001560:	2100      	movs	r1, #0
 8001562:	0018      	movs	r0, r3
 8001564:	f7ff fd68 	bl	8001038 <Display16Seg_All_Single>
 8001568:	e006      	b.n	8001578 <Display16Seg_Num+0x100>
				}else{

					Display16Seg_All_Single( id,OFF_DISP);
 800156a:	230d      	movs	r3, #13
 800156c:	18fb      	adds	r3, r7, r3
 800156e:	781b      	ldrb	r3, [r3, #0]
 8001570:	2101      	movs	r1, #1
 8001572:	0018      	movs	r0, r3
 8001574:	f7ff fd60 	bl	8001038 <Display16Seg_All_Single>
	    	for(id=0;id<16;id++){
 8001578:	230d      	movs	r3, #13
 800157a:	18fb      	adds	r3, r7, r3
 800157c:	781a      	ldrb	r2, [r3, #0]
 800157e:	230d      	movs	r3, #13
 8001580:	18fb      	adds	r3, r7, r3
 8001582:	3201      	adds	r2, #1
 8001584:	701a      	strb	r2, [r3, #0]
 8001586:	230d      	movs	r3, #13
 8001588:	18fb      	adds	r3, r7, r3
 800158a:	781b      	ldrb	r3, [r3, #0]
 800158c:	2b0f      	cmp	r3, #15
 800158e:	d9cc      	bls.n	800152a <Display16Seg_Num+0xb2>
 8001590:	e003      	b.n	800159a <Display16Seg_Num+0x122>
				}
	    	}
	    }else{

	    	Display16Seg_All_Single( 16,OFF_DISP);
 8001592:	2101      	movs	r1, #1
 8001594:	2010      	movs	r0, #16
 8001596:	f7ff fd4f 	bl	8001038 <Display16Seg_All_Single>
	    }
	    if (dot==1){
 800159a:	1dbb      	adds	r3, r7, #6
 800159c:	781b      	ldrb	r3, [r3, #0]
 800159e:	2b01      	cmp	r3, #1
 80015a0:	d108      	bne.n	80015b4 <Display16Seg_Num+0x13c>
	    	HAL_GPIO_WritePin(SEG_DP_GPIO_Port,SEG_DP_Pin,led_status); //
 80015a2:	230c      	movs	r3, #12
 80015a4:	18fb      	adds	r3, r7, r3
 80015a6:	781b      	ldrb	r3, [r3, #0]
 80015a8:	4809      	ldr	r0, [pc, #36]	; (80015d0 <Display16Seg_Num+0x158>)
 80015aa:	001a      	movs	r2, r3
 80015ac:	2110      	movs	r1, #16
 80015ae:	f004 fc4b 	bl	8005e48 <HAL_GPIO_WritePin>
	    }else{
	    	HAL_GPIO_WritePin(SEG_DP_GPIO_Port,SEG_DP_Pin,GPIO_PIN_RESET); //
	    }
}
 80015b2:	e005      	b.n	80015c0 <Display16Seg_Num+0x148>
	    	HAL_GPIO_WritePin(SEG_DP_GPIO_Port,SEG_DP_Pin,GPIO_PIN_RESET); //
 80015b4:	4b06      	ldr	r3, [pc, #24]	; (80015d0 <Display16Seg_Num+0x158>)
 80015b6:	2200      	movs	r2, #0
 80015b8:	2110      	movs	r1, #16
 80015ba:	0018      	movs	r0, r3
 80015bc:	f004 fc44 	bl	8005e48 <HAL_GPIO_WritePin>
}
 80015c0:	46c0      	nop			; (mov r8, r8)
 80015c2:	46bd      	mov	sp, r7
 80015c4:	b005      	add	sp, #20
 80015c6:	bd90      	pop	{r4, r7, pc}
 80015c8:	0800f46c 	.word	0x0800f46c
 80015cc:	20000272 	.word	0x20000272
 80015d0:	48000800 	.word	0x48000800

080015d4 <Display16Seg_Msg>:
 * @brief  Display a message of char
 * @note
 * @param  numrToDisp: ascii code of char to display ;Dot : 1 if dot present 0, if not present;,LED_STATUS_t status :status of animation on display
 * @retval None
 */
void Display16Seg_Msg(char *msg ,unsigned char len){
 80015d4:	b580      	push	{r7, lr}
 80015d6:	b084      	sub	sp, #16
 80015d8:	af00      	add	r7, sp, #0
 80015da:	6078      	str	r0, [r7, #4]
 80015dc:	000a      	movs	r2, r1
 80015de:	1cfb      	adds	r3, r7, #3
 80015e0:	701a      	strb	r2, [r3, #0]
uint8_t chr;
  for(chr=0;chr<len;chr++){
 80015e2:	230f      	movs	r3, #15
 80015e4:	18fb      	adds	r3, r7, r3
 80015e6:	2200      	movs	r2, #0
 80015e8:	701a      	strb	r2, [r3, #0]
 80015ea:	e011      	b.n	8001610 <Display16Seg_Msg+0x3c>
	msg_disp16.msg[chr]=msg[chr];
 80015ec:	230f      	movs	r3, #15
 80015ee:	18fb      	adds	r3, r7, r3
 80015f0:	781b      	ldrb	r3, [r3, #0]
 80015f2:	220f      	movs	r2, #15
 80015f4:	18ba      	adds	r2, r7, r2
 80015f6:	7812      	ldrb	r2, [r2, #0]
 80015f8:	6879      	ldr	r1, [r7, #4]
 80015fa:	188a      	adds	r2, r1, r2
 80015fc:	7811      	ldrb	r1, [r2, #0]
 80015fe:	4a11      	ldr	r2, [pc, #68]	; (8001644 <Display16Seg_Msg+0x70>)
 8001600:	54d1      	strb	r1, [r2, r3]
  for(chr=0;chr<len;chr++){
 8001602:	230f      	movs	r3, #15
 8001604:	18fb      	adds	r3, r7, r3
 8001606:	781a      	ldrb	r2, [r3, #0]
 8001608:	230f      	movs	r3, #15
 800160a:	18fb      	adds	r3, r7, r3
 800160c:	3201      	adds	r2, #1
 800160e:	701a      	strb	r2, [r3, #0]
 8001610:	230f      	movs	r3, #15
 8001612:	18fa      	adds	r2, r7, r3
 8001614:	1cfb      	adds	r3, r7, #3
 8001616:	7812      	ldrb	r2, [r2, #0]
 8001618:	781b      	ldrb	r3, [r3, #0]
 800161a:	429a      	cmp	r2, r3
 800161c:	d3e6      	bcc.n	80015ec <Display16Seg_Msg+0x18>
  }
  msg_disp16.len_msg=len;
 800161e:	4b09      	ldr	r3, [pc, #36]	; (8001644 <Display16Seg_Msg+0x70>)
 8001620:	1cfa      	adds	r2, r7, #3
 8001622:	7812      	ldrb	r2, [r2, #0]
 8001624:	735a      	strb	r2, [r3, #13]
  msg_disp16.time_refresh=0;//TIME_REFRESH_DISP_SEC;
 8001626:	4b07      	ldr	r3, [pc, #28]	; (8001644 <Display16Seg_Msg+0x70>)
 8001628:	2200      	movs	r2, #0
 800162a:	815a      	strh	r2, [r3, #10]
  msg_disp16.char_active=len;
 800162c:	4b05      	ldr	r3, [pc, #20]	; (8001644 <Display16Seg_Msg+0x70>)
 800162e:	1cfa      	adds	r2, r7, #3
 8001630:	7812      	ldrb	r2, [r2, #0]
 8001632:	731a      	strb	r2, [r3, #12]
  msg_disp16.status=MSG_DISP_ACTIVE;
 8001634:	4b03      	ldr	r3, [pc, #12]	; (8001644 <Display16Seg_Msg+0x70>)
 8001636:	2201      	movs	r2, #1
 8001638:	739a      	strb	r2, [r3, #14]

}
 800163a:	46c0      	nop			; (mov r8, r8)
 800163c:	46bd      	mov	sp, r7
 800163e:	b004      	add	sp, #16
 8001640:	bd80      	pop	{r7, pc}
 8001642:	46c0      	nop			; (mov r8, r8)
 8001644:	20000138 	.word	0x20000138

08001648 <Display16Seg_design>:


void Display16Seg_design(void){
 8001648:	b580      	push	{r7, lr}
 800164a:	af00      	add	r7, sp, #0

	if(msg_disp16.status==MSG_DISP_ACTIVE){
 800164c:	4b18      	ldr	r3, [pc, #96]	; (80016b0 <Display16Seg_design+0x68>)
 800164e:	7b9b      	ldrb	r3, [r3, #14]
 8001650:	2b01      	cmp	r3, #1
 8001652:	d126      	bne.n	80016a2 <Display16Seg_design+0x5a>
	   if(msg_disp16.time_refresh==0){
 8001654:	4b16      	ldr	r3, [pc, #88]	; (80016b0 <Display16Seg_design+0x68>)
 8001656:	895b      	ldrh	r3, [r3, #10]
 8001658:	2b00      	cmp	r3, #0
 800165a:	d125      	bne.n	80016a8 <Display16Seg_design+0x60>

		  if(++msg_disp16.char_active>(msg_disp16.len_msg-1)){
 800165c:	4b14      	ldr	r3, [pc, #80]	; (80016b0 <Display16Seg_design+0x68>)
 800165e:	7b1b      	ldrb	r3, [r3, #12]
 8001660:	3301      	adds	r3, #1
 8001662:	b2da      	uxtb	r2, r3
 8001664:	4b12      	ldr	r3, [pc, #72]	; (80016b0 <Display16Seg_design+0x68>)
 8001666:	731a      	strb	r2, [r3, #12]
 8001668:	4b11      	ldr	r3, [pc, #68]	; (80016b0 <Display16Seg_design+0x68>)
 800166a:	7b1b      	ldrb	r3, [r3, #12]
 800166c:	001a      	movs	r2, r3
 800166e:	4b10      	ldr	r3, [pc, #64]	; (80016b0 <Display16Seg_design+0x68>)
 8001670:	7b5b      	ldrb	r3, [r3, #13]
 8001672:	3b01      	subs	r3, #1
 8001674:	429a      	cmp	r2, r3
 8001676:	dd02      	ble.n	800167e <Display16Seg_design+0x36>
			  msg_disp16.char_active=0;
 8001678:	4b0d      	ldr	r3, [pc, #52]	; (80016b0 <Display16Seg_design+0x68>)
 800167a:	2200      	movs	r2, #0
 800167c:	731a      	strb	r2, [r3, #12]
		  }
		  char_rx_to_display=msg_disp16.msg[msg_disp16.char_active];
 800167e:	4b0c      	ldr	r3, [pc, #48]	; (80016b0 <Display16Seg_design+0x68>)
 8001680:	7b1b      	ldrb	r3, [r3, #12]
 8001682:	001a      	movs	r2, r3
 8001684:	4b0a      	ldr	r3, [pc, #40]	; (80016b0 <Display16Seg_design+0x68>)
 8001686:	5c9a      	ldrb	r2, [r3, r2]
 8001688:	4b0a      	ldr	r3, [pc, #40]	; (80016b4 <Display16Seg_design+0x6c>)
 800168a:	701a      	strb	r2, [r3, #0]
		  Display16Seg_Char(char_rx_to_display,0,ON_DISP);
 800168c:	4b09      	ldr	r3, [pc, #36]	; (80016b4 <Display16Seg_design+0x6c>)
 800168e:	781b      	ldrb	r3, [r3, #0]
 8001690:	2200      	movs	r2, #0
 8001692:	2100      	movs	r1, #0
 8001694:	0018      	movs	r0, r3
 8001696:	f7ff fe3d 	bl	8001314 <Display16Seg_Char>
		  msg_disp16.time_refresh=TIME_REFRESH_DISP_SEC;//TIME_REFRESH_WORD_SEC
 800169a:	4b05      	ldr	r3, [pc, #20]	; (80016b0 <Display16Seg_design+0x68>)
 800169c:	2201      	movs	r2, #1
 800169e:	815a      	strh	r2, [r3, #10]
    }else{
    	 msg_disp16.char_active=MSG_DISP_OFF;
    }


}
 80016a0:	e002      	b.n	80016a8 <Display16Seg_design+0x60>
    	 msg_disp16.char_active=MSG_DISP_OFF;
 80016a2:	4b03      	ldr	r3, [pc, #12]	; (80016b0 <Display16Seg_design+0x68>)
 80016a4:	2200      	movs	r2, #0
 80016a6:	731a      	strb	r2, [r3, #12]
}
 80016a8:	46c0      	nop			; (mov r8, r8)
 80016aa:	46bd      	mov	sp, r7
 80016ac:	bd80      	pop	{r7, pc}
 80016ae:	46c0      	nop			; (mov r8, r8)
 80016b0:	20000138 	.word	0x20000138
 80016b4:	200002c9 	.word	0x200002c9

080016b8 <MX_DMA_Init>:

/** 
  * Enable DMA controller clock
  */
void MX_DMA_Init(void) 
{
 80016b8:	b580      	push	{r7, lr}
 80016ba:	b082      	sub	sp, #8
 80016bc:	af00      	add	r7, sp, #0

  /* DMA controller clock enable */
  __HAL_RCC_DMA1_CLK_ENABLE();
 80016be:	4b08      	ldr	r3, [pc, #32]	; (80016e0 <MX_DMA_Init+0x28>)
 80016c0:	4a07      	ldr	r2, [pc, #28]	; (80016e0 <MX_DMA_Init+0x28>)
 80016c2:	6952      	ldr	r2, [r2, #20]
 80016c4:	2101      	movs	r1, #1
 80016c6:	430a      	orrs	r2, r1
 80016c8:	615a      	str	r2, [r3, #20]
 80016ca:	4b05      	ldr	r3, [pc, #20]	; (80016e0 <MX_DMA_Init+0x28>)
 80016cc:	695b      	ldr	r3, [r3, #20]
 80016ce:	2201      	movs	r2, #1
 80016d0:	4013      	ands	r3, r2
 80016d2:	607b      	str	r3, [r7, #4]
 80016d4:	687b      	ldr	r3, [r7, #4]

}
 80016d6:	46c0      	nop			; (mov r8, r8)
 80016d8:	46bd      	mov	sp, r7
 80016da:	b002      	add	sp, #8
 80016dc:	bd80      	pop	{r7, pc}
 80016de:	46c0      	nop			; (mov r8, r8)
 80016e0:	40021000 	.word	0x40021000

080016e4 <MX_GPIO_Init>:
        * EXTI
        * Free pins are configured automatically as Analog (this feature is enabled through 
        * the Code Generation settings)
*/
void MX_GPIO_Init(void)
{
 80016e4:	b580      	push	{r7, lr}
 80016e6:	b08a      	sub	sp, #40	; 0x28
 80016e8:	af00      	add	r7, sp, #0

  GPIO_InitTypeDef GPIO_InitStruct = {0};
 80016ea:	2314      	movs	r3, #20
 80016ec:	18fb      	adds	r3, r7, r3
 80016ee:	0018      	movs	r0, r3
 80016f0:	2314      	movs	r3, #20
 80016f2:	001a      	movs	r2, r3
 80016f4:	2100      	movs	r1, #0
 80016f6:	f00c fd4c 	bl	800e192 <memset>

  /* GPIO Ports Clock Enable */
  __HAL_RCC_GPIOC_CLK_ENABLE();
 80016fa:	4b83      	ldr	r3, [pc, #524]	; (8001908 <MX_GPIO_Init+0x224>)
 80016fc:	4a82      	ldr	r2, [pc, #520]	; (8001908 <MX_GPIO_Init+0x224>)
 80016fe:	6952      	ldr	r2, [r2, #20]
 8001700:	2180      	movs	r1, #128	; 0x80
 8001702:	0309      	lsls	r1, r1, #12
 8001704:	430a      	orrs	r2, r1
 8001706:	615a      	str	r2, [r3, #20]
 8001708:	4b7f      	ldr	r3, [pc, #508]	; (8001908 <MX_GPIO_Init+0x224>)
 800170a:	695a      	ldr	r2, [r3, #20]
 800170c:	2380      	movs	r3, #128	; 0x80
 800170e:	031b      	lsls	r3, r3, #12
 8001710:	4013      	ands	r3, r2
 8001712:	613b      	str	r3, [r7, #16]
 8001714:	693b      	ldr	r3, [r7, #16]
  __HAL_RCC_GPIOF_CLK_ENABLE();
 8001716:	4b7c      	ldr	r3, [pc, #496]	; (8001908 <MX_GPIO_Init+0x224>)
 8001718:	4a7b      	ldr	r2, [pc, #492]	; (8001908 <MX_GPIO_Init+0x224>)
 800171a:	6952      	ldr	r2, [r2, #20]
 800171c:	2180      	movs	r1, #128	; 0x80
 800171e:	03c9      	lsls	r1, r1, #15
 8001720:	430a      	orrs	r2, r1
 8001722:	615a      	str	r2, [r3, #20]
 8001724:	4b78      	ldr	r3, [pc, #480]	; (8001908 <MX_GPIO_Init+0x224>)
 8001726:	695a      	ldr	r2, [r3, #20]
 8001728:	2380      	movs	r3, #128	; 0x80
 800172a:	03db      	lsls	r3, r3, #15
 800172c:	4013      	ands	r3, r2
 800172e:	60fb      	str	r3, [r7, #12]
 8001730:	68fb      	ldr	r3, [r7, #12]
  __HAL_RCC_GPIOA_CLK_ENABLE();
 8001732:	4b75      	ldr	r3, [pc, #468]	; (8001908 <MX_GPIO_Init+0x224>)
 8001734:	4a74      	ldr	r2, [pc, #464]	; (8001908 <MX_GPIO_Init+0x224>)
 8001736:	6952      	ldr	r2, [r2, #20]
 8001738:	2180      	movs	r1, #128	; 0x80
 800173a:	0289      	lsls	r1, r1, #10
 800173c:	430a      	orrs	r2, r1
 800173e:	615a      	str	r2, [r3, #20]
 8001740:	4b71      	ldr	r3, [pc, #452]	; (8001908 <MX_GPIO_Init+0x224>)
 8001742:	695a      	ldr	r2, [r3, #20]
 8001744:	2380      	movs	r3, #128	; 0x80
 8001746:	029b      	lsls	r3, r3, #10
 8001748:	4013      	ands	r3, r2
 800174a:	60bb      	str	r3, [r7, #8]
 800174c:	68bb      	ldr	r3, [r7, #8]
  __HAL_RCC_GPIOB_CLK_ENABLE();
 800174e:	4b6e      	ldr	r3, [pc, #440]	; (8001908 <MX_GPIO_Init+0x224>)
 8001750:	4a6d      	ldr	r2, [pc, #436]	; (8001908 <MX_GPIO_Init+0x224>)
 8001752:	6952      	ldr	r2, [r2, #20]
 8001754:	2180      	movs	r1, #128	; 0x80
 8001756:	02c9      	lsls	r1, r1, #11
 8001758:	430a      	orrs	r2, r1
 800175a:	615a      	str	r2, [r3, #20]
 800175c:	4b6a      	ldr	r3, [pc, #424]	; (8001908 <MX_GPIO_Init+0x224>)
 800175e:	695a      	ldr	r2, [r3, #20]
 8001760:	2380      	movs	r3, #128	; 0x80
 8001762:	02db      	lsls	r3, r3, #11
 8001764:	4013      	ands	r3, r2
 8001766:	607b      	str	r3, [r7, #4]
 8001768:	687b      	ldr	r3, [r7, #4]
  __HAL_RCC_GPIOD_CLK_ENABLE();
 800176a:	4b67      	ldr	r3, [pc, #412]	; (8001908 <MX_GPIO_Init+0x224>)
 800176c:	4a66      	ldr	r2, [pc, #408]	; (8001908 <MX_GPIO_Init+0x224>)
 800176e:	6952      	ldr	r2, [r2, #20]
 8001770:	2180      	movs	r1, #128	; 0x80
 8001772:	0349      	lsls	r1, r1, #13
 8001774:	430a      	orrs	r2, r1
 8001776:	615a      	str	r2, [r3, #20]
 8001778:	4b63      	ldr	r3, [pc, #396]	; (8001908 <MX_GPIO_Init+0x224>)
 800177a:	695a      	ldr	r2, [r3, #20]
 800177c:	2380      	movs	r3, #128	; 0x80
 800177e:	035b      	lsls	r3, r3, #13
 8001780:	4013      	ands	r3, r2
 8001782:	603b      	str	r3, [r7, #0]
 8001784:	683b      	ldr	r3, [r7, #0]

  /*Configure GPIO pin Output Level */
  HAL_GPIO_WritePin(GPIOA, RS485_RE_UART2CTS_Pin|RS485_DE_UART2RTS_Pin|SEG_A1_1_Pin|SEG_F_4_Pin
 8001786:	4961      	ldr	r1, [pc, #388]	; (800190c <MX_GPIO_Init+0x228>)
 8001788:	2390      	movs	r3, #144	; 0x90
 800178a:	05db      	lsls	r3, r3, #23
 800178c:	2200      	movs	r2, #0
 800178e:	0018      	movs	r0, r3
 8001790:	f004 fb5a 	bl	8005e48 <HAL_GPIO_WritePin>
                          |SEG_A2_18_Pin|SEG_G2_15_Pin, GPIO_PIN_RESET);

  /*Configure GPIO pin Output Level */
  HAL_GPIO_WritePin(GPIOC, SEG_DP_12_Pin|SEG_N_7_Pin|SEG_D2_10_Pin|SEG_D1_9_Pin 
 8001794:	23fc      	movs	r3, #252	; 0xfc
 8001796:	009b      	lsls	r3, r3, #2
 8001798:	485d      	ldr	r0, [pc, #372]	; (8001910 <MX_GPIO_Init+0x22c>)
 800179a:	2200      	movs	r2, #0
 800179c:	0019      	movs	r1, r3
 800179e:	f004 fb53 	bl	8005e48 <HAL_GPIO_WritePin>
                          |SEG_C_13_Pin|SEG_B_16_Pin, GPIO_PIN_RESET);

  /*Configure GPIO pin Output Level */
  HAL_GPIO_WritePin(GPIOB, SEG_M_6_Pin|SEG_L_14_Pin|SEG_K_17_Pin|SEG_H_3_Pin 
 80017a2:	495c      	ldr	r1, [pc, #368]	; (8001914 <MX_GPIO_Init+0x230>)
 80017a4:	4b5c      	ldr	r3, [pc, #368]	; (8001918 <MX_GPIO_Init+0x234>)
 80017a6:	2200      	movs	r2, #0
 80017a8:	0018      	movs	r0, r3
 80017aa:	f004 fb4d 	bl	8005e48 <HAL_GPIO_WritePin>
                          |SPI2_NSS_STROBECLK_Pin|SEG_G1_5_Pin|SEG_E_8_Pin|LED_DRIVER__OE_Pin 
                          |RST_STORE_LED_Pin|SEG_J_2_Pin, GPIO_PIN_RESET);

  /*Configure GPIO pins : PCPin PCPin PCPin PCPin 
                           PCPin PCPin PCPin PCPin */
  GPIO_InitStruct.Pin = SW2_RIGHT_T6_Pin|SW2_CENTER_T5_Pin|SW2_LEFT_T4_Pin|SW1_CENTER_T2_Pin 
 80017ae:	2314      	movs	r3, #20
 80017b0:	18fb      	adds	r3, r7, r3
 80017b2:	4a5a      	ldr	r2, [pc, #360]	; (800191c <MX_GPIO_Init+0x238>)
 80017b4:	601a      	str	r2, [r3, #0]
                          |SW1_LEFT_T1_Pin|SW3_LEFT_T7_Pin|SW3_CENTER_T8_Pin|SW3_RIGHT_T9_Pin;
  GPIO_InitStruct.Mode = GPIO_MODE_INPUT;
 80017b6:	2314      	movs	r3, #20
 80017b8:	18fb      	adds	r3, r7, r3
 80017ba:	2200      	movs	r2, #0
 80017bc:	605a      	str	r2, [r3, #4]
  GPIO_InitStruct.Pull = GPIO_NOPULL;
 80017be:	2314      	movs	r3, #20
 80017c0:	18fb      	adds	r3, r7, r3
 80017c2:	2200      	movs	r2, #0
 80017c4:	609a      	str	r2, [r3, #8]
  HAL_GPIO_Init(GPIOC, &GPIO_InitStruct);
 80017c6:	2314      	movs	r3, #20
 80017c8:	18fb      	adds	r3, r7, r3
 80017ca:	4a51      	ldr	r2, [pc, #324]	; (8001910 <MX_GPIO_Init+0x22c>)
 80017cc:	0019      	movs	r1, r3
 80017ce:	0010      	movs	r0, r2
 80017d0:	f004 f8d0 	bl	8005974 <HAL_GPIO_Init>

  /*Configure GPIO pins : PAPin PAPin PAPin PAPin 
                           PAPin PAPin */
  GPIO_InitStruct.Pin = RS485_RE_UART2CTS_Pin|RS485_DE_UART2RTS_Pin|SEG_A1_1_Pin|SEG_F_4_Pin
 80017d4:	2314      	movs	r3, #20
 80017d6:	18fb      	adds	r3, r7, r3
 80017d8:	4a4c      	ldr	r2, [pc, #304]	; (800190c <MX_GPIO_Init+0x228>)
 80017da:	601a      	str	r2, [r3, #0]
                          |SEG_A2_18_Pin|SEG_G2_15_Pin;
  GPIO_InitStruct.Mode = GPIO_MODE_OUTPUT_PP;
 80017dc:	2314      	movs	r3, #20
 80017de:	18fb      	adds	r3, r7, r3
 80017e0:	2201      	movs	r2, #1
 80017e2:	605a      	str	r2, [r3, #4]
  GPIO_InitStruct.Pull = GPIO_NOPULL;
 80017e4:	2314      	movs	r3, #20
 80017e6:	18fb      	adds	r3, r7, r3
 80017e8:	2200      	movs	r2, #0
 80017ea:	609a      	str	r2, [r3, #8]
  GPIO_InitStruct.Speed = GPIO_SPEED_FREQ_LOW;
 80017ec:	2314      	movs	r3, #20
 80017ee:	18fb      	adds	r3, r7, r3
 80017f0:	2200      	movs	r2, #0
 80017f2:	60da      	str	r2, [r3, #12]
  HAL_GPIO_Init(GPIOA, &GPIO_InitStruct);
 80017f4:	2314      	movs	r3, #20
 80017f6:	18fa      	adds	r2, r7, r3
 80017f8:	2390      	movs	r3, #144	; 0x90
 80017fa:	05db      	lsls	r3, r3, #23
 80017fc:	0011      	movs	r1, r2
 80017fe:	0018      	movs	r0, r3
 8001800:	f004 f8b8 	bl	8005974 <HAL_GPIO_Init>

  /*Configure GPIO pin : PtPin */
  GPIO_InitStruct.Pin = ENCODER_CHA_Pin;
 8001804:	2314      	movs	r3, #20
 8001806:	18fb      	adds	r3, r7, r3
 8001808:	2210      	movs	r2, #16
 800180a:	601a      	str	r2, [r3, #0]
  GPIO_InitStruct.Mode = GPIO_MODE_IT_FALLING;
 800180c:	2314      	movs	r3, #20
 800180e:	18fb      	adds	r3, r7, r3
 8001810:	4a43      	ldr	r2, [pc, #268]	; (8001920 <MX_GPIO_Init+0x23c>)
 8001812:	605a      	str	r2, [r3, #4]
  GPIO_InitStruct.Pull = GPIO_NOPULL;
 8001814:	2314      	movs	r3, #20
 8001816:	18fb      	adds	r3, r7, r3
 8001818:	2200      	movs	r2, #0
 800181a:	609a      	str	r2, [r3, #8]
  HAL_GPIO_Init(ENCODER_CHA_GPIO_Port, &GPIO_InitStruct);
 800181c:	2314      	movs	r3, #20
 800181e:	18fa      	adds	r2, r7, r3
 8001820:	2390      	movs	r3, #144	; 0x90
 8001822:	05db      	lsls	r3, r3, #23
 8001824:	0011      	movs	r1, r2
 8001826:	0018      	movs	r0, r3
 8001828:	f004 f8a4 	bl	8005974 <HAL_GPIO_Init>

  /*Configure GPIO pin : PtPin */
  GPIO_InitStruct.Pin = ENCODER_CHB_Pin;
 800182c:	2314      	movs	r3, #20
 800182e:	18fb      	adds	r3, r7, r3
 8001830:	2220      	movs	r2, #32
 8001832:	601a      	str	r2, [r3, #0]
  GPIO_InitStruct.Mode = GPIO_MODE_IT_RISING_FALLING;
 8001834:	2314      	movs	r3, #20
 8001836:	18fb      	adds	r3, r7, r3
 8001838:	4a3a      	ldr	r2, [pc, #232]	; (8001924 <MX_GPIO_Init+0x240>)
 800183a:	605a      	str	r2, [r3, #4]
  GPIO_InitStruct.Pull = GPIO_NOPULL;
 800183c:	2314      	movs	r3, #20
 800183e:	18fb      	adds	r3, r7, r3
 8001840:	2200      	movs	r2, #0
 8001842:	609a      	str	r2, [r3, #8]
  HAL_GPIO_Init(ENCODER_CHB_GPIO_Port, &GPIO_InitStruct);
 8001844:	2314      	movs	r3, #20
 8001846:	18fa      	adds	r2, r7, r3
 8001848:	2390      	movs	r3, #144	; 0x90
 800184a:	05db      	lsls	r3, r3, #23
 800184c:	0011      	movs	r1, r2
 800184e:	0018      	movs	r0, r3
 8001850:	f004 f890 	bl	8005974 <HAL_GPIO_Init>

  /*Configure GPIO pins : PCPin PCPin PCPin PCPin 
                           PCPin PCPin */
  GPIO_InitStruct.Pin = SEG_DP_12_Pin|SEG_N_7_Pin|SEG_D2_10_Pin|SEG_D1_9_Pin 
 8001854:	2314      	movs	r3, #20
 8001856:	18fb      	adds	r3, r7, r3
 8001858:	22fc      	movs	r2, #252	; 0xfc
 800185a:	0092      	lsls	r2, r2, #2
 800185c:	601a      	str	r2, [r3, #0]
                          |SEG_C_13_Pin|SEG_B_16_Pin;
  GPIO_InitStruct.Mode = GPIO_MODE_OUTPUT_PP;
 800185e:	2314      	movs	r3, #20
 8001860:	18fb      	adds	r3, r7, r3
 8001862:	2201      	movs	r2, #1
 8001864:	605a      	str	r2, [r3, #4]
  GPIO_InitStruct.Pull = GPIO_NOPULL;
 8001866:	2314      	movs	r3, #20
 8001868:	18fb      	adds	r3, r7, r3
 800186a:	2200      	movs	r2, #0
 800186c:	609a      	str	r2, [r3, #8]
  GPIO_InitStruct.Speed = GPIO_SPEED_FREQ_LOW;
 800186e:	2314      	movs	r3, #20
 8001870:	18fb      	adds	r3, r7, r3
 8001872:	2200      	movs	r2, #0
 8001874:	60da      	str	r2, [r3, #12]
  HAL_GPIO_Init(GPIOC, &GPIO_InitStruct);
 8001876:	2314      	movs	r3, #20
 8001878:	18fb      	adds	r3, r7, r3
 800187a:	4a25      	ldr	r2, [pc, #148]	; (8001910 <MX_GPIO_Init+0x22c>)
 800187c:	0019      	movs	r1, r3
 800187e:	0010      	movs	r0, r2
 8001880:	f004 f878 	bl	8005974 <HAL_GPIO_Init>

  /*Configure GPIO pins : PBPin PBPin PBPin PBPin 
                           PBPin PBPin PBPin PBPin 
                           PBPin PBPin */
  GPIO_InitStruct.Pin = SEG_M_6_Pin|SEG_L_14_Pin|SEG_K_17_Pin|SEG_H_3_Pin 
 8001884:	2314      	movs	r3, #20
 8001886:	18fb      	adds	r3, r7, r3
 8001888:	4a22      	ldr	r2, [pc, #136]	; (8001914 <MX_GPIO_Init+0x230>)
 800188a:	601a      	str	r2, [r3, #0]
                          |SPI2_NSS_STROBECLK_Pin|SEG_G1_5_Pin|SEG_E_8_Pin|LED_DRIVER__OE_Pin 
                          |RST_STORE_LED_Pin|SEG_J_2_Pin;
  GPIO_InitStruct.Mode = GPIO_MODE_OUTPUT_PP;
 800188c:	2314      	movs	r3, #20
 800188e:	18fb      	adds	r3, r7, r3
 8001890:	2201      	movs	r2, #1
 8001892:	605a      	str	r2, [r3, #4]
  GPIO_InitStruct.Pull = GPIO_NOPULL;
 8001894:	2314      	movs	r3, #20
 8001896:	18fb      	adds	r3, r7, r3
 8001898:	2200      	movs	r2, #0
 800189a:	609a      	str	r2, [r3, #8]
  GPIO_InitStruct.Speed = GPIO_SPEED_FREQ_LOW;
 800189c:	2314      	movs	r3, #20
 800189e:	18fb      	adds	r3, r7, r3
 80018a0:	2200      	movs	r2, #0
 80018a2:	60da      	str	r2, [r3, #12]
  HAL_GPIO_Init(GPIOB, &GPIO_InitStruct);
 80018a4:	2314      	movs	r3, #20
 80018a6:	18fb      	adds	r3, r7, r3
 80018a8:	4a1b      	ldr	r2, [pc, #108]	; (8001918 <MX_GPIO_Init+0x234>)
 80018aa:	0019      	movs	r1, r3
 80018ac:	0010      	movs	r0, r2
 80018ae:	f004 f861 	bl	8005974 <HAL_GPIO_Init>

  /*Configure GPIO pin : PtPin */
  GPIO_InitStruct.Pin = SW4_LEFT_T10_Pin;
 80018b2:	2314      	movs	r3, #20
 80018b4:	18fb      	adds	r3, r7, r3
 80018b6:	2204      	movs	r2, #4
 80018b8:	601a      	str	r2, [r3, #0]
  GPIO_InitStruct.Mode = GPIO_MODE_INPUT;
 80018ba:	2314      	movs	r3, #20
 80018bc:	18fb      	adds	r3, r7, r3
 80018be:	2200      	movs	r2, #0
 80018c0:	605a      	str	r2, [r3, #4]
  GPIO_InitStruct.Pull = GPIO_NOPULL;
 80018c2:	2314      	movs	r3, #20
 80018c4:	18fb      	adds	r3, r7, r3
 80018c6:	2200      	movs	r2, #0
 80018c8:	609a      	str	r2, [r3, #8]
  HAL_GPIO_Init(SW4_LEFT_T10_GPIO_Port, &GPIO_InitStruct);
 80018ca:	2314      	movs	r3, #20
 80018cc:	18fb      	adds	r3, r7, r3
 80018ce:	4a16      	ldr	r2, [pc, #88]	; (8001928 <MX_GPIO_Init+0x244>)
 80018d0:	0019      	movs	r1, r3
 80018d2:	0010      	movs	r0, r2
 80018d4:	f004 f84e 	bl	8005974 <HAL_GPIO_Init>

  /*Configure GPIO pins : PBPin PBPin */
  GPIO_InitStruct.Pin = SDO_LED_SDI_KEYS_Pin|SW4_RIGHT_T12_Pin;
 80018d8:	2314      	movs	r3, #20
 80018da:	18fb      	adds	r3, r7, r3
 80018dc:	2218      	movs	r2, #24
 80018de:	601a      	str	r2, [r3, #0]
  GPIO_InitStruct.Mode = GPIO_MODE_INPUT;
 80018e0:	2314      	movs	r3, #20
 80018e2:	18fb      	adds	r3, r7, r3
 80018e4:	2200      	movs	r2, #0
 80018e6:	605a      	str	r2, [r3, #4]
  GPIO_InitStruct.Pull = GPIO_NOPULL;
 80018e8:	2314      	movs	r3, #20
 80018ea:	18fb      	adds	r3, r7, r3
 80018ec:	2200      	movs	r2, #0
 80018ee:	609a      	str	r2, [r3, #8]
  HAL_GPIO_Init(GPIOB, &GPIO_InitStruct);
 80018f0:	2314      	movs	r3, #20
 80018f2:	18fb      	adds	r3, r7, r3
 80018f4:	4a08      	ldr	r2, [pc, #32]	; (8001918 <MX_GPIO_Init+0x234>)
 80018f6:	0019      	movs	r1, r3
 80018f8:	0010      	movs	r0, r2
 80018fa:	f004 f83b 	bl	8005974 <HAL_GPIO_Init>

}
 80018fe:	46c0      	nop			; (mov r8, r8)
 8001900:	46bd      	mov	sp, r7
 8001902:	b00a      	add	sp, #40	; 0x28
 8001904:	bd80      	pop	{r7, pc}
 8001906:	46c0      	nop			; (mov r8, r8)
 8001908:	40021000 	.word	0x40021000
 800190c:	000081c3 	.word	0x000081c3
 8001910:	48000800 	.word	0x48000800
 8001914:	0000bb27 	.word	0x0000bb27
 8001918:	48000400 	.word	0x48000400
 800191c:	0000fc06 	.word	0x0000fc06
 8001920:	10210000 	.word	0x10210000
 8001924:	10310000 	.word	0x10310000
 8001928:	48000c00 	.word	0x48000c00

0800192c <MX_I2C1_Init>:
I2C_HandleTypeDef hi2c1;
DMA_HandleTypeDef hdma_i2c1_rx;

/* I2C1 init function */
void MX_I2C1_Init(void)
{
 800192c:	b580      	push	{r7, lr}
 800192e:	af00      	add	r7, sp, #0

  hi2c1.Instance = I2C1;
 8001930:	4b1b      	ldr	r3, [pc, #108]	; (80019a0 <MX_I2C1_Init+0x74>)
 8001932:	4a1c      	ldr	r2, [pc, #112]	; (80019a4 <MX_I2C1_Init+0x78>)
 8001934:	601a      	str	r2, [r3, #0]
  hi2c1.Init.Timing = 0x00401D61;
 8001936:	4b1a      	ldr	r3, [pc, #104]	; (80019a0 <MX_I2C1_Init+0x74>)
 8001938:	4a1b      	ldr	r2, [pc, #108]	; (80019a8 <MX_I2C1_Init+0x7c>)
 800193a:	605a      	str	r2, [r3, #4]
  hi2c1.Init.OwnAddress1 = 0;
 800193c:	4b18      	ldr	r3, [pc, #96]	; (80019a0 <MX_I2C1_Init+0x74>)
 800193e:	2200      	movs	r2, #0
 8001940:	609a      	str	r2, [r3, #8]
  hi2c1.Init.AddressingMode = I2C_ADDRESSINGMODE_7BIT;
 8001942:	4b17      	ldr	r3, [pc, #92]	; (80019a0 <MX_I2C1_Init+0x74>)
 8001944:	2201      	movs	r2, #1
 8001946:	60da      	str	r2, [r3, #12]
  hi2c1.Init.DualAddressMode = I2C_DUALADDRESS_DISABLE;
 8001948:	4b15      	ldr	r3, [pc, #84]	; (80019a0 <MX_I2C1_Init+0x74>)
 800194a:	2200      	movs	r2, #0
 800194c:	611a      	str	r2, [r3, #16]
  hi2c1.Init.OwnAddress2 = 0;
 800194e:	4b14      	ldr	r3, [pc, #80]	; (80019a0 <MX_I2C1_Init+0x74>)
 8001950:	2200      	movs	r2, #0
 8001952:	615a      	str	r2, [r3, #20]
  hi2c1.Init.OwnAddress2Masks = I2C_OA2_NOMASK;
 8001954:	4b12      	ldr	r3, [pc, #72]	; (80019a0 <MX_I2C1_Init+0x74>)
 8001956:	2200      	movs	r2, #0
 8001958:	619a      	str	r2, [r3, #24]
  hi2c1.Init.GeneralCallMode = I2C_GENERALCALL_DISABLE;
 800195a:	4b11      	ldr	r3, [pc, #68]	; (80019a0 <MX_I2C1_Init+0x74>)
 800195c:	2200      	movs	r2, #0
 800195e:	61da      	str	r2, [r3, #28]
  hi2c1.Init.NoStretchMode = I2C_NOSTRETCH_DISABLE;
 8001960:	4b0f      	ldr	r3, [pc, #60]	; (80019a0 <MX_I2C1_Init+0x74>)
 8001962:	2200      	movs	r2, #0
 8001964:	621a      	str	r2, [r3, #32]
  if (HAL_I2C_Init(&hi2c1) != HAL_OK)
 8001966:	4b0e      	ldr	r3, [pc, #56]	; (80019a0 <MX_I2C1_Init+0x74>)
 8001968:	0018      	movs	r0, r3
 800196a:	f004 fad3 	bl	8005f14 <HAL_I2C_Init>
 800196e:	1e03      	subs	r3, r0, #0
 8001970:	d001      	beq.n	8001976 <MX_I2C1_Init+0x4a>
  {
    Error_Handler();
 8001972:	f001 fc05 	bl	8003180 <Error_Handler>
  }
  /** Configure Analogue filter 
  */
  if (HAL_I2CEx_ConfigAnalogFilter(&hi2c1, I2C_ANALOGFILTER_ENABLE) != HAL_OK)
 8001976:	4b0a      	ldr	r3, [pc, #40]	; (80019a0 <MX_I2C1_Init+0x74>)
 8001978:	2100      	movs	r1, #0
 800197a:	0018      	movs	r0, r3
 800197c:	f005 fbec 	bl	8007158 <HAL_I2CEx_ConfigAnalogFilter>
 8001980:	1e03      	subs	r3, r0, #0
 8001982:	d001      	beq.n	8001988 <MX_I2C1_Init+0x5c>
  {
    Error_Handler();
 8001984:	f001 fbfc 	bl	8003180 <Error_Handler>
  }
  /** Configure Digital filter 
  */
  if (HAL_I2CEx_ConfigDigitalFilter(&hi2c1, 0) != HAL_OK)
 8001988:	4b05      	ldr	r3, [pc, #20]	; (80019a0 <MX_I2C1_Init+0x74>)
 800198a:	2100      	movs	r1, #0
 800198c:	0018      	movs	r0, r3
 800198e:	f005 fc51 	bl	8007234 <HAL_I2CEx_ConfigDigitalFilter>
 8001992:	1e03      	subs	r3, r0, #0
 8001994:	d001      	beq.n	800199a <MX_I2C1_Init+0x6e>
  {
    Error_Handler();
 8001996:	f001 fbf3 	bl	8003180 <Error_Handler>
  }

}
 800199a:	46c0      	nop			; (mov r8, r8)
 800199c:	46bd      	mov	sp, r7
 800199e:	bd80      	pop	{r7, pc}
 80019a0:	2000030c 	.word	0x2000030c
 80019a4:	40005400 	.word	0x40005400
 80019a8:	00401d61 	.word	0x00401d61

080019ac <HAL_I2C_MspInit>:

void HAL_I2C_MspInit(I2C_HandleTypeDef* i2cHandle)
{
 80019ac:	b580      	push	{r7, lr}
 80019ae:	b08a      	sub	sp, #40	; 0x28
 80019b0:	af00      	add	r7, sp, #0
 80019b2:	6078      	str	r0, [r7, #4]

  GPIO_InitTypeDef GPIO_InitStruct = {0};
 80019b4:	2314      	movs	r3, #20
 80019b6:	18fb      	adds	r3, r7, r3
 80019b8:	0018      	movs	r0, r3
 80019ba:	2314      	movs	r3, #20
 80019bc:	001a      	movs	r2, r3
 80019be:	2100      	movs	r1, #0
 80019c0:	f00c fbe7 	bl	800e192 <memset>
  if(i2cHandle->Instance==I2C1)
 80019c4:	687b      	ldr	r3, [r7, #4]
 80019c6:	681b      	ldr	r3, [r3, #0]
 80019c8:	4a35      	ldr	r2, [pc, #212]	; (8001aa0 <HAL_I2C_MspInit+0xf4>)
 80019ca:	4293      	cmp	r3, r2
 80019cc:	d163      	bne.n	8001a96 <HAL_I2C_MspInit+0xea>
  {
  /* USER CODE BEGIN I2C1_MspInit 0 */

  /* USER CODE END I2C1_MspInit 0 */
  
    __HAL_RCC_GPIOB_CLK_ENABLE();
 80019ce:	4b35      	ldr	r3, [pc, #212]	; (8001aa4 <HAL_I2C_MspInit+0xf8>)
 80019d0:	4a34      	ldr	r2, [pc, #208]	; (8001aa4 <HAL_I2C_MspInit+0xf8>)
 80019d2:	6952      	ldr	r2, [r2, #20]
 80019d4:	2180      	movs	r1, #128	; 0x80
 80019d6:	02c9      	lsls	r1, r1, #11
 80019d8:	430a      	orrs	r2, r1
 80019da:	615a      	str	r2, [r3, #20]
 80019dc:	4b31      	ldr	r3, [pc, #196]	; (8001aa4 <HAL_I2C_MspInit+0xf8>)
 80019de:	695a      	ldr	r2, [r3, #20]
 80019e0:	2380      	movs	r3, #128	; 0x80
 80019e2:	02db      	lsls	r3, r3, #11
 80019e4:	4013      	ands	r3, r2
 80019e6:	613b      	str	r3, [r7, #16]
 80019e8:	693b      	ldr	r3, [r7, #16]
    /**I2C1 GPIO Configuration    
    PB6     ------> I2C1_SCL
    PB7     ------> I2C1_SDA 
    */
    GPIO_InitStruct.Pin = LED_DRIVER_SCL_Pin|LED_DRIVER_SDA_Pin;
 80019ea:	2314      	movs	r3, #20
 80019ec:	18fb      	adds	r3, r7, r3
 80019ee:	22c0      	movs	r2, #192	; 0xc0
 80019f0:	601a      	str	r2, [r3, #0]
    GPIO_InitStruct.Mode = GPIO_MODE_AF_OD;
 80019f2:	2314      	movs	r3, #20
 80019f4:	18fb      	adds	r3, r7, r3
 80019f6:	2212      	movs	r2, #18
 80019f8:	605a      	str	r2, [r3, #4]
    GPIO_InitStruct.Pull = GPIO_PULLUP;
 80019fa:	2314      	movs	r3, #20
 80019fc:	18fb      	adds	r3, r7, r3
 80019fe:	2201      	movs	r2, #1
 8001a00:	609a      	str	r2, [r3, #8]
    GPIO_InitStruct.Speed = GPIO_SPEED_FREQ_HIGH;
 8001a02:	2314      	movs	r3, #20
 8001a04:	18fb      	adds	r3, r7, r3
 8001a06:	2203      	movs	r2, #3
 8001a08:	60da      	str	r2, [r3, #12]
    GPIO_InitStruct.Alternate = GPIO_AF1_I2C1;
 8001a0a:	2314      	movs	r3, #20
 8001a0c:	18fb      	adds	r3, r7, r3
 8001a0e:	2201      	movs	r2, #1
 8001a10:	611a      	str	r2, [r3, #16]
    HAL_GPIO_Init(GPIOB, &GPIO_InitStruct);
 8001a12:	2314      	movs	r3, #20
 8001a14:	18fb      	adds	r3, r7, r3
 8001a16:	4a24      	ldr	r2, [pc, #144]	; (8001aa8 <HAL_I2C_MspInit+0xfc>)
 8001a18:	0019      	movs	r1, r3
 8001a1a:	0010      	movs	r0, r2
 8001a1c:	f003 ffaa 	bl	8005974 <HAL_GPIO_Init>

    /* I2C1 clock enable */
    __HAL_RCC_I2C1_CLK_ENABLE();
 8001a20:	4b20      	ldr	r3, [pc, #128]	; (8001aa4 <HAL_I2C_MspInit+0xf8>)
 8001a22:	4a20      	ldr	r2, [pc, #128]	; (8001aa4 <HAL_I2C_MspInit+0xf8>)
 8001a24:	69d2      	ldr	r2, [r2, #28]
 8001a26:	2180      	movs	r1, #128	; 0x80
 8001a28:	0389      	lsls	r1, r1, #14
 8001a2a:	430a      	orrs	r2, r1
 8001a2c:	61da      	str	r2, [r3, #28]
 8001a2e:	4b1d      	ldr	r3, [pc, #116]	; (8001aa4 <HAL_I2C_MspInit+0xf8>)
 8001a30:	69da      	ldr	r2, [r3, #28]
 8001a32:	2380      	movs	r3, #128	; 0x80
 8001a34:	039b      	lsls	r3, r3, #14
 8001a36:	4013      	ands	r3, r2
 8001a38:	60fb      	str	r3, [r7, #12]
 8001a3a:	68fb      	ldr	r3, [r7, #12]
  
    /* I2C1 DMA Init */
    /* I2C1_RX Init */
    hdma_i2c1_rx.Instance = DMA1_Channel7;
 8001a3c:	4b1b      	ldr	r3, [pc, #108]	; (8001aac <HAL_I2C_MspInit+0x100>)
 8001a3e:	4a1c      	ldr	r2, [pc, #112]	; (8001ab0 <HAL_I2C_MspInit+0x104>)
 8001a40:	601a      	str	r2, [r3, #0]
    hdma_i2c1_rx.Init.Direction = DMA_PERIPH_TO_MEMORY;
 8001a42:	4b1a      	ldr	r3, [pc, #104]	; (8001aac <HAL_I2C_MspInit+0x100>)
 8001a44:	2200      	movs	r2, #0
 8001a46:	605a      	str	r2, [r3, #4]
    hdma_i2c1_rx.Init.PeriphInc = DMA_PINC_DISABLE;
 8001a48:	4b18      	ldr	r3, [pc, #96]	; (8001aac <HAL_I2C_MspInit+0x100>)
 8001a4a:	2200      	movs	r2, #0
 8001a4c:	609a      	str	r2, [r3, #8]
    hdma_i2c1_rx.Init.MemInc = DMA_MINC_ENABLE;
 8001a4e:	4b17      	ldr	r3, [pc, #92]	; (8001aac <HAL_I2C_MspInit+0x100>)
 8001a50:	2280      	movs	r2, #128	; 0x80
 8001a52:	60da      	str	r2, [r3, #12]
    hdma_i2c1_rx.Init.PeriphDataAlignment = DMA_PDATAALIGN_BYTE;
 8001a54:	4b15      	ldr	r3, [pc, #84]	; (8001aac <HAL_I2C_MspInit+0x100>)
 8001a56:	2200      	movs	r2, #0
 8001a58:	611a      	str	r2, [r3, #16]
    hdma_i2c1_rx.Init.MemDataAlignment = DMA_MDATAALIGN_BYTE;
 8001a5a:	4b14      	ldr	r3, [pc, #80]	; (8001aac <HAL_I2C_MspInit+0x100>)
 8001a5c:	2200      	movs	r2, #0
 8001a5e:	615a      	str	r2, [r3, #20]
    hdma_i2c1_rx.Init.Mode = DMA_NORMAL;
 8001a60:	4b12      	ldr	r3, [pc, #72]	; (8001aac <HAL_I2C_MspInit+0x100>)
 8001a62:	2200      	movs	r2, #0
 8001a64:	619a      	str	r2, [r3, #24]
    hdma_i2c1_rx.Init.Priority = DMA_PRIORITY_LOW;
 8001a66:	4b11      	ldr	r3, [pc, #68]	; (8001aac <HAL_I2C_MspInit+0x100>)
 8001a68:	2200      	movs	r2, #0
 8001a6a:	61da      	str	r2, [r3, #28]
    if (HAL_DMA_Init(&hdma_i2c1_rx) != HAL_OK)
 8001a6c:	4b0f      	ldr	r3, [pc, #60]	; (8001aac <HAL_I2C_MspInit+0x100>)
 8001a6e:	0018      	movs	r0, r3
 8001a70:	f003 fd7c 	bl	800556c <HAL_DMA_Init>
 8001a74:	1e03      	subs	r3, r0, #0
 8001a76:	d001      	beq.n	8001a7c <HAL_I2C_MspInit+0xd0>
    {
      Error_Handler();
 8001a78:	f001 fb82 	bl	8003180 <Error_Handler>
    }

    __HAL_DMA_REMAP_CHANNEL_ENABLE(DMA_REMAP_I2C1_DMA_CH76);
 8001a7c:	4b0d      	ldr	r3, [pc, #52]	; (8001ab4 <HAL_I2C_MspInit+0x108>)
 8001a7e:	4a0d      	ldr	r2, [pc, #52]	; (8001ab4 <HAL_I2C_MspInit+0x108>)
 8001a80:	6812      	ldr	r2, [r2, #0]
 8001a82:	2180      	movs	r1, #128	; 0x80
 8001a84:	0509      	lsls	r1, r1, #20
 8001a86:	430a      	orrs	r2, r1
 8001a88:	601a      	str	r2, [r3, #0]

    __HAL_LINKDMA(i2cHandle,hdmarx,hdma_i2c1_rx);
 8001a8a:	687b      	ldr	r3, [r7, #4]
 8001a8c:	4a07      	ldr	r2, [pc, #28]	; (8001aac <HAL_I2C_MspInit+0x100>)
 8001a8e:	63da      	str	r2, [r3, #60]	; 0x3c
 8001a90:	4b06      	ldr	r3, [pc, #24]	; (8001aac <HAL_I2C_MspInit+0x100>)
 8001a92:	687a      	ldr	r2, [r7, #4]
 8001a94:	625a      	str	r2, [r3, #36]	; 0x24

  /* USER CODE BEGIN I2C1_MspInit 1 */

  /* USER CODE END I2C1_MspInit 1 */
  }
}
 8001a96:	46c0      	nop			; (mov r8, r8)
 8001a98:	46bd      	mov	sp, r7
 8001a9a:	b00a      	add	sp, #40	; 0x28
 8001a9c:	bd80      	pop	{r7, pc}
 8001a9e:	46c0      	nop			; (mov r8, r8)
 8001aa0:	40005400 	.word	0x40005400
 8001aa4:	40021000 	.word	0x40021000
 8001aa8:	48000400 	.word	0x48000400
 8001aac:	20000358 	.word	0x20000358
 8001ab0:	40020080 	.word	0x40020080
 8001ab4:	40010000 	.word	0x40010000

08001ab8 <init_input_reayboard>:
 * @brief  Initialize function for input keyboard switches
 * @note   This function inizialize all variables to manage inputs switches
 * @param  None
 * @retval None
 */
void init_input_reayboard(void){
 8001ab8:	b580      	push	{r7, lr}
 8001aba:	b082      	sub	sp, #8
 8001abc:	af00      	add	r7, sp, #0
unsigned char i;
	for(i=0;i<NUM_MAX_SWITCHES;i++){
 8001abe:	1dfb      	adds	r3, r7, #7
 8001ac0:	2200      	movs	r2, #0
 8001ac2:	701a      	strb	r2, [r3, #0]
 8001ac4:	e01c      	b.n	8001b00 <init_input_reayboard+0x48>
		sw_debounce1_counter[i]=0;
 8001ac6:	1dfb      	adds	r3, r7, #7
 8001ac8:	781a      	ldrb	r2, [r3, #0]
 8001aca:	4b29      	ldr	r3, [pc, #164]	; (8001b70 <init_input_reayboard+0xb8>)
 8001acc:	0052      	lsls	r2, r2, #1
 8001ace:	2100      	movs	r1, #0
 8001ad0:	52d1      	strh	r1, [r2, r3]
		sw_debounce2_counter[i]=0;
 8001ad2:	1dfb      	adds	r3, r7, #7
 8001ad4:	781a      	ldrb	r2, [r3, #0]
 8001ad6:	4b27      	ldr	r3, [pc, #156]	; (8001b74 <init_input_reayboard+0xbc>)
 8001ad8:	0052      	lsls	r2, r2, #1
 8001ada:	2100      	movs	r1, #0
 8001adc:	52d1      	strh	r1, [r2, r3]
		sw_debounce3_counter[i]=0;
 8001ade:	1dfb      	adds	r3, r7, #7
 8001ae0:	781a      	ldrb	r2, [r3, #0]
 8001ae2:	4b25      	ldr	r3, [pc, #148]	; (8001b78 <init_input_reayboard+0xc0>)
 8001ae4:	0052      	lsls	r2, r2, #1
 8001ae6:	2100      	movs	r1, #0
 8001ae8:	52d1      	strh	r1, [r2, r3]
		sw_deb_release_cnt[i]=0;
 8001aea:	1dfb      	adds	r3, r7, #7
 8001aec:	781a      	ldrb	r2, [r3, #0]
 8001aee:	4b23      	ldr	r3, [pc, #140]	; (8001b7c <init_input_reayboard+0xc4>)
 8001af0:	0052      	lsls	r2, r2, #1
 8001af2:	2100      	movs	r1, #0
 8001af4:	52d1      	strh	r1, [r2, r3]
	for(i=0;i<NUM_MAX_SWITCHES;i++){
 8001af6:	1dfb      	adds	r3, r7, #7
 8001af8:	781a      	ldrb	r2, [r3, #0]
 8001afa:	1dfb      	adds	r3, r7, #7
 8001afc:	3201      	adds	r2, #1
 8001afe:	701a      	strb	r2, [r3, #0]
 8001b00:	1dfb      	adds	r3, r7, #7
 8001b02:	781b      	ldrb	r3, [r3, #0]
 8001b04:	2b0b      	cmp	r3, #11
 8001b06:	d9de      	bls.n	8001ac6 <init_input_reayboard+0xe>
	}

	switches_bitmap_actual=0x0000;
 8001b08:	4b1d      	ldr	r3, [pc, #116]	; (8001b80 <init_input_reayboard+0xc8>)
 8001b0a:	2200      	movs	r2, #0
 8001b0c:	801a      	strh	r2, [r3, #0]
	switches_bitmap_deb1=0x0000;
 8001b0e:	4b1d      	ldr	r3, [pc, #116]	; (8001b84 <init_input_reayboard+0xcc>)
 8001b10:	2200      	movs	r2, #0
 8001b12:	801a      	strh	r2, [r3, #0]
	switches_bitmap_deb2=0x0000;
 8001b14:	4b1c      	ldr	r3, [pc, #112]	; (8001b88 <init_input_reayboard+0xd0>)
 8001b16:	2200      	movs	r2, #0
 8001b18:	801a      	strh	r2, [r3, #0]
	switches_bitmap_deb3=0x0000;
 8001b1a:	4b1c      	ldr	r3, [pc, #112]	; (8001b8c <init_input_reayboard+0xd4>)
 8001b1c:	2200      	movs	r2, #0
 8001b1e:	801a      	strh	r2, [r3, #0]

	if (new_data_rx==false){
 8001b20:	4b1b      	ldr	r3, [pc, #108]	; (8001b90 <init_input_reayboard+0xd8>)
 8001b22:	781b      	ldrb	r3, [r3, #0]
 8001b24:	2201      	movs	r2, #1
 8001b26:	4053      	eors	r3, r2
 8001b28:	b2db      	uxtb	r3, r3
 8001b2a:	2b00      	cmp	r3, #0
 8001b2c:	d006      	beq.n	8001b3c <init_input_reayboard+0x84>
	 interclik_time_ms=500;
 8001b2e:	4b19      	ldr	r3, [pc, #100]	; (8001b94 <init_input_reayboard+0xdc>)
 8001b30:	22fa      	movs	r2, #250	; 0xfa
 8001b32:	0052      	lsls	r2, r2, #1
 8001b34:	801a      	strh	r2, [r3, #0]
	 longpress_time_ms=DEBOUNCE_SW_REF1_ms;//default value
 8001b36:	4b18      	ldr	r3, [pc, #96]	; (8001b98 <init_input_reayboard+0xe0>)
 8001b38:	4a18      	ldr	r2, [pc, #96]	; (8001b9c <init_input_reayboard+0xe4>)
 8001b3a:	801a      	strh	r2, [r3, #0]
	}

	long_press_time=(longpress_time_ms/10);
 8001b3c:	4b16      	ldr	r3, [pc, #88]	; (8001b98 <init_input_reayboard+0xe0>)
 8001b3e:	881b      	ldrh	r3, [r3, #0]
 8001b40:	210a      	movs	r1, #10
 8001b42:	0018      	movs	r0, r3
 8001b44:	f7fe fae8 	bl	8000118 <__udivsi3>
 8001b48:	0003      	movs	r3, r0
 8001b4a:	b29b      	uxth	r3, r3
 8001b4c:	001a      	movs	r2, r3
 8001b4e:	4b14      	ldr	r3, [pc, #80]	; (8001ba0 <init_input_reayboard+0xe8>)
 8001b50:	601a      	str	r2, [r3, #0]
	click_double_press_time=(interclik_time_ms/10);
 8001b52:	4b10      	ldr	r3, [pc, #64]	; (8001b94 <init_input_reayboard+0xdc>)
 8001b54:	881b      	ldrh	r3, [r3, #0]
 8001b56:	210a      	movs	r1, #10
 8001b58:	0018      	movs	r0, r3
 8001b5a:	f7fe fadd 	bl	8000118 <__udivsi3>
 8001b5e:	0003      	movs	r3, r0
 8001b60:	b29b      	uxth	r3, r3
 8001b62:	001a      	movs	r2, r3
 8001b64:	4b0f      	ldr	r3, [pc, #60]	; (8001ba4 <init_input_reayboard+0xec>)
 8001b66:	601a      	str	r2, [r3, #0]

}
 8001b68:	46c0      	nop			; (mov r8, r8)
 8001b6a:	46bd      	mov	sp, r7
 8001b6c:	b002      	add	sp, #8
 8001b6e:	bd80      	pop	{r7, pc}
 8001b70:	2000011c 	.word	0x2000011c
 8001b74:	200001fc 	.word	0x200001fc
 8001b78:	20000218 	.word	0x20000218
 8001b7c:	20000274 	.word	0x20000274
 8001b80:	20000290 	.word	0x20000290
 8001b84:	2000028e 	.word	0x2000028e
 8001b88:	20000232 	.word	0x20000232
 8001b8c:	20000230 	.word	0x20000230
 8001b90:	200001f8 	.word	0x200001f8
 8001b94:	2000026a 	.word	0x2000026a
 8001b98:	20000134 	.word	0x20000134
 8001b9c:	000009c4 	.word	0x000009c4
 8001ba0:	20000214 	.word	0x20000214
 8001ba4:	200001ec 	.word	0x200001ec

08001ba8 <read_input_keyboard>:
 * @brief  Read and debounce function.
 * @note   This function have to be called in.
 * @param  None
 * @retval None
 */
void read_input_keyboard(void){
 8001ba8:	b590      	push	{r4, r7, lr}
 8001baa:	b085      	sub	sp, #20
 8001bac:	af00      	add	r7, sp, #0
uint16_t mask_bit,mask_bit_not;
unsigned char id_btn;
GPIO_PinState status_btn;
//unsigned char status_btn_old;
GPIO_TypeDef *sw_port;
mask_bit=0x0001;
 8001bae:	230c      	movs	r3, #12
 8001bb0:	18fb      	adds	r3, r7, r3
 8001bb2:	2201      	movs	r2, #1
 8001bb4:	801a      	strh	r2, [r3, #0]
mask_bit_not=~(mask_bit);
 8001bb6:	230a      	movs	r3, #10
 8001bb8:	18fb      	adds	r3, r7, r3
 8001bba:	220c      	movs	r2, #12
 8001bbc:	18ba      	adds	r2, r7, r2
 8001bbe:	8812      	ldrh	r2, [r2, #0]
 8001bc0:	43d2      	mvns	r2, r2
 8001bc2:	801a      	strh	r2, [r3, #0]


for(id_btn=0;id_btn < NUM_MAX_SWITCHES;id_btn++){
 8001bc4:	230f      	movs	r3, #15
 8001bc6:	18fb      	adds	r3, r7, r3
 8001bc8:	2200      	movs	r2, #0
 8001bca:	701a      	strb	r2, [r3, #0]
 8001bcc:	e1f7      	b.n	8001fbe <read_input_keyboard+0x416>
	  mask_bit=0x0001;
 8001bce:	230c      	movs	r3, #12
 8001bd0:	18fb      	adds	r3, r7, r3
 8001bd2:	2201      	movs	r2, #1
 8001bd4:	801a      	strh	r2, [r3, #0]
	  mask_bit <<=id_btn;
 8001bd6:	230c      	movs	r3, #12
 8001bd8:	18fb      	adds	r3, r7, r3
 8001bda:	881a      	ldrh	r2, [r3, #0]
 8001bdc:	230f      	movs	r3, #15
 8001bde:	18fb      	adds	r3, r7, r3
 8001be0:	781b      	ldrb	r3, [r3, #0]
 8001be2:	409a      	lsls	r2, r3
 8001be4:	230c      	movs	r3, #12
 8001be6:	18fb      	adds	r3, r7, r3
 8001be8:	801a      	strh	r2, [r3, #0]
	  mask_bit_not=~(mask_bit);
 8001bea:	230a      	movs	r3, #10
 8001bec:	18fb      	adds	r3, r7, r3
 8001bee:	220c      	movs	r2, #12
 8001bf0:	18ba      	adds	r2, r7, r2
 8001bf2:	8812      	ldrh	r2, [r2, #0]
 8001bf4:	43d2      	mvns	r2, r2
 8001bf6:	801a      	strh	r2, [r3, #0]
	 // status_btn_old =((switches_bitmap_actual & mask_bit)>>id_btn);
	  sw_port=switch_port[id_btn];
 8001bf8:	230f      	movs	r3, #15
 8001bfa:	18fb      	adds	r3, r7, r3
 8001bfc:	781a      	ldrb	r2, [r3, #0]
 8001bfe:	4bb6      	ldr	r3, [pc, #728]	; (8001ed8 <read_input_keyboard+0x330>)
 8001c00:	0092      	lsls	r2, r2, #2
 8001c02:	58d3      	ldr	r3, [r2, r3]
 8001c04:	607b      	str	r3, [r7, #4]
	  status_btn= HAL_GPIO_ReadPin(sw_port, switch_pin[id_btn]);
 8001c06:	230f      	movs	r3, #15
 8001c08:	18fb      	adds	r3, r7, r3
 8001c0a:	781a      	ldrb	r2, [r3, #0]
 8001c0c:	4bb3      	ldr	r3, [pc, #716]	; (8001edc <read_input_keyboard+0x334>)
 8001c0e:	0052      	lsls	r2, r2, #1
 8001c10:	5ad2      	ldrh	r2, [r2, r3]
 8001c12:	1cfc      	adds	r4, r7, #3
 8001c14:	687b      	ldr	r3, [r7, #4]
 8001c16:	0011      	movs	r1, r2
 8001c18:	0018      	movs	r0, r3
 8001c1a:	f004 f8e5 	bl	8005de8 <HAL_GPIO_ReadPin>
 8001c1e:	0003      	movs	r3, r0
 8001c20:	7023      	strb	r3, [r4, #0]
      if (status_btn == GPIO_PIN_RESET){// button pressed
 8001c22:	1cfb      	adds	r3, r7, #3
 8001c24:	781b      	ldrb	r3, [r3, #0]
 8001c26:	2b00      	cmp	r3, #0
 8001c28:	d165      	bne.n	8001cf6 <read_input_keyboard+0x14e>
    	  switches_bitmap_actual |=(mask_bit);
 8001c2a:	4bad      	ldr	r3, [pc, #692]	; (8001ee0 <read_input_keyboard+0x338>)
 8001c2c:	881a      	ldrh	r2, [r3, #0]
 8001c2e:	230c      	movs	r3, #12
 8001c30:	18fb      	adds	r3, r7, r3
 8001c32:	881b      	ldrh	r3, [r3, #0]
 8001c34:	4313      	orrs	r3, r2
 8001c36:	b29a      	uxth	r2, r3
 8001c38:	4ba9      	ldr	r3, [pc, #676]	; (8001ee0 <read_input_keyboard+0x338>)
 8001c3a:	801a      	strh	r2, [r3, #0]
    	 /* if (status_btn_old == 0){//first time id_btn pressed
    	  }else{ }*/
    		  sw_debounce1_counter[id_btn]++;//for distinguish long press
 8001c3c:	230f      	movs	r3, #15
 8001c3e:	18fb      	adds	r3, r7, r3
 8001c40:	781b      	ldrb	r3, [r3, #0]
 8001c42:	4aa8      	ldr	r2, [pc, #672]	; (8001ee4 <read_input_keyboard+0x33c>)
 8001c44:	0059      	lsls	r1, r3, #1
 8001c46:	5a8a      	ldrh	r2, [r1, r2]
 8001c48:	3201      	adds	r2, #1
 8001c4a:	b291      	uxth	r1, r2
 8001c4c:	4aa5      	ldr	r2, [pc, #660]	; (8001ee4 <read_input_keyboard+0x33c>)
 8001c4e:	005b      	lsls	r3, r3, #1
 8001c50:	5299      	strh	r1, [r3, r2]

    		  if (sw_debounce1_counter[id_btn] >  long_press_time ){//override debounce 1
 8001c52:	230f      	movs	r3, #15
 8001c54:	18fb      	adds	r3, r7, r3
 8001c56:	781a      	ldrb	r2, [r3, #0]
 8001c58:	4ba2      	ldr	r3, [pc, #648]	; (8001ee4 <read_input_keyboard+0x33c>)
 8001c5a:	0052      	lsls	r2, r2, #1
 8001c5c:	5ad3      	ldrh	r3, [r2, r3]
 8001c5e:	001a      	movs	r2, r3
 8001c60:	4ba1      	ldr	r3, [pc, #644]	; (8001ee8 <read_input_keyboard+0x340>)
 8001c62:	681b      	ldr	r3, [r3, #0]
 8001c64:	429a      	cmp	r2, r3
 8001c66:	d923      	bls.n	8001cb0 <read_input_keyboard+0x108>
    			  sw_debounce1_counter[id_btn]= long_press_time ;
 8001c68:	230f      	movs	r3, #15
 8001c6a:	18fb      	adds	r3, r7, r3
 8001c6c:	781a      	ldrb	r2, [r3, #0]
 8001c6e:	4b9e      	ldr	r3, [pc, #632]	; (8001ee8 <read_input_keyboard+0x340>)
 8001c70:	681b      	ldr	r3, [r3, #0]
 8001c72:	b299      	uxth	r1, r3
 8001c74:	4b9b      	ldr	r3, [pc, #620]	; (8001ee4 <read_input_keyboard+0x33c>)
 8001c76:	0052      	lsls	r2, r2, #1
 8001c78:	52d1      	strh	r1, [r2, r3]
    			  switches_bitmap_deb1 |=(mask_bit);
 8001c7a:	4b9c      	ldr	r3, [pc, #624]	; (8001eec <read_input_keyboard+0x344>)
 8001c7c:	881a      	ldrh	r2, [r3, #0]
 8001c7e:	230c      	movs	r3, #12
 8001c80:	18fb      	adds	r3, r7, r3
 8001c82:	881b      	ldrh	r3, [r3, #0]
 8001c84:	4313      	orrs	r3, r2
 8001c86:	b29a      	uxth	r2, r3
 8001c88:	4b98      	ldr	r3, [pc, #608]	; (8001eec <read_input_keyboard+0x344>)
 8001c8a:	801a      	strh	r2, [r3, #0]
    			  keyboard_long.bitmap |=(mask_bit);       //register long press
 8001c8c:	4b98      	ldr	r3, [pc, #608]	; (8001ef0 <read_input_keyboard+0x348>)
 8001c8e:	881a      	ldrh	r2, [r3, #0]
 8001c90:	230c      	movs	r3, #12
 8001c92:	18fb      	adds	r3, r7, r3
 8001c94:	881b      	ldrh	r3, [r3, #0]
 8001c96:	4313      	orrs	r3, r2
 8001c98:	b29a      	uxth	r2, r3
 8001c9a:	4b95      	ldr	r3, [pc, #596]	; (8001ef0 <read_input_keyboard+0x348>)
 8001c9c:	801a      	strh	r2, [r3, #0]
    			  keyboard_short.bitmap  &=(mask_bit_not); //unregister old short press
 8001c9e:	4b95      	ldr	r3, [pc, #596]	; (8001ef4 <read_input_keyboard+0x34c>)
 8001ca0:	881b      	ldrh	r3, [r3, #0]
 8001ca2:	220a      	movs	r2, #10
 8001ca4:	18ba      	adds	r2, r7, r2
 8001ca6:	8812      	ldrh	r2, [r2, #0]
 8001ca8:	4013      	ands	r3, r2
 8001caa:	b29a      	uxth	r2, r3
 8001cac:	4b91      	ldr	r3, [pc, #580]	; (8001ef4 <read_input_keyboard+0x34c>)
 8001cae:	801a      	strh	r2, [r3, #0]
//    		  sw_debounce3_counter[id_btn]++;
//    		  if (sw_debounce2_counter[id_btn] >  middle_press_time ){//override debounce 1
//				  sw_debounce2_counter[id_btn]= middle_press_time ;
//				  switches_bitmap_deb2 |=(mask_bit);
//			  }
    		  if ((switches_bitmap_deb2 & mask_bit)!=0){//start double click
 8001cb0:	4b91      	ldr	r3, [pc, #580]	; (8001ef8 <read_input_keyboard+0x350>)
 8001cb2:	881b      	ldrh	r3, [r3, #0]
 8001cb4:	220c      	movs	r2, #12
 8001cb6:	18ba      	adds	r2, r7, r2
 8001cb8:	8812      	ldrh	r2, [r2, #0]
 8001cba:	4013      	ands	r3, r2
 8001cbc:	b29b      	uxth	r3, r3
 8001cbe:	2b00      	cmp	r3, #0
 8001cc0:	d011      	beq.n	8001ce6 <read_input_keyboard+0x13e>
    		      switches_bitmap_deb3 |=(mask_bit);
 8001cc2:	4b8e      	ldr	r3, [pc, #568]	; (8001efc <read_input_keyboard+0x354>)
 8001cc4:	881a      	ldrh	r2, [r3, #0]
 8001cc6:	230c      	movs	r3, #12
 8001cc8:	18fb      	adds	r3, r7, r3
 8001cca:	881b      	ldrh	r3, [r3, #0]
 8001ccc:	4313      	orrs	r3, r2
 8001cce:	b29a      	uxth	r2, r3
 8001cd0:	4b8a      	ldr	r3, [pc, #552]	; (8001efc <read_input_keyboard+0x354>)
 8001cd2:	801a      	strh	r2, [r3, #0]
    		      switches_bitmap_deb2 &=(mask_bit_not);
 8001cd4:	4b88      	ldr	r3, [pc, #544]	; (8001ef8 <read_input_keyboard+0x350>)
 8001cd6:	881b      	ldrh	r3, [r3, #0]
 8001cd8:	220a      	movs	r2, #10
 8001cda:	18ba      	adds	r2, r7, r2
 8001cdc:	8812      	ldrh	r2, [r2, #0]
 8001cde:	4013      	ands	r3, r2
 8001ce0:	b29a      	uxth	r2, r3
 8001ce2:	4b85      	ldr	r3, [pc, #532]	; (8001ef8 <read_input_keyboard+0x350>)
 8001ce4:	801a      	strh	r2, [r3, #0]
    		     //  sw_debounce2_counter[id_btn]=0;//double/single click counter
    		  }


    		  sw_deb_release_cnt[id_btn]=0;
 8001ce6:	230f      	movs	r3, #15
 8001ce8:	18fb      	adds	r3, r7, r3
 8001cea:	781a      	ldrb	r2, [r3, #0]
 8001cec:	4b84      	ldr	r3, [pc, #528]	; (8001f00 <read_input_keyboard+0x358>)
 8001cee:	0052      	lsls	r2, r2, #1
 8001cf0:	2100      	movs	r1, #0
 8001cf2:	52d1      	strh	r1, [r2, r3]
 8001cf4:	e15c      	b.n	8001fb0 <read_input_keyboard+0x408>

      }else{// button id_btn released or not pressed
             /*Single or Double click*/
    	     sw_debounce2_counter[id_btn]++;
 8001cf6:	230f      	movs	r3, #15
 8001cf8:	18fb      	adds	r3, r7, r3
 8001cfa:	781b      	ldrb	r3, [r3, #0]
 8001cfc:	4a81      	ldr	r2, [pc, #516]	; (8001f04 <read_input_keyboard+0x35c>)
 8001cfe:	0059      	lsls	r1, r3, #1
 8001d00:	5a8a      	ldrh	r2, [r1, r2]
 8001d02:	3201      	adds	r2, #1
 8001d04:	b291      	uxth	r1, r2
 8001d06:	4a7f      	ldr	r2, [pc, #508]	; (8001f04 <read_input_keyboard+0x35c>)
 8001d08:	005b      	lsls	r3, r3, #1
 8001d0a:	5299      	strh	r1, [r3, r2]
    	     if ((switches_bitmap_deb3 & mask_bit)!=0){//release of 2nd click
 8001d0c:	4b7b      	ldr	r3, [pc, #492]	; (8001efc <read_input_keyboard+0x354>)
 8001d0e:	881b      	ldrh	r3, [r3, #0]
 8001d10:	220c      	movs	r2, #12
 8001d12:	18ba      	adds	r2, r7, r2
 8001d14:	8812      	ldrh	r2, [r2, #0]
 8001d16:	4013      	ands	r3, r2
 8001d18:	b29b      	uxth	r3, r3
 8001d1a:	2b00      	cmp	r3, #0
 8001d1c:	d02b      	beq.n	8001d76 <read_input_keyboard+0x1ce>
    	    	  //release of double click
						  keyboard_2click.bitmap |=(mask_bit); //register double click
 8001d1e:	4b7a      	ldr	r3, [pc, #488]	; (8001f08 <read_input_keyboard+0x360>)
 8001d20:	881a      	ldrh	r2, [r3, #0]
 8001d22:	230c      	movs	r3, #12
 8001d24:	18fb      	adds	r3, r7, r3
 8001d26:	881b      	ldrh	r3, [r3, #0]
 8001d28:	4313      	orrs	r3, r2
 8001d2a:	b29a      	uxth	r2, r3
 8001d2c:	4b76      	ldr	r3, [pc, #472]	; (8001f08 <read_input_keyboard+0x360>)
 8001d2e:	801a      	strh	r2, [r3, #0]
						  keyboard_1click.bitmap  &=(mask_bit_not); //unregister possible old single click
 8001d30:	4b76      	ldr	r3, [pc, #472]	; (8001f0c <read_input_keyboard+0x364>)
 8001d32:	881b      	ldrh	r3, [r3, #0]
 8001d34:	220a      	movs	r2, #10
 8001d36:	18ba      	adds	r2, r7, r2
 8001d38:	8812      	ldrh	r2, [r2, #0]
 8001d3a:	4013      	ands	r3, r2
 8001d3c:	b29a      	uxth	r2, r3
 8001d3e:	4b73      	ldr	r3, [pc, #460]	; (8001f0c <read_input_keyboard+0x364>)
 8001d40:	801a      	strh	r2, [r3, #0]
						  switches_bitmap_deb2 &=(mask_bit_not);
 8001d42:	4b6d      	ldr	r3, [pc, #436]	; (8001ef8 <read_input_keyboard+0x350>)
 8001d44:	881b      	ldrh	r3, [r3, #0]
 8001d46:	220a      	movs	r2, #10
 8001d48:	18ba      	adds	r2, r7, r2
 8001d4a:	8812      	ldrh	r2, [r2, #0]
 8001d4c:	4013      	ands	r3, r2
 8001d4e:	b29a      	uxth	r2, r3
 8001d50:	4b69      	ldr	r3, [pc, #420]	; (8001ef8 <read_input_keyboard+0x350>)
 8001d52:	801a      	strh	r2, [r3, #0]
						  switches_bitmap_deb3 &=(mask_bit_not);
 8001d54:	4b69      	ldr	r3, [pc, #420]	; (8001efc <read_input_keyboard+0x354>)
 8001d56:	881b      	ldrh	r3, [r3, #0]
 8001d58:	220a      	movs	r2, #10
 8001d5a:	18ba      	adds	r2, r7, r2
 8001d5c:	8812      	ldrh	r2, [r2, #0]
 8001d5e:	4013      	ands	r3, r2
 8001d60:	b29a      	uxth	r2, r3
 8001d62:	4b66      	ldr	r3, [pc, #408]	; (8001efc <read_input_keyboard+0x354>)
 8001d64:	801a      	strh	r2, [r3, #0]
						  sw_debounce2_counter[id_btn]=0;
 8001d66:	230f      	movs	r3, #15
 8001d68:	18fb      	adds	r3, r7, r3
 8001d6a:	781a      	ldrb	r2, [r3, #0]
 8001d6c:	4b65      	ldr	r3, [pc, #404]	; (8001f04 <read_input_keyboard+0x35c>)
 8001d6e:	0052      	lsls	r2, r2, #1
 8001d70:	2100      	movs	r1, #0
 8001d72:	52d1      	strh	r1, [r2, r3]
 8001d74:	e084      	b.n	8001e80 <read_input_keyboard+0x2d8>
    	      }else if ((switches_bitmap_actual & mask_bit)!=0){//release of first click
 8001d76:	4b5a      	ldr	r3, [pc, #360]	; (8001ee0 <read_input_keyboard+0x338>)
 8001d78:	881b      	ldrh	r3, [r3, #0]
 8001d7a:	220c      	movs	r2, #12
 8001d7c:	18ba      	adds	r2, r7, r2
 8001d7e:	8812      	ldrh	r2, [r2, #0]
 8001d80:	4013      	ands	r3, r2
 8001d82:	b29b      	uxth	r3, r3
 8001d84:	2b00      	cmp	r3, #0
 8001d86:	d022      	beq.n	8001dce <read_input_keyboard+0x226>
					   switches_bitmap_deb2 |=(mask_bit);//register first click
 8001d88:	4b5b      	ldr	r3, [pc, #364]	; (8001ef8 <read_input_keyboard+0x350>)
 8001d8a:	881a      	ldrh	r2, [r3, #0]
 8001d8c:	230c      	movs	r3, #12
 8001d8e:	18fb      	adds	r3, r7, r3
 8001d90:	881b      	ldrh	r3, [r3, #0]
 8001d92:	4313      	orrs	r3, r2
 8001d94:	b29a      	uxth	r2, r3
 8001d96:	4b58      	ldr	r3, [pc, #352]	; (8001ef8 <read_input_keyboard+0x350>)
 8001d98:	801a      	strh	r2, [r3, #0]
					   sw_debounce2_counter[id_btn]=0;//restart double/single click counter
 8001d9a:	230f      	movs	r3, #15
 8001d9c:	18fb      	adds	r3, r7, r3
 8001d9e:	781a      	ldrb	r2, [r3, #0]
 8001da0:	4b58      	ldr	r3, [pc, #352]	; (8001f04 <read_input_keyboard+0x35c>)
 8001da2:	0052      	lsls	r2, r2, #1
 8001da4:	2100      	movs	r1, #0
 8001da6:	52d1      	strh	r1, [r2, r3]
					   keyboard_1click.bitmap  &=(mask_bit_not);
 8001da8:	4b58      	ldr	r3, [pc, #352]	; (8001f0c <read_input_keyboard+0x364>)
 8001daa:	881b      	ldrh	r3, [r3, #0]
 8001dac:	220a      	movs	r2, #10
 8001dae:	18ba      	adds	r2, r7, r2
 8001db0:	8812      	ldrh	r2, [r2, #0]
 8001db2:	4013      	ands	r3, r2
 8001db4:	b29a      	uxth	r2, r3
 8001db6:	4b55      	ldr	r3, [pc, #340]	; (8001f0c <read_input_keyboard+0x364>)
 8001db8:	801a      	strh	r2, [r3, #0]
					   keyboard_2click.bitmap  &=(mask_bit_not);
 8001dba:	4b53      	ldr	r3, [pc, #332]	; (8001f08 <read_input_keyboard+0x360>)
 8001dbc:	881b      	ldrh	r3, [r3, #0]
 8001dbe:	220a      	movs	r2, #10
 8001dc0:	18ba      	adds	r2, r7, r2
 8001dc2:	8812      	ldrh	r2, [r2, #0]
 8001dc4:	4013      	ands	r3, r2
 8001dc6:	b29a      	uxth	r2, r3
 8001dc8:	4b4f      	ldr	r3, [pc, #316]	; (8001f08 <read_input_keyboard+0x360>)
 8001dca:	801a      	strh	r2, [r3, #0]
 8001dcc:	e058      	b.n	8001e80 <read_input_keyboard+0x2d8>
					 }else if ((switches_bitmap_deb2 & mask_bit)!=0){//check if only 1 click
 8001dce:	4b4a      	ldr	r3, [pc, #296]	; (8001ef8 <read_input_keyboard+0x350>)
 8001dd0:	881b      	ldrh	r3, [r3, #0]
 8001dd2:	220c      	movs	r2, #12
 8001dd4:	18ba      	adds	r2, r7, r2
 8001dd6:	8812      	ldrh	r2, [r2, #0]
 8001dd8:	4013      	ands	r3, r2
 8001dda:	b29b      	uxth	r3, r3
 8001ddc:	2b00      	cmp	r3, #0
 8001dde:	d036      	beq.n	8001e4e <read_input_keyboard+0x2a6>
						       if(sw_debounce2_counter[id_btn] >click_double_press_time){//first click override interclick maximum time
 8001de0:	230f      	movs	r3, #15
 8001de2:	18fb      	adds	r3, r7, r3
 8001de4:	781a      	ldrb	r2, [r3, #0]
 8001de6:	4b47      	ldr	r3, [pc, #284]	; (8001f04 <read_input_keyboard+0x35c>)
 8001de8:	0052      	lsls	r2, r2, #1
 8001dea:	5ad3      	ldrh	r3, [r2, r3]
 8001dec:	001a      	movs	r2, r3
 8001dee:	4b48      	ldr	r3, [pc, #288]	; (8001f10 <read_input_keyboard+0x368>)
 8001df0:	681b      	ldr	r3, [r3, #0]
 8001df2:	429a      	cmp	r2, r3
 8001df4:	d944      	bls.n	8001e80 <read_input_keyboard+0x2d8>
								  //single click
								   keyboard_1click.bitmap |=(mask_bit); //register single click
 8001df6:	4b45      	ldr	r3, [pc, #276]	; (8001f0c <read_input_keyboard+0x364>)
 8001df8:	881a      	ldrh	r2, [r3, #0]
 8001dfa:	230c      	movs	r3, #12
 8001dfc:	18fb      	adds	r3, r7, r3
 8001dfe:	881b      	ldrh	r3, [r3, #0]
 8001e00:	4313      	orrs	r3, r2
 8001e02:	b29a      	uxth	r2, r3
 8001e04:	4b41      	ldr	r3, [pc, #260]	; (8001f0c <read_input_keyboard+0x364>)
 8001e06:	801a      	strh	r2, [r3, #0]
								   keyboard_2click.bitmap  &=(mask_bit_not);//unregister possible old double click
 8001e08:	4b3f      	ldr	r3, [pc, #252]	; (8001f08 <read_input_keyboard+0x360>)
 8001e0a:	881b      	ldrh	r3, [r3, #0]
 8001e0c:	220a      	movs	r2, #10
 8001e0e:	18ba      	adds	r2, r7, r2
 8001e10:	8812      	ldrh	r2, [r2, #0]
 8001e12:	4013      	ands	r3, r2
 8001e14:	b29a      	uxth	r2, r3
 8001e16:	4b3c      	ldr	r3, [pc, #240]	; (8001f08 <read_input_keyboard+0x360>)
 8001e18:	801a      	strh	r2, [r3, #0]
								   switches_bitmap_deb2 &=(mask_bit_not);
 8001e1a:	4b37      	ldr	r3, [pc, #220]	; (8001ef8 <read_input_keyboard+0x350>)
 8001e1c:	881b      	ldrh	r3, [r3, #0]
 8001e1e:	220a      	movs	r2, #10
 8001e20:	18ba      	adds	r2, r7, r2
 8001e22:	8812      	ldrh	r2, [r2, #0]
 8001e24:	4013      	ands	r3, r2
 8001e26:	b29a      	uxth	r2, r3
 8001e28:	4b33      	ldr	r3, [pc, #204]	; (8001ef8 <read_input_keyboard+0x350>)
 8001e2a:	801a      	strh	r2, [r3, #0]
								   switches_bitmap_deb3 &=(mask_bit_not);
 8001e2c:	4b33      	ldr	r3, [pc, #204]	; (8001efc <read_input_keyboard+0x354>)
 8001e2e:	881b      	ldrh	r3, [r3, #0]
 8001e30:	220a      	movs	r2, #10
 8001e32:	18ba      	adds	r2, r7, r2
 8001e34:	8812      	ldrh	r2, [r2, #0]
 8001e36:	4013      	ands	r3, r2
 8001e38:	b29a      	uxth	r2, r3
 8001e3a:	4b30      	ldr	r3, [pc, #192]	; (8001efc <read_input_keyboard+0x354>)
 8001e3c:	801a      	strh	r2, [r3, #0]
								   sw_debounce2_counter[id_btn]=0;
 8001e3e:	230f      	movs	r3, #15
 8001e40:	18fb      	adds	r3, r7, r3
 8001e42:	781a      	ldrb	r2, [r3, #0]
 8001e44:	4b2f      	ldr	r3, [pc, #188]	; (8001f04 <read_input_keyboard+0x35c>)
 8001e46:	0052      	lsls	r2, r2, #1
 8001e48:	2100      	movs	r1, #0
 8001e4a:	52d1      	strh	r1, [r2, r3]
 8001e4c:	e018      	b.n	8001e80 <read_input_keyboard+0x2d8>
						       }
					       }else{
						   //switches_bitmap_deb2 &=(mask_bit_not);
						   sw_debounce2_counter[id_btn]=0;     //
 8001e4e:	230f      	movs	r3, #15
 8001e50:	18fb      	adds	r3, r7, r3
 8001e52:	781a      	ldrb	r2, [r3, #0]
 8001e54:	4b2b      	ldr	r3, [pc, #172]	; (8001f04 <read_input_keyboard+0x35c>)
 8001e56:	0052      	lsls	r2, r2, #1
 8001e58:	2100      	movs	r1, #0
 8001e5a:	52d1      	strh	r1, [r2, r3]
						   keyboard_1click.bitmap  &=(mask_bit_not);
 8001e5c:	4b2b      	ldr	r3, [pc, #172]	; (8001f0c <read_input_keyboard+0x364>)
 8001e5e:	881b      	ldrh	r3, [r3, #0]
 8001e60:	220a      	movs	r2, #10
 8001e62:	18ba      	adds	r2, r7, r2
 8001e64:	8812      	ldrh	r2, [r2, #0]
 8001e66:	4013      	ands	r3, r2
 8001e68:	b29a      	uxth	r2, r3
 8001e6a:	4b28      	ldr	r3, [pc, #160]	; (8001f0c <read_input_keyboard+0x364>)
 8001e6c:	801a      	strh	r2, [r3, #0]
						   keyboard_2click.bitmap  &=(mask_bit_not);
 8001e6e:	4b26      	ldr	r3, [pc, #152]	; (8001f08 <read_input_keyboard+0x360>)
 8001e70:	881b      	ldrh	r3, [r3, #0]
 8001e72:	220a      	movs	r2, #10
 8001e74:	18ba      	adds	r2, r7, r2
 8001e76:	8812      	ldrh	r2, [r2, #0]
 8001e78:	4013      	ands	r3, r2
 8001e7a:	b29a      	uxth	r2, r3
 8001e7c:	4b22      	ldr	r3, [pc, #136]	; (8001f08 <read_input_keyboard+0x360>)
 8001e7e:	801a      	strh	r2, [r3, #0]
						  }

		     /*Short or long press*/
		     sw_debounce1_counter[id_btn]=0;//long/short press counter
 8001e80:	230f      	movs	r3, #15
 8001e82:	18fb      	adds	r3, r7, r3
 8001e84:	781a      	ldrb	r2, [r3, #0]
 8001e86:	4b17      	ldr	r3, [pc, #92]	; (8001ee4 <read_input_keyboard+0x33c>)
 8001e88:	0052      	lsls	r2, r2, #1
 8001e8a:	2100      	movs	r1, #0
 8001e8c:	52d1      	strh	r1, [r2, r3]
			 if ((switches_bitmap_deb1 & mask_bit)!=0){//long press time elapsed
 8001e8e:	4b17      	ldr	r3, [pc, #92]	; (8001eec <read_input_keyboard+0x344>)
 8001e90:	881b      	ldrh	r3, [r3, #0]
 8001e92:	220c      	movs	r2, #12
 8001e94:	18ba      	adds	r2, r7, r2
 8001e96:	8812      	ldrh	r2, [r2, #0]
 8001e98:	4013      	ands	r3, r2
 8001e9a:	b29b      	uxth	r3, r3
 8001e9c:	2b00      	cmp	r3, #0
 8001e9e:	d14b      	bne.n	8001f38 <read_input_keyboard+0x390>
				  //keyboard_long.bitmap |=(mask_bit);
				  //keyboard_short.bitmap  &=(mask_bit_not); //unregister old short press
			 }else if ((switches_bitmap_actual & mask_bit)!=0){//short press time elapsed
 8001ea0:	4b0f      	ldr	r3, [pc, #60]	; (8001ee0 <read_input_keyboard+0x338>)
 8001ea2:	881b      	ldrh	r3, [r3, #0]
 8001ea4:	220c      	movs	r2, #12
 8001ea6:	18ba      	adds	r2, r7, r2
 8001ea8:	8812      	ldrh	r2, [r2, #0]
 8001eaa:	4013      	ands	r3, r2
 8001eac:	b29b      	uxth	r3, r3
 8001eae:	2b00      	cmp	r3, #0
 8001eb0:	d030      	beq.n	8001f14 <read_input_keyboard+0x36c>
				       keyboard_short.bitmap |=(mask_bit);
 8001eb2:	4b10      	ldr	r3, [pc, #64]	; (8001ef4 <read_input_keyboard+0x34c>)
 8001eb4:	881a      	ldrh	r2, [r3, #0]
 8001eb6:	230c      	movs	r3, #12
 8001eb8:	18fb      	adds	r3, r7, r3
 8001eba:	881b      	ldrh	r3, [r3, #0]
 8001ebc:	4313      	orrs	r3, r2
 8001ebe:	b29a      	uxth	r2, r3
 8001ec0:	4b0c      	ldr	r3, [pc, #48]	; (8001ef4 <read_input_keyboard+0x34c>)
 8001ec2:	801a      	strh	r2, [r3, #0]
				       keyboard_long.bitmap  &=(mask_bit_not); //unregister old long press
 8001ec4:	4b0a      	ldr	r3, [pc, #40]	; (8001ef0 <read_input_keyboard+0x348>)
 8001ec6:	881b      	ldrh	r3, [r3, #0]
 8001ec8:	220a      	movs	r2, #10
 8001eca:	18ba      	adds	r2, r7, r2
 8001ecc:	8812      	ldrh	r2, [r2, #0]
 8001ece:	4013      	ands	r3, r2
 8001ed0:	b29a      	uxth	r2, r3
 8001ed2:	4b07      	ldr	r3, [pc, #28]	; (8001ef0 <read_input_keyboard+0x348>)
 8001ed4:	801a      	strh	r2, [r3, #0]
 8001ed6:	e02f      	b.n	8001f38 <read_input_keyboard+0x390>
 8001ed8:	20000000 	.word	0x20000000
 8001edc:	20000030 	.word	0x20000030
 8001ee0:	20000290 	.word	0x20000290
 8001ee4:	2000011c 	.word	0x2000011c
 8001ee8:	20000214 	.word	0x20000214
 8001eec:	2000028e 	.word	0x2000028e
 8001ef0:	200002a0 	.word	0x200002a0
 8001ef4:	2000017c 	.word	0x2000017c
 8001ef8:	20000232 	.word	0x20000232
 8001efc:	20000230 	.word	0x20000230
 8001f00:	20000274 	.word	0x20000274
 8001f04:	200001fc 	.word	0x200001fc
 8001f08:	2000026c 	.word	0x2000026c
 8001f0c:	200001e8 	.word	0x200001e8
 8001f10:	200001ec 	.word	0x200001ec
			       }else{
			    	     keyboard_short.bitmap  &=(mask_bit_not); //unregister old short press
 8001f14:	4b31      	ldr	r3, [pc, #196]	; (8001fdc <read_input_keyboard+0x434>)
 8001f16:	881b      	ldrh	r3, [r3, #0]
 8001f18:	220a      	movs	r2, #10
 8001f1a:	18ba      	adds	r2, r7, r2
 8001f1c:	8812      	ldrh	r2, [r2, #0]
 8001f1e:	4013      	ands	r3, r2
 8001f20:	b29a      	uxth	r2, r3
 8001f22:	4b2e      	ldr	r3, [pc, #184]	; (8001fdc <read_input_keyboard+0x434>)
 8001f24:	801a      	strh	r2, [r3, #0]
			    	     keyboard_long.bitmap  &=(mask_bit_not); //unregister old long press
 8001f26:	4b2e      	ldr	r3, [pc, #184]	; (8001fe0 <read_input_keyboard+0x438>)
 8001f28:	881b      	ldrh	r3, [r3, #0]
 8001f2a:	220a      	movs	r2, #10
 8001f2c:	18ba      	adds	r2, r7, r2
 8001f2e:	8812      	ldrh	r2, [r2, #0]
 8001f30:	4013      	ands	r3, r2
 8001f32:	b29a      	uxth	r2, r3
 8001f34:	4b2a      	ldr	r3, [pc, #168]	; (8001fe0 <read_input_keyboard+0x438>)
 8001f36:	801a      	strh	r2, [r3, #0]
                        }
		     switches_bitmap_deb1  &=(mask_bit_not);
 8001f38:	4b2a      	ldr	r3, [pc, #168]	; (8001fe4 <read_input_keyboard+0x43c>)
 8001f3a:	881b      	ldrh	r3, [r3, #0]
 8001f3c:	220a      	movs	r2, #10
 8001f3e:	18ba      	adds	r2, r7, r2
 8001f40:	8812      	ldrh	r2, [r2, #0]
 8001f42:	4013      	ands	r3, r2
 8001f44:	b29a      	uxth	r2, r3
 8001f46:	4b27      	ldr	r3, [pc, #156]	; (8001fe4 <read_input_keyboard+0x43c>)
 8001f48:	801a      	strh	r2, [r3, #0]

		     /*Bitmap raw data follow physical signal at switch pin*/
    	     switches_bitmap_actual &=(mask_bit_not);//release bit of id_btn in bitmap
 8001f4a:	4b27      	ldr	r3, [pc, #156]	; (8001fe8 <read_input_keyboard+0x440>)
 8001f4c:	881b      	ldrh	r3, [r3, #0]
 8001f4e:	220a      	movs	r2, #10
 8001f50:	18ba      	adds	r2, r7, r2
 8001f52:	8812      	ldrh	r2, [r2, #0]
 8001f54:	4013      	ands	r3, r2
 8001f56:	b29a      	uxth	r2, r3
 8001f58:	4b23      	ldr	r3, [pc, #140]	; (8001fe8 <read_input_keyboard+0x440>)
 8001f5a:	801a      	strh	r2, [r3, #0]

    	     /*Debounce also for release*/
    	    sw_deb_release_cnt[id_btn]++;
 8001f5c:	230f      	movs	r3, #15
 8001f5e:	18fb      	adds	r3, r7, r3
 8001f60:	781b      	ldrb	r3, [r3, #0]
 8001f62:	4a22      	ldr	r2, [pc, #136]	; (8001fec <read_input_keyboard+0x444>)
 8001f64:	0059      	lsls	r1, r3, #1
 8001f66:	5a8a      	ldrh	r2, [r1, r2]
 8001f68:	3201      	adds	r2, #1
 8001f6a:	b291      	uxth	r1, r2
 8001f6c:	4a1f      	ldr	r2, [pc, #124]	; (8001fec <read_input_keyboard+0x444>)
 8001f6e:	005b      	lsls	r3, r3, #1
 8001f70:	5299      	strh	r1, [r3, r2]
		    if(sw_deb_release_cnt[id_btn]==(DEBOUNCE_SW_RELEASE_ms)){//override debounce of released status,button return to idle 0 state
 8001f72:	230f      	movs	r3, #15
 8001f74:	18fb      	adds	r3, r7, r3
 8001f76:	781a      	ldrb	r2, [r3, #0]
 8001f78:	4b1c      	ldr	r3, [pc, #112]	; (8001fec <read_input_keyboard+0x444>)
 8001f7a:	0052      	lsls	r2, r2, #1
 8001f7c:	5ad3      	ldrh	r3, [r2, r3]
 8001f7e:	2b05      	cmp	r3, #5
 8001f80:	d107      	bne.n	8001f92 <read_input_keyboard+0x3ea>
				  sw_deb_release_cnt[id_btn]=(DEBOUNCE_SW_RELEASE_ms);
 8001f82:	230f      	movs	r3, #15
 8001f84:	18fb      	adds	r3, r7, r3
 8001f86:	781a      	ldrb	r2, [r3, #0]
 8001f88:	4b18      	ldr	r3, [pc, #96]	; (8001fec <read_input_keyboard+0x444>)
 8001f8a:	0052      	lsls	r2, r2, #1
 8001f8c:	2105      	movs	r1, #5
 8001f8e:	52d1      	strh	r1, [r2, r3]
 8001f90:	e00e      	b.n	8001fb0 <read_input_keyboard+0x408>
			  }else if(sw_deb_release_cnt[id_btn]>(DEBOUNCE_SW_RELEASE_ms)){
 8001f92:	230f      	movs	r3, #15
 8001f94:	18fb      	adds	r3, r7, r3
 8001f96:	781a      	ldrb	r2, [r3, #0]
 8001f98:	4b14      	ldr	r3, [pc, #80]	; (8001fec <read_input_keyboard+0x444>)
 8001f9a:	0052      	lsls	r2, r2, #1
 8001f9c:	5ad3      	ldrh	r3, [r2, r3]
 8001f9e:	2b05      	cmp	r3, #5
 8001fa0:	d906      	bls.n	8001fb0 <read_input_keyboard+0x408>
				  sw_deb_release_cnt[id_btn]=(DEBOUNCE_SW_RELEASE_ms);
 8001fa2:	230f      	movs	r3, #15
 8001fa4:	18fb      	adds	r3, r7, r3
 8001fa6:	781a      	ldrb	r2, [r3, #0]
 8001fa8:	4b10      	ldr	r3, [pc, #64]	; (8001fec <read_input_keyboard+0x444>)
 8001faa:	0052      	lsls	r2, r2, #1
 8001fac:	2105      	movs	r1, #5
 8001fae:	52d1      	strh	r1, [r2, r3]
for(id_btn=0;id_btn < NUM_MAX_SWITCHES;id_btn++){
 8001fb0:	230f      	movs	r3, #15
 8001fb2:	18fb      	adds	r3, r7, r3
 8001fb4:	781a      	ldrb	r2, [r3, #0]
 8001fb6:	230f      	movs	r3, #15
 8001fb8:	18fb      	adds	r3, r7, r3
 8001fba:	3201      	adds	r2, #1
 8001fbc:	701a      	strb	r2, [r3, #0]
 8001fbe:	230f      	movs	r3, #15
 8001fc0:	18fb      	adds	r3, r7, r3
 8001fc2:	781b      	ldrb	r3, [r3, #0]
 8001fc4:	2b0b      	cmp	r3, #11
 8001fc6:	d800      	bhi.n	8001fca <read_input_keyboard+0x422>
 8001fc8:	e601      	b.n	8001bce <read_input_keyboard+0x26>
			}//end Debounce_release
      }//end release
 }//end_for

keyboard_raw.bitmap= switches_bitmap_actual ;
 8001fca:	4b07      	ldr	r3, [pc, #28]	; (8001fe8 <read_input_keyboard+0x440>)
 8001fcc:	881a      	ldrh	r2, [r3, #0]
 8001fce:	4b08      	ldr	r3, [pc, #32]	; (8001ff0 <read_input_keyboard+0x448>)
 8001fd0:	801a      	strh	r2, [r3, #0]

}
 8001fd2:	46c0      	nop			; (mov r8, r8)
 8001fd4:	46bd      	mov	sp, r7
 8001fd6:	b005      	add	sp, #20
 8001fd8:	bd90      	pop	{r4, r7, pc}
 8001fda:	46c0      	nop			; (mov r8, r8)
 8001fdc:	2000017c 	.word	0x2000017c
 8001fe0:	200002a0 	.word	0x200002a0
 8001fe4:	2000028e 	.word	0x2000028e
 8001fe8:	20000290 	.word	0x20000290
 8001fec:	20000274 	.word	0x20000274
 8001ff0:	20000294 	.word	0x20000294

08001ff4 <scan_read_Visel>:
//		}
return (ret);

}

void scan_read_Visel(void){
 8001ff4:	b580      	push	{r7, lr}
 8001ff6:	b082      	sub	sp, #8
 8001ff8:	af00      	add	r7, sp, #0
	uint8_t id_btn,id_sfr,pos,press;
	uint8_t mask_bit;
	//uint8_t mask_bit_not;
	SFEKeyboard_receive();
 8001ffa:	f001 fa43 	bl	8003484 <SFEKeyboard_receive>
	mask_bit=0x01;
 8001ffe:	1dbb      	adds	r3, r7, #6
 8002000:	2201      	movs	r2, #1
 8002002:	701a      	strb	r2, [r3, #0]
	//mask_bit_not=~(mask_bit);
	for(id_btn=0;id_btn < (NUM_MAX_SWITCHES*8);id_btn++){
 8002004:	1dfb      	adds	r3, r7, #7
 8002006:	2200      	movs	r2, #0
 8002008:	701a      	strb	r2, [r3, #0]
 800200a:	e045      	b.n	8002098 <scan_read_Visel+0xa4>
		id_sfr=(id_btn/8);
 800200c:	1d7b      	adds	r3, r7, #5
 800200e:	1dfa      	adds	r2, r7, #7
 8002010:	7812      	ldrb	r2, [r2, #0]
 8002012:	08d2      	lsrs	r2, r2, #3
 8002014:	701a      	strb	r2, [r3, #0]
		pos=(id_btn%8);
 8002016:	1d3b      	adds	r3, r7, #4
 8002018:	1dfa      	adds	r2, r7, #7
 800201a:	7812      	ldrb	r2, [r2, #0]
 800201c:	2107      	movs	r1, #7
 800201e:	400a      	ands	r2, r1
 8002020:	701a      	strb	r2, [r3, #0]
		mask_bit=(0x01<<pos);
 8002022:	1d3b      	adds	r3, r7, #4
 8002024:	781b      	ldrb	r3, [r3, #0]
 8002026:	2201      	movs	r2, #1
 8002028:	409a      	lsls	r2, r3
 800202a:	1dbb      	adds	r3, r7, #6
 800202c:	701a      	strb	r2, [r3, #0]
	    //mask_bit_not=~(mask_bit);
		press=(keys_visel[id_sfr].raw & mask_bit);
 800202e:	1d7b      	adds	r3, r7, #5
 8002030:	781b      	ldrb	r3, [r3, #0]
 8002032:	4a1d      	ldr	r2, [pc, #116]	; (80020a8 <scan_read_Visel+0xb4>)
 8002034:	5cd2      	ldrb	r2, [r2, r3]
 8002036:	1cfb      	adds	r3, r7, #3
 8002038:	1db9      	adds	r1, r7, #6
 800203a:	7809      	ldrb	r1, [r1, #0]
 800203c:	400a      	ands	r2, r1
 800203e:	701a      	strb	r2, [r3, #0]
        if(press!=0){
 8002040:	1cfb      	adds	r3, r7, #3
 8002042:	781b      	ldrb	r3, [r3, #0]
 8002044:	2b00      	cmp	r3, #0
 8002046:	d015      	beq.n	8002074 <scan_read_Visel+0x80>
        	if(test_visel.btn[id_btn]==false){
 8002048:	1dfb      	adds	r3, r7, #7
 800204a:	781b      	ldrb	r3, [r3, #0]
 800204c:	4a17      	ldr	r2, [pc, #92]	; (80020ac <scan_read_Visel+0xb8>)
 800204e:	18d3      	adds	r3, r2, r3
 8002050:	785b      	ldrb	r3, [r3, #1]
 8002052:	2201      	movs	r2, #1
 8002054:	4053      	eors	r3, r2
 8002056:	b2db      	uxtb	r3, r3
 8002058:	2b00      	cmp	r3, #0
 800205a:	d00b      	beq.n	8002074 <scan_read_Visel+0x80>
				test_visel.btn[id_btn]=true;
 800205c:	1dfb      	adds	r3, r7, #7
 800205e:	781b      	ldrb	r3, [r3, #0]
 8002060:	4a12      	ldr	r2, [pc, #72]	; (80020ac <scan_read_Visel+0xb8>)
 8002062:	18d3      	adds	r3, r2, r3
 8002064:	2201      	movs	r2, #1
 8002066:	705a      	strb	r2, [r3, #1]
				test_visel.tot_press++;
 8002068:	4b10      	ldr	r3, [pc, #64]	; (80020ac <scan_read_Visel+0xb8>)
 800206a:	781b      	ldrb	r3, [r3, #0]
 800206c:	3301      	adds	r3, #1
 800206e:	b2da      	uxtb	r2, r3
 8002070:	4b0e      	ldr	r3, [pc, #56]	; (80020ac <scan_read_Visel+0xb8>)
 8002072:	701a      	strb	r2, [r3, #0]
				//SFEbarGraph_paint(id_btn,true);
        	}
        }
        if(test_visel.btn[id_btn]==true){
 8002074:	1dfb      	adds	r3, r7, #7
 8002076:	781b      	ldrb	r3, [r3, #0]
 8002078:	4a0c      	ldr	r2, [pc, #48]	; (80020ac <scan_read_Visel+0xb8>)
 800207a:	18d3      	adds	r3, r2, r3
 800207c:	785b      	ldrb	r3, [r3, #1]
 800207e:	2b00      	cmp	r3, #0
 8002080:	d005      	beq.n	800208e <scan_read_Visel+0x9a>
			SFEbarGraph_paint(id_btn,true);
 8002082:	1dfb      	adds	r3, r7, #7
 8002084:	781b      	ldrb	r3, [r3, #0]
 8002086:	2101      	movs	r1, #1
 8002088:	0018      	movs	r0, r3
 800208a:	f001 f951 	bl	8003330 <SFEbarGraph_paint>
	for(id_btn=0;id_btn < (NUM_MAX_SWITCHES*8);id_btn++){
 800208e:	1dfb      	adds	r3, r7, #7
 8002090:	781a      	ldrb	r2, [r3, #0]
 8002092:	1dfb      	adds	r3, r7, #7
 8002094:	3201      	adds	r2, #1
 8002096:	701a      	strb	r2, [r3, #0]
 8002098:	1dfb      	adds	r3, r7, #7
 800209a:	781b      	ldrb	r3, [r3, #0]
 800209c:	2b5f      	cmp	r3, #95	; 0x5f
 800209e:	d9b5      	bls.n	800200c <scan_read_Visel+0x18>
		}
	}
}
 80020a0:	46c0      	nop			; (mov r8, r8)
 80020a2:	46bd      	mov	sp, r7
 80020a4:	b002      	add	sp, #8
 80020a6:	bd80      	pop	{r7, pc}
 80020a8:	20000174 	.word	0x20000174
 80020ac:	20000148 	.word	0x20000148

080020b0 <scan_if_pressed_Visel>:

void scan_if_pressed_Visel(void){
 80020b0:	b580      	push	{r7, lr}
 80020b2:	b082      	sub	sp, #8
 80020b4:	af00      	add	r7, sp, #0
	uint8_t id_btn,id_sfr,pos,press;
	uint8_t mask_bit;
	//uint8_t mask_bit_not;
	SFEKeyboard_receive();
 80020b6:	f001 f9e5 	bl	8003484 <SFEKeyboard_receive>
	mask_bit=0x01;
 80020ba:	1dbb      	adds	r3, r7, #6
 80020bc:	2201      	movs	r2, #1
 80020be:	701a      	strb	r2, [r3, #0]
	//mask_bit_not=~(mask_bit);
	for(id_btn=0;id_btn < (NUM_MAX_SWITCHES*8);id_btn++){
 80020c0:	1dfb      	adds	r3, r7, #7
 80020c2:	2200      	movs	r2, #0
 80020c4:	701a      	strb	r2, [r3, #0]
 80020c6:	e043      	b.n	8002150 <scan_if_pressed_Visel+0xa0>
		id_sfr=(id_btn/8);
 80020c8:	1d7b      	adds	r3, r7, #5
 80020ca:	1dfa      	adds	r2, r7, #7
 80020cc:	7812      	ldrb	r2, [r2, #0]
 80020ce:	08d2      	lsrs	r2, r2, #3
 80020d0:	701a      	strb	r2, [r3, #0]
		pos=(id_btn%8);
 80020d2:	1d3b      	adds	r3, r7, #4
 80020d4:	1dfa      	adds	r2, r7, #7
 80020d6:	7812      	ldrb	r2, [r2, #0]
 80020d8:	2107      	movs	r1, #7
 80020da:	400a      	ands	r2, r1
 80020dc:	701a      	strb	r2, [r3, #0]
		mask_bit=(0x01<<pos);
 80020de:	1d3b      	adds	r3, r7, #4
 80020e0:	781b      	ldrb	r3, [r3, #0]
 80020e2:	2201      	movs	r2, #1
 80020e4:	409a      	lsls	r2, r3
 80020e6:	1dbb      	adds	r3, r7, #6
 80020e8:	701a      	strb	r2, [r3, #0]
	    //mask_bit_not=~(mask_bit);
		press=(keys_visel[id_sfr].raw & mask_bit);
 80020ea:	1d7b      	adds	r3, r7, #5
 80020ec:	781b      	ldrb	r3, [r3, #0]
 80020ee:	4a1c      	ldr	r2, [pc, #112]	; (8002160 <scan_if_pressed_Visel+0xb0>)
 80020f0:	5cd2      	ldrb	r2, [r2, r3]
 80020f2:	1cfb      	adds	r3, r7, #3
 80020f4:	1db9      	adds	r1, r7, #6
 80020f6:	7809      	ldrb	r1, [r1, #0]
 80020f8:	400a      	ands	r2, r1
 80020fa:	701a      	strb	r2, [r3, #0]
        if(press!=0){
 80020fc:	1cfb      	adds	r3, r7, #3
 80020fe:	781b      	ldrb	r3, [r3, #0]
 8002100:	2b00      	cmp	r3, #0
 8002102:	d006      	beq.n	8002112 <scan_if_pressed_Visel+0x62>
		    test_visel.btn[id_btn]=true;
 8002104:	1dfb      	adds	r3, r7, #7
 8002106:	781b      	ldrb	r3, [r3, #0]
 8002108:	4a16      	ldr	r2, [pc, #88]	; (8002164 <scan_if_pressed_Visel+0xb4>)
 800210a:	18d3      	adds	r3, r2, r3
 800210c:	2201      	movs	r2, #1
 800210e:	705a      	strb	r2, [r3, #1]
 8002110:	e005      	b.n	800211e <scan_if_pressed_Visel+0x6e>
				//test_visel.tot_press++;
        }else{
        	test_visel.btn[id_btn]=false;
 8002112:	1dfb      	adds	r3, r7, #7
 8002114:	781b      	ldrb	r3, [r3, #0]
 8002116:	4a13      	ldr	r2, [pc, #76]	; (8002164 <scan_if_pressed_Visel+0xb4>)
 8002118:	18d3      	adds	r3, r2, r3
 800211a:	2200      	movs	r2, #0
 800211c:	705a      	strb	r2, [r3, #1]
        }
        if(test_visel.btn[id_btn]==true){
 800211e:	1dfb      	adds	r3, r7, #7
 8002120:	781b      	ldrb	r3, [r3, #0]
 8002122:	4a10      	ldr	r2, [pc, #64]	; (8002164 <scan_if_pressed_Visel+0xb4>)
 8002124:	18d3      	adds	r3, r2, r3
 8002126:	785b      	ldrb	r3, [r3, #1]
 8002128:	2b00      	cmp	r3, #0
 800212a:	d006      	beq.n	800213a <scan_if_pressed_Visel+0x8a>
			SFEbarGraph_paint(id_btn,true);
 800212c:	1dfb      	adds	r3, r7, #7
 800212e:	781b      	ldrb	r3, [r3, #0]
 8002130:	2101      	movs	r1, #1
 8002132:	0018      	movs	r0, r3
 8002134:	f001 f8fc 	bl	8003330 <SFEbarGraph_paint>
 8002138:	e005      	b.n	8002146 <scan_if_pressed_Visel+0x96>
		}else{
			SFEbarGraph_paint(id_btn,false);
 800213a:	1dfb      	adds	r3, r7, #7
 800213c:	781b      	ldrb	r3, [r3, #0]
 800213e:	2100      	movs	r1, #0
 8002140:	0018      	movs	r0, r3
 8002142:	f001 f8f5 	bl	8003330 <SFEbarGraph_paint>
	for(id_btn=0;id_btn < (NUM_MAX_SWITCHES*8);id_btn++){
 8002146:	1dfb      	adds	r3, r7, #7
 8002148:	781a      	ldrb	r2, [r3, #0]
 800214a:	1dfb      	adds	r3, r7, #7
 800214c:	3201      	adds	r2, #1
 800214e:	701a      	strb	r2, [r3, #0]
 8002150:	1dfb      	adds	r3, r7, #7
 8002152:	781b      	ldrb	r3, [r3, #0]
 8002154:	2b5f      	cmp	r3, #95	; 0x5f
 8002156:	d9b7      	bls.n	80020c8 <scan_if_pressed_Visel+0x18>
		}
	}
}
 8002158:	46c0      	nop			; (mov r8, r8)
 800215a:	46bd      	mov	sp, r7
 800215c:	b002      	add	sp, #8
 800215e:	bd80      	pop	{r7, pc}
 8002160:	20000174 	.word	0x20000174
 8002164:	20000148 	.word	0x20000148

08002168 <clear_test_Visel>:

void clear_test_Visel(void){
 8002168:	b580      	push	{r7, lr}
 800216a:	b082      	sub	sp, #8
 800216c:	af00      	add	r7, sp, #0
	uint8_t id_btn;

	for(id_btn=0;id_btn < (NUM_MAX_SWITCHES*8);id_btn++){
 800216e:	1dfb      	adds	r3, r7, #7
 8002170:	2200      	movs	r2, #0
 8002172:	701a      	strb	r2, [r3, #0]
 8002174:	e015      	b.n	80021a2 <clear_test_Visel+0x3a>
		test_visel.btn[id_btn]=false;
 8002176:	1dfb      	adds	r3, r7, #7
 8002178:	781b      	ldrb	r3, [r3, #0]
 800217a:	4a0e      	ldr	r2, [pc, #56]	; (80021b4 <clear_test_Visel+0x4c>)
 800217c:	18d3      	adds	r3, r2, r3
 800217e:	2200      	movs	r2, #0
 8002180:	705a      	strb	r2, [r3, #1]
		SFEbarGraph_paint(id_btn,test_visel.btn[id_btn]);
 8002182:	1dfb      	adds	r3, r7, #7
 8002184:	781b      	ldrb	r3, [r3, #0]
 8002186:	4a0b      	ldr	r2, [pc, #44]	; (80021b4 <clear_test_Visel+0x4c>)
 8002188:	18d3      	adds	r3, r2, r3
 800218a:	785a      	ldrb	r2, [r3, #1]
 800218c:	1dfb      	adds	r3, r7, #7
 800218e:	781b      	ldrb	r3, [r3, #0]
 8002190:	0011      	movs	r1, r2
 8002192:	0018      	movs	r0, r3
 8002194:	f001 f8cc 	bl	8003330 <SFEbarGraph_paint>
	for(id_btn=0;id_btn < (NUM_MAX_SWITCHES*8);id_btn++){
 8002198:	1dfb      	adds	r3, r7, #7
 800219a:	781a      	ldrb	r2, [r3, #0]
 800219c:	1dfb      	adds	r3, r7, #7
 800219e:	3201      	adds	r2, #1
 80021a0:	701a      	strb	r2, [r3, #0]
 80021a2:	1dfb      	adds	r3, r7, #7
 80021a4:	781b      	ldrb	r3, [r3, #0]
 80021a6:	2b5f      	cmp	r3, #95	; 0x5f
 80021a8:	d9e5      	bls.n	8002176 <clear_test_Visel+0xe>

	}
}
 80021aa:	46c0      	nop			; (mov r8, r8)
 80021ac:	46bd      	mov	sp, r7
 80021ae:	b002      	add	sp, #8
 80021b0:	bd80      	pop	{r7, pc}
 80021b2:	46c0      	nop			; (mov r8, r8)
 80021b4:	20000148 	.word	0x20000148

080021b8 <MX_IWDG_Init>:

IWDG_HandleTypeDef hiwdg;

/* IWDG init function */
void MX_IWDG_Init(void)
{
 80021b8:	b580      	push	{r7, lr}
 80021ba:	af00      	add	r7, sp, #0

  hiwdg.Instance = IWDG;
 80021bc:	4b0b      	ldr	r3, [pc, #44]	; (80021ec <MX_IWDG_Init+0x34>)
 80021be:	4a0c      	ldr	r2, [pc, #48]	; (80021f0 <MX_IWDG_Init+0x38>)
 80021c0:	601a      	str	r2, [r3, #0]
  hiwdg.Init.Prescaler = IWDG_PRESCALER_256;
 80021c2:	4b0a      	ldr	r3, [pc, #40]	; (80021ec <MX_IWDG_Init+0x34>)
 80021c4:	2206      	movs	r2, #6
 80021c6:	605a      	str	r2, [r3, #4]
  hiwdg.Init.Window = 4095;
 80021c8:	4b08      	ldr	r3, [pc, #32]	; (80021ec <MX_IWDG_Init+0x34>)
 80021ca:	4a0a      	ldr	r2, [pc, #40]	; (80021f4 <MX_IWDG_Init+0x3c>)
 80021cc:	60da      	str	r2, [r3, #12]
  hiwdg.Init.Reload = 4095;
 80021ce:	4b07      	ldr	r3, [pc, #28]	; (80021ec <MX_IWDG_Init+0x34>)
 80021d0:	4a08      	ldr	r2, [pc, #32]	; (80021f4 <MX_IWDG_Init+0x3c>)
 80021d2:	609a      	str	r2, [r3, #8]
  if (HAL_IWDG_Init(&hiwdg) != HAL_OK)
 80021d4:	4b05      	ldr	r3, [pc, #20]	; (80021ec <MX_IWDG_Init+0x34>)
 80021d6:	0018      	movs	r0, r3
 80021d8:	f005 f896 	bl	8007308 <HAL_IWDG_Init>
 80021dc:	1e03      	subs	r3, r0, #0
 80021de:	d001      	beq.n	80021e4 <MX_IWDG_Init+0x2c>
  {
    Error_Handler();
 80021e0:	f000 ffce 	bl	8003180 <Error_Handler>
  }

}
 80021e4:	46c0      	nop			; (mov r8, r8)
 80021e6:	46bd      	mov	sp, r7
 80021e8:	bd80      	pop	{r7, pc}
 80021ea:	46c0      	nop			; (mov r8, r8)
 80021ec:	2000039c 	.word	0x2000039c
 80021f0:	40003000 	.word	0x40003000
 80021f4:	00000fff 	.word	0x00000fff

080021f8 <PCA9685_setPWM>:
 *   Arguments
 *   channel: The channel that should be updated with the new values (0..15)
 *   on: The tick (between 0..4095) when the signal should transition from low to high
 *   off:the tick (between 0..4095) when the signal should transition from high to low
 */
void PCA9685_setPWM(uint8_t num, uint16_t on, uint16_t off) {
 80021f8:	b5f0      	push	{r4, r5, r6, r7, lr}
 80021fa:	b08f      	sub	sp, #60	; 0x3c
 80021fc:	af02      	add	r7, sp, #8
 80021fe:	6078      	str	r0, [r7, #4]
 8002200:	6039      	str	r1, [r7, #0]
 8002202:	0010      	movs	r0, r2
 8002204:	221f      	movs	r2, #31
 8002206:	18ba      	adds	r2, r7, r2
 8002208:	7939      	ldrb	r1, [r7, #4]
 800220a:	7011      	strb	r1, [r2, #0]
 800220c:	221c      	movs	r2, #28
 800220e:	18ba      	adds	r2, r7, r2
 8002210:	8839      	ldrh	r1, [r7, #0]
 8002212:	8011      	strh	r1, [r2, #0]
 8002214:	221a      	movs	r2, #26
 8002216:	18ba      	adds	r2, r7, r2
 8002218:	1c01      	adds	r1, r0, #0
 800221a:	8011      	strh	r1, [r2, #0]
 800221c:	466a      	mov	r2, sp
 800221e:	607a      	str	r2, [r7, #4]
	uint16_t size_tx=5;
 8002220:	2116      	movs	r1, #22
 8002222:	2218      	movs	r2, #24
 8002224:	18ba      	adds	r2, r7, r2
 8002226:	1852      	adds	r2, r2, r1
 8002228:	2105      	movs	r1, #5
 800222a:	8011      	strh	r1, [r2, #0]
	uint8_t buffer_i2c_tx[size_tx];
 800222c:	2116      	movs	r1, #22
 800222e:	2218      	movs	r2, #24
 8002230:	18ba      	adds	r2, r7, r2
 8002232:	1852      	adds	r2, r2, r1
 8002234:	8812      	ldrh	r2, [r2, #0]
 8002236:	0011      	movs	r1, r2
 8002238:	3901      	subs	r1, #1
 800223a:	62b9      	str	r1, [r7, #40]	; 0x28
 800223c:	613a      	str	r2, [r7, #16]
 800223e:	2100      	movs	r1, #0
 8002240:	6179      	str	r1, [r7, #20]
 8002242:	6939      	ldr	r1, [r7, #16]
 8002244:	0f49      	lsrs	r1, r1, #29
 8002246:	6978      	ldr	r0, [r7, #20]
 8002248:	00c6      	lsls	r6, r0, #3
 800224a:	430e      	orrs	r6, r1
 800224c:	6939      	ldr	r1, [r7, #16]
 800224e:	00cd      	lsls	r5, r1, #3
 8002250:	60ba      	str	r2, [r7, #8]
 8002252:	2100      	movs	r1, #0
 8002254:	60f9      	str	r1, [r7, #12]
 8002256:	68bd      	ldr	r5, [r7, #8]
 8002258:	68fe      	ldr	r6, [r7, #12]
 800225a:	0029      	movs	r1, r5
 800225c:	0f49      	lsrs	r1, r1, #29
 800225e:	0030      	movs	r0, r6
 8002260:	00c4      	lsls	r4, r0, #3
 8002262:	430c      	orrs	r4, r1
 8002264:	0029      	movs	r1, r5
 8002266:	00cb      	lsls	r3, r1, #3
 8002268:	0013      	movs	r3, r2
 800226a:	3307      	adds	r3, #7
 800226c:	08db      	lsrs	r3, r3, #3
 800226e:	00db      	lsls	r3, r3, #3
 8002270:	4669      	mov	r1, sp
 8002272:	1acb      	subs	r3, r1, r3
 8002274:	469d      	mov	sp, r3
 8002276:	ab02      	add	r3, sp, #8
 8002278:	3300      	adds	r3, #0
 800227a:	627b      	str	r3, [r7, #36]	; 0x24
//	  _i2c->write(on);
//	  _i2c->write(on >> 8);
//	  _i2c->write(off);
//	  _i2c->write(off >> 8);
//	  _i2c->endTransmission();
	size_tx=0;
 800227c:	2316      	movs	r3, #22
 800227e:	2218      	movs	r2, #24
 8002280:	4694      	mov	ip, r2
 8002282:	44bc      	add	ip, r7
 8002284:	4463      	add	r3, ip
 8002286:	2200      	movs	r2, #0
 8002288:	801a      	strh	r2, [r3, #0]
	buffer_i2c_tx[size_tx++]=LED0_ON_L + 4 * num;
 800228a:	2316      	movs	r3, #22
 800228c:	2218      	movs	r2, #24
 800228e:	4694      	mov	ip, r2
 8002290:	44bc      	add	ip, r7
 8002292:	4463      	add	r3, ip
 8002294:	881b      	ldrh	r3, [r3, #0]
 8002296:	2116      	movs	r1, #22
 8002298:	2218      	movs	r2, #24
 800229a:	18ba      	adds	r2, r7, r2
 800229c:	1852      	adds	r2, r2, r1
 800229e:	1c59      	adds	r1, r3, #1
 80022a0:	8011      	strh	r1, [r2, #0]
 80022a2:	001a      	movs	r2, r3
 80022a4:	231f      	movs	r3, #31
 80022a6:	18fb      	adds	r3, r7, r3
 80022a8:	781b      	ldrb	r3, [r3, #0]
 80022aa:	009b      	lsls	r3, r3, #2
 80022ac:	b2db      	uxtb	r3, r3
 80022ae:	3306      	adds	r3, #6
 80022b0:	b2d9      	uxtb	r1, r3
 80022b2:	6a7b      	ldr	r3, [r7, #36]	; 0x24
 80022b4:	5499      	strb	r1, [r3, r2]
	buffer_i2c_tx[size_tx++]=on;
 80022b6:	2316      	movs	r3, #22
 80022b8:	2218      	movs	r2, #24
 80022ba:	4694      	mov	ip, r2
 80022bc:	44bc      	add	ip, r7
 80022be:	4463      	add	r3, ip
 80022c0:	881b      	ldrh	r3, [r3, #0]
 80022c2:	2116      	movs	r1, #22
 80022c4:	2218      	movs	r2, #24
 80022c6:	18ba      	adds	r2, r7, r2
 80022c8:	1852      	adds	r2, r2, r1
 80022ca:	1c59      	adds	r1, r3, #1
 80022cc:	8011      	strh	r1, [r2, #0]
 80022ce:	001a      	movs	r2, r3
 80022d0:	231c      	movs	r3, #28
 80022d2:	18fb      	adds	r3, r7, r3
 80022d4:	881b      	ldrh	r3, [r3, #0]
 80022d6:	b2d9      	uxtb	r1, r3
 80022d8:	6a7b      	ldr	r3, [r7, #36]	; 0x24
 80022da:	5499      	strb	r1, [r3, r2]
