
SANREMO_Opera.elf:     file format elf32-littlearm

Sections:
Idx Name          Size      VMA       LMA       File off  Algn
  0 .isr_vector   000000c0  08000000  08000000  00010000  2**0
                  CONTENTS, ALLOC, LOAD, READONLY, DATA
  1 .text         00005bc4  080000c0  080000c0  000100c0  2**2
                  CONTENTS, ALLOC, LOAD, READONLY, CODE
  2 .rodata       000003d4  08005c84  08005c84  00015c84  2**1
                  CONTENTS, ALLOC, LOAD, READONLY, DATA
  3 .init_array   00000004  08006058  08006058  00016058  2**2
                  CONTENTS, ALLOC, LOAD, DATA
  4 .fini_array   00000004  0800605c  0800605c  0001605c  2**2
                  CONTENTS, ALLOC, LOAD, DATA
  5 .data         0000007c  20000000  08006060  00020000  2**2
                  CONTENTS, ALLOC, LOAD, DATA
  6 .bss          0000072c  20000080  080060dc  00020080  2**3
                  ALLOC
  7 ._user_heap_stack 00000600  200007ac  080060dc  000207ac  2**0
                  ALLOC
  8 .ARM.attributes 00000028  00000000  00000000  0002007c  2**0
                  CONTENTS, READONLY
  9 .comment      0000007c  00000000  00000000  000200a4  2**0
                  CONTENTS, READONLY
 10 .debug_frame  000001c4  00000000  00000000  00020120  2**2
                  CONTENTS, READONLY, DEBUGGING

Disassembly of section .text:

080000c0 <__do_global_dtors_aux>:
 80000c0:	b510      	push	{r4, lr}
 80000c2:	4c06      	ldr	r4, [pc, #24]	; (80000dc <__do_global_dtors_aux+0x1c>)
 80000c4:	7823      	ldrb	r3, [r4, #0]
 80000c6:	2b00      	cmp	r3, #0
 80000c8:	d107      	bne.n	80000da <__do_global_dtors_aux+0x1a>
 80000ca:	4b05      	ldr	r3, [pc, #20]	; (80000e0 <__do_global_dtors_aux+0x20>)
 80000cc:	2b00      	cmp	r3, #0
 80000ce:	d002      	beq.n	80000d6 <__do_global_dtors_aux+0x16>
 80000d0:	4804      	ldr	r0, [pc, #16]	; (80000e4 <__do_global_dtors_aux+0x24>)
 80000d2:	e000      	b.n	80000d6 <__do_global_dtors_aux+0x16>
 80000d4:	bf00      	nop
 80000d6:	2301      	movs	r3, #1
 80000d8:	7023      	strb	r3, [r4, #0]
 80000da:	bd10      	pop	{r4, pc}
 80000dc:	20000080 	.word	0x20000080
 80000e0:	00000000 	.word	0x00000000
 80000e4:	08005c6c 	.word	0x08005c6c

080000e8 <frame_dummy>:
 80000e8:	4b04      	ldr	r3, [pc, #16]	; (80000fc <frame_dummy+0x14>)
 80000ea:	b510      	push	{r4, lr}
 80000ec:	2b00      	cmp	r3, #0
 80000ee:	d003      	beq.n	80000f8 <frame_dummy+0x10>
 80000f0:	4903      	ldr	r1, [pc, #12]	; (8000100 <frame_dummy+0x18>)
 80000f2:	4804      	ldr	r0, [pc, #16]	; (8000104 <frame_dummy+0x1c>)
 80000f4:	e000      	b.n	80000f8 <frame_dummy+0x10>
 80000f6:	bf00      	nop
 80000f8:	bd10      	pop	{r4, pc}
 80000fa:	46c0      	nop			; (mov r8, r8)
 80000fc:	00000000 	.word	0x00000000
 8000100:	20000084 	.word	0x20000084
 8000104:	08005c6c 	.word	0x08005c6c

08000108 <__gnu_thumb1_case_sqi>:
 8000108:	b402      	push	{r1}
 800010a:	4671      	mov	r1, lr
 800010c:	0849      	lsrs	r1, r1, #1
 800010e:	0049      	lsls	r1, r1, #1
 8000110:	5609      	ldrsb	r1, [r1, r0]
 8000112:	0049      	lsls	r1, r1, #1
 8000114:	448e      	add	lr, r1
 8000116:	bc02      	pop	{r1}
 8000118:	4770      	bx	lr
 800011a:	46c0      	nop			; (mov r8, r8)

0800011c <__gnu_thumb1_case_uqi>:
 800011c:	b402      	push	{r1}
 800011e:	4671      	mov	r1, lr
 8000120:	0849      	lsrs	r1, r1, #1
 8000122:	0049      	lsls	r1, r1, #1
 8000124:	5c09      	ldrb	r1, [r1, r0]
 8000126:	0049      	lsls	r1, r1, #1
 8000128:	448e      	add	lr, r1
 800012a:	bc02      	pop	{r1}
 800012c:	4770      	bx	lr
 800012e:	46c0      	nop			; (mov r8, r8)

08000130 <__gnu_thumb1_case_uhi>:
 8000130:	b403      	push	{r0, r1}
 8000132:	4671      	mov	r1, lr
 8000134:	0849      	lsrs	r1, r1, #1
 8000136:	0040      	lsls	r0, r0, #1
 8000138:	0049      	lsls	r1, r1, #1
 800013a:	5a09      	ldrh	r1, [r1, r0]
 800013c:	0049      	lsls	r1, r1, #1
 800013e:	448e      	add	lr, r1
 8000140:	bc03      	pop	{r0, r1}
 8000142:	4770      	bx	lr

08000144 <__udivsi3>:
 8000144:	2200      	movs	r2, #0
 8000146:	0843      	lsrs	r3, r0, #1
 8000148:	428b      	cmp	r3, r1
 800014a:	d374      	bcc.n	8000236 <__udivsi3+0xf2>
 800014c:	0903      	lsrs	r3, r0, #4
 800014e:	428b      	cmp	r3, r1
 8000150:	d35f      	bcc.n	8000212 <__udivsi3+0xce>
 8000152:	0a03      	lsrs	r3, r0, #8
 8000154:	428b      	cmp	r3, r1
 8000156:	d344      	bcc.n	80001e2 <__udivsi3+0x9e>
 8000158:	0b03      	lsrs	r3, r0, #12
 800015a:	428b      	cmp	r3, r1
 800015c:	d328      	bcc.n	80001b0 <__udivsi3+0x6c>
 800015e:	0c03      	lsrs	r3, r0, #16
 8000160:	428b      	cmp	r3, r1
 8000162:	d30d      	bcc.n	8000180 <__udivsi3+0x3c>
 8000164:	22ff      	movs	r2, #255	; 0xff
 8000166:	0209      	lsls	r1, r1, #8
 8000168:	ba12      	rev	r2, r2
 800016a:	0c03      	lsrs	r3, r0, #16
 800016c:	428b      	cmp	r3, r1
 800016e:	d302      	bcc.n	8000176 <__udivsi3+0x32>
 8000170:	1212      	asrs	r2, r2, #8
 8000172:	0209      	lsls	r1, r1, #8
 8000174:	d065      	beq.n	8000242 <__udivsi3+0xfe>
 8000176:	0b03      	lsrs	r3, r0, #12
 8000178:	428b      	cmp	r3, r1
 800017a:	d319      	bcc.n	80001b0 <__udivsi3+0x6c>
 800017c:	e000      	b.n	8000180 <__udivsi3+0x3c>
 800017e:	0a09      	lsrs	r1, r1, #8
 8000180:	0bc3      	lsrs	r3, r0, #15
 8000182:	428b      	cmp	r3, r1
 8000184:	d301      	bcc.n	800018a <__udivsi3+0x46>
 8000186:	03cb      	lsls	r3, r1, #15
 8000188:	1ac0      	subs	r0, r0, r3
 800018a:	4152      	adcs	r2, r2
 800018c:	0b83      	lsrs	r3, r0, #14
 800018e:	428b      	cmp	r3, r1
 8000190:	d301      	bcc.n	8000196 <__udivsi3+0x52>
 8000192:	038b      	lsls	r3, r1, #14
 8000194:	1ac0      	subs	r0, r0, r3
 8000196:	4152      	adcs	r2, r2
 8000198:	0b43      	lsrs	r3, r0, #13
 800019a:	428b      	cmp	r3, r1
 800019c:	d301      	bcc.n	80001a2 <__udivsi3+0x5e>
 800019e:	034b      	lsls	r3, r1, #13
 80001a0:	1ac0      	subs	r0, r0, r3
 80001a2:	4152      	adcs	r2, r2
 80001a4:	0b03      	lsrs	r3, r0, #12
 80001a6:	428b      	cmp	r3, r1
 80001a8:	d301      	bcc.n	80001ae <__udivsi3+0x6a>
 80001aa:	030b      	lsls	r3, r1, #12
 80001ac:	1ac0      	subs	r0, r0, r3
 80001ae:	4152      	adcs	r2, r2
 80001b0:	0ac3      	lsrs	r3, r0, #11
 80001b2:	428b      	cmp	r3, r1
 80001b4:	d301      	bcc.n	80001ba <__udivsi3+0x76>
 80001b6:	02cb      	lsls	r3, r1, #11
 80001b8:	1ac0      	subs	r0, r0, r3
 80001ba:	4152      	adcs	r2, r2
 80001bc:	0a83      	lsrs	r3, r0, #10
 80001be:	428b      	cmp	r3, r1
 80001c0:	d301      	bcc.n	80001c6 <__udivsi3+0x82>
 80001c2:	028b      	lsls	r3, r1, #10
 80001c4:	1ac0      	subs	r0, r0, r3
 80001c6:	4152      	adcs	r2, r2
 80001c8:	0a43      	lsrs	r3, r0, #9
 80001ca:	428b      	cmp	r3, r1
 80001cc:	d301      	bcc.n	80001d2 <__udivsi3+0x8e>
 80001ce:	024b      	lsls	r3, r1, #9
 80001d0:	1ac0      	subs	r0, r0, r3
 80001d2:	4152      	adcs	r2, r2
 80001d4:	0a03      	lsrs	r3, r0, #8
 80001d6:	428b      	cmp	r3, r1
 80001d8:	d301      	bcc.n	80001de <__udivsi3+0x9a>
 80001da:	020b      	lsls	r3, r1, #8
 80001dc:	1ac0      	subs	r0, r0, r3
 80001de:	4152      	adcs	r2, r2
 80001e0:	d2cd      	bcs.n	800017e <__udivsi3+0x3a>
 80001e2:	09c3      	lsrs	r3, r0, #7
 80001e4:	428b      	cmp	r3, r1
 80001e6:	d301      	bcc.n	80001ec <__udivsi3+0xa8>
 80001e8:	01cb      	lsls	r3, r1, #7
 80001ea:	1ac0      	subs	r0, r0, r3
 80001ec:	4152      	adcs	r2, r2
 80001ee:	0983      	lsrs	r3, r0, #6
 80001f0:	428b      	cmp	r3, r1
 80001f2:	d301      	bcc.n	80001f8 <__udivsi3+0xb4>
 80001f4:	018b      	lsls	r3, r1, #6
 80001f6:	1ac0      	subs	r0, r0, r3
 80001f8:	4152      	adcs	r2, r2
 80001fa:	0943      	lsrs	r3, r0, #5
 80001fc:	428b      	cmp	r3, r1
 80001fe:	d301      	bcc.n	8000204 <__udivsi3+0xc0>
 8000200:	014b      	lsls	r3, r1, #5
 8000202:	1ac0      	subs	r0, r0, r3
 8000204:	4152      	adcs	r2, r2
 8000206:	0903      	lsrs	r3, r0, #4
 8000208:	428b      	cmp	r3, r1
 800020a:	d301      	bcc.n	8000210 <__udivsi3+0xcc>
 800020c:	010b      	lsls	r3, r1, #4
 800020e:	1ac0      	subs	r0, r0, r3
 8000210:	4152      	adcs	r2, r2
 8000212:	08c3      	lsrs	r3, r0, #3
 8000214:	428b      	cmp	r3, r1
 8000216:	d301      	bcc.n	800021c <__udivsi3+0xd8>
 8000218:	00cb      	lsls	r3, r1, #3
 800021a:	1ac0      	subs	r0, r0, r3
 800021c:	4152      	adcs	r2, r2
 800021e:	0883      	lsrs	r3, r0, #2
 8000220:	428b      	cmp	r3, r1
 8000222:	d301      	bcc.n	8000228 <__udivsi3+0xe4>
 8000224:	008b      	lsls	r3, r1, #2
 8000226:	1ac0      	subs	r0, r0, r3
 8000228:	4152      	adcs	r2, r2
 800022a:	0843      	lsrs	r3, r0, #1
 800022c:	428b      	cmp	r3, r1
 800022e:	d301      	bcc.n	8000234 <__udivsi3+0xf0>
 8000230:	004b      	lsls	r3, r1, #1
 8000232:	1ac0      	subs	r0, r0, r3
 8000234:	4152      	adcs	r2, r2
 8000236:	1a41      	subs	r1, r0, r1
 8000238:	d200      	bcs.n	800023c <__udivsi3+0xf8>
 800023a:	4601      	mov	r1, r0
 800023c:	4152      	adcs	r2, r2
 800023e:	4610      	mov	r0, r2
 8000240:	4770      	bx	lr
 8000242:	e7ff      	b.n	8000244 <__udivsi3+0x100>
 8000244:	b501      	push	{r0, lr}
 8000246:	2000      	movs	r0, #0
 8000248:	f000 f8f0 	bl	800042c <__aeabi_idiv0>
 800024c:	bd02      	pop	{r1, pc}
 800024e:	46c0      	nop			; (mov r8, r8)

08000250 <__aeabi_uidivmod>:
 8000250:	2900      	cmp	r1, #0
 8000252:	d0f7      	beq.n	8000244 <__udivsi3+0x100>
 8000254:	e776      	b.n	8000144 <__udivsi3>
 8000256:	4770      	bx	lr

08000258 <__divsi3>:
 8000258:	4603      	mov	r3, r0
 800025a:	430b      	orrs	r3, r1
 800025c:	d47f      	bmi.n	800035e <__divsi3+0x106>
 800025e:	2200      	movs	r2, #0
 8000260:	0843      	lsrs	r3, r0, #1
 8000262:	428b      	cmp	r3, r1
 8000264:	d374      	bcc.n	8000350 <__divsi3+0xf8>
 8000266:	0903      	lsrs	r3, r0, #4
 8000268:	428b      	cmp	r3, r1
 800026a:	d35f      	bcc.n	800032c <__divsi3+0xd4>
 800026c:	0a03      	lsrs	r3, r0, #8
 800026e:	428b      	cmp	r3, r1
 8000270:	d344      	bcc.n	80002fc <__divsi3+0xa4>
 8000272:	0b03      	lsrs	r3, r0, #12
 8000274:	428b      	cmp	r3, r1
 8000276:	d328      	bcc.n	80002ca <__divsi3+0x72>
 8000278:	0c03      	lsrs	r3, r0, #16
 800027a:	428b      	cmp	r3, r1
 800027c:	d30d      	bcc.n	800029a <__divsi3+0x42>
 800027e:	22ff      	movs	r2, #255	; 0xff
 8000280:	0209      	lsls	r1, r1, #8
 8000282:	ba12      	rev	r2, r2
 8000284:	0c03      	lsrs	r3, r0, #16
 8000286:	428b      	cmp	r3, r1
 8000288:	d302      	bcc.n	8000290 <__divsi3+0x38>
 800028a:	1212      	asrs	r2, r2, #8
 800028c:	0209      	lsls	r1, r1, #8
 800028e:	d065      	beq.n	800035c <__divsi3+0x104>
 8000290:	0b03      	lsrs	r3, r0, #12
 8000292:	428b      	cmp	r3, r1
 8000294:	d319      	bcc.n	80002ca <__divsi3+0x72>
 8000296:	e000      	b.n	800029a <__divsi3+0x42>
 8000298:	0a09      	lsrs	r1, r1, #8
 800029a:	0bc3      	lsrs	r3, r0, #15
 800029c:	428b      	cmp	r3, r1
 800029e:	d301      	bcc.n	80002a4 <__divsi3+0x4c>
 80002a0:	03cb      	lsls	r3, r1, #15
 80002a2:	1ac0      	subs	r0, r0, r3
 80002a4:	4152      	adcs	r2, r2
 80002a6:	0b83      	lsrs	r3, r0, #14
 80002a8:	428b      	cmp	r3, r1
 80002aa:	d301      	bcc.n	80002b0 <__divsi3+0x58>
 80002ac:	038b      	lsls	r3, r1, #14
 80002ae:	1ac0      	subs	r0, r0, r3
 80002b0:	4152      	adcs	r2, r2
 80002b2:	0b43      	lsrs	r3, r0, #13
 80002b4:	428b      	cmp	r3, r1
 80002b6:	d301      	bcc.n	80002bc <__divsi3+0x64>
 80002b8:	034b      	lsls	r3, r1, #13
 80002ba:	1ac0      	subs	r0, r0, r3
 80002bc:	4152      	adcs	r2, r2
 80002be:	0b03      	lsrs	r3, r0, #12
 80002c0:	428b      	cmp	r3, r1
 80002c2:	d301      	bcc.n	80002c8 <__divsi3+0x70>
 80002c4:	030b      	lsls	r3, r1, #12
 80002c6:	1ac0      	subs	r0, r0, r3
 80002c8:	4152      	adcs	r2, r2
 80002ca:	0ac3      	lsrs	r3, r0, #11
 80002cc:	428b      	cmp	r3, r1
 80002ce:	d301      	bcc.n	80002d4 <__divsi3+0x7c>
 80002d0:	02cb      	lsls	r3, r1, #11
 80002d2:	1ac0      	subs	r0, r0, r3
 80002d4:	4152      	adcs	r2, r2
 80002d6:	0a83      	lsrs	r3, r0, #10
 80002d8:	428b      	cmp	r3, r1
 80002da:	d301      	bcc.n	80002e0 <__divsi3+0x88>
 80002dc:	028b      	lsls	r3, r1, #10
 80002de:	1ac0      	subs	r0, r0, r3
 80002e0:	4152      	adcs	r2, r2
 80002e2:	0a43      	lsrs	r3, r0, #9
 80002e4:	428b      	cmp	r3, r1
 80002e6:	d301      	bcc.n	80002ec <__divsi3+0x94>
 80002e8:	024b      	lsls	r3, r1, #9
 80002ea:	1ac0      	subs	r0, r0, r3
 80002ec:	4152      	adcs	r2, r2
 80002ee:	0a03      	lsrs	r3, r0, #8
 80002f0:	428b      	cmp	r3, r1
 80002f2:	d301      	bcc.n	80002f8 <__divsi3+0xa0>
 80002f4:	020b      	lsls	r3, r1, #8
 80002f6:	1ac0      	subs	r0, r0, r3
 80002f8:	4152      	adcs	r2, r2
 80002fa:	d2cd      	bcs.n	8000298 <__divsi3+0x40>
 80002fc:	09c3      	lsrs	r3, r0, #7
 80002fe:	428b      	cmp	r3, r1
 8000300:	d301      	bcc.n	8000306 <__divsi3+0xae>
 8000302:	01cb      	lsls	r3, r1, #7
 8000304:	1ac0      	subs	r0, r0, r3
 8000306:	4152      	adcs	r2, r2
 8000308:	0983      	lsrs	r3, r0, #6
 800030a:	428b      	cmp	r3, r1
 800030c:	d301      	bcc.n	8000312 <__divsi3+0xba>
 800030e:	018b      	lsls	r3, r1, #6
 8000310:	1ac0      	subs	r0, r0, r3
 8000312:	4152      	adcs	r2, r2
 8000314:	0943      	lsrs	r3, r0, #5
 8000316:	428b      	cmp	r3, r1
 8000318:	d301      	bcc.n	800031e <__divsi3+0xc6>
 800031a:	014b      	lsls	r3, r1, #5
 800031c:	1ac0      	subs	r0, r0, r3
 800031e:	4152      	adcs	r2, r2
 8000320:	0903      	lsrs	r3, r0, #4
 8000322:	428b      	cmp	r3, r1
 8000324:	d301      	bcc.n	800032a <__divsi3+0xd2>
 8000326:	010b      	lsls	r3, r1, #4
 8000328:	1ac0      	subs	r0, r0, r3
 800032a:	4152      	adcs	r2, r2
 800032c:	08c3      	lsrs	r3, r0, #3
 800032e:	428b      	cmp	r3, r1
 8000330:	d301      	bcc.n	8000336 <__divsi3+0xde>
 8000332:	00cb      	lsls	r3, r1, #3
 8000334:	1ac0      	subs	r0, r0, r3
 8000336:	4152      	adcs	r2, r2
 8000338:	0883      	lsrs	r3, r0, #2
 800033a:	428b      	cmp	r3, r1
 800033c:	d301      	bcc.n	8000342 <__divsi3+0xea>
 800033e:	008b      	lsls	r3, r1, #2
 8000340:	1ac0      	subs	r0, r0, r3
 8000342:	4152      	adcs	r2, r2
 8000344:	0843      	lsrs	r3, r0, #1
 8000346:	428b      	cmp	r3, r1
 8000348:	d301      	bcc.n	800034e <__divsi3+0xf6>
 800034a:	004b      	lsls	r3, r1, #1
 800034c:	1ac0      	subs	r0, r0, r3
 800034e:	4152      	adcs	r2, r2
 8000350:	1a41      	subs	r1, r0, r1
 8000352:	d200      	bcs.n	8000356 <__divsi3+0xfe>
 8000354:	4601      	mov	r1, r0
 8000356:	4152      	adcs	r2, r2
 8000358:	4610      	mov	r0, r2
 800035a:	4770      	bx	lr
 800035c:	e05d      	b.n	800041a <__divsi3+0x1c2>
 800035e:	0fca      	lsrs	r2, r1, #31
 8000360:	d000      	beq.n	8000364 <__divsi3+0x10c>
 8000362:	4249      	negs	r1, r1
 8000364:	1003      	asrs	r3, r0, #32
 8000366:	d300      	bcc.n	800036a <__divsi3+0x112>
 8000368:	4240      	negs	r0, r0
 800036a:	4053      	eors	r3, r2
 800036c:	2200      	movs	r2, #0
 800036e:	469c      	mov	ip, r3
 8000370:	0903      	lsrs	r3, r0, #4
 8000372:	428b      	cmp	r3, r1
 8000374:	d32d      	bcc.n	80003d2 <__divsi3+0x17a>
 8000376:	0a03      	lsrs	r3, r0, #8
 8000378:	428b      	cmp	r3, r1
 800037a:	d312      	bcc.n	80003a2 <__divsi3+0x14a>
 800037c:	22fc      	movs	r2, #252	; 0xfc
 800037e:	0189      	lsls	r1, r1, #6
 8000380:	ba12      	rev	r2, r2
 8000382:	0a03      	lsrs	r3, r0, #8
 8000384:	428b      	cmp	r3, r1
 8000386:	d30c      	bcc.n	80003a2 <__divsi3+0x14a>
 8000388:	0189      	lsls	r1, r1, #6
 800038a:	1192      	asrs	r2, r2, #6
 800038c:	428b      	cmp	r3, r1
 800038e:	d308      	bcc.n	80003a2 <__divsi3+0x14a>
 8000390:	0189      	lsls	r1, r1, #6
 8000392:	1192      	asrs	r2, r2, #6
 8000394:	428b      	cmp	r3, r1
 8000396:	d304      	bcc.n	80003a2 <__divsi3+0x14a>
 8000398:	0189      	lsls	r1, r1, #6
 800039a:	d03a      	beq.n	8000412 <__divsi3+0x1ba>
 800039c:	1192      	asrs	r2, r2, #6
 800039e:	e000      	b.n	80003a2 <__divsi3+0x14a>
 80003a0:	0989      	lsrs	r1, r1, #6
 80003a2:	09c3      	lsrs	r3, r0, #7
 80003a4:	428b      	cmp	r3, r1
 80003a6:	d301      	bcc.n	80003ac <__divsi3+0x154>
 80003a8:	01cb      	lsls	r3, r1, #7
 80003aa:	1ac0      	subs	r0, r0, r3
 80003ac:	4152      	adcs	r2, r2
 80003ae:	0983      	lsrs	r3, r0, #6
 80003b0:	428b      	cmp	r3, r1
 80003b2:	d301      	bcc.n	80003b8 <__divsi3+0x160>
 80003b4:	018b      	lsls	r3, r1, #6
 80003b6:	1ac0      	subs	r0, r0, r3
 80003b8:	4152      	adcs	r2, r2
 80003ba:	0943      	lsrs	r3, r0, #5
 80003bc:	428b      	cmp	r3, r1
 80003be:	d301      	bcc.n	80003c4 <__divsi3+0x16c>
 80003c0:	014b      	lsls	r3, r1, #5
 80003c2:	1ac0      	subs	r0, r0, r3
 80003c4:	4152      	adcs	r2, r2
 80003c6:	0903      	lsrs	r3, r0, #4
 80003c8:	428b      	cmp	r3, r1
 80003ca:	d301      	bcc.n	80003d0 <__divsi3+0x178>
 80003cc:	010b      	lsls	r3, r1, #4
 80003ce:	1ac0      	subs	r0, r0, r3
 80003d0:	4152      	adcs	r2, r2
 80003d2:	08c3      	lsrs	r3, r0, #3
 80003d4:	428b      	cmp	r3, r1
 80003d6:	d301      	bcc.n	80003dc <__divsi3+0x184>
 80003d8:	00cb      	lsls	r3, r1, #3
 80003da:	1ac0      	subs	r0, r0, r3
 80003dc:	4152      	adcs	r2, r2
 80003de:	0883      	lsrs	r3, r0, #2
 80003e0:	428b      	cmp	r3, r1
 80003e2:	d301      	bcc.n	80003e8 <__divsi3+0x190>
 80003e4:	008b      	lsls	r3, r1, #2
 80003e6:	1ac0      	subs	r0, r0, r3
 80003e8:	4152      	adcs	r2, r2
 80003ea:	d2d9      	bcs.n	80003a0 <__divsi3+0x148>
 80003ec:	0843      	lsrs	r3, r0, #1
 80003ee:	428b      	cmp	r3, r1
 80003f0:	d301      	bcc.n	80003f6 <__divsi3+0x19e>
 80003f2:	004b      	lsls	r3, r1, #1
 80003f4:	1ac0      	subs	r0, r0, r3
 80003f6:	4152      	adcs	r2, r2
 80003f8:	1a41      	subs	r1, r0, r1
 80003fa:	d200      	bcs.n	80003fe <__divsi3+0x1a6>
 80003fc:	4601      	mov	r1, r0
 80003fe:	4663      	mov	r3, ip
 8000400:	4152      	adcs	r2, r2
 8000402:	105b      	asrs	r3, r3, #1
 8000404:	4610      	mov	r0, r2
 8000406:	d301      	bcc.n	800040c <__divsi3+0x1b4>
 8000408:	4240      	negs	r0, r0
 800040a:	2b00      	cmp	r3, #0
 800040c:	d500      	bpl.n	8000410 <__divsi3+0x1b8>
 800040e:	4249      	negs	r1, r1
 8000410:	4770      	bx	lr
 8000412:	4663      	mov	r3, ip
 8000414:	105b      	asrs	r3, r3, #1
 8000416:	d300      	bcc.n	800041a <__divsi3+0x1c2>
 8000418:	4240      	negs	r0, r0
 800041a:	b501      	push	{r0, lr}
 800041c:	2000      	movs	r0, #0
 800041e:	f000 f805 	bl	800042c <__aeabi_idiv0>
 8000422:	bd02      	pop	{r1, pc}

08000424 <__aeabi_idivmod>:
 8000424:	2900      	cmp	r1, #0
 8000426:	d0f8      	beq.n	800041a <__divsi3+0x1c2>
 8000428:	e716      	b.n	8000258 <__divsi3>
 800042a:	4770      	bx	lr

0800042c <__aeabi_idiv0>:
 800042c:	4770      	bx	lr
 800042e:	46c0      	nop			; (mov r8, r8)

08000430 <__aeabi_cdrcmple>:
 8000430:	4684      	mov	ip, r0
 8000432:	1c10      	adds	r0, r2, #0
 8000434:	4662      	mov	r2, ip
 8000436:	468c      	mov	ip, r1
 8000438:	1c19      	adds	r1, r3, #0
 800043a:	4663      	mov	r3, ip
 800043c:	e000      	b.n	8000440 <__aeabi_cdcmpeq>
 800043e:	46c0      	nop			; (mov r8, r8)

08000440 <__aeabi_cdcmpeq>:
 8000440:	b51f      	push	{r0, r1, r2, r3, r4, lr}
 8000442:	f000 fbe1 	bl	8000c08 <__ledf2>
 8000446:	2800      	cmp	r0, #0
 8000448:	d401      	bmi.n	800044e <__aeabi_cdcmpeq+0xe>
 800044a:	2100      	movs	r1, #0
 800044c:	42c8      	cmn	r0, r1
 800044e:	bd1f      	pop	{r0, r1, r2, r3, r4, pc}

08000450 <__aeabi_dcmpeq>:
 8000450:	b510      	push	{r4, lr}
 8000452:	f000 fb3b 	bl	8000acc <__eqdf2>
 8000456:	4240      	negs	r0, r0
 8000458:	3001      	adds	r0, #1
 800045a:	bd10      	pop	{r4, pc}

0800045c <__aeabi_dcmplt>:
 800045c:	b510      	push	{r4, lr}
 800045e:	f000 fbd3 	bl	8000c08 <__ledf2>
 8000462:	2800      	cmp	r0, #0
 8000464:	db01      	blt.n	800046a <__aeabi_dcmplt+0xe>
 8000466:	2000      	movs	r0, #0
 8000468:	bd10      	pop	{r4, pc}
 800046a:	2001      	movs	r0, #1
 800046c:	bd10      	pop	{r4, pc}
 800046e:	46c0      	nop			; (mov r8, r8)

08000470 <__aeabi_dcmple>:
 8000470:	b510      	push	{r4, lr}
 8000472:	f000 fbc9 	bl	8000c08 <__ledf2>
 8000476:	2800      	cmp	r0, #0
 8000478:	dd01      	ble.n	800047e <__aeabi_dcmple+0xe>
 800047a:	2000      	movs	r0, #0
 800047c:	bd10      	pop	{r4, pc}
 800047e:	2001      	movs	r0, #1
 8000480:	bd10      	pop	{r4, pc}
 8000482:	46c0      	nop			; (mov r8, r8)

08000484 <__aeabi_dcmpgt>:
 8000484:	b510      	push	{r4, lr}
 8000486:	f000 fb5b 	bl	8000b40 <__gedf2>
 800048a:	2800      	cmp	r0, #0
 800048c:	dc01      	bgt.n	8000492 <__aeabi_dcmpgt+0xe>
 800048e:	2000      	movs	r0, #0
 8000490:	bd10      	pop	{r4, pc}
 8000492:	2001      	movs	r0, #1
 8000494:	bd10      	pop	{r4, pc}
 8000496:	46c0      	nop			; (mov r8, r8)

08000498 <__aeabi_dcmpge>:
 8000498:	b510      	push	{r4, lr}
 800049a:	f000 fb51 	bl	8000b40 <__gedf2>
 800049e:	2800      	cmp	r0, #0
 80004a0:	da01      	bge.n	80004a6 <__aeabi_dcmpge+0xe>
 80004a2:	2000      	movs	r0, #0
 80004a4:	bd10      	pop	{r4, pc}
 80004a6:	2001      	movs	r0, #1
 80004a8:	bd10      	pop	{r4, pc}
 80004aa:	46c0      	nop			; (mov r8, r8)

080004ac <__aeabi_dadd>:
 80004ac:	b5f8      	push	{r3, r4, r5, r6, r7, lr}
 80004ae:	4645      	mov	r5, r8
 80004b0:	46de      	mov	lr, fp
 80004b2:	4657      	mov	r7, sl
 80004b4:	464e      	mov	r6, r9
 80004b6:	030c      	lsls	r4, r1, #12
 80004b8:	b5e0      	push	{r5, r6, r7, lr}
 80004ba:	004e      	lsls	r6, r1, #1
 80004bc:	0fc9      	lsrs	r1, r1, #31
 80004be:	4688      	mov	r8, r1
 80004c0:	000d      	movs	r5, r1
 80004c2:	0a61      	lsrs	r1, r4, #9
 80004c4:	0f44      	lsrs	r4, r0, #29
 80004c6:	430c      	orrs	r4, r1
 80004c8:	00c7      	lsls	r7, r0, #3
 80004ca:	0319      	lsls	r1, r3, #12
 80004cc:	0058      	lsls	r0, r3, #1
 80004ce:	0fdb      	lsrs	r3, r3, #31
 80004d0:	469b      	mov	fp, r3
 80004d2:	0a4b      	lsrs	r3, r1, #9
 80004d4:	0f51      	lsrs	r1, r2, #29
 80004d6:	430b      	orrs	r3, r1
 80004d8:	0d76      	lsrs	r6, r6, #21
 80004da:	0d40      	lsrs	r0, r0, #21
 80004dc:	0019      	movs	r1, r3
 80004de:	00d2      	lsls	r2, r2, #3
 80004e0:	45d8      	cmp	r8, fp
 80004e2:	d100      	bne.n	80004e6 <__aeabi_dadd+0x3a>
 80004e4:	e0ae      	b.n	8000644 <__aeabi_dadd+0x198>
 80004e6:	1a35      	subs	r5, r6, r0
 80004e8:	2d00      	cmp	r5, #0
 80004ea:	dc00      	bgt.n	80004ee <__aeabi_dadd+0x42>
 80004ec:	e0f6      	b.n	80006dc <__aeabi_dadd+0x230>
 80004ee:	2800      	cmp	r0, #0
 80004f0:	d10f      	bne.n	8000512 <__aeabi_dadd+0x66>
 80004f2:	4313      	orrs	r3, r2
 80004f4:	d100      	bne.n	80004f8 <__aeabi_dadd+0x4c>
 80004f6:	e0db      	b.n	80006b0 <__aeabi_dadd+0x204>
 80004f8:	1e6b      	subs	r3, r5, #1
 80004fa:	2b00      	cmp	r3, #0
 80004fc:	d000      	beq.n	8000500 <__aeabi_dadd+0x54>
 80004fe:	e137      	b.n	8000770 <__aeabi_dadd+0x2c4>
 8000500:	1aba      	subs	r2, r7, r2
 8000502:	4297      	cmp	r7, r2
 8000504:	41bf      	sbcs	r7, r7
 8000506:	1a64      	subs	r4, r4, r1
 8000508:	427f      	negs	r7, r7
 800050a:	1be4      	subs	r4, r4, r7
 800050c:	2601      	movs	r6, #1
 800050e:	0017      	movs	r7, r2
 8000510:	e024      	b.n	800055c <__aeabi_dadd+0xb0>
 8000512:	4bc6      	ldr	r3, [pc, #792]	; (800082c <__aeabi_dadd+0x380>)
 8000514:	429e      	cmp	r6, r3
 8000516:	d04d      	beq.n	80005b4 <__aeabi_dadd+0x108>
 8000518:	2380      	movs	r3, #128	; 0x80
 800051a:	041b      	lsls	r3, r3, #16
 800051c:	4319      	orrs	r1, r3
 800051e:	2d38      	cmp	r5, #56	; 0x38
 8000520:	dd00      	ble.n	8000524 <__aeabi_dadd+0x78>
 8000522:	e107      	b.n	8000734 <__aeabi_dadd+0x288>
 8000524:	2d1f      	cmp	r5, #31
 8000526:	dd00      	ble.n	800052a <__aeabi_dadd+0x7e>
 8000528:	e138      	b.n	800079c <__aeabi_dadd+0x2f0>
 800052a:	2020      	movs	r0, #32
 800052c:	1b43      	subs	r3, r0, r5
 800052e:	469a      	mov	sl, r3
 8000530:	000b      	movs	r3, r1
 8000532:	4650      	mov	r0, sl
 8000534:	4083      	lsls	r3, r0
 8000536:	4699      	mov	r9, r3
 8000538:	0013      	movs	r3, r2
 800053a:	4648      	mov	r0, r9
 800053c:	40eb      	lsrs	r3, r5
 800053e:	4318      	orrs	r0, r3
 8000540:	0003      	movs	r3, r0
 8000542:	4650      	mov	r0, sl
 8000544:	4082      	lsls	r2, r0
 8000546:	1e50      	subs	r0, r2, #1
 8000548:	4182      	sbcs	r2, r0
 800054a:	40e9      	lsrs	r1, r5
 800054c:	431a      	orrs	r2, r3
 800054e:	1aba      	subs	r2, r7, r2
 8000550:	1a61      	subs	r1, r4, r1
 8000552:	4297      	cmp	r7, r2
 8000554:	41a4      	sbcs	r4, r4
 8000556:	0017      	movs	r7, r2
 8000558:	4264      	negs	r4, r4
 800055a:	1b0c      	subs	r4, r1, r4
 800055c:	0223      	lsls	r3, r4, #8
 800055e:	d562      	bpl.n	8000626 <__aeabi_dadd+0x17a>
 8000560:	0264      	lsls	r4, r4, #9
 8000562:	0a65      	lsrs	r5, r4, #9
 8000564:	2d00      	cmp	r5, #0
 8000566:	d100      	bne.n	800056a <__aeabi_dadd+0xbe>
 8000568:	e0df      	b.n	800072a <__aeabi_dadd+0x27e>
 800056a:	0028      	movs	r0, r5
 800056c:	f000 fbe2 	bl	8000d34 <__clzsi2>
 8000570:	0003      	movs	r3, r0
 8000572:	3b08      	subs	r3, #8
 8000574:	2b1f      	cmp	r3, #31
 8000576:	dd00      	ble.n	800057a <__aeabi_dadd+0xce>
 8000578:	e0d2      	b.n	8000720 <__aeabi_dadd+0x274>
 800057a:	2220      	movs	r2, #32
 800057c:	003c      	movs	r4, r7
 800057e:	1ad2      	subs	r2, r2, r3
 8000580:	409d      	lsls	r5, r3
 8000582:	40d4      	lsrs	r4, r2
 8000584:	409f      	lsls	r7, r3
 8000586:	4325      	orrs	r5, r4
 8000588:	429e      	cmp	r6, r3
 800058a:	dd00      	ble.n	800058e <__aeabi_dadd+0xe2>
 800058c:	e0c4      	b.n	8000718 <__aeabi_dadd+0x26c>
 800058e:	1b9e      	subs	r6, r3, r6
 8000590:	1c73      	adds	r3, r6, #1
 8000592:	2b1f      	cmp	r3, #31
 8000594:	dd00      	ble.n	8000598 <__aeabi_dadd+0xec>
 8000596:	e0f1      	b.n	800077c <__aeabi_dadd+0x2d0>
 8000598:	2220      	movs	r2, #32
 800059a:	0038      	movs	r0, r7
 800059c:	0029      	movs	r1, r5
 800059e:	1ad2      	subs	r2, r2, r3
 80005a0:	40d8      	lsrs	r0, r3
 80005a2:	4091      	lsls	r1, r2
 80005a4:	4097      	lsls	r7, r2
 80005a6:	002c      	movs	r4, r5
 80005a8:	4301      	orrs	r1, r0
 80005aa:	1e78      	subs	r0, r7, #1
 80005ac:	4187      	sbcs	r7, r0
 80005ae:	40dc      	lsrs	r4, r3
 80005b0:	2600      	movs	r6, #0
 80005b2:	430f      	orrs	r7, r1
 80005b4:	077b      	lsls	r3, r7, #29
 80005b6:	d009      	beq.n	80005cc <__aeabi_dadd+0x120>
 80005b8:	230f      	movs	r3, #15
 80005ba:	403b      	ands	r3, r7
 80005bc:	2b04      	cmp	r3, #4
 80005be:	d005      	beq.n	80005cc <__aeabi_dadd+0x120>
 80005c0:	1d3b      	adds	r3, r7, #4
 80005c2:	42bb      	cmp	r3, r7
 80005c4:	41bf      	sbcs	r7, r7
 80005c6:	427f      	negs	r7, r7
 80005c8:	19e4      	adds	r4, r4, r7
 80005ca:	001f      	movs	r7, r3
 80005cc:	0223      	lsls	r3, r4, #8
 80005ce:	d52c      	bpl.n	800062a <__aeabi_dadd+0x17e>
 80005d0:	4b96      	ldr	r3, [pc, #600]	; (800082c <__aeabi_dadd+0x380>)
 80005d2:	3601      	adds	r6, #1
 80005d4:	429e      	cmp	r6, r3
 80005d6:	d100      	bne.n	80005da <__aeabi_dadd+0x12e>
 80005d8:	e09a      	b.n	8000710 <__aeabi_dadd+0x264>
 80005da:	4645      	mov	r5, r8
 80005dc:	4b94      	ldr	r3, [pc, #592]	; (8000830 <__aeabi_dadd+0x384>)
 80005de:	08ff      	lsrs	r7, r7, #3
 80005e0:	401c      	ands	r4, r3
 80005e2:	0760      	lsls	r0, r4, #29
 80005e4:	0576      	lsls	r6, r6, #21
 80005e6:	0264      	lsls	r4, r4, #9
 80005e8:	4307      	orrs	r7, r0
 80005ea:	0b24      	lsrs	r4, r4, #12
 80005ec:	0d76      	lsrs	r6, r6, #21
 80005ee:	2100      	movs	r1, #0
 80005f0:	0324      	lsls	r4, r4, #12
 80005f2:	0b23      	lsrs	r3, r4, #12
 80005f4:	0d0c      	lsrs	r4, r1, #20
 80005f6:	4a8f      	ldr	r2, [pc, #572]	; (8000834 <__aeabi_dadd+0x388>)
 80005f8:	0524      	lsls	r4, r4, #20
 80005fa:	431c      	orrs	r4, r3
 80005fc:	4014      	ands	r4, r2
 80005fe:	0533      	lsls	r3, r6, #20
 8000600:	4323      	orrs	r3, r4
 8000602:	005b      	lsls	r3, r3, #1
 8000604:	07ed      	lsls	r5, r5, #31
 8000606:	085b      	lsrs	r3, r3, #1
 8000608:	432b      	orrs	r3, r5
 800060a:	0038      	movs	r0, r7
 800060c:	0019      	movs	r1, r3
 800060e:	bc3c      	pop	{r2, r3, r4, r5}
 8000610:	4690      	mov	r8, r2
 8000612:	4699      	mov	r9, r3
 8000614:	46a2      	mov	sl, r4
 8000616:	46ab      	mov	fp, r5
 8000618:	bdf8      	pop	{r3, r4, r5, r6, r7, pc}
 800061a:	4664      	mov	r4, ip
 800061c:	4304      	orrs	r4, r0
 800061e:	d100      	bne.n	8000622 <__aeabi_dadd+0x176>
 8000620:	e211      	b.n	8000a46 <__aeabi_dadd+0x59a>
 8000622:	0004      	movs	r4, r0
 8000624:	4667      	mov	r7, ip
 8000626:	077b      	lsls	r3, r7, #29
 8000628:	d1c6      	bne.n	80005b8 <__aeabi_dadd+0x10c>
 800062a:	4645      	mov	r5, r8
 800062c:	0760      	lsls	r0, r4, #29
 800062e:	08ff      	lsrs	r7, r7, #3
 8000630:	4307      	orrs	r7, r0
 8000632:	08e4      	lsrs	r4, r4, #3
 8000634:	4b7d      	ldr	r3, [pc, #500]	; (800082c <__aeabi_dadd+0x380>)
 8000636:	429e      	cmp	r6, r3
 8000638:	d030      	beq.n	800069c <__aeabi_dadd+0x1f0>
 800063a:	0324      	lsls	r4, r4, #12
 800063c:	0576      	lsls	r6, r6, #21
 800063e:	0b24      	lsrs	r4, r4, #12
 8000640:	0d76      	lsrs	r6, r6, #21
 8000642:	e7d4      	b.n	80005ee <__aeabi_dadd+0x142>
 8000644:	1a33      	subs	r3, r6, r0
 8000646:	469a      	mov	sl, r3
 8000648:	2b00      	cmp	r3, #0
 800064a:	dd78      	ble.n	800073e <__aeabi_dadd+0x292>
 800064c:	2800      	cmp	r0, #0
 800064e:	d031      	beq.n	80006b4 <__aeabi_dadd+0x208>
 8000650:	4876      	ldr	r0, [pc, #472]	; (800082c <__aeabi_dadd+0x380>)
 8000652:	4286      	cmp	r6, r0
 8000654:	d0ae      	beq.n	80005b4 <__aeabi_dadd+0x108>
 8000656:	2080      	movs	r0, #128	; 0x80
 8000658:	0400      	lsls	r0, r0, #16
 800065a:	4301      	orrs	r1, r0
 800065c:	4653      	mov	r3, sl
 800065e:	2b38      	cmp	r3, #56	; 0x38
 8000660:	dc00      	bgt.n	8000664 <__aeabi_dadd+0x1b8>
 8000662:	e0e9      	b.n	8000838 <__aeabi_dadd+0x38c>
 8000664:	430a      	orrs	r2, r1
 8000666:	1e51      	subs	r1, r2, #1
 8000668:	418a      	sbcs	r2, r1
 800066a:	2100      	movs	r1, #0
 800066c:	19d2      	adds	r2, r2, r7
 800066e:	42ba      	cmp	r2, r7
 8000670:	41bf      	sbcs	r7, r7
 8000672:	1909      	adds	r1, r1, r4
 8000674:	427c      	negs	r4, r7
 8000676:	0017      	movs	r7, r2
 8000678:	190c      	adds	r4, r1, r4
 800067a:	0223      	lsls	r3, r4, #8
 800067c:	d5d3      	bpl.n	8000626 <__aeabi_dadd+0x17a>
 800067e:	4b6b      	ldr	r3, [pc, #428]	; (800082c <__aeabi_dadd+0x380>)
 8000680:	3601      	adds	r6, #1
 8000682:	429e      	cmp	r6, r3
 8000684:	d100      	bne.n	8000688 <__aeabi_dadd+0x1dc>
 8000686:	e13a      	b.n	80008fe <__aeabi_dadd+0x452>
 8000688:	2001      	movs	r0, #1
 800068a:	4b69      	ldr	r3, [pc, #420]	; (8000830 <__aeabi_dadd+0x384>)
 800068c:	401c      	ands	r4, r3
 800068e:	087b      	lsrs	r3, r7, #1
 8000690:	4007      	ands	r7, r0
 8000692:	431f      	orrs	r7, r3
 8000694:	07e0      	lsls	r0, r4, #31
 8000696:	4307      	orrs	r7, r0
 8000698:	0864      	lsrs	r4, r4, #1
 800069a:	e78b      	b.n	80005b4 <__aeabi_dadd+0x108>
 800069c:	0023      	movs	r3, r4
 800069e:	433b      	orrs	r3, r7
 80006a0:	d100      	bne.n	80006a4 <__aeabi_dadd+0x1f8>
 80006a2:	e1cb      	b.n	8000a3c <__aeabi_dadd+0x590>
 80006a4:	2280      	movs	r2, #128	; 0x80
 80006a6:	0312      	lsls	r2, r2, #12
 80006a8:	4314      	orrs	r4, r2
 80006aa:	0324      	lsls	r4, r4, #12
 80006ac:	0b24      	lsrs	r4, r4, #12
 80006ae:	e79e      	b.n	80005ee <__aeabi_dadd+0x142>
 80006b0:	002e      	movs	r6, r5
 80006b2:	e77f      	b.n	80005b4 <__aeabi_dadd+0x108>
 80006b4:	0008      	movs	r0, r1
 80006b6:	4310      	orrs	r0, r2
 80006b8:	d100      	bne.n	80006bc <__aeabi_dadd+0x210>
 80006ba:	e0b4      	b.n	8000826 <__aeabi_dadd+0x37a>
 80006bc:	1e58      	subs	r0, r3, #1
 80006be:	2800      	cmp	r0, #0
 80006c0:	d000      	beq.n	80006c4 <__aeabi_dadd+0x218>
 80006c2:	e0de      	b.n	8000882 <__aeabi_dadd+0x3d6>
 80006c4:	18ba      	adds	r2, r7, r2
 80006c6:	42ba      	cmp	r2, r7
 80006c8:	419b      	sbcs	r3, r3
 80006ca:	1864      	adds	r4, r4, r1
 80006cc:	425b      	negs	r3, r3
 80006ce:	18e4      	adds	r4, r4, r3
 80006d0:	0017      	movs	r7, r2
 80006d2:	2601      	movs	r6, #1
 80006d4:	0223      	lsls	r3, r4, #8
 80006d6:	d5a6      	bpl.n	8000626 <__aeabi_dadd+0x17a>
 80006d8:	2602      	movs	r6, #2
 80006da:	e7d5      	b.n	8000688 <__aeabi_dadd+0x1dc>
 80006dc:	2d00      	cmp	r5, #0
 80006de:	d16e      	bne.n	80007be <__aeabi_dadd+0x312>
 80006e0:	1c70      	adds	r0, r6, #1
 80006e2:	0540      	lsls	r0, r0, #21
 80006e4:	0d40      	lsrs	r0, r0, #21
 80006e6:	2801      	cmp	r0, #1
 80006e8:	dc00      	bgt.n	80006ec <__aeabi_dadd+0x240>
 80006ea:	e0f9      	b.n	80008e0 <__aeabi_dadd+0x434>
 80006ec:	1ab8      	subs	r0, r7, r2
 80006ee:	4684      	mov	ip, r0
 80006f0:	4287      	cmp	r7, r0
 80006f2:	4180      	sbcs	r0, r0
 80006f4:	1ae5      	subs	r5, r4, r3
 80006f6:	4240      	negs	r0, r0
 80006f8:	1a2d      	subs	r5, r5, r0
 80006fa:	0228      	lsls	r0, r5, #8
 80006fc:	d400      	bmi.n	8000700 <__aeabi_dadd+0x254>
 80006fe:	e089      	b.n	8000814 <__aeabi_dadd+0x368>
 8000700:	1bd7      	subs	r7, r2, r7
 8000702:	42ba      	cmp	r2, r7
 8000704:	4192      	sbcs	r2, r2
 8000706:	1b1c      	subs	r4, r3, r4
 8000708:	4252      	negs	r2, r2
 800070a:	1aa5      	subs	r5, r4, r2
 800070c:	46d8      	mov	r8, fp
 800070e:	e729      	b.n	8000564 <__aeabi_dadd+0xb8>
 8000710:	4645      	mov	r5, r8
 8000712:	2400      	movs	r4, #0
 8000714:	2700      	movs	r7, #0
 8000716:	e76a      	b.n	80005ee <__aeabi_dadd+0x142>
 8000718:	4c45      	ldr	r4, [pc, #276]	; (8000830 <__aeabi_dadd+0x384>)
 800071a:	1af6      	subs	r6, r6, r3
 800071c:	402c      	ands	r4, r5
 800071e:	e749      	b.n	80005b4 <__aeabi_dadd+0x108>
 8000720:	003d      	movs	r5, r7
 8000722:	3828      	subs	r0, #40	; 0x28
 8000724:	4085      	lsls	r5, r0
 8000726:	2700      	movs	r7, #0
 8000728:	e72e      	b.n	8000588 <__aeabi_dadd+0xdc>
 800072a:	0038      	movs	r0, r7
 800072c:	f000 fb02 	bl	8000d34 <__clzsi2>
 8000730:	3020      	adds	r0, #32
 8000732:	e71d      	b.n	8000570 <__aeabi_dadd+0xc4>
 8000734:	430a      	orrs	r2, r1
 8000736:	1e51      	subs	r1, r2, #1
 8000738:	418a      	sbcs	r2, r1
 800073a:	2100      	movs	r1, #0
 800073c:	e707      	b.n	800054e <__aeabi_dadd+0xa2>
 800073e:	2b00      	cmp	r3, #0
 8000740:	d000      	beq.n	8000744 <__aeabi_dadd+0x298>
 8000742:	e0f3      	b.n	800092c <__aeabi_dadd+0x480>
 8000744:	1c70      	adds	r0, r6, #1
 8000746:	0543      	lsls	r3, r0, #21
 8000748:	0d5b      	lsrs	r3, r3, #21
 800074a:	2b01      	cmp	r3, #1
 800074c:	dc00      	bgt.n	8000750 <__aeabi_dadd+0x2a4>
 800074e:	e0ad      	b.n	80008ac <__aeabi_dadd+0x400>
 8000750:	4b36      	ldr	r3, [pc, #216]	; (800082c <__aeabi_dadd+0x380>)
 8000752:	4298      	cmp	r0, r3
 8000754:	d100      	bne.n	8000758 <__aeabi_dadd+0x2ac>
 8000756:	e0d1      	b.n	80008fc <__aeabi_dadd+0x450>
 8000758:	18ba      	adds	r2, r7, r2
 800075a:	42ba      	cmp	r2, r7
 800075c:	41bf      	sbcs	r7, r7
 800075e:	1864      	adds	r4, r4, r1
 8000760:	427f      	negs	r7, r7
 8000762:	19e4      	adds	r4, r4, r7
 8000764:	07e7      	lsls	r7, r4, #31
 8000766:	0852      	lsrs	r2, r2, #1
 8000768:	4317      	orrs	r7, r2
 800076a:	0864      	lsrs	r4, r4, #1
 800076c:	0006      	movs	r6, r0
 800076e:	e721      	b.n	80005b4 <__aeabi_dadd+0x108>
 8000770:	482e      	ldr	r0, [pc, #184]	; (800082c <__aeabi_dadd+0x380>)
 8000772:	4285      	cmp	r5, r0
 8000774:	d100      	bne.n	8000778 <__aeabi_dadd+0x2cc>
 8000776:	e093      	b.n	80008a0 <__aeabi_dadd+0x3f4>
 8000778:	001d      	movs	r5, r3
 800077a:	e6d0      	b.n	800051e <__aeabi_dadd+0x72>
 800077c:	0029      	movs	r1, r5
 800077e:	3e1f      	subs	r6, #31
 8000780:	40f1      	lsrs	r1, r6
 8000782:	2b20      	cmp	r3, #32
 8000784:	d100      	bne.n	8000788 <__aeabi_dadd+0x2dc>
 8000786:	e08d      	b.n	80008a4 <__aeabi_dadd+0x3f8>
 8000788:	2240      	movs	r2, #64	; 0x40
 800078a:	1ad3      	subs	r3, r2, r3
 800078c:	409d      	lsls	r5, r3
 800078e:	432f      	orrs	r7, r5
 8000790:	1e7d      	subs	r5, r7, #1
 8000792:	41af      	sbcs	r7, r5
 8000794:	2400      	movs	r4, #0
 8000796:	430f      	orrs	r7, r1
 8000798:	2600      	movs	r6, #0
 800079a:	e744      	b.n	8000626 <__aeabi_dadd+0x17a>
 800079c:	002b      	movs	r3, r5
 800079e:	0008      	movs	r0, r1
 80007a0:	3b20      	subs	r3, #32
 80007a2:	40d8      	lsrs	r0, r3
 80007a4:	0003      	movs	r3, r0
 80007a6:	2d20      	cmp	r5, #32
 80007a8:	d100      	bne.n	80007ac <__aeabi_dadd+0x300>
 80007aa:	e07d      	b.n	80008a8 <__aeabi_dadd+0x3fc>
 80007ac:	2040      	movs	r0, #64	; 0x40
 80007ae:	1b45      	subs	r5, r0, r5
 80007b0:	40a9      	lsls	r1, r5
 80007b2:	430a      	orrs	r2, r1
 80007b4:	1e51      	subs	r1, r2, #1
 80007b6:	418a      	sbcs	r2, r1
 80007b8:	2100      	movs	r1, #0
 80007ba:	431a      	orrs	r2, r3
 80007bc:	e6c7      	b.n	800054e <__aeabi_dadd+0xa2>
 80007be:	2e00      	cmp	r6, #0
 80007c0:	d050      	beq.n	8000864 <__aeabi_dadd+0x3b8>
 80007c2:	4e1a      	ldr	r6, [pc, #104]	; (800082c <__aeabi_dadd+0x380>)
 80007c4:	42b0      	cmp	r0, r6
 80007c6:	d057      	beq.n	8000878 <__aeabi_dadd+0x3cc>
 80007c8:	2680      	movs	r6, #128	; 0x80
 80007ca:	426b      	negs	r3, r5
 80007cc:	4699      	mov	r9, r3
 80007ce:	0436      	lsls	r6, r6, #16
 80007d0:	4334      	orrs	r4, r6
 80007d2:	464b      	mov	r3, r9
 80007d4:	2b38      	cmp	r3, #56	; 0x38
 80007d6:	dd00      	ble.n	80007da <__aeabi_dadd+0x32e>
 80007d8:	e0d6      	b.n	8000988 <__aeabi_dadd+0x4dc>
 80007da:	2b1f      	cmp	r3, #31
 80007dc:	dd00      	ble.n	80007e0 <__aeabi_dadd+0x334>
 80007de:	e135      	b.n	8000a4c <__aeabi_dadd+0x5a0>
 80007e0:	2620      	movs	r6, #32
 80007e2:	1af5      	subs	r5, r6, r3
 80007e4:	0026      	movs	r6, r4
 80007e6:	40ae      	lsls	r6, r5
 80007e8:	46b2      	mov	sl, r6
 80007ea:	003e      	movs	r6, r7
 80007ec:	40de      	lsrs	r6, r3
 80007ee:	46ac      	mov	ip, r5
 80007f0:	0035      	movs	r5, r6
 80007f2:	4656      	mov	r6, sl
 80007f4:	432e      	orrs	r6, r5
 80007f6:	4665      	mov	r5, ip
 80007f8:	40af      	lsls	r7, r5
 80007fa:	1e7d      	subs	r5, r7, #1
 80007fc:	41af      	sbcs	r7, r5
 80007fe:	40dc      	lsrs	r4, r3
 8000800:	4337      	orrs	r7, r6
 8000802:	1bd7      	subs	r7, r2, r7
 8000804:	42ba      	cmp	r2, r7
 8000806:	4192      	sbcs	r2, r2
 8000808:	1b0c      	subs	r4, r1, r4
 800080a:	4252      	negs	r2, r2
 800080c:	1aa4      	subs	r4, r4, r2
 800080e:	0006      	movs	r6, r0
 8000810:	46d8      	mov	r8, fp
 8000812:	e6a3      	b.n	800055c <__aeabi_dadd+0xb0>
 8000814:	4664      	mov	r4, ip
 8000816:	4667      	mov	r7, ip
 8000818:	432c      	orrs	r4, r5
 800081a:	d000      	beq.n	800081e <__aeabi_dadd+0x372>
 800081c:	e6a2      	b.n	8000564 <__aeabi_dadd+0xb8>
 800081e:	2500      	movs	r5, #0
 8000820:	2600      	movs	r6, #0
 8000822:	2700      	movs	r7, #0
 8000824:	e706      	b.n	8000634 <__aeabi_dadd+0x188>
 8000826:	001e      	movs	r6, r3
 8000828:	e6c4      	b.n	80005b4 <__aeabi_dadd+0x108>
 800082a:	46c0      	nop			; (mov r8, r8)
 800082c:	000007ff 	.word	0x000007ff
 8000830:	ff7fffff 	.word	0xff7fffff
 8000834:	800fffff 	.word	0x800fffff
 8000838:	2b1f      	cmp	r3, #31
 800083a:	dc63      	bgt.n	8000904 <__aeabi_dadd+0x458>
 800083c:	2020      	movs	r0, #32
 800083e:	1ac3      	subs	r3, r0, r3
 8000840:	0008      	movs	r0, r1
 8000842:	4098      	lsls	r0, r3
 8000844:	469c      	mov	ip, r3
 8000846:	4683      	mov	fp, r0
 8000848:	4653      	mov	r3, sl
 800084a:	0010      	movs	r0, r2
 800084c:	40d8      	lsrs	r0, r3
 800084e:	0003      	movs	r3, r0
 8000850:	4658      	mov	r0, fp
 8000852:	4318      	orrs	r0, r3
 8000854:	4663      	mov	r3, ip
 8000856:	409a      	lsls	r2, r3
 8000858:	1e53      	subs	r3, r2, #1
 800085a:	419a      	sbcs	r2, r3
 800085c:	4653      	mov	r3, sl
 800085e:	4302      	orrs	r2, r0
 8000860:	40d9      	lsrs	r1, r3
 8000862:	e703      	b.n	800066c <__aeabi_dadd+0x1c0>
 8000864:	0026      	movs	r6, r4
 8000866:	433e      	orrs	r6, r7
 8000868:	d006      	beq.n	8000878 <__aeabi_dadd+0x3cc>
 800086a:	43eb      	mvns	r3, r5
 800086c:	4699      	mov	r9, r3
 800086e:	2b00      	cmp	r3, #0
 8000870:	d0c7      	beq.n	8000802 <__aeabi_dadd+0x356>
 8000872:	4e94      	ldr	r6, [pc, #592]	; (8000ac4 <__aeabi_dadd+0x618>)
 8000874:	42b0      	cmp	r0, r6
 8000876:	d1ac      	bne.n	80007d2 <__aeabi_dadd+0x326>
 8000878:	000c      	movs	r4, r1
 800087a:	0017      	movs	r7, r2
 800087c:	0006      	movs	r6, r0
 800087e:	46d8      	mov	r8, fp
 8000880:	e698      	b.n	80005b4 <__aeabi_dadd+0x108>
 8000882:	4b90      	ldr	r3, [pc, #576]	; (8000ac4 <__aeabi_dadd+0x618>)
 8000884:	459a      	cmp	sl, r3
 8000886:	d00b      	beq.n	80008a0 <__aeabi_dadd+0x3f4>
 8000888:	4682      	mov	sl, r0
 800088a:	e6e7      	b.n	800065c <__aeabi_dadd+0x1b0>
 800088c:	2800      	cmp	r0, #0
 800088e:	d000      	beq.n	8000892 <__aeabi_dadd+0x3e6>
 8000890:	e09e      	b.n	80009d0 <__aeabi_dadd+0x524>
 8000892:	0018      	movs	r0, r3
 8000894:	4310      	orrs	r0, r2
 8000896:	d100      	bne.n	800089a <__aeabi_dadd+0x3ee>
 8000898:	e0e9      	b.n	8000a6e <__aeabi_dadd+0x5c2>
 800089a:	001c      	movs	r4, r3
 800089c:	0017      	movs	r7, r2
 800089e:	46d8      	mov	r8, fp
 80008a0:	4e88      	ldr	r6, [pc, #544]	; (8000ac4 <__aeabi_dadd+0x618>)
 80008a2:	e687      	b.n	80005b4 <__aeabi_dadd+0x108>
 80008a4:	2500      	movs	r5, #0
 80008a6:	e772      	b.n	800078e <__aeabi_dadd+0x2e2>
 80008a8:	2100      	movs	r1, #0
 80008aa:	e782      	b.n	80007b2 <__aeabi_dadd+0x306>
 80008ac:	0023      	movs	r3, r4
 80008ae:	433b      	orrs	r3, r7
 80008b0:	2e00      	cmp	r6, #0
 80008b2:	d000      	beq.n	80008b6 <__aeabi_dadd+0x40a>
 80008b4:	e0ab      	b.n	8000a0e <__aeabi_dadd+0x562>
 80008b6:	2b00      	cmp	r3, #0
 80008b8:	d100      	bne.n	80008bc <__aeabi_dadd+0x410>
 80008ba:	e0e7      	b.n	8000a8c <__aeabi_dadd+0x5e0>
 80008bc:	000b      	movs	r3, r1
 80008be:	4313      	orrs	r3, r2
 80008c0:	d100      	bne.n	80008c4 <__aeabi_dadd+0x418>
 80008c2:	e677      	b.n	80005b4 <__aeabi_dadd+0x108>
 80008c4:	18ba      	adds	r2, r7, r2
 80008c6:	42ba      	cmp	r2, r7
 80008c8:	41bf      	sbcs	r7, r7
 80008ca:	1864      	adds	r4, r4, r1
 80008cc:	427f      	negs	r7, r7
 80008ce:	19e4      	adds	r4, r4, r7
 80008d0:	0223      	lsls	r3, r4, #8
 80008d2:	d400      	bmi.n	80008d6 <__aeabi_dadd+0x42a>
 80008d4:	e0f2      	b.n	8000abc <__aeabi_dadd+0x610>
 80008d6:	4b7c      	ldr	r3, [pc, #496]	; (8000ac8 <__aeabi_dadd+0x61c>)
 80008d8:	0017      	movs	r7, r2
 80008da:	401c      	ands	r4, r3
 80008dc:	0006      	movs	r6, r0
 80008de:	e669      	b.n	80005b4 <__aeabi_dadd+0x108>
 80008e0:	0020      	movs	r0, r4
 80008e2:	4338      	orrs	r0, r7
 80008e4:	2e00      	cmp	r6, #0
 80008e6:	d1d1      	bne.n	800088c <__aeabi_dadd+0x3e0>
 80008e8:	2800      	cmp	r0, #0
 80008ea:	d15b      	bne.n	80009a4 <__aeabi_dadd+0x4f8>
 80008ec:	001c      	movs	r4, r3
 80008ee:	4314      	orrs	r4, r2
 80008f0:	d100      	bne.n	80008f4 <__aeabi_dadd+0x448>
 80008f2:	e0a8      	b.n	8000a46 <__aeabi_dadd+0x59a>
 80008f4:	001c      	movs	r4, r3
 80008f6:	0017      	movs	r7, r2
 80008f8:	46d8      	mov	r8, fp
 80008fa:	e65b      	b.n	80005b4 <__aeabi_dadd+0x108>
 80008fc:	0006      	movs	r6, r0
 80008fe:	2400      	movs	r4, #0
 8000900:	2700      	movs	r7, #0
 8000902:	e697      	b.n	8000634 <__aeabi_dadd+0x188>
 8000904:	4650      	mov	r0, sl
 8000906:	000b      	movs	r3, r1
 8000908:	3820      	subs	r0, #32
 800090a:	40c3      	lsrs	r3, r0
 800090c:	4699      	mov	r9, r3
 800090e:	4653      	mov	r3, sl
 8000910:	2b20      	cmp	r3, #32
 8000912:	d100      	bne.n	8000916 <__aeabi_dadd+0x46a>
 8000914:	e095      	b.n	8000a42 <__aeabi_dadd+0x596>
 8000916:	2340      	movs	r3, #64	; 0x40
 8000918:	4650      	mov	r0, sl
 800091a:	1a1b      	subs	r3, r3, r0
 800091c:	4099      	lsls	r1, r3
 800091e:	430a      	orrs	r2, r1
 8000920:	1e51      	subs	r1, r2, #1
 8000922:	418a      	sbcs	r2, r1
 8000924:	464b      	mov	r3, r9
 8000926:	2100      	movs	r1, #0
 8000928:	431a      	orrs	r2, r3
 800092a:	e69f      	b.n	800066c <__aeabi_dadd+0x1c0>
 800092c:	2e00      	cmp	r6, #0
 800092e:	d130      	bne.n	8000992 <__aeabi_dadd+0x4e6>
 8000930:	0026      	movs	r6, r4
 8000932:	433e      	orrs	r6, r7
 8000934:	d067      	beq.n	8000a06 <__aeabi_dadd+0x55a>
 8000936:	43db      	mvns	r3, r3
 8000938:	469a      	mov	sl, r3
 800093a:	2b00      	cmp	r3, #0
 800093c:	d01c      	beq.n	8000978 <__aeabi_dadd+0x4cc>
 800093e:	4e61      	ldr	r6, [pc, #388]	; (8000ac4 <__aeabi_dadd+0x618>)
 8000940:	42b0      	cmp	r0, r6
 8000942:	d060      	beq.n	8000a06 <__aeabi_dadd+0x55a>
 8000944:	4653      	mov	r3, sl
 8000946:	2b38      	cmp	r3, #56	; 0x38
 8000948:	dd00      	ble.n	800094c <__aeabi_dadd+0x4a0>
 800094a:	e096      	b.n	8000a7a <__aeabi_dadd+0x5ce>
 800094c:	2b1f      	cmp	r3, #31
 800094e:	dd00      	ble.n	8000952 <__aeabi_dadd+0x4a6>
 8000950:	e09f      	b.n	8000a92 <__aeabi_dadd+0x5e6>
 8000952:	2620      	movs	r6, #32
 8000954:	1af3      	subs	r3, r6, r3
 8000956:	0026      	movs	r6, r4
 8000958:	409e      	lsls	r6, r3
 800095a:	469c      	mov	ip, r3
 800095c:	46b3      	mov	fp, r6
 800095e:	4653      	mov	r3, sl
 8000960:	003e      	movs	r6, r7
 8000962:	40de      	lsrs	r6, r3
 8000964:	0033      	movs	r3, r6
 8000966:	465e      	mov	r6, fp
 8000968:	431e      	orrs	r6, r3
 800096a:	4663      	mov	r3, ip
 800096c:	409f      	lsls	r7, r3
 800096e:	1e7b      	subs	r3, r7, #1
 8000970:	419f      	sbcs	r7, r3
 8000972:	4653      	mov	r3, sl
 8000974:	40dc      	lsrs	r4, r3
 8000976:	4337      	orrs	r7, r6
 8000978:	18bf      	adds	r7, r7, r2
 800097a:	4297      	cmp	r7, r2
 800097c:	4192      	sbcs	r2, r2
 800097e:	1864      	adds	r4, r4, r1
 8000980:	4252      	negs	r2, r2
 8000982:	18a4      	adds	r4, r4, r2
 8000984:	0006      	movs	r6, r0
 8000986:	e678      	b.n	800067a <__aeabi_dadd+0x1ce>
 8000988:	4327      	orrs	r7, r4
 800098a:	1e7c      	subs	r4, r7, #1
 800098c:	41a7      	sbcs	r7, r4
 800098e:	2400      	movs	r4, #0
 8000990:	e737      	b.n	8000802 <__aeabi_dadd+0x356>
 8000992:	4e4c      	ldr	r6, [pc, #304]	; (8000ac4 <__aeabi_dadd+0x618>)
 8000994:	42b0      	cmp	r0, r6
 8000996:	d036      	beq.n	8000a06 <__aeabi_dadd+0x55a>
 8000998:	2680      	movs	r6, #128	; 0x80
 800099a:	425b      	negs	r3, r3
 800099c:	0436      	lsls	r6, r6, #16
 800099e:	469a      	mov	sl, r3
 80009a0:	4334      	orrs	r4, r6
 80009a2:	e7cf      	b.n	8000944 <__aeabi_dadd+0x498>
 80009a4:	0018      	movs	r0, r3
 80009a6:	4310      	orrs	r0, r2
 80009a8:	d100      	bne.n	80009ac <__aeabi_dadd+0x500>
 80009aa:	e603      	b.n	80005b4 <__aeabi_dadd+0x108>
 80009ac:	1ab8      	subs	r0, r7, r2
 80009ae:	4684      	mov	ip, r0
 80009b0:	4567      	cmp	r7, ip
 80009b2:	41ad      	sbcs	r5, r5
 80009b4:	1ae0      	subs	r0, r4, r3
 80009b6:	426d      	negs	r5, r5
 80009b8:	1b40      	subs	r0, r0, r5
 80009ba:	0205      	lsls	r5, r0, #8
 80009bc:	d400      	bmi.n	80009c0 <__aeabi_dadd+0x514>
 80009be:	e62c      	b.n	800061a <__aeabi_dadd+0x16e>
 80009c0:	1bd7      	subs	r7, r2, r7
 80009c2:	42ba      	cmp	r2, r7
 80009c4:	4192      	sbcs	r2, r2
 80009c6:	1b1c      	subs	r4, r3, r4
 80009c8:	4252      	negs	r2, r2
 80009ca:	1aa4      	subs	r4, r4, r2
 80009cc:	46d8      	mov	r8, fp
 80009ce:	e5f1      	b.n	80005b4 <__aeabi_dadd+0x108>
 80009d0:	0018      	movs	r0, r3
 80009d2:	4310      	orrs	r0, r2
 80009d4:	d100      	bne.n	80009d8 <__aeabi_dadd+0x52c>
 80009d6:	e763      	b.n	80008a0 <__aeabi_dadd+0x3f4>
 80009d8:	08f8      	lsrs	r0, r7, #3
 80009da:	0767      	lsls	r7, r4, #29
 80009dc:	4307      	orrs	r7, r0
 80009de:	2080      	movs	r0, #128	; 0x80
 80009e0:	08e4      	lsrs	r4, r4, #3
 80009e2:	0300      	lsls	r0, r0, #12
 80009e4:	4204      	tst	r4, r0
 80009e6:	d008      	beq.n	80009fa <__aeabi_dadd+0x54e>
 80009e8:	08dd      	lsrs	r5, r3, #3
 80009ea:	4205      	tst	r5, r0
 80009ec:	d105      	bne.n	80009fa <__aeabi_dadd+0x54e>
 80009ee:	08d2      	lsrs	r2, r2, #3
 80009f0:	0759      	lsls	r1, r3, #29
 80009f2:	4311      	orrs	r1, r2
 80009f4:	000f      	movs	r7, r1
 80009f6:	002c      	movs	r4, r5
 80009f8:	46d8      	mov	r8, fp
 80009fa:	0f7b      	lsrs	r3, r7, #29
 80009fc:	00e4      	lsls	r4, r4, #3
 80009fe:	431c      	orrs	r4, r3
 8000a00:	00ff      	lsls	r7, r7, #3
 8000a02:	4e30      	ldr	r6, [pc, #192]	; (8000ac4 <__aeabi_dadd+0x618>)
 8000a04:	e5d6      	b.n	80005b4 <__aeabi_dadd+0x108>
 8000a06:	000c      	movs	r4, r1
 8000a08:	0017      	movs	r7, r2
 8000a0a:	0006      	movs	r6, r0
 8000a0c:	e5d2      	b.n	80005b4 <__aeabi_dadd+0x108>
 8000a0e:	2b00      	cmp	r3, #0
 8000a10:	d038      	beq.n	8000a84 <__aeabi_dadd+0x5d8>
 8000a12:	000b      	movs	r3, r1
 8000a14:	4313      	orrs	r3, r2
 8000a16:	d100      	bne.n	8000a1a <__aeabi_dadd+0x56e>
 8000a18:	e742      	b.n	80008a0 <__aeabi_dadd+0x3f4>
 8000a1a:	08f8      	lsrs	r0, r7, #3
 8000a1c:	0767      	lsls	r7, r4, #29
 8000a1e:	4307      	orrs	r7, r0
 8000a20:	2080      	movs	r0, #128	; 0x80
 8000a22:	08e4      	lsrs	r4, r4, #3
 8000a24:	0300      	lsls	r0, r0, #12
 8000a26:	4204      	tst	r4, r0
 8000a28:	d0e7      	beq.n	80009fa <__aeabi_dadd+0x54e>
 8000a2a:	08cb      	lsrs	r3, r1, #3
 8000a2c:	4203      	tst	r3, r0
 8000a2e:	d1e4      	bne.n	80009fa <__aeabi_dadd+0x54e>
 8000a30:	08d2      	lsrs	r2, r2, #3
 8000a32:	0749      	lsls	r1, r1, #29
 8000a34:	4311      	orrs	r1, r2
 8000a36:	000f      	movs	r7, r1
 8000a38:	001c      	movs	r4, r3
 8000a3a:	e7de      	b.n	80009fa <__aeabi_dadd+0x54e>
 8000a3c:	2700      	movs	r7, #0
 8000a3e:	2400      	movs	r4, #0
 8000a40:	e5d5      	b.n	80005ee <__aeabi_dadd+0x142>
 8000a42:	2100      	movs	r1, #0
 8000a44:	e76b      	b.n	800091e <__aeabi_dadd+0x472>
 8000a46:	2500      	movs	r5, #0
 8000a48:	2700      	movs	r7, #0
 8000a4a:	e5f3      	b.n	8000634 <__aeabi_dadd+0x188>
 8000a4c:	464e      	mov	r6, r9
 8000a4e:	0025      	movs	r5, r4
 8000a50:	3e20      	subs	r6, #32
 8000a52:	40f5      	lsrs	r5, r6
 8000a54:	464b      	mov	r3, r9
 8000a56:	002e      	movs	r6, r5
 8000a58:	2b20      	cmp	r3, #32
 8000a5a:	d02d      	beq.n	8000ab8 <__aeabi_dadd+0x60c>
 8000a5c:	2540      	movs	r5, #64	; 0x40
 8000a5e:	1aed      	subs	r5, r5, r3
 8000a60:	40ac      	lsls	r4, r5
 8000a62:	4327      	orrs	r7, r4
 8000a64:	1e7c      	subs	r4, r7, #1
 8000a66:	41a7      	sbcs	r7, r4
 8000a68:	2400      	movs	r4, #0
 8000a6a:	4337      	orrs	r7, r6
 8000a6c:	e6c9      	b.n	8000802 <__aeabi_dadd+0x356>
 8000a6e:	2480      	movs	r4, #128	; 0x80
 8000a70:	2500      	movs	r5, #0
 8000a72:	0324      	lsls	r4, r4, #12
 8000a74:	4e13      	ldr	r6, [pc, #76]	; (8000ac4 <__aeabi_dadd+0x618>)
 8000a76:	2700      	movs	r7, #0
 8000a78:	e5dc      	b.n	8000634 <__aeabi_dadd+0x188>
 8000a7a:	4327      	orrs	r7, r4
 8000a7c:	1e7c      	subs	r4, r7, #1
 8000a7e:	41a7      	sbcs	r7, r4
 8000a80:	2400      	movs	r4, #0
 8000a82:	e779      	b.n	8000978 <__aeabi_dadd+0x4cc>
 8000a84:	000c      	movs	r4, r1
 8000a86:	0017      	movs	r7, r2
 8000a88:	4e0e      	ldr	r6, [pc, #56]	; (8000ac4 <__aeabi_dadd+0x618>)
 8000a8a:	e593      	b.n	80005b4 <__aeabi_dadd+0x108>
 8000a8c:	000c      	movs	r4, r1
 8000a8e:	0017      	movs	r7, r2
 8000a90:	e590      	b.n	80005b4 <__aeabi_dadd+0x108>
 8000a92:	4656      	mov	r6, sl
 8000a94:	0023      	movs	r3, r4
 8000a96:	3e20      	subs	r6, #32
 8000a98:	40f3      	lsrs	r3, r6
 8000a9a:	4699      	mov	r9, r3
 8000a9c:	4653      	mov	r3, sl
 8000a9e:	2b20      	cmp	r3, #32
 8000aa0:	d00e      	beq.n	8000ac0 <__aeabi_dadd+0x614>
 8000aa2:	2340      	movs	r3, #64	; 0x40
 8000aa4:	4656      	mov	r6, sl
 8000aa6:	1b9b      	subs	r3, r3, r6
 8000aa8:	409c      	lsls	r4, r3
 8000aaa:	4327      	orrs	r7, r4
 8000aac:	1e7c      	subs	r4, r7, #1
 8000aae:	41a7      	sbcs	r7, r4
 8000ab0:	464b      	mov	r3, r9
 8000ab2:	2400      	movs	r4, #0
 8000ab4:	431f      	orrs	r7, r3
 8000ab6:	e75f      	b.n	8000978 <__aeabi_dadd+0x4cc>
 8000ab8:	2400      	movs	r4, #0
 8000aba:	e7d2      	b.n	8000a62 <__aeabi_dadd+0x5b6>
 8000abc:	0017      	movs	r7, r2
 8000abe:	e5b2      	b.n	8000626 <__aeabi_dadd+0x17a>
 8000ac0:	2400      	movs	r4, #0
 8000ac2:	e7f2      	b.n	8000aaa <__aeabi_dadd+0x5fe>
 8000ac4:	000007ff 	.word	0x000007ff
 8000ac8:	ff7fffff 	.word	0xff7fffff

08000acc <__eqdf2>:
 8000acc:	b5f0      	push	{r4, r5, r6, r7, lr}
 8000ace:	464f      	mov	r7, r9
 8000ad0:	4646      	mov	r6, r8
 8000ad2:	46d6      	mov	lr, sl
 8000ad4:	005c      	lsls	r4, r3, #1
 8000ad6:	b5c0      	push	{r6, r7, lr}
 8000ad8:	031f      	lsls	r7, r3, #12
 8000ada:	0fdb      	lsrs	r3, r3, #31
 8000adc:	469a      	mov	sl, r3
 8000ade:	4b17      	ldr	r3, [pc, #92]	; (8000b3c <__eqdf2+0x70>)
 8000ae0:	030e      	lsls	r6, r1, #12
 8000ae2:	004d      	lsls	r5, r1, #1
 8000ae4:	4684      	mov	ip, r0
 8000ae6:	4680      	mov	r8, r0
 8000ae8:	0b36      	lsrs	r6, r6, #12
 8000aea:	0d6d      	lsrs	r5, r5, #21
 8000aec:	0fc9      	lsrs	r1, r1, #31
 8000aee:	4691      	mov	r9, r2
 8000af0:	0b3f      	lsrs	r7, r7, #12
 8000af2:	0d64      	lsrs	r4, r4, #21
 8000af4:	2001      	movs	r0, #1
 8000af6:	429d      	cmp	r5, r3
 8000af8:	d008      	beq.n	8000b0c <__eqdf2+0x40>
 8000afa:	429c      	cmp	r4, r3
 8000afc:	d001      	beq.n	8000b02 <__eqdf2+0x36>
 8000afe:	42a5      	cmp	r5, r4
 8000b00:	d00b      	beq.n	8000b1a <__eqdf2+0x4e>
 8000b02:	bc1c      	pop	{r2, r3, r4}
 8000b04:	4690      	mov	r8, r2
 8000b06:	4699      	mov	r9, r3
 8000b08:	46a2      	mov	sl, r4
 8000b0a:	bdf0      	pop	{r4, r5, r6, r7, pc}
 8000b0c:	4663      	mov	r3, ip
 8000b0e:	4333      	orrs	r3, r6
 8000b10:	d1f7      	bne.n	8000b02 <__eqdf2+0x36>
 8000b12:	42ac      	cmp	r4, r5
 8000b14:	d1f5      	bne.n	8000b02 <__eqdf2+0x36>
 8000b16:	433a      	orrs	r2, r7
 8000b18:	d1f3      	bne.n	8000b02 <__eqdf2+0x36>
 8000b1a:	2001      	movs	r0, #1
 8000b1c:	42be      	cmp	r6, r7
 8000b1e:	d1f0      	bne.n	8000b02 <__eqdf2+0x36>
 8000b20:	45c8      	cmp	r8, r9
 8000b22:	d1ee      	bne.n	8000b02 <__eqdf2+0x36>
 8000b24:	4551      	cmp	r1, sl
 8000b26:	d007      	beq.n	8000b38 <__eqdf2+0x6c>
 8000b28:	2d00      	cmp	r5, #0
 8000b2a:	d1ea      	bne.n	8000b02 <__eqdf2+0x36>
 8000b2c:	4663      	mov	r3, ip
 8000b2e:	431e      	orrs	r6, r3
 8000b30:	0030      	movs	r0, r6
 8000b32:	1e46      	subs	r6, r0, #1
 8000b34:	41b0      	sbcs	r0, r6
 8000b36:	e7e4      	b.n	8000b02 <__eqdf2+0x36>
 8000b38:	2000      	movs	r0, #0
 8000b3a:	e7e2      	b.n	8000b02 <__eqdf2+0x36>
 8000b3c:	000007ff 	.word	0x000007ff

08000b40 <__gedf2>:
 8000b40:	b5f0      	push	{r4, r5, r6, r7, lr}
 8000b42:	4645      	mov	r5, r8
 8000b44:	46de      	mov	lr, fp
 8000b46:	4657      	mov	r7, sl
 8000b48:	464e      	mov	r6, r9
 8000b4a:	b5e0      	push	{r5, r6, r7, lr}
 8000b4c:	031f      	lsls	r7, r3, #12
 8000b4e:	0b3d      	lsrs	r5, r7, #12
 8000b50:	4f2c      	ldr	r7, [pc, #176]	; (8000c04 <__gedf2+0xc4>)
 8000b52:	030e      	lsls	r6, r1, #12
 8000b54:	004c      	lsls	r4, r1, #1
 8000b56:	46ab      	mov	fp, r5
 8000b58:	005d      	lsls	r5, r3, #1
 8000b5a:	4684      	mov	ip, r0
 8000b5c:	0b36      	lsrs	r6, r6, #12
 8000b5e:	0d64      	lsrs	r4, r4, #21
 8000b60:	0fc9      	lsrs	r1, r1, #31
 8000b62:	4690      	mov	r8, r2
 8000b64:	0d6d      	lsrs	r5, r5, #21
 8000b66:	0fdb      	lsrs	r3, r3, #31
 8000b68:	42bc      	cmp	r4, r7
 8000b6a:	d02a      	beq.n	8000bc2 <__gedf2+0x82>
 8000b6c:	4f25      	ldr	r7, [pc, #148]	; (8000c04 <__gedf2+0xc4>)
 8000b6e:	42bd      	cmp	r5, r7
 8000b70:	d02d      	beq.n	8000bce <__gedf2+0x8e>
 8000b72:	2c00      	cmp	r4, #0
 8000b74:	d10f      	bne.n	8000b96 <__gedf2+0x56>
 8000b76:	4330      	orrs	r0, r6
 8000b78:	0007      	movs	r7, r0
 8000b7a:	4681      	mov	r9, r0
 8000b7c:	4278      	negs	r0, r7
 8000b7e:	4178      	adcs	r0, r7
 8000b80:	b2c0      	uxtb	r0, r0
 8000b82:	2d00      	cmp	r5, #0
 8000b84:	d117      	bne.n	8000bb6 <__gedf2+0x76>
 8000b86:	465f      	mov	r7, fp
 8000b88:	433a      	orrs	r2, r7
 8000b8a:	d114      	bne.n	8000bb6 <__gedf2+0x76>
 8000b8c:	464b      	mov	r3, r9
 8000b8e:	2000      	movs	r0, #0
 8000b90:	2b00      	cmp	r3, #0
 8000b92:	d00a      	beq.n	8000baa <__gedf2+0x6a>
 8000b94:	e006      	b.n	8000ba4 <__gedf2+0x64>
 8000b96:	2d00      	cmp	r5, #0
 8000b98:	d102      	bne.n	8000ba0 <__gedf2+0x60>
 8000b9a:	4658      	mov	r0, fp
 8000b9c:	4302      	orrs	r2, r0
 8000b9e:	d001      	beq.n	8000ba4 <__gedf2+0x64>
 8000ba0:	4299      	cmp	r1, r3
 8000ba2:	d018      	beq.n	8000bd6 <__gedf2+0x96>
 8000ba4:	4248      	negs	r0, r1
 8000ba6:	2101      	movs	r1, #1
 8000ba8:	4308      	orrs	r0, r1
 8000baa:	bc3c      	pop	{r2, r3, r4, r5}
 8000bac:	4690      	mov	r8, r2
 8000bae:	4699      	mov	r9, r3
 8000bb0:	46a2      	mov	sl, r4
 8000bb2:	46ab      	mov	fp, r5
 8000bb4:	bdf0      	pop	{r4, r5, r6, r7, pc}
 8000bb6:	2800      	cmp	r0, #0
 8000bb8:	d0f2      	beq.n	8000ba0 <__gedf2+0x60>
 8000bba:	2001      	movs	r0, #1
 8000bbc:	3b01      	subs	r3, #1
 8000bbe:	4318      	orrs	r0, r3
 8000bc0:	e7f3      	b.n	8000baa <__gedf2+0x6a>
 8000bc2:	0037      	movs	r7, r6
 8000bc4:	4307      	orrs	r7, r0
 8000bc6:	d0d1      	beq.n	8000b6c <__gedf2+0x2c>
 8000bc8:	2002      	movs	r0, #2
 8000bca:	4240      	negs	r0, r0
 8000bcc:	e7ed      	b.n	8000baa <__gedf2+0x6a>
 8000bce:	465f      	mov	r7, fp
 8000bd0:	4317      	orrs	r7, r2
 8000bd2:	d0ce      	beq.n	8000b72 <__gedf2+0x32>
 8000bd4:	e7f8      	b.n	8000bc8 <__gedf2+0x88>
 8000bd6:	42ac      	cmp	r4, r5
 8000bd8:	dce4      	bgt.n	8000ba4 <__gedf2+0x64>
 8000bda:	da03      	bge.n	8000be4 <__gedf2+0xa4>
 8000bdc:	1e48      	subs	r0, r1, #1
 8000bde:	2101      	movs	r1, #1
 8000be0:	4308      	orrs	r0, r1
 8000be2:	e7e2      	b.n	8000baa <__gedf2+0x6a>
 8000be4:	455e      	cmp	r6, fp
 8000be6:	d8dd      	bhi.n	8000ba4 <__gedf2+0x64>
 8000be8:	d006      	beq.n	8000bf8 <__gedf2+0xb8>
 8000bea:	2000      	movs	r0, #0
 8000bec:	455e      	cmp	r6, fp
 8000bee:	d2dc      	bcs.n	8000baa <__gedf2+0x6a>
 8000bf0:	2301      	movs	r3, #1
 8000bf2:	1e48      	subs	r0, r1, #1
 8000bf4:	4318      	orrs	r0, r3
 8000bf6:	e7d8      	b.n	8000baa <__gedf2+0x6a>
 8000bf8:	45c4      	cmp	ip, r8
 8000bfa:	d8d3      	bhi.n	8000ba4 <__gedf2+0x64>
 8000bfc:	2000      	movs	r0, #0
 8000bfe:	45c4      	cmp	ip, r8
 8000c00:	d3f6      	bcc.n	8000bf0 <__gedf2+0xb0>
 8000c02:	e7d2      	b.n	8000baa <__gedf2+0x6a>
 8000c04:	000007ff 	.word	0x000007ff

08000c08 <__ledf2>:
 8000c08:	b5f0      	push	{r4, r5, r6, r7, lr}
 8000c0a:	464e      	mov	r6, r9
 8000c0c:	4645      	mov	r5, r8
 8000c0e:	46de      	mov	lr, fp
 8000c10:	4657      	mov	r7, sl
 8000c12:	005c      	lsls	r4, r3, #1
 8000c14:	b5e0      	push	{r5, r6, r7, lr}
 8000c16:	031f      	lsls	r7, r3, #12
 8000c18:	0fdb      	lsrs	r3, r3, #31
 8000c1a:	4699      	mov	r9, r3
 8000c1c:	4b2a      	ldr	r3, [pc, #168]	; (8000cc8 <__ledf2+0xc0>)
 8000c1e:	030e      	lsls	r6, r1, #12
 8000c20:	004d      	lsls	r5, r1, #1
 8000c22:	0fc9      	lsrs	r1, r1, #31
 8000c24:	4684      	mov	ip, r0
 8000c26:	0b36      	lsrs	r6, r6, #12
 8000c28:	0d6d      	lsrs	r5, r5, #21
 8000c2a:	468b      	mov	fp, r1
 8000c2c:	4690      	mov	r8, r2
 8000c2e:	0b3f      	lsrs	r7, r7, #12
 8000c30:	0d64      	lsrs	r4, r4, #21
 8000c32:	429d      	cmp	r5, r3
 8000c34:	d020      	beq.n	8000c78 <__ledf2+0x70>
 8000c36:	4b24      	ldr	r3, [pc, #144]	; (8000cc8 <__ledf2+0xc0>)
 8000c38:	429c      	cmp	r4, r3
 8000c3a:	d022      	beq.n	8000c82 <__ledf2+0x7a>
 8000c3c:	2d00      	cmp	r5, #0
 8000c3e:	d112      	bne.n	8000c66 <__ledf2+0x5e>
 8000c40:	4330      	orrs	r0, r6
 8000c42:	4243      	negs	r3, r0
 8000c44:	4143      	adcs	r3, r0
 8000c46:	b2db      	uxtb	r3, r3
 8000c48:	2c00      	cmp	r4, #0
 8000c4a:	d01f      	beq.n	8000c8c <__ledf2+0x84>
 8000c4c:	2b00      	cmp	r3, #0
 8000c4e:	d00c      	beq.n	8000c6a <__ledf2+0x62>
 8000c50:	464b      	mov	r3, r9
 8000c52:	2001      	movs	r0, #1
 8000c54:	3b01      	subs	r3, #1
 8000c56:	4303      	orrs	r3, r0
 8000c58:	0018      	movs	r0, r3
 8000c5a:	bc3c      	pop	{r2, r3, r4, r5}
 8000c5c:	4690      	mov	r8, r2
 8000c5e:	4699      	mov	r9, r3
 8000c60:	46a2      	mov	sl, r4
 8000c62:	46ab      	mov	fp, r5
 8000c64:	bdf0      	pop	{r4, r5, r6, r7, pc}
 8000c66:	2c00      	cmp	r4, #0
 8000c68:	d016      	beq.n	8000c98 <__ledf2+0x90>
 8000c6a:	45cb      	cmp	fp, r9
 8000c6c:	d017      	beq.n	8000c9e <__ledf2+0x96>
 8000c6e:	465b      	mov	r3, fp
 8000c70:	4259      	negs	r1, r3
 8000c72:	2301      	movs	r3, #1
 8000c74:	430b      	orrs	r3, r1
 8000c76:	e7ef      	b.n	8000c58 <__ledf2+0x50>
 8000c78:	0031      	movs	r1, r6
 8000c7a:	2302      	movs	r3, #2
 8000c7c:	4301      	orrs	r1, r0
 8000c7e:	d1eb      	bne.n	8000c58 <__ledf2+0x50>
 8000c80:	e7d9      	b.n	8000c36 <__ledf2+0x2e>
 8000c82:	0039      	movs	r1, r7
 8000c84:	2302      	movs	r3, #2
 8000c86:	4311      	orrs	r1, r2
 8000c88:	d1e6      	bne.n	8000c58 <__ledf2+0x50>
 8000c8a:	e7d7      	b.n	8000c3c <__ledf2+0x34>
 8000c8c:	433a      	orrs	r2, r7
 8000c8e:	d1dd      	bne.n	8000c4c <__ledf2+0x44>
 8000c90:	2300      	movs	r3, #0
 8000c92:	2800      	cmp	r0, #0
 8000c94:	d0e0      	beq.n	8000c58 <__ledf2+0x50>
 8000c96:	e7ea      	b.n	8000c6e <__ledf2+0x66>
 8000c98:	433a      	orrs	r2, r7
 8000c9a:	d1e6      	bne.n	8000c6a <__ledf2+0x62>
 8000c9c:	e7e7      	b.n	8000c6e <__ledf2+0x66>
 8000c9e:	42a5      	cmp	r5, r4
 8000ca0:	dce5      	bgt.n	8000c6e <__ledf2+0x66>
 8000ca2:	db05      	blt.n	8000cb0 <__ledf2+0xa8>
 8000ca4:	42be      	cmp	r6, r7
 8000ca6:	d8e2      	bhi.n	8000c6e <__ledf2+0x66>
 8000ca8:	d007      	beq.n	8000cba <__ledf2+0xb2>
 8000caa:	2300      	movs	r3, #0
 8000cac:	42be      	cmp	r6, r7
 8000cae:	d2d3      	bcs.n	8000c58 <__ledf2+0x50>
 8000cb0:	4659      	mov	r1, fp
 8000cb2:	2301      	movs	r3, #1
 8000cb4:	3901      	subs	r1, #1
 8000cb6:	430b      	orrs	r3, r1
 8000cb8:	e7ce      	b.n	8000c58 <__ledf2+0x50>
 8000cba:	45c4      	cmp	ip, r8
 8000cbc:	d8d7      	bhi.n	8000c6e <__ledf2+0x66>
 8000cbe:	2300      	movs	r3, #0
 8000cc0:	45c4      	cmp	ip, r8
 8000cc2:	d3f5      	bcc.n	8000cb0 <__ledf2+0xa8>
 8000cc4:	e7c8      	b.n	8000c58 <__ledf2+0x50>
 8000cc6:	46c0      	nop			; (mov r8, r8)
 8000cc8:	000007ff 	.word	0x000007ff

08000ccc <__aeabi_d2iz>:
 8000ccc:	b530      	push	{r4, r5, lr}
 8000cce:	4d13      	ldr	r5, [pc, #76]	; (8000d1c <__aeabi_d2iz+0x50>)
 8000cd0:	030a      	lsls	r2, r1, #12
 8000cd2:	004b      	lsls	r3, r1, #1
 8000cd4:	0b12      	lsrs	r2, r2, #12
 8000cd6:	0d5b      	lsrs	r3, r3, #21
 8000cd8:	0fc9      	lsrs	r1, r1, #31
 8000cda:	2400      	movs	r4, #0
 8000cdc:	42ab      	cmp	r3, r5
 8000cde:	dd10      	ble.n	8000d02 <__aeabi_d2iz+0x36>
 8000ce0:	4c0f      	ldr	r4, [pc, #60]	; (8000d20 <__aeabi_d2iz+0x54>)
 8000ce2:	42a3      	cmp	r3, r4
 8000ce4:	dc0f      	bgt.n	8000d06 <__aeabi_d2iz+0x3a>
 8000ce6:	2480      	movs	r4, #128	; 0x80
 8000ce8:	4d0e      	ldr	r5, [pc, #56]	; (8000d24 <__aeabi_d2iz+0x58>)
 8000cea:	0364      	lsls	r4, r4, #13
 8000cec:	4322      	orrs	r2, r4
 8000cee:	1aed      	subs	r5, r5, r3
 8000cf0:	2d1f      	cmp	r5, #31
 8000cf2:	dd0b      	ble.n	8000d0c <__aeabi_d2iz+0x40>
 8000cf4:	480c      	ldr	r0, [pc, #48]	; (8000d28 <__aeabi_d2iz+0x5c>)
 8000cf6:	1ac3      	subs	r3, r0, r3
 8000cf8:	40da      	lsrs	r2, r3
 8000cfa:	4254      	negs	r4, r2
 8000cfc:	2900      	cmp	r1, #0
 8000cfe:	d100      	bne.n	8000d02 <__aeabi_d2iz+0x36>
 8000d00:	0014      	movs	r4, r2
 8000d02:	0020      	movs	r0, r4
 8000d04:	bd30      	pop	{r4, r5, pc}
 8000d06:	4b09      	ldr	r3, [pc, #36]	; (8000d2c <__aeabi_d2iz+0x60>)
 8000d08:	18cc      	adds	r4, r1, r3
 8000d0a:	e7fa      	b.n	8000d02 <__aeabi_d2iz+0x36>
 8000d0c:	4c08      	ldr	r4, [pc, #32]	; (8000d30 <__aeabi_d2iz+0x64>)
 8000d0e:	40e8      	lsrs	r0, r5
 8000d10:	46a4      	mov	ip, r4
 8000d12:	4463      	add	r3, ip
 8000d14:	409a      	lsls	r2, r3
 8000d16:	4302      	orrs	r2, r0
 8000d18:	e7ef      	b.n	8000cfa <__aeabi_d2iz+0x2e>
 8000d1a:	46c0      	nop			; (mov r8, r8)
 8000d1c:	000003fe 	.word	0x000003fe
 8000d20:	0000041d 	.word	0x0000041d
 8000d24:	00000433 	.word	0x00000433
 8000d28:	00000413 	.word	0x00000413
 8000d2c:	7fffffff 	.word	0x7fffffff
 8000d30:	fffffbed 	.word	0xfffffbed

08000d34 <__clzsi2>:
 8000d34:	211c      	movs	r1, #28
 8000d36:	2301      	movs	r3, #1
 8000d38:	041b      	lsls	r3, r3, #16
 8000d3a:	4298      	cmp	r0, r3
 8000d3c:	d301      	bcc.n	8000d42 <__clzsi2+0xe>
 8000d3e:	0c00      	lsrs	r0, r0, #16
 8000d40:	3910      	subs	r1, #16
 8000d42:	0a1b      	lsrs	r3, r3, #8
 8000d44:	4298      	cmp	r0, r3
 8000d46:	d301      	bcc.n	8000d4c <__clzsi2+0x18>
 8000d48:	0a00      	lsrs	r0, r0, #8
 8000d4a:	3908      	subs	r1, #8
 8000d4c:	091b      	lsrs	r3, r3, #4
 8000d4e:	4298      	cmp	r0, r3
 8000d50:	d301      	bcc.n	8000d56 <__clzsi2+0x22>
 8000d52:	0900      	lsrs	r0, r0, #4
 8000d54:	3904      	subs	r1, #4
 8000d56:	a202      	add	r2, pc, #8	; (adr r2, 8000d60 <__clzsi2+0x2c>)
 8000d58:	5c10      	ldrb	r0, [r2, r0]
 8000d5a:	1840      	adds	r0, r0, r1
 8000d5c:	4770      	bx	lr
 8000d5e:	46c0      	nop			; (mov r8, r8)
 8000d60:	02020304 	.word	0x02020304
 8000d64:	01010101 	.word	0x01010101
	...

08000d70 <MX_CRC_Init>:
 8000d70:	4808      	ldr	r0, [pc, #32]	; (8000d94 <MX_CRC_Init+0x24>)
 8000d72:	4b09      	ldr	r3, [pc, #36]	; (8000d98 <MX_CRC_Init+0x28>)
 8000d74:	b510      	push	{r4, lr}
 8000d76:	6003      	str	r3, [r0, #0]
 8000d78:	2300      	movs	r3, #0
 8000d7a:	7103      	strb	r3, [r0, #4]
 8000d7c:	7143      	strb	r3, [r0, #5]
 8000d7e:	6143      	str	r3, [r0, #20]
 8000d80:	6183      	str	r3, [r0, #24]
 8000d82:	3301      	adds	r3, #1
 8000d84:	6203      	str	r3, [r0, #32]
 8000d86:	f001 f8f1 	bl	8001f6c <HAL_CRC_Init>
 8000d8a:	2800      	cmp	r0, #0
 8000d8c:	d001      	beq.n	8000d92 <MX_CRC_Init+0x22>
 8000d8e:	f000 fd5f 	bl	8001850 <Error_Handler>
 8000d92:	bd10      	pop	{r4, pc}
 8000d94:	200000b8 	.word	0x200000b8
 8000d98:	40023000 	.word	0x40023000

08000d9c <HAL_CRC_MspInit>:
 8000d9c:	4b07      	ldr	r3, [pc, #28]	; (8000dbc <HAL_CRC_MspInit+0x20>)
 8000d9e:	6802      	ldr	r2, [r0, #0]
 8000da0:	b082      	sub	sp, #8
 8000da2:	429a      	cmp	r2, r3
 8000da4:	d108      	bne.n	8000db8 <HAL_CRC_MspInit+0x1c>
 8000da6:	2040      	movs	r0, #64	; 0x40
 8000da8:	4a05      	ldr	r2, [pc, #20]	; (8000dc0 <HAL_CRC_MspInit+0x24>)
 8000daa:	6951      	ldr	r1, [r2, #20]
 8000dac:	4301      	orrs	r1, r0
 8000dae:	6151      	str	r1, [r2, #20]
 8000db0:	6953      	ldr	r3, [r2, #20]
 8000db2:	4003      	ands	r3, r0
 8000db4:	9301      	str	r3, [sp, #4]
 8000db6:	9b01      	ldr	r3, [sp, #4]
 8000db8:	b002      	add	sp, #8
 8000dba:	4770      	bx	lr
 8000dbc:	40023000 	.word	0x40023000
 8000dc0:	40021000 	.word	0x40021000

08000dc4 <Display16Seg_All_Single>:
 8000dc4:	b510      	push	{r4, lr}
 8000dc6:	2401      	movs	r4, #1
 8000dc8:	2900      	cmp	r1, #0
 8000dca:	d008      	beq.n	8000dde <Display16Seg_All_Single+0x1a>
 8000dcc:	2400      	movs	r4, #0
 8000dce:	2901      	cmp	r1, #1
 8000dd0:	d005      	beq.n	8000dde <Display16Seg_All_Single+0x1a>
 8000dd2:	4b4e      	ldr	r3, [pc, #312]	; (8000f0c <Display16Seg_All_Single+0x148>)
 8000dd4:	781c      	ldrb	r4, [r3, #0]
 8000dd6:	3c01      	subs	r4, #1
 8000dd8:	4263      	negs	r3, r4
 8000dda:	415c      	adcs	r4, r3
 8000ddc:	b2e4      	uxtb	r4, r4
 8000dde:	280f      	cmp	r0, #15
 8000de0:	d839      	bhi.n	8000e56 <Display16Seg_All_Single+0x92>
 8000de2:	3801      	subs	r0, #1
 8000de4:	0022      	movs	r2, r4
 8000de6:	280e      	cmp	r0, #14
 8000de8:	d809      	bhi.n	8000dfe <Display16Seg_All_Single+0x3a>
 8000dea:	f7ff f997 	bl	800011c <__gnu_thumb1_case_uqi>
 8000dee:	110e      	.short	0x110e
 8000df0:	1c1a1815 	.word	0x1c1a1815
 8000df4:	28252220 	.word	0x28252220
 8000df8:	8c2f2d2a 	.word	0x8c2f2d2a
 8000dfc:	31          	.byte	0x31
 8000dfd:	00          	.byte	0x00
 8000dfe:	2140      	movs	r1, #64	; 0x40
 8000e00:	2090      	movs	r0, #144	; 0x90
 8000e02:	05c0      	lsls	r0, r0, #23
 8000e04:	f001 fbbc 	bl	8002580 <HAL_GPIO_WritePin>
 8000e08:	bd10      	pop	{r4, pc}
 8000e0a:	2180      	movs	r1, #128	; 0x80
 8000e0c:	0049      	lsls	r1, r1, #1
 8000e0e:	e7f7      	b.n	8000e00 <Display16Seg_All_Single+0x3c>
 8000e10:	2180      	movs	r1, #128	; 0x80
 8000e12:	0089      	lsls	r1, r1, #2
 8000e14:	483e      	ldr	r0, [pc, #248]	; (8000f10 <Display16Seg_All_Single+0x14c>)
 8000e16:	e7f5      	b.n	8000e04 <Display16Seg_All_Single+0x40>
 8000e18:	2180      	movs	r1, #128	; 0x80
 8000e1a:	0049      	lsls	r1, r1, #1
 8000e1c:	e7fa      	b.n	8000e14 <Display16Seg_All_Single+0x50>
 8000e1e:	2140      	movs	r1, #64	; 0x40
 8000e20:	e7f8      	b.n	8000e14 <Display16Seg_All_Single+0x50>
 8000e22:	2180      	movs	r1, #128	; 0x80
 8000e24:	e7f6      	b.n	8000e14 <Display16Seg_All_Single+0x50>
 8000e26:	2180      	movs	r1, #128	; 0x80
 8000e28:	0209      	lsls	r1, r1, #8
 8000e2a:	483a      	ldr	r0, [pc, #232]	; (8000f14 <Display16Seg_All_Single+0x150>)
 8000e2c:	e7ea      	b.n	8000e04 <Display16Seg_All_Single+0x40>
 8000e2e:	2180      	movs	r1, #128	; 0x80
 8000e30:	e7e6      	b.n	8000e00 <Display16Seg_All_Single+0x3c>
 8000e32:	2180      	movs	r1, #128	; 0x80
 8000e34:	0109      	lsls	r1, r1, #4
 8000e36:	e7f8      	b.n	8000e2a <Display16Seg_All_Single+0x66>
 8000e38:	2180      	movs	r1, #128	; 0x80
 8000e3a:	0089      	lsls	r1, r1, #2
 8000e3c:	e7f5      	b.n	8000e2a <Display16Seg_All_Single+0x66>
 8000e3e:	2104      	movs	r1, #4
 8000e40:	e7f3      	b.n	8000e2a <Display16Seg_All_Single+0x66>
 8000e42:	2180      	movs	r1, #128	; 0x80
 8000e44:	0209      	lsls	r1, r1, #8
 8000e46:	e7db      	b.n	8000e00 <Display16Seg_All_Single+0x3c>
 8000e48:	2102      	movs	r1, #2
 8000e4a:	e7ee      	b.n	8000e2a <Display16Seg_All_Single+0x66>
 8000e4c:	2101      	movs	r1, #1
 8000e4e:	e7ec      	b.n	8000e2a <Display16Seg_All_Single+0x66>
 8000e50:	2180      	movs	r1, #128	; 0x80
 8000e52:	0189      	lsls	r1, r1, #6
 8000e54:	e7e9      	b.n	8000e2a <Display16Seg_All_Single+0x66>
 8000e56:	2090      	movs	r0, #144	; 0x90
 8000e58:	0022      	movs	r2, r4
 8000e5a:	2140      	movs	r1, #64	; 0x40
 8000e5c:	05c0      	lsls	r0, r0, #23
 8000e5e:	f001 fb8f 	bl	8002580 <HAL_GPIO_WritePin>
 8000e62:	2180      	movs	r1, #128	; 0x80
 8000e64:	2090      	movs	r0, #144	; 0x90
 8000e66:	0022      	movs	r2, r4
 8000e68:	0049      	lsls	r1, r1, #1
 8000e6a:	05c0      	lsls	r0, r0, #23
 8000e6c:	f001 fb88 	bl	8002580 <HAL_GPIO_WritePin>
 8000e70:	2180      	movs	r1, #128	; 0x80
 8000e72:	0022      	movs	r2, r4
 8000e74:	0089      	lsls	r1, r1, #2
 8000e76:	4826      	ldr	r0, [pc, #152]	; (8000f10 <Display16Seg_All_Single+0x14c>)
 8000e78:	f001 fb82 	bl	8002580 <HAL_GPIO_WritePin>
 8000e7c:	2180      	movs	r1, #128	; 0x80
 8000e7e:	0022      	movs	r2, r4
 8000e80:	0049      	lsls	r1, r1, #1
 8000e82:	4823      	ldr	r0, [pc, #140]	; (8000f10 <Display16Seg_All_Single+0x14c>)
 8000e84:	f001 fb7c 	bl	8002580 <HAL_GPIO_WritePin>
 8000e88:	0022      	movs	r2, r4
 8000e8a:	2180      	movs	r1, #128	; 0x80
 8000e8c:	4820      	ldr	r0, [pc, #128]	; (8000f10 <Display16Seg_All_Single+0x14c>)
 8000e8e:	f001 fb77 	bl	8002580 <HAL_GPIO_WritePin>
 8000e92:	0022      	movs	r2, r4
 8000e94:	2140      	movs	r1, #64	; 0x40
 8000e96:	481e      	ldr	r0, [pc, #120]	; (8000f10 <Display16Seg_All_Single+0x14c>)
 8000e98:	f001 fb72 	bl	8002580 <HAL_GPIO_WritePin>
 8000e9c:	2180      	movs	r1, #128	; 0x80
 8000e9e:	0022      	movs	r2, r4
 8000ea0:	0209      	lsls	r1, r1, #8
 8000ea2:	481c      	ldr	r0, [pc, #112]	; (8000f14 <Display16Seg_All_Single+0x150>)
 8000ea4:	f001 fb6c 	bl	8002580 <HAL_GPIO_WritePin>
 8000ea8:	2090      	movs	r0, #144	; 0x90
 8000eaa:	0022      	movs	r2, r4
 8000eac:	2180      	movs	r1, #128	; 0x80
 8000eae:	05c0      	lsls	r0, r0, #23
 8000eb0:	f001 fb66 	bl	8002580 <HAL_GPIO_WritePin>
 8000eb4:	2180      	movs	r1, #128	; 0x80
 8000eb6:	0022      	movs	r2, r4
 8000eb8:	0189      	lsls	r1, r1, #6
 8000eba:	4816      	ldr	r0, [pc, #88]	; (8000f14 <Display16Seg_All_Single+0x150>)
 8000ebc:	f001 fb60 	bl	8002580 <HAL_GPIO_WritePin>
 8000ec0:	2180      	movs	r1, #128	; 0x80
 8000ec2:	2090      	movs	r0, #144	; 0x90
 8000ec4:	0022      	movs	r2, r4
 8000ec6:	0209      	lsls	r1, r1, #8
 8000ec8:	05c0      	lsls	r0, r0, #23
 8000eca:	f001 fb59 	bl	8002580 <HAL_GPIO_WritePin>
 8000ece:	2180      	movs	r1, #128	; 0x80
 8000ed0:	0022      	movs	r2, r4
 8000ed2:	0109      	lsls	r1, r1, #4
 8000ed4:	480f      	ldr	r0, [pc, #60]	; (8000f14 <Display16Seg_All_Single+0x150>)
 8000ed6:	f001 fb53 	bl	8002580 <HAL_GPIO_WritePin>
 8000eda:	2180      	movs	r1, #128	; 0x80
 8000edc:	0022      	movs	r2, r4
 8000ede:	0089      	lsls	r1, r1, #2
 8000ee0:	480c      	ldr	r0, [pc, #48]	; (8000f14 <Display16Seg_All_Single+0x150>)
 8000ee2:	f001 fb4d 	bl	8002580 <HAL_GPIO_WritePin>
 8000ee6:	0022      	movs	r2, r4
 8000ee8:	2104      	movs	r1, #4
 8000eea:	480a      	ldr	r0, [pc, #40]	; (8000f14 <Display16Seg_All_Single+0x150>)
 8000eec:	f001 fb48 	bl	8002580 <HAL_GPIO_WritePin>
 8000ef0:	0022      	movs	r2, r4
 8000ef2:	2102      	movs	r1, #2
 8000ef4:	4807      	ldr	r0, [pc, #28]	; (8000f14 <Display16Seg_All_Single+0x150>)
 8000ef6:	f001 fb43 	bl	8002580 <HAL_GPIO_WritePin>
 8000efa:	0022      	movs	r2, r4
 8000efc:	2101      	movs	r1, #1
 8000efe:	4805      	ldr	r0, [pc, #20]	; (8000f14 <Display16Seg_All_Single+0x150>)
 8000f00:	f001 fb3e 	bl	8002580 <HAL_GPIO_WritePin>
 8000f04:	0022      	movs	r2, r4
 8000f06:	2120      	movs	r1, #32
 8000f08:	e784      	b.n	8000e14 <Display16Seg_All_Single+0x50>
 8000f0a:	46c0      	nop			; (mov r8, r8)
 8000f0c:	20000244 	.word	0x20000244
 8000f10:	48000800 	.word	0x48000800
 8000f14:	48000400 	.word	0x48000400

08000f18 <Display16Seg_Start>:
 8000f18:	2101      	movs	r1, #1
 8000f1a:	2010      	movs	r0, #16
 8000f1c:	b510      	push	{r4, lr}
 8000f1e:	f7ff ff51 	bl	8000dc4 <Display16Seg_All_Single>
 8000f22:	2000      	movs	r0, #0
 8000f24:	4b02      	ldr	r3, [pc, #8]	; (8000f30 <Display16Seg_Start+0x18>)
 8000f26:	0001      	movs	r1, r0
 8000f28:	7018      	strb	r0, [r3, #0]
 8000f2a:	f7ff ff4b 	bl	8000dc4 <Display16Seg_All_Single>
 8000f2e:	e7fe      	b.n	8000f2e <Display16Seg_Start+0x16>
 8000f30:	200001cc 	.word	0x200001cc

08000f34 <Display16Seg_Char>:
 8000f34:	3820      	subs	r0, #32
 8000f36:	b2c0      	uxtb	r0, r0
 8000f38:	b5f8      	push	{r3, r4, r5, r6, r7, lr}
 8000f3a:	000d      	movs	r5, r1
 8000f3c:	2600      	movs	r6, #0
 8000f3e:	285f      	cmp	r0, #95	; 0x5f
 8000f40:	d802      	bhi.n	8000f48 <Display16Seg_Char+0x14>
 8000f42:	4b15      	ldr	r3, [pc, #84]	; (8000f98 <Display16Seg_Char+0x64>)
 8000f44:	0040      	lsls	r0, r0, #1
 8000f46:	5ac6      	ldrh	r6, [r0, r3]
 8000f48:	2a00      	cmp	r2, #0
 8000f4a:	d00c      	beq.n	8000f66 <Display16Seg_Char+0x32>
 8000f4c:	2a01      	cmp	r2, #1
 8000f4e:	d004      	beq.n	8000f5a <Display16Seg_Char+0x26>
 8000f50:	4b12      	ldr	r3, [pc, #72]	; (8000f9c <Display16Seg_Char+0x68>)
 8000f52:	2400      	movs	r4, #0
 8000f54:	781b      	ldrb	r3, [r3, #0]
 8000f56:	2b01      	cmp	r3, #1
 8000f58:	d006      	beq.n	8000f68 <Display16Seg_Char+0x34>
 8000f5a:	2101      	movs	r1, #1
 8000f5c:	2010      	movs	r0, #16
 8000f5e:	f7ff ff31 	bl	8000dc4 <Display16Seg_All_Single>
 8000f62:	2200      	movs	r2, #0
 8000f64:	e00e      	b.n	8000f84 <Display16Seg_Char+0x50>
 8000f66:	0014      	movs	r4, r2
 8000f68:	2701      	movs	r7, #1
 8000f6a:	003b      	movs	r3, r7
 8000f6c:	40a3      	lsls	r3, r4
 8000f6e:	b2e0      	uxtb	r0, r4
 8000f70:	2100      	movs	r1, #0
 8000f72:	4233      	tst	r3, r6
 8000f74:	d100      	bne.n	8000f78 <Display16Seg_Char+0x44>
 8000f76:	0039      	movs	r1, r7
 8000f78:	3401      	adds	r4, #1
 8000f7a:	f7ff ff23 	bl	8000dc4 <Display16Seg_All_Single>
 8000f7e:	2c10      	cmp	r4, #16
 8000f80:	d1f3      	bne.n	8000f6a <Display16Seg_Char+0x36>
 8000f82:	2201      	movs	r2, #1
 8000f84:	2d01      	cmp	r5, #1
 8000f86:	d104      	bne.n	8000f92 <Display16Seg_Char+0x5e>
 8000f88:	2110      	movs	r1, #16
 8000f8a:	4805      	ldr	r0, [pc, #20]	; (8000fa0 <Display16Seg_Char+0x6c>)
 8000f8c:	f001 faf8 	bl	8002580 <HAL_GPIO_WritePin>
 8000f90:	bdf8      	pop	{r3, r4, r5, r6, r7, pc}
 8000f92:	2200      	movs	r2, #0
 8000f94:	e7f8      	b.n	8000f88 <Display16Seg_Char+0x54>
 8000f96:	46c0      	nop			; (mov r8, r8)
 8000f98:	08005ca4 	.word	0x08005ca4
 8000f9c:	20000244 	.word	0x20000244
 8000fa0:	48000800 	.word	0x48000800

08000fa4 <Display16Seg_Num>:
 8000fa4:	b5f8      	push	{r3, r4, r5, r6, r7, lr}
 8000fa6:	000d      	movs	r5, r1
 8000fa8:	4b16      	ldr	r3, [pc, #88]	; (8001004 <Display16Seg_Num+0x60>)
 8000faa:	280f      	cmp	r0, #15
 8000fac:	d901      	bls.n	8000fb2 <Display16Seg_Num+0xe>
 8000fae:	210f      	movs	r1, #15
 8000fb0:	4008      	ands	r0, r1
 8000fb2:	0040      	lsls	r0, r0, #1
 8000fb4:	5a1e      	ldrh	r6, [r3, r0]
 8000fb6:	2a00      	cmp	r2, #0
 8000fb8:	d00c      	beq.n	8000fd4 <Display16Seg_Num+0x30>
 8000fba:	2a01      	cmp	r2, #1
 8000fbc:	d004      	beq.n	8000fc8 <Display16Seg_Num+0x24>
 8000fbe:	4b12      	ldr	r3, [pc, #72]	; (8001008 <Display16Seg_Num+0x64>)
 8000fc0:	2400      	movs	r4, #0
 8000fc2:	781b      	ldrb	r3, [r3, #0]
 8000fc4:	2b01      	cmp	r3, #1
 8000fc6:	d006      	beq.n	8000fd6 <Display16Seg_Num+0x32>
 8000fc8:	2101      	movs	r1, #1
 8000fca:	2010      	movs	r0, #16
 8000fcc:	f7ff fefa 	bl	8000dc4 <Display16Seg_All_Single>
 8000fd0:	2200      	movs	r2, #0
 8000fd2:	e00e      	b.n	8000ff2 <Display16Seg_Num+0x4e>
 8000fd4:	0014      	movs	r4, r2
 8000fd6:	2701      	movs	r7, #1
 8000fd8:	003b      	movs	r3, r7
 8000fda:	40a3      	lsls	r3, r4
 8000fdc:	b2e0      	uxtb	r0, r4
 8000fde:	2100      	movs	r1, #0
 8000fe0:	4233      	tst	r3, r6
 8000fe2:	d100      	bne.n	8000fe6 <Display16Seg_Num+0x42>
 8000fe4:	0039      	movs	r1, r7
 8000fe6:	3401      	adds	r4, #1
 8000fe8:	f7ff feec 	bl	8000dc4 <Display16Seg_All_Single>
 8000fec:	2c10      	cmp	r4, #16
 8000fee:	d1f3      	bne.n	8000fd8 <Display16Seg_Num+0x34>
 8000ff0:	2201      	movs	r2, #1
 8000ff2:	2d01      	cmp	r5, #1
 8000ff4:	d104      	bne.n	8001000 <Display16Seg_Num+0x5c>
 8000ff6:	2110      	movs	r1, #16
 8000ff8:	4804      	ldr	r0, [pc, #16]	; (800100c <Display16Seg_Num+0x68>)
 8000ffa:	f001 fac1 	bl	8002580 <HAL_GPIO_WritePin>
 8000ffe:	bdf8      	pop	{r3, r4, r5, r6, r7, pc}
 8001000:	2200      	movs	r2, #0
 8001002:	e7f8      	b.n	8000ff6 <Display16Seg_Num+0x52>
 8001004:	08005d64 	.word	0x08005d64
 8001008:	20000244 	.word	0x20000244
 800100c:	48000800 	.word	0x48000800

08001010 <MX_DMA_Init>:
 8001010:	2001      	movs	r0, #1
 8001012:	4a05      	ldr	r2, [pc, #20]	; (8001028 <MX_DMA_Init+0x18>)
 8001014:	b082      	sub	sp, #8
 8001016:	6951      	ldr	r1, [r2, #20]
 8001018:	4301      	orrs	r1, r0
 800101a:	6151      	str	r1, [r2, #20]
 800101c:	6953      	ldr	r3, [r2, #20]
 800101e:	4003      	ands	r3, r0
 8001020:	9301      	str	r3, [sp, #4]
 8001022:	9b01      	ldr	r3, [sp, #4]
 8001024:	b002      	add	sp, #8
 8001026:	4770      	bx	lr
 8001028:	40021000 	.word	0x40021000

0800102c <Encoder_Get>:
 800102c:	b570      	push	{r4, r5, r6, lr}
 800102e:	0004      	movs	r4, r0
 8001030:	68c0      	ldr	r0, [r0, #12]
 8001032:	6823      	ldr	r3, [r4, #0]
 8001034:	2126      	movs	r1, #38	; 0x26
 8001036:	1ac5      	subs	r5, r0, r3
 8001038:	6065      	str	r5, [r4, #4]
 800103a:	6020      	str	r0, [r4, #0]
 800103c:	f7ff f9f2 	bl	8000424 <__aeabi_idivmod>
 8001040:	2001      	movs	r0, #1
 8001042:	8261      	strh	r1, [r4, #18]
 8001044:	2d00      	cmp	r5, #0
 8001046:	db03      	blt.n	8001050 <Encoder_Get+0x24>
 8001048:	2000      	movs	r0, #0
 800104a:	2d00      	cmp	r5, #0
 800104c:	d100      	bne.n	8001050 <Encoder_Get+0x24>
 800104e:	2002      	movs	r0, #2
 8001050:	7220      	strb	r0, [r4, #8]
 8001052:	bd70      	pop	{r4, r5, r6, pc}

08001054 <Encoder_Init>:
 8001054:	2200      	movs	r2, #0
 8001056:	2102      	movs	r1, #2
 8001058:	4b05      	ldr	r3, [pc, #20]	; (8001070 <Encoder_Init+0x1c>)
 800105a:	601a      	str	r2, [r3, #0]
 800105c:	605a      	str	r2, [r3, #4]
 800105e:	729a      	strb	r2, [r3, #10]
 8001060:	741a      	strb	r2, [r3, #16]
 8001062:	60da      	str	r2, [r3, #12]
 8001064:	4a03      	ldr	r2, [pc, #12]	; (8001074 <Encoder_Init+0x20>)
 8001066:	7219      	strb	r1, [r3, #8]
 8001068:	3901      	subs	r1, #1
 800106a:	7259      	strb	r1, [r3, #9]
 800106c:	6013      	str	r3, [r2, #0]
 800106e:	4770      	bx	lr
 8001070:	20000228 	.word	0x20000228
 8001074:	20000240 	.word	0x20000240

08001078 <Encoder_Process>:
 8001078:	b570      	push	{r4, r5, r6, lr}
 800107a:	0004      	movs	r4, r0
 800107c:	2090      	movs	r0, #144	; 0x90
 800107e:	2110      	movs	r1, #16
 8001080:	05c0      	lsls	r0, r0, #23
 8001082:	f001 fa6b 	bl	800255c <HAL_GPIO_ReadPin>
 8001086:	0005      	movs	r5, r0
 8001088:	2090      	movs	r0, #144	; 0x90
 800108a:	2120      	movs	r1, #32
 800108c:	05c0      	lsls	r0, r0, #23
 800108e:	f001 fa65 	bl	800255c <HAL_GPIO_ReadPin>
 8001092:	0003      	movs	r3, r0
 8001094:	1e68      	subs	r0, r5, #1
 8001096:	4185      	sbcs	r5, r0
 8001098:	1e59      	subs	r1, r3, #1
 800109a:	418b      	sbcs	r3, r1
 800109c:	b2e8      	uxtb	r0, r5
 800109e:	0042      	lsls	r2, r0, #1
 80010a0:	4313      	orrs	r3, r2
 80010a2:	7aa2      	ldrb	r2, [r4, #10]
 80010a4:	b2d9      	uxtb	r1, r3
 80010a6:	4282      	cmp	r2, r0
 80010a8:	d01f      	beq.n	80010ea <Encoder_Process+0x72>
 80010aa:	2502      	movs	r5, #2
 80010ac:	7c22      	ldrb	r2, [r4, #16]
 80010ae:	0092      	lsls	r2, r2, #2
 80010b0:	4313      	orrs	r3, r2
 80010b2:	b2db      	uxtb	r3, r3
 80010b4:	1e9a      	subs	r2, r3, #2
 80010b6:	43aa      	bics	r2, r5
 80010b8:	b2d2      	uxtb	r2, r2
 80010ba:	2a00      	cmp	r2, #0
 80010bc:	d005      	beq.n	80010ca <Encoder_Process+0x52>
 80010be:	001a      	movs	r2, r3
 80010c0:	3a0b      	subs	r2, #11
 80010c2:	43aa      	bics	r2, r5
 80010c4:	b2d2      	uxtb	r2, r2
 80010c6:	2a00      	cmp	r2, #0
 80010c8:	d102      	bne.n	80010d0 <Encoder_Process+0x58>
 80010ca:	68e2      	ldr	r2, [r4, #12]
 80010cc:	3201      	adds	r2, #1
 80010ce:	60e2      	str	r2, [r4, #12]
 80010d0:	2501      	movs	r5, #1
 80010d2:	002a      	movs	r2, r5
 80010d4:	2b0e      	cmp	r3, #14
 80010d6:	d802      	bhi.n	80010de <Encoder_Process+0x66>
 80010d8:	4a05      	ldr	r2, [pc, #20]	; (80010f0 <Encoder_Process+0x78>)
 80010da:	40da      	lsrs	r2, r3
 80010dc:	43d2      	mvns	r2, r2
 80010de:	422a      	tst	r2, r5
 80010e0:	d102      	bne.n	80010e8 <Encoder_Process+0x70>
 80010e2:	68e3      	ldr	r3, [r4, #12]
 80010e4:	3b01      	subs	r3, #1
 80010e6:	60e3      	str	r3, [r4, #12]
 80010e8:	72a0      	strb	r0, [r4, #10]
 80010ea:	7421      	strb	r1, [r4, #16]
 80010ec:	bd70      	pop	{r4, r5, r6, pc}
 80010ee:	46c0      	nop			; (mov r8, r8)
 80010f0:	00004182 	.word	0x00004182

080010f4 <MX_GPIO_Init>:
 80010f4:	b5f0      	push	{r4, r5, r6, r7, lr}
 80010f6:	b08b      	sub	sp, #44	; 0x2c
 80010f8:	2214      	movs	r2, #20
 80010fa:	2100      	movs	r1, #0
 80010fc:	a805      	add	r0, sp, #20
 80010fe:	f004 fdac 	bl	8005c5a <memset>
 8001102:	2080      	movs	r0, #128	; 0x80
 8001104:	4b40      	ldr	r3, [pc, #256]	; (8001208 <MX_GPIO_Init+0x114>)
 8001106:	0300      	lsls	r0, r0, #12
 8001108:	6959      	ldr	r1, [r3, #20]
 800110a:	2790      	movs	r7, #144	; 0x90
 800110c:	4301      	orrs	r1, r0
 800110e:	6159      	str	r1, [r3, #20]
 8001110:	695a      	ldr	r2, [r3, #20]
 8001112:	4d3e      	ldr	r5, [pc, #248]	; (800120c <MX_GPIO_Init+0x118>)
 8001114:	4002      	ands	r2, r0
 8001116:	2080      	movs	r0, #128	; 0x80
 8001118:	9200      	str	r2, [sp, #0]
 800111a:	9a00      	ldr	r2, [sp, #0]
 800111c:	6959      	ldr	r1, [r3, #20]
 800111e:	03c0      	lsls	r0, r0, #15
 8001120:	4301      	orrs	r1, r0
 8001122:	6159      	str	r1, [r3, #20]
 8001124:	695a      	ldr	r2, [r3, #20]
 8001126:	05ff      	lsls	r7, r7, #23
 8001128:	4002      	ands	r2, r0
 800112a:	2080      	movs	r0, #128	; 0x80
 800112c:	9201      	str	r2, [sp, #4]
 800112e:	9a01      	ldr	r2, [sp, #4]
 8001130:	6959      	ldr	r1, [r3, #20]
 8001132:	0280      	lsls	r0, r0, #10
 8001134:	4301      	orrs	r1, r0
 8001136:	6159      	str	r1, [r3, #20]
 8001138:	695a      	ldr	r2, [r3, #20]
 800113a:	2400      	movs	r4, #0
 800113c:	4002      	ands	r2, r0
 800113e:	2080      	movs	r0, #128	; 0x80
 8001140:	9202      	str	r2, [sp, #8]
 8001142:	9a02      	ldr	r2, [sp, #8]
 8001144:	6959      	ldr	r1, [r3, #20]
 8001146:	02c0      	lsls	r0, r0, #11
 8001148:	4301      	orrs	r1, r0
 800114a:	6159      	str	r1, [r3, #20]
 800114c:	2180      	movs	r1, #128	; 0x80
 800114e:	695a      	ldr	r2, [r3, #20]
 8001150:	0349      	lsls	r1, r1, #13
 8001152:	4002      	ands	r2, r0
 8001154:	9203      	str	r2, [sp, #12]
 8001156:	9a03      	ldr	r2, [sp, #12]
 8001158:	695a      	ldr	r2, [r3, #20]
 800115a:	0038      	movs	r0, r7
 800115c:	430a      	orrs	r2, r1
 800115e:	615a      	str	r2, [r3, #20]
 8001160:	695b      	ldr	r3, [r3, #20]
 8001162:	2200      	movs	r2, #0
 8001164:	400b      	ands	r3, r1
 8001166:	9304      	str	r3, [sp, #16]
 8001168:	0029      	movs	r1, r5
 800116a:	9b04      	ldr	r3, [sp, #16]
 800116c:	f001 fa08 	bl	8002580 <HAL_GPIO_WritePin>
 8001170:	21fc      	movs	r1, #252	; 0xfc
 8001172:	4e27      	ldr	r6, [pc, #156]	; (8001210 <MX_GPIO_Init+0x11c>)
 8001174:	2200      	movs	r2, #0
 8001176:	0030      	movs	r0, r6
 8001178:	0089      	lsls	r1, r1, #2
 800117a:	f001 fa01 	bl	8002580 <HAL_GPIO_WritePin>
 800117e:	2200      	movs	r2, #0
 8001180:	4924      	ldr	r1, [pc, #144]	; (8001214 <MX_GPIO_Init+0x120>)
 8001182:	4825      	ldr	r0, [pc, #148]	; (8001218 <MX_GPIO_Init+0x124>)
 8001184:	f001 f9fc 	bl	8002580 <HAL_GPIO_WritePin>
 8001188:	4b24      	ldr	r3, [pc, #144]	; (800121c <MX_GPIO_Init+0x128>)
 800118a:	a905      	add	r1, sp, #20
 800118c:	0030      	movs	r0, r6
 800118e:	9305      	str	r3, [sp, #20]
 8001190:	9406      	str	r4, [sp, #24]
 8001192:	9407      	str	r4, [sp, #28]
 8001194:	f001 f8b6 	bl	8002304 <HAL_GPIO_Init>
 8001198:	9505      	str	r5, [sp, #20]
 800119a:	2501      	movs	r5, #1
 800119c:	a905      	add	r1, sp, #20
 800119e:	0038      	movs	r0, r7
 80011a0:	9506      	str	r5, [sp, #24]
 80011a2:	9407      	str	r4, [sp, #28]
 80011a4:	9408      	str	r4, [sp, #32]
 80011a6:	f001 f8ad 	bl	8002304 <HAL_GPIO_Init>
 80011aa:	2330      	movs	r3, #48	; 0x30
 80011ac:	9305      	str	r3, [sp, #20]
 80011ae:	4b1c      	ldr	r3, [pc, #112]	; (8001220 <MX_GPIO_Init+0x12c>)
 80011b0:	a905      	add	r1, sp, #20
 80011b2:	0038      	movs	r0, r7
 80011b4:	9306      	str	r3, [sp, #24]
 80011b6:	9407      	str	r4, [sp, #28]
 80011b8:	f001 f8a4 	bl	8002304 <HAL_GPIO_Init>
 80011bc:	23fc      	movs	r3, #252	; 0xfc
 80011be:	a905      	add	r1, sp, #20
 80011c0:	009b      	lsls	r3, r3, #2
 80011c2:	0030      	movs	r0, r6
 80011c4:	9305      	str	r3, [sp, #20]
 80011c6:	9506      	str	r5, [sp, #24]
 80011c8:	9407      	str	r4, [sp, #28]
 80011ca:	9408      	str	r4, [sp, #32]
 80011cc:	f001 f89a 	bl	8002304 <HAL_GPIO_Init>
 80011d0:	4b10      	ldr	r3, [pc, #64]	; (8001214 <MX_GPIO_Init+0x120>)
 80011d2:	a905      	add	r1, sp, #20
 80011d4:	4810      	ldr	r0, [pc, #64]	; (8001218 <MX_GPIO_Init+0x124>)
 80011d6:	9305      	str	r3, [sp, #20]
 80011d8:	9506      	str	r5, [sp, #24]
 80011da:	9407      	str	r4, [sp, #28]
 80011dc:	9408      	str	r4, [sp, #32]
 80011de:	f001 f891 	bl	8002304 <HAL_GPIO_Init>
 80011e2:	2304      	movs	r3, #4
 80011e4:	a905      	add	r1, sp, #20
 80011e6:	480f      	ldr	r0, [pc, #60]	; (8001224 <MX_GPIO_Init+0x130>)
 80011e8:	9305      	str	r3, [sp, #20]
 80011ea:	9406      	str	r4, [sp, #24]
 80011ec:	9407      	str	r4, [sp, #28]
 80011ee:	f001 f889 	bl	8002304 <HAL_GPIO_Init>
 80011f2:	2318      	movs	r3, #24
 80011f4:	a905      	add	r1, sp, #20
 80011f6:	4808      	ldr	r0, [pc, #32]	; (8001218 <MX_GPIO_Init+0x124>)
 80011f8:	9305      	str	r3, [sp, #20]
 80011fa:	9406      	str	r4, [sp, #24]
 80011fc:	9407      	str	r4, [sp, #28]
 80011fe:	f001 f881 	bl	8002304 <HAL_GPIO_Init>
 8001202:	b00b      	add	sp, #44	; 0x2c
 8001204:	bdf0      	pop	{r4, r5, r6, r7, pc}
 8001206:	46c0      	nop			; (mov r8, r8)
 8001208:	40021000 	.word	0x40021000
 800120c:	000081c3 	.word	0x000081c3
 8001210:	48000800 	.word	0x48000800
 8001214:	0000ab27 	.word	0x0000ab27
 8001218:	48000400 	.word	0x48000400
 800121c:	0000fc07 	.word	0x0000fc07
 8001220:	10310000 	.word	0x10310000
 8001224:	48000c00 	.word	0x48000c00

08001228 <MX_I2C1_Init>:
 8001228:	b510      	push	{r4, lr}
 800122a:	4b13      	ldr	r3, [pc, #76]	; (8001278 <MX_I2C1_Init+0x50>)
 800122c:	4c13      	ldr	r4, [pc, #76]	; (800127c <MX_I2C1_Init+0x54>)
 800122e:	2201      	movs	r2, #1
 8001230:	6023      	str	r3, [r4, #0]
 8001232:	4b13      	ldr	r3, [pc, #76]	; (8001280 <MX_I2C1_Init+0x58>)
 8001234:	0020      	movs	r0, r4
 8001236:	6063      	str	r3, [r4, #4]
 8001238:	2300      	movs	r3, #0
 800123a:	60e2      	str	r2, [r4, #12]
 800123c:	60a3      	str	r3, [r4, #8]
 800123e:	6123      	str	r3, [r4, #16]
 8001240:	6163      	str	r3, [r4, #20]
 8001242:	61a3      	str	r3, [r4, #24]
 8001244:	61e3      	str	r3, [r4, #28]
 8001246:	6223      	str	r3, [r4, #32]
 8001248:	f001 fb0a 	bl	8002860 <HAL_I2C_Init>
 800124c:	2800      	cmp	r0, #0
 800124e:	d001      	beq.n	8001254 <MX_I2C1_Init+0x2c>
 8001250:	f000 fafe 	bl	8001850 <Error_Handler>
 8001254:	2100      	movs	r1, #0
 8001256:	0020      	movs	r0, r4
 8001258:	f001 fecc 	bl	8002ff4 <HAL_I2CEx_ConfigAnalogFilter>
 800125c:	2800      	cmp	r0, #0
 800125e:	d001      	beq.n	8001264 <MX_I2C1_Init+0x3c>
 8001260:	f000 faf6 	bl	8001850 <Error_Handler>
 8001264:	2100      	movs	r1, #0
 8001266:	0020      	movs	r0, r4
 8001268:	f001 ff06 	bl	8003078 <HAL_I2CEx_ConfigDigitalFilter>
 800126c:	2800      	cmp	r0, #0
 800126e:	d001      	beq.n	8001274 <MX_I2C1_Init+0x4c>
 8001270:	f000 faee 	bl	8001850 <Error_Handler>
 8001274:	bd10      	pop	{r4, pc}
 8001276:	46c0      	nop			; (mov r8, r8)
 8001278:	40005400 	.word	0x40005400
 800127c:	20000134 	.word	0x20000134
 8001280:	00401d61 	.word	0x00401d61

08001284 <HAL_I2C_MspInit>:
 8001284:	b510      	push	{r4, lr}
 8001286:	0004      	movs	r4, r0
 8001288:	b088      	sub	sp, #32
 800128a:	2214      	movs	r2, #20
 800128c:	2100      	movs	r1, #0
 800128e:	a803      	add	r0, sp, #12
 8001290:	f004 fce3 	bl	8005c5a <memset>
 8001294:	4b12      	ldr	r3, [pc, #72]	; (80012e0 <HAL_I2C_MspInit+0x5c>)
 8001296:	6822      	ldr	r2, [r4, #0]
 8001298:	429a      	cmp	r2, r3
 800129a:	d11f      	bne.n	80012dc <HAL_I2C_MspInit+0x58>
 800129c:	2180      	movs	r1, #128	; 0x80
 800129e:	4c11      	ldr	r4, [pc, #68]	; (80012e4 <HAL_I2C_MspInit+0x60>)
 80012a0:	02c9      	lsls	r1, r1, #11
 80012a2:	6962      	ldr	r2, [r4, #20]
 80012a4:	4810      	ldr	r0, [pc, #64]	; (80012e8 <HAL_I2C_MspInit+0x64>)
 80012a6:	430a      	orrs	r2, r1
 80012a8:	6162      	str	r2, [r4, #20]
 80012aa:	6963      	ldr	r3, [r4, #20]
 80012ac:	2203      	movs	r2, #3
 80012ae:	400b      	ands	r3, r1
 80012b0:	9301      	str	r3, [sp, #4]
 80012b2:	9b01      	ldr	r3, [sp, #4]
 80012b4:	23c0      	movs	r3, #192	; 0xc0
 80012b6:	9303      	str	r3, [sp, #12]
 80012b8:	3bae      	subs	r3, #174	; 0xae
 80012ba:	9304      	str	r3, [sp, #16]
 80012bc:	a903      	add	r1, sp, #12
 80012be:	3b11      	subs	r3, #17
 80012c0:	9305      	str	r3, [sp, #20]
 80012c2:	9206      	str	r2, [sp, #24]
 80012c4:	9307      	str	r3, [sp, #28]
 80012c6:	f001 f81d 	bl	8002304 <HAL_GPIO_Init>
 80012ca:	2180      	movs	r1, #128	; 0x80
 80012cc:	69e2      	ldr	r2, [r4, #28]
 80012ce:	0389      	lsls	r1, r1, #14
 80012d0:	430a      	orrs	r2, r1
 80012d2:	61e2      	str	r2, [r4, #28]
 80012d4:	69e3      	ldr	r3, [r4, #28]
 80012d6:	400b      	ands	r3, r1
 80012d8:	9302      	str	r3, [sp, #8]
 80012da:	9b02      	ldr	r3, [sp, #8]
 80012dc:	b008      	add	sp, #32
 80012de:	bd10      	pop	{r4, pc}
 80012e0:	40005400 	.word	0x40005400
 80012e4:	40021000 	.word	0x40021000
 80012e8:	48000400 	.word	0x48000400

080012ec <read_input_keyboard>:
 80012ec:	b5f7      	push	{r0, r1, r2, r4, r5, r6, r7, lr}
 80012ee:	2400      	movs	r4, #0
 80012f0:	0026      	movs	r6, r4
 80012f2:	2501      	movs	r5, #1
 80012f4:	4b41      	ldr	r3, [pc, #260]	; (80013fc <read_input_keyboard+0x110>)
 80012f6:	00b2      	lsls	r2, r6, #2
 80012f8:	5ae1      	ldrh	r1, [r4, r3]
 80012fa:	4b41      	ldr	r3, [pc, #260]	; (8001400 <read_input_keyboard+0x114>)
 80012fc:	40b5      	lsls	r5, r6
 80012fe:	58d0      	ldr	r0, [r2, r3]
 8001300:	f001 f92c 	bl	800255c <HAL_GPIO_ReadPin>
 8001304:	b2ad      	uxth	r5, r5
 8001306:	4f3f      	ldr	r7, [pc, #252]	; (8001404 <read_input_keyboard+0x118>)
 8001308:	2800      	cmp	r0, #0
 800130a:	d14d      	bne.n	80013a8 <read_input_keyboard+0xbc>
 800130c:	883b      	ldrh	r3, [r7, #0]
 800130e:	483e      	ldr	r0, [pc, #248]	; (8001408 <read_input_keyboard+0x11c>)
 8001310:	432b      	orrs	r3, r5
 8001312:	803b      	strh	r3, [r7, #0]
 8001314:	4b3d      	ldr	r3, [pc, #244]	; (800140c <read_input_keyboard+0x120>)
 8001316:	1820      	adds	r0, r4, r0
 8001318:	18e3      	adds	r3, r4, r3
 800131a:	881a      	ldrh	r2, [r3, #0]
 800131c:	8801      	ldrh	r1, [r0, #0]
 800131e:	3201      	adds	r2, #1
 8001320:	b292      	uxth	r2, r2
 8001322:	9201      	str	r2, [sp, #4]
 8001324:	466a      	mov	r2, sp
 8001326:	8892      	ldrh	r2, [r2, #4]
 8001328:	3101      	adds	r1, #1
 800132a:	801a      	strh	r2, [r3, #0]
 800132c:	4b38      	ldr	r3, [pc, #224]	; (8001410 <read_input_keyboard+0x124>)
 800132e:	b289      	uxth	r1, r1
 8001330:	469c      	mov	ip, r3
 8001332:	44a4      	add	ip, r4
 8001334:	4663      	mov	r3, ip
 8001336:	4662      	mov	r2, ip
 8001338:	881b      	ldrh	r3, [r3, #0]
 800133a:	8001      	strh	r1, [r0, #0]
 800133c:	3301      	adds	r3, #1
 800133e:	b29b      	uxth	r3, r3
 8001340:	8013      	strh	r3, [r2, #0]
 8001342:	2932      	cmp	r1, #50	; 0x32
 8001344:	d905      	bls.n	8001352 <read_input_keyboard+0x66>
 8001346:	2132      	movs	r1, #50	; 0x32
 8001348:	8001      	strh	r1, [r0, #0]
 800134a:	4832      	ldr	r0, [pc, #200]	; (8001414 <read_input_keyboard+0x128>)
 800134c:	8801      	ldrh	r1, [r0, #0]
 800134e:	4329      	orrs	r1, r5
 8001350:	8001      	strh	r1, [r0, #0]
 8001352:	9a01      	ldr	r2, [sp, #4]
 8001354:	2a64      	cmp	r2, #100	; 0x64
 8001356:	d906      	bls.n	8001366 <read_input_keyboard+0x7a>
 8001358:	2264      	movs	r2, #100	; 0x64
 800135a:	492c      	ldr	r1, [pc, #176]	; (800140c <read_input_keyboard+0x120>)
 800135c:	530a      	strh	r2, [r1, r4]
 800135e:	492e      	ldr	r1, [pc, #184]	; (8001418 <read_input_keyboard+0x12c>)
 8001360:	880a      	ldrh	r2, [r1, #0]
 8001362:	432a      	orrs	r2, r5
 8001364:	800a      	strh	r2, [r1, #0]
 8001366:	2bc8      	cmp	r3, #200	; 0xc8
 8001368:	d906      	bls.n	8001378 <read_input_keyboard+0x8c>
 800136a:	23c8      	movs	r3, #200	; 0xc8
 800136c:	4a28      	ldr	r2, [pc, #160]	; (8001410 <read_input_keyboard+0x124>)
 800136e:	5313      	strh	r3, [r2, r4]
 8001370:	4a2a      	ldr	r2, [pc, #168]	; (800141c <read_input_keyboard+0x130>)
 8001372:	8813      	ldrh	r3, [r2, #0]
 8001374:	431d      	orrs	r5, r3
 8001376:	8015      	strh	r5, [r2, #0]
 8001378:	2200      	movs	r2, #0
 800137a:	4b29      	ldr	r3, [pc, #164]	; (8001420 <read_input_keyboard+0x134>)
 800137c:	18e3      	adds	r3, r4, r3
 800137e:	801a      	strh	r2, [r3, #0]
 8001380:	3601      	adds	r6, #1
 8001382:	3402      	adds	r4, #2
 8001384:	2e0c      	cmp	r6, #12
 8001386:	d1b4      	bne.n	80012f2 <read_input_keyboard+0x6>
 8001388:	883a      	ldrh	r2, [r7, #0]
 800138a:	4b26      	ldr	r3, [pc, #152]	; (8001424 <read_input_keyboard+0x138>)
 800138c:	801a      	strh	r2, [r3, #0]
 800138e:	4b21      	ldr	r3, [pc, #132]	; (8001414 <read_input_keyboard+0x128>)
 8001390:	881a      	ldrh	r2, [r3, #0]
 8001392:	4b25      	ldr	r3, [pc, #148]	; (8001428 <read_input_keyboard+0x13c>)
 8001394:	801a      	strh	r2, [r3, #0]
 8001396:	4b20      	ldr	r3, [pc, #128]	; (8001418 <read_input_keyboard+0x12c>)
 8001398:	881a      	ldrh	r2, [r3, #0]
 800139a:	4b24      	ldr	r3, [pc, #144]	; (800142c <read_input_keyboard+0x140>)
 800139c:	801a      	strh	r2, [r3, #0]
 800139e:	4b1f      	ldr	r3, [pc, #124]	; (800141c <read_input_keyboard+0x130>)
 80013a0:	881a      	ldrh	r2, [r3, #0]
 80013a2:	4b23      	ldr	r3, [pc, #140]	; (8001430 <read_input_keyboard+0x144>)
 80013a4:	801a      	strh	r2, [r3, #0]
 80013a6:	bdf7      	pop	{r0, r1, r2, r4, r5, r6, r7, pc}
 80013a8:	43ed      	mvns	r5, r5
 80013aa:	4a1d      	ldr	r2, [pc, #116]	; (8001420 <read_input_keyboard+0x134>)
 80013ac:	8839      	ldrh	r1, [r7, #0]
 80013ae:	18a2      	adds	r2, r4, r2
 80013b0:	8813      	ldrh	r3, [r2, #0]
 80013b2:	b2ad      	uxth	r5, r5
 80013b4:	3301      	adds	r3, #1
 80013b6:	b29b      	uxth	r3, r3
 80013b8:	4029      	ands	r1, r5
 80013ba:	8013      	strh	r3, [r2, #0]
 80013bc:	8039      	strh	r1, [r7, #0]
 80013be:	2b05      	cmp	r3, #5
 80013c0:	d116      	bne.n	80013f0 <read_input_keyboard+0x104>
 80013c2:	2200      	movs	r2, #0
 80013c4:	4b10      	ldr	r3, [pc, #64]	; (8001408 <read_input_keyboard+0x11c>)
 80013c6:	18e3      	adds	r3, r4, r3
 80013c8:	801a      	strh	r2, [r3, #0]
 80013ca:	4b10      	ldr	r3, [pc, #64]	; (800140c <read_input_keyboard+0x120>)
 80013cc:	18e3      	adds	r3, r4, r3
 80013ce:	801a      	strh	r2, [r3, #0]
 80013d0:	4b0f      	ldr	r3, [pc, #60]	; (8001410 <read_input_keyboard+0x124>)
 80013d2:	18e3      	adds	r3, r4, r3
 80013d4:	801a      	strh	r2, [r3, #0]
 80013d6:	4a0f      	ldr	r2, [pc, #60]	; (8001414 <read_input_keyboard+0x128>)
 80013d8:	8813      	ldrh	r3, [r2, #0]
 80013da:	402b      	ands	r3, r5
 80013dc:	8013      	strh	r3, [r2, #0]
 80013de:	4a0e      	ldr	r2, [pc, #56]	; (8001418 <read_input_keyboard+0x12c>)
 80013e0:	8813      	ldrh	r3, [r2, #0]
 80013e2:	402b      	ands	r3, r5
 80013e4:	8013      	strh	r3, [r2, #0]
 80013e6:	4a0d      	ldr	r2, [pc, #52]	; (800141c <read_input_keyboard+0x130>)
 80013e8:	8813      	ldrh	r3, [r2, #0]
 80013ea:	401d      	ands	r5, r3
 80013ec:	8015      	strh	r5, [r2, #0]
 80013ee:	e7c7      	b.n	8001380 <read_input_keyboard+0x94>
 80013f0:	2b05      	cmp	r3, #5
 80013f2:	d9c5      	bls.n	8001380 <read_input_keyboard+0x94>
 80013f4:	2305      	movs	r3, #5
 80013f6:	8013      	strh	r3, [r2, #0]
 80013f8:	e7c2      	b.n	8001380 <read_input_keyboard+0x94>
 80013fa:	46c0      	nop			; (mov r8, r8)
 80013fc:	20000000 	.word	0x20000000
 8001400:	20000018 	.word	0x20000018
 8001404:	20000130 	.word	0x20000130
 8001408:	200000a0 	.word	0x200000a0
 800140c:	200000de 	.word	0x200000de
 8001410:	200000f6 	.word	0x200000f6
 8001414:	2000012e 	.word	0x2000012e
 8001418:	20000110 	.word	0x20000110
 800141c:	2000010e 	.word	0x2000010e
 8001420:	20000114 	.word	0x20000114
 8001424:	2000024a 	.word	0x2000024a
 8001428:	200001ca 	.word	0x200001ca
 800142c:	2000023c 	.word	0x2000023c
 8001430:	20000246 	.word	0x20000246

08001434 <keyboard_function_manager>:
 8001434:	2002      	movs	r0, #2
 8001436:	4a13      	ldr	r2, [pc, #76]	; (8001484 <keyboard_function_manager+0x50>)
 8001438:	7813      	ldrb	r3, [r2, #0]
 800143a:	4203      	tst	r3, r0
 800143c:	d101      	bne.n	8001442 <keyboard_function_manager+0xe>
 800143e:	3801      	subs	r0, #1
 8001440:	4018      	ands	r0, r3
 8001442:	0759      	lsls	r1, r3, #29
 8001444:	d500      	bpl.n	8001448 <keyboard_function_manager+0x14>
 8001446:	2003      	movs	r0, #3
 8001448:	0719      	lsls	r1, r3, #28
 800144a:	d500      	bpl.n	800144e <keyboard_function_manager+0x1a>
 800144c:	2004      	movs	r0, #4
 800144e:	06d9      	lsls	r1, r3, #27
 8001450:	d500      	bpl.n	8001454 <keyboard_function_manager+0x20>
 8001452:	2005      	movs	r0, #5
 8001454:	0699      	lsls	r1, r3, #26
 8001456:	d500      	bpl.n	800145a <keyboard_function_manager+0x26>
 8001458:	2006      	movs	r0, #6
 800145a:	0659      	lsls	r1, r3, #25
 800145c:	d500      	bpl.n	8001460 <keyboard_function_manager+0x2c>
 800145e:	2007      	movs	r0, #7
 8001460:	b25b      	sxtb	r3, r3
 8001462:	2b00      	cmp	r3, #0
 8001464:	da00      	bge.n	8001468 <keyboard_function_manager+0x34>
 8001466:	2008      	movs	r0, #8
 8001468:	7853      	ldrb	r3, [r2, #1]
 800146a:	07da      	lsls	r2, r3, #31
 800146c:	d500      	bpl.n	8001470 <keyboard_function_manager+0x3c>
 800146e:	2009      	movs	r0, #9
 8001470:	079a      	lsls	r2, r3, #30
 8001472:	d500      	bpl.n	8001476 <keyboard_function_manager+0x42>
 8001474:	200a      	movs	r0, #10
 8001476:	075a      	lsls	r2, r3, #29
 8001478:	d500      	bpl.n	800147c <keyboard_function_manager+0x48>
 800147a:	200b      	movs	r0, #11
 800147c:	071b      	lsls	r3, r3, #28
 800147e:	d500      	bpl.n	8001482 <keyboard_function_manager+0x4e>
 8001480:	200c      	movs	r0, #12
 8001482:	4770      	bx	lr
 8001484:	2000024a 	.word	0x2000024a

08001488 <PCA9685_setPWM>:
 8001488:	b51f      	push	{r0, r1, r2, r3, r4, lr}
 800148a:	2364      	movs	r3, #100	; 0x64
 800148c:	ac02      	add	r4, sp, #8
 800148e:	0080      	lsls	r0, r0, #2
 8001490:	7061      	strb	r1, [r4, #1]
 8001492:	70e2      	strb	r2, [r4, #3]
 8001494:	3006      	adds	r0, #6
 8001496:	0a09      	lsrs	r1, r1, #8
 8001498:	0a12      	lsrs	r2, r2, #8
 800149a:	7020      	strb	r0, [r4, #0]
 800149c:	70a1      	strb	r1, [r4, #2]
 800149e:	7122      	strb	r2, [r4, #4]
 80014a0:	2180      	movs	r1, #128	; 0x80
 80014a2:	9300      	str	r3, [sp, #0]
 80014a4:	0022      	movs	r2, r4
 80014a6:	3b5f      	subs	r3, #95	; 0x5f
 80014a8:	4801      	ldr	r0, [pc, #4]	; (80014b0 <PCA9685_setPWM+0x28>)
 80014aa:	f001 fa85 	bl	80029b8 <HAL_I2C_Master_Transmit>
 80014ae:	bd1f      	pop	{r0, r1, r2, r3, r4, pc}
 80014b0:	20000134 	.word	0x20000134

080014b4 <PCA9685_setColorLed>:
 80014b4:	b570      	push	{r4, r5, r6, lr}
 80014b6:	2503      	movs	r5, #3
 80014b8:	434d      	muls	r5, r1
 80014ba:	4e13      	ldr	r6, [pc, #76]	; (8001508 <PCA9685_setColorLed+0x54>)
 80014bc:	0004      	movs	r4, r0
 80014be:	5dab      	ldrb	r3, [r5, r6]
 80014c0:	21ff      	movs	r1, #255	; 0xff
 80014c2:	0318      	lsls	r0, r3, #12
 80014c4:	1ac0      	subs	r0, r0, r3
 80014c6:	f7fe fec7 	bl	8000258 <__divsi3>
 80014ca:	1975      	adds	r5, r6, r5
 80014cc:	b282      	uxth	r2, r0
 80014ce:	2100      	movs	r1, #0
 80014d0:	0020      	movs	r0, r4
 80014d2:	f7ff ffd9 	bl	8001488 <PCA9685_setPWM>
 80014d6:	786b      	ldrb	r3, [r5, #1]
 80014d8:	21ff      	movs	r1, #255	; 0xff
 80014da:	0318      	lsls	r0, r3, #12
 80014dc:	1ac0      	subs	r0, r0, r3
 80014de:	f7fe febb 	bl	8000258 <__divsi3>
 80014e2:	b282      	uxth	r2, r0
 80014e4:	1c60      	adds	r0, r4, #1
 80014e6:	b2c0      	uxtb	r0, r0
 80014e8:	2100      	movs	r1, #0
 80014ea:	f7ff ffcd 	bl	8001488 <PCA9685_setPWM>
 80014ee:	78ab      	ldrb	r3, [r5, #2]
 80014f0:	21ff      	movs	r1, #255	; 0xff
 80014f2:	0318      	lsls	r0, r3, #12
 80014f4:	1ac0      	subs	r0, r0, r3
 80014f6:	f7fe feaf 	bl	8000258 <__divsi3>
 80014fa:	3402      	adds	r4, #2
 80014fc:	b282      	uxth	r2, r0
 80014fe:	2100      	movs	r1, #0
 8001500:	b2e0      	uxtb	r0, r4
 8001502:	f7ff ffc1 	bl	8001488 <PCA9685_setPWM>
 8001506:	bd70      	pop	{r4, r5, r6, pc}
 8001508:	20000048 	.word	0x20000048

0800150c <PCA9685_Init_Default>:
 800150c:	b5f0      	push	{r4, r5, r6, r7, lr}
 800150e:	2200      	movs	r2, #0
 8001510:	b085      	sub	sp, #20
 8001512:	2120      	movs	r1, #32
 8001514:	4816      	ldr	r0, [pc, #88]	; (8001570 <PCA9685_Init_Default+0x64>)
 8001516:	f001 f833 	bl	8002580 <HAL_GPIO_WritePin>
 800151a:	2700      	movs	r7, #0
 800151c:	2664      	movs	r6, #100	; 0x64
 800151e:	2321      	movs	r3, #33	; 0x21
 8001520:	4d14      	ldr	r5, [pc, #80]	; (8001574 <PCA9685_Init_Default+0x68>)
 8001522:	ac02      	add	r4, sp, #8
 8001524:	7063      	strb	r3, [r4, #1]
 8001526:	7027      	strb	r7, [r4, #0]
 8001528:	0022      	movs	r2, r4
 800152a:	9600      	str	r6, [sp, #0]
 800152c:	3b1f      	subs	r3, #31
 800152e:	2180      	movs	r1, #128	; 0x80
 8001530:	0028      	movs	r0, r5
 8001532:	f001 fa41 	bl	80029b8 <HAL_I2C_Master_Transmit>
 8001536:	23fe      	movs	r3, #254	; 0xfe
 8001538:	7023      	strb	r3, [r4, #0]
 800153a:	3bf8      	subs	r3, #248	; 0xf8
 800153c:	7063      	strb	r3, [r4, #1]
 800153e:	0022      	movs	r2, r4
 8001540:	9600      	str	r6, [sp, #0]
 8001542:	3b04      	subs	r3, #4
 8001544:	2180      	movs	r1, #128	; 0x80
 8001546:	0028      	movs	r0, r5
 8001548:	f001 fa36 	bl	80029b8 <HAL_I2C_Master_Transmit>
 800154c:	2342      	movs	r3, #66	; 0x42
 800154e:	7023      	strb	r3, [r4, #0]
 8001550:	33bd      	adds	r3, #189	; 0xbd
 8001552:	70e3      	strb	r3, [r4, #3]
 8001554:	3bf0      	subs	r3, #240	; 0xf0
 8001556:	7123      	strb	r3, [r4, #4]
 8001558:	7067      	strb	r7, [r4, #1]
 800155a:	70a7      	strb	r7, [r4, #2]
 800155c:	3b0a      	subs	r3, #10
 800155e:	9600      	str	r6, [sp, #0]
 8001560:	0022      	movs	r2, r4
 8001562:	2180      	movs	r1, #128	; 0x80
 8001564:	0028      	movs	r0, r5
 8001566:	f001 fa27 	bl	80029b8 <HAL_I2C_Master_Transmit>
 800156a:	b005      	add	sp, #20
 800156c:	bdf0      	pop	{r4, r5, r6, r7, pc}
 800156e:	46c0      	nop			; (mov r8, r8)
 8001570:	48000400 	.word	0x48000400
 8001574:	20000134 	.word	0x20000134

08001578 <SystemClock_Config>:
 8001578:	b570      	push	{r4, r5, r6, lr}
 800157a:	2610      	movs	r6, #16
 800157c:	b098      	sub	sp, #96	; 0x60
 800157e:	2234      	movs	r2, #52	; 0x34
 8001580:	2100      	movs	r1, #0
 8001582:	a80b      	add	r0, sp, #44	; 0x2c
 8001584:	f004 fb69 	bl	8005c5a <memset>
 8001588:	0032      	movs	r2, r6
 800158a:	2100      	movs	r1, #0
 800158c:	4668      	mov	r0, sp
 800158e:	f004 fb64 	bl	8005c5a <memset>
 8001592:	221c      	movs	r2, #28
 8001594:	2100      	movs	r1, #0
 8001596:	a804      	add	r0, sp, #16
 8001598:	f004 fb5f 	bl	8005c5a <memset>
 800159c:	2309      	movs	r3, #9
 800159e:	930b      	str	r3, [sp, #44]	; 0x2c
 80015a0:	2380      	movs	r3, #128	; 0x80
 80015a2:	025b      	lsls	r3, r3, #9
 80015a4:	9315      	str	r3, [sp, #84]	; 0x54
 80015a6:	2380      	movs	r3, #128	; 0x80
 80015a8:	2501      	movs	r5, #1
 80015aa:	2402      	movs	r4, #2
 80015ac:	02db      	lsls	r3, r3, #11
 80015ae:	a80b      	add	r0, sp, #44	; 0x2c
 80015b0:	9414      	str	r4, [sp, #80]	; 0x50
 80015b2:	9316      	str	r3, [sp, #88]	; 0x58
 80015b4:	950c      	str	r5, [sp, #48]	; 0x30
 80015b6:	9512      	str	r5, [sp, #72]	; 0x48
 80015b8:	f002 fbb2 	bl	8003d20 <HAL_RCC_OscConfig>
 80015bc:	2307      	movs	r3, #7
 80015be:	9401      	str	r4, [sp, #4]
 80015c0:	2400      	movs	r4, #0
 80015c2:	0029      	movs	r1, r5
 80015c4:	4668      	mov	r0, sp
 80015c6:	9300      	str	r3, [sp, #0]
 80015c8:	9402      	str	r4, [sp, #8]
 80015ca:	9403      	str	r4, [sp, #12]
 80015cc:	f002 fec2 	bl	8004354 <HAL_RCC_ClockConfig>
 80015d0:	4b05      	ldr	r3, [pc, #20]	; (80015e8 <SystemClock_Config+0x70>)
 80015d2:	a804      	add	r0, sp, #16
 80015d4:	9304      	str	r3, [sp, #16]
 80015d6:	2380      	movs	r3, #128	; 0x80
 80015d8:	9406      	str	r4, [sp, #24]
 80015da:	9407      	str	r4, [sp, #28]
 80015dc:	9608      	str	r6, [sp, #32]
 80015de:	930a      	str	r3, [sp, #40]	; 0x28
 80015e0:	f003 f802 	bl	80045e8 <HAL_RCCEx_PeriphCLKConfig>
 80015e4:	b018      	add	sp, #96	; 0x60
 80015e6:	bd70      	pop	{r4, r5, r6, pc}
 80015e8:	00020023 	.word	0x00020023

080015ec <main>:
 80015ec:	b5f7      	push	{r0, r1, r2, r4, r5, r6, r7, lr}
 80015ee:	f000 fc53 	bl	8001e98 <HAL_Init>
 80015f2:	f7ff ffc1 	bl	8001578 <SystemClock_Config>
 80015f6:	f7ff fd7d 	bl	80010f4 <MX_GPIO_Init>
 80015fa:	f7ff fd09 	bl	8001010 <MX_DMA_Init>
 80015fe:	f7ff fbb7 	bl	8000d70 <MX_CRC_Init>
 8001602:	f7ff fe11 	bl	8001228 <MX_I2C1_Init>
 8001606:	f000 fa29 	bl	8001a5c <MX_TIM6_Init>
 800160a:	f000 fa4f 	bl	8001aac <MX_TIM7_Init>
 800160e:	f000 fa75 	bl	8001afc <MX_TIM14_Init>
 8001612:	f000 fb8b 	bl	8001d2c <MX_USART1_UART_Init>
 8001616:	f000 fba5 	bl	8001d64 <MX_USART2_UART_Init>
 800161a:	2200      	movs	r2, #0
 800161c:	2007      	movs	r0, #7
 800161e:	0011      	movs	r1, r2
 8001620:	f000 fc58 	bl	8001ed4 <HAL_NVIC_SetPriority>
 8001624:	2007      	movs	r0, #7
 8001626:	f000 fc8f 	bl	8001f48 <HAL_NVIC_EnableIRQ>
 800162a:	2200      	movs	r2, #0
 800162c:	200a      	movs	r0, #10
 800162e:	0011      	movs	r1, r2
 8001630:	f000 fc50 	bl	8001ed4 <HAL_NVIC_SetPriority>
 8001634:	2200      	movs	r2, #0
 8001636:	200b      	movs	r0, #11
 8001638:	0011      	movs	r1, r2
 800163a:	f000 fc4b 	bl	8001ed4 <HAL_NVIC_SetPriority>
 800163e:	2200      	movs	r2, #0
 8001640:	2011      	movs	r0, #17
 8001642:	0011      	movs	r1, r2
 8001644:	f000 fc46 	bl	8001ed4 <HAL_NVIC_SetPriority>
 8001648:	2200      	movs	r2, #0
 800164a:	2102      	movs	r1, #2
 800164c:	2012      	movs	r0, #18
 800164e:	f000 fc41 	bl	8001ed4 <HAL_NVIC_SetPriority>
 8001652:	2200      	movs	r2, #0
 8001654:	2102      	movs	r1, #2
 8001656:	2013      	movs	r0, #19
 8001658:	f000 fc3c 	bl	8001ed4 <HAL_NVIC_SetPriority>
 800165c:	2013      	movs	r0, #19
 800165e:	f000 fc73 	bl	8001f48 <HAL_NVIC_EnableIRQ>
 8001662:	2200      	movs	r2, #0
 8001664:	2015      	movs	r0, #21
 8001666:	0011      	movs	r1, r2
 8001668:	f000 fc34 	bl	8001ed4 <HAL_NVIC_SetPriority>
 800166c:	2200      	movs	r2, #0
 800166e:	2016      	movs	r0, #22
 8001670:	0011      	movs	r1, r2
 8001672:	f000 fc2f 	bl	8001ed4 <HAL_NVIC_SetPriority>
 8001676:	2200      	movs	r2, #0
 8001678:	2017      	movs	r0, #23
 800167a:	0011      	movs	r1, r2
 800167c:	f000 fc2a 	bl	8001ed4 <HAL_NVIC_SetPriority>
 8001680:	2200      	movs	r2, #0
 8001682:	201b      	movs	r0, #27
 8001684:	0011      	movs	r1, r2
 8001686:	f000 fc25 	bl	8001ed4 <HAL_NVIC_SetPriority>
 800168a:	2200      	movs	r2, #0
 800168c:	201c      	movs	r0, #28
 800168e:	0011      	movs	r1, r2
 8001690:	f000 fc20 	bl	8001ed4 <HAL_NVIC_SetPriority>
 8001694:	f7ff fcde 	bl	8001054 <Encoder_Init>
 8001698:	f000 faa0 	bl	8001bdc <Main_Clock_Init>
 800169c:	485d      	ldr	r0, [pc, #372]	; (8001814 <main+0x228>)
 800169e:	f000 fa47 	bl	8001b30 <HAL_TIM_Base_MspInit>
 80016a2:	485d      	ldr	r0, [pc, #372]	; (8001818 <main+0x22c>)
 80016a4:	f7ff fdee 	bl	8001284 <HAL_I2C_MspInit>
 80016a8:	2320      	movs	r3, #32
 80016aa:	4c5c      	ldr	r4, [pc, #368]	; (800181c <main+0x230>)
 80016ac:	2600      	movs	r6, #0
 80016ae:	7023      	strb	r3, [r4, #0]
 80016b0:	f7ff fc32 	bl	8000f18 <Display16Seg_Start>
 80016b4:	2200      	movs	r2, #0
 80016b6:	7820      	ldrb	r0, [r4, #0]
 80016b8:	0011      	movs	r1, r2
 80016ba:	f7ff fc3b 	bl	8000f34 <Display16Seg_Char>
 80016be:	f7ff ff25 	bl	800150c <PCA9685_Init_Default>
 80016c2:	4c57      	ldr	r4, [pc, #348]	; (8001820 <main+0x234>)
 80016c4:	0031      	movs	r1, r6
 80016c6:	1de3      	adds	r3, r4, #7
 80016c8:	77de      	strb	r6, [r3, #31]
 80016ca:	200c      	movs	r0, #12
 80016cc:	f7ff fef2 	bl	80014b4 <PCA9685_setColorLed>
 80016d0:	0031      	movs	r1, r6
 80016d2:	0030      	movs	r0, r6
 80016d4:	71a6      	strb	r6, [r4, #6]
 80016d6:	f7ff feed 	bl	80014b4 <PCA9685_setColorLed>
 80016da:	0031      	movs	r1, r6
 80016dc:	73a6      	strb	r6, [r4, #14]
 80016de:	2003      	movs	r0, #3
 80016e0:	f7ff fee8 	bl	80014b4 <PCA9685_setColorLed>
 80016e4:	0031      	movs	r1, r6
 80016e6:	75a6      	strb	r6, [r4, #22]
 80016e8:	2006      	movs	r0, #6
 80016ea:	f7ff fee3 	bl	80014b4 <PCA9685_setColorLed>
 80016ee:	77a6      	strb	r6, [r4, #30]
 80016f0:	0031      	movs	r1, r6
 80016f2:	2009      	movs	r0, #9
 80016f4:	f7ff fede 	bl	80014b4 <PCA9685_setColorLed>
 80016f8:	4d4a      	ldr	r5, [pc, #296]	; (8001824 <main+0x238>)
 80016fa:	4b4b      	ldr	r3, [pc, #300]	; (8001828 <main+0x23c>)
 80016fc:	8426      	strh	r6, [r4, #32]
 80016fe:	8466      	strh	r6, [r4, #34]	; 0x22
 8001700:	84a6      	strh	r6, [r4, #36]	; 0x24
 8001702:	602e      	str	r6, [r5, #0]
 8001704:	606e      	str	r6, [r5, #4]
 8001706:	60ae      	str	r6, [r5, #8]
 8001708:	701e      	strb	r6, [r3, #0]
 800170a:	3611      	adds	r6, #17
 800170c:	9601      	str	r6, [sp, #4]
 800170e:	4b47      	ldr	r3, [pc, #284]	; (800182c <main+0x240>)
 8001710:	4f47      	ldr	r7, [pc, #284]	; (8001830 <main+0x244>)
 8001712:	781b      	ldrb	r3, [r3, #0]
 8001714:	2b01      	cmp	r3, #1
 8001716:	d107      	bne.n	8001728 <main+0x13c>
 8001718:	f7ff fde8 	bl	80012ec <read_input_keyboard>
 800171c:	6838      	ldr	r0, [r7, #0]
 800171e:	f7ff fc85 	bl	800102c <Encoder_Get>
 8001722:	2300      	movs	r3, #0
 8001724:	4a41      	ldr	r2, [pc, #260]	; (800182c <main+0x240>)
 8001726:	7013      	strb	r3, [r2, #0]
 8001728:	683b      	ldr	r3, [r7, #0]
 800172a:	8a5b      	ldrh	r3, [r3, #18]
 800172c:	429e      	cmp	r6, r3
 800172e:	d005      	beq.n	800173c <main+0x150>
 8001730:	2200      	movs	r2, #0
 8001732:	b2de      	uxtb	r6, r3
 8001734:	0011      	movs	r1, r2
 8001736:	0030      	movs	r0, r6
 8001738:	f7ff fc34 	bl	8000fa4 <Display16Seg_Num>
 800173c:	f7ff fe7a 	bl	8001434 <keyboard_function_manager>
 8001740:	9b01      	ldr	r3, [sp, #4]
 8001742:	0007      	movs	r7, r0
 8001744:	4283      	cmp	r3, r0
 8001746:	d01c      	beq.n	8001782 <main+0x196>
 8001748:	f7ff fe74 	bl	8001434 <keyboard_function_manager>
 800174c:	1e07      	subs	r7, r0, #0
 800174e:	d111      	bne.n	8001774 <main+0x188>
 8001750:	0001      	movs	r1, r0
 8001752:	71a0      	strb	r0, [r4, #6]
 8001754:	73a0      	strb	r0, [r4, #14]
 8001756:	75a0      	strb	r0, [r4, #22]
 8001758:	77a0      	strb	r0, [r4, #30]
 800175a:	f7ff feab 	bl	80014b4 <PCA9685_setColorLed>
 800175e:	7ba1      	ldrb	r1, [r4, #14]
 8001760:	2003      	movs	r0, #3
 8001762:	f7ff fea7 	bl	80014b4 <PCA9685_setColorLed>
 8001766:	7da1      	ldrb	r1, [r4, #22]
 8001768:	2006      	movs	r0, #6
 800176a:	f7ff fea3 	bl	80014b4 <PCA9685_setColorLed>
 800176e:	7fa1      	ldrb	r1, [r4, #30]
 8001770:	2009      	movs	r0, #9
 8001772:	e004      	b.n	800177e <main+0x192>
 8001774:	2803      	cmp	r0, #3
 8001776:	d83b      	bhi.n	80017f0 <main+0x204>
 8001778:	71a0      	strb	r0, [r4, #6]
 800177a:	0001      	movs	r1, r0
 800177c:	2000      	movs	r0, #0
 800177e:	f7ff fe99 	bl	80014b4 <PCA9685_setColorLed>
 8001782:	4b2c      	ldr	r3, [pc, #176]	; (8001834 <main+0x248>)
 8001784:	781b      	ldrb	r3, [r3, #0]
 8001786:	2b00      	cmp	r3, #0
 8001788:	d030      	beq.n	80017ec <main+0x200>
 800178a:	4b27      	ldr	r3, [pc, #156]	; (8001828 <main+0x23c>)
 800178c:	781b      	ldrb	r3, [r3, #0]
 800178e:	2b00      	cmp	r3, #0
 8001790:	d11a      	bne.n	80017c8 <main+0x1dc>
 8001792:	8c22      	ldrh	r2, [r4, #32]
 8001794:	4928      	ldr	r1, [pc, #160]	; (8001838 <main+0x24c>)
 8001796:	32cd      	adds	r2, #205	; 0xcd
 8001798:	b292      	uxth	r2, r2
 800179a:	8422      	strh	r2, [r4, #32]
 800179c:	428a      	cmp	r2, r1
 800179e:	d913      	bls.n	80017c8 <main+0x1dc>
 80017a0:	686a      	ldr	r2, [r5, #4]
 80017a2:	602b      	str	r3, [r5, #0]
 80017a4:	32cd      	adds	r2, #205	; 0xcd
 80017a6:	606a      	str	r2, [r5, #4]
 80017a8:	b292      	uxth	r2, r2
 80017aa:	8423      	strh	r3, [r4, #32]
 80017ac:	8462      	strh	r2, [r4, #34]	; 0x22
 80017ae:	428a      	cmp	r2, r1
 80017b0:	d90a      	bls.n	80017c8 <main+0x1dc>
 80017b2:	68aa      	ldr	r2, [r5, #8]
 80017b4:	606b      	str	r3, [r5, #4]
 80017b6:	32cd      	adds	r2, #205	; 0xcd
 80017b8:	60aa      	str	r2, [r5, #8]
 80017ba:	b292      	uxth	r2, r2
 80017bc:	8463      	strh	r3, [r4, #34]	; 0x22
 80017be:	84a2      	strh	r2, [r4, #36]	; 0x24
 80017c0:	428a      	cmp	r2, r1
 80017c2:	d901      	bls.n	80017c8 <main+0x1dc>
 80017c4:	60ab      	str	r3, [r5, #8]
 80017c6:	84a3      	strh	r3, [r4, #36]	; 0x24
 80017c8:	8c22      	ldrh	r2, [r4, #32]
 80017ca:	2100      	movs	r1, #0
 80017cc:	200c      	movs	r0, #12
 80017ce:	f7ff fe5b 	bl	8001488 <PCA9685_setPWM>
 80017d2:	8c62      	ldrh	r2, [r4, #34]	; 0x22
 80017d4:	2100      	movs	r1, #0
 80017d6:	200d      	movs	r0, #13
 80017d8:	f7ff fe56 	bl	8001488 <PCA9685_setPWM>
 80017dc:	8ca2      	ldrh	r2, [r4, #36]	; 0x24
 80017de:	2100      	movs	r1, #0
 80017e0:	200e      	movs	r0, #14
 80017e2:	f7ff fe51 	bl	8001488 <PCA9685_setPWM>
 80017e6:	2200      	movs	r2, #0
 80017e8:	4b12      	ldr	r3, [pc, #72]	; (8001834 <main+0x248>)
 80017ea:	701a      	strb	r2, [r3, #0]
 80017ec:	9701      	str	r7, [sp, #4]
 80017ee:	e78e      	b.n	800170e <main+0x122>
 80017f0:	2806      	cmp	r0, #6
 80017f2:	d803      	bhi.n	80017fc <main+0x210>
 80017f4:	73a0      	strb	r0, [r4, #14]
 80017f6:	0001      	movs	r1, r0
 80017f8:	2003      	movs	r0, #3
 80017fa:	e7c0      	b.n	800177e <main+0x192>
 80017fc:	2809      	cmp	r0, #9
 80017fe:	d803      	bhi.n	8001808 <main+0x21c>
 8001800:	75a0      	strb	r0, [r4, #22]
 8001802:	0001      	movs	r1, r0
 8001804:	2006      	movs	r0, #6
 8001806:	e7ba      	b.n	800177e <main+0x192>
 8001808:	280c      	cmp	r0, #12
 800180a:	d8ba      	bhi.n	8001782 <main+0x196>
 800180c:	77a0      	strb	r0, [r4, #30]
 800180e:	0001      	movs	r1, r0
 8001810:	e7ae      	b.n	8001770 <main+0x184>
 8001812:	46c0      	nop			; (mov r8, r8)
 8001814:	2000031c 	.word	0x2000031c
 8001818:	20000134 	.word	0x20000134
 800181c:	20000248 	.word	0x20000248
 8001820:	200001f8 	.word	0x200001f8
 8001824:	2000024c 	.word	0x2000024c
 8001828:	20000259 	.word	0x20000259
 800182c:	20000258 	.word	0x20000258
 8001830:	20000240 	.word	0x20000240
 8001834:	200001c8 	.word	0x200001c8
 8001838:	00000ffe 	.word	0x00000ffe

0800183c <HAL_TIM_PeriodElapsedCallback>:
 800183c:	4b03      	ldr	r3, [pc, #12]	; (800184c <HAL_TIM_PeriodElapsedCallback+0x10>)
 800183e:	6802      	ldr	r2, [r0, #0]
 8001840:	b510      	push	{r4, lr}
 8001842:	429a      	cmp	r2, r3
 8001844:	d101      	bne.n	800184a <HAL_TIM_PeriodElapsedCallback+0xe>
 8001846:	f000 fb37 	bl	8001eb8 <HAL_IncTick>
 800184a:	bd10      	pop	{r4, pc}
 800184c:	40012c00 	.word	0x40012c00

08001850 <Error_Handler>:
 8001850:	4770      	bx	lr

08001852 <assert_failed>:
 8001852:	4770      	bx	lr

08001854 <HAL_MspInit>:
 8001854:	2001      	movs	r0, #1
 8001856:	4b0a      	ldr	r3, [pc, #40]	; (8001880 <HAL_MspInit+0x2c>)
 8001858:	b082      	sub	sp, #8
 800185a:	6999      	ldr	r1, [r3, #24]
 800185c:	4301      	orrs	r1, r0
 800185e:	6199      	str	r1, [r3, #24]
 8001860:	2180      	movs	r1, #128	; 0x80
 8001862:	699a      	ldr	r2, [r3, #24]
 8001864:	0549      	lsls	r1, r1, #21
 8001866:	4002      	ands	r2, r0
 8001868:	9200      	str	r2, [sp, #0]
 800186a:	9a00      	ldr	r2, [sp, #0]
 800186c:	69da      	ldr	r2, [r3, #28]
 800186e:	430a      	orrs	r2, r1
 8001870:	61da      	str	r2, [r3, #28]
 8001872:	69db      	ldr	r3, [r3, #28]
 8001874:	400b      	ands	r3, r1
 8001876:	9301      	str	r3, [sp, #4]
 8001878:	9b01      	ldr	r3, [sp, #4]
 800187a:	b002      	add	sp, #8
 800187c:	4770      	bx	lr
 800187e:	46c0      	nop			; (mov r8, r8)
 8001880:	40021000 	.word	0x40021000

08001884 <HAL_InitTick>:
 8001884:	b510      	push	{r4, lr}
 8001886:	0001      	movs	r1, r0
 8001888:	b086      	sub	sp, #24
 800188a:	2200      	movs	r2, #0
 800188c:	200d      	movs	r0, #13
 800188e:	f000 fb21 	bl	8001ed4 <HAL_NVIC_SetPriority>
 8001892:	200d      	movs	r0, #13
 8001894:	f000 fb58 	bl	8001f48 <HAL_NVIC_EnableIRQ>
 8001898:	2080      	movs	r0, #128	; 0x80
 800189a:	4a14      	ldr	r2, [pc, #80]	; (80018ec <HAL_InitTick+0x68>)
 800189c:	0100      	lsls	r0, r0, #4
 800189e:	6991      	ldr	r1, [r2, #24]
 80018a0:	4301      	orrs	r1, r0
 80018a2:	6191      	str	r1, [r2, #24]
 80018a4:	6993      	ldr	r3, [r2, #24]
 80018a6:	4669      	mov	r1, sp
 80018a8:	4003      	ands	r3, r0
 80018aa:	9301      	str	r3, [sp, #4]
 80018ac:	a802      	add	r0, sp, #8
 80018ae:	9b01      	ldr	r3, [sp, #4]
 80018b0:	f002 fe6a 	bl	8004588 <HAL_RCC_GetClockConfig>
 80018b4:	f002 fe58 	bl	8004568 <HAL_RCC_GetPCLK1Freq>
 80018b8:	4c0d      	ldr	r4, [pc, #52]	; (80018f0 <HAL_InitTick+0x6c>)
 80018ba:	4b0e      	ldr	r3, [pc, #56]	; (80018f4 <HAL_InitTick+0x70>)
 80018bc:	490e      	ldr	r1, [pc, #56]	; (80018f8 <HAL_InitTick+0x74>)
 80018be:	6023      	str	r3, [r4, #0]
 80018c0:	4b0e      	ldr	r3, [pc, #56]	; (80018fc <HAL_InitTick+0x78>)
 80018c2:	60e3      	str	r3, [r4, #12]
 80018c4:	f7fe fc3e 	bl	8000144 <__udivsi3>
 80018c8:	2300      	movs	r3, #0
 80018ca:	3801      	subs	r0, #1
 80018cc:	6060      	str	r0, [r4, #4]
 80018ce:	0020      	movs	r0, r4
 80018d0:	6123      	str	r3, [r4, #16]
 80018d2:	60a3      	str	r3, [r4, #8]
 80018d4:	f003 f8a6 	bl	8004a24 <HAL_TIM_Base_Init>
 80018d8:	0003      	movs	r3, r0
 80018da:	2001      	movs	r0, #1
 80018dc:	2b00      	cmp	r3, #0
 80018de:	d102      	bne.n	80018e6 <HAL_InitTick+0x62>
 80018e0:	0020      	movs	r0, r4
 80018e2:	f002 ff67 	bl	80047b4 <HAL_TIM_Base_Start_IT>
 80018e6:	b006      	add	sp, #24
 80018e8:	bd10      	pop	{r4, pc}
 80018ea:	46c0      	nop			; (mov r8, r8)
 80018ec:	40021000 	.word	0x40021000
 80018f0:	2000025c 	.word	0x2000025c
 80018f4:	40012c00 	.word	0x40012c00
 80018f8:	000f4240 	.word	0x000f4240
 80018fc:	000003e7 	.word	0x000003e7

08001900 <NMI_Handler>:
 8001900:	4770      	bx	lr

08001902 <HardFault_Handler>:
 8001902:	e7fe      	b.n	8001902 <HardFault_Handler>

08001904 <SVC_Handler>:
 8001904:	4770      	bx	lr

08001906 <PendSV_Handler>:
 8001906:	4770      	bx	lr

08001908 <SysTick_Handler>:
 8001908:	4770      	bx	lr
	...

0800190c <EXTI4_15_IRQHandler>:
 800190c:	b510      	push	{r4, lr}
 800190e:	2010      	movs	r0, #16
 8001910:	f000 fe52 	bl	80025b8 <HAL_GPIO_EXTI_IRQHandler>
 8001914:	2020      	movs	r0, #32
 8001916:	f000 fe4f 	bl	80025b8 <HAL_GPIO_EXTI_IRQHandler>
 800191a:	4b02      	ldr	r3, [pc, #8]	; (8001924 <EXTI4_15_IRQHandler+0x18>)
 800191c:	6818      	ldr	r0, [r3, #0]
 800191e:	f7ff fbab 	bl	8001078 <Encoder_Process>
 8001922:	bd10      	pop	{r4, pc}
 8001924:	20000240 	.word	0x20000240

08001928 <DMA1_Channel2_3_IRQHandler>:
 8001928:	b510      	push	{r4, lr}
 800192a:	4802      	ldr	r0, [pc, #8]	; (8001934 <DMA1_Channel2_3_IRQHandler+0xc>)
 800192c:	f000 fca1 	bl	8002272 <HAL_DMA_IRQHandler>
 8001930:	bd10      	pop	{r4, pc}
 8001932:	46c0      	nop			; (mov r8, r8)
 8001934:	20000180 	.word	0x20000180

08001938 <DMA1_Channel4_5_6_7_IRQHandler>:
 8001938:	b510      	push	{r4, lr}
 800193a:	4802      	ldr	r0, [pc, #8]	; (8001944 <DMA1_Channel4_5_6_7_IRQHandler+0xc>)
 800193c:	f000 fc99 	bl	8002272 <HAL_DMA_IRQHandler>
 8001940:	bd10      	pop	{r4, pc}
 8001942:	46c0      	nop			; (mov r8, r8)
 8001944:	200003dc 	.word	0x200003dc

08001948 <TIM1_BRK_UP_TRG_COM_IRQHandler>:
 8001948:	b510      	push	{r4, lr}
 800194a:	4802      	ldr	r0, [pc, #8]	; (8001954 <TIM1_BRK_UP_TRG_COM_IRQHandler+0xc>)
 800194c:	f002 ff76 	bl	800483c <HAL_TIM_IRQHandler>
 8001950:	bd10      	pop	{r4, pc}
 8001952:	46c0      	nop			; (mov r8, r8)
 8001954:	2000025c 	.word	0x2000025c

08001958 <TIM6_DAC_IRQHandler>:
 8001958:	b510      	push	{r4, lr}
 800195a:	4802      	ldr	r0, [pc, #8]	; (8001964 <TIM6_DAC_IRQHandler+0xc>)
 800195c:	f002 ff6e 	bl	800483c <HAL_TIM_IRQHandler>
 8001960:	bd10      	pop	{r4, pc}
 8001962:	46c0      	nop			; (mov r8, r8)
 8001964:	200002dc 	.word	0x200002dc

08001968 <TIM7_IRQHandler>:
 8001968:	b510      	push	{r4, lr}
 800196a:	4802      	ldr	r0, [pc, #8]	; (8001974 <TIM7_IRQHandler+0xc>)
 800196c:	f002 ff66 	bl	800483c <HAL_TIM_IRQHandler>
 8001970:	bd10      	pop	{r4, pc}
 8001972:	46c0      	nop			; (mov r8, r8)
 8001974:	2000039c 	.word	0x2000039c

08001978 <TIM14_IRQHandler>:
 8001978:	b510      	push	{r4, lr}
 800197a:	4803      	ldr	r0, [pc, #12]	; (8001988 <TIM14_IRQHandler+0x10>)
 800197c:	f002 ff5e 	bl	800483c <HAL_TIM_IRQHandler>
 8001980:	f000 f940 	bl	8001c04 <System_Clock_Timer_TickTIM6>
 8001984:	bd10      	pop	{r4, pc}
 8001986:	46c0      	nop			; (mov r8, r8)
 8001988:	2000031c 	.word	0x2000031c

0800198c <TIM16_IRQHandler>:
 800198c:	b510      	push	{r4, lr}
 800198e:	4802      	ldr	r0, [pc, #8]	; (8001998 <TIM16_IRQHandler+0xc>)
 8001990:	f002 ff54 	bl	800483c <HAL_TIM_IRQHandler>
 8001994:	bd10      	pop	{r4, pc}
 8001996:	46c0      	nop			; (mov r8, r8)
 8001998:	2000035c 	.word	0x2000035c

0800199c <TIM17_IRQHandler>:
 800199c:	b510      	push	{r4, lr}
 800199e:	4802      	ldr	r0, [pc, #8]	; (80019a8 <TIM17_IRQHandler+0xc>)
 80019a0:	f002 ff4c 	bl	800483c <HAL_TIM_IRQHandler>
 80019a4:	bd10      	pop	{r4, pc}
 80019a6:	46c0      	nop			; (mov r8, r8)
 80019a8:	2000029c 	.word	0x2000029c

080019ac <I2C1_IRQHandler>:
 80019ac:	4806      	ldr	r0, [pc, #24]	; (80019c8 <I2C1_IRQHandler+0x1c>)
 80019ae:	b510      	push	{r4, lr}
 80019b0:	6803      	ldr	r3, [r0, #0]
 80019b2:	699a      	ldr	r2, [r3, #24]
 80019b4:	23e0      	movs	r3, #224	; 0xe0
 80019b6:	00db      	lsls	r3, r3, #3
 80019b8:	421a      	tst	r2, r3
 80019ba:	d002      	beq.n	80019c2 <I2C1_IRQHandler+0x16>
 80019bc:	f001 fad2 	bl	8002f64 <HAL_I2C_ER_IRQHandler>
 80019c0:	bd10      	pop	{r4, pc}
 80019c2:	f001 f891 	bl	8002ae8 <HAL_I2C_EV_IRQHandler>
 80019c6:	e7fb      	b.n	80019c0 <I2C1_IRQHandler+0x14>
 80019c8:	20000134 	.word	0x20000134

080019cc <USART1_IRQHandler>:
 80019cc:	b510      	push	{r4, lr}
 80019ce:	4802      	ldr	r0, [pc, #8]	; (80019d8 <USART1_IRQHandler+0xc>)
 80019d0:	f003 fc68 	bl	80052a4 <HAL_UART_IRQHandler>
 80019d4:	bd10      	pop	{r4, pc}
 80019d6:	46c0      	nop			; (mov r8, r8)
 80019d8:	200004a8 	.word	0x200004a8

080019dc <USART2_IRQHandler>:
 80019dc:	b510      	push	{r4, lr}
 80019de:	4802      	ldr	r0, [pc, #8]	; (80019e8 <USART2_IRQHandler+0xc>)
 80019e0:	f003 fc60 	bl	80052a4 <HAL_UART_IRQHandler>
 80019e4:	bd10      	pop	{r4, pc}
 80019e6:	46c0      	nop			; (mov r8, r8)
 80019e8:	20000518 	.word	0x20000518

080019ec <USB_IRQHandler>:
 80019ec:	b510      	push	{r4, lr}
 80019ee:	4802      	ldr	r0, [pc, #8]	; (80019f8 <USB_IRQHandler+0xc>)
 80019f0:	f001 ff56 	bl	80038a0 <HAL_PCD_IRQHandler>
 80019f4:	bd10      	pop	{r4, pc}
 80019f6:	46c0      	nop			; (mov r8, r8)
 80019f8:	2000058c 	.word	0x2000058c

080019fc <SystemInit>:
 80019fc:	2101      	movs	r1, #1
 80019fe:	4b11      	ldr	r3, [pc, #68]	; (8001a44 <SystemInit+0x48>)
 8001a00:	4811      	ldr	r0, [pc, #68]	; (8001a48 <SystemInit+0x4c>)
 8001a02:	681a      	ldr	r2, [r3, #0]
 8001a04:	430a      	orrs	r2, r1
 8001a06:	601a      	str	r2, [r3, #0]
 8001a08:	685a      	ldr	r2, [r3, #4]
 8001a0a:	4002      	ands	r2, r0
 8001a0c:	605a      	str	r2, [r3, #4]
 8001a0e:	681a      	ldr	r2, [r3, #0]
 8001a10:	480e      	ldr	r0, [pc, #56]	; (8001a4c <SystemInit+0x50>)
 8001a12:	4002      	ands	r2, r0
 8001a14:	601a      	str	r2, [r3, #0]
 8001a16:	681a      	ldr	r2, [r3, #0]
 8001a18:	480d      	ldr	r0, [pc, #52]	; (8001a50 <SystemInit+0x54>)
 8001a1a:	4002      	ands	r2, r0
 8001a1c:	601a      	str	r2, [r3, #0]
 8001a1e:	685a      	ldr	r2, [r3, #4]
 8001a20:	480c      	ldr	r0, [pc, #48]	; (8001a54 <SystemInit+0x58>)
 8001a22:	4002      	ands	r2, r0
 8001a24:	200f      	movs	r0, #15
 8001a26:	605a      	str	r2, [r3, #4]
 8001a28:	6ada      	ldr	r2, [r3, #44]	; 0x2c
 8001a2a:	4382      	bics	r2, r0
 8001a2c:	62da      	str	r2, [r3, #44]	; 0x2c
 8001a2e:	6b1a      	ldr	r2, [r3, #48]	; 0x30
 8001a30:	4809      	ldr	r0, [pc, #36]	; (8001a58 <SystemInit+0x5c>)
 8001a32:	4002      	ands	r2, r0
 8001a34:	631a      	str	r2, [r3, #48]	; 0x30
 8001a36:	6b5a      	ldr	r2, [r3, #52]	; 0x34
 8001a38:	438a      	bics	r2, r1
 8001a3a:	635a      	str	r2, [r3, #52]	; 0x34
 8001a3c:	2200      	movs	r2, #0
 8001a3e:	609a      	str	r2, [r3, #8]
 8001a40:	4770      	bx	lr
 8001a42:	46c0      	nop			; (mov r8, r8)
 8001a44:	40021000 	.word	0x40021000
 8001a48:	08ffb80c 	.word	0x08ffb80c
 8001a4c:	fef6ffff 	.word	0xfef6ffff
 8001a50:	fffbffff 	.word	0xfffbffff
 8001a54:	ffc0ffff 	.word	0xffc0ffff
 8001a58:	fffcfe2c 	.word	0xfffcfe2c

08001a5c <MX_TIM6_Init>:
 8001a5c:	b537      	push	{r0, r1, r2, r4, r5, lr}
 8001a5e:	2208      	movs	r2, #8
 8001a60:	2100      	movs	r1, #0
 8001a62:	4668      	mov	r0, sp
 8001a64:	f004 f8f9 	bl	8005c5a <memset>
 8001a68:	4c0d      	ldr	r4, [pc, #52]	; (8001aa0 <MX_TIM6_Init+0x44>)
 8001a6a:	4b0e      	ldr	r3, [pc, #56]	; (8001aa4 <MX_TIM6_Init+0x48>)
 8001a6c:	2500      	movs	r5, #0
 8001a6e:	6023      	str	r3, [r4, #0]
 8001a70:	2330      	movs	r3, #48	; 0x30
 8001a72:	6063      	str	r3, [r4, #4]
 8001a74:	4b0c      	ldr	r3, [pc, #48]	; (8001aa8 <MX_TIM6_Init+0x4c>)
 8001a76:	0020      	movs	r0, r4
 8001a78:	60a5      	str	r5, [r4, #8]
 8001a7a:	60e3      	str	r3, [r4, #12]
 8001a7c:	61a5      	str	r5, [r4, #24]
 8001a7e:	f002 ffd1 	bl	8004a24 <HAL_TIM_Base_Init>
 8001a82:	42a8      	cmp	r0, r5
 8001a84:	d001      	beq.n	8001a8a <MX_TIM6_Init+0x2e>
 8001a86:	f7ff fee3 	bl	8001850 <Error_Handler>
 8001a8a:	4669      	mov	r1, sp
 8001a8c:	0020      	movs	r0, r4
 8001a8e:	9500      	str	r5, [sp, #0]
 8001a90:	9501      	str	r5, [sp, #4]
 8001a92:	f003 f83b 	bl	8004b0c <HAL_TIMEx_MasterConfigSynchronization>
 8001a96:	2800      	cmp	r0, #0
 8001a98:	d001      	beq.n	8001a9e <MX_TIM6_Init+0x42>
 8001a9a:	f7ff fed9 	bl	8001850 <Error_Handler>
 8001a9e:	bd37      	pop	{r0, r1, r2, r4, r5, pc}
 8001aa0:	200002dc 	.word	0x200002dc
 8001aa4:	40001000 	.word	0x40001000
 8001aa8:	0000270f 	.word	0x0000270f

08001aac <MX_TIM7_Init>:
 8001aac:	b537      	push	{r0, r1, r2, r4, r5, lr}
 8001aae:	2208      	movs	r2, #8
 8001ab0:	2100      	movs	r1, #0
 8001ab2:	4668      	mov	r0, sp
 8001ab4:	f004 f8d1 	bl	8005c5a <memset>
 8001ab8:	4c0d      	ldr	r4, [pc, #52]	; (8001af0 <MX_TIM7_Init+0x44>)
 8001aba:	4b0e      	ldr	r3, [pc, #56]	; (8001af4 <MX_TIM7_Init+0x48>)
 8001abc:	2500      	movs	r5, #0
 8001abe:	6023      	str	r3, [r4, #0]
 8001ac0:	2330      	movs	r3, #48	; 0x30
 8001ac2:	6063      	str	r3, [r4, #4]
 8001ac4:	4b0c      	ldr	r3, [pc, #48]	; (8001af8 <MX_TIM7_Init+0x4c>)
 8001ac6:	0020      	movs	r0, r4
 8001ac8:	60a5      	str	r5, [r4, #8]
 8001aca:	60e3      	str	r3, [r4, #12]
 8001acc:	61a5      	str	r5, [r4, #24]
 8001ace:	f002 ffa9 	bl	8004a24 <HAL_TIM_Base_Init>
 8001ad2:	42a8      	cmp	r0, r5
 8001ad4:	d001      	beq.n	8001ada <MX_TIM7_Init+0x2e>
 8001ad6:	f7ff febb 	bl	8001850 <Error_Handler>
 8001ada:	4669      	mov	r1, sp
 8001adc:	0020      	movs	r0, r4
 8001ade:	9500      	str	r5, [sp, #0]
 8001ae0:	9501      	str	r5, [sp, #4]
 8001ae2:	f003 f813 	bl	8004b0c <HAL_TIMEx_MasterConfigSynchronization>
 8001ae6:	2800      	cmp	r0, #0
 8001ae8:	d001      	beq.n	8001aee <MX_TIM7_Init+0x42>
 8001aea:	f7ff feb1 	bl	8001850 <Error_Handler>
 8001aee:	bd37      	pop	{r0, r1, r2, r4, r5, pc}
 8001af0:	2000039c 	.word	0x2000039c
 8001af4:	40001400 	.word	0x40001400
 8001af8:	0000270f 	.word	0x0000270f

08001afc <MX_TIM14_Init>:
 8001afc:	4809      	ldr	r0, [pc, #36]	; (8001b24 <MX_TIM14_Init+0x28>)
 8001afe:	4b0a      	ldr	r3, [pc, #40]	; (8001b28 <MX_TIM14_Init+0x2c>)
 8001b00:	b510      	push	{r4, lr}
 8001b02:	6003      	str	r3, [r0, #0]
 8001b04:	2330      	movs	r3, #48	; 0x30
 8001b06:	6043      	str	r3, [r0, #4]
 8001b08:	2300      	movs	r3, #0
 8001b0a:	4a08      	ldr	r2, [pc, #32]	; (8001b2c <MX_TIM14_Init+0x30>)
 8001b0c:	6083      	str	r3, [r0, #8]
 8001b0e:	6103      	str	r3, [r0, #16]
 8001b10:	3380      	adds	r3, #128	; 0x80
 8001b12:	60c2      	str	r2, [r0, #12]
 8001b14:	6183      	str	r3, [r0, #24]
 8001b16:	f002 ff85 	bl	8004a24 <HAL_TIM_Base_Init>
 8001b1a:	2800      	cmp	r0, #0
 8001b1c:	d001      	beq.n	8001b22 <MX_TIM14_Init+0x26>
 8001b1e:	f7ff fe97 	bl	8001850 <Error_Handler>
 8001b22:	bd10      	pop	{r4, pc}
 8001b24:	2000031c 	.word	0x2000031c
 8001b28:	40002000 	.word	0x40002000
 8001b2c:	0000270f 	.word	0x0000270f

08001b30 <HAL_TIM_Base_MspInit>:
 8001b30:	b510      	push	{r4, lr}
 8001b32:	6803      	ldr	r3, [r0, #0]
 8001b34:	4a23      	ldr	r2, [pc, #140]	; (8001bc4 <HAL_TIM_Base_MspInit+0x94>)
 8001b36:	b086      	sub	sp, #24
 8001b38:	4293      	cmp	r3, r2
 8001b3a:	d10c      	bne.n	8001b56 <HAL_TIM_Base_MspInit+0x26>
 8001b3c:	2410      	movs	r4, #16
 8001b3e:	4a22      	ldr	r2, [pc, #136]	; (8001bc8 <HAL_TIM_Base_MspInit+0x98>)
 8001b40:	69d1      	ldr	r1, [r2, #28]
 8001b42:	4321      	orrs	r1, r4
 8001b44:	61d1      	str	r1, [r2, #28]
 8001b46:	69d3      	ldr	r3, [r2, #28]
 8001b48:	4023      	ands	r3, r4
 8001b4a:	9301      	str	r3, [sp, #4]
 8001b4c:	9b01      	ldr	r3, [sp, #4]
 8001b4e:	f002 fe31 	bl	80047b4 <HAL_TIM_Base_Start_IT>
 8001b52:	b006      	add	sp, #24
 8001b54:	bd10      	pop	{r4, pc}
 8001b56:	4a1d      	ldr	r2, [pc, #116]	; (8001bcc <HAL_TIM_Base_MspInit+0x9c>)
 8001b58:	4293      	cmp	r3, r2
 8001b5a:	d109      	bne.n	8001b70 <HAL_TIM_Base_MspInit+0x40>
 8001b5c:	2420      	movs	r4, #32
 8001b5e:	4a1a      	ldr	r2, [pc, #104]	; (8001bc8 <HAL_TIM_Base_MspInit+0x98>)
 8001b60:	69d1      	ldr	r1, [r2, #28]
 8001b62:	4321      	orrs	r1, r4
 8001b64:	61d1      	str	r1, [r2, #28]
 8001b66:	69d3      	ldr	r3, [r2, #28]
 8001b68:	4023      	ands	r3, r4
 8001b6a:	9302      	str	r3, [sp, #8]
 8001b6c:	9b02      	ldr	r3, [sp, #8]
 8001b6e:	e7ee      	b.n	8001b4e <HAL_TIM_Base_MspInit+0x1e>
 8001b70:	4a17      	ldr	r2, [pc, #92]	; (8001bd0 <HAL_TIM_Base_MspInit+0xa0>)
 8001b72:	4293      	cmp	r3, r2
 8001b74:	d10a      	bne.n	8001b8c <HAL_TIM_Base_MspInit+0x5c>
 8001b76:	2480      	movs	r4, #128	; 0x80
 8001b78:	4a13      	ldr	r2, [pc, #76]	; (8001bc8 <HAL_TIM_Base_MspInit+0x98>)
 8001b7a:	0064      	lsls	r4, r4, #1
 8001b7c:	69d1      	ldr	r1, [r2, #28]
 8001b7e:	4321      	orrs	r1, r4
 8001b80:	61d1      	str	r1, [r2, #28]
 8001b82:	69d3      	ldr	r3, [r2, #28]
 8001b84:	4023      	ands	r3, r4
 8001b86:	9303      	str	r3, [sp, #12]
 8001b88:	9b03      	ldr	r3, [sp, #12]
 8001b8a:	e7e0      	b.n	8001b4e <HAL_TIM_Base_MspInit+0x1e>
 8001b8c:	4a11      	ldr	r2, [pc, #68]	; (8001bd4 <HAL_TIM_Base_MspInit+0xa4>)
 8001b8e:	4293      	cmp	r3, r2
 8001b90:	d10a      	bne.n	8001ba8 <HAL_TIM_Base_MspInit+0x78>
 8001b92:	2480      	movs	r4, #128	; 0x80
 8001b94:	4a0c      	ldr	r2, [pc, #48]	; (8001bc8 <HAL_TIM_Base_MspInit+0x98>)
 8001b96:	02a4      	lsls	r4, r4, #10
 8001b98:	6991      	ldr	r1, [r2, #24]
 8001b9a:	4321      	orrs	r1, r4
 8001b9c:	6191      	str	r1, [r2, #24]
 8001b9e:	6993      	ldr	r3, [r2, #24]
 8001ba0:	4023      	ands	r3, r4
 8001ba2:	9304      	str	r3, [sp, #16]
 8001ba4:	9b04      	ldr	r3, [sp, #16]
 8001ba6:	e7d2      	b.n	8001b4e <HAL_TIM_Base_MspInit+0x1e>
 8001ba8:	4a0b      	ldr	r2, [pc, #44]	; (8001bd8 <HAL_TIM_Base_MspInit+0xa8>)
 8001baa:	4293      	cmp	r3, r2
 8001bac:	d1d1      	bne.n	8001b52 <HAL_TIM_Base_MspInit+0x22>
 8001bae:	2480      	movs	r4, #128	; 0x80
 8001bb0:	4a05      	ldr	r2, [pc, #20]	; (8001bc8 <HAL_TIM_Base_MspInit+0x98>)
 8001bb2:	02e4      	lsls	r4, r4, #11
 8001bb4:	6991      	ldr	r1, [r2, #24]
 8001bb6:	4321      	orrs	r1, r4
 8001bb8:	6191      	str	r1, [r2, #24]
 8001bba:	6993      	ldr	r3, [r2, #24]
 8001bbc:	4023      	ands	r3, r4
 8001bbe:	9305      	str	r3, [sp, #20]
 8001bc0:	9b05      	ldr	r3, [sp, #20]
 8001bc2:	e7c4      	b.n	8001b4e <HAL_TIM_Base_MspInit+0x1e>
 8001bc4:	40001000 	.word	0x40001000
 8001bc8:	40021000 	.word	0x40021000
 8001bcc:	40001400 	.word	0x40001400
 8001bd0:	40002000 	.word	0x40002000
 8001bd4:	40014400 	.word	0x40014400
 8001bd8:	40014800 	.word	0x40014800

08001bdc <Main_Clock_Init>:
 8001bdc:	2000      	movs	r0, #0
 8001bde:	2100      	movs	r1, #0
 8001be0:	2200      	movs	r2, #0
 8001be2:	4b06      	ldr	r3, [pc, #24]	; (8001bfc <Main_Clock_Init+0x20>)
 8001be4:	6018      	str	r0, [r3, #0]
 8001be6:	6059      	str	r1, [r3, #4]
 8001be8:	6098      	str	r0, [r3, #8]
 8001bea:	60d9      	str	r1, [r3, #12]
 8001bec:	6218      	str	r0, [r3, #32]
 8001bee:	6259      	str	r1, [r3, #36]	; 0x24
 8001bf0:	6198      	str	r0, [r3, #24]
 8001bf2:	61d9      	str	r1, [r3, #28]
 8001bf4:	4b02      	ldr	r3, [pc, #8]	; (8001c00 <Main_Clock_Init+0x24>)
 8001bf6:	701a      	strb	r2, [r3, #0]
 8001bf8:	4770      	bx	lr
 8001bfa:	46c0      	nop			; (mov r8, r8)
 8001bfc:	200001d0 	.word	0x200001d0
 8001c00:	20000244 	.word	0x20000244

08001c04 <System_Clock_Timer_TickTIM6>:
 8001c04:	b5f7      	push	{r0, r1, r2, r4, r5, r6, r7, lr}
 8001c06:	2501      	movs	r5, #1
 8001c08:	4b3f      	ldr	r3, [pc, #252]	; (8001d08 <System_Clock_Timer_TickTIM6+0x104>)
 8001c0a:	4c40      	ldr	r4, [pc, #256]	; (8001d0c <System_Clock_Timer_TickTIM6+0x108>)
 8001c0c:	701d      	strb	r5, [r3, #0]
 8001c0e:	4b40      	ldr	r3, [pc, #256]	; (8001d10 <System_Clock_Timer_TickTIM6+0x10c>)
 8001c10:	2200      	movs	r2, #0
 8001c12:	6820      	ldr	r0, [r4, #0]
 8001c14:	6861      	ldr	r1, [r4, #4]
 8001c16:	701d      	strb	r5, [r3, #0]
 8001c18:	4b3e      	ldr	r3, [pc, #248]	; (8001d14 <System_Clock_Timer_TickTIM6+0x110>)
 8001c1a:	f7fe fc47 	bl	80004ac <__aeabi_dadd>
 8001c1e:	2200      	movs	r2, #0
 8001c20:	4b3d      	ldr	r3, [pc, #244]	; (8001d18 <System_Clock_Timer_TickTIM6+0x114>)
 8001c22:	0006      	movs	r6, r0
 8001c24:	000f      	movs	r7, r1
 8001c26:	f7fe fc2d 	bl	8000484 <__aeabi_dcmpgt>
 8001c2a:	2800      	cmp	r0, #0
 8001c2c:	d102      	bne.n	8001c34 <System_Clock_Timer_TickTIM6+0x30>
 8001c2e:	6026      	str	r6, [r4, #0]
 8001c30:	6067      	str	r7, [r4, #4]
 8001c32:	bdf7      	pop	{r0, r1, r2, r4, r5, r6, r7, pc}
 8001c34:	2200      	movs	r2, #0
 8001c36:	68a6      	ldr	r6, [r4, #8]
 8001c38:	68e7      	ldr	r7, [r4, #12]
 8001c3a:	2300      	movs	r3, #0
 8001c3c:	0030      	movs	r0, r6
 8001c3e:	6022      	str	r2, [r4, #0]
 8001c40:	6063      	str	r3, [r4, #4]
 8001c42:	0039      	movs	r1, r7
 8001c44:	f7ff f842 	bl	8000ccc <__aeabi_d2iz>
 8001c48:	2200      	movs	r2, #0
 8001c4a:	2300      	movs	r3, #0
 8001c4c:	9200      	str	r2, [sp, #0]
 8001c4e:	9301      	str	r3, [sp, #4]
 8001c50:	4228      	tst	r0, r5
 8001c52:	d103      	bne.n	8001c5c <System_Clock_Timer_TickTIM6+0x58>
 8001c54:	4b31      	ldr	r3, [pc, #196]	; (8001d1c <System_Clock_Timer_TickTIM6+0x118>)
 8001c56:	701d      	strb	r5, [r3, #0]
 8001c58:	4b31      	ldr	r3, [pc, #196]	; (8001d20 <System_Clock_Timer_TickTIM6+0x11c>)
 8001c5a:	701d      	strb	r5, [r3, #0]
 8001c5c:	2200      	movs	r2, #0
 8001c5e:	4b2d      	ldr	r3, [pc, #180]	; (8001d14 <System_Clock_Timer_TickTIM6+0x110>)
 8001c60:	0030      	movs	r0, r6
 8001c62:	0039      	movs	r1, r7
 8001c64:	f7fe fc22 	bl	80004ac <__aeabi_dadd>
 8001c68:	2200      	movs	r2, #0
 8001c6a:	4b2b      	ldr	r3, [pc, #172]	; (8001d18 <System_Clock_Timer_TickTIM6+0x114>)
 8001c6c:	0006      	movs	r6, r0
 8001c6e:	000f      	movs	r7, r1
 8001c70:	f7fe fc08 	bl	8000484 <__aeabi_dcmpgt>
 8001c74:	2800      	cmp	r0, #0
 8001c76:	d102      	bne.n	8001c7e <System_Clock_Timer_TickTIM6+0x7a>
 8001c78:	60a6      	str	r6, [r4, #8]
 8001c7a:	60e7      	str	r7, [r4, #12]
 8001c7c:	e7d9      	b.n	8001c32 <System_Clock_Timer_TickTIM6+0x2e>
 8001c7e:	2300      	movs	r3, #0
 8001c80:	6926      	ldr	r6, [r4, #16]
 8001c82:	6967      	ldr	r7, [r4, #20]
 8001c84:	2200      	movs	r2, #0
 8001c86:	0030      	movs	r0, r6
 8001c88:	60a2      	str	r2, [r4, #8]
 8001c8a:	60e3      	str	r3, [r4, #12]
 8001c8c:	0039      	movs	r1, r7
 8001c8e:	f7ff f81d 	bl	8000ccc <__aeabi_d2iz>
 8001c92:	2301      	movs	r3, #1
 8001c94:	4218      	tst	r0, r3
 8001c96:	d101      	bne.n	8001c9c <System_Clock_Timer_TickTIM6+0x98>
 8001c98:	4a20      	ldr	r2, [pc, #128]	; (8001d1c <System_Clock_Timer_TickTIM6+0x118>)
 8001c9a:	7013      	strb	r3, [r2, #0]
 8001c9c:	2200      	movs	r2, #0
 8001c9e:	4b1d      	ldr	r3, [pc, #116]	; (8001d14 <System_Clock_Timer_TickTIM6+0x110>)
 8001ca0:	0030      	movs	r0, r6
 8001ca2:	0039      	movs	r1, r7
 8001ca4:	f7fe fc02 	bl	80004ac <__aeabi_dadd>
 8001ca8:	2200      	movs	r2, #0
 8001caa:	4b1e      	ldr	r3, [pc, #120]	; (8001d24 <System_Clock_Timer_TickTIM6+0x120>)
 8001cac:	0006      	movs	r6, r0
 8001cae:	000f      	movs	r7, r1
 8001cb0:	f7fe fbe8 	bl	8000484 <__aeabi_dcmpgt>
 8001cb4:	2800      	cmp	r0, #0
 8001cb6:	d108      	bne.n	8001cca <System_Clock_Timer_TickTIM6+0xc6>
 8001cb8:	6126      	str	r6, [r4, #16]
 8001cba:	6167      	str	r7, [r4, #20]
 8001cbc:	4a1a      	ldr	r2, [pc, #104]	; (8001d28 <System_Clock_Timer_TickTIM6+0x124>)
 8001cbe:	7813      	ldrb	r3, [r2, #0]
 8001cc0:	3b01      	subs	r3, #1
 8001cc2:	1e59      	subs	r1, r3, #1
 8001cc4:	418b      	sbcs	r3, r1
 8001cc6:	7013      	strb	r3, [r2, #0]
 8001cc8:	e7b3      	b.n	8001c32 <System_Clock_Timer_TickTIM6+0x2e>
 8001cca:	2200      	movs	r2, #0
 8001ccc:	69a0      	ldr	r0, [r4, #24]
 8001cce:	69e1      	ldr	r1, [r4, #28]
 8001cd0:	2300      	movs	r3, #0
 8001cd2:	6122      	str	r2, [r4, #16]
 8001cd4:	6163      	str	r3, [r4, #20]
 8001cd6:	2200      	movs	r2, #0
 8001cd8:	4b0e      	ldr	r3, [pc, #56]	; (8001d14 <System_Clock_Timer_TickTIM6+0x110>)
 8001cda:	f7fe fbe7 	bl	80004ac <__aeabi_dadd>
 8001cde:	2200      	movs	r2, #0
 8001ce0:	61a0      	str	r0, [r4, #24]
 8001ce2:	61e1      	str	r1, [r4, #28]
 8001ce4:	4b0f      	ldr	r3, [pc, #60]	; (8001d24 <System_Clock_Timer_TickTIM6+0x120>)
 8001ce6:	f7fe fbcd 	bl	8000484 <__aeabi_dcmpgt>
 8001cea:	2800      	cmp	r0, #0
 8001cec:	d0e6      	beq.n	8001cbc <System_Clock_Timer_TickTIM6+0xb8>
 8001cee:	6a20      	ldr	r0, [r4, #32]
 8001cf0:	6a61      	ldr	r1, [r4, #36]	; 0x24
 8001cf2:	2200      	movs	r2, #0
 8001cf4:	4b07      	ldr	r3, [pc, #28]	; (8001d14 <System_Clock_Timer_TickTIM6+0x110>)
 8001cf6:	f7fe fbd9 	bl	80004ac <__aeabi_dadd>
 8001cfa:	2200      	movs	r2, #0
 8001cfc:	2300      	movs	r3, #0
 8001cfe:	6220      	str	r0, [r4, #32]
 8001d00:	6261      	str	r1, [r4, #36]	; 0x24
 8001d02:	61a2      	str	r2, [r4, #24]
 8001d04:	61e3      	str	r3, [r4, #28]
 8001d06:	e7d9      	b.n	8001cbc <System_Clock_Timer_TickTIM6+0xb8>
 8001d08:	20000258 	.word	0x20000258
 8001d0c:	200001d0 	.word	0x200001d0
 8001d10:	2000025a 	.word	0x2000025a
 8001d14:	3ff00000 	.word	0x3ff00000
 8001d18:	40220000 	.word	0x40220000
 8001d1c:	200001cc 	.word	0x200001cc
 8001d20:	200001c8 	.word	0x200001c8
 8001d24:	404d8000 	.word	0x404d8000
 8001d28:	20000244 	.word	0x20000244

08001d2c <MX_USART1_UART_Init>:
 8001d2c:	480b      	ldr	r0, [pc, #44]	; (8001d5c <MX_USART1_UART_Init+0x30>)
 8001d2e:	4b0c      	ldr	r3, [pc, #48]	; (8001d60 <MX_USART1_UART_Init+0x34>)
 8001d30:	b510      	push	{r4, lr}
 8001d32:	6003      	str	r3, [r0, #0]
 8001d34:	2396      	movs	r3, #150	; 0x96
 8001d36:	021b      	lsls	r3, r3, #8
 8001d38:	6043      	str	r3, [r0, #4]
 8001d3a:	220c      	movs	r2, #12
 8001d3c:	2300      	movs	r3, #0
 8001d3e:	6142      	str	r2, [r0, #20]
 8001d40:	6083      	str	r3, [r0, #8]
 8001d42:	60c3      	str	r3, [r0, #12]
 8001d44:	6103      	str	r3, [r0, #16]
 8001d46:	6183      	str	r3, [r0, #24]
 8001d48:	61c3      	str	r3, [r0, #28]
 8001d4a:	6203      	str	r3, [r0, #32]
 8001d4c:	6243      	str	r3, [r0, #36]	; 0x24
 8001d4e:	f003 f9c7 	bl	80050e0 <HAL_UART_Init>
 8001d52:	2800      	cmp	r0, #0
 8001d54:	d001      	beq.n	8001d5a <MX_USART1_UART_Init+0x2e>
 8001d56:	f7ff fd7b 	bl	8001850 <Error_Handler>
 8001d5a:	bd10      	pop	{r4, pc}
 8001d5c:	200004a8 	.word	0x200004a8
 8001d60:	40013800 	.word	0x40013800

08001d64 <MX_USART2_UART_Init>:
 8001d64:	480c      	ldr	r0, [pc, #48]	; (8001d98 <MX_USART2_UART_Init+0x34>)
 8001d66:	4b0d      	ldr	r3, [pc, #52]	; (8001d9c <MX_USART2_UART_Init+0x38>)
 8001d68:	b510      	push	{r4, lr}
 8001d6a:	6003      	str	r3, [r0, #0]
 8001d6c:	4b0c      	ldr	r3, [pc, #48]	; (8001da0 <MX_USART2_UART_Init+0x3c>)
 8001d6e:	220c      	movs	r2, #12
 8001d70:	6043      	str	r3, [r0, #4]
 8001d72:	2380      	movs	r3, #128	; 0x80
 8001d74:	015b      	lsls	r3, r3, #5
 8001d76:	6083      	str	r3, [r0, #8]
 8001d78:	2300      	movs	r3, #0
 8001d7a:	6142      	str	r2, [r0, #20]
 8001d7c:	60c3      	str	r3, [r0, #12]
 8001d7e:	6103      	str	r3, [r0, #16]
 8001d80:	6183      	str	r3, [r0, #24]
 8001d82:	61c3      	str	r3, [r0, #28]
 8001d84:	6203      	str	r3, [r0, #32]
 8001d86:	6243      	str	r3, [r0, #36]	; 0x24
 8001d88:	f003 f9aa 	bl	80050e0 <HAL_UART_Init>
 8001d8c:	2800      	cmp	r0, #0
 8001d8e:	d001      	beq.n	8001d94 <MX_USART2_UART_Init+0x30>
 8001d90:	f7ff fd5e 	bl	8001850 <Error_Handler>
 8001d94:	bd10      	pop	{r4, pc}
 8001d96:	46c0      	nop			; (mov r8, r8)
 8001d98:	20000518 	.word	0x20000518
 8001d9c:	40004400 	.word	0x40004400
 8001da0:	00009920 	.word	0x00009920

08001da4 <HAL_UART_MspInit>:
 8001da4:	b530      	push	{r4, r5, lr}
 8001da6:	0005      	movs	r5, r0
 8001da8:	b08b      	sub	sp, #44	; 0x2c
 8001daa:	2214      	movs	r2, #20
 8001dac:	2100      	movs	r1, #0
 8001dae:	a805      	add	r0, sp, #20
 8001db0:	f003 ff53 	bl	8005c5a <memset>
 8001db4:	682b      	ldr	r3, [r5, #0]
 8001db6:	4a31      	ldr	r2, [pc, #196]	; (8001e7c <HAL_UART_MspInit+0xd8>)
 8001db8:	4293      	cmp	r3, r2
 8001dba:	d13a      	bne.n	8001e32 <HAL_UART_MspInit+0x8e>
 8001dbc:	2080      	movs	r0, #128	; 0x80
 8001dbe:	4b30      	ldr	r3, [pc, #192]	; (8001e80 <HAL_UART_MspInit+0xdc>)
 8001dc0:	01c0      	lsls	r0, r0, #7
 8001dc2:	6999      	ldr	r1, [r3, #24]
 8001dc4:	4301      	orrs	r1, r0
 8001dc6:	6199      	str	r1, [r3, #24]
 8001dc8:	2180      	movs	r1, #128	; 0x80
 8001dca:	699a      	ldr	r2, [r3, #24]
 8001dcc:	0289      	lsls	r1, r1, #10
 8001dce:	4002      	ands	r2, r0
 8001dd0:	9201      	str	r2, [sp, #4]
 8001dd2:	9a01      	ldr	r2, [sp, #4]
 8001dd4:	695a      	ldr	r2, [r3, #20]
 8001dd6:	2090      	movs	r0, #144	; 0x90
 8001dd8:	430a      	orrs	r2, r1
 8001dda:	615a      	str	r2, [r3, #20]
 8001ddc:	695b      	ldr	r3, [r3, #20]
 8001dde:	05c0      	lsls	r0, r0, #23
 8001de0:	400b      	ands	r3, r1
 8001de2:	9302      	str	r3, [sp, #8]
 8001de4:	9b02      	ldr	r3, [sp, #8]
 8001de6:	23c0      	movs	r3, #192	; 0xc0
 8001de8:	00db      	lsls	r3, r3, #3
 8001dea:	9305      	str	r3, [sp, #20]
 8001dec:	2302      	movs	r3, #2
 8001dee:	9306      	str	r3, [sp, #24]
 8001df0:	3301      	adds	r3, #1
 8001df2:	9308      	str	r3, [sp, #32]
 8001df4:	a905      	add	r1, sp, #20
 8001df6:	3b02      	subs	r3, #2
 8001df8:	9309      	str	r3, [sp, #36]	; 0x24
 8001dfa:	f000 fa83 	bl	8002304 <HAL_GPIO_Init>
 8001dfe:	4c21      	ldr	r4, [pc, #132]	; (8001e84 <HAL_UART_MspInit+0xe0>)
 8001e00:	4b21      	ldr	r3, [pc, #132]	; (8001e88 <HAL_UART_MspInit+0xe4>)
 8001e02:	6023      	str	r3, [r4, #0]
 8001e04:	2300      	movs	r3, #0
 8001e06:	6063      	str	r3, [r4, #4]
 8001e08:	60a3      	str	r3, [r4, #8]
 8001e0a:	6123      	str	r3, [r4, #16]
 8001e0c:	6163      	str	r3, [r4, #20]
 8001e0e:	3320      	adds	r3, #32
 8001e10:	61a3      	str	r3, [r4, #24]
 8001e12:	2380      	movs	r3, #128	; 0x80
 8001e14:	2280      	movs	r2, #128	; 0x80
 8001e16:	019b      	lsls	r3, r3, #6
 8001e18:	60e2      	str	r2, [r4, #12]
 8001e1a:	61e3      	str	r3, [r4, #28]
 8001e1c:	0020      	movs	r0, r4
 8001e1e:	f000 f959 	bl	80020d4 <HAL_DMA_Init>
 8001e22:	2800      	cmp	r0, #0
 8001e24:	d001      	beq.n	8001e2a <HAL_UART_MspInit+0x86>
 8001e26:	f7ff fd13 	bl	8001850 <Error_Handler>
 8001e2a:	666c      	str	r4, [r5, #100]	; 0x64
 8001e2c:	6265      	str	r5, [r4, #36]	; 0x24
 8001e2e:	b00b      	add	sp, #44	; 0x2c
 8001e30:	bd30      	pop	{r4, r5, pc}
 8001e32:	4a16      	ldr	r2, [pc, #88]	; (8001e8c <HAL_UART_MspInit+0xe8>)
 8001e34:	4293      	cmp	r3, r2
 8001e36:	d1fa      	bne.n	8001e2e <HAL_UART_MspInit+0x8a>
 8001e38:	2280      	movs	r2, #128	; 0x80
 8001e3a:	4b11      	ldr	r3, [pc, #68]	; (8001e80 <HAL_UART_MspInit+0xdc>)
 8001e3c:	0292      	lsls	r2, r2, #10
 8001e3e:	69d9      	ldr	r1, [r3, #28]
 8001e40:	2090      	movs	r0, #144	; 0x90
 8001e42:	4311      	orrs	r1, r2
 8001e44:	61d9      	str	r1, [r3, #28]
 8001e46:	69d9      	ldr	r1, [r3, #28]
 8001e48:	05c0      	lsls	r0, r0, #23
 8001e4a:	4011      	ands	r1, r2
 8001e4c:	9103      	str	r1, [sp, #12]
 8001e4e:	9903      	ldr	r1, [sp, #12]
 8001e50:	6959      	ldr	r1, [r3, #20]
 8001e52:	4311      	orrs	r1, r2
 8001e54:	6159      	str	r1, [r3, #20]
 8001e56:	695b      	ldr	r3, [r3, #20]
 8001e58:	a905      	add	r1, sp, #20
 8001e5a:	401a      	ands	r2, r3
 8001e5c:	9204      	str	r2, [sp, #16]
 8001e5e:	9b04      	ldr	r3, [sp, #16]
 8001e60:	230c      	movs	r3, #12
 8001e62:	9305      	str	r3, [sp, #20]
 8001e64:	3b0a      	subs	r3, #10
 8001e66:	9306      	str	r3, [sp, #24]
 8001e68:	3301      	adds	r3, #1
 8001e6a:	9308      	str	r3, [sp, #32]
 8001e6c:	3b02      	subs	r3, #2
 8001e6e:	9309      	str	r3, [sp, #36]	; 0x24
 8001e70:	f000 fa48 	bl	8002304 <HAL_GPIO_Init>
 8001e74:	4c06      	ldr	r4, [pc, #24]	; (8001e90 <HAL_UART_MspInit+0xec>)
 8001e76:	4b07      	ldr	r3, [pc, #28]	; (8001e94 <HAL_UART_MspInit+0xf0>)
 8001e78:	e7c3      	b.n	8001e02 <HAL_UART_MspInit+0x5e>
 8001e7a:	46c0      	nop			; (mov r8, r8)
 8001e7c:	40013800 	.word	0x40013800
 8001e80:	40021000 	.word	0x40021000
 8001e84:	20000420 	.word	0x20000420
 8001e88:	40020030 	.word	0x40020030
 8001e8c:	40004400 	.word	0x40004400
 8001e90:	200003dc 	.word	0x200003dc
 8001e94:	40020058 	.word	0x40020058

08001e98 <HAL_Init>:
 8001e98:	2310      	movs	r3, #16
 8001e9a:	4a06      	ldr	r2, [pc, #24]	; (8001eb4 <HAL_Init+0x1c>)
 8001e9c:	b510      	push	{r4, lr}
 8001e9e:	6811      	ldr	r1, [r2, #0]
 8001ea0:	2000      	movs	r0, #0
 8001ea2:	430b      	orrs	r3, r1
 8001ea4:	6013      	str	r3, [r2, #0]
 8001ea6:	f7ff fced 	bl	8001884 <HAL_InitTick>
 8001eaa:	f7ff fcd3 	bl	8001854 <HAL_MspInit>
 8001eae:	2000      	movs	r0, #0
 8001eb0:	bd10      	pop	{r4, pc}
 8001eb2:	46c0      	nop			; (mov r8, r8)
 8001eb4:	40022000 	.word	0x40022000

08001eb8 <HAL_IncTick>:
 8001eb8:	4a02      	ldr	r2, [pc, #8]	; (8001ec4 <HAL_IncTick+0xc>)
 8001eba:	6813      	ldr	r3, [r2, #0]
 8001ebc:	3301      	adds	r3, #1
 8001ebe:	6013      	str	r3, [r2, #0]
 8001ec0:	4770      	bx	lr
 8001ec2:	46c0      	nop			; (mov r8, r8)
 8001ec4:	20000588 	.word	0x20000588

08001ec8 <HAL_GetTick>:
 8001ec8:	4b01      	ldr	r3, [pc, #4]	; (8001ed0 <HAL_GetTick+0x8>)
 8001eca:	6818      	ldr	r0, [r3, #0]
 8001ecc:	4770      	bx	lr
 8001ece:	46c0      	nop			; (mov r8, r8)
 8001ed0:	20000588 	.word	0x20000588

08001ed4 <HAL_NVIC_SetPriority>:
 8001ed4:	b570      	push	{r4, r5, r6, lr}
 8001ed6:	0004      	movs	r4, r0
 8001ed8:	000d      	movs	r5, r1
 8001eda:	2903      	cmp	r1, #3
 8001edc:	d903      	bls.n	8001ee6 <HAL_NVIC_SetPriority+0x12>
 8001ede:	219b      	movs	r1, #155	; 0x9b
 8001ee0:	4816      	ldr	r0, [pc, #88]	; (8001f3c <HAL_NVIC_SetPriority+0x68>)
 8001ee2:	f7ff fcb6 	bl	8001852 <assert_failed>
 8001ee6:	01a9      	lsls	r1, r5, #6
 8001ee8:	2c00      	cmp	r4, #0
 8001eea:	da14      	bge.n	8001f16 <HAL_NVIC_SetPriority+0x42>
 8001eec:	230f      	movs	r3, #15
 8001eee:	b2e4      	uxtb	r4, r4
 8001ef0:	4023      	ands	r3, r4
 8001ef2:	3b08      	subs	r3, #8
 8001ef4:	4a12      	ldr	r2, [pc, #72]	; (8001f40 <HAL_NVIC_SetPriority+0x6c>)
 8001ef6:	089b      	lsrs	r3, r3, #2
 8001ef8:	009b      	lsls	r3, r3, #2
 8001efa:	189b      	adds	r3, r3, r2
 8001efc:	2203      	movs	r2, #3
 8001efe:	4014      	ands	r4, r2
 8001f00:	4094      	lsls	r4, r2
 8001f02:	32fc      	adds	r2, #252	; 0xfc
 8001f04:	0015      	movs	r5, r2
 8001f06:	400a      	ands	r2, r1
 8001f08:	40a5      	lsls	r5, r4
 8001f0a:	40a2      	lsls	r2, r4
 8001f0c:	69d8      	ldr	r0, [r3, #28]
 8001f0e:	43a8      	bics	r0, r5
 8001f10:	4302      	orrs	r2, r0
 8001f12:	61da      	str	r2, [r3, #28]
 8001f14:	bd70      	pop	{r4, r5, r6, pc}
 8001f16:	2503      	movs	r5, #3
 8001f18:	08a3      	lsrs	r3, r4, #2
 8001f1a:	402c      	ands	r4, r5
 8001f1c:	40ac      	lsls	r4, r5
 8001f1e:	35fc      	adds	r5, #252	; 0xfc
 8001f20:	002e      	movs	r6, r5
 8001f22:	4a08      	ldr	r2, [pc, #32]	; (8001f44 <HAL_NVIC_SetPriority+0x70>)
 8001f24:	009b      	lsls	r3, r3, #2
 8001f26:	189b      	adds	r3, r3, r2
 8001f28:	22c0      	movs	r2, #192	; 0xc0
 8001f2a:	40a6      	lsls	r6, r4
 8001f2c:	4029      	ands	r1, r5
 8001f2e:	40a1      	lsls	r1, r4
 8001f30:	0092      	lsls	r2, r2, #2
 8001f32:	5898      	ldr	r0, [r3, r2]
 8001f34:	43b0      	bics	r0, r6
 8001f36:	4301      	orrs	r1, r0
 8001f38:	5099      	str	r1, [r3, r2]
 8001f3a:	e7eb      	b.n	8001f14 <HAL_NVIC_SetPriority+0x40>
 8001f3c:	08005d9c 	.word	0x08005d9c
 8001f40:	e000ed00 	.word	0xe000ed00
 8001f44:	e000e100 	.word	0xe000e100

08001f48 <HAL_NVIC_EnableIRQ>:
 8001f48:	b510      	push	{r4, lr}
 8001f4a:	1e04      	subs	r4, r0, #0
 8001f4c:	da03      	bge.n	8001f56 <HAL_NVIC_EnableIRQ+0xe>
 8001f4e:	21ab      	movs	r1, #171	; 0xab
 8001f50:	4804      	ldr	r0, [pc, #16]	; (8001f64 <HAL_NVIC_EnableIRQ+0x1c>)
 8001f52:	f7ff fc7e 	bl	8001852 <assert_failed>
 8001f56:	231f      	movs	r3, #31
 8001f58:	401c      	ands	r4, r3
 8001f5a:	3b1e      	subs	r3, #30
 8001f5c:	40a3      	lsls	r3, r4
 8001f5e:	4a02      	ldr	r2, [pc, #8]	; (8001f68 <HAL_NVIC_EnableIRQ+0x20>)
 8001f60:	6013      	str	r3, [r2, #0]
 8001f62:	bd10      	pop	{r4, pc}
 8001f64:	08005d9c 	.word	0x08005d9c
 8001f68:	e000e100 	.word	0xe000e100

08001f6c <HAL_CRC_Init>:
 8001f6c:	b570      	push	{r4, r5, r6, lr}
 8001f6e:	1e04      	subs	r4, r0, #0
 8001f70:	d102      	bne.n	8001f78 <HAL_CRC_Init+0xc>
 8001f72:	2501      	movs	r5, #1
 8001f74:	0028      	movs	r0, r5
 8001f76:	bd70      	pop	{r4, r5, r6, pc}
 8001f78:	4b27      	ldr	r3, [pc, #156]	; (8002018 <HAL_CRC_Init+0xac>)
 8001f7a:	6802      	ldr	r2, [r0, #0]
 8001f7c:	429a      	cmp	r2, r3
 8001f7e:	d003      	beq.n	8001f88 <HAL_CRC_Init+0x1c>
 8001f80:	2180      	movs	r1, #128	; 0x80
 8001f82:	4826      	ldr	r0, [pc, #152]	; (800201c <HAL_CRC_Init+0xb0>)
 8001f84:	f7ff fc65 	bl	8001852 <assert_failed>
 8001f88:	7f63      	ldrb	r3, [r4, #29]
 8001f8a:	b2db      	uxtb	r3, r3
 8001f8c:	2b00      	cmp	r3, #0
 8001f8e:	d103      	bne.n	8001f98 <HAL_CRC_Init+0x2c>
 8001f90:	7723      	strb	r3, [r4, #28]
 8001f92:	0020      	movs	r0, r4
 8001f94:	f7fe ff02 	bl	8000d9c <HAL_CRC_MspInit>
 8001f98:	2302      	movs	r3, #2
 8001f9a:	0020      	movs	r0, r4
 8001f9c:	7763      	strb	r3, [r4, #29]
 8001f9e:	f000 f877 	bl	8002090 <HAL_CRCEx_Init>
 8001fa2:	1e05      	subs	r5, r0, #0
 8001fa4:	d1e5      	bne.n	8001f72 <HAL_CRC_Init+0x6>
 8001fa6:	7963      	ldrb	r3, [r4, #5]
 8001fa8:	2b01      	cmp	r3, #1
 8001faa:	d903      	bls.n	8001fb4 <HAL_CRC_Init+0x48>
 8001fac:	2199      	movs	r1, #153	; 0x99
 8001fae:	481b      	ldr	r0, [pc, #108]	; (800201c <HAL_CRC_Init+0xb0>)
 8001fb0:	f7ff fc4f 	bl	8001852 <assert_failed>
 8001fb4:	7962      	ldrb	r2, [r4, #5]
 8001fb6:	6823      	ldr	r3, [r4, #0]
 8001fb8:	2a00      	cmp	r2, #0
 8001fba:	d12a      	bne.n	8002012 <HAL_CRC_Init+0xa6>
 8001fbc:	3a01      	subs	r2, #1
 8001fbe:	611a      	str	r2, [r3, #16]
 8001fc0:	2360      	movs	r3, #96	; 0x60
 8001fc2:	6962      	ldr	r2, [r4, #20]
 8001fc4:	439a      	bics	r2, r3
 8001fc6:	d003      	beq.n	8001fd0 <HAL_CRC_Init+0x64>
 8001fc8:	21a5      	movs	r1, #165	; 0xa5
 8001fca:	4814      	ldr	r0, [pc, #80]	; (800201c <HAL_CRC_Init+0xb0>)
 8001fcc:	f7ff fc41 	bl	8001852 <assert_failed>
 8001fd0:	2160      	movs	r1, #96	; 0x60
 8001fd2:	6822      	ldr	r2, [r4, #0]
 8001fd4:	6893      	ldr	r3, [r2, #8]
 8001fd6:	438b      	bics	r3, r1
 8001fd8:	6961      	ldr	r1, [r4, #20]
 8001fda:	430b      	orrs	r3, r1
 8001fdc:	6093      	str	r3, [r2, #8]
 8001fde:	2380      	movs	r3, #128	; 0x80
 8001fe0:	69a2      	ldr	r2, [r4, #24]
 8001fe2:	439a      	bics	r2, r3
 8001fe4:	d003      	beq.n	8001fee <HAL_CRC_Init+0x82>
 8001fe6:	21a9      	movs	r1, #169	; 0xa9
 8001fe8:	480c      	ldr	r0, [pc, #48]	; (800201c <HAL_CRC_Init+0xb0>)
 8001fea:	f7ff fc32 	bl	8001852 <assert_failed>
 8001fee:	2180      	movs	r1, #128	; 0x80
 8001ff0:	6822      	ldr	r2, [r4, #0]
 8001ff2:	6893      	ldr	r3, [r2, #8]
 8001ff4:	438b      	bics	r3, r1
 8001ff6:	69a1      	ldr	r1, [r4, #24]
 8001ff8:	430b      	orrs	r3, r1
 8001ffa:	6093      	str	r3, [r2, #8]
 8001ffc:	6a23      	ldr	r3, [r4, #32]
 8001ffe:	3b01      	subs	r3, #1
 8002000:	2b02      	cmp	r3, #2
 8002002:	d903      	bls.n	800200c <HAL_CRC_Init+0xa0>
 8002004:	21ae      	movs	r1, #174	; 0xae
 8002006:	4805      	ldr	r0, [pc, #20]	; (800201c <HAL_CRC_Init+0xb0>)
 8002008:	f7ff fc23 	bl	8001852 <assert_failed>
 800200c:	2301      	movs	r3, #1
 800200e:	7763      	strb	r3, [r4, #29]
 8002010:	e7b0      	b.n	8001f74 <HAL_CRC_Init+0x8>
 8002012:	6922      	ldr	r2, [r4, #16]
 8002014:	e7d3      	b.n	8001fbe <HAL_CRC_Init+0x52>
 8002016:	46c0      	nop			; (mov r8, r8)
 8002018:	40023000 	.word	0x40023000
 800201c:	08005dd7 	.word	0x08005dd7

08002020 <HAL_CRCEx_Polynomial_Set>:
 8002020:	2318      	movs	r3, #24
 8002022:	b570      	push	{r4, r5, r6, lr}
 8002024:	0014      	movs	r4, r2
 8002026:	0006      	movs	r6, r0
 8002028:	000d      	movs	r5, r1
 800202a:	439a      	bics	r2, r3
 800202c:	d003      	beq.n	8002036 <HAL_CRCEx_Polynomial_Set+0x16>
 800202e:	21c9      	movs	r1, #201	; 0xc9
 8002030:	4816      	ldr	r0, [pc, #88]	; (800208c <HAL_CRCEx_Polynomial_Set+0x6c>)
 8002032:	f7ff fc0e 	bl	8001852 <assert_failed>
 8002036:	231f      	movs	r3, #31
 8002038:	2201      	movs	r2, #1
 800203a:	0011      	movs	r1, r2
 800203c:	4099      	lsls	r1, r3
 800203e:	420d      	tst	r5, r1
 8002040:	d109      	bne.n	8002056 <HAL_CRCEx_Polynomial_Set+0x36>
 8002042:	3b01      	subs	r3, #1
 8002044:	d2f9      	bcs.n	800203a <HAL_CRCEx_Polynomial_Set+0x1a>
 8002046:	2c10      	cmp	r4, #16
 8002048:	d003      	beq.n	8002052 <HAL_CRCEx_Polynomial_Set+0x32>
 800204a:	2c18      	cmp	r4, #24
 800204c:	d001      	beq.n	8002052 <HAL_CRCEx_Polynomial_Set+0x32>
 800204e:	2c08      	cmp	r4, #8
 8002050:	d112      	bne.n	8002078 <HAL_CRCEx_Polynomial_Set+0x58>
 8002052:	2001      	movs	r0, #1
 8002054:	e00c      	b.n	8002070 <HAL_CRCEx_Polynomial_Set+0x50>
 8002056:	2c10      	cmp	r4, #16
 8002058:	d00b      	beq.n	8002072 <HAL_CRCEx_Polynomial_Set+0x52>
 800205a:	2c18      	cmp	r4, #24
 800205c:	d005      	beq.n	800206a <HAL_CRCEx_Polynomial_Set+0x4a>
 800205e:	2c08      	cmp	r4, #8
 8002060:	d10a      	bne.n	8002078 <HAL_CRCEx_Polynomial_Set+0x58>
 8002062:	2001      	movs	r0, #1
 8002064:	2b0f      	cmp	r3, #15
 8002066:	d907      	bls.n	8002078 <HAL_CRCEx_Polynomial_Set+0x58>
 8002068:	e002      	b.n	8002070 <HAL_CRCEx_Polynomial_Set+0x50>
 800206a:	2001      	movs	r0, #1
 800206c:	2b06      	cmp	r3, #6
 800206e:	d903      	bls.n	8002078 <HAL_CRCEx_Polynomial_Set+0x58>
 8002070:	bd70      	pop	{r4, r5, r6, pc}
 8002072:	2001      	movs	r0, #1
 8002074:	2b07      	cmp	r3, #7
 8002076:	d8fb      	bhi.n	8002070 <HAL_CRCEx_Polynomial_Set+0x50>
 8002078:	2118      	movs	r1, #24
 800207a:	6832      	ldr	r2, [r6, #0]
 800207c:	2000      	movs	r0, #0
 800207e:	6155      	str	r5, [r2, #20]
 8002080:	6893      	ldr	r3, [r2, #8]
 8002082:	438b      	bics	r3, r1
 8002084:	431c      	orrs	r4, r3
 8002086:	6094      	str	r4, [r2, #8]
 8002088:	e7f2      	b.n	8002070 <HAL_CRCEx_Polynomial_Set+0x50>
 800208a:	46c0      	nop			; (mov r8, r8)
 800208c:	08005e0f 	.word	0x08005e0f

08002090 <HAL_CRCEx_Init>:
 8002090:	b510      	push	{r4, lr}
 8002092:	7903      	ldrb	r3, [r0, #4]
 8002094:	0004      	movs	r4, r0
 8002096:	2b01      	cmp	r3, #1
 8002098:	d903      	bls.n	80020a2 <HAL_CRCEx_Init+0x12>
 800209a:	2169      	movs	r1, #105	; 0x69
 800209c:	480b      	ldr	r0, [pc, #44]	; (80020cc <HAL_CRCEx_Init+0x3c>)
 800209e:	f7ff fbd8 	bl	8001852 <assert_failed>
 80020a2:	7920      	ldrb	r0, [r4, #4]
 80020a4:	2800      	cmp	r0, #0
 80020a6:	d107      	bne.n	80020b8 <HAL_CRCEx_Init+0x28>
 80020a8:	2118      	movs	r1, #24
 80020aa:	6823      	ldr	r3, [r4, #0]
 80020ac:	4a08      	ldr	r2, [pc, #32]	; (80020d0 <HAL_CRCEx_Init+0x40>)
 80020ae:	615a      	str	r2, [r3, #20]
 80020b0:	689a      	ldr	r2, [r3, #8]
 80020b2:	438a      	bics	r2, r1
 80020b4:	609a      	str	r2, [r3, #8]
 80020b6:	bd10      	pop	{r4, pc}
 80020b8:	68e2      	ldr	r2, [r4, #12]
 80020ba:	68a1      	ldr	r1, [r4, #8]
 80020bc:	0020      	movs	r0, r4
 80020be:	f7ff ffaf 	bl	8002020 <HAL_CRCEx_Polynomial_Set>
 80020c2:	1e43      	subs	r3, r0, #1
 80020c4:	4198      	sbcs	r0, r3
 80020c6:	b2c0      	uxtb	r0, r0
 80020c8:	e7f5      	b.n	80020b6 <HAL_CRCEx_Init+0x26>
 80020ca:	46c0      	nop			; (mov r8, r8)
 80020cc:	08005e0f 	.word	0x08005e0f
 80020d0:	04c11db7 	.word	0x04c11db7

080020d4 <HAL_DMA_Init>:
 80020d4:	b570      	push	{r4, r5, r6, lr}
 80020d6:	0004      	movs	r4, r0
 80020d8:	2001      	movs	r0, #1
 80020da:	2c00      	cmp	r4, #0
 80020dc:	d100      	bne.n	80020e0 <HAL_DMA_Init+0xc>
 80020de:	e087      	b.n	80021f0 <HAL_DMA_Init+0x11c>
 80020e0:	6823      	ldr	r3, [r4, #0]
 80020e2:	4a44      	ldr	r2, [pc, #272]	; (80021f4 <HAL_DMA_Init+0x120>)
 80020e4:	4293      	cmp	r3, r2
 80020e6:	d015      	beq.n	8002114 <HAL_DMA_Init+0x40>
 80020e8:	4a43      	ldr	r2, [pc, #268]	; (80021f8 <HAL_DMA_Init+0x124>)
 80020ea:	4293      	cmp	r3, r2
 80020ec:	d012      	beq.n	8002114 <HAL_DMA_Init+0x40>
 80020ee:	4a43      	ldr	r2, [pc, #268]	; (80021fc <HAL_DMA_Init+0x128>)
 80020f0:	4293      	cmp	r3, r2
 80020f2:	d00f      	beq.n	8002114 <HAL_DMA_Init+0x40>
 80020f4:	4a42      	ldr	r2, [pc, #264]	; (8002200 <HAL_DMA_Init+0x12c>)
 80020f6:	4293      	cmp	r3, r2
 80020f8:	d00c      	beq.n	8002114 <HAL_DMA_Init+0x40>
 80020fa:	4a42      	ldr	r2, [pc, #264]	; (8002204 <HAL_DMA_Init+0x130>)
 80020fc:	4293      	cmp	r3, r2
 80020fe:	d009      	beq.n	8002114 <HAL_DMA_Init+0x40>
 8002100:	4a41      	ldr	r2, [pc, #260]	; (8002208 <HAL_DMA_Init+0x134>)
 8002102:	4293      	cmp	r3, r2
 8002104:	d006      	beq.n	8002114 <HAL_DMA_Init+0x40>
 8002106:	4a41      	ldr	r2, [pc, #260]	; (800220c <HAL_DMA_Init+0x138>)
 8002108:	4293      	cmp	r3, r2
 800210a:	d003      	beq.n	8002114 <HAL_DMA_Init+0x40>
 800210c:	21a5      	movs	r1, #165	; 0xa5
 800210e:	4840      	ldr	r0, [pc, #256]	; (8002210 <HAL_DMA_Init+0x13c>)
 8002110:	f7ff fb9f 	bl	8001852 <assert_failed>
 8002114:	6863      	ldr	r3, [r4, #4]
 8002116:	2210      	movs	r2, #16
 8002118:	0019      	movs	r1, r3
 800211a:	4391      	bics	r1, r2
 800211c:	d007      	beq.n	800212e <HAL_DMA_Init+0x5a>
 800211e:	2280      	movs	r2, #128	; 0x80
 8002120:	01d2      	lsls	r2, r2, #7
 8002122:	4293      	cmp	r3, r2
 8002124:	d003      	beq.n	800212e <HAL_DMA_Init+0x5a>
 8002126:	21a6      	movs	r1, #166	; 0xa6
 8002128:	4839      	ldr	r0, [pc, #228]	; (8002210 <HAL_DMA_Init+0x13c>)
 800212a:	f7ff fb92 	bl	8001852 <assert_failed>
 800212e:	2340      	movs	r3, #64	; 0x40
 8002130:	68a2      	ldr	r2, [r4, #8]
 8002132:	439a      	bics	r2, r3
 8002134:	d003      	beq.n	800213e <HAL_DMA_Init+0x6a>
 8002136:	21a7      	movs	r1, #167	; 0xa7
 8002138:	4835      	ldr	r0, [pc, #212]	; (8002210 <HAL_DMA_Init+0x13c>)
 800213a:	f7ff fb8a 	bl	8001852 <assert_failed>
 800213e:	2380      	movs	r3, #128	; 0x80
 8002140:	68e2      	ldr	r2, [r4, #12]
 8002142:	439a      	bics	r2, r3
 8002144:	d003      	beq.n	800214e <HAL_DMA_Init+0x7a>
 8002146:	21a8      	movs	r1, #168	; 0xa8
 8002148:	4831      	ldr	r0, [pc, #196]	; (8002210 <HAL_DMA_Init+0x13c>)
 800214a:	f7ff fb82 	bl	8001852 <assert_failed>
 800214e:	6923      	ldr	r3, [r4, #16]
 8002150:	4a30      	ldr	r2, [pc, #192]	; (8002214 <HAL_DMA_Init+0x140>)
 8002152:	4213      	tst	r3, r2
 8002154:	d007      	beq.n	8002166 <HAL_DMA_Init+0x92>
 8002156:	2280      	movs	r2, #128	; 0x80
 8002158:	0092      	lsls	r2, r2, #2
 800215a:	4293      	cmp	r3, r2
 800215c:	d003      	beq.n	8002166 <HAL_DMA_Init+0x92>
 800215e:	21a9      	movs	r1, #169	; 0xa9
 8002160:	482b      	ldr	r0, [pc, #172]	; (8002210 <HAL_DMA_Init+0x13c>)
 8002162:	f7ff fb76 	bl	8001852 <assert_failed>
 8002166:	6963      	ldr	r3, [r4, #20]
 8002168:	4a2b      	ldr	r2, [pc, #172]	; (8002218 <HAL_DMA_Init+0x144>)
 800216a:	4213      	tst	r3, r2
 800216c:	d007      	beq.n	800217e <HAL_DMA_Init+0xaa>
 800216e:	2280      	movs	r2, #128	; 0x80
 8002170:	0112      	lsls	r2, r2, #4
 8002172:	4293      	cmp	r3, r2
 8002174:	d003      	beq.n	800217e <HAL_DMA_Init+0xaa>
 8002176:	21aa      	movs	r1, #170	; 0xaa
 8002178:	4825      	ldr	r0, [pc, #148]	; (8002210 <HAL_DMA_Init+0x13c>)
 800217a:	f7ff fb6a 	bl	8001852 <assert_failed>
 800217e:	2320      	movs	r3, #32
 8002180:	69a2      	ldr	r2, [r4, #24]
 8002182:	439a      	bics	r2, r3
 8002184:	d003      	beq.n	800218e <HAL_DMA_Init+0xba>
 8002186:	21ab      	movs	r1, #171	; 0xab
 8002188:	4821      	ldr	r0, [pc, #132]	; (8002210 <HAL_DMA_Init+0x13c>)
 800218a:	f7ff fb62 	bl	8001852 <assert_failed>
 800218e:	4b23      	ldr	r3, [pc, #140]	; (800221c <HAL_DMA_Init+0x148>)
 8002190:	69e2      	ldr	r2, [r4, #28]
 8002192:	421a      	tst	r2, r3
 8002194:	d003      	beq.n	800219e <HAL_DMA_Init+0xca>
 8002196:	21ac      	movs	r1, #172	; 0xac
 8002198:	481d      	ldr	r0, [pc, #116]	; (8002210 <HAL_DMA_Init+0x13c>)
 800219a:	f7ff fb5a 	bl	8001852 <assert_failed>
 800219e:	2302      	movs	r3, #2
 80021a0:	6820      	ldr	r0, [r4, #0]
 80021a2:	1ca5      	adds	r5, r4, #2
 80021a4:	77eb      	strb	r3, [r5, #31]
 80021a6:	6802      	ldr	r2, [r0, #0]
 80021a8:	4b1d      	ldr	r3, [pc, #116]	; (8002220 <HAL_DMA_Init+0x14c>)
 80021aa:	68a1      	ldr	r1, [r4, #8]
 80021ac:	401a      	ands	r2, r3
 80021ae:	6863      	ldr	r3, [r4, #4]
 80021b0:	430b      	orrs	r3, r1
 80021b2:	68e1      	ldr	r1, [r4, #12]
 80021b4:	430b      	orrs	r3, r1
 80021b6:	6921      	ldr	r1, [r4, #16]
 80021b8:	430b      	orrs	r3, r1
 80021ba:	6961      	ldr	r1, [r4, #20]
 80021bc:	430b      	orrs	r3, r1
 80021be:	69a1      	ldr	r1, [r4, #24]
 80021c0:	430b      	orrs	r3, r1
 80021c2:	69e1      	ldr	r1, [r4, #28]
 80021c4:	430b      	orrs	r3, r1
 80021c6:	4313      	orrs	r3, r2
 80021c8:	6003      	str	r3, [r0, #0]
 80021ca:	4b16      	ldr	r3, [pc, #88]	; (8002224 <HAL_DMA_Init+0x150>)
 80021cc:	2114      	movs	r1, #20
 80021ce:	18c0      	adds	r0, r0, r3
 80021d0:	f7fd ffb8 	bl	8000144 <__udivsi3>
 80021d4:	4b14      	ldr	r3, [pc, #80]	; (8002228 <HAL_DMA_Init+0x154>)
 80021d6:	0080      	lsls	r0, r0, #2
 80021d8:	6420      	str	r0, [r4, #64]	; 0x40
 80021da:	63e3      	str	r3, [r4, #60]	; 0x3c
 80021dc:	2000      	movs	r0, #0
 80021de:	2301      	movs	r3, #1
 80021e0:	62a0      	str	r0, [r4, #40]	; 0x28
 80021e2:	62e0      	str	r0, [r4, #44]	; 0x2c
 80021e4:	6320      	str	r0, [r4, #48]	; 0x30
 80021e6:	6360      	str	r0, [r4, #52]	; 0x34
 80021e8:	63a0      	str	r0, [r4, #56]	; 0x38
 80021ea:	18e4      	adds	r4, r4, r3
 80021ec:	77eb      	strb	r3, [r5, #31]
 80021ee:	77e0      	strb	r0, [r4, #31]
 80021f0:	bd70      	pop	{r4, r5, r6, pc}
 80021f2:	46c0      	nop			; (mov r8, r8)
 80021f4:	40020008 	.word	0x40020008
 80021f8:	4002001c 	.word	0x4002001c
 80021fc:	40020030 	.word	0x40020030
 8002200:	40020044 	.word	0x40020044
 8002204:	40020058 	.word	0x40020058
 8002208:	4002006c 	.word	0x4002006c
 800220c:	40020080 	.word	0x40020080
 8002210:	08005e4a 	.word	0x08005e4a
 8002214:	fffffeff 	.word	0xfffffeff
 8002218:	fffffbff 	.word	0xfffffbff
 800221c:	ffffcfff 	.word	0xffffcfff
 8002220:	ffffc00f 	.word	0xffffc00f
 8002224:	bffdfff8 	.word	0xbffdfff8
 8002228:	40020000 	.word	0x40020000

0800222c <HAL_DMA_Abort_IT>:
 800222c:	b570      	push	{r4, r5, r6, lr}
 800222e:	1c84      	adds	r4, r0, #2
 8002230:	7fe3      	ldrb	r3, [r4, #31]
 8002232:	2b02      	cmp	r3, #2
 8002234:	d004      	beq.n	8002240 <HAL_DMA_Abort_IT+0x14>
 8002236:	2304      	movs	r3, #4
 8002238:	6383      	str	r3, [r0, #56]	; 0x38
 800223a:	3b03      	subs	r3, #3
 800223c:	0018      	movs	r0, r3
 800223e:	bd70      	pop	{r4, r5, r6, pc}
 8002240:	210e      	movs	r1, #14
 8002242:	6803      	ldr	r3, [r0, #0]
 8002244:	6c05      	ldr	r5, [r0, #64]	; 0x40
 8002246:	681a      	ldr	r2, [r3, #0]
 8002248:	438a      	bics	r2, r1
 800224a:	601a      	str	r2, [r3, #0]
 800224c:	2201      	movs	r2, #1
 800224e:	6819      	ldr	r1, [r3, #0]
 8002250:	4391      	bics	r1, r2
 8002252:	6019      	str	r1, [r3, #0]
 8002254:	0011      	movs	r1, r2
 8002256:	40a9      	lsls	r1, r5
 8002258:	6bc3      	ldr	r3, [r0, #60]	; 0x3c
 800225a:	6059      	str	r1, [r3, #4]
 800225c:	77e2      	strb	r2, [r4, #31]
 800225e:	2400      	movs	r4, #0
 8002260:	1883      	adds	r3, r0, r2
 8002262:	6b42      	ldr	r2, [r0, #52]	; 0x34
 8002264:	77dc      	strb	r4, [r3, #31]
 8002266:	0013      	movs	r3, r2
 8002268:	42a2      	cmp	r2, r4
 800226a:	d0e7      	beq.n	800223c <HAL_DMA_Abort_IT+0x10>
 800226c:	4790      	blx	r2
 800226e:	0023      	movs	r3, r4
 8002270:	e7e4      	b.n	800223c <HAL_DMA_Abort_IT+0x10>

08002272 <HAL_DMA_IRQHandler>:
 8002272:	b5f8      	push	{r3, r4, r5, r6, r7, lr}
 8002274:	2704      	movs	r7, #4
 8002276:	003e      	movs	r6, r7
 8002278:	6c01      	ldr	r1, [r0, #64]	; 0x40
 800227a:	6bc2      	ldr	r2, [r0, #60]	; 0x3c
 800227c:	408e      	lsls	r6, r1
 800227e:	6815      	ldr	r5, [r2, #0]
 8002280:	6803      	ldr	r3, [r0, #0]
 8002282:	681c      	ldr	r4, [r3, #0]
 8002284:	422e      	tst	r6, r5
 8002286:	d00d      	beq.n	80022a4 <HAL_DMA_IRQHandler+0x32>
 8002288:	423c      	tst	r4, r7
 800228a:	d00b      	beq.n	80022a4 <HAL_DMA_IRQHandler+0x32>
 800228c:	6819      	ldr	r1, [r3, #0]
 800228e:	0689      	lsls	r1, r1, #26
 8002290:	d402      	bmi.n	8002298 <HAL_DMA_IRQHandler+0x26>
 8002292:	6819      	ldr	r1, [r3, #0]
 8002294:	43b9      	bics	r1, r7
 8002296:	6019      	str	r1, [r3, #0]
 8002298:	6ac3      	ldr	r3, [r0, #44]	; 0x2c
 800229a:	6056      	str	r6, [r2, #4]
 800229c:	2b00      	cmp	r3, #0
 800229e:	d019      	beq.n	80022d4 <HAL_DMA_IRQHandler+0x62>
 80022a0:	4798      	blx	r3
 80022a2:	e017      	b.n	80022d4 <HAL_DMA_IRQHandler+0x62>
 80022a4:	2702      	movs	r7, #2
 80022a6:	003e      	movs	r6, r7
 80022a8:	408e      	lsls	r6, r1
 80022aa:	422e      	tst	r6, r5
 80022ac:	d013      	beq.n	80022d6 <HAL_DMA_IRQHandler+0x64>
 80022ae:	423c      	tst	r4, r7
 80022b0:	d011      	beq.n	80022d6 <HAL_DMA_IRQHandler+0x64>
 80022b2:	6819      	ldr	r1, [r3, #0]
 80022b4:	0689      	lsls	r1, r1, #26
 80022b6:	d406      	bmi.n	80022c6 <HAL_DMA_IRQHandler+0x54>
 80022b8:	240a      	movs	r4, #10
 80022ba:	6819      	ldr	r1, [r3, #0]
 80022bc:	43a1      	bics	r1, r4
 80022be:	6019      	str	r1, [r3, #0]
 80022c0:	2101      	movs	r1, #1
 80022c2:	19c3      	adds	r3, r0, r7
 80022c4:	77d9      	strb	r1, [r3, #31]
 80022c6:	6056      	str	r6, [r2, #4]
 80022c8:	2200      	movs	r2, #0
 80022ca:	1c43      	adds	r3, r0, #1
 80022cc:	77da      	strb	r2, [r3, #31]
 80022ce:	6a83      	ldr	r3, [r0, #40]	; 0x28
 80022d0:	4293      	cmp	r3, r2
 80022d2:	d1e5      	bne.n	80022a0 <HAL_DMA_IRQHandler+0x2e>
 80022d4:	bdf8      	pop	{r3, r4, r5, r6, r7, pc}
 80022d6:	2608      	movs	r6, #8
 80022d8:	0037      	movs	r7, r6
 80022da:	408f      	lsls	r7, r1
 80022dc:	423d      	tst	r5, r7
 80022de:	d0f9      	beq.n	80022d4 <HAL_DMA_IRQHandler+0x62>
 80022e0:	4234      	tst	r4, r6
 80022e2:	d0f7      	beq.n	80022d4 <HAL_DMA_IRQHandler+0x62>
 80022e4:	250e      	movs	r5, #14
 80022e6:	681c      	ldr	r4, [r3, #0]
 80022e8:	43ac      	bics	r4, r5
 80022ea:	601c      	str	r4, [r3, #0]
 80022ec:	2301      	movs	r3, #1
 80022ee:	001c      	movs	r4, r3
 80022f0:	408c      	lsls	r4, r1
 80022f2:	6054      	str	r4, [r2, #4]
 80022f4:	1c82      	adds	r2, r0, #2
 80022f6:	6383      	str	r3, [r0, #56]	; 0x38
 80022f8:	77d3      	strb	r3, [r2, #31]
 80022fa:	2200      	movs	r2, #0
 80022fc:	18c3      	adds	r3, r0, r3
 80022fe:	77da      	strb	r2, [r3, #31]
 8002300:	6b03      	ldr	r3, [r0, #48]	; 0x30
 8002302:	e7e5      	b.n	80022d0 <HAL_DMA_IRQHandler+0x5e>

08002304 <HAL_GPIO_Init>:
 8002304:	2390      	movs	r3, #144	; 0x90
 8002306:	b5f0      	push	{r4, r5, r6, r7, lr}
 8002308:	05db      	lsls	r3, r3, #23
 800230a:	b087      	sub	sp, #28
 800230c:	0004      	movs	r4, r0
 800230e:	000d      	movs	r5, r1
 8002310:	4298      	cmp	r0, r3
 8002312:	d012      	beq.n	800233a <HAL_GPIO_Init+0x36>
 8002314:	4b83      	ldr	r3, [pc, #524]	; (8002524 <HAL_GPIO_Init+0x220>)
 8002316:	4298      	cmp	r0, r3
 8002318:	d00f      	beq.n	800233a <HAL_GPIO_Init+0x36>
 800231a:	4b83      	ldr	r3, [pc, #524]	; (8002528 <HAL_GPIO_Init+0x224>)
 800231c:	4298      	cmp	r0, r3
 800231e:	d00c      	beq.n	800233a <HAL_GPIO_Init+0x36>
 8002320:	4b82      	ldr	r3, [pc, #520]	; (800252c <HAL_GPIO_Init+0x228>)
 8002322:	4298      	cmp	r0, r3
 8002324:	d009      	beq.n	800233a <HAL_GPIO_Init+0x36>
 8002326:	4b82      	ldr	r3, [pc, #520]	; (8002530 <HAL_GPIO_Init+0x22c>)
 8002328:	4298      	cmp	r0, r3
 800232a:	d006      	beq.n	800233a <HAL_GPIO_Init+0x36>
 800232c:	4b81      	ldr	r3, [pc, #516]	; (8002534 <HAL_GPIO_Init+0x230>)
 800232e:	4298      	cmp	r0, r3
 8002330:	d003      	beq.n	800233a <HAL_GPIO_Init+0x36>
 8002332:	21c1      	movs	r1, #193	; 0xc1
 8002334:	4880      	ldr	r0, [pc, #512]	; (8002538 <HAL_GPIO_Init+0x234>)
 8002336:	f7ff fa8c 	bl	8001852 <assert_failed>
 800233a:	682b      	ldr	r3, [r5, #0]
 800233c:	b29a      	uxth	r2, r3
 800233e:	2a00      	cmp	r2, #0
 8002340:	d001      	beq.n	8002346 <HAL_GPIO_Init+0x42>
 8002342:	0c1b      	lsrs	r3, r3, #16
 8002344:	d003      	beq.n	800234e <HAL_GPIO_Init+0x4a>
 8002346:	21c2      	movs	r1, #194	; 0xc2
 8002348:	487b      	ldr	r0, [pc, #492]	; (8002538 <HAL_GPIO_Init+0x234>)
 800234a:	f7ff fa82 	bl	8001852 <assert_failed>
 800234e:	686b      	ldr	r3, [r5, #4]
 8002350:	2b03      	cmp	r3, #3
 8002352:	d912      	bls.n	800237a <HAL_GPIO_Init+0x76>
 8002354:	001a      	movs	r2, r3
 8002356:	3a11      	subs	r2, #17
 8002358:	2a01      	cmp	r2, #1
 800235a:	d90e      	bls.n	800237a <HAL_GPIO_Init+0x76>
 800235c:	4a77      	ldr	r2, [pc, #476]	; (800253c <HAL_GPIO_Init+0x238>)
 800235e:	4978      	ldr	r1, [pc, #480]	; (8002540 <HAL_GPIO_Init+0x23c>)
 8002360:	401a      	ands	r2, r3
 8002362:	1852      	adds	r2, r2, r1
 8002364:	4977      	ldr	r1, [pc, #476]	; (8002544 <HAL_GPIO_Init+0x240>)
 8002366:	420a      	tst	r2, r1
 8002368:	d007      	beq.n	800237a <HAL_GPIO_Init+0x76>
 800236a:	4a77      	ldr	r2, [pc, #476]	; (8002548 <HAL_GPIO_Init+0x244>)
 800236c:	189b      	adds	r3, r3, r2
 800236e:	420b      	tst	r3, r1
 8002370:	d003      	beq.n	800237a <HAL_GPIO_Init+0x76>
 8002372:	21c3      	movs	r1, #195	; 0xc3
 8002374:	4870      	ldr	r0, [pc, #448]	; (8002538 <HAL_GPIO_Init+0x234>)
 8002376:	f7ff fa6c 	bl	8001852 <assert_failed>
 800237a:	68ab      	ldr	r3, [r5, #8]
 800237c:	2b02      	cmp	r3, #2
 800237e:	d903      	bls.n	8002388 <HAL_GPIO_Init+0x84>
 8002380:	21c4      	movs	r1, #196	; 0xc4
 8002382:	486d      	ldr	r0, [pc, #436]	; (8002538 <HAL_GPIO_Init+0x234>)
 8002384:	f7ff fa65 	bl	8001852 <assert_failed>
 8002388:	2300      	movs	r3, #0
 800238a:	9301      	str	r3, [sp, #4]
 800238c:	682b      	ldr	r3, [r5, #0]
 800238e:	9901      	ldr	r1, [sp, #4]
 8002390:	001a      	movs	r2, r3
 8002392:	40ca      	lsrs	r2, r1
 8002394:	d101      	bne.n	800239a <HAL_GPIO_Init+0x96>
 8002396:	b007      	add	sp, #28
 8002398:	bdf0      	pop	{r4, r5, r6, r7, pc}
 800239a:	2201      	movs	r2, #1
 800239c:	9901      	ldr	r1, [sp, #4]
 800239e:	408a      	lsls	r2, r1
 80023a0:	9203      	str	r2, [sp, #12]
 80023a2:	401a      	ands	r2, r3
 80023a4:	9202      	str	r2, [sp, #8]
 80023a6:	d100      	bne.n	80023aa <HAL_GPIO_Init+0xa6>
 80023a8:	e0b8      	b.n	800251c <HAL_GPIO_Init+0x218>
 80023aa:	2210      	movs	r2, #16
 80023ac:	686b      	ldr	r3, [r5, #4]
 80023ae:	4393      	bics	r3, r2
 80023b0:	2b02      	cmp	r3, #2
 80023b2:	d12b      	bne.n	800240c <HAL_GPIO_Init+0x108>
 80023b4:	2390      	movs	r3, #144	; 0x90
 80023b6:	05db      	lsls	r3, r3, #23
 80023b8:	429c      	cmp	r4, r3
 80023ba:	d00f      	beq.n	80023dc <HAL_GPIO_Init+0xd8>
 80023bc:	4b59      	ldr	r3, [pc, #356]	; (8002524 <HAL_GPIO_Init+0x220>)
 80023be:	429c      	cmp	r4, r3
 80023c0:	d00c      	beq.n	80023dc <HAL_GPIO_Init+0xd8>
 80023c2:	4b59      	ldr	r3, [pc, #356]	; (8002528 <HAL_GPIO_Init+0x224>)
 80023c4:	429c      	cmp	r4, r3
 80023c6:	d009      	beq.n	80023dc <HAL_GPIO_Init+0xd8>
 80023c8:	4b58      	ldr	r3, [pc, #352]	; (800252c <HAL_GPIO_Init+0x228>)
 80023ca:	429c      	cmp	r4, r3
 80023cc:	d006      	beq.n	80023dc <HAL_GPIO_Init+0xd8>
 80023ce:	4b58      	ldr	r3, [pc, #352]	; (8002530 <HAL_GPIO_Init+0x22c>)
 80023d0:	429c      	cmp	r4, r3
 80023d2:	d003      	beq.n	80023dc <HAL_GPIO_Init+0xd8>
 80023d4:	21d3      	movs	r1, #211	; 0xd3
 80023d6:	4858      	ldr	r0, [pc, #352]	; (8002538 <HAL_GPIO_Init+0x234>)
 80023d8:	f7ff fa3b 	bl	8001852 <assert_failed>
 80023dc:	692b      	ldr	r3, [r5, #16]
 80023de:	2b07      	cmp	r3, #7
 80023e0:	d903      	bls.n	80023ea <HAL_GPIO_Init+0xe6>
 80023e2:	21d4      	movs	r1, #212	; 0xd4
 80023e4:	4854      	ldr	r0, [pc, #336]	; (8002538 <HAL_GPIO_Init+0x234>)
 80023e6:	f7ff fa34 	bl	8001852 <assert_failed>
 80023ea:	2207      	movs	r2, #7
 80023ec:	9801      	ldr	r0, [sp, #4]
 80023ee:	9b01      	ldr	r3, [sp, #4]
 80023f0:	4002      	ands	r2, r0
 80023f2:	200f      	movs	r0, #15
 80023f4:	0092      	lsls	r2, r2, #2
 80023f6:	4090      	lsls	r0, r2
 80023f8:	08db      	lsrs	r3, r3, #3
 80023fa:	009b      	lsls	r3, r3, #2
 80023fc:	18e3      	adds	r3, r4, r3
 80023fe:	6a19      	ldr	r1, [r3, #32]
 8002400:	4381      	bics	r1, r0
 8002402:	6928      	ldr	r0, [r5, #16]
 8002404:	4090      	lsls	r0, r2
 8002406:	0002      	movs	r2, r0
 8002408:	430a      	orrs	r2, r1
 800240a:	621a      	str	r2, [r3, #32]
 800240c:	9b01      	ldr	r3, [sp, #4]
 800240e:	686a      	ldr	r2, [r5, #4]
 8002410:	005f      	lsls	r7, r3, #1
 8002412:	2303      	movs	r3, #3
 8002414:	001e      	movs	r6, r3
 8002416:	40be      	lsls	r6, r7
 8002418:	4013      	ands	r3, r2
 800241a:	43f6      	mvns	r6, r6
 800241c:	40bb      	lsls	r3, r7
 800241e:	6821      	ldr	r1, [r4, #0]
 8002420:	4031      	ands	r1, r6
 8002422:	430b      	orrs	r3, r1
 8002424:	6023      	str	r3, [r4, #0]
 8002426:	2310      	movs	r3, #16
 8002428:	439a      	bics	r2, r3
 800242a:	3a01      	subs	r2, #1
 800242c:	2a01      	cmp	r2, #1
 800242e:	d819      	bhi.n	8002464 <HAL_GPIO_Init+0x160>
 8002430:	68eb      	ldr	r3, [r5, #12]
 8002432:	2b01      	cmp	r3, #1
 8002434:	d905      	bls.n	8002442 <HAL_GPIO_Init+0x13e>
 8002436:	2b03      	cmp	r3, #3
 8002438:	d003      	beq.n	8002442 <HAL_GPIO_Init+0x13e>
 800243a:	21e8      	movs	r1, #232	; 0xe8
 800243c:	483e      	ldr	r0, [pc, #248]	; (8002538 <HAL_GPIO_Init+0x234>)
 800243e:	f7ff fa08 	bl	8001852 <assert_failed>
 8002442:	68eb      	ldr	r3, [r5, #12]
 8002444:	2101      	movs	r1, #1
 8002446:	40bb      	lsls	r3, r7
 8002448:	68a2      	ldr	r2, [r4, #8]
 800244a:	4032      	ands	r2, r6
 800244c:	4313      	orrs	r3, r2
 800244e:	60a3      	str	r3, [r4, #8]
 8002450:	6862      	ldr	r2, [r4, #4]
 8002452:	9b03      	ldr	r3, [sp, #12]
 8002454:	439a      	bics	r2, r3
 8002456:	686b      	ldr	r3, [r5, #4]
 8002458:	091b      	lsrs	r3, r3, #4
 800245a:	400b      	ands	r3, r1
 800245c:	9901      	ldr	r1, [sp, #4]
 800245e:	408b      	lsls	r3, r1
 8002460:	4313      	orrs	r3, r2
 8002462:	6063      	str	r3, [r4, #4]
 8002464:	68e3      	ldr	r3, [r4, #12]
 8002466:	6869      	ldr	r1, [r5, #4]
 8002468:	4033      	ands	r3, r6
 800246a:	68ae      	ldr	r6, [r5, #8]
 800246c:	40be      	lsls	r6, r7
 800246e:	431e      	orrs	r6, r3
 8002470:	60e6      	str	r6, [r4, #12]
 8002472:	00cb      	lsls	r3, r1, #3
 8002474:	d552      	bpl.n	800251c <HAL_GPIO_Init+0x218>
 8002476:	2001      	movs	r0, #1
 8002478:	2603      	movs	r6, #3
 800247a:	270f      	movs	r7, #15
 800247c:	4b33      	ldr	r3, [pc, #204]	; (800254c <HAL_GPIO_Init+0x248>)
 800247e:	699a      	ldr	r2, [r3, #24]
 8002480:	4302      	orrs	r2, r0
 8002482:	619a      	str	r2, [r3, #24]
 8002484:	699b      	ldr	r3, [r3, #24]
 8002486:	4003      	ands	r3, r0
 8002488:	9801      	ldr	r0, [sp, #4]
 800248a:	9305      	str	r3, [sp, #20]
 800248c:	4030      	ands	r0, r6
 800248e:	0080      	lsls	r0, r0, #2
 8002490:	4087      	lsls	r7, r0
 8002492:	9b05      	ldr	r3, [sp, #20]
 8002494:	9b01      	ldr	r3, [sp, #4]
 8002496:	089a      	lsrs	r2, r3, #2
 8002498:	4b2d      	ldr	r3, [pc, #180]	; (8002550 <HAL_GPIO_Init+0x24c>)
 800249a:	0092      	lsls	r2, r2, #2
 800249c:	18d2      	adds	r2, r2, r3
 800249e:	6893      	ldr	r3, [r2, #8]
 80024a0:	43bb      	bics	r3, r7
 80024a2:	2790      	movs	r7, #144	; 0x90
 80024a4:	469c      	mov	ip, r3
 80024a6:	05ff      	lsls	r7, r7, #23
 80024a8:	2300      	movs	r3, #0
 80024aa:	42bc      	cmp	r4, r7
 80024ac:	d010      	beq.n	80024d0 <HAL_GPIO_Init+0x1cc>
 80024ae:	4f1d      	ldr	r7, [pc, #116]	; (8002524 <HAL_GPIO_Init+0x220>)
 80024b0:	3301      	adds	r3, #1
 80024b2:	42bc      	cmp	r4, r7
 80024b4:	d00c      	beq.n	80024d0 <HAL_GPIO_Init+0x1cc>
 80024b6:	4f1c      	ldr	r7, [pc, #112]	; (8002528 <HAL_GPIO_Init+0x224>)
 80024b8:	3301      	adds	r3, #1
 80024ba:	42bc      	cmp	r4, r7
 80024bc:	d008      	beq.n	80024d0 <HAL_GPIO_Init+0x1cc>
 80024be:	4f1b      	ldr	r7, [pc, #108]	; (800252c <HAL_GPIO_Init+0x228>)
 80024c0:	0033      	movs	r3, r6
 80024c2:	42bc      	cmp	r4, r7
 80024c4:	d004      	beq.n	80024d0 <HAL_GPIO_Init+0x1cc>
 80024c6:	4b23      	ldr	r3, [pc, #140]	; (8002554 <HAL_GPIO_Init+0x250>)
 80024c8:	18e3      	adds	r3, r4, r3
 80024ca:	1e5e      	subs	r6, r3, #1
 80024cc:	41b3      	sbcs	r3, r6
 80024ce:	3304      	adds	r3, #4
 80024d0:	4083      	lsls	r3, r0
 80024d2:	4660      	mov	r0, ip
 80024d4:	4303      	orrs	r3, r0
 80024d6:	6093      	str	r3, [r2, #8]
 80024d8:	4a1f      	ldr	r2, [pc, #124]	; (8002558 <HAL_GPIO_Init+0x254>)
 80024da:	9b02      	ldr	r3, [sp, #8]
 80024dc:	6816      	ldr	r6, [r2, #0]
 80024de:	43d8      	mvns	r0, r3
 80024e0:	4333      	orrs	r3, r6
 80024e2:	03cf      	lsls	r7, r1, #15
 80024e4:	d401      	bmi.n	80024ea <HAL_GPIO_Init+0x1e6>
 80024e6:	0033      	movs	r3, r6
 80024e8:	4003      	ands	r3, r0
 80024ea:	6013      	str	r3, [r2, #0]
 80024ec:	6856      	ldr	r6, [r2, #4]
 80024ee:	9b02      	ldr	r3, [sp, #8]
 80024f0:	4333      	orrs	r3, r6
 80024f2:	038f      	lsls	r7, r1, #14
 80024f4:	d401      	bmi.n	80024fa <HAL_GPIO_Init+0x1f6>
 80024f6:	0033      	movs	r3, r6
 80024f8:	4003      	ands	r3, r0
 80024fa:	6053      	str	r3, [r2, #4]
 80024fc:	6896      	ldr	r6, [r2, #8]
 80024fe:	9b02      	ldr	r3, [sp, #8]
 8002500:	4333      	orrs	r3, r6
 8002502:	02cf      	lsls	r7, r1, #11
 8002504:	d401      	bmi.n	800250a <HAL_GPIO_Init+0x206>
 8002506:	0033      	movs	r3, r6
 8002508:	4003      	ands	r3, r0
 800250a:	6093      	str	r3, [r2, #8]
 800250c:	68d6      	ldr	r6, [r2, #12]
 800250e:	9b02      	ldr	r3, [sp, #8]
 8002510:	4333      	orrs	r3, r6
 8002512:	0289      	lsls	r1, r1, #10
 8002514:	d401      	bmi.n	800251a <HAL_GPIO_Init+0x216>
 8002516:	0033      	movs	r3, r6
 8002518:	4003      	ands	r3, r0
 800251a:	60d3      	str	r3, [r2, #12]
 800251c:	9b01      	ldr	r3, [sp, #4]
 800251e:	3301      	adds	r3, #1
 8002520:	e733      	b.n	800238a <HAL_GPIO_Init+0x86>
 8002522:	46c0      	nop			; (mov r8, r8)
 8002524:	48000400 	.word	0x48000400
 8002528:	48000800 	.word	0x48000800
 800252c:	48000c00 	.word	0x48000c00
 8002530:	48001000 	.word	0x48001000
 8002534:	48001400 	.word	0x48001400
 8002538:	08005e82 	.word	0x08005e82
 800253c:	ffdfffff 	.word	0xffdfffff
 8002540:	efef0000 	.word	0xefef0000
 8002544:	fffeffff 	.word	0xfffeffff
 8002548:	efdf0000 	.word	0xefdf0000
 800254c:	40021000 	.word	0x40021000
 8002550:	40010000 	.word	0x40010000
 8002554:	b7fff000 	.word	0xb7fff000
 8002558:	40010400 	.word	0x40010400

0800255c <HAL_GPIO_ReadPin>:
 800255c:	b570      	push	{r4, r5, r6, lr}
 800255e:	0005      	movs	r5, r0
 8002560:	1e0c      	subs	r4, r1, #0
 8002562:	d104      	bne.n	800256e <HAL_GPIO_ReadPin+0x12>
 8002564:	218e      	movs	r1, #142	; 0x8e
 8002566:	4805      	ldr	r0, [pc, #20]	; (800257c <HAL_GPIO_ReadPin+0x20>)
 8002568:	31ff      	adds	r1, #255	; 0xff
 800256a:	f7ff f972 	bl	8001852 <assert_failed>
 800256e:	6928      	ldr	r0, [r5, #16]
 8002570:	4020      	ands	r0, r4
 8002572:	1e43      	subs	r3, r0, #1
 8002574:	4198      	sbcs	r0, r3
 8002576:	b2c0      	uxtb	r0, r0
 8002578:	bd70      	pop	{r4, r5, r6, pc}
 800257a:	46c0      	nop			; (mov r8, r8)
 800257c:	08005e82 	.word	0x08005e82

08002580 <HAL_GPIO_WritePin>:
 8002580:	b570      	push	{r4, r5, r6, lr}
 8002582:	0005      	movs	r5, r0
 8002584:	000c      	movs	r4, r1
 8002586:	0016      	movs	r6, r2
 8002588:	2900      	cmp	r1, #0
 800258a:	d104      	bne.n	8002596 <HAL_GPIO_WritePin+0x16>
 800258c:	21d6      	movs	r1, #214	; 0xd6
 800258e:	4808      	ldr	r0, [pc, #32]	; (80025b0 <HAL_GPIO_WritePin+0x30>)
 8002590:	0049      	lsls	r1, r1, #1
 8002592:	f7ff f95e 	bl	8001852 <assert_failed>
 8002596:	2e01      	cmp	r6, #1
 8002598:	d906      	bls.n	80025a8 <HAL_GPIO_WritePin+0x28>
 800259a:	21ae      	movs	r1, #174	; 0xae
 800259c:	4804      	ldr	r0, [pc, #16]	; (80025b0 <HAL_GPIO_WritePin+0x30>)
 800259e:	31ff      	adds	r1, #255	; 0xff
 80025a0:	f7ff f957 	bl	8001852 <assert_failed>
 80025a4:	61ac      	str	r4, [r5, #24]
 80025a6:	bd70      	pop	{r4, r5, r6, pc}
 80025a8:	2e00      	cmp	r6, #0
 80025aa:	d1fb      	bne.n	80025a4 <HAL_GPIO_WritePin+0x24>
 80025ac:	62ac      	str	r4, [r5, #40]	; 0x28
 80025ae:	e7fa      	b.n	80025a6 <HAL_GPIO_WritePin+0x26>
 80025b0:	08005e82 	.word	0x08005e82

080025b4 <HAL_GPIO_EXTI_Callback>:
 80025b4:	4770      	bx	lr
	...

080025b8 <HAL_GPIO_EXTI_IRQHandler>:
 80025b8:	4b04      	ldr	r3, [pc, #16]	; (80025cc <HAL_GPIO_EXTI_IRQHandler+0x14>)
 80025ba:	b510      	push	{r4, lr}
 80025bc:	695a      	ldr	r2, [r3, #20]
 80025be:	4210      	tst	r0, r2
 80025c0:	d002      	beq.n	80025c8 <HAL_GPIO_EXTI_IRQHandler+0x10>
 80025c2:	6158      	str	r0, [r3, #20]
 80025c4:	f7ff fff6 	bl	80025b4 <HAL_GPIO_EXTI_Callback>
 80025c8:	bd10      	pop	{r4, pc}
 80025ca:	46c0      	nop			; (mov r8, r8)
 80025cc:	40010400 	.word	0x40010400

080025d0 <I2C_Flush_TXDR>:
 80025d0:	6803      	ldr	r3, [r0, #0]
 80025d2:	699a      	ldr	r2, [r3, #24]
 80025d4:	0792      	lsls	r2, r2, #30
 80025d6:	d501      	bpl.n	80025dc <I2C_Flush_TXDR+0xc>
 80025d8:	2200      	movs	r2, #0
 80025da:	629a      	str	r2, [r3, #40]	; 0x28
 80025dc:	2201      	movs	r2, #1
 80025de:	6999      	ldr	r1, [r3, #24]
 80025e0:	4211      	tst	r1, r2
 80025e2:	d102      	bne.n	80025ea <I2C_Flush_TXDR+0x1a>
 80025e4:	6999      	ldr	r1, [r3, #24]
 80025e6:	430a      	orrs	r2, r1
 80025e8:	619a      	str	r2, [r3, #24]
 80025ea:	4770      	bx	lr

080025ec <I2C_Disable_IRQ>:
 80025ec:	b510      	push	{r4, lr}
 80025ee:	2300      	movs	r3, #0
 80025f0:	07ca      	lsls	r2, r1, #31
 80025f2:	d508      	bpl.n	8002606 <I2C_Disable_IRQ+0x1a>
 80025f4:	0003      	movs	r3, r0
 80025f6:	3341      	adds	r3, #65	; 0x41
 80025f8:	781a      	ldrb	r2, [r3, #0]
 80025fa:	2328      	movs	r3, #40	; 0x28
 80025fc:	401a      	ands	r2, r3
 80025fe:	331a      	adds	r3, #26
 8002600:	2a28      	cmp	r2, #40	; 0x28
 8002602:	d000      	beq.n	8002606 <I2C_Disable_IRQ+0x1a>
 8002604:	33b0      	adds	r3, #176	; 0xb0
 8002606:	078a      	lsls	r2, r1, #30
 8002608:	d508      	bpl.n	800261c <I2C_Disable_IRQ+0x30>
 800260a:	0002      	movs	r2, r0
 800260c:	2428      	movs	r4, #40	; 0x28
 800260e:	3241      	adds	r2, #65	; 0x41
 8002610:	7812      	ldrb	r2, [r2, #0]
 8002612:	4022      	ands	r2, r4
 8002614:	42a2      	cmp	r2, r4
 8002616:	d117      	bne.n	8002648 <I2C_Disable_IRQ+0x5c>
 8002618:	2244      	movs	r2, #68	; 0x44
 800261a:	4313      	orrs	r3, r2
 800261c:	074a      	lsls	r2, r1, #29
 800261e:	d501      	bpl.n	8002624 <I2C_Disable_IRQ+0x38>
 8002620:	22b8      	movs	r2, #184	; 0xb8
 8002622:	4313      	orrs	r3, r2
 8002624:	2211      	movs	r2, #17
 8002626:	400a      	ands	r2, r1
 8002628:	2a11      	cmp	r2, #17
 800262a:	d101      	bne.n	8002630 <I2C_Disable_IRQ+0x44>
 800262c:	327f      	adds	r2, #127	; 0x7f
 800262e:	4313      	orrs	r3, r2
 8002630:	2212      	movs	r2, #18
 8002632:	4011      	ands	r1, r2
 8002634:	4291      	cmp	r1, r2
 8002636:	d101      	bne.n	800263c <I2C_Disable_IRQ+0x50>
 8002638:	324e      	adds	r2, #78	; 0x4e
 800263a:	4313      	orrs	r3, r2
 800263c:	6801      	ldr	r1, [r0, #0]
 800263e:	680a      	ldr	r2, [r1, #0]
 8002640:	2000      	movs	r0, #0
 8002642:	439a      	bics	r2, r3
 8002644:	600a      	str	r2, [r1, #0]
 8002646:	bd10      	pop	{r4, pc}
 8002648:	22f4      	movs	r2, #244	; 0xf4
 800264a:	e7e6      	b.n	800261a <I2C_Disable_IRQ+0x2e>

0800264c <I2C_TransferConfig>:
 800264c:	b5f7      	push	{r0, r1, r2, r4, r5, r6, r7, lr}
 800264e:	001e      	movs	r6, r3
 8002650:	9201      	str	r2, [sp, #4]
 8002652:	6803      	ldr	r3, [r0, #0]
 8002654:	4a1a      	ldr	r2, [pc, #104]	; (80026c0 <I2C_TransferConfig+0x74>)
 8002656:	0007      	movs	r7, r0
 8002658:	000c      	movs	r4, r1
 800265a:	9d08      	ldr	r5, [sp, #32]
 800265c:	4293      	cmp	r3, r2
 800265e:	d006      	beq.n	800266e <I2C_TransferConfig+0x22>
 8002660:	4a18      	ldr	r2, [pc, #96]	; (80026c4 <I2C_TransferConfig+0x78>)
 8002662:	4293      	cmp	r3, r2
 8002664:	d003      	beq.n	800266e <I2C_TransferConfig+0x22>
 8002666:	4918      	ldr	r1, [pc, #96]	; (80026c8 <I2C_TransferConfig+0x7c>)
 8002668:	4818      	ldr	r0, [pc, #96]	; (80026cc <I2C_TransferConfig+0x80>)
 800266a:	f7ff f8f2 	bl	8001852 <assert_failed>
 800266e:	2380      	movs	r3, #128	; 0x80
 8002670:	049b      	lsls	r3, r3, #18
 8002672:	429e      	cmp	r6, r3
 8002674:	d006      	beq.n	8002684 <I2C_TransferConfig+0x38>
 8002676:	4b16      	ldr	r3, [pc, #88]	; (80026d0 <I2C_TransferConfig+0x84>)
 8002678:	421e      	tst	r6, r3
 800267a:	d003      	beq.n	8002684 <I2C_TransferConfig+0x38>
 800267c:	4915      	ldr	r1, [pc, #84]	; (80026d4 <I2C_TransferConfig+0x88>)
 800267e:	4813      	ldr	r0, [pc, #76]	; (80026cc <I2C_TransferConfig+0x80>)
 8002680:	f7ff f8e7 	bl	8001852 <assert_failed>
 8002684:	2380      	movs	r3, #128	; 0x80
 8002686:	01db      	lsls	r3, r3, #7
 8002688:	429d      	cmp	r5, r3
 800268a:	d00a      	beq.n	80026a2 <I2C_TransferConfig+0x56>
 800268c:	2390      	movs	r3, #144	; 0x90
 800268e:	019b      	lsls	r3, r3, #6
 8002690:	429d      	cmp	r5, r3
 8002692:	d006      	beq.n	80026a2 <I2C_TransferConfig+0x56>
 8002694:	4b10      	ldr	r3, [pc, #64]	; (80026d8 <I2C_TransferConfig+0x8c>)
 8002696:	421d      	tst	r5, r3
 8002698:	d003      	beq.n	80026a2 <I2C_TransferConfig+0x56>
 800269a:	4910      	ldr	r1, [pc, #64]	; (80026dc <I2C_TransferConfig+0x90>)
 800269c:	480b      	ldr	r0, [pc, #44]	; (80026cc <I2C_TransferConfig+0x80>)
 800269e:	f7ff f8d8 	bl	8001852 <assert_failed>
 80026a2:	683b      	ldr	r3, [r7, #0]
 80026a4:	4a0e      	ldr	r2, [pc, #56]	; (80026e0 <I2C_TransferConfig+0x94>)
 80026a6:	6859      	ldr	r1, [r3, #4]
 80026a8:	05a4      	lsls	r4, r4, #22
 80026aa:	400a      	ands	r2, r1
 80026ac:	0da4      	lsrs	r4, r4, #22
 80026ae:	9901      	ldr	r1, [sp, #4]
 80026b0:	4326      	orrs	r6, r4
 80026b2:	4335      	orrs	r5, r6
 80026b4:	040e      	lsls	r6, r1, #16
 80026b6:	4335      	orrs	r5, r6
 80026b8:	4315      	orrs	r5, r2
 80026ba:	605d      	str	r5, [r3, #4]
 80026bc:	bdf7      	pop	{r0, r1, r2, r4, r5, r6, r7, pc}
 80026be:	46c0      	nop			; (mov r8, r8)
 80026c0:	40005400 	.word	0x40005400
 80026c4:	40005800 	.word	0x40005800
 80026c8:	00001259 	.word	0x00001259
 80026cc:	08005ebb 	.word	0x08005ebb
 80026d0:	feffffff 	.word	0xfeffffff
 80026d4:	0000125a 	.word	0x0000125a
 80026d8:	ffffdfff 	.word	0xffffdfff
 80026dc:	0000125b 	.word	0x0000125b
 80026e0:	fc009800 	.word	0xfc009800

080026e4 <I2C_WaitOnFlagUntilTimeout>:
 80026e4:	b5f8      	push	{r3, r4, r5, r6, r7, lr}
 80026e6:	0004      	movs	r4, r0
 80026e8:	000e      	movs	r6, r1
 80026ea:	0017      	movs	r7, r2
 80026ec:	001d      	movs	r5, r3
 80026ee:	6822      	ldr	r2, [r4, #0]
 80026f0:	6993      	ldr	r3, [r2, #24]
 80026f2:	4033      	ands	r3, r6
 80026f4:	1b9b      	subs	r3, r3, r6
 80026f6:	4259      	negs	r1, r3
 80026f8:	414b      	adcs	r3, r1
 80026fa:	42bb      	cmp	r3, r7
 80026fc:	d001      	beq.n	8002702 <I2C_WaitOnFlagUntilTimeout+0x1e>
 80026fe:	2000      	movs	r0, #0
 8002700:	e00e      	b.n	8002720 <I2C_WaitOnFlagUntilTimeout+0x3c>
 8002702:	1c6b      	adds	r3, r5, #1
 8002704:	d0f4      	beq.n	80026f0 <I2C_WaitOnFlagUntilTimeout+0xc>
 8002706:	2d00      	cmp	r5, #0
 8002708:	d10b      	bne.n	8002722 <I2C_WaitOnFlagUntilTimeout+0x3e>
 800270a:	0023      	movs	r3, r4
 800270c:	2220      	movs	r2, #32
 800270e:	3341      	adds	r3, #65	; 0x41
 8002710:	701a      	strb	r2, [r3, #0]
 8002712:	0022      	movs	r2, r4
 8002714:	2300      	movs	r3, #0
 8002716:	2003      	movs	r0, #3
 8002718:	3242      	adds	r2, #66	; 0x42
 800271a:	3440      	adds	r4, #64	; 0x40
 800271c:	7013      	strb	r3, [r2, #0]
 800271e:	7023      	strb	r3, [r4, #0]
 8002720:	bdf8      	pop	{r3, r4, r5, r6, r7, pc}
 8002722:	f7ff fbd1 	bl	8001ec8 <HAL_GetTick>
 8002726:	9b06      	ldr	r3, [sp, #24]
 8002728:	1ac0      	subs	r0, r0, r3
 800272a:	4285      	cmp	r5, r0
 800272c:	d2df      	bcs.n	80026ee <I2C_WaitOnFlagUntilTimeout+0xa>
 800272e:	e7ec      	b.n	800270a <I2C_WaitOnFlagUntilTimeout+0x26>

08002730 <I2C_IsAcknowledgeFailed>:
 8002730:	b5f8      	push	{r3, r4, r5, r6, r7, lr}
 8002732:	6803      	ldr	r3, [r0, #0]
 8002734:	0004      	movs	r4, r0
 8002736:	6998      	ldr	r0, [r3, #24]
 8002738:	2310      	movs	r3, #16
 800273a:	000e      	movs	r6, r1
 800273c:	0017      	movs	r7, r2
 800273e:	4018      	ands	r0, r3
 8002740:	2520      	movs	r5, #32
 8002742:	2800      	cmp	r0, #0
 8002744:	d115      	bne.n	8002772 <I2C_IsAcknowledgeFailed+0x42>
 8002746:	bdf8      	pop	{r3, r4, r5, r6, r7, pc}
 8002748:	1c72      	adds	r2, r6, #1
 800274a:	d013      	beq.n	8002774 <I2C_IsAcknowledgeFailed+0x44>
 800274c:	2e00      	cmp	r6, #0
 800274e:	d10b      	bne.n	8002768 <I2C_IsAcknowledgeFailed+0x38>
 8002750:	0023      	movs	r3, r4
 8002752:	2220      	movs	r2, #32
 8002754:	3341      	adds	r3, #65	; 0x41
 8002756:	701a      	strb	r2, [r3, #0]
 8002758:	0022      	movs	r2, r4
 800275a:	2300      	movs	r3, #0
 800275c:	3242      	adds	r2, #66	; 0x42
 800275e:	3440      	adds	r4, #64	; 0x40
 8002760:	7013      	strb	r3, [r2, #0]
 8002762:	2003      	movs	r0, #3
 8002764:	7023      	strb	r3, [r4, #0]
 8002766:	e7ee      	b.n	8002746 <I2C_IsAcknowledgeFailed+0x16>
 8002768:	f7ff fbae 	bl	8001ec8 <HAL_GetTick>
 800276c:	1bc0      	subs	r0, r0, r7
 800276e:	4286      	cmp	r6, r0
 8002770:	d3ee      	bcc.n	8002750 <I2C_IsAcknowledgeFailed+0x20>
 8002772:	6823      	ldr	r3, [r4, #0]
 8002774:	699a      	ldr	r2, [r3, #24]
 8002776:	422a      	tst	r2, r5
 8002778:	d0e6      	beq.n	8002748 <I2C_IsAcknowledgeFailed+0x18>
 800277a:	2210      	movs	r2, #16
 800277c:	0020      	movs	r0, r4
 800277e:	61da      	str	r2, [r3, #28]
 8002780:	61dd      	str	r5, [r3, #28]
 8002782:	f7ff ff25 	bl	80025d0 <I2C_Flush_TXDR>
 8002786:	6822      	ldr	r2, [r4, #0]
 8002788:	4908      	ldr	r1, [pc, #32]	; (80027ac <I2C_IsAcknowledgeFailed+0x7c>)
 800278a:	6853      	ldr	r3, [r2, #4]
 800278c:	2001      	movs	r0, #1
 800278e:	400b      	ands	r3, r1
 8002790:	6053      	str	r3, [r2, #4]
 8002792:	2304      	movs	r3, #4
 8002794:	6463      	str	r3, [r4, #68]	; 0x44
 8002796:	0023      	movs	r3, r4
 8002798:	0022      	movs	r2, r4
 800279a:	3341      	adds	r3, #65	; 0x41
 800279c:	701d      	strb	r5, [r3, #0]
 800279e:	2300      	movs	r3, #0
 80027a0:	3242      	adds	r2, #66	; 0x42
 80027a2:	3440      	adds	r4, #64	; 0x40
 80027a4:	7013      	strb	r3, [r2, #0]
 80027a6:	7023      	strb	r3, [r4, #0]
 80027a8:	e7cd      	b.n	8002746 <I2C_IsAcknowledgeFailed+0x16>
 80027aa:	46c0      	nop			; (mov r8, r8)
 80027ac:	fe00e800 	.word	0xfe00e800

080027b0 <I2C_WaitOnTXISFlagUntilTimeout>:
 80027b0:	b5f8      	push	{r3, r4, r5, r6, r7, lr}
 80027b2:	0004      	movs	r4, r0
 80027b4:	000d      	movs	r5, r1
 80027b6:	0016      	movs	r6, r2
 80027b8:	2702      	movs	r7, #2
 80027ba:	6823      	ldr	r3, [r4, #0]
 80027bc:	699b      	ldr	r3, [r3, #24]
 80027be:	423b      	tst	r3, r7
 80027c0:	d001      	beq.n	80027c6 <I2C_WaitOnTXISFlagUntilTimeout+0x16>
 80027c2:	2000      	movs	r0, #0
 80027c4:	e018      	b.n	80027f8 <I2C_WaitOnTXISFlagUntilTimeout+0x48>
 80027c6:	0032      	movs	r2, r6
 80027c8:	0029      	movs	r1, r5
 80027ca:	0020      	movs	r0, r4
 80027cc:	f7ff ffb0 	bl	8002730 <I2C_IsAcknowledgeFailed>
 80027d0:	2800      	cmp	r0, #0
 80027d2:	d118      	bne.n	8002806 <I2C_WaitOnTXISFlagUntilTimeout+0x56>
 80027d4:	1c6b      	adds	r3, r5, #1
 80027d6:	d0f0      	beq.n	80027ba <I2C_WaitOnTXISFlagUntilTimeout+0xa>
 80027d8:	2d00      	cmp	r5, #0
 80027da:	d10e      	bne.n	80027fa <I2C_WaitOnTXISFlagUntilTimeout+0x4a>
 80027dc:	2220      	movs	r2, #32
 80027de:	6c63      	ldr	r3, [r4, #68]	; 0x44
 80027e0:	2003      	movs	r0, #3
 80027e2:	4313      	orrs	r3, r2
 80027e4:	6463      	str	r3, [r4, #68]	; 0x44
 80027e6:	0023      	movs	r3, r4
 80027e8:	3341      	adds	r3, #65	; 0x41
 80027ea:	701a      	strb	r2, [r3, #0]
 80027ec:	0022      	movs	r2, r4
 80027ee:	2300      	movs	r3, #0
 80027f0:	3242      	adds	r2, #66	; 0x42
 80027f2:	3440      	adds	r4, #64	; 0x40
 80027f4:	7013      	strb	r3, [r2, #0]
 80027f6:	7023      	strb	r3, [r4, #0]
 80027f8:	bdf8      	pop	{r3, r4, r5, r6, r7, pc}
 80027fa:	f7ff fb65 	bl	8001ec8 <HAL_GetTick>
 80027fe:	1b80      	subs	r0, r0, r6
 8002800:	4285      	cmp	r5, r0
 8002802:	d2da      	bcs.n	80027ba <I2C_WaitOnTXISFlagUntilTimeout+0xa>
 8002804:	e7ea      	b.n	80027dc <I2C_WaitOnTXISFlagUntilTimeout+0x2c>
 8002806:	2001      	movs	r0, #1
 8002808:	e7f6      	b.n	80027f8 <I2C_WaitOnTXISFlagUntilTimeout+0x48>

0800280a <I2C_WaitOnSTOPFlagUntilTimeout>:
 800280a:	b5f8      	push	{r3, r4, r5, r6, r7, lr}
 800280c:	0004      	movs	r4, r0
 800280e:	000d      	movs	r5, r1
 8002810:	0016      	movs	r6, r2
 8002812:	2720      	movs	r7, #32
 8002814:	6823      	ldr	r3, [r4, #0]
 8002816:	699b      	ldr	r3, [r3, #24]
 8002818:	423b      	tst	r3, r7
 800281a:	d001      	beq.n	8002820 <I2C_WaitOnSTOPFlagUntilTimeout+0x16>
 800281c:	2000      	movs	r0, #0
 800281e:	e016      	b.n	800284e <I2C_WaitOnSTOPFlagUntilTimeout+0x44>
 8002820:	0032      	movs	r2, r6
 8002822:	0029      	movs	r1, r5
 8002824:	0020      	movs	r0, r4
 8002826:	f7ff ff83 	bl	8002730 <I2C_IsAcknowledgeFailed>
 800282a:	2800      	cmp	r0, #0
 800282c:	d116      	bne.n	800285c <I2C_WaitOnSTOPFlagUntilTimeout+0x52>
 800282e:	2d00      	cmp	r5, #0
 8002830:	d10e      	bne.n	8002850 <I2C_WaitOnSTOPFlagUntilTimeout+0x46>
 8002832:	2220      	movs	r2, #32
 8002834:	6c63      	ldr	r3, [r4, #68]	; 0x44
 8002836:	2003      	movs	r0, #3
 8002838:	4313      	orrs	r3, r2
 800283a:	6463      	str	r3, [r4, #68]	; 0x44
 800283c:	0023      	movs	r3, r4
 800283e:	3341      	adds	r3, #65	; 0x41
 8002840:	701a      	strb	r2, [r3, #0]
 8002842:	0022      	movs	r2, r4
 8002844:	2300      	movs	r3, #0
 8002846:	3242      	adds	r2, #66	; 0x42
 8002848:	3440      	adds	r4, #64	; 0x40
 800284a:	7013      	strb	r3, [r2, #0]
 800284c:	7023      	strb	r3, [r4, #0]
 800284e:	bdf8      	pop	{r3, r4, r5, r6, r7, pc}
 8002850:	f7ff fb3a 	bl	8001ec8 <HAL_GetTick>
 8002854:	1b80      	subs	r0, r0, r6
 8002856:	4285      	cmp	r5, r0
 8002858:	d2dc      	bcs.n	8002814 <I2C_WaitOnSTOPFlagUntilTimeout+0xa>
 800285a:	e7ea      	b.n	8002832 <I2C_WaitOnSTOPFlagUntilTimeout+0x28>
 800285c:	2001      	movs	r0, #1
 800285e:	e7f6      	b.n	800284e <I2C_WaitOnSTOPFlagUntilTimeout+0x44>

08002860 <HAL_I2C_Init>:
 8002860:	b570      	push	{r4, r5, r6, lr}
 8002862:	0004      	movs	r4, r0
 8002864:	2001      	movs	r0, #1
 8002866:	2c00      	cmp	r4, #0
 8002868:	d100      	bne.n	800286c <HAL_I2C_Init+0xc>
 800286a:	e087      	b.n	800297c <HAL_I2C_Init+0x11c>
 800286c:	6823      	ldr	r3, [r4, #0]
 800286e:	4a49      	ldr	r2, [pc, #292]	; (8002994 <HAL_I2C_Init+0x134>)
 8002870:	4293      	cmp	r3, r2
 8002872:	d007      	beq.n	8002884 <HAL_I2C_Init+0x24>
 8002874:	4a48      	ldr	r2, [pc, #288]	; (8002998 <HAL_I2C_Init+0x138>)
 8002876:	4293      	cmp	r3, r2
 8002878:	d004      	beq.n	8002884 <HAL_I2C_Init+0x24>
 800287a:	219e      	movs	r1, #158	; 0x9e
 800287c:	4847      	ldr	r0, [pc, #284]	; (800299c <HAL_I2C_Init+0x13c>)
 800287e:	31ff      	adds	r1, #255	; 0xff
 8002880:	f7fe ffe7 	bl	8001852 <assert_failed>
 8002884:	4b46      	ldr	r3, [pc, #280]	; (80029a0 <HAL_I2C_Init+0x140>)
 8002886:	68a2      	ldr	r2, [r4, #8]
 8002888:	429a      	cmp	r2, r3
 800288a:	d904      	bls.n	8002896 <HAL_I2C_Init+0x36>
 800288c:	21cf      	movs	r1, #207	; 0xcf
 800288e:	4843      	ldr	r0, [pc, #268]	; (800299c <HAL_I2C_Init+0x13c>)
 8002890:	0049      	lsls	r1, r1, #1
 8002892:	f7fe ffde 	bl	8001852 <assert_failed>
 8002896:	68e3      	ldr	r3, [r4, #12]
 8002898:	3b01      	subs	r3, #1
 800289a:	2b01      	cmp	r3, #1
 800289c:	d904      	bls.n	80028a8 <HAL_I2C_Init+0x48>
 800289e:	21a0      	movs	r1, #160	; 0xa0
 80028a0:	483e      	ldr	r0, [pc, #248]	; (800299c <HAL_I2C_Init+0x13c>)
 80028a2:	31ff      	adds	r1, #255	; 0xff
 80028a4:	f7fe ffd5 	bl	8001852 <assert_failed>
 80028a8:	4e3e      	ldr	r6, [pc, #248]	; (80029a4 <HAL_I2C_Init+0x144>)
 80028aa:	6923      	ldr	r3, [r4, #16]
 80028ac:	4233      	tst	r3, r6
 80028ae:	d004      	beq.n	80028ba <HAL_I2C_Init+0x5a>
 80028b0:	21d0      	movs	r1, #208	; 0xd0
 80028b2:	483a      	ldr	r0, [pc, #232]	; (800299c <HAL_I2C_Init+0x13c>)
 80028b4:	0049      	lsls	r1, r1, #1
 80028b6:	f7fe ffcc 	bl	8001852 <assert_failed>
 80028ba:	6963      	ldr	r3, [r4, #20]
 80028bc:	2bff      	cmp	r3, #255	; 0xff
 80028be:	d904      	bls.n	80028ca <HAL_I2C_Init+0x6a>
 80028c0:	21a2      	movs	r1, #162	; 0xa2
 80028c2:	4836      	ldr	r0, [pc, #216]	; (800299c <HAL_I2C_Init+0x13c>)
